:100000000C941A150C944B150C944B150C944B1521
:100010000C944B150C944B150C944B150C944B15E0
:100020000C944B150C944B150C944B150C944B15D0
:100030000C944B150C944B150C944B150C944B15C0
:100040000C944B150C9426640C944B150C944B1586
:100050000C944B150C944B150C943F900C9445A0AC
:100060000C944B150C942D360C944B150C944B158D
:100070000C944B150C944B150C944B150C944B1580
:100080000C94786C0C944B150C944B150C944B15EC
:100090000C944B150C944B150C944B150C944B1560
:1000A0000C944B150C944B150C944A6C0C944B15FA
:1000B0000C944B150C944B150C944B150C941C6C18
:1000C0000C944B150C944B150C944B150C944B1530
:1000D0000C944B150C944B150C944B150C944B1520
:1000E0000C944B15B5D0B8D0A7D0ABD0B1D0EFD0D1
:1000F000BCD0C0D0C6D0CAD0CED0D4D0D8D0DCD01E
:10010000EFD0E2D0E6D0EAD05AD35FD364D36ED337
:1001100078D3F1D382D38AD392D39CD3A6D3B0D34E
:10012000BFD3C9D3F1D3D3D3DDD3E7D3084AD73B69
:100130003BCE016E84BCBFFDC12F3D6C74319ABDB6
:1001400056833DDA3D00C77F11BED9E4BB4C3E91DA
:100150006BAAAABE000000803F05A84CCDB2D44EC9
:10016000B93836A9020C50B9918688083CA6AAAACB
:100170002ABE000000803F004E414E494E4954596E
:10018000494E46CDCCCC3D0AD7233C17B7D1387762
:10019000CC2B329595E6241FB14F0A000020410078
:1001A00000C84200401C4620BCBE4CCA1B0E5AAEC2
:1001B000C59D74434F4D4D554E49434154494F4E93
:1001C0000044525952554E004552524F5253004925
:1001D0004E464F004543484F0047322F4733206279
:1001E000616420706172616D65746572730A005399
:1001F0006C6565702E2E2E00486F6D652058592055
:1002000066697273740A00486F6D652058592066DC
:100210006972737400205A3A200020593A20004233
:10022000656420583A2000436C69636B20746F202A
:10023000726573756D652E2E2E004E6F206D6F7674
:10024000652E00456E642066696C65206C69737468
:100250000A00426567696E2066696C65206C697387
:10026000740A00286E6F2066696C6529005344206B
:100270007072696E74696E67206279746520004ED1
:100280006F74205344207072696E74696E670A003F
:1002900043757272656E742066696C653A2000253C
:1002A00069730025696D202569730025696820251B
:1002B000696D2025697300256964202569682025FA
:1002C000696D2025697300256979202569642025D9
:1002D00069682025696D20256973005072696E7404
:1002E0002074696D653A2000D401CF01C801C101B5
:1002F000B3016F66660044454255473A004B494C8E
:100300004C45442E20004D3131332053006F6B009B
:1003100069332050726F2042204F66662E002C20D9
:10032000002C2000544845524D414C5F50524F54D0
:10033000454354494F4E004155544F5245504F523A
:10034000545F53445F53544154555300454D4552F7
:1003500047454E43595F5041525345520043415324
:10036000455F4C494748545F4252494748544E45BF
:10037000535300544F47474C455F4C4947485453EB
:1003800000534F4654574152455F504F5745520016
:100390004255494C445F50455243454E54004C45EC
:1003A00056454C494E475F44415441005A5F5052B4
:1003B0004F4245004155544F4C4556454C00505214
:1003C000494E545F4A4F420050524F475245535393
:1003D000004155544F5245504F52545F54454D5073
:1003E00000564F4C554D45545249430045455052D7
:1003F0004F4D0053455249414C5F584F4E5F584F47
:100400004646004649524D574152455F4E414D4583
:100410003A4D61726C696E20312E312E395F424641
:100420005F30323130323031395F30332028577904
:10043000736F636B692920534F555243455F434F98
:1004400044455F55524C3A68747470733A2F2F6765
:1004500069746875622E636F6D2F4D61726C696E81
:100460004669726D776172652F4D61726C696E209D
:1004700050524F544F434F4C5F56455253494F4E85
:100480003A312E30204D414348494E455F54595032
:10049000453A69332050726F2042204558545255D6
:1004A0004445525F434F554E543A312055554944C7
:1004B0003A63656465326132662D343161322D34C0
:1004C0003734382D396231322D6335356336326633
:1004D00033363766660A002F2F20004D3134352021
:1004E000533C696E6465783E206F7574206F66209A
:1004F00072616E67652028302D31290A0020540072
:10050000205200416363656C65726174696F6E3A75
:1005100020500020466C6F773A2000000119171B0D
:1005200016FFFFFFFF1F211D1AFFFFFFFF252723D7
:100530001EFFFFFFFFFFFF0C0407FFFFFF2B2D290E
:10054000FFFFFF044002FF3E206F7574206F66209E
:1005500072616E67650A00536572766F20003A20FB
:100560000020536572766F200043290A0061626C97
:10057000656420286D696E2074656D702000436F7E
:100580006C6420657874727564657320617265208F
:10059000004E6F2063617365206C696768740A00A0
:1005A000426564204C6576656C696E672000466123
:1005B000696C656420746F20656E61626C652042B1
:1005C0006564204C6576656C696E670A00426564F7
:1005D000204C6576656C20436F7272656374696F39
:1005E0006E204D61747269783A00454550524F4D06
:1005F000204F4B0A003F5A206F7574206F6620729F
:10060000616E676520282D323020746F20323029CA
:100610000A003A200050726F6265205A204F6666C9
:1006200073657400416374697665204578747275EA
:100630006465723A2000496E76616C696420657861
:100640007472756465720A004B494C4C45442E2007
:100650000053544F505045442E20005072696E7420
:1006600065722073746F70706564206475652074A2
:100670006F206572726F72732E20466978207468DD
:1006800065206572726F7220616E642075736520DB
:100690004D39393920746F20726573746172742E0C
:1006A000202854656D706572617475726520697378
:1006B0002072657365742E205365742069742061FF
:1006C000667465722072657374617274696E6729ED
:1006D0000A004E6F20436865636B73756D20776900
:1006E0007468206C696E65206E756D6265722C2071
:1006F0004C617374204C696E653A20004E6F204344
:100700006865636B73756D2077697468206C696EBA
:1007100065206E756D6265722C204C617374204C7F
:10072000696E653A2000636865636B73756D206D53
:1007300069736D617463682C204C617374204C691B
:100740006E653A20004C696E65204E756D6265726B
:10075000206973206E6F74204C617374204C696E35
:1007600065204E756D6265722B312C204C6173745F
:10077000204C696E653A20004D313130004D3331E7
:100780000053442072656164206572726F720A00C2
:10079000446F6E65207072696E74696E6720666959
:1007A0006C650A0020496E76616C69642065787416
:1007B00072756465722000000000000000000000F7
:1007C0000000000000524300004643000034435341
:1007D000544F505045442E20005072696E7465721B
:1007E0002073746F707065642064756520746F2069
:1007F0006572726F72732E20466978207468652066
:100800006572726F7220616E6420757365204D3958
:10081000393920746F20726573746172742E2028C8
:1008200054656D70657261747572652069732072AC
:10083000657365742E205365742069742061667435
:1008400065722072657374617274696E67290A003B
:1008500053544F502063616C6C6564206265636122
:10086000757365206F6620424C546F756368206510
:1008700072726F72202D20726573746172742077AA
:10088000697468204D3939390A00486F6D696E679F
:10089000206661696C65640025753A253032750003
:1008A000253032753A25303275002D2D2D005344F8
:1008B000002020202020200020202020006933203C
:1008C00050726F20422052656164792E0050726927
:1008D0006E74696E672E2E2E005072696E742070D1
:1008E00061757365640053746F7720424C546F7563
:1008F0006368004D32383020503020533930004486
:1009000065706C6F7920424C546F756368004D328E
:1009100038302050302053313000424C546F7563D2
:10092000682053656C662D54657374004D32383001
:1009300020503020533132300052657365742042AC
:100940004C546F756368004D32383020503020535E
:10095000313630004D61696E005072696E742061ED
:10096000626F72746564005072696E742066726F93
:100970006D2053440053746F70207072696E740060
:10098000526573756D65207072696E74004E6F20CC
:100990005344206361726400506175736520707206
:1009A000696E7400436F6E74726F6C005072657084
:1009B0006172650054756E6500496E666F207363E1
:1009C0007265656E00466C6F7700466C6F77004607
:1009D0006C6F770046616E207370656564004661D8
:1009E0006E2073706565640046616E207370656586
:1009F00064004265640042656400426564004E6FB5
:100A00007A7A6C65004E6F7A7A6C65004E6F7A7AEE
:100A10006C650053706565640053706565640053D0
:100A200070656564004D61696E0050726F74656336
:100A30007465642050696E0A0020573A00452043CF
:100A40006F6F6C696E672E2E2E00452048656174AD
:100A5000696E672E2E2E0020573A0042656420638F
:100A60006F6F6C696E672E2E2E004265642068657C
:100A70006174696E672E2E2E00205A3A0020593A72
:100A80000020436F756E7420583A0020453A0020CC
:100A90005A3A0020593A00583A003A004361703AF5
:100AA00000205A00205900580020204D61783A203B
:100AB00000205A00205900580020204D696E3A202D
:100AC000004F6E20004F666600536F667420656E9F
:100AD0006473746F70733A200020643A0020693A9E
:100AE0000020703A00496E76616C69642065787404
:100AF00072756465720A0023646566696E652044D8
:100B0000454641554C545F4B64200023646566693B
:100B10006E652044454641554C545F4B6920002387
:100B2000646566696E652044454641554C545F4B8B
:100B3000702000504944204175746F74756E6520B3
:100B400066696E69736865642120507574207468E5
:100B500065206C617374204B702C204B6920616E92
:100B600064204B6420636F6E7374616E74732066CF
:100B7000726F6D2062656C6F7720696E746F2043B1
:100B80006F6E66696775726174696F6E2E680A00B0
:100B9000504944204175746F74756E6520666169B3
:100BA0006C6564212074696D656F75740A00453148
:100BB00020544845524D414C2052554E41574159C1
:100BC00000546865726D616C2052756E6177617951
:100BD0000045312048656174696E67206661696C03
:100BE00065640048656174696E67206661696C655B
:100BF0006400504944204175746F74756E652066B9
:100C000061696C6564212054656D706572617475ED
:100C1000726520746F6F20686967680A00204B64F2
:100C20003A2000204B693A2000204B703A20000AFD
:100C300020436C617373696320504944200A00208B
:100C400054753A2000204B753A2000206D61783AA7
:100C50002000206D696E3A200020643A2000206256
:100C60006961733A2000504944204175746F74756E
:100C70006E65206661696C6564212054656D7065E0
:100C800072617475726520746F6F20686967680A95
:100C900000504944204175746F74756E65207374FB
:100CA0006172740A00504944204175746F74756E06
:100CB00065206661696C6564212042616420657805
:100CC000747275646572206E756D6265720A004F8C
:100CD000666673657473206170706C696564004545
:100CE00072723A20546F6F206661722100546F6FE8
:100CF000206661722066726F6D207265666572652E
:100D00006E636520706F696E740A0050726F62695D
:100D10006E67206661696C65640A0050726F626973
:100D20006E67206661696C656400205A3A20002075
:100D3000593A200042656420583A2000486F6D659A
:100D400020257325732573206669727374002066ED
:100D5000697273740A005A0059005800486F6D6533
:100D6000200053442063617264206F6B0A006F702F
:100D7000656E526F6F74206661696C65640A0076F7
:100D80006F6C756D652E696E6974206661696C653E
:100D9000640A00534420696E6974206661696C0AB4
:100DA0000057726974696E6720746F2066696C659C
:100DB0003A20006F70656E206661696C65642C2056
:100DC00046696C653A20006F70656E206661696CDB
:100DD00065642C2046696C653A200046696C652084
:100DE00073656C65637465640A002053697A653ABB
:100DF000200046696C65206F70656E65643A20005E
:100E00002066696C653A2000646F696E67006672DF
:100E1000657368004E6F772000454E44205355425D
:100E2000524F5554494E450A002220706F730022DC
:100E300020706172656E743A2200535542524F55CC
:100E400054494E452043414C4C207461726765748F
:100E50003A22004B494C4C45442E2000747279696B
:100E60006E6720746F2063616C6C207375622D67F0
:100E7000636F64652066696C6573207769746820A8
:100E8000746F6F206D616E79206C6576656C732E62
:100E9000204D4158206C6576656C2069733A004599
:100EA00072726F723A0020746F6F206C6F6E6720E1
:100EB000657874727573696F6E2070726576656E91
:100EC0007465640A0020636F6C64206578747275C1
:100ED00073696F6E2070726576656E7465640A0062
:100EE00024F4D43050C38E20C2A24017828B7011DC
:100EF000127A910D816CD90AA861E108C75866077A
:100F0000615143061E4B5D05C145A7041A411104FA
:100F1000093D9803713931034036DB026533910294
:100F2000D4305402802E1D02632CEE01752AC501B7
:100F3000B028A001102781018F2564012B244B01CB
:100F4000E0223401AC211F018D200D01801FFC0027
:100F5000841EED00971DDF00B81CD200E61BC60002
:100F6000201BBC00641AB200B219A8000A19A00024
:100F70006A189900D117910040178B00B5168400AC
:100F800031167E00B31579003A157300C7146F004F
:100F900058146A00EE1366008813630025135E0080
:100FA000C7125B006C12570015125400C11151009A
:100FB00070114F0021114B00D61049008D104700D1
:100FC0004610440002104200C00F4000800F3E0057
:100FD000420F3C00060F3B00CB0E3800930E37004B
:100FE0005C0E3500270E3400F30D3200C10D3100C8
:100FF000900D3000600D2E00320D2D00050D2C00DF
:10100000D90C2B00AE0C2900850C29005C0C2700A4
:10101000350C27000E0C2600E80B2400C40B24001E
:10102000A00B23007D0B23005A0B2100390B21005C
:10103000180B2000F80A1F00D90A1E00BB0A1E0068
:101040009D0A1D00800A1D00630A1C00470A1B0040
:101050002C0A1B00110A1A00F7091A00DD091900F1
:10106000C4091900AB091900920917007B0918007F
:10107000630917004C0916003609160020091600EE
:101080000A091500F5081500E0081400CC08140042
:10109000B8081400A4081400900813007D0812007A
:1010A0006B0813005808120046081200340811009B
:1010B000230811001208110001081100F0071000A8
:1010C000E0071000D0071000C0071000B0070F00A5
:1010D000A107100091070E0083070F0074070F008F
:1010E00065070E0057070E0049070E003B070D006D
:1010F0002E070E0020070D0013070D0006070D0038
:10110000F9060C00ED060D00E0060C00D4060C00FC
:10111000C8060C00BC060C00B0060C00A4060B00B0
:1011200099060C008D060B0082060B0077060B005B
:101130006C060B0061060A0057060B004C060A00FD
:1011400042060A0038060A002E060A0024060A0093
:101150001A060A001006090007060A00FD05090024
:10116000F4050900EB050900E2050900D9050900AD
:10117000D0050900C7050900BE050900B50508002E
:10118000AD050800A50509009C05080094050800A8
:101190008C050800840508007C050800740508001B
:1011A0006C050700650508005D0507005605080089
:1011B0004E050700470507004005080038050700F1
:1011C000310507002A050700230507001C05060056
:1011D000160507000F0507000805060002050700B1
:1011E000FB040600F5040700EE040600E804060010
:1011F000E2040700DB040600D5040600CF04060065
:10120000C9040600C3040600BD040600B7040600B6
:10121000B1040500AC040600A6040600A004050005
:101220009B04060095040500900406008A0405004E
:1012300085040500800406007A0405007504050095
:10124000700405006B0405006604050061040500D8
:101250005C04050057040500520405004D04050018
:1012600048040500430405003E0404003A04050058
:1012700035040500300404002C0405002704040094
:10128000230405001E0404001A04040016040500CB
:10129000110404000D040400090405000404040002
:1012A00000040400FC030400F8030400F403040039
:1012B000F0030400EC030400E8030400E40304006A
:1012C000E0030400DC030400D8030400D40304009A
:1012D000D0030400CC030400C8030300C5030300CB
:1012E00024F404D9201BC40C5C0E9804C4095F02CA
:1012F00065077101F405F900FB04B3004804870099
:10130000C10369005803550003034500BE023A00BB
:101310008402310053022A00290225000402200021
:10132000E4011C00C8011900AF0117009801140066
:1013300084011300710110006101100051010E00C1
:1013400043010D0036010B002B010B0020010B00A7
:10135000150109000C01090003010800FB00080049
:10136000F3000800EB000700E4000600DE000600C2
:10137000D8000600D2000600CC000500C70005001A
:10138000C2000500BD000400B9000400B50004005F
:10139000B1000400AD000400A9000400A500030092
:1013A000A20003009F0004009B00030098000300BC
:1013B0009500020093000300900003008D000200DE
:1013C0008B000300880002008600020084000300F6
:1013D000810002007F0002007D0002007B0002000D
:1013E000790002007700010076000200740002001C
:1013F00072000100710002006F0002006D00010028
:101400006C0002006A000100690002006700010030
:101410006600010065000100640002006200010036
:1014200061000100600001005F0002005D0001003A
:101430005C0001005B0001005A000100590001003E
:10144000580001005700010056000100550001003E
:10145000540001005300000053000100520001003D
:1014600051000100500001004F0001004E0000003B
:101470004E0001004D0001004C0001004B00000037
:101480004B0001004A000100490001004800000033
:10149000480001004700010046000000460001002E
:1014A0004500000045000100440001004300000029
:1014B0004300010042000000420001004100000022
:1014C00041000100400001003F0000003F0001001A
:1014D0003E0000003E0001003D0000003D00010014
:1014E0003C0000003C0000003C0001003B0000000C
:1014F0003B0001003A0000003A0001003900000002
:1015000039000100380000003800000038000100F8
:1015100037000000370001003600000036000000F0
:1015200036000100350000003500000035000100E4
:1015300034000000340000003400010033000000DB
:1015400033000000330001003200000032000000D0
:1015500032000100310000003100000031000100C4
:101560003000000030000000300001002F000000BB
:101570002F0000002F0000002F0001002E000000AF
:101580002E0000002E0001002D0000002D000000A4
:101590002D0000002D0001002C0000002C00000098
:1015A0002C0000002C0001002B0000002B0000008C
:1015B0002B0000002B0001002A0000002A00000080
:1015C0002A0000002A000100290000002900000074
:1015D0002900000029000000290001002800000067
:1015E000280000002800000028000000280001005A
:1015F000270000002700000027000000270000004F
:101600002700010026000000260000002600000040
:101610002600000026000100250000002500000033
:101620002500000025000000250000002500010025
:10163000240000002400000024000000240000001A
:10164000240001002300000023000000230000000C
:1016500023000000230000002300000023000100FD
:1016600022000000220000002200000022000000F2
:1016700022000000220001002100000021000000E3
:1016800021000000210000002100000021000000D6
:1016900021000100200000002000000020000000C8
:1016A00020000000200000002000000020000000BA
:1016B000200001001F0000001F0000001F000000AC
:1016C0001F0000001F0000001F0000001F0001009D
:1016D0001E0000001E0000001E0000001E00000092
:1016E000043700001E290000511B000058100000A4
:1016F00010090000CC040000780200004101000045
:1017000053746570732F6D6D004A65726B00416391
:1017100063656C65726174696F6E0056656C6F63AA
:101720006974790050726F6265205A204F66667343
:1017300065740050726F6265205A204F666673654B
:101740007400436F6E74726F6C0046696C2E204497
:1017500069612E0046696C2E204469612E004F6637
:1017600066004F6E20004520696E206D6D3300438A
:101770006F6E74726F6C0043616E6E6F7420656E75
:10178000746572207375626469723A2000052E2EAA
:10179000004D61696E000A0A426564204C657665F9
:1017A0006C20436F7272656374696F6E204D617453
:1017B0007269783A00202B000A436F727265637475
:1017C00065642042656420486569676874207673A3
:1017D0002E2042656420546F706F6C6F67793A0AEF
:1017E00000202B000A426564204865696768742000
:1017F000546F706F6772617068793A0A2020202BED
:101800002D2D2D204241434B202D2D2B0A20202011
:101810007C20202020202020202020207C0A204CFA
:10182000207C20202020282B29202020207C2052B2
:101830000A2045207C20202020202020202020203D
:101840007C20490A2046207C20282D29204E202853
:101850002B29207C20470A2054207C202020202077
:101860002020202020207C20480A2020207C2020AE
:101870002020282D29202020207C20540A202020D0
:101880007C20202020202020202020207C0A2020B6
:10189000204F2D2D2046524F4E54202D2D2B0A2007
:1018A00028302C30290A004D65616E206F66207348
:1018B000616D706C656420706F696E74733A20009E
:1018C00020643A200020623A200045716E20636F48
:1018D000656666696369656E74733A20613A2000D3
:1018E000202844525952554E29004732392041751B
:1018F000746F20426564204C6576656C696E670084
:101900003F20284C2C522C462C4229206F757420E5
:101910006F6620626F756E64732E0A003F50726F9F
:10192000626520706F696E7473202859292069736D
:1019300020696D706C61757369626C652028322D49
:1019400033292E0A003F50726F626520706F696EF6
:1019500074732028582920697320696D706C617533
:101960007369626C652028322D33292E0A003F28C6
:1019700056296572626F7365206C6576656C2069A7
:101980007320696D706C61757369626C65202830B5
:101990002D34292E0A0046696C652064656C6574D7
:1019A00065643A0044656C6574696F6E20666169B0
:1019B0006C65642C2046696C653A20004578747229
:1019C00075646572004D6F7665205A004D6F7665BF
:1019D0002059004D6F766520580050726570617215
:1019E0006500496E697469616C697A652045455086
:1019F000524F4D00436F6E74726F6C00526573747A
:101A00006F7265206661696C73616665004C6F6119
:101A1000642073657474696E677300496E697469D4
:101A2000616C697A6520454550524F4D0053746F83
:101A300072652073657474696E677300424C546FED
:101A40007563680046696C616D656E74004D6F74F6
:101A5000696F6E0054656D706572617475726500B2
:101A60004D61696E00507265686561742041425332
:101A700020636F6E66005072656865617420504C1B
:101A80004120636F6E66005049442D440050494424
:101A90002D44005049442D49005049442D490050DF
:101AA00049442D50005049442D50002002204661E9
:101AB00063740020022046616374002002204D619F
:101AC00078002002204D6178002002204D617800CE
:101AD0002002204D696E002002204D696E00200218
:101AE000204D696E004F6666004F6E200041757490
:101AF0006F74656D700046616E207370656564007B
:101B000046616E2073706565640046616E20737077
:101B10006565640042656400426564004265640076
:101B20004E6F7A7A6C65004E6F7A7A6C65004E6FF4
:101B30007A7A6C6500436F6E74726F6C0053746FC9
:101B400072652073657474696E6773004265640022
:101B500042656400426564004E6F7A7A6C65004E9F
:101B60006F7A7A6C65004E6F7A7A6C650046616EAA
:101B70002073706565640046616E207370656564EE
:101B80000046616E2073706565640054656D706514
:101B9000726174757265006265640A002C20737945
:101BA0007374656D2073746F70706564212048656F
:101BB000617465725F49443A20004265642068653B
:101BC0006174696E67206661696C6564004865616F
:101BD00074696E67206661696C65640045312048F0
:101BE000656174696E67206661696C65640048654B
:101BF0006174696E67206661696C65640070012CB0
:101C00000190012701B0012201C0011D01F001185E
:101C1000011002130130020E01600209019002045A
:101C200001C002FF000003FA004003F5008003F04A
:101C300000D003EB002004E6007004E100E004DCC7
:101C4000004005D700C005D2004006CD00D006C830
:101C5000008007C3003008BE00F008B900C009B416
:101C600000B00AAF00B00BAA00D00CA500000EA077
:101C700000500F9B00C01096005012910000148C71
:101C800000C0158700B0178200B0197D00D01B7806
:101C900000001E730040206E0090226900F0246452
:101CA0000040275F0090295A00E02B5500102E506D
:101CB0000020304B0010324600E033410090353CAC
:101CC000001037370070383200A0392D00B03A28A4
:101CD00000A03B2300603C1E00103D1900903D1405
:101CE00000103E0F00703E0A00C03E0500003F009D
:101CF00000403FFBFF803FF6FFC03FF1FF45312032
:101D0000544845524D414C2052554E41574159007F
:101D100042454420544845524D414C2052554E4175
:101D200057415900546865726D616C2052756E613F
:101D3000776179004531204572723A204D415854FF
:101D4000454D50004572723A204D415854454D5012
:101D500020424544004D415854454D50207472690D
:101D6000676765726564004531204572723A204D9F
:101D7000494E54454D50004572723A204D494E54DB
:101D8000454D5020424544004D494E54454D50204C
:101D9000747269676765726564004D383420582035
:101DA00059205A204500202F002042403A00204070
:101DB0003A005654726176206D696E005654726115
:101DC00076206D696E005654726176206D696E00E2
:101DD000566D696E00566D696E00566D696E0056DF
:101DE0006D6178204500566D6178204500566D6123
:101DF00078204500566D6178205A00566D61782034
:101E00005A00566D6178205A00566D61782059004D
:101E1000566D6178205900566D6178205900566DD5
:101E20006178205800566D6178205800566D6178B1
:101E30002058004D6F74696F6E00416D61782045C8
:101E400000416D6178204500416D6178205A004164
:101E50006D6178205A00416D6178205900416D61B3
:101E600078205900416D6178205800416D617820DB
:101E70005800412D74726176656C00412D74726159
:101E800076656C00412D7265747261637400412D3A
:101E90007265747261637400416363656C004163D1
:101EA00063656C004D6F74696F6E0056652D6A65D1
:101EB000726B0056652D6A65726B0056652D6A65FA
:101EC000726B00567A2D6A65726B00567A2D6A65C0
:101ED000726B0056792D6A65726B0056792D6A65B2
:101EE000726B0056792D6A65726B0056782D6A65A3
:101EF000726B0056782D6A65726B0056782D6A6594
:101F0000726B004D6F74696F6E004573746570730A
:101F10002F6D6D004573746570732F6D6D005A736E
:101F2000746570732F6D6D005A73746570732F6DC7
:101F30006D005973746570732F6D6D0059737465FE
:101F400070732F6D6D005873746570732F6D6D0015
:101F50005873746570732F6D6D004D6F74696F6E7B
:101F60000000000000010204040000001C1C0C041E
:101F7000040402010000000000040810000000003A
:101F8000002D2D2D2D2D2D007C4D61726C696E7CE8
:101F9000002D2D2D2D2D2D00687474703A2F2F6D6E
:101FA00061726C696E66772E6F7267006874747008
:101FB0003A2F2F6D61726C696E66772E6F726700B3
:101FC000312E312E395F42465F303231303230317E
:101FD000395F303300312E312E395F42465F303267
:101FE0003130323031395F303300002020506C61A5
:101FF0006E6E657242756666657242797465733A93
:1020000020002046726565204D656D6F72793A201B
:1020100000436F6D70696C65643A204665622031DB
:102020003020323031390A00207C20417574686FCD
:10203000723A20285779736F636B692C2047746557
:10204000636820312E312E39204275676669782009
:102050003032313032303139290A00323031392DC5
:1020600030322D313000204C617374205570646122
:102070007465643A2000312E312E395F42465F305C
:10208000323130323031395F30330A004D61726C99
:10209000696E0020536F66747761726520526573B4
:1020A00065740A00205761746368646F6720526525
:1020B0007365740A002042726F776E206F7574200A
:1020C00052657365740A002045787465726E616CA0
:1020D0002052657365740A00506F77657255700AF7
:1020E0000073746172740A006175746F25692E67DC
:1020F000006572726F722077726974696E672074FE
:102100006F2066696C650A00456E6473746F707346
:1021100020256320256320256320256300205A3A6B
:102120000020593A0020583A00656E6473746F704D
:1021300073206869743A2000446F6E65207361767D
:10214000696E672066696C652E0A004D323900524F
:102150006573656E643A20006F6B0020746F6F20AA
:102160006C6F6E6720657874727573696F6E20701E
:10217000726576656E7465640A0020636F6C642016
:10218000657874727573696F6E2070726576656EAE
:102190007465640A00627573793A207061757365BD
:1021A0006420666F7220696E7075740A00627573C0
:1021B000793A2070617573656420666F722075735B
:1021C00065720A00627573793A2070726F63657385
:1021D00073696E670A004B494C4C45442E20004BF6
:1021E000494C4C2063617573656420627920746F7B
:1021F0006F206D75636820696E6163746976652010
:1022000074696D65202D2063757272656E7420632C
:102210006F6D6D616E643A2000506C65617365206E
:102220007265736574005052494E544552204841BE
:102230004C544544005072696E7465722068616C3C
:102240007465642E206B696C6C28292063616C6C4A
:102250006564210A00656E7175657565696E672034
:10226000220000000000000000000000000000004C
:102270007042000070420000704200000000576190
:10228000726E696E673A20486F6D696E672042759D
:102290006D702044697669736F72203C20310A00AA
:1022A0000202040000A0400000A040000000400026
:1022B0000052430000464300003443FFFFFF5072CA
:1022C000656865617420504C4120456E6400507211
:1022D000656865617420504C41204265640050720D
:1022E000656865617420504C410050726570617280
:1022F0006500507265686561742041425320456EE7
:1023000064005072656865617420414253204265E3
:1023100064005072656865617420414253005072D8
:102320006570617265004D343238004D32383020AE
:102330005030205331363000424C546F7563682062
:1023400053656C662D54657374004D3238302050DF
:10235000302053313230005072656865617420411D
:102360004253005072656865617420504C410043CF
:102370006F6F6C646F776E00526573657420424CAA
:10238000546F7563680044697361626C652073748F
:10239000657070657273004D383400536574206841
:1023A0006F6D65206F666673657473004F666600B7
:1023B0004F6E2000426564204C6576656C696E67DF
:1023C000004C6576656C20626564004732380A47C8
:1023D0003239004175746F20686F6D65004732387F
:1023E000004D6F76652061786973004D61696E00FC
:1023F0004D6F76652058004D6F76652059004D6F02
:102400007665205A004578747275646572004D6F68
:10241000766520302E316D6D004D6F766520316D03
:102420006D004D6F76652031306D6D004D6F7665B6
:102430002061786973004578747275646572004D27
:102440006F7665205A004D6F76652059004D6F7686
:1024500065205800436172642072656D6F76656413
:10246000004361726420696E73657274656400452F
:102470004550524F4D206461746173697A652065DF
:1024800072726F722E0A00290A00206279746573D5
:102490003B20637263200053657474696E67732018
:1024A00053746F726564202800290A0020627974D1
:1024B00065733B2063726320002073746F726564E0
:1024C0002073657474696E677320726574726965D0
:1024D000766564202800202863616C63756C6174E4
:1024E000656429210A0020213D2000454550524FB6
:1024F0004D20435243206D69736D61746368202DD4
:10250000202873746F7265642920002053697A65EE
:102510003A2000496E6465783A2000204D61726C63
:10252000696E3D563535290A0028454550524F4DB4
:102530003D00454550524F4D2076657273696F6E70
:10254000206D69736D6174636820007C3C3E5E2B76
:102550003D3F2F5B5D3B2C2A225C006F70656E2037
:102560006661696C65642C2046696C653A2000439D
:10257000616E6E6F74206F70656E20737562646932
:102580007220006563686F3A00001C1F11111F0064
:10259000000006191803130C00040E1F041C000091
:1025A00000000E1315110E00001C1018170506056B
:1025B00000040A0A0A0A11110E0C12120C00000083
:1025C00000001F1511151F00000000210024002726
:1025D000002A002D00300033000101000004010733
:1025E000010A0100002200250028002B002E0031E6
:1025F00000340002010000050108010B0100002069
:10260000002300260029002C002F003200000100CA
:10261000000301060109010505050507050808086D
:1026200008020202020A0A08080404040401010163
:10263000010101010103030303030303030407076B
:10264000070C0C0C0C0C0C0C0C0202020206060609
:1026500006060606060B0B0B0B0B0B0B0B010210F1
:1026600020200808102040102040800201020108AC
:10267000040201010204081020408080402010085C
:1026800004020180040201804020100804020108B5
:102690000402010102040810204080010204081015
:1026A00020408000000A0B02090C0D0E08070304ED
:1026B0000100000000000000000000000000000019
:1026C00000000000000000000000000000000012F8
:1026D00011100000000000000000000000000000D9
:1026E0000000000000000000004D3234004D323385
:1026F00020257300556E6B6E6F776E20636F6D6D66
:10270000616E643A20220048617264636F6465649C
:102710002044656661756C742053657474696E67D6
:1027200073204C6F616465640A00B80B0000B80B3D
:10273000000064000000102700000000C8430000F3
:10274000C84300000040000034420000A3420000E3
:10275000A3425258C8430000BC423A0A0020286DE8
:102760006D290020204D383531205A005A2D5072E5
:102770006F6265204F6666736574002044002049CF
:102780000020204D333031205000504944207365E3
:102790007474696E67733A0A002046002042002074
:1027A000480020204D3134352053004D617465724E
:1027B00069616C2068656174757020706172616D0B
:1027C00065746572733A0A0020204D34323020530C
:1027D000004175746F20426564204C6576656C69B4
:1027E0006E673A0A00205A0020590020204D3230EE
:1027F00036205800486F6D65206F66667365743AC1
:102800000A00204500205A0020590020580020547A
:102810000020530020204D32303520510020453C0F
:102820006D61785F655F6A65726B3E0020583C6D34
:1028300061785F785F6A65726B3E20593C6D6178A4
:102840005F795F6A65726B3E205A3C6D61785F7A92
:102850005F6A65726B3E00416476616E6365643ADF
:1028600020513C6D696E5F7365676D656E745F7452
:10287000696D655F75733E20533C6D696E5F66657B
:102880006564726174653E20543C6D696E5F74725C
:102890006176656C5F66656564726174653E002093
:1028A000540020520020204D32303420500041632B
:1028B00063656C65726174696F6E2028756E6974EA
:1028C000732F7332293A20503C7072696E745F61C5
:1028D0006363656C3E20523C726574726163745F21
:1028E000616363656C3E20543C74726176656C5F15
:1028F000616363656C3E0A00204500205A00205940
:102900000020204D3230312058004D6178696D75BE
:102910006D20416363656C65726174696F6E202818
:10292000756E6974732F7332293A0A0020450020AE
:102930005A0020590020204D3230332058004D617C
:1029400078696D756D206665656472617465732064
:1029500028756E6974732F73293A0A002045002088
:102960005A0020590020204D3932205800537465F8
:1029700070732070657220756E69743A0A002020A9
:102980004D3230302044300A0020204D323030208B
:1029900044002044697361626C65640A0046696C96
:1029A000616D656E742073657474696E67733A0047
:1029B00020204D3134392043203B20556E697473FB
:1029C00020696E2043656C736975730A0020204787
:1029D0003231202020203B004572726F72207772C6
:1029E0006974696E6720746F20454550524F4D21C0
:1029F0000A00545249474745524544006F70656E7E
:102A0000003A20007A5F6D696E00795F6D696E0033
:102A1000785F6D696E005265706F7274696E6720C1
:102A2000656E6473746F70207374617475730A00DB
:102A3000ECEB8EEA11241FBECFEFD1E2DEBFCDBF9B
:102A400000E00CBF13E0A0E0B2E0E8EFF6EF01E039
:102A50000BBF02C007900D92A633B107D9F722E150
:102A6000A6E3B3E001C01D92A13DB207E1F715E175
:102A7000C9E1D5E100E006C021970109802FFE01E0
:102A80000E94E0FAC831D10780E00807A9F70E9448
:102A90005CE50C946BFB0C9400002F923F924F92DC
:102AA0005F926F927F928F929F92AF92BF92CF92DE
:102AB000DF92EF92FF920F931F93CF93DF93CDB7E7
:102AC000DEB7CB56D1090FB6F894DEBF0FBECDBF2F
:102AD00021E02093A60E8091230E8D3409F4FCC7CB
:102AE000843511F40C94792A873411F00C94BD2AA2
:102AF0002090210E3090220E3CE12316310409F47F
:102B000034C694F454E02516310444F482E02816C7
:102B100031040CF03EC037FE35C0DAC794E0291608
:102B2000310409F4E4C5D4C7AAE52A16310409F42E
:102B300010C75CF4EDE12E16310409F42DC6FEE158
:102B40002F16310409F42CC6C3C73BE52316310404
:102B500009F403C74CE52416310409F0B9C7E9E4C8
:102B60002E2EE2E03E2EF4EBEF2EFEE0FF2E22EFC3
:102B700033E039AF28AFA2EECA2EA3E0DA2E00E090
:102B800010E02AC78091280281110C94C42A0C9469
:102B9000BF2A80912802882311F40C94BF2A0E9436
:102BA000948482E50E94E131882309F44CC10E949B
:102BB00065314B015C0120E030E0A9010E9499F3EE
:102BC000882309F470C18091F2039091F303A091DE
:102BD000F403B091F50388AF99AFAAAFBBAF2091D2
:102BE000F6033091F7034091F8035091F9032CAFAD
:102BF0003DAF4EAF5FAF8091C00E9091C10EA091DE
:102C0000C20EB091C30E2C968CAF9DAFAEAFBFAFCE
:102C10002C972091C40E3091C50E4091C60E509154
:102C2000C70E28962CAF3DAF4EAF5FAF28979C01E3
:102C3000AD0168AD79AD8AAD9BAD0E9499F381116C
:102C40000FC028962CAD3DAD4EAD5FAD28976CAD55
:102C50007DAD8EAD9FAD0E9499F3882309F423C109
:102C600011E032E02316310409F010E020E030E0FA
:102C7000A901C501B4010E9499F3881F8827881F04
:102C8000181759F080E090E0A0E8BFEB64968CAF95
:102C90009DAFAEAFBFAF64970AC020E030E040E820
:102CA0005FE364962CAF3DAF4EAF5FAF649728AD46
:102CB00039AD4AAD5BAD2C966CAD7DAD8EAD9FADA3
:102CC0002C970E94E4F760966CAF7DAF8EAF9FAFFC
:102CD00060972CAD3DAD4EAD5FAD28966CAD7DAD32
:102CE0008EAD9FAD28970E94E4F76B017C01609642
:102CF0002CAD3DAD4EAD5FAD6097CA01B9010E94EC
:102D0000FEF32B013C01A7019601C701B6010E9409
:102D1000FEF39B01AC01C301B2010E94E5F70E94E2
:102D200050FA24966CAF7DAF8EAF9FAF249720E012
:102D300030E040E05FE30E94FEF32B013C01A5017F
:102D40009401C501B4010E94FEF34B015C01A30193
:102D50009201C301B2010E94FEF39B01AC01C501C7
:102D6000B4010E94E4F70E9450FA64962CAD3DAD88
:102D70004EAD5FAD64970E94FEF34B015C01C7014D
:102D8000B601905824962CAD3DAD4EAD5FAD249765
:102D90000E94C1F8A50194010E94FEF36B017C0121
:102DA0002C962CAD3DAD4EAD5FAD2C9768AD79AD99
:102DB0008AAD9BAD0E94E5F720E030E040E05FE3A4
:102DC0000E94FEF39B01AC01C701B6010E94E5F72A
:102DD00028AD39AD4AAD5BAD0E94E4F76B017C01D3
:102DE00028962CAD3DAD4EAD5FAD28976CAD7DAD59
:102DF0008EAD9FAD0E94E5F720E030E040E05FE35C
:102E00000E94FEF32B013C0124962CAD3DAD4EAD4E
:102E10005FAD249760966CAD7DAD8EAD9FAD609734
:102E20000E94C1F8A50194010E94FEF39B01AC0130
:102E3000C301B2010E94E5F72CAD3DAD4EAD5FADD3
:102E40000E94E4F714C089E40E94E131882329F04C
:102E50000E9465316B017C0103C0C12CD12C76012D
:102E60008AE40E94E131882309F10E9465312C96A1
:102E70006CAF7DAF8EAF9FAF2C9720E030E0A90103
:102E8000C701B6010E9499F381111FC020E030E014
:102E9000A9012C966CAD7DAD8EAD9FAD2C970E9497
:102EA00099F3811112C0EFE9FEE00DC420E030E09B
:102EB000A901C701B6010E9499F38823A1F32C96BA
:102EC0001CAE1DAE1EAE1FAE2C97D701C601B0586A
:102ED00088AF99AFAAAFBBAF2C962CAD3DAD4EAD30
:102EE0005FAD2C9750582CAF3DAF4EAF5FAF9C01FC
:102EF000AD01BC01CD010E94FEF34B015C012CAD84
:102F00003DAD4EAD5FADCA01B9010E94FEF39B011C
:102F1000AC01C501B4010E94E5F70E9450FAA096E9
:102F20006CAF7DAF8EAF9FAFA0978091F203909171
:102F3000F303A091F403B091F50328968CAF9DAFF5
:102F4000AEAFBFAF2897A7019601BC01CD010E948B
:102F5000E5F764966CAF7DAF8EAF9FAF649720911D
:102F6000F6033091F7034091F8035091F90360960E
:102F70002CAF3DAF4EAF5FAF60972C962CAD3DAD03
:102F80004EAD5FAD2C9760966CAD7DAD8EAD9FADB7
:102F900060970E94E5F7A4966CAF7DAF8EAF9FAFB0
:102FA000A4978091C00E9091C10EA091C20EB091D5
:102FB000C30E68968CAF9DAFAEAFBFAF68976496F7
:102FC0002CAD3DAD4EAD5FAD6497BC01CD010E940F
:102FD000E4F76B017C012091C40E3091C50E409145
:102FE000C60E5091C70E6C962CAF3DAF4EAF5FAF83
:102FF0006C97A4962CAD3DAD4EAD5FADA4976C968D
:103000006CAD7DAD8EAD9FAD6C970E94E4F74B012A
:103010005C018091FA039091FB03A091FC03B091B5
:10302000FD03A8968CAF9DAFAEAFBFAFA8979C0134
:10303000AD016091C80E7091C90E8091CA0E909139
:10304000CB0E0E94E4F724966CAF7DAF8EAF9FAF9E
:103050002497A701960168AD79AD8AAD9BAD0E941A
:10306000FEF32B013C01A50194016CAD7DAD8EAD4D
:103070009FAD0E94FEF39B01AC01C301B2010E940F
:10308000E5F72B013C01A501940168AD79AD8AAD4E
:103090009BAD0E94FEF34B015C01A70196016CAD54
:1030A0007DAD8EAD9FAD0E94FEF39B01AC01C501CD
:1030B000B4010E94E4F7A30192010E9458F86B0149
:1030C0007C0120E030E0A9010E9499F387FF0AC04B
:1030D0002BED3FE049EC50E4C701B6010E94E5F753
:1030E0006B017C0192E02916310451F42BED3FE095
:1030F00049EC50E4C701B6010E94E4F76B017C0182
:1031000020E030E0A901C701B6010E9499F38111C6
:1031100028C068962CAD3DAD4EAD5FAD6897289642
:103120006CAD7DAD8EAD9FAD28970E9499F3811156
:1031300018C06C962CAD3DAD4EAD5FAD6C976096F2
:103140006CAD7DAD8EAD9FAD60970E9499F38111FE
:1031500008C00BEDC02E0FE0D02E09ECE02E00E4ED
:10316000F02EA7019601A0966CAD7DAD8EAD9FAD02
:10317000A0970E94FEF34B015C0120E030E0A90122
:1031800024966CAD7DAD8EAD9FAD24970E9499F3D2
:103190008823E9F0A5019401C501B4010E94FEF362
:1031A0004B015C0124962CAD3DAD4EAD5FAD249737
:1031B000CA01B9010E94FEF39B01AC01C501B40133
:1031C0000E94E5F70E9450FA4B015C010DC020E01F
:1031D00030E0A901C501B4010E940BFA87FF04C0C9
:1031E000B7FAB094B7F8B0942FE632E143E85AE367
:1031F000C501B4010E9499F387FF02C00C94BF2A55
:10320000C501B4010E945AF90E942EF92E967FAF93
:103210006EAF2E97DB01AB2B31F4E1E0F0E02E96A0
:10322000FFAFEEAF2E974090FE035090FF036090EB
:103230000004709001042E962EAD3FAD2E97B9017B
:1032400080E090E00E949DF34B015C019B01AC018A
:10325000C701B6010E94C1F828966CAF7DAF8EAF52
:103260009FAF2897A501940124966CAD7DAD8EADDE
:103270009FAD24970E94C1F8A0966CAF7DAF8EAF32
:103280009FAFA097A30192016091CC0E7091CD0EDB
:103290008091CE0E9091CF0E0E94E4F7A50194018B
:1032A0000E94C1F8AC966CAF7DAF8EAF9FAFAC976C
:1032B00028962CAD3DAD4EAD5FAD2897CA01B90142
:1032C0000E94FEF320E030E040E05FE30E94FEF366
:1032D0009B01AC0160E070E080E89FE30E94E4F7AE
:1032E00068966CAF7DAF8EAF9FAF6897A8968CAD98
:1032F0009DADAEADBFADA89789879A87AB87BC87D8
:103300004D865E866F86788A60910602709107020C
:10331000072E000C880B990B0E949FF320910C0242
:1033200030910D0240910E0250910F020E94FEF367
:103330002AE037ED43E25CE30E94FEF36CAB7DAB29
:103340008EAB9FAB0E9439A09B01AC0128533F4F2D
:103350004F4F5F4F6C962CAF3DAF4EAF5FAF6C974A
:1033600048AC59AC6AAC7BAC22242394312C39E1B3
:1033700021963FAF21972E964EAD5FAD2E97421509
:10338000530509F44CC10E9470940E9439A0DC01DD
:10339000CB016C962CAD3DAD4EAD5FAD6C97821BF5
:1033A000930BA40BB50BB7FD10C00E9439A09B0175
:1033B000AC0128533F4F4F4F5F4F6C962CAF3DAF42
:1033C0004EAF5FAF6C970E9417A421963FAD219737
:1033D000315021963FAF2197332309F445C02CADDE
:1033E0003DAD4EAD5FAD68966CAD7DAD8EAD9FAD24
:1033F00068970E94FEF36B017C019201A30128965D
:103400006CAD7DAD8EAD9FAD28970E94FEF3A701F8
:1034100096010E94E5F77B018C019201A301689659
:103420006CAD7DAD8EAD9FAD68970E94FEF34B01F4
:103430005C012CAD3DAD4EAD5FAD28966CAD7DAD64
:103440008EAD9FAD28970E94FEF39B01AC01C50194
:10345000B4010E94E4F72B013C01C701D8018CAFF5
:103460009DAFAEAFBFAF55C0B10180E090E00E940C
:103470009DF328962CAD3DAD4EAD5FAD28970E94D3
:10348000FEF34B015C010E94BEF86B017C01C5019B
:10349000B4010E9446FA4B015C01A701960168AD98
:1034A00079AD8AAD9BAD0E94FEF32B013C012C96B9
:1034B0002CAD3DAD4EAD5FAD2C97C501B4010E9462
:1034C000FEF3A30192010E94E5F72B013C01A50147
:1034D000940168AD79AD8AAD9BAD0E94FEF34B01BE
:1034E0005C012C962CAD3DAD4EAD5FAD2C97C70168
:1034F000B6010E94FEF39B01AC01C501B4010E941C
:10350000E4F76CAF7DAF8EAF9FAF49E121964FAF2F
:1035100021979201A30164966CAD7DAD8EAD9FADF8
:1035200064970E94E5F769837A838B839C832CAD33
:103530003DAD4EAD5FADA4966CAD7DAD8EAD9FAD96
:10354000A4970E94E5F76D837E838F839887A0966A
:103550002CAD3DAD4EAD5FADA09769857A858B856D
:103560009C850E94E5F769877A878B879C87AC9654
:103570002CAD3DAD4EAD5FADAC976D857E858F8535
:1035800098890E94E5F76D877E878F87988B809159
:103590004402882321F0CE0101960E9476A2E09099
:1035A000EB0E1CA61DA61EA61FA689819A81AB81C3
:1035B000BC8188A399A3AAA3BBA38D819E81AF815F
:1035C000B8858CA39DA3AEA3BFA389859A85AB853F
:1035D000BC8588A799A7AAA7BBA7AE01485D5F4F86
:1035E000BE016C5D7F4FCE0180960E9491E1CE01BD
:1035F0008C966C018E010C5C1F4F9E01235F3F4F28
:10360000AE01485D5F4FBE016C5D7F4F0C970E941D
:103610001455882321F09FEF291A390AACCEE09087
:10362000EB0E18AA19AA1AAA1BAA8091C00E909193
:10363000C10EA091C20EB091C30E88A399A3AAA3F4
:10364000BBA38091C40E9091C50EA091C60EB091FF
:10365000C70E8CA39DA3AEA3BFA38091C80E90916B
:10366000C90EA091CA0EB091CB0E88A799A7AAA7A0
:10367000BBA7AE01485D5F4FBE016C5D7F4FCE01C1
:1036800080960E9491E1DE01D0966D018E010C5C66
:103690001F4F2CEC3EE0AE01485D5F4FBE016C5DFC
:1036A0007F4FCE0180960E94145580E1E0ECFEE051
:1036B000A2EFB3E001900D928A95E1F70C94BF2A36
:1036C0000E94F331F80184918F010F5F1F4F811128
:1036D000F7CFE9EDF1E084918F010F5F1F4F882351
:1036E00011F40C94BF2A0E94F331F801F4CF80E565
:1036F0000E94E131882329F00E9425316B017C0171
:1037000003C0C12CD12C760183E50E94E1318823CE
:1037100061F00E94653120E030E04AE754E40E9405
:10372000FEF30E942EF96B017C010E94F8DF80916C
:10373000120F811105C060E08FEE91E00E9454B736
:103740000E9439A0C60ED71EE81EF91E0E9439A09D
:10375000DC01CB018C199D09AE09BF09B7FD02C080
:103760000C94BF2A0E9417A4F1CF8091E1038770C7
:10377000873011F00C94C92A8FE40E94E13188232C
:1037800019F00E94563103C08FE40E9498318111D4
:103790000C94BF2A0C94C92A0E947D760C94BF2AEF
:1037A000C090F203D090F303E090F403F090F5039F
:1037B00088E50E94E131811109C020E030E040E855
:1037C00050E4C701B6010E94E5F702C00E946531CE
:1037D00068A379A38AA39BA3C090F603D090F703B4
:1037E000E090F803F090F90389E50E94E13181113E
:1037F00009C020E030E040E252E4C701B6010E9477
:10380000E4F702C00E9465319B01AC0169837A83B1
:103810008B839C8368A179A18AA19BA10E9429A383
:10382000882311F40C94BF2A80E00E94DB300E94B0
:103830003E2D85E40E94E131882321F00E9456311B
:10384000182F04C085E40E94983111E086E50E949B
:10385000E131882321F00E943531262F01C021E07B
:10386000412FBE016F5F7F4FCE0180960E94315184
:103870006B017C019B01AC010E9491FA81115FC038
:1038800088A099A0AAA0BBA020E030E0A901C501B2
:10389000B4010E9499F387FF05C027E137EB41E5AA
:1038A00058EB04C027E137EB41E558E3C501B4010B
:1038B0000E94E5F7AB01BC018FE192E00E94C36C6E
:1038C00089809A80AB80BC8020E030E0A901C501EE
:1038D000B4010E9499F387FF05C027E137EB41E56A
:1038E00058EB04C027E137EB41E558E3C501B401CB
:1038F0000E94E5F7AB01BC018AE192E00E94C36C33
:1039000020E030E0A901C701B6010E9499F387FFCA
:1039100005C027E137EB41E558EB04C027E137EB61
:1039200041E558E3C701B6010E94E5F7AB01BC01D0
:1039300085E192E00E94C36C8AE00E94F3310E940C
:10394000252D113011F40E9435760E9448450C94C3
:10395000BF2A10923A030C94BF2A20933A030C9486
:10396000BF2A0E9465312B013C01133049F0F6015A
:1039700020813181428153810E94E4F72B013C0177
:10398000A8ADB9AD2D913D914D915C91C301B201AE
:103990000E94E4F74B015C012DEB37E346E855EB61
:1039A0000E940BFA87FD20C02DEB37E346E855E374
:1039B000C501B4010E9499F31816B4F01F5FB4E07A
:1039C000EB0EF11CE8ADF9AD3496F9AFE8AFF4E0D9
:1039D000CF0ED11C143039F1D1018D911D010E94FF
:1039E000E131882359F3BDCF133051F44092FE03E7
:1039F0005092FF03609200047092010401E0DECF58
:103A0000A5019401F70160817181828193810E94F7
:103A1000E5F7D7016D937D938D939C931397812F39
:103A20000E94082FCBCF002309F44EC020E030E0E5
:103A3000A9016091FE037091FF03809100049091B1
:103A400001040E94E5F72091560C3091570C4091EB
:103A5000580C5091590C0E94FEF30E9416FA609384
:103A6000880F7093890F80938A0F90938B0F90919A
:103A7000420F8091430F981719F00E949ADF24C0DB
:103A80000E94F8DF80916F00982F927081FF05C02F
:103A900080916F008D7F80936F004091880F5091CF
:103AA000890F60918A0F70918B0F40933C0B50935C
:103AB0003D0B60933E0B70933F0B992329F080914F
:103AC0006F00826080936F000E9448450C94BF2A6B
:103AD0000E94F9D00C94BF2A8091210E9091220E61
:103AE0008537910509F477C70CF0B8C08C3491057F
:103AF00009F493C40CF050C08931910509F49CC2BB
:103B00001CF58431910509F4A9C17CF4813191053A
:103B100009F41EC22CF4029708F4A3C10C94762A6F
:103B2000429709F4ECC50C94762A8631910509F484
:103B30005CC20CF456C28731910509F45CC2489707
:103B400009F46FC20C94762A8E31910509F42AC3C8
:103B500084F48B31910509F483C20CF473C28C3167
:103B6000910509F415C34D9711F40C94BF2A0C94D8
:103B7000762A8032910509F419C30CF463C38A32A2
:103B8000910509F415C48B34910511F00C94762A33
:103B90000E949C630C94BF2A8A36910509F46AC579
:103BA000B4F58435910509F4AAC5E4F4813591058D
:103BB00009F48CC54CF48D34910511F00C94762ADF
:103BC0000E94D5630C94BF2A8235910509F494C5EF
:103BD0008335910511F00C94762A81E080933903A6
:103BE0000C94BF2A8C35910509F4D5C534F485357C
:103BF000910509F4B7C50C94762A8836910509F425
:103C000010C48936910509F4D4C40C94762A8F36F1
:103C1000910509F444C484F48C36910509F492C4E6
:103C20000CF444C58D36910509F403C58E36910513
:103C300009F422C40C94762A8137910509F48EC4C4
:103C40000CF484C48237910509F42DC6833791059D
:103C500011F00C94762AE3E0F4E062C68C3231E095
:103C6000930711F40C949B280CF079C0893C9105C2
:103C700009F4DDC77CF58C38910509F4DDC4ACF49A
:103C80008737910509F402C70CF4B4C6883791054B
:103C900009F4FFC68937910511F00C94762A109229
:103CA000620C1092610C0C94BF2A8B39910509F4B7
:103CB0009BC434F48139910509F4F1C60C94762A39
:103CC0008E3B910509F4D3C4883C910509F45FC784
:103CD0000C94762A833D910511F40C94482734F511
:103CE0008C3C910509F4D8C764F48B3C910511F024
:103CF0000C94762A09E4E02E02E0F02E0EE01CE09F
:103D0000BCC78D3C910511F40C94C1268E3C9105E5
:103D100011F00C94762AB9E4CB2EB2E0DB2E14E637
:103D2000E12E1CE0F12E10E00C9434278D3D91051E
:103D300011F40C9458273CF48C3D910511F40C942B
:103D40004B270C94762A823E910511F40C94C727D8
:103D50008831914011F40C94F0270C94762A8C3A17
:103D6000A1E09A0711F40C944527A4F58039E1E00D
:103D70009E0711F40C943429C4F48E3221E092078A
:103D800011F40C94C72814F40C94C4288F3241E029
:103D9000940711F40C941B298336914011F00C9474
:103DA000762AEFE9FEE00C9421298239A1E09A07F6
:103DB00011F40C943C2914F40C9437298A39E1E06D
:103DC0009E0709F4C7C3843A914011F40C94432927
:103DD0000C94762A883F31E0930711F40C94DB2988
:103DE000ECF4853F51E0950711F40C94CB294CF489
:103DF000843F914011F00C94762A0E9447C00C94A5
:103E0000BF2A863FE1E09E0711F40C94CE29873F3C
:103E1000914011F40C94D1290C94762A8B3823E02C
:103E2000920711F40C94BF2A6CF48C3042E0940792
:103E300011F40C94FD298335934011F40C94062A57
:103E40000C94762A803AA3E09A0709F4EEC1873EE3
:103E5000934011F40C94642A0C94762AE2E5F2E083
:103E600082C0A0901F0EB090200E80E50E94E1312C
:103E7000882359F00E9425316B017C0111E0672BEA
:103E8000682B692B31F410E004C010E0C12CD12C58
:103E9000760183E50E94E131882311F40C94AF2B65
:103EA0000E94653120E030E04AE754E40E94FEF3CE
:103EB0000E942EF96B017C0111110BC0672B682B3E
:103EC000692B39F4A114B10421F0F501808181112D
:103ED00002C010E001C011E00E94F8DF112329F0B8
:103EE00061E0C5010E948EB705C060E087E292E004
:103EF0000E9454B783E08093A60E81E08093FA0E6F
:103F0000C114D104E104F104B1F00E9439A0C60E3D
:103F1000D71EE81EF91E0E9439A0DC01CB018C19C6
:103F20009D09AE09BF09B7FF0DC08091FA0E81113E
:103F30000C94B42B07C08091FA0E882319F00E94CC
:103F400017A4F9CF0E94493A1092FA0E0C94BF2A96
:103F500060E08AE392E00E9454B71598179842985F
:103F6000A0980C94BF2A84918F010F5F1F4F882364
:103F700021F00E94F331F801F6CF10929A128DE4ED
:103F800090E10E940EC78BE1EDE4F0E1DE011596B1
:103F900001900D928A95E1F780914B1090914C1011
:103FA0009C838B8383EF92E09A83898340E050E087
:103FB000BE016F5F7F4F80E090E00E94D9CDCE01BF
:103FC00001960E94AAA3E3E4F2E084918F010F5FBF
:103FD0001F4F882311F40C94BF2A0E94F331F8017B
:103FE000F4CF0E94754E0C94BF2A10921C101092B0
:103FF0001D100C94BF2AE0911F0EF091200E8081BD
:10400000882329F0803209F410823196F8CF40E0FD
:1040100061E080911F0E9091200E0E94914C0C94B3
:10402000BF2A80911D10882319F081E080931C1015
:104030000E949C630C94BF2A10921C100E94C063C3
:104040000C94BF2A80911D10882311F40C94BF2A70
:1040500083E50E94E13181110C94B82B0C94BF2AA6
:1040600083E40E949831882309F450C0E0E9F2E02B
:1040700084918F010F5F1F4F882321F00E94F3313D
:10408000F801F6CF8091E811811103C0E3E6F2E078
:1040900012C0BE016F5F7F4F85EE91E10E94D6C5D1
:1040A0008E010F5F1F4FD8018D918D01882349F13B
:1040B0000E94F331F8CF84918F010F5F1F4F882347
:1040C00001F10E94F331F801F6CF68EEC62E62E0EE
:1040D000D62EE12CF12C20E08091270690E00E2CCA
:1040E00002C0959587950A94E2F780FD08C2AFEF6C
:1040F000EA1AFA0AB2E0CB0ED11CE5E0EE16F104A2
:1041000059F78AE00E94F3310C94BF2A80911D1068
:10411000882339F080911C10882319F0EDE6F2E035
:1041200003C0EFE7F2E028C084918F010F5F1F4FBB
:10413000882321F00E94F331F801F6CF60919612A6
:104140007091971280919812909199124AE00E9472
:10415000FB348FE20E94F3316091921270919312BE
:1041600080919412909195124AE00E94FB348AE06B
:104170000E94F3310C94BF2A84918F010F5F1F4F6F
:10418000882311F40C94BF2A0E94F331F801F4CF74
:1041900040E060E080911F0E9091200E0E94914CB3
:1041A0000C94BF2A0E9418850C94BF2A80911C1081
:1041B00081110E94F8DF80911D10882311F40C9466
:1041C000BF2A80E50E94E131882319F00E94563110
:1041D00003C080E50E949831182F482F61E080913C
:1041E0001F0E9091200E0E94914C83E50E94E131B8
:1041F000882381F00E943531AB01BC0140939612B7
:1042000050939712609398127093991285EE91E1F2
:104210000E94C7C480911D10882319F081E080930B
:104220001C1011110C94BF2A03CF80911F0E909186
:10423000200E21E020931B1040E060E00E94914C92
:104240000C94BF2A0E94F0967B018C0120E831E596
:1042500041E050E00E9487F7C9016DE671E00E94DD
:10426000B9FA4B015C01C801B70120E13EE040E032
:1042700050E00E9487F7CA01B90128E130E040E030
:1042800050E00E9487F7762E672EC62ED72E7CE34D
:10429000272E312C412C512CC801B701A2019101CC
:1042A0000E9487F7F62EE72ECA01B901A2019101FB
:1042B0000E9487F7CB018E010F5F1F4F811491047D
:1042C00099F0EF92FF927F936F936F927F92BF92DC
:1042D000AF929F928F9287EC92E09F938F931F9360
:1042E0000F930E9433F313C0A114B104B1F0EF9205
:1042F000FF927F936F936F927F92BF92AF9287EB03
:1043000092E09F938F931F930F930E9433F30FB606
:10431000F894DEBF0FBECDBF30C0CD2879F0EF924C
:10432000FF927F936F936F927F928BEA92E09F93BD
:104330008F931F930F930E9433F3E9CF892B69F07A
:10434000EF92FF927F936F9383EA92E09F938F9314
:104350001F930F930E9433F3DACFEF92FF928FE90E
:1043600092E09F938F931F930F930E9433F30F90CC
:104370000F900F900F900F900F9060E0C8010E9477
:104380008EB7E3E8F5E284917F019FEFE91AF90A1D
:10439000882321F00E94F331F701F5CFB8018BEDAE
:1043A00092E00E94F96C8AE00E94F3310C94BF2ADB
:1043B00083E50E94E131882311F40C94BF2A0E9406
:1043C0004531E82E80E50E94E131882339F00E94D2
:1043D0004531182F87FF03C00C94BF2A1DE089E4E4
:1043E0000E94E131882351F00E94563181110C94D2
:1043F0001A2CEBE1F5E088E495E00AC089E40E941C
:104400009831F4CF31968E179F0711F40C941A2C23
:1044100024911213F7CF0C94EF2B0E94C0630C94DD
:10442000BF2A88E690E00E94663581110C94BF2A6D
:104430008091270683FF02C00C94BF2A83E50E9467
:10444000E1318823A9F00E9465310E9429F9CB014E
:104450000E94EFB60E94653120E030E04AEA52E463
:104460000E9499F3181624F00E94D5630E94493ADD
:104470000E943E530C94BF2A8EE40E94E1318823AF
:1044800011F40C94BF2A0E94353160931E0670937C
:104490001F0680932006909321060C94BF2A83E583
:1044A0000E949831882359F083E50E94E1318823E6
:1044B00019F00E94453101C080E080932706E3E8AF
:1044C000F5E284918F010F5F1F4F811103C0E6EF6A
:1044D000F2E004C00E94F331F801F3CF84918F0120
:1044E0000F5F1F4F882321F00E94F331F801F6CFB0
:1044F000809127068111E9CDE2EFF2E018C0BB24DC
:10450000B394B20E222319F08CE20E94F331F6012B
:1045100085919491FC0184918F010F5F1F4F882337
:1045200021F00E94F331F801F6CF2B2DE0CD8491DC
:104530008F010F5F1F4F882309F4E3CD0E94F331F1
:10454000F801F5CF109232020C94BF2A8DEF92E061
:104550000E94C6A30E940B3F0C94BF2A83E50E94D1
:10456000E131811103C0E3E8F5E20CC00E9445315E
:104570008D3320F4809333020C94BF2A8CE3809314
:104580003302FDC784918F010F5F1F4F882321F0F5
:104590000E94F331F801F6CF4091330250E060E021
:1045A00070E086E093E00E94A66C8AE00E94F331FE
:1045B000E6C789E690E00E946635811111C0EDE002
:1045C000F3E084918F010F5F1F4F882321F00E9439
:1045D000F331F801F6CF0E94BC8F8AE00E94F331DC
:1045E0001092A60E0C942F2C83E50E94E1318823B3
:1045F00009F4C5C70E944531182F8D3308F01CE31C
:104600001093B30E0E9439A06B017C01212F30E082
:10461000A8EEB3E00E94D5F7C60ED71EE81EF91E1D
:10462000C092AF0ED092B00EE092B10EF092B20EE8
:10463000A6C70E94F048A3C78091270683FF01C048
:104640009EC783E50E94E131882309F498C70E9440
:1046500065310E9429F96738710514F067E870E048
:104660007093B9126093B8120E94769088C70E9426
:10467000174785C780E50E94E131811106C083E5B7
:104680000E94E131882359F005C00E944531811113
:1046900076C7F5CF0E9435316F3F710510F06FEF8F
:1046A00070E07093BB126093BA1269C780E50E94F4
:1046B000E131811105C01092BB121092BA125FC78E
:1046C0000E943531672B09F05AC7F5CF0E94C2907E
:1046D0000E9435E01092BB121092BA1268EE73E09D
:1046E00080E090E00E94CBB60E94482F60E080E11D
:1046F00093E00E9454B743C71092390340C783E543
:104700000E94E131882399F00E94653120E030E079
:104710004AE754E40E94FEF30E942EF960933402AB
:1047200070933502809336029093370228C788E54C
:104730000E94983181110C94C82B89E50E94983110
:1047400081110C94C82B8AE50E94983181110C9438
:10475000C82B85E40E94983181110C94C82B0E94CB
:1047600035E00DC783E50E949831882309F407C717
:104770000E94653120E030E04AE754E40E94FEF3F5
:104780000E942EF96093AB0E7093AC0E8093AD0E29
:104790009093AE0EF4C649E4C42E42E0D42E5AE4FF
:1047A000E52E5CE0F52E10E0D6018D916D010E94A2
:1047B0009831882309F46DC0133009F063C00E945A
:1047C00065314B015C0120E030E040EA51E40E9499
:1047D00099F387FF4EC0A50194016091560C70912A
:1047E000570C8091580C9091590C0E94C1F82B01E4
:1047F0003C019B01AC016091460C7091470C80918B
:10480000480C9091490C0E94FEF36093460C709303
:10481000470C8093480C9093490CA301920160913E
:104820001A0C70911B0C80911C0C90911D0C0E9415
:10483000FEF360931A0C70931B0C80931C0C9093E6
:104840001D0C60913406709135068091360690916A
:1048500037060E949DF3A30192010E94FEF30E947D
:104860002EF9609334067093350680933606909344
:1048700037068092560C9092570CA092580CB0922A
:10488000590C07C00E946531F701608371838283F0
:1048900093831F5FF4E0EF0EF11C143009F084CF16
:1048A0000E94A3546CC60E94F8DF83E50E94E131A8
:1048B000882309F409C90E9435316230710509F075
:1048C00003C90E940EA88BE50E94F3316091020497
:1048D00070910304809104049091050442E00E94C9
:1048E000BC35409106045091070460910804709112
:1048F000090481E293E00E94C36C40910A04509144
:104900000B0460910C0470910D048EE193E00E9401
:10491000C36C8DE50E94F3318AE00E94F3312FC60B
:1049200084918F010F5F1F4F882321F00E94F33184
:10493000F801F6CF60E083EF93E00E94114561E05B
:104940008CEE93E00E94114561E081EE93E00E94BD
:10495000114561E081ED93E00E94114560E088EC33
:1049600093E00E94114561E08EEB93E00E941145B7
:1049700061E084EB93E00E94114561E08CEA93E0F2
:104980000E94114561E08EE993E00E94114560E0CC
:1049900080E993E00E94114560E081E893E00E9485
:1049A000114560E083E793E00E94114560E08DE5EA
:1049B00093E00E94114560E08CE493E00E94114571
:1049C00060E087E393E00E94114561E084E293E0B8
:1049D0000E941145D4C580911F0E9091200EDC01DC
:1049E0002C91222321F060E00E948EB7C8C50E945E
:1049F000493AC5C500911F0E1091200E83E0D12CBD
:104A000040E08150E1F0F8019081292F2B7F213483
:104A1000C1F721812133A9F7913421F0953421F494
:104A200041E002C0DD24D39498012E5F3F4F8901FD
:104A30002F5F3F4FD8019C919032C9F3E2CF4423BE
:104A400069F0E3E8F5E284917F01BFEFEB1AFB0A1E
:104A5000882321F00E94F331F701F5CFDD2069F0C2
:104A6000E7EDF4E084917F012FEFE21AF20A882348
:104A700021F00E94F331F701F5CFD8018D918D011E
:104A8000882309F43ECB0E94F331F7CF0E946CE4F7
:104A900076C581E08093620C8093610C70C583E5DC
:104AA0000E94E131882319F00E94353102C060E094
:104AB00070E08B01112702301105D4F0EFE9FEE020
:104AC00084918F010F5F1F4F811103C0EBEDF4E064
:104AD00004C00E94F331F801F3CF84918F010F5F7E
:104AE0001F4F882309F44BC50E94F331F801F5CF1D
:104AF00088E40E94E1318823A9F00E9435316A3AA6
:104B000071053CF06530B1E07B072CF064E071E0AA
:104B100002C06AEA70E0F801EE0FFF1FE056F44FA2
:104B20007183608386E40E94E1318823A9F00E94AA
:104B30003531F801EE0FFF1FEC55F44F71836083A0
:104B40006F3F710519F014F06FEF70E077FF02C04E
:104B500060E070E07183608382E40E94E131882329
:104B600009F40DC50E9435316A30710534F068389A
:104B700071052CF067E870E002C06AE070E0000F99
:104B8000111FF801E456F44F71836083F8C488EC78
:104B900090E00E9466358111F2C484E40E9498314D
:104BA000882309F441C00E9465316B017C0111E04A
:104BB00020E030E0A9010E9499F3811101C010E0CA
:104BC00010938E0B20E030E0A901C701B6010E94CE
:104BD00099F3882349F10E946531E091C00B24E0EC
:104BE000E29FF0011124E657F44F608371838283C2
:104BF000938320E030E0A90160918A0B70918B0BC8
:104C000080918C0B90918D0B0E9499F381110CC0B7
:104C100080E090E0A0EEBFE380938A0B90938B0B33
:104C2000A0938C0BB0938D0B0E9402DFA8C489E483
:104C3000E82E82E0F82E0EE11CE0D7018D917D0177
:104C40000E949831882349F00E9465310E942EF914
:104C5000F80160837183828393830C5F1F4FFCE0B4
:104C60000E321F0751F70E946E5389C40C5F1F4F0D
:104C7000FCE00E311F0709F482C4D7018D917D013C
:104C80000E949831882391F30E946531F801608376
:104C9000718382839383EACF83E50E94E131882385
:104CA000A1F00E9465316093360C7093370C8093AD
:104CB000380C9093390C60932E0C70932F0C8093CA
:104CC000300C9093310C10E001C011E080E50E949F
:104CD000E131882359F00E9465316093360C70935E
:104CE000370C8093380C9093390C10E082E50E94C9
:104CF000E131882359F00E9465316093320C709342
:104D0000330C8093340C9093350C10E084E50E94B2
:104D1000E131882359F00E94653160932E0C709325
:104D20002F0C8093300C9093310C29C4112309F47B
:104D300026C44091360C5091370C6091380C70911C
:104D4000390C83E095E00E94C36C4091320C509185
:104D5000330C6091340C7091350C80E095E00E942A
:104D6000C36C40912E0C50912F0C6091300C7091BF
:104D7000310C8DEF94E00E94C36C8AE00E94F33105
:104D8000FEC381E50E949831882351F00E942531AD
:104D90006093220670932306809324069093250641
:104DA00083E50E949831882351F00E946531609319
:104DB0000A0C70930B0C80930C0C90930D0C84E5F3
:104DC0000E949831882351F00E9465316093060C4F
:104DD0007093070C8093080C9093090C88E50E944F
:104DE0009831882351F00E94653160933A0C70939A
:104DF0003B0C80933C0C90933D0C89E50E949831CC
:104E0000882351F00E94653160933E0C70933F0CF3
:104E10008093400C9093410C8AE50E94983188233E
:104E200051F00E9465316093420C7093430C809363
:104E3000440C9093450C85E40E949831882309F432
:104E40009EC30E9465316093460C7093470C80931B
:104E5000480C9093490C93C31F5FF4E0EF0EF11CD4
:104E6000133011F40C94641DD6018D916D010E94D4
:104E70009831882389F30E946531F701608371833B
:104E800082839383812FC4D7E7CF0E94124677C3D2
:104E90000E94334474C383E50E94E131882309F4FE
:104EA0006EC30E943531709307026093060267C398
:104EB0008DED90E00E946635811161C383E50E940B
:104EC000E131811103C0E3E8F5E23BC00091C00B82
:104ED00010E00E943531000F111FF801EC5FFD4F0B
:104EE000718360838091C00B90E08C01000F111FD3
:104EF000000F111F980120503E4F7901880F991F14
:104F0000FC01EC5FFD4F60817181072E000C880B66
:104F1000990B0E949FF32AE037ED43E25CE30E9485
:104F2000FEF3F801E852FC4F208131814281538128
:104F30000E94FEF3D7016D937D938D939C931397FD
:104F40001EC384918F010F5F1F4F882321F00E94A1
:104F5000F331F801F6CF85E40E94F3318091C00B64
:104F6000805D0E94F331E091C00BF0E0EE0FFF1F77
:104F7000EC5FFD4F6081718183E195E00E94E06C00
:104F800085E20E94F3318AE00E94F331F8C280E5A5
:104F90000E949831882309F4F2C20E9435316B01D6
:104FA0007C0183E50E94E131882321F00E943531A4
:104FB0008B0102C00FEF1FEFC8010196039708F0A5
:104FC000DEC2D7FCDCC28C2DEBE1F5E094918917B1
:104FD00009F405C43196B5E0E834FB07B9F702C41B
:104FE00080E50E949831882309F4C9C20E943531B6
:104FF0006B017C018B01672B19F0EFE9FEE07FC0AC
:1050000083E50E949831811103C0E3E8F5E207C00F
:105010000E94353189EF9FE00E946E6BB0C284918F
:105020007F012FEFE21AF20A882321F00E94F33168
:10503000F701F5CF60E070E081E695E00E94E06C5A
:105040008091FB0F28E532E06901C81AD10887FD7D
:10505000D394CC0CDD1CCC0CDD1C0D2C000CEE080C
:10506000FF088091FA0F28E830E04901881A91087A
:1050700087FD9394880C991C880C991C092C000CB2
:10508000AA08BB088091F90F8F3FB9F090E0FC01AE
:10509000EE0FFF1F8E0F9F1FFC01E457F04F0181A1
:1050A000128133E0000F111F3A95E1F744E01695A5
:1050B00007954A95E1F70E5F1F4F98012F5F3F4F0D
:1050C000C901330FAA0BBB0B9C01AD01281939098B
:1050D0004A095B09A4EBB0E00E94C5F7A70196015D
:1050E000281939094A095B090E94A9F7B9018EE517
:1050F00095E00E94E06C8AE00E94F33140C2849106
:105100008F010F5F1F4F882321F00E94F331F801B8
:10511000F6CFB60187E595E00E94E06CE8E4F5E0A3
:1051200084918F010F5F1F4F882309F428C20E94CA
:10513000F331F801F5CF83E50E94E131882319F0BE
:105140000E94353102C064E071E079A368A380E574
:105150000E94E131882339F00E943531693833E10A
:10516000730730F402C068EE73E07A83698304C089
:1051700088E893E19A838983BE01605E7F4FCE0108
:1051800001960E94B74FFBC10E949043F8C183E58E
:105190000E949831182F882371F00E9465310E9477
:1051A00029F9709312026093110221E0672B09F034
:1051B00020E02093260680E50E949831882359F04C
:1051C0002091110230911202232B11F00E945631CE
:1051D00080932606D4C11111D2C1E3E8F5E284918F
:1051E0008F010F5F1F4F882321F00E94F331F801D8
:1051F000F6CF80912606882319F067E073E002C09D
:105200006AE073E08EE795E00E94F96C609111020C
:10521000709112028DE695E00E94E06CE9E6F5E0FF
:1052200084918F010F5F1F4F882309F4A8C10E944A
:10523000F331F801F5CF0E94413FA1C10E94F33143
:10524000F80184918F010F5F1F4F8111F7CFE1E9C2
:10525000F5E084918F010F5F1F4F882309F48FC100
:105260000E94F331F801F5CF0E94F8DF88C181E098
:1052700032D50E94484583C180E02DD50E94357605
:105280000E9448457CC183E50E949831882341F003
:105290000E945631182F811105C080E08CD702C0C2
:1052A0001091D80E8091F2039091F303A091F40332
:1052B000B091F50389839A83AB83BC838091F60315
:1052C0009091F703A091F803B091F9038D839E8329
:1052D000AF83B8878091FA039091FB03A091FC0300
:1052E000B091FD0389879A87AB87BC8786E50E94CA
:1052F0009831882321F08DEC95E00E94CBE4812F3A
:105300005AD7111103C0E3E8F5E21DC08091D80E11
:105310008111F9CFEFE9FEE084918F010F5F1F4FFC
:10532000811103C0EEEAF5E004C00E94F331F801F8
:10533000F3CF84918F010F5F1F4F882321F30E94C9
:10534000F331F801F6CF84918F010F5F1F4F88234F
:1053500021F00E94F331F801F6CF8091D80E882316
:1053600019F06EE073E002C062E173E080EA95E05C
:105370000E94F96C8AE00E94F3314CE050E062EF49
:1053800073E0CE0101960E94F4FA892B09F4F7C06C
:105390000E944845F4C00E943BC0F1C00E946FD8F3
:1053A000EEC083E5C5D7882319F080D791E089271F
:1053B0000E9434D4E4C02093110F0E94DFBA1092EF
:1053C000110F882309F4DBC0E3E8F5E284918F0133
:1053D0000F5F1F4F811103C0EAEEF5E004C00E9489
:1053E000F331F801F3CF84918F010F5F1F4F8823B2
:1053F00009F4C5C0F8D7F801F6CF80911C108823B6
:1054000009F4BDC081E080931F10B9C08AE5D9D7E7
:10541000811103C0E3E8F5E237C057D76B017C0187
:1054200020E030E040EA51EC0E940BFA87FD0AC010
:1054300020E030E040EA51E4C701B6010E9499F350
:1054400018161CF4EFE9FEE00BC0C092EE03D092F8
:10545000EF03E092F003F092F10391C0C4D7F8019A
:1054600084918F010F5F1F4F8111F8CFE5EFF5E0B9
:1054700084918F010F5F1F4F882309F480C0B3D739
:10548000F801F6CFB0D7F80184918F010F5F1F4F5D
:105490008111F8CFE5E1F6E084918F010F5F1F4F96
:1054A000882319F0A0D7F801F7CF4091EE0350916F
:1054B000EF036091F0037091F10382E196E00E94A6
:1054C000C36C8AE090D75BC081E080932802109281
:1054D000100483E576D7882331F0E8D681114FC0D8
:1054E0000E9447A84CC083E523D7F8CF0E94F9D08B
:1054F00046C0F090210E0E94F8DF1091D80E80E097
:105500005AD6FF2009F1E3E8F5E284918F010F5F9D
:105510001F4F882319F067D7F801F7CF84E563D7C9
:105520006F2D70E080E090E04AE00E94FB3480E262
:105530005AD7E6E3F6E084918F010F5F1F4F88236F
:10554000F1F051D7F801F7CF1092EB0E812F33D63F
:10555000E3E8F5E284918F010F5F1F4F882319F074
:1055600042D7F801F7CF6091EB0E70E084E296E04D
:105570000E94E06C8AE037D702C00E94F9D01092F6
:10558000A60E0E942AA86BC10E9494840E94CBA6FA
:10559000F6CF0E94F8DFB090D80E80E00CD680EAFB
:1055A00090E048D280E026D769D211E01093620CD7
:1055B00088E5BED6A82E89E5BBD6082F8AE5B8D6E1
:1055C000982EA11004C0011104C0192505C00111B5
:1055D00002C010E001C0192D80E1E2EFF3E0A0EC81
:1055E000BEE001900D928A95E1F782E5EAD6882324
:1055F00059F06BD66B017C0120E030E0A9010E94DC
:1056000099F3882361F105C0C12CD12CE12CB0E4C1
:10561000FB2E111104C0A11002C0002389F1C09219
:10562000C80ED092C90EE092CA0EF092CB0EA7011E
:1056300096016091FA037091FB038091FC039091B5
:10564000FD030E9499F387FF0AC019821A821B8208
:105650001C82BE016F5F7F4F88EC9EE01ED311114C
:1056600005C0A11003C0011106C00AC080E00E945D
:1056700017A11123C1F381E00E9417A1111103C0EA
:10568000992009F45EC08091E10383708330E9F0D2
:1056900060E087E092E00E9454B7E3E8F5E284918D
:1056A0008F010F5F1F4F811103C0E8EFF1E003C0CE
:1056B0009AD6F801F4CF84918F010F5F1F4F882392
:1056C00009F43DC090D6F801F6CF60D4E090FA031B
:1056D000F090FB030091FC031091FD03E092C80ED3
:1056E000F092C90E0093CA0E1093CB0E80E090E0AA
:1056F000AAECB2E48093C00E9093C10EA093C20EA8
:10570000B093C30E80E090E0ABE0B3E48093C40EAE
:105710009093C50EA093C60EB093C70E19821A823D
:105720001B821C82FE0131966F019C01AD0160E07D
:1057300070E08AEC92E4C1D182E00E9417A10E943D
:10574000357624D48091610C8093620C8B2D33D5F7
:105750007CD183E0809310020E94484510CF111144
:105760000C94691F0C94621F0E9417A40C948B1F49
:105770007CD5AB01BC014093961250939712609375
:1057800098127093991285EE91E10E94C7C4F7CEEA
:105790000E94F8DF88E5CCD5882331F0159A8091F6
:1057A000E1038E7F8093E10389E5C2D5882331F040
:1057B000179A8091E1038D7F8093E1038AE5B8D544
:1057C000882331F0429A8091E1038B7F8093E1033B
:1057D00085E4AED5882309F4D2CEA09AD0CE0E941B
:1057E000B0E4CDCE0E94F8DFBC2C60E08C2D0E948E
:1057F000F7D20F3F4FEF140759F48C2D0E94A1D21E
:1058000031E020E0892B09F030E0032F122F05C092
:105810000130110561F401E010E08B2D0E94A1D24E
:105820008017910709F4ABCE0E9417A4F6CF00E0D1
:1058300010E0F3CF61E0812F0E94F7D26E2D812F0F
:105840000E94C9D2F12CB701812F0E9433D31730A7
:1058500009F095CEF092BB12E092BA1290CEC559E3
:10586000DF4F0FB6F894DEBF0FBECDBFDF91CF91F3
:105870001F910F91FF90EF90DF90CF90BF90AF906E
:105880009F908F907F906F905F904F903F902F9060
:1058900008959091740CE92FF0E0E059F34F808364
:1058A0009F5F943018F49093740C02C01092740CA3
:1058B0008091F60D8F5F8093F60D0895089580E036
:1058C00090E008958091A40E9091A50E981759F03C
:1058D000E92FF0E0EC5DF14F80819F5F9F7790931F
:1058E000A50E90E008958FEF9FEF0895CF92DF927D
:1058F000EF920F931F93CF93DF93CDB7DEB76097EF
:105900000FB6F894DEBF0FBECDBFE090EB0EE2EF16
:10591000F3E080859185A285B385448155816681B8
:105920007781008111812281338109831A832B833E
:105930003C834D835E836F83788789879A87AB87A3
:10594000BC871D861E861F86188AAE01475F5F4F83
:10595000BE016B5F7F4FCE0101960E9491E1CE01A7
:105960000D966C010CE012E02EEF33E0AE01475FC4
:105970005F4FBE016B5F7F4F0C970E94145560967E
:105980000FB6F894DEBF0FBECDBFDF91CF911F9150
:105990000F91EF90DF90CF9008950F931F93CF93C7
:1059A000DF93EC010E9439A00E811F812885398583
:1059B000011511052105310559F52C852223A9F181
:1059C0003A8521502C8721E0230F2A874D85241307
:1059D00001C01A86FE0124E0329FE00DF11D112462
:1059E00006851785208931890A831B832C833D8393
:1059F000DC01CB01800F911FA11DB11D8E839F8300
:105A0000A887B9878C819D81892B79F05B9A0DC01D
:105A1000DC01CB01801B910BA20BB30BB7FD05C0C2
:105A20005B981E821F8218861986DF91CF911F9185
:105A30000F910895BC0189EF9FE00E946E6B67E7AC
:105A400071E080E090E00C94CBB68091A603909139
:105A5000A703A091A803B091A90380930C0290938F
:105A60000D02A0930E02B0930F028091A4039091B7
:105A7000A5039093070280930602089580910C027B
:105A800090910D02A0910E02B0910F028093A60397
:105A90009093A703A093A803B093A9038091060253
:105AA000909107029093A5038093A40384E690E06D
:105AB000909307028093060208952F923F924F928F
:105AC0005F926F927F928F929F92AF92BF92CF928E
:105AD000DF92EF92FF920F931F93CF93DF93CDB797
