:100000000C94E71B0C94271C0C94271C0C94271CA5
:100010000C94271C0C94271C0C94271C0C94271C54
:100020000C94271C0C94271C0C94271C0C94271C44
:100030000C94271C0C9452FD0C94271C0C94271C28
:100040000C94271C0C94A7A20C94271C0C94271C1E
:100050000C94271C0C94271C0C94CD9C0C9408FD2C
:100060000C94271C0C94D1590C94C7590C94271C40
:100070000C94271C0C94271C0C94271C0C94271CF4
:100080000C94BB4A0C94271C0C94271C0C94271C22
:100090000C94271C0C94271C0C94271C0C94271CD4
:1000A0000C94271C0C94271C0C948D4A0C94271C30
:1000B0000C94271C0C94271C0C94271C0C94271CB4
:1000C0000C94271C0C94271C0C94271C0C94271CA4
:1000D0000C94271C0C94271C0C94271C0C94271C94
:1000E0000C94271C084AD73B3BCE016E84BCBFFD55
:1000F000C12F3D6C74319ABD56833DDA3D00C77FF8
:1001000011BED9E4BB4C3E916BAAAABE0000008090
:100110003F05A84CCDB2D44EB93836A9020C50B91F
:10012000918688083CA6AAAA2ABE000000803F004B
:100130000D94E9140D94440D4E414E494E495459C5
:10014000494E46CDCCCC3D0AD7233C17B7D13877A2
:10015000CC2B329595E6241FB14F0A0000204100B8
:1001600000C84200401C4620BCBE4CCA1B0E5AAE02
:10017000C59D7400407A10F35A00A0724E18090011
:1001800010A5D4E80000E87648170000E40B5402FC
:100190000000CA9A3B000000E1F505000080969837
:1001A00000000040420F000000A086010000001087
:1001B0002700000000E803000000006400000000C9
:1001C000000A00000000000100000000002C76D8AA
:1001D00088DC674F0823DFC1DFAE59E1B1B796E590
:1001E000E3E453C63AE651997696E8E6C28426EBF4
:1001F000898C9B62ED407C6FFCEFBC9C9F40F2BA07
:10020000A56FA5F490055A2AF75C936B6CF9676D9E
:10021000C11BFCE0E40D47FEF520E6B500D0ED90F3
:100220002E0300943577050080841E080000204EC0
:100230000A000000C80C333333330F986E12831159
:1002400041EF8D2114893BE65516CFFEE6DB18D130
:10025000844B381BF77C1D901DA4BBE42420328402
:10026000725E228100C9F124ECA1E53D27434F4D88
:100270004D554E49434154494F4E004452595255F1
:100280004E004552524F525300494E464F0045438F
:10029000484F0053544F505045442E20005072692F
:1002A0006E7465722073746F707065642064756518
:1002B00020746F206572726F72732E2046697820E9
:1002C000746865206572726F7220616E6420757348
:1002D00065204D39393920746F20726573746172ED
:1002E000742E202854656D70657261747572652076
:1002F00069732072657365742E2053657420697468
:100300002061667465722072657374617274696EBF
:1003100067290A004E6F20436865636B73756D2013
:1003200077697468206C696E65206E756D626572A0
:100330002C204C617374204C696E653A20004E6F1E
:1003400020436865636B73756D2077697468206CF2
:10035000696E65206E756D6265722C204C617374D8
:10036000204C696E653A2000636865636B73756D38
:10037000206D69736D617463682C204C6173742007
:100380004C696E653A20004C696E65204E756D6251
:100390006572206973206E6F74204C617374204CF9
:1003A000696E65204E756D6265722B312C204C6133
:1003B0007374204C696E653A20004D313130005322
:1003C000657269616C20737461747573206D6973F3
:1003D0006D617463680A005344207265616420652E
:1003E00072726F720A002121204B494C4C206361CC
:1003F0007573656420627920746F6F206D75636812
:1004000020696E6163746976652074696D65202D5D
:100410002063757272656E7420636F6D6D616E64BA
:100420003A2000627573793A2070617573656420B3
:10043000666F7220696E7075740A00627573793A1E
:100440002070617573656420666F722075736572C4
:100450000A00627573793A2070726F63657373690D
:100460006E670A004D656469612052656D6F76653F
:1004700064004D6564696120496E736572746564DA
:1004800000506C656173652052657365740050524D
:10049000494E5445522048414C5445440025533A56
:1004A000202553004B494C4C45442E200050726986
:1004B0006E7465722068616C7465642E206B696C63
:1004C0006C28292063616C6C6564210A0053544FC9
:1004D000505045442E20005072696E74657220732E
:1004E000746F707065642064756520746F20657228
:1004F000726F72732E204669782074686520657269
:10050000726F7220616E6420757365204D393939C0
:1005100020746F20726573746172742E2028546584
:100520006D70657261747572652069732072657390
:1005300065742E2053657420697420616674657239
:100540002072657374617274696E67290A0065634D
:10055000686F3A004572726F723A004F4646004F1C
:100560004E0021212053544F502063616C6C656410
:100570002062656361757365206F6620424C546F1D
:10058000756368206572726F72202D2072657374B6
:100590006172742077697468204D3939390A0021F5
:1005A000212053544F502063616C6C656420626558
:1005B0006361757365206F6620424C546F75636884
:1005C000206572726F72202D20726573746172746F
:1005D0002077697468204D3939390A000A0A426562
:1005E00064204C6576656C20436F72726563746934
:1005F0006F6E204D61747269783A000A436F7272AF
:100600006563746564204265642048656967687441
:100610002076732E2042656420546F706F6C6F6774
:10062000793A0A000A42656420486569676874205F
:10063000546F706F6772617068793A0A2020202BBE
:100640002D2D2D204241434B202D2D2B0A202020E3
:100650007C20202020202020202020207C0A204CCC
:10066000207C20202020282B29202020207C205284
:100670000A2045207C20202020202020202020200F
:100680007C20490A2046207C20282D29204E202825
:100690002B29207C20470A2054207C202020202049
:1006A0002020202020207C20480A2020207C202080
:1006B0002020282D29202020207C20540A202020A2
:1006C0007C20202020202020202020207C0A202088
:1006D000204F2D2D2046524F4E54202D2D2B0A20D9
:1006E00028302C30290A000A4D65616E206F662083
:1006F00073616D706C656420706F696E74733A20FD
:100700000020643A200020623A200045716E206388
:100710006F656666696369656E74733A20613A2035
:100720000050726F62696E6720506F696E740025A9
:10073000532025692F2569002E0A002F0050726F63
:1007400062696E67206D65736820706F696E7420D2
:1007500000202844525952554E2900473239204131
:1007600075746F20426564204C6576656C696E67B0
:10077000003F20284C2C522C462C4229206F7574A7
:10078000206F6620626F756E64732E0A003F507290
:100790006F626520706F696E747320285929206913
:1007A0006D706C61757369626C652028322D332918
:1007B0002E0A003F50726F626520706F696E74730D
:1007C0002028582920696D706C61757369626C65A9
:1007D0002028322D33292E0A003F285629657262BF
:1007E0006F7365206C6576656C20696D706C6175E2
:1007F0007369626C652028302D34292E0A00446507
:1008000076696174696F6E0025533A20257300463E
:10081000696E6973686564210A003A207A3A20009B
:10082000206F662000476F696E6720746F3A20580A
:100830000043570A00206469723A0020616E676CB9
:10084000653A005374617274207261646975733A19
:10085000004D343820506F696E740025533A2025BE
:10086000642F256400506F736974696F6E696E67D9
:10087000207468652070726F62652E2E2E0A003F0C
:100880004C656773206F66206D6F76656D656E745D
:1008900020696D706C61757369626C652028302DFC
:1008A0003135292E0A003F2028582C5929206F75F0
:1008B00074206F6620626F756E64732E0A0050722A
:1008C0006F6265206F7574206F6620626F756E644D
:1008D00073003F53616D706C652073697A65206E9B
:1008E0006F7420706C61757369626C652028342D9B
:1008F0003530292E0A004D3438205A2D50726F623F
:1009000065205265706561746162696C69747920F3
:10091000546573740A003F2856296572626F7365C7
:10092000206C6576656C20696D706C6175736962A9
:100930006C652028302D34292E0A005374616E64B2
:1009400061726420446576696174696F6E3A200053
:100950002052616E67653A2000204D61783A200090
:10096000204D696E3A2000205369676D613A20007E
:100970004D65616E3A2000203B2058590A00202026
:100980004D383531204900536B65772046616374DB
:100990006F720020440020204D3230302053002060
:1009A0002844697361626C6564293A0046696C6128
:1009B0006D656E742073657474696E6773002020B2
:1009C0004D3230312058004D617820416363656CB1
:1009D00065726174696F6E2028756E6974732F7308
:1009E00032290020204D3230332058004D617820CC
:1009F0006665656472617465732028756E697473C9
:100A00002F73290020520020204D32303420500016
:100A1000416363656C65726174696F6E2028756EE1
:100A20006974732F7332292028503C7072696E7478
:100A30002D616363656C3E20523C72657472616324
:100A4000742D616363656C3E20543C7472617665FD
:100A50006C2D616363656C3E2900204A00205400C0
:100A600020530020204D3230352042004164766111
:100A70006E6365642028423C6D696E5F7365676DC7
:100A8000656E745F74696D655F75733E20533C6D70
:100A9000696E5F66656564726174653E20543C6D85
:100AA000696E5F74726176656C5F666565647261BC
:100AB00074653E204A3C6A756E635F6465763E29C4
:100AC0000020440020490020204D333031205000C8
:100AD000486F74656E6420504944002058002020FF
:100AE0004D61783A2000200020204D696E3A2000A8
:100AF000203B200020204D3231312053003B20008C
:100B000020496E76616C69642065787472756465DD
:100B100072200020746F6F206C6F6E672065787490
:100B2000727573696F6E2070726576656E74656438
:100B30000A0020636F6C6420657874727573696F46
:100B40006E2070726576656E7465640A0047322F98
:100B500047332062616420706172616D65746572F3
:100B6000730A00536C6565702E2E2E005A20507249
:100B70006F62652050617374204265640A005A20D8
:100B800050726F6265205061737420426564004743
:100B900032384C3000205A3A200020593A20004286
:100BA000656420583A2000436C69636B20746F20A1
:100BB000526573756D652E2E2E004E6F204D6F762B
:100BC000652E00456E642066696C65206C697374DF
:100BD0000A00426567696E2066696C65206C6973FE
:100BE000740A004E6F206D656469610A00286E6F9B
:100BF0002066696C65290043757272656E742066A3
:100C0000696C653A20005344207072696E74696E95
:100C100067206279746520004E6F74205344207001
:100C200072696E74696E670A002E0A0044656C650D
:100C300074696F6E206661696C65642C2046696C0E
:100C4000653A200046696C652064656C657465646E
:100C50003A002569730025696D20256973002569AF
:100C6000682025696D202569730025696420256940
:100C7000682025696D20256973002569792025691B
:100C800064202569682025696D20256973005072EC
:100C9000696E742074696D653A20006F6B006F6631
:100CA00066008E02890282027B026D024445425533
:100CB000473A004D3131322053687574646F776E56
:100CC000004D3131332053004765656574656368B5
:100CD0002069332050726F2042204F46462E002F4D
:100CE0002F004D31343520533C696E6465783E20C9
:100CF0006F7574206F662072616E67652028302DD5
:100D000031290A003F4A206F7574206F6620726196
:100D10006E67652028302E303120746F20302E33DE
:100D2000290A0046523A0020466C6F773A20003A72
:100D3000200020536572766F2000206F7574206F3D
:100D4000662072616E67650A00536572766F2000D7
:100D500064697300656E0043290A0061626C656412
:100D600020286D696E2074656D702000436F6C647F
:100D70002065787472756465732061726520004225
:100D80006564204C6576656C696E67200046616914
:100D90006C656420746F20656E61626C65204265CD
:100DA00064204C6576656C696E670A004265642054
:100DB0004C6576656C20436F7272656374696F6E03
:100DC000204D61747269783A004F6666736574737A
:100DD000204170706C696564004572723A20546FEE
:100DE0006F206661722100546F6F20666172206609
:100DF000726F6D207265666572656E636520706FD7
:100E0000696E740A00454550524F4D204F4B0A0001
:100E1000290A0020746F20003F5A206F7574206FDC
:100E2000662072616E6765202800290A0020746FB1
:100E300020003F59206F7574206F662072616E67C5
:100E40006520282D00290A0020746F20003F5820BB
:100E50006F7574206F662072616E676520282D00A3
:100E60006D696E5F736B65775F666163746F723A0D
:100E700020202D31206D61785F736B65775F66612F
:100E800063746F723A2020310A004D383400446F89
:100E90006E65207072696E74696E672066696C6534
:100EA0000A004D3737004D333100496E76616C6969
:100EB000642065787472756465720A0020204D3272
:100EC0003036205800486F6D65206F666673657414
:100ED000004361703A00434F4E4649475F455850C2
:100EE0004F5254004D4541545041434B00434F4FE6
:100EF0004C45525F54454D50455241545552450062
:100F00004348414D4245525F54454D50455241542E
:100F100055524500424142595354455050494E475D
:100F20000041524353004D4F54494F4E5F4D4F4483
:100F3000455300544845524D414C5F50524F544523
:100F40004354494F4E00455854454E4445445F4D27
:100F50003230004C4F4E475F46494C454E414D455F
:100F6000004155544F5245504F52545F53445F53C4
:100F700054415455530053445F575249544500520D
:100F80004550454154005344434152440050524F50
:100F90004D50545F535550504F525400484F535486
:100FA0005F414354494F4E5F434F4D4D414E445373
:100FB00000454D455247454E43595F5041525345B8
:100FC0005200434153455F4C494748545F425249A0
:100FD0004748544E45535300544F47474C455F4C88
:100FE000494748545300534F4654574152455F5068
:100FF0004F574552004255494C445F504552434576
:101000004E54004C4556454C494E475F444154416F
:10101000005A5F50524F42450052554E4F555400B2
:101020004155544F4C4556454C005052494E545F23
:101030004A4F420050524F47524553530041555476
:101040004F5245504F52545F54454D5000415554F6
:101050004F5245504F52545F504F5300564F4C55CE
:101060004D455452494300454550524F4D00424969
:101070004E4152595F46494C455F5452414E53468A
:1010800045520053455249414C5F584F4E5F584FAF
:101090004646004649524D574152455F4E414D45E7
:1010A0003A4D61726C696E20322E302E392E33200B
:1010B000284A616E20313120323032322032303ACB
:1010C00034323A30372920534F555243455F434F0E
:1010D00044455F55524C3A6769746875622E636F78
:1010E0006D2F4D61726C696E4669726D77617265C4
:1010F0002F4D61726C696E2050524F544F434F4CCC
:101100005F56455253494F4E3A312E30204D4143A0
:1011100048494E455F545950453A47656565746581
:1011200063682069332050726F2042204558545222
:10113000554445525F434F554E543A312055554919
:10114000443A63656465326132662D343161322D13
:10115000343734382D396231322D633535633632C8
:101160006633363766660A00203B0020204D38354E
:10117000312058005A2D50726F6265204F66667399
:1011800065740020573A00436F6F6C696E672E2EAE
:101190002E0048656174696E672E2E2E0045312041
:1011A00025530020573A0042656420436F6F6C69F5
:1011B0006E672E2E2E004265642048656174696E4C
:1011C000672E2E2E0023646566696E6520444546B1
:1011D00041554C545F004B6420004B6920004B701C
:1011E0002000504944204175746F74756E65206607
:1011F000696E697368656421205075742074686530
:10120000206C617374204B702C204B6920616E64DC
:10121000204B6420636F6E7374616E74732066720A
:101220006F6D2062656C6F7720696E746F20436FFD
:101230006E66696775726174696F6E2E680A005018
:101240004944204175746F74756E65206661696CE0
:101250006564212074696D656F75740A0050494496
:10126000204175746F74756E65206661696C656484
:10127000212054656D706572617475726520746F9C
:101280006F20686967680A00504944204379636C9D
:1012900065730025532025692F256900204B643A8A
:1012A0002000204B693A2000204B703A2000204358
:1012B0006C617373696320504944200A002054759F
:1012C0003A2000204B753A2000206D61783A2000CA
:1012D000206D696E3A200020643A20002062696126
:1012E000733A20005761697420666F7220686561E7
:1012F000742075702E2E2E00504944204175746F55
:1013000074756E652073746172740A0050494420CC
:101310004175746F74756E65206661696C656421D2
:101320002054656D706572617475726520746F6F9D
:1013300020686967680A00504944204175746F74D9
:10134000756E65206661696C656421204261642068
:101350006865617465722069640A005049442041DF
:1013600075746F74756E65004572723A2075746697
:101370003820666F6E74206E6F7420696E697469B0
:10138000616C697A65642E004572723A20757466E4
:101390003820666F6E74206E6F7420696E69746990
:1013A000616C697A65642E004572723A20757466C4
:1013B0003820666F6E74206E6F7420696E69746970
:1013C000616C697A65642E002568753A253032684B
:1013D000750025303268753A253032687500253041
:1013E00032687527253032687500256875642025B8
:1013F000303268753A2530326875004265640045C0
:101400006E636C6F73757265002020202020202091
:10141000002020202000657272001FE020102010A4
:1014200020101020102020102010303008400480A0
:1014300003001FE03FF03FF03FF01FE01FE03FF0F0
:101440003FF03FF00FC0078003003FFFF03800700F
:1014500030FC3020FC102078102030102C00D02ED2
:1014600031D02F7BD02F7BD02E31D02C00D020300C
:101470001020781020FC1030FC303800703FFFF056
:101480003FFFF03800703186302387102787902F78
:1014900087D02F03D02030102078102078102030F3
:1014A000102F03D02F87D0278790238710318630C5
:1014B0003800703FFFF01FFFF81FFFF804104002D4
:1014C000082002082004104008208010410010412C
:1014D000000820800410400000001FFFF81FFFF8E4
:1014E0005072696E742041626F72746564004D328F
:1014F000350050617573696E672E2E2E004D3234A3
:1015000000454550524F4D2056657273696F6E20ED
:101510004572726F7200454550524F4D20496E64BE
:101520006578204572726F7200454550524F4D20CC
:10153000435243204572726F72003F0049676E6FDD
:10154000726500526573657400496E697469616CF7
:10155000697A6520454550524F4D0046696C2E20F2
:101560004469612E004520696E206D6D5E33002058
:10157000082046616374002008204D61780020082F
:10158000204D696E004F6666004F6E004175746FA6
:1015900074656D70004D696E2054726176656C20C3
:1015A00056656C004D696E2056656C6F6369747981
:1015B000004D617820452056656C004D6178205AB9
:1015C0002056656C004D617820592056656C004DA1
:1015D000617820582056656C004D61782045204187
:1015E0006363656C004D6178205A20416363656CCC
:1015F000004D6178205920416363656C004D61782E
:10160000205820416363656C0054726176656C20DC
:10161000416363656C005265747261637420416359
:1016200063656C00416363656C0050726F62652096
:101630005A204F66667365740050726F6265205958
:10164000204F66667365740050726F626520582083
:101650004F666673657400452073746570732F6DF3
:101660006D005A2053746570732F6D6D00592053AF
:10167000746570732F6D6D00582053746570732FEF
:101680006D6D00416476616E6365642053657474AA
:10169000696E6773003F0043616E63656C00496E5D
:1016A0006974004D34323800496E697469616C693F
:1016B0007A6520454550524F4D0046696C616D6515
:1016C0006E740054656D7065726174757265005357
:1016D000746570732F6D6D0050726F6265204F6678
:1016E0006673657473004A756E6374696F6E204427
:1016F000657600416363656C65726174696F6E0045
:1017000056656C6F636974790053657420486F6D1A
:1017100065204F66667365747300436F6E66696714
:1017200075726174696F6E00000C0F00FE07022570
:1017300003BB017FFE08FE08FE0508080600004006
:10174000F0C88888987810050808060000C0F88856
:1017500088888888F80505050600012030F83020C3
:101760000508080600002070F820202020E0050968
:10177000090600FF2070A8A8B88888702007050512
:10178000070001D86C366CD80509090600FFF8A8D7
:101790008888888888A8F8050A0A0600FE20505024
:1017A000505088A8A8887003030306000340A04097
:1017B000FFFFFFFFFFFFFFFFFFFFFFFFFFFFFFFF39
:1017C000FFFFFFFFFFFF0000000605FF0107070600
:1017D000020080808080800080030303060105A052
:1017E000A0A005060606000050F85050F850050964
:1017F000090600FF2070A8A07028A8702005070720
:10180000060000C8C8102040989805070706000089
:1018100040A0A040A89068010303060205808080D4
:101820000309090601FF20404080808040402003DA
:1018300009090601FF804040202020404080050724
:101840000706000020A8702070A8200505050600E6
:10185000012020F820200203030601FFC04080057C
:101860000101060003F8020202060100C0C00507DC
:1018700007060000081010204040800507070600FA
:1018800000708898A8C8887003070706010040C048
:1018900040404040E005070706000070880810201F
:1018A00040F8050707060000F808103008887005A2
:1018B000070706000010305090F8101005070706C3
:1018C0000000F880F008088870050707060000305F
:1018D0004080F0888870050707060000F80810109F
:1018E000202020050707060000708888708888700F
:1018F0000507070600007088887808106002050553
:10190000060100C0C000C0C00206060601FFC0C03C
:1019100000C04080030505060101204080402005ED
:101920000303060002F800F80305050601018040E4
:101930002040800507070600007088102020002046
:101940000507070600007088B8A8B880700507076B
:10195000060000708888F888888805070706000058
:10196000F04848704848F005070706000070888076
:1019700080808870050707060000F04848484848FE
:10198000F0050707060000F88080F08080F8050762
:1019900007060000F88080F08080800507070600B9
:1019A0000070888080988870050707060000888886
:1019B00088F8888888030707060100E04040404017
:1019C00040E0050707060000381010101090600571
:1019D00007070600008890A0C0A0908805070706AA
:1019E0000000808080808080F8050707060000885E
:1019F000D8A8888888880507070600008888C8A8AE
:101A0000988888050707060000708888888888708D
:101A1000050707060000F08888F08080800507072A
:101A200006000070888888A89068050707060000EF
:101A3000F08888F0A090880507070600007088806D
:101A400070088870050707060000F8202020202075
:101A500020050707060000888888888888700507A1
:101A60000706000088888888505020050707060070
:101A70000088888888A8A85005070706000088887D
:101A800050205088880507070600008888502020CD
:101A90002020050707060000F80810204080F80302
:101AA00009090601FFE080808080808080E00507D2
:101AB00007060000804040201010080309090601B5
:101AC000FFE020202020202020E005030306000561
:101AD0002050880501010600FEF8030303060105F6
:101AE0008040200505050600007008788878050705
:101AF000070600008080F0888888F005050506004C
:101B00000070808088700507070600000808788844
:101B10008888780505050600007088F08070050744
:101B200007060000304840E0404040050707060037
:101B3000FE70888888780870050707060000808096
:101B4000F0888888880307070601004000C04040ED
:101B500040E00409090601FE10003010101010903A
:101B60006005070706000080808890E090880307E2
:101B700007060100C04040404040E0050505060062
:101B800000D0A8A8A8A8050505060000B0C8888848
:101B90008805050506000070888888700507070617
:101BA00000FEF0888888F080800507070600FE7830
:101BB000888888780808050505060000B0C8808078
:101BC0008005050506000078807008F00507070607
:101BD00000002020F82020201805050506000088B8
:101BE00088889868050505060000888888502005C3
:101BF00005050600008888A8A85005050506000010
:101C000088502050880507070600FE8888885020E5
:101C10004080050505060000F8102040F80309097A
:101C20000601FF2040404080404040200109090655
:101C300002FF808080808080808080030909060107
:101C4000FF804040402040404080050303060002E2
:101C500048A890FF414253005045544700504C4122
:101C6000003F004E65787420506F696E7400446FB9
:101C70006E65004E65787400486F6D696E67205818
:101C8000595A0053746F72652053657474696E6796
:101C900073004C6F61642053657474696E677300E0
:101CA000426564205472616D6D696E670050726F99
:101CB0006265205A204F6666736574004F66660041
:101CC0004F6E00426564204C6576656C696E6700F6
:101CD0004C6576656C20426564004732394E00479A
:101CE0003239004175746F20486F6D65004D6F7417
:101CF000696F6E0053572D4D6F64650053746F7795
:101D0000004465706C6F790053656C662D54657383
:101D10007400526573657400426564004E6F7A7A90
:101D20006C650046616E20537065656400436F6E9C
:101D300066696775726174696F6E00526573746F5E
:101D400072652044656661756C7473004C6F6164E4
:101D50002053657474696E67730053746F726520E5
:101D600053657474696E6773005072656865617459
:101D7000202420436F6E6600424C546F75636800E8
:101D800050726F6265205A204F6666736574004119
:101D90006476616E6365642053657474696E6773FD
:101DA000004D61696E003F004261636B0053746FC8
:101DB00070004E6F204D65646961005072696E74E9
:101DC0002066726F6D204D65646961004368616EC5
:101DD0006765204D65646961004D323100436F6E67
:101DE00066696775726174696F6E0054656D7065C0
:101DF000726174757265004D6F74696F6E00526523
:101E000073756D65205072696E740054756E65004F
:101E100053746F70205072696E74005061757365F1
:101E2000205072696E7400496E666F20536372654C
:101E3000656E003F005374617274205072696E7455
:101E40000043616E63656C005072696E740043619B
:101E50006E6E6F7420656E7465722073756264694E
:101E6000723A200002202E2E004D61696E00210082
:101E7000486F74656E6420746F6F20636F6C6400CC
:101E80004261636B0050726F63656564004D6F74EF
:101E9000696F6E0044697361626C6520537465708C
:101EA00070657273004D3834004D34382050726FB5
:101EB00062652054657374004732384F0A4D3438D8
:101EC0002050313000426564204C6576656C696E47
:101ED00067004732385A004732385900486F6D65FD
:101EE00020400047323858004175746F20486F6DAC
:101EF0006500473238004D61696E00507265686553
:101F000061742024204265640050726568656174C4
:101F1000202420456E640054656D7065726174758F
:101F20007265005D1C581C541C436F6F6C646F77A6
:101F30006E005072656865617420240046616E20F1
:101F4000537065656400426564004E6F7A7A6C6513
:101F5000004D61696E00466C6F770046616E2053DC
:101F60007065656400426564004E6F7A7A6C650046
:101F70005370656564004D61696E006F70656E0039
:101F8000545249474745524544003A20007A5F6D14
:101F9000696E00795F6D696E00785F6D696E0052E1
:101FA00065706F7274696E6720656E6473746F70AC
:101FB000207374617475730A00486F6D6520257312
:101FC0002573257320466972737400000020410058
:101FD0000020C1000000005761726E696E673A20F0
:101FE000486F6D696E672042756D7020446976692F
:101FF000736F72203C20310A0002020400003A4351
:1020000000003B43000039430000A0400000A04016
:1020100000000040000000010000000100008000FE
:10202000555555000000400033333300AAAA2A005A
:102030004992240000002000C7711C0099991900E2
:10204000D1451700555515003BB113002449120026
:1020500011111100000010000F0F0F00E3380E00E7
:1020600043790D00CCCC0C00C3300C00E8A20B006F
:1020700064210B00AAAA0A00703D0A009DD809003D
:10208000427B090092240900DCD3080088880800FC
:102090001042080000000800F0C107008787070011
:1020A00075500700711C07003EEB0600A1BC06003E
:1020B0006990060066660600703E0600611806001C
:1020C00017F4050074D105005BB00500B29005005F
:1020D000627205005555050078390500B81E0500E7
:1020E000050505004EEC040087D40400A1BD0400E2
:1020F00090A7040049920400C17D0400EE69040029
:10210000C7560400444404005C3204000821040063
:1021100041100400000004003FF00300F8E0030059
:1021200026D20300C3C30300CCB503003AA80300C2
:102130000A9B0300388E0300C08103009F750300D3
:10214000D0690300505E03001D53030034480300B0
:10215000913D03003333030016290300381F0300A9
:1021600097150300300C0300030303000BFA020071
:1021700049F10200BAE802005CE002002DD802003A
:102180002DD0020059C80200B0C0020031B90200CF
:10219000DAB10200AAAA0200A0A30200BC9C0200BD
:1021A000FA9502005C8F0200DF8802008282020042
:1021B000457C02002776020027700200436A020075
:1021C0007C640200D05E02003F590200C853020046
:1021D000FFFDFCFAF8F6F4F2F0EEECEAE9E7E5E3ED
:1021E000E1E0DEDCDAD9D7D5D4D2D0CFCDCBCAC8A6
:1021F000C7C5C3C2C0BFBDBCBAB9B7B6B4B3B2B02D
:10220000AFADACAAA9A8A6A5A4A2A1A09E9D9C9A88
:1022100099989795949392908F8E8D8B8A898887C1
:102220008684838281807F7E7D7B7A7978777675DC
:1022300074737271706F6E6D6C6B6A6968676665D6
:1022400064636261605F5E5D5C5B5A5958585756C3
:10225000555453525150504F4E4D4C4B4A4A494899
:10226000474646454443424241403F3E3E3D3C3B5B
:102270003B3A39383837363535343332323130300D
:102280002F2E2E2D2C2B2B2A2929282727262525B2
:1022900024232322212120201F1E1E1D1C1C1B1B4A
:1022A0001A191918181716161515141313121211D6
:1022B00011100F0F0E0E0D0D0C0C0B0A0A09090858
:1022C00008070706060505040403030202010000CF
:1022D0000000444300003143000039430000204126
:1022E000000020C10000000053657474696E6773BC
:1022F0002053746F72656400290A00206279746546
:10230000733B20637263200053657474696E677356
:102310002053746F72656420280048617264636F93
:102320006465642044656661756C742053657474DB
:10233000696E6773204C6F616465640A0020286DC4
:102340006D2900203B204C6576656C696E67200026
:1023500020204D3432302053004175746F20426587
:1023600064204C6576656C696E67002046002042EB
:102370000020480020204D3134352053004D617439
:10238000657269616C206865617475702070617236
:10239000616D65746572730020204D3134392043BE
:1023A000203B20556E69747320696E2043656C7301
:1023B0006975730A0054656D706572617475726534
:1023C00020556E697473002020473231203B004C49
:1023D000696E65617220556E69747300454550528F
:1023E0004F4D206461746173697A65206572726F04
:1023F000722E0A00290A002062797465733B2063FB
:10240000726320002073746F726564207365747446
:10241000696E6773207265747269657665642028D9
:1024200000202863616C63756C6174656429210AFE
:102430000020213D2000454550524F4D204352433E
:10244000206D69736D61746368202D202873746F2B
:102450007265642920002053697A653A2000496E2C
:102460006465783A20000000C8430000C8430000BB
:102470000040000034420000A3420000A342525832
:10248000C8430000D84288130000881300004B00A6
:10249000000088130000204D61726C696E3D563853
:1024A00036290A00454550524F4D207665727369B2
:1024B0006F6E206D69736D617463682028454550A7
:1024C000524F4D3D0024F4D43050C38E20C2A24060
:1024D00017828B7011127A910D816CD90AA861E173
:1024E00008C7586607615143061E4B5D05C145A7E5
:1024F000041A411104093D9803713931034036DB58
:102500000265339102D4305402802E1D02632CEEFA
:1025100001752AC501B028A001102781018F25640B
:10252000012B244B01E0223401AC211F018D200D31
:1025300001801FFC00841EED00971DDF00B81CD237
:1025400000E61BC600201BBC00641AB200B219A82A
:10255000000A19A0006A189900D117910040178B42
:1025600000B516840031167E00B31579003A157354
:1025700000C7146F0058146A00EE136600881363D6
:102580000025135E00C7125B006C12570015125431
:1025900000C111510070114F0021114B00D610499C
:1025A000008D1047004610440002104200C00F404A
:1025B00000800F3E00420F3C00060F3B00CB0E3860
:1025C00000930E37005C0E3500270E3400F30D32F9
:1025D00000C10D3100900D3000600D2E00320D2D28
:1025E00000050D2C00D90C2B00AE0C2900850C2900
:1025F000005C0C2700350C27000E0C2600E80B248D
:1026000000C40B2400A00B23007D0B23005A0B21D8
:1026100000390B2100180B2000F80A1F00D90A1EF0
:1026200000BB0A1E009D0A1D00800A1D00630A1CD3
:1026300000470A1B002C0A1B00110A1A00F7091A8E
:1026400000DD091900C4091900AB09190092091726
:10265000007B091800630917004C0916003609169B
:1026600000200916000A091500F5081500E00814F5
:1026700000CC081400B8081400A408140090081333
:10268000007D0812006B081300580812004608125B
:10269000003408110023081100120811000108116C
:1026A00000F0071000E0071000D0071000C007106E
:1026B00000B0070F00A107100091070E0083070F5D
:1026C0000074070F0065070E0057070E0049070E3C
:1026D000003B070D002E070E0020070D0013070D0D
:1026E0000006070D00F9060C00ED060D00E0060CD3
:1026F00000D4060C00C8060C00BC060C00B0060C8A
:1027000000A4060B0099060C008D060B0082060B38
:102710000077060B006C060B0061060A0057060BDB
:10272000004C060A0042060A0038060A002E060A75
:102730000024060A001A060A001006090007060A05
:1027400000FD050900F4050900EB050900E2050993
:1027500000D9050900D0050900C7050900BE050913
:1027600000B5050800AD050800A50509009C050891
:1027700000940508008C050800840508007C050805
:1027800000740508006C050700650508005D050775
:1027900000560508004E05070047050700400508DC
:1027A0000038050700310507002A05070023050743
:1027B000001C050600160507000F050700080506A2
:1027C0000002050700FB040600F5040700EE0406FE
:1027D00000E8040600E2040700DB040600D5040656
:1027E00000CF040600C9040600C3040600BD0406A9
:1027F00000B7040600B1040500AC040600A60406F8
:1028000000A00405009B0406009504050090040642
:10281000008A04050085040500800406007A04058A
:102820000075040500700405006B040500660405CE
:1028300000610405005C040500570405005204050E
:10284000004D04050048040500430405003E04044F
:10285000003A04050035040500300404002C04058A
:102860000027040400230405001E0404001A0404C5
:102870000016040500110404000D040400090405F9
:10288000000404040000040400FC030400F8030432
:1028900000F4030400F0030400EC030400E8030464
:1028A00000E4030400E0030400DC030400D8030494
:1028B00000D4030400D0030400CC030400C80303C5
:1028C00000C503030024F404D9201BC40C5C0E983B
:1028D00004C4095F0265077101F405F900FB04B344
:1028E0000048048700C103690058035500030345ED
:1028F00000BE023A008402310053022A0029022558
:102900000004022000E4011C00C8011900AF0117F7
:10291000009801140084011300710110006101107E
:102920000051010E0043010D0036010B002B010B7D
:102930000020010B00150109000C0109000301082A
:1029400000FB000800F3000800EB000700E40006AD
:1029500000DE000600D8000600D2000600CC00050C
:1029600000C7000500C2000500BD000400B9000456
:1029700000B5000400B1000400AD000400A900048B
:1029800000A5000300A20003009F0004009B0003B9
:1029900000980003009500020093000300900003DC
:1029A000008D0002008B00030088000200860002F8
:1029B0000084000300810002007F0002007D00020D
:1029C000007B00020079000200770001007600021F
:1029D000007400020072000100710002006F00022A
:1029E000006D0001006C0002006A00010069000235
:1029F000006700010066000100650001006400023C
:102A0000006200010061000100600001005F00023F
:102A1000005D0001005C0001005B0001005A000144
:102A20000059000100580001005700010056000144
:102A30000055000100540001005300000053000144
:102A4000005200010051000100500001004F000140
:102A5000004E0000004E0001004D0001004C00013E
:102A6000004B0000004B0001004A0001004900013A
:102A70000048000000480001004700010046000037
:102A8000004600010045000000450001004400012F
:102A9000004300000043000100420000004200012A
:102AA000004100000041000100400001003F000023
:102AB000003F0001003E0000003E0001003D00001C
:102AC000003D0001003C0000003C0000003C000113
:102AD000003B0000003B0001003A0000003A00010A
:102AE0000039000000390001003800000038000003
:102AF00000380001003700000037000100360000F8
:102B000000360000003600010035000000350000EE
:102B100000350001003400000034000000340001E2
:102B200000330000003300000033000100320000D9
:102B300000320000003200010031000000310000CE
:102B400000310001003000000030000000300001C2
:102B5000002F0000002F0000002F0000002F0001B8
:102B6000002E0000002E0000002E0001002D0000AD
:102B7000002D0000002D0000002D0001002C0000A1
:102B8000002C0000002C0000002C0001002B000095
:102B9000002B0000002B0000002B0001002A000089
:102BA000002A0000002A0000002A0001002900007D
:102BB0000029000000290000002900000029000170
:102BC0000028000000280000002800000028000065
:102BD0000028000100270000002700000027000057
:102BE000002700000027000100260000002600004A
:102BF000002600000026000000260001002500003D
:102C00000025000000250000002500000025000030
:102C10000025000100240000002400000024000022
:102C20000024000000240001002300000023000015
:102C30000023000000230000002300000023000008
:102C400000230001002200000022000000220000FA
:102C500000220000002200000022000100210000EC
:102C600000210000002100000021000000210000E0
:102C700000210000002100010020000000200000D1
:102C800000200000002000000020000000200000C4
:102C90000020000000200001001F0000001F0000B5
:102CA000001F0000001F0000001F0000001F0000A8
:102CB000001F0001001E0000001E0000001E00009A
:102CC000001E000000393000003325000087190085
:102CD00000B00F0000DB080000BD0400007402001B
:102CE000003F01000020436F756E7420583A004287
:102CF0006564004531004500626564002C207379ED
:102D00007374656D2073746F7070656421204865FD
:102D1000617465725F49443A200048656174696E68
:102D200067204661696C65640048656174696E6717
:102D3000206661696C6564004572723A204D4158A5
:102D400054454D50004D415854454D5020747269C2
:102D5000676765726564004572723A204D494E544A
:102D6000454D50004D494E54454D50207472696791
:102D7000676572656400544845524D414C20525578
:102D80004E4157415900546865726D616C2052750F
:102D90006E6177617900202F002042403A00204088
:102DA0003A000009121B242D363F48415A536C65E6
:102DB0007E7719100B023D342F265158434A757CFB
:102DC000676E323B2029161F040D7A7368615E57C7
:102DD0004C452B2239300F061D14636A7178474E1B
:102DE000555C646D767F4049525B2C253E37080167
:102DF0001A137D746F6659504B42353C272E1118BB
:102E0000030A565F444D727B60691E170C053A3306
:102E100028214F465D546B627970070E151C232ADA
:102E200031384148535A656C777E09001B122D24B6
:102E30003F3658514A437C756E671019020B343D7A
:102E4000262F737A6168575E454C3B3229201F1646
:102E50000D046A6378714E475C55222B3039060F9A
:102E6000141D252C373E0108131A6D647F764940E6
:102E70005B523C352E2718110A03747D666F50593A
:102E8000424B171E050C333A21285F564D447B7286
:102E900069600E071C152A233831464F545D626B5A
:102EA000707900002110422063308440A550C66034
:102EB000E770088129914AA16BB18CC1ADD1CEE1F7
:102EC000EFF13112100273325222B5529442F7726E
:102ED000D662399318837BB35AA3BDD39CC3FFF347
:102EE000DEE36224433420040114E664C774A4447E
:102EF00085546AA54BB528850995EEE5CFF5ACC597
:102F00008DD55336722611163006D776F66695564D
:102F1000B4465BB77AA719973887DFF7FEE79DD7E6
:102F2000BCC7C448E5588668A778400861180228DD
:102F30002338CCC9EDD98EE9AFF9488969990AA936
:102F40002BB9F55AD44AB77A966A711A500A333AAD
:102F5000122AFDDBDCCBBFFB9EEB799B588B3BBB86
:102F60001AABA66C877CE44CC55C222C033C600C3D
:102F7000411CAEED8FFDECCDCDDD2AAD0BBD688DD6
:102F8000499D977EB66ED55EF44E133E322E511E8D
:102F9000700E9FFFBEEFDDDFFCCF1BBF3AAF599F26
:102FA000788F8891A981CAB1EBA10CD12DC14EF1C6
:102FB0006FE18010A100C230E3200450254046702C
:102FC0006760B9839893FBA3DAB33DC31CD37FE357
:102FD0005EF3B1029012F322D2323542145277627C
:102FE0005672EAB5CBA5A89589856EF54FE52CD527
:102FF0000DC5E234C324A0148104667447642454CC
:103000000544DBA7FAB79987B8975FE77EF71DC736
:103010003CD7D326F2369106B0165766767615461B
:1030200034564CD96DC90EF92FE9C899E9898AB986
:10303000ABA94458654806782768C018E10882386B
:10304000A3287DCB5CDB3FEB1EFBF98BD89BBBAB96
:103050009ABB754A545A376A167AF10AD01AB32ABB
:10306000923A2EFD0FED6CDD4DCDAABD8BADE89DE6
:10307000C98D267C076C645C454CA23C832CE01C0B
:10308000C10C1FEF3EFF5DCF7CDF9BAFBABFD98F76
:10309000F89F176E367E554E745E932EB23ED10E5B
:1030A000F01E7C3C3E5E2B3D3F2F5B5D3B2C2A227D
:1030B0005C0043616E6E6F74206F70656E20737577
:1030C0006264697220004D6564696120496E6974AB
:1030D000204661696C0053442063617264206F6B09
:1030E0000A006F70656E526F6F74206661696C655F
:1030F000640A00766F6C756D652E696E6974206662
:1031000061696C65640A004E6F20534420636172EC
:10311000640A000A4D3234004D3233202573002EEC
:103120000A006F70656E206661696C65642C2046CC
:10313000696C653A200046696C652073656C65634F
:103140007465640A002053697A653A200046696C08
:1031500065206F70656E65643A2000454E442053CB
:103160005542524F5554494E450A002220706F7304
:10317000002220706172656E743A220053554252EB
:103180004F5554494E452043414C4C207461726761
:1031900065743A220053756263616C6C204F7665EA
:1031A00072666C6F77004578636565646564206D51
:1031B000617820535542524F5554494E452064651D
:1031C0007074683A0057726974696E6720746F2072
:1031D00066696C653A2000667265736800646F69A1
:1031E0006E67002066696C653A20004E6F7720009C
:1031F0002F6175746F25632E6700026D61726C69B3
:103200006E66772E6F726700322E302E392E3300A5
:103210001FFFFFFFFFFFFF600000000001FF4000F5
:1032200000000000FF8000000000007F83CF00004E
:103230000C303F87FF80000C301F867980000C0027
:103240000F8C30C7838C30E78C30CFC7CC31F38CF8
:1032500030DCECEC33B98C30D86C6C33198C30D05A
:103260006C0C33198C30D86C0C33198C30DC6C0E30
:103270003B198C30CF7C079F198C30C77C038F198A
:1032800040000000000002600000000000061FFF78
:10329000FFFFFFFFF870012C0190012701B0012210
:1032A00001C0011D01F00118011002130130020ECE
:1032B000016002090190020401C002FF000003FA4C
:1032C000004003F5008003F000D003EB002004E68B
:1032D000007004E100E004DC004005D700C005D226
:1032E000004006CD00D006C8008007C3003008BEED
:1032F00000F008B900C009B400B00AAF00B00BAAD2
:1033000000D00CA500000EA000500F9B00C010962E
:10331000005012910000148C00C0158700B0178275
:1033200000B0197D00D01B7800001E730040206E95
:103330000090226900F024640040275F0090295A21
:1033400000E02B5500102E500020304B001032466C
:1033500000E033410090353C0010373700703832C0
:1033600000A0392D00B03A2800A03B2300603C1E8D
:1033700000103D1900903D1400103E0F00703E0AF1
:1033800000C03E0500003F0000403FFBFF803FF6CD
:10339000FFC03FF1FF2020506C616E6E6572427578
:1033A0006666657242797465733A200020467265DC
:1033B00065204D656D6F72793A200020436F6D7006
:1033C000696C65643A204A616E20313120323032B6
:1033D000320A00204C617374205570646174656416
:1033E0003A20323032312D31322D3235207C20419D
:1033F0007574686F723A206A6F6E7361670A004D68
:1034000061726C696E20322E302E392E330A002004
:10341000536F6674776172652052657365740A0034
:10342000205761746368646F672052657365740A1E
:10343000002042726F776E206F757420526573653D
:10344000740A002045787465726E616C2052657351
:1034500065740A00506F77657255700A0073746165
:1034600072740A004732385859004D3130303100FB
:103470006F6B006572726F722077726974696E6724
:1034800020746F2066696C650A00446F6E65207356
:103490006176696E672066696C652E0A004D323967
:1034A00000456E6473746F7073002553202563208C
:1034B000256320256320256300205A3A0020593ACD
:1034C0000020583A00656E6473746F7073206869E9
:1034D000743A200000000A0B02090C0D0E080703C5
:1034E00004010000000000000000000000000000D7
:1034F00000000000000000000000000000000000CC
:103500001211100000000000000000000000000088
:1035100000000000000000000000004D6F766520F4
:1035200025736D6D004D6F766520302E316D6D0009
:103530004D6F766520316D6D004D6F7665203130B1
:103540006D6D004D6F76652041786973004D6F7623
:1035500065204578747275646572004D6F766520DC
:103560005A004D6F76652059004D6F7665205800E2
:10357000486F6D696E67204661696C656400FFFF86
:10358000FF50726F62696E67204661696C65640AFC
:103590000050726F62696E67204661696C656400F5
:1035A000205A3A200020593A200042656420583AB7
:1035B0002000476565657465636820693320507233
:1035C0006F20422052656164792E005072696E74DA
:1035D000696E672E2E2E005072696E7420506175D0
:1035E00073656400220A00556E6B6E6F776E206300
:1035F0006F6D6D616E643A202200204500205A00F4
:1036000020590020204D39322058005374657073C2
:103610002070657220756E697400DB0FC93F45BC70
:10362000DA3F8FB30240FCF0274056946140FE4BD6
:103630009B4084A5D840E0231841346A5641E8599C
:10364000974164DBD5416E271742B4B75542CE1A75
:103650009742C8AED542B5885A43D40684BFA65F08
:10366000A7BF7443E0BF10B11AC01C2C58C0E8F6C5
:1036700097C0B849D6C04E4E17C124D355C1802437
:1036800097C1A0B5D5C1121A17C244AE55C278175A
:1036900097C26CACD5C267885AC320746F6F206C18
:1036A0006F6E6720657874727573696F6E207072C3
:1036B0006576656E7465640A0020636F6C642065CE
:1036C0007874727573696F6E2070726576656E744A
:1036D00065640A006F6B0A00526573656E643A2078
:1036E0000020453A00205A3A0020593A00583A0042
:1036F00000002200250028002B002E00310034009D
:1037000002010000050108010B0100002100240056
:1037100027002A002D0030003300010100000401C1
:1037200007010A0105050505070508080808020242
:1037300002020A0A0808040404040101010101014B
:1037400001010303030303030303040707070C0C2E
:103750000C0C0C0C0C0C02020202060606060606F5
:1037600006060B0B0B0B0B0B0B0B0102102020089A
:1037700008102040102040800201020108040201CC
:10378000010204081020408080402010080402013B
:103790008004020180402010080402010804020194
:1037A000010204081020408001020408102040801B
:1037B0004572726F722077726974696E6720746FD8
:1037C00020454550524F4D210A009A00980011247F
:1037D0001FBECFEFD1E2DEBFCDBF00E00CBF84B78C
:1037E0008093C91514BE0FB6F894A8958091600017
:1037F000886180936000109260000FBE13E0A0E02B
:10380000B2E0E2EBF8E402E00BBF02C007900D92D9
:10381000A638B107D9F725E1A6E8B3E001C01D92AB
:10382000A93CB207E1F71BE1C6EEDBE100E006C010
:1038300021970109802FFE010F94ED20C53ED1078D
:1038400080E00807A9F70F942D0E0D9448240C94DE
:1038500000008F929F92AF92BF92CF92DF92EF9231
:10386000FF926B017C0120E030E0A9010F94261A41
:1038700087FD6BC06DEB77E386E095E3A7019601CA
:103880000F9408216B017C0120E030E040E251E41C
:103890000F948B1A20E030E040E251E40F948B1A31
:1038A0004B015C0120E030E0A901C701B6010F9493
:1038B000261A20E030E040EA50E487FF04C020E010
:1038C00030E040EA50ECC501B4010F94082120E03B
:1038D00030E040E251E40F94E4210F944C229B012C
:1038E0008BE237FF05C022273327261B370B8DE2DB
:1038F00080937905C90164E670E00F94DA20CB016A
:10390000EAE0F0E0BF010F94DA20805D80937A0551
:10391000C901BF010F94DA20282FCB01BF010F94FA
:10392000DA20805D80937B058EE280937C05205DAC
:1039300020937D0589E795E0FF90EF90DF90CF9091
:10394000BF90AF909F908F9008956DEB77E386E0E6
:1039500095EB94CF8F929F92AF92BF92CF92DF92CE
:10396000EF92FF92CF936B017C0120E030E0A90140
:103970000F94261A87FDAAC06DEB77E386E095E3E6
:10398000A70196010F9408216B017C0120E030E033
:10399000A9010F94261A87FF9EC0C701B60190584F
:1039A00020E030E040E251E40F948B1A20E030E058
:1039B00040E251E40F948B1A20E030E040EA50E4FA
:1039C0000F94082120E030E040E251E40F94E4211C
:1039D0000F944C226B017C0180E28093770560E2BA
:1039E00080E1C81687E2D806E104F1048CF0C70133
:1039F000B60120E137E240E050E00F947220CA01A6
:103A0000B9012AE030E040E050E00F947220605DA0
:103A10006093780560E288EEC81683E0D806E1047A
:103A2000F1048CF0C701B60128EE33E040E050E02D
:103A30000F947220CA01B9012AE030E040E050E062
:103A40000F947220605D6093790560E284E6C81689
:103A5000D104E104F1048CF0C701B60124E630E0A2
:103A600040E050E00F947220CA01B9012AE030E032
:103A700040E050E00F947220605D60937A058AE028
:103A8000882E912CA12CB12CC701B601A50194015F
:103A90000F947220C62FCA01B901A50194010F9499
:103AA0007220605D60937B058EE280937C05C05D33
:103AB000C0937D0587E795E0CF91FF90EF90DF9071
:103AC000CF90BF90AF909F908F9008956DEB77E36C
:103AD00086E095EB55CF20E030E040E251E4C701AD
:103AE000B60162CF8F929F92AF92BF92CF92DF9238
:103AF000EF92FF92CF936B017C0120E030E0A901AF
:103B00000F94261A87FD93C06DEB77E386E095E36B
:103B1000A70196010F9408216B017C0120E030E0A1
:103B200040E251E40F948B1A20E030E04AE754E47D
:103B30000F948B1A4B015C0120E030E0A901C70112
:103B4000B6010F94261A20E030E040EA50E487FFE7
:103B500004C020E030E040EA50ECC501B4010F940D
:103B6000082120E030E040E251E40F94E4210F947A
:103B70004C226B017C01C114D104E104F10409F46D
:103B80005BC0F7FE59C0F094E094D094C094C11C7F
:103B9000D11CE11CF11C8DE280937805C701B601B0
:103BA00028EE33E040E050E00F9472208AE0882E47
:103BB000912CA12CB12CCA01B901A50194010F943B
:103BC0007220605D609379058EE280937A05C7016B
:103BD000B60124E630E040E050E00F947220CA01C4
:103BE000B901A50194010F947220605D60937B057B
:103BF000C701B601A50194010F947220C62FCA0116
:103C0000B901A50194010F947220605D60937C0559
:103C1000C05DC0937D0588E795E0CF91FF90EF9060
:103C2000DF90CF90BF90AF909F908F9008956DEBF5
:103C300077E386E095EB6CCF80E2AECFCF93DF9356
:103C4000EC01CB01BA010F942C1A20E030E040E2E5
:103C500051E40F94E421688379838A839B83DF9105
:103C6000CF910895CF93DF93EC01CB01BA010F946C
:103C70002C1A20E030E040E251E40F94E421688304
:103C800079838A839B83DF91CF9108950F942C1AB7
:103C900020E030E040E251E40F94E4215BCE0F9449
:103CA0002C1A20E030E040E251E40F94E421D1CD21
:103CB000CF93DF93EC01CB01BA010F942C1A2AE0C9
:103CC00037ED43E25DE30F94E4210F9451226883C2
:103CD00079838A839B83DF91CF910895CF93DF937C
:103CE000EC01CB01BA010F942C1A2AE037ED43E224
:103CF0005DE30F94E421688379838A839B83DF915A
:103D0000CF910895CF93DF93EC01CB01BA010F94CB
:103D10002C1A688379838A839B83DF91CF910895DE
:103D2000CF93DF93EC01CB01BA010F942C1A20E062
:103D300030E048EC52E40F94E421688379838A836D
:103D40009B83DF91CF910895CF93DF93EC01CB015B
:103D5000BA010F942C1A0F944C2279836883DF9157
:103D6000CF910895CF93DF93EC01CB01BA010F946B
:103D70002C1A20E030E04AE754E40F94E4216883F1
:103D800079838A839B83DF91CF9108950F942C1AB6
:103D900020E030E04AE754E40F94E421A3CEFC0194
:103DA00084910895FC0180810895FC01A081B18176
:103DB0001C92A281B3818C918F5F8C930280F381DE
:103DC000E02D90818CE0989F800D1124E8E9F3E1CB
:103DD00013AE84AF0895009751F0FC0180E09191FB
:103DE000992331F0907C9038D1F38F5FF8CF80E049
:103DF00008959091020192709093000100C09091FB
:103E0000020187FD909591709093000190910201BD
:103E1000909592709093000100C000C090910201B3
:103E200092709093000100C09091020186FD9095E0
:103E300091709093000190910201909592709093EF
:103E4000000100C000C090910201927090930001A7
:103E500000C09091020185FD9095917090930001B2
:103E600090910201909592709093000100C000C063
:103E70009091020192709093000100C09091020114
:103E800084FD90959170909300019091020190951E
:103E900092709093000100C000C090910201927056
:103EA0009093000100C09091020183FD9095917064
:103EB000909300019091020190959270909300016F
:103EC00000C000C09091020192709093000100C068
:103ED0009091020182FD90959170909300019091D4
:103EE0000201909592709093000100C000C09091E3
:103EF000020192709093000100C09091020181FD37
:103F0000909591709093000180910201809582704C
:103F10008093000100C000C08091020182708093F4
:103F2000000100C0809102018170809300018091A6
:103F30000201809582708093000100C000C0089546
:103F400090E080E00895CF93DF93DB01F9019C912D
:103F50009130C1F0943080F094509C938830D1F42B
:103F600080819181009771F0019791838083480F40
:103F7000591FEA01188206C08C3539F49C5F9C9366
:103F8000943041F4DF91CF9108958B3339F781E07C
:103F90008C93F8CF20813181B9016F5F7F4F71839E
:103FA0006083420F531FEA018883808191818F359E
:103FB00091056CF7E7CF0F931F9381E00091EB140D
:103FC0001091EC142091ED143091EE144091E7140F
:103FD0005091E8146091E9147091EA1404171507E0
:103FE0002607370708F480E01F910F91089590E0AD
:103FF00080E008952091B104833021F425FD0CC0A8
:1040000024FD0CC030E0A90102C0559547958A9562
:10401000E2F7CA018170089581E0089580E0089573
:104020008091CD0484FD0BC08091CF0487FD07C033
:104030009091D004937081E019F480E0089581E0BC
:1040400008952FEB280F2A3108F047C0E22FF0E047
:104050008091CD049091CE04A091CF04B091D00472
:1040600004C0B695A795979587952A95D2F780FDB8
:1040700002C081700895ED54FB4FE081EE2341F1C1
:104080008091840790918507E80FF92FF11D8081B9
:1040900090ED980F9A3030F08E3251F48181805338
:1040A0008A3098F4F093A704E093A60481E0089581
:1040B0008D3211F08B3249F4818190ED980F9A3056
:1040C00088F38E3211F48281EACFF0E0E0E0EACFAB
:1040D0001092A7041092A604E9CF80E00895B1DF02
:1040E000882341F081E02091A6043091A704232B7E
:1040F00009F480E00895809A8898089580E090E01F
:10410000A0E8B0E48093700290937102A0937202D1
:10411000B093730288EB92E00E94F5B7E0917305CB
:10412000E430C9F480E090E0AAEBB2E48093680246
:1041300090936902A0936A02B0936B0280E090E0D2
:10414000A6EAB2E480936C0290936D02A0936E0293
:10415000B0936F0232C080E090E0ACE0B2E48093B4
:10416000680290936902A0936A02B0936B0280E0A8
:1041700090E0A0E2B1E480936C0290936D02A09372
:104180006E02B0936F02EE0FFF0BE856FD4F808179
:1041900091818330910549F18430910591F1029725
:1041A00061F480E090E0ABE2B3E480936802909326
:1041B0006902A0936A02B0936B0280EA92E00E94C7
:1041C000F5B7109270021092710210927202109262
:1041D000730288EB92E00E94F5B7809173058F5FC0
:1041E0008530A4F480937305089580E090E0ABE2FD
:1041F000B3E48093680290936902A0936A02B0933B
:104200006B0280E090E0A3E1B3E49CCF10927305D1
:104210000895CF93DF9300D01F92CDB7DEB70F94F0
:1042200051220F942A1A69837A838B839C83CE014F
:1042300001960E949AC50F900F900F900F90DF91FA
:10424000CF9108950F942C1A2AE037ED43E25DE3F5
:104250000F94E421DECFCF92DF92EF92FF92CF93C3
:10426000DF9300D01F92CDB7DEB76B017C0120E059
:1042700030E0A9010F94261A87FD1BC06DEB77E390
:1042800086E095E3A70196010F94082169837A835C
:104290008B839C83CE0101960E949AC50F900F904C
:1042A0000F900F90DF91CF91FF90EF90DF90CF9024
:1042B00008956DEB77E386E095EBE4CF0F942C1A2D
:1042C0002AE037ED43E25DE30F94E421C4CF0F947D
:1042D0002C1AC1CF0F942C1A20E030E048EC52E4A5
:1042E0000F94E4210C942ED40F942C1A0F944C228A
:1042F000CB010C949CC60C9443A70C9443A70C943C
:1043000043A70C9443A70C94F5A60C94F5A60C9423
:10431000F5A60C94F5A663E972E084E690E00E94AD
:1043200074CD6AEB72E084E690E00C9474CD811158
:10433000F2CF68EB71E084E190E00C9474CD0E94C0
:104340000EA4F5CF80915F02882341F06091700543
:104350007091710541E081E00C94EDF708950E94A1
:10436000ECBEE5CF0E9492BDD6CFCF93DF93C09134
:104370003107D0913207209729F160912D07709174
:104380002E0780912F07909130070F944C226E5F7B
:104390007F4F24976C177D07ACF47093B40560933E
:1043A000B3050E94DCFC605A75418F4F9F4F6093AC
:1043B000B5057093B6058093B7059093B805DF9166
:1043C000CF9108951092B5051092B6051092B705D9
:1043D0001092B805F4CFBF92CF92DF92EF92FF9286
:1043E0000F931F93CF93DF936B01E9014A3009F4D8
:1043F000D6C0453109F081C0DB011296ED91FC91E8
:104400001281C681D781599A00C0000086E290E0EF
:104410000197F0F7012F0295007F20E1B22EB10E37
:1044200088EFE7DC00C0000086E290E00197F0F73B
:10443000103208F0A1C0812F80778068DADC802FED
:10444000D8DC00C0000086E290E00197F0F780E839
:10445000D0DC80E0CEDC00C0000086E290E0019776
:10446000F0F78AEFC6DC00C0000086E290E001971A
:10447000F0F77E01B0E1EB0EF11C8881807FB9DCA2
:1044800089918295807FB5DCCE15DF05B1F700C03C
:10449000000086E290E00197F0F71F5F005F1B11BC
:1044A000BFCF5998D6011296ED91FC9180819281EF
:1044B000980F92832181921708F075C294819F5FB3
:1044C00094839381890F821710F08FEF820F83837B
:1044D000458150E0440F551F70E060E08681978170
:1044E0000F94F42381E0DF91CF911F910F91FF9002
:1044F000EF90DF90CF90BF900895FB010281138170
:10450000423309F452C208F45AC2463409F447C28D
:10451000473409F44FC24B3329F789812B81D801E5
:1045200012966C91129713964C91213009F48CC21B
:10453000233009F06DC238EF380F582F91E0431740
:1045400008F490E041E0531708F040E031E05617DE
:1045500008F430E0592F542B352319F4942309F42F
:10456000C1CFFA8030E0F901EC57FD4FD0802058E0
:104570003D4FF901E08065C280EE810F8068807F49
:1045800038DC812F8295807F34DC00C0000086E219
:1045900090E00197F0F780E82CDC80E85BCF519A3F
:1045A00059988091010181608093010180910201FD
:1045B00081708093000180910101826080930101EC
:1045C000809102018095827080930001599A00C009
:1045D000000086E290E00197F0F788E790E0CEE9EE
:1045E000DFE0FE013197F1F70197D9F788EF01DCA1
:1045F00000C0000086E290E00197F0F780E2F9DB6E
:1046000080E0F7DB00C0000086E290E00197F0F761
:1046100080E0EFDB80E8EDDB00C0000086E290E0A8
:104620000197F0F780E0E5DB80E1E3DB00C000000C
:1046300086E290E00197F0F7CE010197F1F7CE0105
:104640000197F1F7CE010197F1F7CE010197F1F74C
:10465000CE010197F1F7CE010197F1F7CE01019755
:10466000F1F7CE010197F1F7CE010197F1F7CE01F5
:104670000197F1F7CE010197F1F7CE010197F1F71C
:10468000CE010197F1F7CE010197F1F72197F1F7EC
:1046900080E2AFDB80E4ADDB00C0000086E290E0AA
:1046A0000197F0F780E2A5DB80E6A3DB00C0000005
:1046B00086E290E00197F0F7D0E0C0E08C2F8077A1
:1046C000806897DB8D2F95DB00C0000086E290E0CC
:1046D0000197F0F780E88DDB80E08BDB00C0000005
:1046E00086E290E00197F0F78AEF83DB00C00000DC
:1046F00086E290E00197F0F790E2809102018270EB
:104700008093000100C080910201817080930001BC
:1047100080910201809582708093000100C000C0EA
:104720008091020182708093000100C0809102019B
:104730008170809300018091020180958270809346
:10474000000100C000C080910201827080930001CE
:1047500000C080910201817080930001809102016C
:10476000809582708093000100C000C0809102019A
:1047700082708093000100C080910201817080935B
:10478000000180910201809582708093000100C039
:1047900000C08091020182708093000100C080916E
:1047A00002018170809300018091020180958270E6
:1047B0008093000100C000C080910201827080934C
:1047C000000100C0809102018170809300018091FE
:1047D0000201809582708093000100C000C080912A
:1047E000020182708093000100C0809102018170FB
:1047F0008093000180910201809582708093000176
:1048000000C000C08091020182708093000100C04E
:104810008091020181708093000180910201809556
:1048200082708093000100C000C0809102018270FC
:104830008093000100C0809102018170809300018B
:1048400080910201809582708093000100C000C0B9
:104850008091020182708093000100C0809102016A
:104860008170809300018091020180958270809315
:10487000000100C000C0809102018270809300019D
:1048800000C080910201817080930001809102013B
:10489000809582708093000100C000C08091020169
:1048A00082708093000100C080910201817080932A
:1048B000000180910201809582708093000100C008
:1048C00000C08091020182708093000100C080913D
:1048D00002018170809300018091020180958270B5
:1048E0008093000100C000C080910201827080931B
:1048F000000100C0809102018170809300018091CD
:104900000201809582708093000100C000C08091F8
:10491000020182708093000100C0809102018170C9
:104920008093000180910201809582708093000144
:1049300000C000C08091020182708093000100C01D
:104940008091020181708093000180910201809525
:1049500082708093000100C000C000C00000E6E249
:10496000F0E03197F0F7915009F0C7CE88EF41DAC7
:1049700000C0000086E290E00197F0F7CF5FD05FC3
:10498000C03209F09BCE80E034DA80EC32DA00C02D
:10499000000086E290E00197F0F75998A3CDF80166
:1049A000858188839FCD80E09ECDB901C8010E949A
:1049B000F0FD98CDD80111968C91888393CD443128
:1049C00091F0473109F08ECD1882D80112968C9162
:1049D0001297898315968C91159781508A83139627
:1049E0008C918B837FCDD80115964C91159750E013
:1049F000440F551F70E060E016968D919C910F94C6
:104A0000F423F801128280818150838314826ACD5D
:104A1000481708F467CD861708F464CDFA80E12CB6
:104A2000D12C243070F49ECDBE01C8010E94F0FD4F
:104A3000898198819D0D98838E0D8983FF0C09F4DF
:104A400051CDF7FEF6CFF0CF58E0580F382F76CD86
:104A5000EF92FF920F931F93CF93DF93EC018B01A3
:104A60007A018A859B858617970731F0888199811D
:104A70000F9427001B870A87B701888199810E94BC
:104A800093F82E813F81820F932F911D9F838E83F8
:104A900090E080E0DF91CF911F910F91FF90EF9018
:104AA00008959F92AF92BF92CF92DF92EF92FF92C2
:104AB0000F931F93CF93DF93EC018B01942EA52EC0
:104AC0008A859B858617970731F0888199810F9495
:104AD00027001B870A8788859985019649F5BC8040
:104AE0000A818E81080FC880D980D6015596ED9134
:104AF000FC91C6011995B80EE92CFA2C10E0F701CB
:104B000021917F01211127C08E819F81810F911DED
:104B10009F838E8390E080E0DF91CF911F910F9172
:104B2000FF90EF90DF90CF90BF90AF909F9008954F
:104B30000E811F81692D7A2D888199810E9493F8B9
:104B4000800F912F911D288539852817390738F650
:104B500081E090E0E1CF4B2D602FC6010F947F00E4
:104B6000080F180FCCCFDF92EF92FF920F931F9395
:104B7000CF93DF93EC01D62E1CAD0BAD7C0184E00E
:104B8000E80EF11CE98DFA8DC7011995412F480FE8
:104B90002D2D602FC7010F947F009BAD890F8BAF28
:104BA00081E090E0DF91CF911F910F91FF90EF9006
:104BB000DF9008952F923F924F925F926F927F9273
:104BC0008F929F92AF92BF92CF92DF92EF92FF921D
:104BD0000F931F93CF93DF93162F072F242EFC01E3
:104BE00080809180A280B380C501B40120E13EE0C5
:104BF00040E050E00F945020E22ED32EC22FD32F4E
:104C00008CE3482E512C612C712CC501B401A301F9
:104C100092010F945020C62E372ECA01B901A3016C
:104C200092010F945020F62E772E222059F1C501C3
:104C3000B40120E831E541E050E00F9450206901D3
:104C40007F92FF92CE0168E170E00F94C6209F939F
:104C50008F933F932F938AEE93E19F938F930F93BC
:104C60001F930F94BF19EDB7FEB73A960FB6F8949D
:104C7000FEBF0FBEEDBF88E0FAE0CF16D104C8F04A
:104C800089E017C0209741F53F92CF927F936F93B1
:104C90008EED93E19F938F930F931F930F94BF1902
:104CA0008DB79EB708960FB6F8949EBF0FBE8DBF06
:104CB00085E0DF91CF911F910F91FF90EF90DF90F2
:104CC000CF90BF90AF909F908F907F906F905F90AC
:104CD0004F903F902F900895C436D105A8F47F934C
:104CE0006F93DF92EF9282ED93E19F938F930F93F7
:104CF0001F930F94BF19EDB7FEB738960FB6F8940F
:104D0000FEBF0FBEEDBFD4CF7F936F93DF92EF92C4
:104D100088EC93E19F938F930F931F930F94BF1988
:104D20008DB79EB708960FB6F8949EBF0FBE8DBF85
:104D300086E0BFCFCF938091DB04811154C01092E5
:104D4000D3131092D4131092D5131092A113109272
:104D5000A0131092A3131092A2131092A51381E036
:104D60008093A41382E28093A6131092AB13109247
:104D7000AA13EFEBF3E12DEC33E18FEF81932E17C4
:104D80003F07E1F7C1E0C093BC132EE03CED309348
:104D9000B2132093B113C093B3131092B4131092B3
:104DA000B51390E49093B6131092B7132DE03CED39
:104DB0003093CE132093CD1321E132E030939F1333
:104DC00020939E1390E19093C31391E19093C413A9
:104DD00094E19093C1138093C0138093BF130E94FA
:104DE0002EFEC093DB0481E08093DD0488EC93E128
:104DF00090937B1280937A1210927D1210927C1203
:104E0000CF9108958091A6049091A704009731F066
:104E10004AE050E070E060E00D94471860E070E018
:104E2000CB0108950F931F93CF938091A604909187
:104E3000A7040097E9F0FC018F01C1912C2F2F7D71
:104E400081F0C53411F0C536B9F7F801108270E071
:104E500060E00F94C415F801C083CF911F910F91AA
:104E6000089570E060E0CF911F910F910D94C415EB
:104E700060E070E0CB01F1CFCF92DF92EF92FF9232
:104E80006A017B012CD9882329F0FF90EF90DF90F5
:104E9000CF90C8CFC701B601FF90EF90DF90CF90C1
:104EA00008958F929F92AF92BF92CF92DF92EF922E
:104EB000FF920F931F93CF938FE8E82E85E0F82E93
:104EC00008E612E09CE6C92E92E1D92EC0E088E502
:104ED0008C0F05D9882309F474C0A4DF4B015C0151
:104EE0008C2F88D8882309F462C0F8012081318191
:104EF00042815381C501B4010F940821F7016083F9
:104F0000718382839383CF5FF4E0EF0EF11C0C5F1B
:104F10001F4F84E0C80ED11CC330C9F685E4DFD82A
:104F2000882309F459C07EDF6B017C0183E062D8DD
:104F3000882371F0209174023091750240917602BD
:104F400050917702C701B6010F9408216B017C01D3
:104F5000C0929B05D0929C05E0929D05F0929E0523
:104F600040E050E0BA0186E487DF20E030E0A901AC
:104F70000F942F2318167CF455DF20E030E040E733
:104F800052E40F94E4216093290270932A028093E3
:104F90002B0290932C02CF911F910F91FF90EF90D5
:104FA000DF90CF90BF90AF909F908F900895F601C3
:104FB0002081318142815381C501B4010F940721C1
:104FC0009DCFF80180819181A281B381F701808317
:104FD0009183A283B38397CF8091740290917502DD
:104FE000A0917602B091770280939B0590939C05E7
:104FF000A0939D05B0939E05B3CF8091A604909198
:10500000A704009731F04AE050E070E060E00D94B2
:105010001A1760E070E0CB010895EFDFCB0108952F
:10502000CF93DF93EB015BD8882319F0DF91CF9109
:10503000F4CFCE01DF91CF910895DFDF97FD0AC055
:10504000DCDF6F3F71058105910509F02CF4D5DF98
:10505000862F089580E008958FEF0895CF93C62F8F
:105060003ED8882311F0CF91E8CF8C2FCF910895AF
:105070008091A6049091A704892B39F0DEDF91E09E
:10508000811101C090E0892F089591E0FCCFCF936A
:10509000DF93C82FD62F23D8882319F0DF91CF9123
:1050A000E7CF8C2F0E942120811101C08D2FDF912D
:1050B000CF910895CF92DF92EF92FF920F931F93BB
:1050C000CF93DF936B017A01EC01CA56DB4F288145
:1050D0003CE0389F8001399F100D112427FF24C028
:1050E000FB011182108288818F5F888388819801FB
:1050F000280F311D87FD3A95C90120912B13F60128
:105100002817190629F024F088818C300CF43CC053
:1051100080819181049680349C4908F475C0F60121
:1051200080819181049672C088819801280F311D79
:1051300087FD3A95C90120912B132817190699F27A
:1051400094F28881A801480F511D87FD5A95FA01F4
:10515000EE0FFF1FE40FF51FED51FD4E808187FF1D
:10516000C2CF8881F801E80FF11D87FDFA95CF01C4
:10517000EE0FFF1FE80FF91FED51FD4E808160E03B
:105180008F770E94B6FBAFCF808191812881A801E3
:10519000420F511D27FD5A959A01FA01EE0FFF1F8C
:1051A000E20FF31FED51FD4E21813281820F931FDB
:1051B000F7019183808388819801280F311D87FD35
:1051C0003A95F901EE0FFF1FE20FF31FED51FD4E6F
:1051D000808187FF20C08881080F111D87FD1A95E7
:1051E000F801EE0FFF1FE00FF11FED51FD4E808122
:1051F00061E08F77DF91CF911F910F91FF90EF903A
:10520000DF90CF900C94B6FB80E49CE9F70191838A
:1052100080838FEF8883DF91CF911F910F91FF9053
:10522000EF90DF90CF900895CF93DF93CDB7DEB7A7
:1052300020E2488559856F818E810E9452F8DF9166
:10524000CF9108950F931F93522F20919613309171
:1052500097132817390771F120916D0530916E056C
:1052600037FF04C010926E0510926D05909397134E
:10527000809396138B0130E020E000935807109341
:10528000590720935A0730935B0740935107509377
:105290005207865E924421F41092760510926F05B3
:1052A00082E080935F0281E0809368071092750529
:1052B000109272051F910F91089520E040E070E078
:1052C00060E086EE92E4BECFCF930E9492BD0E9432
:1052D0000EA4C82F882319F080E00E9471A38C2FA0
:1052E00026D8CF91EACF83EA96E19093270780935F
:1052F0002607E3CF8091401390914113891B8F7053
:1053000089F480918207813069F09091EF1492FBCB
:10531000882780F992FF07C097FB882780F991E0E2
:105320008927089581E00895CF93DF93C0916F0599
:10533000CC23B1F0C150C0936F0589E0C89FE00154
:105340001124C95CDA4F6A817B812F814E8188816B
:10535000998178DF888580937605DF91CF910895D4
:10536000DF91CF91AACFE0916F05E63028F581E07B
:105370008E0F80936F0540915807509159076091A7
:105380005A0770915B0720915107909152078091C5
:10539000760539E0E39FF0011124E95CFA4FA09112
:1053A0009613B0919713B183A08342835383648390
:1053B0007583268397838087089580934D0720E027
:1053C00040E070E060E084E29EE23CCFCF93DF9368
:1053D000CDB7DEB78E8190916410891768F0809305
:1053E00064109E01275F3F4F4F8158856AE270E04D
:1053F00089E390E10F94EE19DF91CF9108950F9317
:105400001F93CF93DF938C016F3F19F410926410B8
:1054100060E020916410862F062E000C990B28174F
:10542000190609F0F4F460936410C8010F9475191B
:10543000800F911FEC01C01BD10BCB32D1053CF08A
:105440000197FC012491207C2038D1F3F3CFDD2794
:10545000AE01B80189E390E10F949619C75CDF4E65
:105460001882DF91CF911F910F910895CF93809172
:105470002F05811109C082EF94E19093710580930B
:10548000700581E080932F056EDF20E040E070E042
:1054900060E082EA91E2D6DEC1E0C09376050E9428
:1054A00066A71092760540DFC093760560E087ED31
:1054B00095E3A5DF8EEE94E190932707809326076E
:1054C000CF9108950F931F930E94DCFC00912A0551
:1054D00010912B0520912C0530912D05601B710B2F
:1054E000820B930B97FD0CC0809109018095881F5A
:1054F0008827881F919B82604A9B8460809329053E
:105500008091290581709091290591FD826090918B
:105510002805981749F0813009F148F0823079F078
:10552000833091F0809328051F910F910895913059
:1055300079F09230B9F7909127059F5F0CC09923BD
:1055400039F09330C1F3EECF9130A9F3923051F797
:1055500090912705915090932705E4CF992359F313
:10556000933001F7F5CFCF92DF92EF92FF92CF9376
:10557000C82F0E94DCFC6B017C0124EA30E74DE778
:105580005FE3609123027091240280912502909143
:1055900026020F94261A87FD18C08AEF90E0A0E03B
:1055A000B0E08C0D9D1DAE1DBF1D8093170590931F
:1055B0001805A0931905B0931A05C0931902CF914D
:1055C000FF90EF90DF90CF90089580E090E0DC01B5
:1055D000E8CFB0DBEAE0F1E080818F7780838091D3
:1055E0000B0180958078809309019998A19A52982F
:1055F0005A9A68DF109227050895FC0180E03097E1
:1056000049F09491992331F0907C903809F08F5FA4
:105610003196F7CF0895AF92BF92CF92DF92EF927B
:10562000FF920F931F93CF93DF93EC015B018A01ED
:10563000FB01199587FD16C0C82ED12CF12CE12C49
:105640002196F801C082D182E282F382CE01DF91FD
:10565000CF911F910F91FF90EF90DF90CF90BF906F
:10566000AF900895982F907E903CA9F48F7190E0B0
:10567000B0E0A0E06C017D0156E0CC0CDD1CEE1C1E
:10568000FF1C5A95D1F7CE010196F50119958F733C
:10569000C82A2296D6CF982F907F903E11F58F7012
:1056A00090E0B0E0A0E06C017D0136E0CC0CDD1CA8
:1056B000EE1CFF1C3A95D1F7CE010196F501199524
:1056C0008F73C82A46E0CC0CDD1CEE1CFF1C4A95EB
:1056D000D1F7CE010296F50119958F73C82A23964A
:1056E000B0CF982F987F903F79F5877090E0B0E029
:1056F000A0E06C017D0186E0CC0CDD1CEE1CFF1CE3
:105700008A95D1F7CE010196F50119958F73C82AB4
:1057100096E0CC0CDD1CEE1CFF1C9A95D1F7CE0157
:105720000296F50119958F73C82A26E0CC0CDD1C72
:10573000EE1CFF1C2A95D1F7CE010396F5011995B1
:105740008F73C82A24967DCF982F907C903841F48F
:10575000807C803869F42196CE01F5011995F8CF47
:105760008E7F8D3F28F02196CE01F5011995F8CF57
:10577000C12CD12C760165CF9CE0899F802D11240E
:1057800091E0980F9093DC042CE0280F20936E0793
:1057900030E02E5F3F4F4091D0134217130619F0AF
:1057A00014F080E008952091D2139217D0F7662369
:1057B00041F08E5F0E9450FF80916E078E5F0E94C5
:1057C00050FF80916E079091D013891750F320916C
:1057D000D2139091DC04291720F31092D3138093F5
:1057E000D41381E008952091DA04022E000C330BCB
:1057F0008217130641F08093DA0468E277E18CE9BE
:1058000093E10D9427000895CF92DF92EF92FF92DB
:105810000F931F93CF93DF93CDB7DEB72C970FB6BF
:10582000F894DEBF0FBECDBF6F3F710581059105B6
:1058300009F0C8F488E993E196D9E091A013F091BA
:10584000A1133196849190E02C960FB6F894DEBFA8
:105850000FBECDBFDF91CF911F910F91FF90EF90C1
:10586000DF90CF900895F090D313E090D41320915F
:10587000DD0421110FC048EA53E16E2D8F2D0F94E6
:10588000EA0090E080E0F80EF092D313E092D41397
:105890009927DACFC090A013D090A1132CE933E15F
:1058A0003A8329832F2D30E03C832B832E2D30E04B
:1058B0003E832D8318861F822FEF3FEF3A8729877B
:1058C0001C861B8601E515E29E012F5F3F4FAB0151
:1058D000BC01C6010E94A3ECB6018CE993E10F94D0
:1058E00027008F819885CFCF4F925F926F927F92E2
:1058F0008F929F92BF92CF92DF92EF92FF920F937F
:105900001F93CF93DF9300D000D01F921F92CDB78B
:10591000DEB77C016A014901FB0190818CE0989F10
:10592000800D1124982FF7012081822F880F820F7C
:10593000880F8093D3139093D4134115510561F1CF
:10594000FA82E9827C836B8301111FC0AE014B5F39
:105950005F4FB401C6015FDE6C016D817E818F8176
:1059600098856115710581059105B1F04DDFF7014D
:1059700080818F5F8083853148F3CE0101960E943C
:10598000D51EE4CFB12C860129C08A01B12C26C0D6
:10599000452846284728B1F728960FB6F894DEBF69
:1059A0000FBECDBFDF91CF911F910F91FF90EF9070
:1059B000DF90CF90BF909F908F907F906F905F907F
:1059C0004F900895B39407C0B1102DC00115110573
:1059D000C9F20F5F1F4F01151105A9F2AE014B5F10
:1059E0005F4FB401C60117DE6C014D805E806F8091
:1059F00078844114510461047104A9F0F0E24F1657
:105A000051046104710401F3D301C2018D97A1090E
:105A1000B1090297A105B10530F04BE244165104DB
:105A20006104710479F6F7018081482F4B0D5527E9
:105A3000551F4631510534F0853020F0CE010196D6
:105A40000E94D51E81E0411451046104710409F4DF
:105A500080E0B80EF70180818B0D8083BB2009F4B4
:105A600097CFBA94AE014B5F5F4FB401C801D3DD4D
:105A70008C016D817E818F819885C6DEEFCF2F925C
:105A80003F924F925F926F927F928F929F92AF92CE
:105A9000BF92CF92DF92EF92FF920F931F93CF931B
:105AA000DF9300D0CDB7DEB74C013B015A01222E67
:105AB0003B83280181E080937605409158075091FF
:105AC000590760915A0770915B07411551056105AF
:105AD000710571F0141615060CF080E080937205C4
