:100000000C94D51B0C94061C0C94061C0C94061C1A
:100010000C94061C0C94061C0C94061C0C94061CD8
:100020000C94061C0C94061C0C94061C0C94061CC8
:100030000C94061C0C94EEFA0C94061C0C94061CF2
:100040000C94061C0C94C4A10C94061C0C94061C65
:100050000C94061C0C94061C0C94FE9B0C94A4FAA5
:100060000C94061C0C949D5A0C94935A0C94061CE8
:100070000C94061C0C94061C0C94061C0C94061C78
:100080000C946D4B0C94061C0C94061C0C94061CD2
:100090000C94061C0C94061C0C94061C0C94061C58
:1000A0000C94061C0C94061C0C943F4B0C94061CE0
:1000B0000C94061C0C94061C0C94061C0C94061C38
:1000C0000C94061C0C94061C0C94061C0C94061C28
:1000D0000C94061C0C94061C0C94061C0C94061C18
:1000E0000C94061C084AD73B3BCE016E84BCBFFD76
:1000F000C12F3D6C74319ABD56833DDA3D00C77FF8
:1001000011BED9E4BB4C3E916BAAAABE0000008090
:100110003F05A84CCDB2D44EB93836A9020C50B91F
:10012000918688083CA6AAAA2ABE000000803F004B
:100130000D94240D0D94D5144E414E494E495459F9
:10014000494E46CDCCCC3D0AD7233C17B7D13877A2
:10015000CC2B329595E6241FB14F0A0000204100B8
:1001600000C84200401C4620BCBE4CCA1B0E5AAE02
:10017000C59D7400407A10F35A00A0724E18090011
:1001800010A5D4E80000E87648170000E40B5402FC
:100190000000CA9A3B000000E1F505000080969837
:1001A00000000040420F000000A086010000001087
:1001B0002700000000E803000000006400000000C9
:1001C000000A00000000000100000000002C76D8AA
:1001D00088DC674F0823DFC1DFAE59E1B1B796E590
:1001E000E3E453C63AE651997696E8E6C28426EBF4
:1001F000898C9B62ED407C6FFCEFBC9C9F40F2BA07
:10020000A56FA5F490055A2AF75C936B6CF9676D9E
:10021000C11BFCE0E40D47FEF520E6B500D0ED90F3
:100220002E0300943577050080841E080000204EC0
:100230000A000000C80C333333330F986E12831159
:1002400041EF8D2114893BE65516CFFEE6DB18D130
:10025000844B381BF77C1D901DA4BBE42420328402
:10026000725E228100C9F124ECA1E53D27434F4D88
:100270004D554E49434154494F4E004452595255F1
:100280004E004552524F525300494E464F0045438F
:10029000484F0053544F505045442E20005072692F
:1002A0006E7465722073746F707065642064756518
:1002B00020746F206572726F72732E2046697820E9
:1002C000746865206572726F7220616E6420757348
:1002D00065204D39393920746F20726573746172ED
:1002E000742E202854656D70657261747572652076
:1002F00069732072657365742E2053657420697468
:100300002061667465722072657374617274696EBF
:1003100067290A004E6F20436865636B73756D2013
:1003200077697468206C696E65206E756D626572A0
:100330002C204C617374204C696E653A20004E6F1E
:1003400020436865636B73756D2077697468206CF2
:10035000696E65206E756D6265722C204C617374D8
:10036000204C696E653A2000636865636B73756D38
:10037000206D69736D617463682C204C6173742007
:100380004C696E653A20004C696E65204E756D6251
:100390006572206973206E6F74204C617374204CF9
:1003A000696E65204E756D6265722B312C204C6133
:1003B0007374204C696E653A20004D313130005322
:1003C000657269616C20737461747573206D6973F3
:1003D0006D617463680A005344207265616420652E
:1003E00072726F720A002121204B494C4C206361CC
:1003F0007573656420627920746F6F206D75636812
:1004000020696E6163746976652074696D65202D5D
:100410002063757272656E7420636F6D6D616E64BA
:100420003A2000627573793A2070617573656420B3
:10043000666F7220696E7075740A00627573793A1E
:100440002070617573656420666F722075736572C4
:100450000A00627573793A2070726F63657373690D
:100460006E670A004D656469612052656D6F76653F
:1004700064004D6564696120496E736572746564DA
:1004800000506C656173652052657365740050524D
:10049000494E5445522048414C5445440025533A56
:1004A000202553004B494C4C45442E200050726986
:1004B0006E7465722068616C7465642E206B696C63
:1004C0006C28292063616C6C6564210A0053544FC9
:1004D000505045442E20005072696E74657220732E
:1004E000746F707065642064756520746F20657228
:1004F000726F72732E204669782074686520657269
:10050000726F7220616E6420757365204D393939C0
:1005100020746F20726573746172742E2028546584
:100520006D70657261747572652069732072657390
:1005300065742E2053657420697420616674657239
:100540002072657374617274696E67290A0065634D
:10055000686F3A004572726F723A004F4646004F1C
:100560004E0021212053544F502063616C6C656410
:100570002062656361757365206F6620424C546F1D
:10058000756368206572726F72202D2072657374B6
:100590006172742077697468204D3939390A0021F5
:1005A000212053544F502063616C6C656420626558
:1005B0006361757365206F6620424C546F75636884
:1005C000206572726F72202D20726573746172746F
:1005D0002077697468204D3939390A000A0A426562
:1005E00064204C6576656C20436F72726563746934
:1005F0006F6E204D61747269783A000A436F7272AF
:100600006563746564204265642048656967687441
:100610002076732E2042656420546F706F6C6F6774
:10062000793A0A000A42656420486569676874205F
:10063000546F706F6772617068793A0A2020202BBE
:100640002D2D2D204241434B202D2D2B0A202020E3
:100650007C20202020202020202020207C0A204CCC
:10066000207C20202020282B29202020207C205284
:100670000A2045207C20202020202020202020200F
:100680007C20490A2046207C20282D29204E202825
:100690002B29207C20470A2054207C202020202049
:1006A0002020202020207C20480A2020207C202080
:1006B0002020282D29202020207C20540A202020A2
:1006C0007C20202020202020202020207C0A202088
:1006D000204F2D2D2046524F4E54202D2D2B0A20D9
:1006E00028302C30290A000A4D65616E206F662083
:1006F00073616D706C656420706F696E74733A20FD
:100700000020643A200020623A200045716E206388
:100710006F656666696369656E74733A20613A2035
:100720000050726F62696E6720506F696E740025A9
:10073000532025692F2569002E0A002F0050726F63
:1007400062696E67206D65736820706F696E7420D2
:1007500000202844525952554E2900473239204131
:1007600075746F20426564204C6576656C696E67B0
:10077000003F20284C2C522C462C4229206F7574A7
:10078000206F6620626F756E64732E0A003F507290
:100790006F626520706F696E747320285929206913
:1007A0006D706C61757369626C652028322D332918
:1007B0002E0A003F50726F626520706F696E74730D
:1007C0002028582920696D706C61757369626C65A9
:1007D0002028322D33292E0A003F285629657262BF
:1007E0006F7365206C6576656C20696D706C6175E2
:1007F0007369626C652028302D34292E0A00446507
:1008000076696174696F6E0025533A20257300463E
:10081000696E6973686564210A003A207A3A20009B
:10082000206F662000476F696E6720746F3A20580A
:100830000043570A00206469723A0020616E676CB9
:10084000653A005374617274207261646975733A19
:10085000004D343820506F696E740025533A2025BE
:10086000642F256400506F736974696F6E696E67D9
:10087000207468652070726F62652E2E2E0A003F0C
:100880004C656773206F66206D6F76656D656E745D
:1008900020696D706C61757369626C652028302DFC
:1008A0003135292E0A003F2028582C5929206F75F0
:1008B00074206F6620626F756E64732E0A0050722A
:1008C0006F6265206F7574206F6620626F756E644D
:1008D00073003F53616D706C652073697A65206E9B
:1008E0006F7420706C61757369626C652028342D9B
:1008F0003530292E0A004D3438205A2D50726F623F
:1009000065205265706561746162696C69747920F3
:10091000546573740A003F2856296572626F7365C7
:10092000206C6576656C20696D706C6175736962A9
:100930006C652028302D34292E0A005374616E64B2
:1009400061726420446576696174696F6E3A200053
:100950002052616E67653A2000204D61783A200090
:10096000204D696E3A2000205369676D613A20007E
:100970004D65616E3A2000203B2058590A00202026
:100980004D383531204900536B65772046616374DB
:100990006F720020440020204D3230302053002060
:1009A0002844697361626C6564293A0046696C6128
:1009B0006D656E742073657474696E6773002020B2
:1009C0004D3230312058004D617820416363656CB1
:1009D00065726174696F6E2028756E6974732F7308
:1009E00032290020204D3230332058004D617820CC
:1009F0006665656472617465732028756E697473C9
:100A00002F73290020520020204D32303420500016
:100A1000416363656C65726174696F6E2028756EE1
:100A20006974732F7332292028503C7072696E7478
:100A30002D616363656C3E20523C72657472616324
:100A4000742D616363656C3E20543C7472617665FD
:100A50006C2D616363656C3E2900204A00205400C0
:100A600020530020204D3230352042004164766111
:100A70006E6365642028423C6D696E5F7365676DC7
:100A8000656E745F74696D655F75733E20533C6D70
:100A9000696E5F66656564726174653E20543C6D85
:100AA000696E5F74726176656C5F666565647261BC
:100AB00074653E204A3C6A756E635F6465763E29C4
:100AC0000020440020490020204D333031205000C8
:100AD000486F74656E6420504944002058002020FF
:100AE0004D61783A2000200020204D696E3A2000A8
:100AF000203B200020204D3231312053003B20008C
:100B000020496E76616C69642065787472756465DD
:100B100072200020746F6F206C6F6E672065787490
:100B2000727573696F6E2070726576656E74656438
:100B30000A0020636F6C6420657874727573696F46
:100B40006E2070726576656E7465640A0047322F98
:100B500047332062616420706172616D65746572F3
:100B6000730A00536C6565702E2E2E005A20507249
:100B70006F62652050617374204265640A005A20D8
:100B800050726F6265205061737420426564004743
:100B900032384C3000205A3A200020593A20004286
:100BA000656420583A2000436C69636B20746F20A1
:100BB000526573756D652E2E2E004E6F204D6F762B
:100BC000652E00456E642066696C65206C697374DF
:100BD0000A00426567696E2066696C65206C6973FE
:100BE000740A004E6F206D656469610A00286E6F9B
:100BF0002066696C65290043757272656E742066A3
:100C0000696C653A20005344207072696E74696E95
:100C100067206279746520004E6F74205344207001
:100C200072696E74696E670A002E0A0044656C650D
:100C300074696F6E206661696C65642C2046696C0E
:100C4000653A200046696C652064656C657465646E
:100C50003A002569730025696D20256973002569AF
:100C6000682025696D202569730025696420256940
:100C7000682025696D20256973002569792025691B
:100C800064202569682025696D20256973005072EC
:100C9000696E742074696D653A20006F6B006F6631
:100CA00066008E02890282027B026D024445425533
:100CB000473A004D3131322053687574646F776E56
:100CC000004D3131332053004765656574656368B5
:100CD0002069332050726F2042204F46462E002F4D
:100CE0002F004D31343520533C696E6465783E20C9
:100CF0006F7574206F662072616E67652028302DD5
:100D000031290A003F4A206F7574206F6620726196
:100D10006E67652028302E303120746F20302E33DE
:100D2000290A0046523A0020466C6F773A20003A72
:100D3000200020536572766F2000206F7574206F3D
:100D4000662072616E67650A00536572766F2000D7
:100D500064697300656E0043290A0061626C656412
:100D600020286D696E2074656D702000436F6C647F
:100D70002065787472756465732061726520004225
:100D80006564204C6576656C696E67200046616914
:100D90006C656420746F20656E61626C65204265CD
:100DA00064204C6576656C696E670A004265642054
:100DB0004C6576656C20436F7272656374696F6E03
:100DC000204D61747269783A004F6666736574737A
:100DD000204170706C696564004572723A20546FEE
:100DE0006F206661722100546F6F20666172206609
:100DF000726F6D207265666572656E636520706FD7
:100E0000696E740A00454550524F4D204F4B0A0001
:100E1000290A0020746F20003F5A206F7574206FDC
:100E2000662072616E6765202800290A0020746FB1
:100E300020003F59206F7574206F662072616E67C5
:100E40006520282D00290A0020746F20003F5820BB
:100E50006F7574206F662072616E676520282D00A3
:100E60006D696E5F736B65775F666163746F723A0D
:100E700020202D31206D61785F736B65775F66612F
:100E800063746F723A2020310A004D383400446F89
:100E90006E65207072696E74696E672066696C6534
:100EA0000A004D3737004D333100496E76616C6969
:100EB000642065787472756465720A0020204D3272
:100EC0003036205800486F6D65206F666673657414
:100ED000004361703A004D4541545041434B00433B
:100EE0004F4F4C45525F54454D5045524154555219
:100EF00045004348414D4245525F54454D5045528F
:100F0000415455524500424142595354455050496D
:100F10004E470041524353004D4F54494F4E5F4D91
:100F20004F44455300544845524D414C5F50524F39
:100F300054454354494F4E004C4F4E475F46494C31
:100F4000454E414D45004155544F5245504F525426
:100F50005F53445F5354415455530053445F5752B9
:100F60004954450052455045415400534443415271
:100F7000440050524F4D50545F535550504F5254AF
:100F800000484F53545F414354494F4E5F434F4DC8
:100F90004D414E445300454D455247454E43595FE0
:100FA00050415253455200434153455F4C494748D5
:100FB000545F4252494748544E45535300544F479B
:100FC000474C455F4C494748545300534F4654578C
:100FD0004152455F504F574552004255494C445F7E
:100FE00050455243454E54004C4556454C494E479A
:100FF0005F44415441005A5F50524F4245005255A0
:101000004E4F5554004155544F4C4556454C005099
:1010100052494E545F4A4F420050524F4752455337
:1010200053004155544F5245504F52545F54454D13
:1010300050004155544F5245504F52545F504F53FA
:1010400000564F4C554D455452494300454550526A
:101050004F4D0042494E4152595F46494C455F54FD
:1010600052414E534645520053455249414C5F58F8
:101070004F4E5F584F4646004649524D57415245E4
:101080005F4E414D453A4D61726C696E20322E3093
:101090002E392E3220284E6F7620323020323032D8
:1010A000312032313A35383A34352920534F5552B0
:1010B00043455F434F44455F55524C3A67697468F6
:1010C00075622E636F6D2F4D61726C696E46697229
:1010D0006D776172652F4D61726C696E2050524F51
:1010E000544F434F4C5F56455253494F4E3A312E61
:1010F00030204D414348494E455F545950453A4789
:10110000656565746563682069332050726F20429D
:101110002045585452554445525F434F554E543A1A
:101120003120555549443A63656465326132662D14
:10113000343161322D343734382D396231322D63F8
:1011400035356336326633363766660A00203B0033
:1011500020204D3835312058005A2D50726F62656D
:10116000204F66667365740020573A00436F6F6CBA
:10117000696E672E2E2E0048656174696E672E2E8B
:101180002E0045312025530020573A004265642047
:10119000436F6F6C696E672E2E2E00426564204887
:1011A000656174696E672E2E2E0023646566696E14
:1011B000652044454641554C545F004B6420004B2C
:1011C0006920004B702000504944204175746F74B1
:1011D000756E652066696E69736865642120507557
:1011E0007420746865206C617374204B702C204BE4
:1011F0006920616E64204B6420636F6E7374616E4E
:1012000074732066726F6D2062656C6F7720696EF3
:10121000746F20436F6E66696775726174696F6E73
:101220002E680A00504944204175746F74756E65CC
:10123000206661696C6564212074696D656F7574E1
:101240000A00504944204175746F74756E652066BC
:1012500061696C6564212054656D70657261747597
:10126000726520746F6F20686967680A005049448E
:10127000204379636C65730025532025692F256908
:1012800000204B643A2000204B693A2000204B702C
:101290003A200020436C61737369632050494420F5
:1012A0000A002054753A2000204B753A2000206D2A
:1012B00061783A2000206D696E3A200020643A205F
:1012C0000020626961733A20002553005049442090
:1012D0004175746F74756E652073746172740A0061
:1012E000504944204175746F74756E65206661695C
:1012F0006C6564212054656D7065726174757265EA
:1013000020746F6F20686967680A00504944204163
:1013100075746F74756E65206661696C65642120F3
:10132000426164206865617465722069640A0050D6
:101330004944204175746F74756E65004572723A48
:10134000207574663820666F6E74206E6F74206925
:101350006E697469616C697A65642E004572723ACF
:10136000207574663820666F6E74206E6F74206905
:101370006E697469616C697A65642E004572723AAF
:10138000207574663820666F6E74206E6F742069E5
:101390006E697469616C697A65642E002568753AB6
:1013A00025303268750025303268753A253032684C
:1013B0007500256875642025303268753A2530320D
:1013C00068750042656400456E636C6F7375726585
:1013D00000202020202020200020202020001FE0AE
:1013E000201020102010102010202010201030304D
:1013F0000840048003001FE03FF03FF03FF01FE093
:101400001FE03FF03FF03FF00FC0078003003FFFB9
:10141000F038007030FC3020FC10207810203010A4
:101420002C00D02E31D02F7BD02F7BD02E31D02C42
:1014300000D020301020781020FC1030FC30380014
:10144000703FFFF03FFFF038007031863023871087
:101450002787902F87D02F03D0203010207810209E
:1014600078102030102F03D02F87D0278790238724
:10147000103186303800703FFFF01FFFF81FFFF873
:1014800004104002082002082004104008208010A8
:1014900041001041000820800410400000001FFFA0
:1014A000F81FFFF85072696E742041626F727465A4
:1014B00064004D32350050617573696E672E2E2EB3
:1014C000004D323400454550524F4D2056657273E1
:1014D000696F6E204572726F7200454550524F4DD4
:1014E00020496E646578204572726F7200454550E0
:1014F000524F4D20435243204572726F72003F009D
:1015000049676E6F726500526573657400496E6954
:101510007469616C697A6520454550524F4D0046AB
:10152000696C2E204469612E004520696E206D6D26
:101530005E330020082046616374002008204D615E
:1015400078002008204D696E004F6666004F6E00DF
:101550004175746F74656D70004D696E20547261D1
:1015600076656C2056656C004D696E2056656C6F13
:1015700063697479004D617820452056656C004D93
:101580006178205A2056656C004D617820592056AC
:10159000656C004D617820582056656C004D61786F
:1015A000204520416363656C004D6178205A2041DD
:1015B0006363656C004D6178205920416363656CFD
:1015C000004D6178205820416363656C005472615E
:1015D00076656C20416363656C005265747261636B
:1015E0007420416363656C00416363656C005072F5
:1015F0006F6265205A204F66667365740050726F83
:1016000062652059204F66667365740050726F6280
:10161000652058204F6666736574004520737465B5
:1016200070732F6D6D005A2053746570732F6D6D3C
:1016300000592053746570732F6D6D0058205374DA
:101640006570732F6D6D00416476616E6365642013
:1016500053657474696E6773003F0043616E636520
:101660006C00496E6974004D34323800496E6974FB
:1016700069616C697A6520454550524F4D00466955
:101680006C616D656E740054656D70657261747522
:1016900072650053746570732F6D6D0050726F62C8
:1016A00065204F666673657473004A756E6374696E
:1016B0006F6E2044657600416363656C657261748A
:1016C000696F6E0056656C6F636974790053657459
:1016D00020486F6D65204F66667365747300436FB5
:1016E0006E66696775726174696F6E00000C0F0039
:1016F000FE07022503BB017FFE08FE08FE05080861
:1017000006000040F0C88888987810050808060090
:1017100000C0F88888888888F8050505060001203B
:1017200030F830200508080600002070F82020203E
:1017300020E00509090600FF2070A8A8B888887075
:1017400020070505070001D86C366CD80509090685
:1017500000FFF8A88888888888A8F8050A0A060083
:10176000FE205050505088A8A8887003030306003C
:101770000340A040FFFFFFFFFFFFFFFFFFFFFFFF52
:10178000FFFFFFFFFFFFFFFFFFFF0000000605FF59
:101790000107070602008080808080008003030329
:1017A000060105A0A0A005060606000050F850504E
:1017B000F8500509090600FF2070A8A07028A8703D
:1017C00020050707060000C8C810204098980507A4
:1017D0000706000040A0A040A8906801030306028D
:1017E000058080800309090601FF20404080808039
:1017F0004040200309090601FF804040202020408E
:10180000408005070706000020A8702070A820056A
:1018100005050600012020F820200203030601FF31
:10182000C04080050101060003F802020206010023
:10183000C0C00507070600000810102040408005C2
:101840000707060000708898A8C888700307070675
:10185000010040C040404040E0050707060000701E
:101860008808102040F8050707060000F808103027
:1018700008887005070706000010305090F8101017
:10188000050707060000F880F008088870050707BC
:10189000060000304080F0888870050707060000C9
:1018A000F80810102020200507070600007088881F
:1018B000708888700507070600007088887808100F
:1018C00060020505060100C0C000C0C00206060691
:1018D00001FFC0C000C04080030505060101204093
:1018E000804020050303060002F800F80305050602
:1018F0000101804020408005070706000070881025
:10190000202000200507070600007088B8A8B880CE
:1019100070050707060000708888F8888888050722
:1019200007060000F04848704848F0050707060021
:101930000070888080808870050707060000F048E6
:1019400048484848F0050707060000F88080F08006
:1019500080F8050707060000F88080F08080800589
:1019600007070600007088808098887005070706C2
:101970000000888888F8888888030707060100E047
:101980004040404040E005070706000038101010B6
:101990001090600507070600008890A0C0A09088FE
:1019A000050707060000808080808080F805070713
:1019B00006000088D8A888888888050707060000E0
:1019C0008888C8A898888805070706000070888856
:1019D00088888870050707060000F08888F08080F6
:1019E0008005070706000070888888A890680507AA
:1019F00007060000F08888F0A09088050707060019
:101A00000070888070088870050707060000F820BD
:101A10002020202020050707060000888888888865
:101A200088700507070600008888888850502005C0
:101A3000070706000088888888A8A85005070706B9
:101A40000000888850205088880507070600008815
:101A5000885020202020050707060000F8081020E5
:101A60004080F80309090601FFE0808080808080C3
:101A700080E00507070600008040402010100803A2
:101A800009090601FFE020202020202020E0050396
:101A9000030600052050880501010600FEF8030337
:101AA0000306010580402005050506000070087842
:101AB00088780507070600008080F0888888F00590
:101AC0000505060000708080887005070706000085
:101AD000080878888888780505050600007088F071
:101AE0008070050707060000304840E04040400590
:101AF00007070600FE7088888878087005070706C3
:101B000000008080F088888888030707060100406D
:101B100000C0404040E00409090601FE10003010FA
:101B2000101010906005070706000080808890E084
:101B30009088030707060100C04040404040E00590
:101B40000505060000D0A8A8A8A805050506000000
:101B5000B0C88888880505050600007088888870E8
:101B60000507070600FEF0888888F08080050707D3
:101B70000600FE78888888780808050505060000B4
:101B8000B0C880808005050506000078807008F0E8
:101B90000507070600002020F8202020180505056D
:101BA0000600008888889868050505060000888872
:101BB0008850200505050600008888A8A85005055E
:101BC0000506000088502050880507070600FE889B
:101BD000888850204080050505060000F810204048
:101BE000F80309090601FF204040408040404020A2
:101BF0000109090602FF8080808080808080800348
:101C000009090601FF804040402040404080050314
:101C10000306000248A890FF414253005045544734
:101C200000504C41003F004E65787420506F696E43
:101C30007400446F6E65004E65787400486F6D697E
:101C40006E672058595A0053746F7265205365743B
:101C500074696E6773004C6F6164205365747469B6
:101C60006E677300426564205472616D6D696E67C2
:101C70000050726F6265205A204F6666736574006B
:101C80004F6666004F6E00426564204C6576656C59
:101C9000696E67004C6576656C204265640047326A
:101CA000394E00473239004175746F20486F6D65B9
:101CB000004D6F74696F6E0053746F7700446570E8
:101CC0006C6F790053572D4D6F64650053656C66DA
:101CD0002D54657374005265736574004265640029
:101CE0004E6F7A7A6C650046616E2053706565644C
:101CF00000436F6E66696775726174696F6E00523A
:101D00006573746F72652044656661756C747300E9
:101D10004C6F61642053657474696E67730053740B
:101D20006F72652053657474696E6773004F6666E1
:101D3000004F6E00536F756E640050726568656188
:101D400074202420436F6E6600424C546F756368A4
:101D50000050726F6265205A204F6666736574008A
:101D6000416476616E6365642053657474696E675F
:101D700073004D61696E003F004261636B005374F4
:101D80006F70004E6F204D65646961005072696E1E
:101D9000742066726F6D204D6564696100436861EF
:101DA0006E6765204D65646961004D323100546590
:101DB0006D7065726174757265004D6F74696F6ED8
:101DC00000526573756D65205072696E7400436FC3
:101DD0006E66696775726174696F6E0054756E65C1
:101DE0000053746F70205072696E74005061757387
:101DF00065205072696E7400496E666F205363727D
:101E000065656E003F005374617274205072696E94
:101E1000740043616E63656C005072696E740043B8
:101E2000616E6E6F7420656E746572207375626486
:101E300069723A200002202E2E004D61696E002149
:101E400000486F74656E6420746F6F20636F6C64FC
:101E5000004261636B0050726F63656564004D6F93
:101E600074696F6E0044697361626C6520537465B8
:101E70007070657273004D3834004D3438205072E4
:101E80006F62652054657374004732384F0A4D34D1
:101E9000382050313000426564204C6576656C69AD
:101EA0006E6700486F6D65205A004732385A004807
:101EB0006F6D652059004732385900486F6D6520B5
:101EC000580047323858004175746F20486F6D656F
:101ED00000473238004D61696E0050726568656177
:101EE00074202420456E640050726568656174201A
:101EF00024204265640054656D706572617475726A
:101F00006500211C1C1C181C436F6F6C646F776E7E
:101F1000005072656865617420240046616E20532C
:101F20007065656400426564004E6F7A7A6C650086
:101F30004D61696E00466C6F770046616E2053708C
:101F400065656400426564004E6F7A7A6C65005383
:101F500070656564004D61696E006F70656E005458
:101F60005249474745524544003A20007A5F6D691F
:101F70006E00795F6D696E00785F6D696E00526505
:101F8000706F7274696E6720656E6473746F702011
:101F90007374617475730A00486F6D65202573252D
:101FA000732573204669727374000000204100009D
:101FB00020C1000000005761726E696E673A2048C8
:101FC0006F6D696E672042756D7020446976697324
:101FD0006F72203C20310A0002020400003A4300E4
:101FE000003B43000039430000A0400000A0400037
:101FF00000004000000001000000010000800055CA
:102000005555000000400033333300AAAA2A004986
:1020100092240000002000C7711C0099991900D17A
:10202000451700555515003BB11300244912001106
:10203000111100000010000F0F0F00E3380E0043D5
:10204000790D00CCCC0C00C3300C00E8A20B00646E
:10205000210B00AAAA0A00703D0A009DD80900427F
:102060007B090092240900DCD3080088880800104E
:1020700042080000000800F0C107008787070075CC
:10208000500700711C07003EEB0600A1BC0600696A
:1020900090060066660600703E060061180600178E
:1020A000F4050074D105005BB00500B29005006234
:1020B0007205005555050078390500B81E05000564
:1020C0000505004EEC040087D40400A1BD04009077
:1020D000A7040049920400C17D0400EE690400C712
:1020E000560400444404005C32040008210400410A
:1020F000100400000004003FF00300F8E003002695
:10210000D20300C3C30300CCB503003AA803000AFE
:102110009B0300388E0300C08103009F750300D02D
:10212000690300505E03001D53030034480300910F
:102130003D03003333030016290300381F030097C3
:10214000150300300C0300030303000BFA020049DF
:10215000F10200BAE802005CE002002DD802002D76
:10216000D0020059C80200B0C0020031B90200DA42
:10217000B10200AAAA0200A0A30200BC9C0200FABD
:102180009502005C8F0200DF880200828202004517
:102190007C02002776020027700200436A02007C5E
:1021A000640200D05E02003F590200C8530200FFE3
:1021B000FDFCFAF8F6F4F2F0EEECEAE9E7E5E3E12B
:1021C000E0DEDCDAD9D7D5D4D2D0CFCDCBCAC8C7E0
:1021D000C5C3C2C0BFBDBCBAB9B7B6B4B3B2B0AF65
:1021E000ADACAAA9A8A6A5A4A2A1A09E9D9C9A99BF
:1021F000989795949392908F8E8D8B8A89888786F5
:1022000084838281807F7E7D7B7A7978777675740E
:10221000737271706F6E6D6C6B6A69686766656406
:10222000636261605F5E5D5C5B5A595858575655F2
:102230005453525150504F4E4D4C4B4A4A494847C7
:102240004646454443424241403F3E3E3D3C3B3B87
:102250003A39383837363535343332323130302F39
:102260002E2E2D2C2B2B2A292928272726252524DD
:10227000232322212120201F1E1E1D1C1C1B1B1A74
:1022800019191818171616151514131312121111FF
:10229000100F0F0E0E0D0D0C0C0B0A0A0909080881
:1022A00007070606050504040303020201000000F7
:1022B0000044430000314300003943000020410046
:1022C0000020C10000000053657474696E677320BC
:1022D00053746F72656400290A0020627974657313
:1022E0003B20637263200053657474696E677320CA
:1022F00053746F72656420280048617264636F6470
:1023000065642044656661756C74205365747469F6
:102310006E6773204C6F616465640A0020286D6DE0
:102320002900203B204C6576656C696E6720002093
:10233000204D3432302053004175746F2042656463
:10234000204C6576656C696E67002046002042006F
:1023500020480020204D3134352053004D617465F4
:102360007269616C2068656174757020706172615A
:102370006D65746572730020204D3134392043201F
:102380003B20556E69747320696E2043656C7369D8
:1023900075730A0054656D7065726174757265209D
:1023A000556E697473002020473231203B004C6920
:1023B0006E65617220556E69747300454550524FC9
:1023C0004D206461746173697A65206572726F7201
:1023D0002E0A00290A002062797465733B2063721B
:1023E0006320002073746F72656420736574746970
:1023F0006E67732072657472696576656420280063
:10240000202863616C63756C6174656429210A001E
:1024100020213D2000454550524F4D20435243203E
:102420006D69736D61746368202D202873746F72F9
:1024300065642920002053697A653A2000496E645A
:1024400065783A20000000C8430000C8430000003F
:1024500040000034420000A3420000A3425258C88A
:10246000430000D84288130000881300004B00008E
:102470000088130000204D61726C696E3D5638353E
:10248000290A00454550524F4D2076657273696F99
:102490006E206D69736D61746368202845455052E4
:1024A0004F4D3D0024F4D43050C38E20C2A24017BB
:1024B000828B7011127A910D816CD90AA861E108A2
:1024C000C7586607615143061E4B5D05C145A70409
:1024D0001A411104093D9803713931034036DB027A
:1024E00065339102D4305402802E1D02632CEE011C
:1024F000752AC501B028A001102781018F2564012C
:102500002B244B01E0223401AC211F018D200D0151
:10251000801FFC00841EED00971DDF00B81CD20058
:10252000E61BC600201BBC00641AB200B219A8004A
:102530000A19A0006A189900D117910040178B0062
:10254000B516840031167E00B31579003A15730074
:10255000C7146F0058146A00EE13660088136300F6
:1025600025135E00C7125B006C1257001512540051
:10257000C111510070114F0021114B00D6104900BC
:102580008D1047004610440002104200C00F40006A
:10259000800F3E00420F3C00060F3B00CB0E380080
:1025A000930E37005C0E3500270E3400F30D320019
:1025B000C10D3100900D3000600D2E00320D2D0048
:1025C000050D2C00D90C2B00AE0C2900850C290020
:1025D0005C0C2700350C27000E0C2600E80B2400AD
:1025E000C40B2400A00B23007D0B23005A0B2100F9
:1025F000390B2100180B2000F80A1F00D90A1E0011
:10260000BB0A1E009D0A1D00800A1D00630A1C00F3
:10261000470A1B002C0A1B00110A1A00F7091A00AE
:10262000DD091900C4091900AB0919009209170046
:102630007B091800630917004C09160036091600BB
:10264000200916000A091500F5081500E008140015
:10265000CC081400B8081400A40814009008130053
:102660007D0812006B08130058081200460812007B
:10267000340811002308110012081100010811008C
:10268000F0071000E0071000D0071000C00710008E
:10269000B0070F00A107100091070E0083070F007D
:1026A00074070F0065070E0057070E0049070E005C
:1026B0003B070D002E070E0020070D0013070D002D
:1026C00006070D00F9060C00ED060D00E0060C00F3
:1026D000D4060C00C8060C00BC060C00B0060C00AA
:1026E000A4060B0099060C008D060B0082060B0059
:1026F00077060B006C060B0061060A0057060B00FC
:102700004C060A0042060A0038060A002E060A0095
:1027100024060A001A060A001006090007060A0025
:10272000FD050900F4050900EB050900E2050900B3
:10273000D9050900D0050900C7050900BE05090033
:10274000B5050800AD050800A50509009C050800B1
:10275000940508008C050800840508007C05080025
:10276000740508006C050700650508005D05070095
:10277000560508004E0507004705070040050800FC
:1027800038050700310507002A0507002305070063
:102790001C050600160507000F05070008050600C2
:1027A00002050700FB040600F5040700EE0406001E
:1027B000E8040600E2040700DB040600D504060076
:1027C000CF040600C9040600C3040600BD040600C9
:1027D000B7040600B1040500AC040600A604060018
:1027E000A00405009B040600950405009004060063
:1027F0008A04050085040500800406007A040500AB
:1028000075040500700405006B04050066040500EE
:10281000610405005C04050057040500520405002E
:102820004D04050048040500430405003E0404006F
:102830003A04050035040500300404002C040500AA
:1028400027040400230405001E0404001A040400E5
:1028500016040500110404000D0404000904050019
:102860000404040000040400FC030400F803040052
:10287000F4030400F0030400EC030400E803040084
:10288000E4030400E0030400DC030400D8030400B4
:10289000D4030400D0030400CC030400C8030300E5
:1028A000C503030024F404D9201BC40C5C0E980457
:1028B000C4095F0265077101F405F900FB04B30068
:1028C00048048700C103690058035500030345000D
:1028D000BE023A008402310053022A002902250078
:1028E00004022000E4011C00C8011900AF01170018
:1028F000980114008401130071011000610110009F
:1029000051010E0043010D0036010B002B010B009D
:1029100020010B00150109000C010900030108004A
:10292000FB000800F3000800EB000700E4000600CD
:10293000DE000600D8000600D2000600CC0005002C
:10294000C7000500C2000500BD000400B900040076
:10295000B5000400B1000400AD000400A9000400AB
:10296000A5000300A20003009F0004009B000300D9
:1029700098000300950002009300030090000300FC
:102980008D0002008B000300880002008600020018
:1029900084000300810002007F0002007D0002002D
:1029A0007B0002007900020077000100760002003F
:1029B0007400020072000100710002006F0002004A
:1029C0006D0001006C0002006A0001006900020055
:1029D000670001006600010065000100640002005C
:1029E0006200010061000100600001005F00020060
:1029F0005D0001005C0001005B0001005A00010065
:102A00005900010058000100570001005600010064
:102A10005500010054000100530000005300010064
:102A20005200010051000100500001004F00010060
:102A30004E0000004E0001004D0001004C0001005E
:102A40004B0000004B0001004A000100490001005A
:102A50004800000048000100470001004600000057
:102A6000460001004500000045000100440001004F
:102A7000430000004300010042000000420001004A
:102A80004100000041000100400001003F00000043
:102A90003F0001003E0000003E0001003D0000003C
:102AA0003D0001003C0000003C0000003C00010033
:102AB0003B0000003B0001003A0000003A0001002A
:102AC0003900000039000100380000003800000023
:102AD0003800010037000000370001003600000018
:102AE000360000003600010035000000350000000F
:102AF0003500010034000000340000003400010003
:102B000033000000330000003300010032000000F9
:102B100032000000320001003100000031000000EE
:102B200031000100300000003000000030000100E2
:102B30002F0000002F0000002F0000002F000100D8
:102B40002E0000002E0000002E0001002D000000CD
:102B50002D0000002D0000002D0001002C000000C1
:102B60002C0000002C0000002C0001002B000000B5
:102B70002B0000002B0000002B0001002A000000A9
:102B80002A0000002A0000002A000100290000009D
:102B90002900000029000000290000002900010090
:102BA0002800000028000000280000002800000085
:102BB0002800010027000000270000002700000077
:102BC000270000002700010026000000260000006A
:102BD000260000002600000026000100250000005D
:102BE0002500000025000000250000002500000051
:102BF0002500010024000000240000002400000043
:102C00002400000024000100230000002300000035
:102C10002300000023000000230000002300000028
:102C2000230001002200000022000000220000001A
:102C3000220000002200000022000100210000000C
:102C40002100000021000000210000002100000000
:102C500021000000210001002000000020000000F1
:102C600020000000200000002000000020000000E4
:102C700020000000200001001F0000001F000000D5
:102C80001F0000001F0000001F0000001F000000C8
:102C90001F0001001E0000001E0000001E000000BA
:102CA0001E000000393000003325000087190000A5
:102CB000B00F0000DB080000BD040000740200003B
:102CC0003F01000020436F756E7420583A00426542
:102CD00064004531004500626564002C20737973FF
:102CE00074656D2073746F70706564212048656130
:102CF0007465725F49443A200048656174696E6783
:102D0000204661696C65640048656174696E67207E
:102D10006661696C6564004572723A204D41585491
:102D2000454D50004D415854454D502074726967CF
:102D30006765726564004572723A204D494E54458C
:102D40004D50004D494E54454D502074726967678F
:102D50006572656400544845524D414C2052554EB1
:102D60004157415900546865726D616C2052756E0F
:102D70006177617900202F002042403A0020403ADC
:102D8000000009121B242D363F48415A536C657EC2
:102D90007719100B023D342F265158434A757C6732
:102DA0006E323B2029161F040D7A7368615E574C02
:102DB000452B2239300F061D14636A7178474E5532
:102DC0005C646D767F4049525B2C253E3708011AC2
:102DD000137D746F6659504B42353C272E111803F2
:102DE0000A565F444D727B60691E170C053A332802
:102DF000214F465D546B627970070E151C232A31F2
:102E0000384148535A656C777E09001B122D243FC8
:102E10003658514A437C756E671019020B343D26B3
:102E20002F737A6168575E454C3B3229201F160D7F
:102E3000046A6378714E475C55222B3039060F14B3
:102E40001D252C373E0108131A6D647F7649405BBF
:102E5000523C352E2718110A03747D666F50594273
:102E60004B171E050C333A21285F564D447B72697F
:102E7000600E071C152A233831464F545D626B7073
:102E80007900002110422063308440A550C660E7DD
:102E900070088129914AA16BB18CC1ADD1CEE1EF0F
:102EA000F13112100273325222B5529442F772D6A7
:102EB00062399318837BB35AA3BDD39CC3FFF3DE5F
:102EC000E36224433420040114E664C774A44485F7
:102ED000546AA54BB528850995EEE5CFF5ACC58DAF
:102EE000D55336722611163006D776F6669556B447
:102EF000465BB77AA719973887DFF7FEE79DD7BCFF
:102F0000C7C448E5588668A7784008611802282396
:102F100038CCC9EDD98EE9AFF9488969990AA92B4E
:102F2000B9F55AD44AB77A966A711A500A333A12E6
:102F30002AFDDBDCCBBFFB9EEB799B588B3BBB1A9E
:102F4000ABA66C877CE44CC55C222C033C600C4136
:102F50001CAEED8FFDECCDCDDD2AAD0BBD688D49EE
:102F60009D977EB66ED55EF44E133E322E511E7086
:102F70000E9FFFBEEFDDDFFCCF1BBF3AAF599F783E
:102F80008F8891A981CAB1EBA10CD12DC14EF16FEF
:102F9000E18010A100C230E3200450254046706754
:102FA00060B9839893FBA3DAB33DC31CD37FE35E80
:102FB000F3B1029012F322D23235421452776256A4
:102FC00072EAB5CBA5A89589856EF54FE52CD50D90
:102FD000C5E234C324A014810466744764245405F4
:102FE00044DBA7FAB79987B8975FE77EF71DC73C20
:102FF000D7D326F2369106B0165766767615463444
:10300000564CD96DC90EF92FE9C899E9898AB9AB2F
:10301000A94458654806782768C018E1088238A393
:10302000287DCB5CDB3FEB1EFBF98BD89BBBAB9ABF
:10303000BB754A545A376A167AF10AD01AB32A92E3
:103040003A2EFD0FED6CDD4DCDAABD8BADE89DC9CF
:103050008D267C076C645C454CA23C832CE01CC133
:103060000C1FEF3EFF5DCF7CDF9BAFBABFD98FF85F
:103070009F176E367E554E745E932EB23ED10EF083
:103080001E7C3C3E5E2B3D3F2F5B5D3B2C2A225C31
:103090000043616E6E6F74206F70656E2073756291
:1030A0006469722000534420496E69742046616946
:1030B0006C0053442063617264206F6B0A006F7070
:1030C000656E526F6F74206661696C65640A007684
:1030D0006F6C756D652E696E6974206661696C65CB
:1030E000640A004E6F20534420636172640A000A30
:1030F0004D3234004D3233202573002E0A006F709C
:10310000656E206661696C65642C2046696C653A61
:10311000200046696C652073656C65637465640A9C
:10312000002053697A653A200046696C65206F700B
:10313000656E65643A2000454E4420535542524F17
:103140005554494E450A002220706F7300222070AA
:103150006172656E743A2200535542524F5554497C
:103160004E452043414C4C207461726765743A228D
:103170000053756263616C6C204F766572666C6F8C
:1031800077004578636565646564206D61782053D8
:103190005542524F5554494E452064657074683A03
:1031A0000057726974696E6720746F2066696C6578
:1031B0003A2000667265736800646F696E6700206C
:1031C00066696C653A20004E6F7720002F61757438
:1031D0006F25632E6700026D61726C696E66772ED3
:1031E0006F726700322E302E392E32001FFFFFFF24
:1031F000FFFFFF600000000001FF40000000000032
:10320000FF8000000000007F83CF00000C303F876C
:10321000FF80000C301F867980000C000F8C30C7B7
:10322000838C30E78C30CFC7CC31F38C30DCECECC6
:1032300033B98C30D86C6C33198C30D06C0C33199A
:103240008C30D86C0C33198C30DC6C0E3B198C3004
:10325000CF7C079F198C30C77C038F19400000007A
:10326000000002600000000000061FFFFFFFFFFFDC
:10327000F870012C0190012701B0012201C0011D4D
:1032800001F00118011002130130020E0160020961
:103290000190020401C002FF000003FA004003F5A0
:1032A000008003F000D003EB002004E6007004E18E
:1032B00000E004DC004005D700C005D2004006CD88
:1032C00000D006C8008007C3003008BE00F008B96F
:1032D00000C009B400B00AAF00B00BAA00D00CA522
:1032E00000000EA000500F9B00C0109600501291DD
:1032F0000000148C00C0158700B0178200B0197D43
:1033000000D01B7800001E730040206E00902269E0
:1033100000F024640040275F0090295A00E02B55FC
:1033200000102E500020304B0010324600E0334198
:103330000090353C001037370070383200A0392D2E
:1033400000B03A2800A03B2300603C1E00103D194D
:1033500000903D1400103E0F00703E0A00C03E0574
:1033600000003F0000403FFBFF803FF6FFC03FF101
:10337000FF2020506C616E6E6572427566666572E4
:1033800042797465733A20002046726565204D6568
:103390006D6F72793A200020436F6D70696C6564BF
:1033A0003A204E6F7620323020323032310A0020FF
:1033B0004C61737420557064617465643A203230D6
:1033C00032312D30392D3033207C20417574686FB7
:1033D000723A206A6F6E7361670A004D61726C69A0
:1033E0006E20322E302E392E320A0020536F667432
:1033F000776172652052657365740A0020576174A5
:103400006368646F672052657365740A00204272B6
:103410006F776E206F75742052657365740A002093
:1034200045787465726E616C2052657365740A002C
:10343000506F77657255700A0073746172740A0078
:103440004732385859004D31303031006F6B0065CC
:1034500072726F722077726974696E6720746F2060
:1034600066696C650A00446F6E6520736176696EEB
:10347000672066696C652E0A004D323900456E641E
:1034800073746F70730025532025632025632025F6
:103490006320256300205A3A0020593A0020583A08
:1034A00000656E6473746F7073206869743A2000ED
:1034B00000000A0B02090C0D0E08070304010000AE
:1034C00000000000000000000000000000000000FC
:1034D00000000000000000000000000012111000B9
:1034E00000000000000000000000000000000000DC
:1034F000000000000000004D6F76652025736D6DA3
:10350000004D6F766520302E316D6D004D6F766504
:1035100020316D6D004D6F76652031306D6D004D41
:103520006F76652041786973004D6F766520457828
:10353000747275646572004D6F7665205A004D6F28
:1035400076652059004D6F7665205800486F6D698B
:103550006E67204661696C656400FFFFFF50726F03
:1035600062696E67204661696C65640A0050726F1B
:1035700062696E67204661696C656400205A3A2072
:103580000020593A200042656420583A20004765DF
:103590006565746563682069332050726F2042202E
:1035A00052656164792E005072696E74696E672E7F
:1035B0002E2E005072696E74205061757365640020
:1035C000220A00556E6B6E6F776E20636F6D6D61B2
:1035D0006E643A202200204500205A002059002025
:1035E000204D393220580053746570732070657215
:1035F00020756E697400DB0FC93F45BCDA3F8FB39D
:103600000240FCF0274056946140FE4B9B4084A54D
:10361000D840E0231841346A5641E859974164DBA9
:10362000D5416E271742B4B75542CE1A9742C8AE5D
:10363000D542B5885A43D40684BFA65FA7BF74435A
:10364000E0BF10B11AC01C2C58C0E8F697C0B849AA
:10365000D6C04E4E17C124D355C1802497C1A0B502
:10366000D5C1121A17C244AE55C2781797C26CACB6
:10367000D5C267885AC320746F6F206C6F6E672045
:10368000657874727573696F6E2070726576656E99
:103690007465640A0020636F6C64206578747275C9
:1036A00073696F6E2070726576656E7465640A006A
:1036B0006F6B0A00526573656E643A200020453ACC
:1036C00000205A3A0020593A00583A0000002200DF
:1036D000250028002B002E003100340002010000DC
:1036E000050108010B0100002100240027002A0029
:1036F0002D003000330001010000040107010A0120
:1037000005050505070508080808020202020A0A5D
:10371000080804040404010101010101010103037B
:10372000030303030303040707070C0C0C0C0C0C26
:103730000C0C0202020206060606060606060B0B23
:103740000B0B0B0B0B0B0102102020080810204064
:103750001020408002010201080402010102040855
:1037600010204080804020100804020180040201E3
:10377000804020100804020108040201010204082C
:103780001020408001020408102040804572726FB2
:10379000722077726974696E6720746F2045455096
:1037A000524F4D210A0098009A0011241FBECFEFFE
:1037B000D1E2DEBFCDBF00E00CBF13E0A0E0B2E07D
:1037C000EAE8F8E402E00BBF02C007900D92AE39C0
:1037D000B107D9F725E1AEE9B3E001C01D92A13EE2
:1037E000B207E1F71BE1C4EDDBE100E006C0219781
:1037F0000109802FFE010F94D920C33DD10780E03D
:103800000807A9F70F940D0E0D9434240C940000B2
:103810008F929F92AF92BF92CF92DF92EF92FF92E0
:103820006B017C0120E030E0A9010F94121A87FDA2
:103830006BC06DEB77E386E095E3A70196010F94EB
:10384000F4206B017C0120E030E040E251E40F9471
:10385000771A20E030E040E251E40F94771A4B01F0
:103860005C0120E030E0A901C701B6010F94121AF3
:1038700020E030E040EA50E487FF04C020E030E080
:1038800040EA50ECC501B4010F94F42020E030E090
:1038900040E251E40F94D0210F9438229B018BE237
:1038A00037FF05C022273327261B370B8DE2809375
:1038B0009105C90164E670E00F94C620CB01EAE0EF
:1038C000F0E0BF010F94C620805D80939205C9018E
:1038D000BF010F94C620282FCB01BF010F94C62033
:1038E000805D809393058EE280939405205D209304
:1038F000950581E995E0FF90EF90DF90CF90BF9024
:10390000AF909F908F9008956DEB77E386E095EBF5
:1039100094CF8F929F92AF92BF92CF92DF92EF920D
:10392000FF92CF936B017C0120E030E0A9010F945E
:10393000121A87FDAAC06DEB77E386E095E3A70135
:1039400096010F94F4206B017C0120E030E0A90186
:103950000F94121A87FF9EC0C701B601905820E04D
:1039600030E040E251E40F94771A20E030E040E28A
:1039700051E40F94771A20E030E040EA50E40F94CD
:10398000F42020E030E040E251E40F94D0210F9485
:1039900038226B017C0180E280938F0560E280E138
:1039A000C81687E2D806E104F1048CF0C701B6011D
:1039B00020E137E240E050E00F945E20CA01B901F7
:1039C0002AE030E040E050E00F945E20605D6093BC
:1039D000900560E288EEC81683E0D806E104F104A1
:1039E0008CF0C701B60128EE33E040E050E00F94C0
:1039F0005E20CA01B9012AE030E040E050E00F94B7
:103A00005E20605D6093910560E284E6C816D10493
:103A1000E104F1048CF0C701B60124E630E040E097
:103A200050E00F945E20CA01B9012AE030E040E086
:103A300050E00F945E20605D609392058AE0882ECE
:103A4000912CA12CB12CC701B601A50194010F94B2
:103A50005E20C62FCA01B901A50194010F945E2012
:103A6000605D609393058EE280939405C05DC09382
:103A700095058FE895E0CF91FF90EF90DF90CF9084
:103A8000BF90AF909F908F9008956DEB77E386E0A5
:103A900095EB55CF20E030E040E251E4C701B6019C
:103AA00062CF8F929F92AF92BF92CF92DF92EF92AE
:103AB000FF92CF936B017C0120E030E0A9010F94CD
:103AC000121A87FD93C06DEB77E386E095E3A701BB
:103AD00096010F94F4206B017C0120E030E040E27D
:103AE00051E40F94771A20E030E04AE754E40F9451
:103AF000771A4B015C0120E030E0A901C701B60153
:103B00000F94121A20E030E040EA50E487FF04C02E
:103B100020E030E040EA50ECC501B4010F94F420FD
:103B200020E030E040E251E40F94D0210F9438229D
:103B30006B017C01C114D104E104F10409F45BC000
:103B4000F7FE59C0F094E094D094C094C11CD11CED
:103B5000E11CF11C8DE280939005C701B60128EEAF
:103B600033E040E050E00F945E208AE0882E912CF4
:103B7000A12CB12CCA01B901A50194010F945E20BA
:103B8000605D609391058EE280939205C701B60156
:103B900024E630E040E050E00F945E20CA01B90115
:103BA000A50194010F945E20605D60939305C701A9
:103BB000B601A50194010F945E20C62FCA01B90178
:103BC000A50194010F945E20605D60939405C05D33
:103BD000C093950580E995E0CF91FF90EF90DF903D
:103BE000CF90BF90AF909F908F9008956DEB77E34B
:103BF00086E095EB6CCF80E2AECFCF93DF93EC0104
:103C0000CB01BA010F94181A20E030E040E251E4F1
:103C10000F94D021688379838A839B83DF91CF912E
:103C20000895CF93DF93EC01CB01BA010F94181ADA
:103C300020E030E040E251E40F94D02168837983A2
:103C40008A839B83DF91CF9108950F94181A20E007
:103C500030E040E251E40F94D0215BCE0F94181A6B
:103C600020E030E040E251E40F94D021D1CDCF9359
:103C7000DF93EC01CB01BA010F94181A2AE037ED5B
:103C800043E25DE30F94D0210F943D226883798352
:103C90008A839B83DF91CF910895CF93DF93EC01CB
:103CA000CB01BA010F94181A2AE037ED43E25DE325
:103CB0000F94D021688379838A839B83DF91CF918E
:103CC0000895CF93DF93EC01CB01BA010F94181A3A
:103CD000688379838A839B83DF91CF910895CF9303
:103CE000DF93EC01CB01BA010F94181A20E030E009
:103CF00048EC52E40F94D021688379838A839B83B4
:103D0000DF91CF910895CF93DF93EC01CB01BA01FE
:103D10000F94181A0F94382279836883DF91CF911A
:103D20000895CF93DF93EC01CB01BA010F94181AD9
:103D300020E030E04AE754E40F94D021688379838F
:103D40008A839B83DF91CF9108950F94181A20E006
:103D500030E04AE754E40F94D021A3CEFC018491D3
:103D60000895FC0180810895FC01A081B1811C921D
:103D7000A281B3818C918F5F8C930280F381E02DBF
:103D800090818CE0989F800D1124E0EBF3E113AE5D
:103D900084AF0895009751F0FC0180E09191992340
:103DA00031F0907C9038D1F38F5FF8CF80E00895A8
:103DB0009091020192709093000100C090910201D5
:103DC00087FD9095917090930001909102019095DC
:103DD00092709093000100C000C090910201927017
:103DE0009093000100C09091020186FD9095917022
:103DF0009093000190910201909592709093000130
:103E000000C000C09091020192709093000100C028
:103E10009091020185FD9095917090930001909191
:103E20000201909592709093000100C000C09091A3
:103E3000020192709093000100C09091020184FDF4
:103E400090959170909300019091020190959270DD
:103E50009093000100C000C0909102019270909375
:103E6000000100C09091020183FD909591709093A4
:103E7000000190910201909592709093000100C012
:103E800000C09091020192709093000100C0909147
:103E9000020182FD90959170909300019091020132
:103EA000909592709093000100C000C09091020123
:103EB00092709093000100C09091020181FD909555
:103EC000917090930001809102018095827080939F
:103ED000000100C000C08091020182708093000147
:103EE00000C08091020181708093000180910201E5
:103EF000809582708093000100C000C0089590E01A
:103F000080E00895CF93DF93DB01F9019C9191301C
:103F1000C1F0943080F094509C938830D1F480812B
:103F20009181009771F0019791838083480F591F09
:103F3000EA01188206C08C3539F49C5F9C9394305A
:103F400041F4DF91CF9108958B3339F781E08C9361
:103F5000F8CF20813181B9016F5F7F4F718360831A
:103F6000420F531FEA018883808191818F3591052B
:103F70006CF7E7CF0F931F9381E000910315109129
:103F8000041520910515309106154091FF145091AC
:103F90000015609101157091021504171507260789
:103FA000370708F480E01F910F91089590E080E0BA
:103FB0000895282F9091C904833021F495FD0FC0F6
:103FC00094FD0FC0892F90E0B0E0A0E004C0B6954A
:103FD000A795979587952A95D2F78170089581E0E6
:103FE000089580E008958091E50484FD0BC08091E0
:103FF000E70487FD07C09091E804937081E019F40D
:1040000080E0089581E008952FEB280F2A3108F011
:1040100047C0E22FF0E08091E5049091E604A09182
:10402000E704B091E80404C0B695A79597958795E5
:104030002A95D2F780FD02C081700895E553FB4FA9
:10404000E081EE2341F180919C0790919D07E80F5C
:10405000F92FF11D808190ED980F9A3030F08E325B
:1040600051F4818180538A3098F4F093BF04E09337
:10407000BE0481E008958D3211F08B3249F48181C4
:1040800090ED980F9A3088F38E3211F48281EACF46
:10409000F0E0E0E0EACF1092BF041092BE04E9CF56
:1040A00080E00895B1DF882341F081E02091BE04D3
:1040B0003091BF04232B09F480E00895809A8898FA
:1040C000089580E090E0A0E8B0E4809370029093BF
:1040D0007102A0937202B093730288EB92E00E9487
:1040E00061B7E0918B05E430C9F480E090E0AAEB81
:1040F000B2E48093680290936902A0936A02B0933D
:104100006B0280E090E0A6EAB2E480936C029093A8
:104110006D02A0936E02B0936F0232C080E090E017
:10412000ACE0B2E48093680290936902A0936A02C3
:10413000B0936B0280E090E0A0E2B1E480936C0267
:1041400090936D02A0936E02B0936F02EE0FFF0B7F
:10415000E856FD4F808191818330910549F184308B
:10416000910591F1029761F480E090E0ABE2B3E455
:104170008093680290936902A0936A02B0936B02E5
:1041800080EA92E00E9461B7109270021092710270
:10419000109272021092730288EB92E00E9461B753
:1041A00080918B058F5F8530A4F480938B050895F3
:1041B00080E090E0ABE2B3E4809368029093690200
:1041C000A0936A02B0936B0280E090E0A3E1B3E4B5
:1041D0009CCF10928B050895CF93DF9300D01F9250
:1041E000CDB7DEB70F943D220F94161A69837A83F8
:1041F0008B839C83CE0101960E946EC10F900F901D
:104200000F900F90DF91CF9108950F94181A2AE024
:1042100037ED43E25DE30F94D021DECFCF92DF9202
:10422000EF92FF92CF93DF9300D01F92CDB7DEB70E
:104230006B017C0120E030E0A9010F94121A87FD88
:104240001BC06DEB77E386E095E3A70196010F9421
:10425000F42069837A838B839C83CE0101960E942C
:104260006EC10F900F900F900F90DF91CF91FF9044
:10427000EF90DF90CF9008956DEB77E386E095EBBC
:10428000E4CF0F94181A2AE037ED43E25DE30F9470
:10429000D021C4CF0F94181AC1CF0F94181A20E060
:1042A00030E048EC52E40F94D0210C940BD00F94E2
:1042B000181A0F943822CB010C9470C20C9486A665
:1042C0000C9486A60C9486A60C9486A60C9438A60C
:1042D0000C9438A60C9438A60C9438A663E972E0C6
:1042E00084E690E00E944AC96AEB72E084E690E0BE
:1042F0000C944AC98111F2CF68EB71E084E190E03F
:104300000C944AC90E945CA3F5CF80915F02882378
:1043100041F0609188057091890541E081E00C943D
:1043200089F508950E941FDBE5CF0E946DB9D6CFB5
:10433000CF93DF93C0914907D0914A07209729F185
:104340006091450770914607809147079091480713
:104350000F9438226E5F7F4F24976C177D07ACF463
:104360007093CC056093CB050E9478FA605A754132
:104370008F4F9F4F6093CD057093CE058093CF05EF
:104380009093D005DF91CF9108951092CD051092B2
:10439000CE051092CF051092D005F4CFBF92CF92E8
:1043A000DF92EF92FF920F931F93CF93DF936B01F6
:1043B000E9014A3009F4D6C0453109F081C0DB017A
:1043C0001296ED91FC911281C681D781599A00C055
:1043D000000086E290E00197F0F7012F0295007F40
:1043E00020E1B22EB10E88EFE3DC00C0000086E2CF
:1043F00090E00197F0F7103208F0A1C0812F80778C
:104400008068D6DC802FD4DC00C0000086E290E01B
:104410000197F0F780E8CCDC80E0CADC00C0000047
:1044200086E290E00197F0F78AEFC2DC00C000005E
:1044300086E290E00197F0F77E01B0E1EB0EF11C0F
:104440008881807FB5DC89918295807FB1DCCE1533
:10445000DF05B1F700C0000086E290E00197F0F7B9
:104460001F5F005F1B11BFCF5998D6011296ED91C7
:10447000FC9180819281980F92832181921708F09C
:1044800075C294819F5F94839381890F821710F086
:104490008FEF820F8383458150E0440F551F70E0FA
:1044A00060E0868197810F94E02381E0DF91CF91D6
:1044B0001F910F91FF90EF90DF90CF90BF900895E4
:1044C000FB0102811381423309F452C208F45AC23B
:1044D000463409F447C2473409F44FC24B3329F735
:1044E00089812B81D80112966C91129713964C9169
:1044F000213009F48CC2233009F06DC238EF380F37
:10450000582F91E0431708F490E041E0531708F06A
:1045100040E031E0561708F430E0592F542B352392
:1045200019F4942309F4C1CFFA8030E0F901EC5773
:10453000FD4FD08020583D4FF901E08065C280EEEC
:10454000810F8068807F34DC812F8295807F30DC12
:1045500000C0000086E290E00197F0F780E828DCD8
:1045600080E85BCF519A59988091010181608093D6
:10457000010180910201817080930001809101010D
:104580008260809301018091020180958270809306
:104590000001599A00C0000086E290E00197F0F710
:1045A00088E790E0CEE9DFE0FE013197F1F701976F
:1045B000D9F788EFFDDB00C0000086E290E00197AC
:1045C000F0F780E2F5DB80E0F3DB00C0000086E27C
:1045D00090E00197F0F780E0EBDB80E8E9DB00C0DA
:1045E000000086E290E00197F0F780E0E1DB80E1F7
:1045F000DFDB00C0000086E290E00197F0F7CE011B
:104600000197F1F7CE010197F1F7CE010197F1F78C
:10461000CE010197F1F7CE010197F1F7CE01019795
:10462000F1F7CE010197F1F7CE010197F1F7CE0135
:104630000197F1F7CE010197F1F7CE010197F1F75C
:10464000CE010197F1F7CE010197F1F7CE01019765
:10465000F1F72197F1F780E2ABDB80E4A9DB00C042
:10466000000086E290E00197F0F780E2A1DB80E6AF
:104670009FDB00C0000086E290E00197F0F7D0E0F9
:10468000C0E08C2F8077806893DB8D2F91DB00C09A
:10469000000086E290E00197F0F780E889DB80E097
:1046A00087DB00C0000086E290E00197F0F78AEF18
:1046B0007FDB00C0000086E290E00197F0F790E217
:1046C0008091020182708093000100C080910201FC
:1046D00081708093000180910201809582708093A7
:1046E000000100C000C0809102018270809300012F
:1046F00000C08091020181708093000180910201CD
:10470000809582708093000100C000C080910201FA
:1047100082708093000100C08091020181708093BB
:10472000000180910201809582708093000100C099
:1047300000C08091020182708093000100C08091CE
:104740000201817080930001809102018095827046
:104750008093000100C000C08091020182708093AC
:10476000000100C08091020181708093000180915E
:104770000201809582708093000100C000C080918A
:10478000020182708093000100C08091020181705B
:1047900080930001809102018095827080930001D6
:1047A00000C000C08091020182708093000100C0AF
:1047B00080910201817080930001809102018095B7
:1047C00082708093000100C000C08091020182705D
:1047D0008093000100C080910201817080930001EC
:1047E00080910201809582708093000100C000C01A
:1047F0008091020182708093000100C080910201CB
:104800008170809300018091020180958270809375
:10481000000100C000C080910201827080930001FD
:1048200000C080910201817080930001809102019B
:10483000809582708093000100C000C080910201C9
:1048400082708093000100C080910201817080938A
:10485000000180910201809582708093000100C068
:1048600000C08091020182708093000100C080919D
:104870000201817080930001809102018095827015
:104880008093000100C000C080910201827080937B
:10489000000100C08091020181708093000180912D
:1048A0000201809582708093000100C000C0809159
:1048B000020182708093000100C08091020181702A
:1048C00080930001809102018095827080930001A5
:1048D00000C000C08091020182708093000100C07E
:1048E0008091020181708093000180910201809586
:1048F00082708093000100C000C08091020182702C
:104900008093000100C080910201817080930001BA
:1049100080910201809582708093000100C000C0E8
:1049200000C00000E6E2F0E03197F0F7915009F0A6
:10493000C7CE88EF3DDA00C0000086E290E0019724
:10494000F0F7CF5FD05FC03209F09BCE80E030DA65
:1049500080EC2EDA00C0000086E290E00197F0F7CC
:104960005998A3CDF801858188839FCD80E09ECDA5
:10497000B901C8010E948CFB98CDD80111968C9189
:10498000888393CD443191F0473109F08ECD188260
:10499000D80112968C911297898315968C91159750
:1049A00081508A8313968C918B837FCDD801159685
:1049B0004C91159750E0440F551F70E060E016963B
:1049C0008D919C910F94E023F80112828081815097
:1049D000838314826ACD481708F467CD861708F4DC
:1049E00064CDFA80E12CD12C243070F49ECDBE0130
:1049F000C8010E948CFB898198819D0D98838E0D42
:104A00008983FF0C09F451CDF7FEF6CFF0CF58E0C3
:104A1000580F382F76CDEF92FF920F931F93CF93BD
:104A2000DF93EC018B017A018A859B8586179707B6
:104A300031F0888199810E94C1FD1B870A87B701E7
:104A4000888199810E942FF62E813F81820F932FBA
:104A5000911D9F838E8390E080E0DF91CF911F9125
:104A60000F91FF90EF9008959F92AF92BF92CF92D7
:104A7000DF92EF92FF920F931F93CF93DF93EC019E
:104A80008B01942EA52E8A859B858617970731F07A
:104A9000888199810E94C1FD1B870A878885998535
:104AA000019649F5BC800A818E81080FC880D980A3
:104AB000D6015596ED91FC91C6011995B80EE92CD9
:104AC000FA2C10E0F70121917F01211127C08E817E
:104AD0009F81810F911D9F838E8390E080E0DF9105
:104AE000CF911F910F91FF90EF90DF90CF90BF90EB
:104AF000AF909F9008950E811F81692D7A2D888136
:104B000099810E942FF6800F912F911D288539855C
:104B10002817390738F681E090E0E1CF4B2D602F60
:104B2000C6010E9419FE080F180FCCCFDF92EF923A
:104B3000FF920F931F93CF93DF93EC01D62E1CAD02
:104B40000BAD7C0184E0E80EF11CE98DFA8DC70104
:104B50001995412F480F2D2D602FC7010E9419FE76
:104B60009BAD890F8BAF81E090E0DF91CF911F91DA
:104B70000F91FF90EF90DF9008952F923F924F9208
:104B80005F927F928F929F92AF92BF92CF92DF926D
:104B9000EF92FF920F931F93CF93DF93D62EC72EE2
:104BA000742EFC0180809180A280B380C501B40185
:104BB00020E13EE040E050E00F943C20122F032F14
:104BC000C22FD32F8CE3282E312C412C512CC50120
:104BD000B401A20191010F943C20CA01B901A201C4
:104BE00091010F943C20F62EE72E772051F1C5015C
:104BF000B40120E831E541E050E00F943C20890108
:104C0000EF92FF92CE0168E170E00F94B2209F9383
:104C10008F933F932F9382EB93E19F938F93CF9248
:104C2000DF920F94AB19EDB7FEB73A960FB6F89432
:104C3000FEBF0FBEEDBF88E00A301105D0F089E05D
:104C400018C0C436D10538F57F936F930F931F9327
:104C500086EA93E19F938F93CF92DF920F94AB19E3
:104C60008DB79EB708960FB6F8949EBF0FBE8DBF46
:104C700085E0DF91CF911F910F91FF90EF90DF9032
:104C8000CF90BF90AF909F908F907F905F904F900C
:104C90003F902F9008957F936F930F931F938CE90C
:104CA00093E19F938F93CF92DF920F94AB19EDB75F
:104CB000FEB738960FB6F894FEBF0FBEEDBF86E084
:104CC000D8CFCF938091F304811154C01092EB138D
:104CD0001092EC131092ED131092B9131092B813B6
:104CE0001092BB131092BA131092BD1381E08093FF
:104CF000BC1382E28093BE131092C3131092C213AE
:104D0000E7EDF3E125EE33E18FEF81932E173F07B7
:104D1000E1F7C1E0C093D4132AE93BED3093CA1305
:104D20002093C913C093CB131092CC131092CD13C0
:104D300090E49093CE131092CF1329E93BED30937A
:104D4000E6132093E51320E132E03093B71320936C
:104D5000B61390E19093DB1391E19093DC1394E10F
:104D60009093D9138093D8138093D7130E94CAFBD2
:104D7000C093F30481E08093F5048CE993E1909370
:104D80009312809392121092951210929412CF91D6
:104D90000895CF92DF92EF92FF920F931F93CF93DC
:104DA000DF93CDB7DEB72C970FB6F894DEBF0FBEFA
:104DB000CDBFF090EB13E090EC132091F50421119E
:104DC0001DC04CE553E16E2D8F2D0E9484FE90E0B6
:104DD00080E0F80EF092EB13E092EC1399272C96FA
:104DE0000FB6F894DEBF0FBECDBFDF91CF911F91FC
:104DF0000F91FF90EF90DF90CF900895C090B8137F
:104E0000D090B91324EB33E13A8329832F2D30E07E
:104E10003C832B832E2D30E03E832D8318861F820A
:104E20007A8769871C861B8604E315E29E012F5F43
:104E30003F4F4EEA5EE1BC01C6010E94F3ECB601B1
:104E400084EB93E10E94C1FD8F819885C2CF809150
:104E5000BE049091BF04009731F04AE050E070E04A
:104E600060E00D94331860E070E0CB0108950F937B
:104E70001F93CF938091BE049091BF040097E9F0F7
:104E8000FC018F01C1912C2F2F7D81F0C53411F0D1
:104E9000C536B9F7F801108270E060E00F94B015E4
:104EA000F801C083CF911F910F91089570E060E0E9
:104EB000CF911F910F910D94B01560E070E0CB0180
:104EC000F1CFCF92DF92EF92FF926A017B01EAD895
:104ED000882329F0FF90EF90DF90CF90C8CFC701D3
:104EE000B601FF90EF90DF90CF9008958F929F9240
:104EF000AF92BF92CF92DF92EF92FF920F931F93E8
:104F0000CF9387EAE82E85E0F82E08E612E094E8D1
:104F1000C92E92E1D92EC0E088E58C0FC3D8882332
:104F200009F474C0A4DF4B015C018C2F42D88823A4
:104F300009F462C0F8012081318142815381C501A9
:104F4000B4010F94F420F70160837183828393830B
:104F5000CF5FF4E0EF0EF11C0C5F1F4F84E0C80E32
:104F6000D11CC330C9F685E49DD8882309F459C003
:104F70007EDF6B017C0183E01CD8882371F02091D7
:104F80007402309175024091760250917702C70108
:104F9000B6010F94F4206B017C01C092B305D0924E
:104FA000B405E092B505F092B60540E050E0BA01D4
:104FB00086E487DF20E030E0A9010F941B23181658
:104FC0007CF455DF20E030E040E752E40F94D0213C
:104FD000609328027093290280932A0290932B02F7
:104FE000CF911F910F91FF90EF90DF90CF90BF90E6
:104FF000AF909F908F900895F6012081318142817A
:105000005381C501B4010F94F3209DCFF801808135
:105010009181A281B381F70180839183A283B383BD
:1050200097CF8091740290917502A0917602B09111
:1050300077028093B3059093B405A093B505B09320
:10504000B605B3CF8091BE049091BF04009731F0B4
:105050004AE050E070E060E00D94061760E070E018
:10506000CB010895EFDFCB010895CF93DF93EB01E0
:1050700019D8882319F0DF91CF91F4CFCE01DF91B9
:10508000CF910895DFDF97FD0AC0DCDF6F3F710528
:105090008105910509F02CF4D5DF862F089580E075
:1050A00008958FEF0895CF93C62F0E945220882332
:1050B00011F0CF91E7CF8C2FCF9108958091BE044E
:1050C0009091BF04892B39F0DDDF91E0811101C09F
:1050D00090E0892F089591E0FCCFCF93DF93C82F04
:1050E000D62F0E945220882319F0DF91CF91E6CF6E
:1050F0008C2F0E940420811101C08D2FDF91CF9150
:105100000895CF92DF92EF92FF920F931F93CF9368
:10511000DF936B017A01EC01C255DB4F28813CE043
:10512000389F8001399F100D112427FF24C0FB01F7
:105130001182108288818F5F888388819801280F6F
:10514000311D87FD3A95C90120914313F6012817B7
:10515000190629F024F088818C300CF43CC0808141
:105160009181049680349C4908F475C0F6018081D1
:105170009181049672C088819801280F311D87FDA6
:105180003A95C901209143132817190699F294F210
:105190008881A801480F511D87FD5A95FA01EE0F2D
:1051A000FF1FE40FF51FE550FD4E808187FFC2CF42
:1051B0008881F801E80FF11D87FDFA95CF01EE0F08
:1051C000FF1FE80FF91FE550FD4E808160E08F77EB
:1051D0000E9452F9AFCF808191812881A801420FAE
:1051E000511D27FD5A959A01FA01EE0FFF1FE20F9C
:1051F000F31FE550FD4E21813281820F931FF7018D
:105200009183808388819801280F311D87FD3A950D
:10521000F901EE0FFF1FE20FF31FE550FD4E8081F5
:1052200087FF20C08881080F111D87FD1A95F8019E
:10523000EE0FFF1FE00FF11FE550FD4E808161E092
:105240008F77DF91CF911F910F91FF90EF90DF90BB
:10525000CF900C9452F980E49CE9F701918380830C
:105260008FEF8883DF91CF911F910F91FF90EF9087
:10527000DF90CF900895CF93DF93CDB7DEB720E2D4
:10528000488559856F818E810E94EEF5DF91CF911F
:1052900008950F931F93522F2091AE133091AF13A7
:1052A0002817390771F1209185053091860537FF60
:1052B00004C010928605109285059093AF138093D9
:1052C000AE138B0130E020E000937007109371075C
:1052D00020937207309373074093690750936A07CE
:1052E0008D5B934421F410928E051092870582E025
:1052F00080935F0281E08093800710928D05109269
:105300008A051F910F91089520E040E070E060E071
:105310008DEB93E4BECFCF930E946DB90E945CA346
:10532000C82F882319F080E00E94B0A28C2F0E9421
:105330007A21CF91E9CF8091581390915913891B0D
:105340008F7089F480919A07813069F090910715E8
:1053500092FB882780F992FF07C097FB882780F986
:1053600091E08927089581E00895CF93DF93C0915C
:105370008705CC23B1F0C150C093870589E0C89F51
:10538000E0011124C15BDA4F6A817B812F814E815C
:10539000888199817EDF888580938E05DF91CF910A
:1053A0000895DF91CF91B0CFE0918705E63028F5E1
:1053B00081E08E0F809387054091700750917107AF
:1053C00060917207709173072091690790916A0745
:1053D00080918E0539E0E39FF0011124E15BFA4FE3
:1053E000A091AE13B091AF13B183A08342835383D6
:1053F00064837583268397838087089580936507E8
:1054000020E040E070E060E083E59EE242CFCF9391
:10541000DF93CDB7DEB78E8190917C10891768F04D
:1054200080937C109E01275F3F4F4F8158856AE231
:1054300070E081E590E10F94DA19DF91CF91089542
:105440000F931F93CF93DF938C016F3F19F410924A
:105450007C1060E020917C10862F062E000C990BAA
:105460002817190609F0F4F460937C10C8010F9412
:105470006119800F911FEC01C01BD10BCB32D105FC
:105480003CF00197FC012491207C2038D1F3F3CF2C
:10549000DD27AE01B80181E590E10F948219CF5A62
:1054A000DF4E1882DF91CF911F910F910895CF9316
:1054B00080914705811109C086EB94E1909389059D
:1054C0008093880581E0809347056EDF20E040E00F
:1054D00070E060E085E891E2DCDEC1E0C0938E051B
:1054E0000E94A9A610928E0540DFC0938E0560E051
:1054F00083EB95E3A5DF82EB94E190933F078093E4
:105500003E07CF9108951092460510925E02809159
:10551000071580688093071560E084EA94E190DFC6
:10552000F3CE0F931F930E9478FA009142051091D9
:1055300043052091440530914505601B710B820B9A
:10554000930B97FD0CC0809109018095881F8827D7
:10555000881F919B82604A9B846080934105809163
:10556000410581709091410591FD826090914005C7
:10557000981749F0813009F148F0823079F0833092
:1055800091F0809340051F910F910895913079F02B
:105590009230B9F790913F059F5F0CC0992339F085
:1055A0009330C1F3EECF9130A9F3923051F790913F
:1055B0003F05915090933F05E4CF992359F39330E1
:1055C00001F7F5CFCF92DF92EF92FF92CF93C82FE2
:1055D0000E9478FA6B017C0124EA30E74DE75FE333
:1055E0006091220270912302809124029091250201
:1055F0000F94121A87FD18C08AEF90E0A0E0B0E087
:105600008C0D9D1DAE1DBF1D80932F059093300501
:10561000A0933105B0933205C0931802CF91FF904B
:10562000EF90DF90CF90089580E090E0DC01E8CF2C
:1056300048DBEAE0F1E080818F77808380910B0185
:1056400080958078809309019998A19A52985A9AE6
:1056500068DF10923F050895FC0180E0309749F023
:105660009491992331F0907C903809F08F5F3196B6
:10567000F7CF0895AF92BF92CF92DF92EF92FF9251
:105680000F931F93CF93DF93EC015B018A01FB0122
:10569000199587FD16C0C82ED12CF12CE12C21962E
:1056A000F801C082D182E282F382CE01DF91CF91F4
:1056B0001F910F91FF90EF90DF90CF90BF90AF9030
:1056C0000895982F907E903CA9F48F7190E0B0E0FF
:1056D000A0E06C017D0156E0CC0CDD1CEE1CFF1C33
:1056E0005A95D1F7CE010196F50119958F73C82A05
:1056F0002296D6CF982F907F903E11F58F7090E034
:10570000B0E0A0E06C017D0136E0CC0CDD1CEE1CAD
:10571000FF1C3A95D1F7CE010196F50119958F73CB
:10572000C82A46E0CC0CDD1CEE1CFF1C4A95D1F7C4
:10573000CE010296F50119958F73C82A2396B0CF32
:10574000982F987F903F79F5877090E0B0E0A0E0C7
:105750006C017D0186E0CC0CDD1CEE1CFF1C8A95E3
:10576000D1F7CE010196F50119958F73C82A96E0FD
:10577000CC0CDD1CEE1CFF1C9A95D1F7CE010296D5
:10578000F50119958F73C82A26E0CC0CDD1CEE1CA0
:10579000FF1C2A95D1F7CE010396F50119958F7359
:1057A000C82A24967DCF982F907C903841F4807C35
:1057B000803869F42196CE01F5011995F8CF8E7FD6
:1057C0008D3F28F02196CE01F5011995F8CFC12C17
:1057D000D12C760165CF9CE0899F802D112491E02A
:1057E000980F9093F4042CE0280F2093860730E064
:1057F0002E5F3F4F4091E8134217130619F014F043
:1058000080E008952091EA139217D0F7662341F0C3
:105810008E5F0E94ECFC809186078E5F0E94ECFCFC
:10582000809186079091E813891750F32091EA132D
:105830009091F404291720F31092EB138093EC134A
:1058400081E008952091F204022E000C330B8217A0
:10585000130641F08093F2046CEE76E184EB93E161
:105860000C94C1FD0895CF92DF92EF92FF920F93B7
:105870001F93CF93DF93CDB7DEB72C970FB6F89475
:10588000DEBF0FBECDBF6F3F71058105910509F0E9
:10589000C8F480EB93E14AD9E091B813F091B913C1
:1058A0003196849190E02C960FB6F894DEBF0FBE2F
:1058B000CDBFDF91CF911F910F91FF90EF90DF90BF
:1058C000CF900895F090EB13E090EC132091F50445
:1058D00021110FC04CE753E16E2D8F2D0E9484FEE5
:1058E00090E080E0F80EF092EB13E092EC13992731
:1058F000DACFC090B813D090B91324EB33E13A83D8
:1059000029832F2D30E03C832B832E2D30E03E83E6
:105910002D8318861F822FEF3FEF3A8729871C8639
:105920001B8604E315E29E012F5F3F4FAB01BC01D4
:10593000C6010E942FECB60184EB93E10E94C1FDE9
:105940008F819885CFCF4F925F926F927F928F9287
:105950009F92BF92CF92DF92EF92FF920F931F938D
:10596000CF93DF9300D000D01F921F92CDB7DEB748
:105970007C016A014901FB0190818CE0989F800DB8
:105980001124982FF7012081822F880F820F880F12
:105990008093EB139093EC134115510561F1FA825A
:1059A000E9827C836B8301111FC0AE014B5F5F4FA7
:1059B000B401C6015FDE6C016D817E818F819885A7
:1059C0006115710581059105B1F04DDFF701808109
:1059D0008F5F8083853148F3CE0101960E94B41E0B
:1059E000E4CFB12C860129C08A01B12C26C04528FC
:1059F00046284728B1F728960FB6F894DEBF0FBEA9
:105A0000CDBFDF91CF911F910F91FF90EF90DF906D
:105A1000CF90BF909F908F907F906F905F904F90AE
:105A20000895B39407C0B1102DC001151105C9F236
:105A30000F5F1F4F01151105A9F2AE014B5F5F4FBC
:105A4000B401C60117DE6C014D805E806F807884E2
:105A50004114510461047104A9F0F0E24F1651049D
:105A60006104710401F3D301C2018D97A109B10949
:105A70000297A105B10530F04BE2441651046104D0
:105A8000710479F6F7018081482F4B0D5527551F7A
:105A90004631510534F0853020F0CE0101960E9448
:105AA000B41E81E0411451046104710409F480E0E2
:105AB000B80EF70180818B0D8083BB2009F497CF4E
:105AC000BA94AE014B5F5F4FB401C801D3DD8C01C6
:105AD0006D817E818F819885C6DEEFCF2F923F92B8
