:100000000C946C150C949D150C949D150C949D15D9
:100010000C949D150C949D150C949D150C949D1598
:100020000C949D150C949D150C949D150C949D1588
:100030000C949D150C949D150C949D150C949D1578
:100040000C949D150C9430380C949D150C949D15B2
:100050000C949D150C949D150C947B290C948BC9C4
:100060000C949D150C94DABA0C949D150C949D1566
:100070000C949D150C949D150C949D150C949D1538
:100080000C94AA390C949D150C949D150C949D15F7
:100090000C949D150C949D150C949D150C949D1518
:1000A0000C949D150C949D150C947C390C949D1505
:1000B0000C949D150C949D150C949D150C944E3923
:1000C0000C949D150C949D150C949D150C949D15E8
:1000D0000C949D150C949D150C949D150C949D15D8
:1000E0000C949D15084AD73B3BCE016E84BCBFFDE6
:1000F000C12F3D6C74319ABD56833DDA3D00C77FF8
:1001000011BED9E4BB4C3E916BAAAABE0000008090
:100110003F05A84CCDB2D44EB93836A9020C50B91F
:10012000918688083CA6AAAA2ABE000000803F004B
:100130000C9425650C94ADDE0C94CECC0C9450231D
:100140000C9459BB0C9494BB0C944AC70C94A4DB3C
:100150000C9449BE0C9455BB0C94E4D90C9496288D
:100160000C9426E40C9495C70C9486BB0C948FBB1E
:100170000C944FBB0C94FB290C94FB1D0C9461BB9D
:100180000C9414DD0C948ABB0C94CD300C941CC7D9
:100190000C949FC70C9426C70C94DD240C946ABB66
:1001A0000C9468C70C9465CF0C942B650C949F6AD3
:1001B0000C94C1C20C9455230C9437200C9491CD0F
:1001C0000C9464BB0C945EC70C9428650C94DE2AD6
:1001D0000C94B6150C9478BB0C9403C50C94BDD14B
:1001E0000C9430C70C9404BB0C948BC70C949F15D3
:1001F0000C9492650C945A230C943AC70C940E27D5
:100200000C94823B0C9424E60C94A0280C949B281C
:100210000C9481C70C94CD150C9405D10C9457CB3C
:100220000C945DBB0C94AA1A0C94374C0C9482BBB2
:100230000C94051B0C941E240C9442C70C944B2365
:100240000C9490BB0C94A41A0C9477C70C947CBBB0
:100250000C94CD720C946F620C942A210C9474BB94
:100260000C94886A0C940FC70C945F230C94F92E9D
:100270000C946EBB0C94876A0C94A9C70C942C1632
:100280000C9417C70C94EDE50C9454C70C94FA1613
:100290000C94B01A4E414E494E495459494E46CDE0
:1002A000CCCC3D0AD7233C17B7D13877CC2B32952D
:1002B00095E6241FB14F0A000020410000C842000B
:1002C000401C4620BCBE4CCA1B0E5AAEC59D744590
:1002D0004550524F4D206461746173697A652065A1
:1002E00072726F722E0A00290A0020627974657397
:1002F0003B20637263200053657474696E677320DA
:1003000053746F726564202800290A002062797492
:1003100065733B2063726320002073746F726564A1
:100320002073657474696E67732072657472696591
:10033000766564202800202863616C63756C6174A5
:10034000656429210A0020213D2000454550524F77
:100350004D20435243206D69736D61746368202D95
:10036000202873746F7265642920002053697A65B0
:100370003A2000496E6465783A2000204D61726C25
:10038000696E3D563535290A0028454550524F4D76
:100390003D00454550524F4D2076657273696F6E32
:1003A000206D69736D6174636820004861726463D5
:1003B0006F6465642044656661756C742053657470
:1003C00074696E6773204C6F616465640A008813FA
:1003D00000008813000032000000881300000000B5
:1003E000C8430000C8430000004000003442000041
:1003F000A3420000A3425258C8430000D8423A0A20
:100400000020286D6D290020204D383531205A00FC
:100410005A2D50726F6265204F66667365740020B6
:10042000440020490020204D3330312050005049F5
:10043000442073657474696E67733A0A002046003D
:1004400020420020480020204D3134352053004DFB
:100450006174657269616C20686561747570207083
:100460006172616D65746572733A0A0020204D34C3
:1004700032302053004175746F20426564204C6512
:1004800076656C696E673A0A00205A002059002090
:10049000204D323036205800486F6D65206F6666FB
:1004A0007365743A0A00204500205A002059002044
:1004B000580020540020530020204D323035205168
:1004C0000020453C6D61785F655F6A65726B3E0038
:1004D00020583C6D61785F785F6A65726B3E205989
:1004E0003C6D61785F795F6A65726B3E205A3C6D46
:1004F00061785F7A5F6A65726B3E00416476616E17
:100500006365643A20513C6D696E5F7365676D6524
:100510006E745F74696D655F75733E20533C6D69E1
:100520006E5F66656564726174653E20543C6D69FA
:100530006E5F74726176656C5F6665656472617426
:10054000653E0020540020520020204D32303420DF
:100550005000416363656C65726174696F6E202839
:10056000756E6974732F7332293A20503C7072692A
:100570006E745F616363656C3E20523C7265747299
:100580006163745F616363656C3E20543C747261A7
:1005900076656C5F616363656C3E0A0020450020F0
:1005A0005A0020590020204D3230312058004D6132
:1005B00078696D756D20416363656C6572617469FE
:1005C0006F6E2028756E6974732F7332293A0A0092
:1005D000204500205A0020590020204D3230332081
:1005E00058004D6178696D756D206665656472614E
:1005F0007465732028756E6974732F73293A0A0025
:10060000204500205A0020590020204D3932205822
:100610000053746570732070657220756E69743A4A
:100620000A0020204D3230302044300A0020204D76
:100630003230302044002044697361626C65640A82
:100640000046696C616D656E742073657474696EC3
:1006500067733A0020204D3134392043203B205528
:100660006E69747320696E2043656C736975730AD3
:10067000002020473231202020203B00545249479F
:100680004745524544006F70656E003A20007A5F1E
:100690006D696E00795F6D696E00785F6D696E00DF
:1006A0005265706F7274696E6720656E6473746FE3
:1006B00070207374617475730A0020746F6F206CFE
:1006C0006F6E6720657874727573696F6E207072D3
:1006D0006576656E7465640A0020636F6C642065DE
:1006E0007874727573696F6E2070726576656E745A
:1006F00065640A0024F4D43050C38E20C2A240178F
:10070000828B7011127A910D816CD90AA861E1086F
:10071000C7586607615143061E4B5D05C145A704D6
:100720001A411104093D9803713931034036DB0247
:1007300065339102D4305402802E1D02632CEE01E9
:10074000752AC501B028A001102781018F256401F9
:100750002B244B01E0223401AC211F018D200D011F
:10076000801FFC00841EED00971DDF00B81CD20026
:10077000E61BC600201BBC00641AB200B219A80018
:100780000A19A0006A189900D117910040178B0030
:10079000B516840031167E00B31579003A15730042
:1007A000C7146F0058146A00EE13660088136300C4
:1007B00025135E00C7125B006C125700151254001F
:1007C000C111510070114F0021114B00D61049008A
:1007D0008D1047004610440002104200C00F400038
:1007E000800F3E00420F3C00060F3B00CB0E38004E
:1007F000930E37005C0E3500270E3400F30D3200E7
:10080000C10D3100900D3000600D2E00320D2D0015
:10081000050D2C00D90C2B00AE0C2900850C2900ED
:100820005C0C2700350C27000E0C2600E80B24007A
:10083000C40B2400A00B23007D0B23005A0B2100C6
:10084000390B2100180B2000F80A1F00D90A1E00DE
:10085000BB0A1E009D0A1D00800A1D00630A1C00C1
:10086000470A1B002C0A1B00110A1A00F7091A007C
:10087000DD091900C4091900AB0919009209170014
:100880007B091800630917004C0916003609160089
:10089000200916000A091500F5081500E0081400E3
:1008A000CC081400B8081400A40814009008130021
:1008B0007D0812006B081300580812004608120049
:1008C000340811002308110012081100010811005A
:1008D000F0071000E0071000D0071000C00710005C
:1008E000B0070F00A107100091070E0083070F004B
:1008F00074070F0065070E0057070E0049070E002A
:100900003B070D002E070E0020070D0013070D00FA
:1009100006070D00F9060C00ED060D00E0060C00C0
:10092000D4060C00C8060C00BC060C00B0060C0077
:10093000A4060B0099060C008D060B0082060B0026
:1009400077060B006C060B0061060A0057060B00C9
:100950004C060A0042060A0038060A002E060A0063
:1009600024060A001A060A001006090007060A00F3
:10097000FD050900F4050900EB050900E205090081
:10098000D9050900D0050900C7050900BE05090001
:10099000B5050800AD050800A50509009C0508007F
:1009A000940508008C050800840508007C050800F3
:1009B000740508006C050700650508005D05070063
:1009C000560508004E0507004705070040050800CA
:1009D00038050700310507002A0507002305070031
:1009E0001C050600160507000F0507000805060090
:1009F00002050700FB040600F5040700EE040600EC
:100A0000E8040600E2040700DB040600D504060043
:100A1000CF040600C9040600C3040600BD04060096
:100A2000B7040600B1040500AC040600A6040600E5
:100A3000A00405009B040600950405009004060030
:100A40008A04050085040500800406007A04050078
:100A500075040500700405006B04050066040500BC
:100A6000610405005C0405005704050052040500FC
:100A70004D04050048040500430405003E0404003D
:100A80003A04050035040500300404002C04050078
:100A900027040400230405001E0404001A040400B3
:100AA00016040500110404000D04040009040500E7
:100AB0000404040000040400FC030400F803040020
:100AC000F4030400F0030400EC030400E803040052
:100AD000E4030400E0030400DC030400D803040082
:100AE000D4030400D0030400CC030400C8030300B3
:100AF000C503030024F404D9201BC40C5C0E980425
:100B0000C4095F0265077101F405F900FB04B30035
:100B100048048700C10369005803550003034500DA
:100B2000BE023A008402310053022A002902250045
:100B300004022000E4011C00C8011900AF011700E5
:100B4000980114008401130071011000610110006C
:100B500051010E0043010D0036010B002B010B006B
:100B600020010B00150109000C0109000301080018
:100B7000FB000800F3000800EB000700E40006009B
:100B8000DE000600D8000600D2000600CC000500FA
:100B9000C7000500C2000500BD000400B900040044
:100BA000B5000400B1000400AD000400A900040079
:100BB000A5000300A20003009F0004009B000300A7
:100BC00098000300950002009300030090000300CA
:100BD0008D0002008B0003008800020086000200E6
:100BE00084000300810002007F0002007D000200FB
:100BF0007B0002007900020077000100760002000D
:100C00007400020072000100710002006F00020017
:100C10006D0001006C0002006A0001006900020022
:100C20006700010066000100650001006400020029
:100C30006200010061000100600001005F0002002D
:100C40005D0001005C0001005B0001005A00010032
:100C50005900010058000100570001005600010032
:100C60005500010054000100530000005300010032
:100C70005200010051000100500001004F0001002E
:100C80004E0000004E0001004D0001004C0001002C
:100C90004B0000004B0001004A0001004900010028
:100CA0004800000048000100470001004600000025
:100CB000460001004500000045000100440001001D
:100CC0004300000043000100420000004200010018
:100CD0004100000041000100400001003F00000011
:100CE0003F0001003E0000003E0001003D0000000A
:100CF0003D0001003C0000003C0000003C00010001
:100D00003B0000003B0001003A0000003A000100F7
:100D100039000000390001003800000038000000F0
:100D200038000100370000003700010036000000E5
:100D300036000000360001003500000035000000DC
:100D400035000100340000003400000034000100D0
:100D500033000000330000003300010032000000C7
:100D600032000000320001003100000031000000BC
:100D700031000100300000003000000030000100B0
:100D80002F0000002F0000002F0000002F000100A6
:100D90002E0000002E0000002E0001002D0000009B
:100DA0002D0000002D0000002D0001002C0000008F
:100DB0002C0000002C0000002C0001002B00000083
:100DC0002B0000002B0000002B0001002A00000077
:100DD0002A0000002A0000002A000100290000006B
:100DE000290000002900000029000000290001005E
:100DF0002800000028000000280000002800000053
:100E00002800010027000000270000002700000044
:100E10002700000027000100260000002600000037
:100E2000260000002600000026000100250000002A
:100E3000250000002500000025000000250000001E
:100E40002500010024000000240000002400000010
:100E50002400000024000100230000002300000003
:100E600023000000230000002300000023000000F6
:100E700023000100220000002200000022000000E8
:100E800022000000220000002200010021000000DA
:100E900021000000210000002100000021000000CE
:100EA00021000000210001002000000020000000BF
:100EB00020000000200000002000000020000000B2
:100EC00020000000200001001F0000001F000000A3
:100ED0001F0000001F0000001F0000001F00000096
:100EE0001F0001001E0000001E0000001E00000088
:100EF0001E000000043700001E290000511B0000E6
:100F00005810000010090000CC0400007802000016
:100F1000410100006265640A002C207379737465D6
:100F20006D2073746F70706564212048656174650D
:100F3000725F49443A2000426564206865617469C3
:100F40006E67206661696C65640048656174696EEE
:100F500067206661696C656400453120486561748D
:100F6000696E67206661696C6564004865617469D3
:100F70006E67206661696C65640070012C019001E8
:100F80002701B0012201C0011D01F001180110026A
:100F9000130130020E016002090190020401C00237
:100FA000FF000003FA004003F5008003F000D003C7
:100FB000EB002004E6007004E100E004DC004005E2
:100FC000D700C005D2004006CD00D006C80080077B
:100FD000C3003008BE00F008B900C009B400B00A70
:100FE000AF00B00BAA00D00CA500000EA000500F5F
:100FF0009B00C01096005012910000148C00C01588
:101000008700B0178200B0197D00D01B7800001E49
:10101000730040206E0090226900F0246400402795
:101020005F0090295A00E02B5500102E5000203010
:101030004B0010324600E033410090353C00103741
:10104000370070383200A0392D00B03A2800A03B9C
:101050002300603C1E00103D1900903D1400103E1E
:101060000F00703E0A00C03E0500003F0000403FF8
:10107000FBFF803FF6FFC03FF1FF4531205448455C
:10108000524D414C2052554E415741590042454422
:1010900020544845524D414C2052554E41574159DC
:1010A00000546865726D616C2052756E617761796C
:1010B000004531204572723A204D415854454D50FB
:1010C000004572723A204D415854454D50204245DA
:1010D00044004D415854454D50207472696767650E
:1010E000726564004531204572723A204D494E5474
:1010F000454D50004572723A204D494E54454D5071
:1011000020424544004D494E54454D50207472696B
:10111000676765726564004D383420582059205A3D
:10112000204500202F002042403A0020403A002570
:10113000753A2530327500253032753A25303275D2
:10114000002D2D2D005344002020202020200020A1
:101150002020200047656565746563682049332059
:1011600050726F20422052656164792E005072697E
:101170006E74696E672E2E2E005072696E74207028
:1011800061757365640053746F7720424C546F75BA
:101190006368004D323830205030205339300044DD
:1011A00065706C6F7920424C546F756368004D32E6
:1011B00038302050302053313000424C546F75632A
:1011C000682053656C662D54657374004D32383059
:1011D0002050302053313230005265736574204204
:1011E0004C546F756368004D3238302050302053B6
:1011F000313630004D61696E005072696E74206145
:10120000626F72746564005072696E742066726FEA
:101210006D2053440053746F70207072696E7400B7
:10122000526573756D65207072696E74004E6F2023
:10123000534420636172640050617573652070725D
:10124000696E7400436F6E74726F6C0050726570DB
:101250006172650054756E6500496E666F20736338
:101260007265656E00466C6F7700466C6F7700465E
:10127000616E2073706565640046616E20737065F1
:1012800065640042656400426564004E6F7A7A6C62
:1012900065004E6F7A7A6C65005370656564005323
:1012A00070656564004D61696E00507265686561C6
:1012B0007420504C4120456E640050726568656131
:1012C0007420504C4120426564005072656865612D
:1012D0007420504C4100507265706172650050720C
:1012E00065686561742041425320456E6400507208
:1012F0006568656174204142532042656400507204
:101300006568656174204142530050726570617276
:1013100065004D343238004D323830205030205383
:1013200031363000424C546F7563682053656C66EB
:101330002D54657374004D323830205030205331B5
:10134000323000507265686561742041425300502C
:1013500072656865617420504C4100436F6F6C6426
:101360006F776E00526573657420424C546F7563DD
:10137000680044697361626C6520737465707065A0
:101380007273004D38340053657420686F6D6520AA
:101390006F666673657473004F6666004F6E20005B
:1013A000426564204C6576656C696E67004C6576B5
:1013B000656C20626564004732380A473239004163
:1013C00075746F20686F6D6500473238004D6F7619
:1013D000652061786973004D61696E004D6F7665B7
:1013E0002058004D6F76652059004D6F7665205A64
:1013F000004578747275646572004D6F76652030B3
:101400002E316D6D004D6F766520316D6D004D6F25
:1014100076652031306D6D004D6F7665206178699D
:1014200073004578747275646572004D6F7665203F
:101430005A004D6F76652059004D6F766520580033
:101440004578747275646572004D6F7665205A0038
:101450004D6F76652059004D6F76652058005072AB
:10146000657061726500496E697469616C697A655D
:1014700020454550524F4D00436F6E74726F6C00A3
:10148000526573746F7265206661696C736166651D
:10149000004C6F61642073657474696E67730049F2
:1014A0006E697469616C697A6520454550524F4D8B
:1014B0000053746F72652073657474696E6773008E
:1014C000424C546F7563680046696C616D656E745B
:1014D000004D6F74696F6E0054656D706572617454
:1014E000757265004D61696E005072656865617462
:1014F0002041425320636F6E6600507265686561DB
:101500007420504C4120636F6E66005049442D4456
:10151000005049442D44005049442D49005049444D
:101520002D49005049442D50005049442D50002071
:10153000022046616374002002204661637400202B
:1015400002204D6178002002204D617800200220A9
:101550004D696E002002204D696E004F6666004F97
:101560006E20004175746F74656D700046616E2069
:1015700073706565640046616E2073706565640014
:1015800042656400426564004E6F7A7A6C65004E75
:101590006F7A7A6C6500436F6E74726F6C0053746F
:1015A0006F72652073657474696E67730042656459
:1015B00000426564004E6F7A7A6C65004E6F7A7AED
:1015C0006C650046616E2073706565640046616EEF
:1015D0002073706565640054656D70657261747523
:1015E0007265005654726176206D696E00565472B1
:1015F0006176206D696E00566D696E00566D696E7C
:1016000000566D6178204500566D61782045005682
:101610006D6178205A00566D6178205A00566D61D0
:1016200078205900566D6178205900566D617820F8
:101630005800566D61782058004D6F74696F6E00C8
:10164000416D6178204500416D6178204500416D14
:101650006178205A00416D6178205A00416D6178AF
:10166000205900416D6178205900416D6178205802
:1016700000416D6178205800412D74726176656C6F
:1016800000412D74726176656C00412D7265747233
:1016900061637400412D726574726163740041630B
:1016A00063656C00416363656C004D6F74696F6EB8
:1016B00000434F4D4D554E49434154494F4E004410
:1016C000525952554E004552524F525300494E46C0
:1016D0004F004543484F00656E7175657565696ECD
:1016E000672022004B494C4C45442E200053544F58
:1016F000505045442E20005072696E7465722073FC
:10170000746F707065642064756520746F206572F5
:10171000726F72732E204669782074686520657236
:10172000726F7220616E6420757365204D3939398E
:1017300020746F20726573746172742E2028546552
:101740006D7065726174757265206973207265735E
:1017500065742E2053657420697420616674657207
:101760002072657374617274696E67290A004E6F26
:1017700020436865636B73756D2077697468206CAE
:10178000696E65206E756D6265722C204C61737494
:10179000204C696E653A20004E6F20436865636B8C
:1017A00073756D2077697468206C696E65206E753D
:1017B0006D6265722C204C617374204C696E653AC1
:1017C0002000636865636B73756D206D69736D616F
:1017D0007463682C204C617374204C696E653A20E8
:1017E000004C696E65204E756D62657220697320CC
:1017F0006E6F74204C617374204C696E65204E7559
:101800006D6265722B312C204C617374204C696EB3
:10181000653A20004D313130004D333100534420C2
:1018200072656164206572726F720A00446F6E6542
:10183000207072696E74696E672066696C650A0053
:1018400020496E76616C6964206578747275646590
:101850007220000000A04000000000000000000016
:101860000049430000404300003943486F6D696EF2
:1018700067206661696C6564000A0A426564204CF1
:101880006576656C20436F7272656374696F6E2054
:101890004D61747269783A00202B000A436F7272AE
:1018A000656374656420426564204865696768748F
:1018B0002076732E2042656420546F706F6C6F67C2
:1018C000793A0A00202B000A42656420486569675E
:1018D000687420546F706F6772617068793A0A207B
:1018E00020202B2D2D2D204241434B202D2D2B0A26
:1018F0002020207C20202020202020202020207C30
:101900000A204C207C20202020282B292020202049
:101910007C20520A2045207C2020202020202020CE
:101920002020207C20490A2046207C20282D2920A8
:101930004E20282B29207C20470A2054207C202060
:101940002020202020202020207C20480A20202029
:101950007C20202020282D29202020207C20540A93
:101960002020207C20202020202020202020207CBF
:101970000A2020204F2D2D2046524F4E54202D2D31
:101980002B0A2028302C30290A004D65616E206F0B
:10199000662073616D706C656420706F696E74731E
:1019A0003A200020643A200020623A200045716EFF
:1019B00020636F656666696369656E74733A20615A
:1019C0003A2000202844525952554E2900473239B6
:1019D000204175746F20426564204C6576656C69A2
:1019E0006E67003F20284C2C522C462C4229206F39
:1019F0007574206F6620626F756E64732E0A003FE7
:101A000050726F626520706F696E74732028592957
:101A100020697320696D706C61757369626C6520F3
:101A200028322D33292E0A003F50726F62652070D4
:101A30006F696E74732028582920697320696D704E
:101A40006C61757369626C652028322D33292E0A0A
:101A5000003F2856296572626F7365206C65766554
:101A60006C20697320696D706C61757369626C6557
:101A70002028302D34292E0A0044656C6574696F66
:101A80006E206661696C65642C2046696C653A203D
:101A90000046696C652064656C657465643A005045
:101AA000726F7465637465642050696E0A00205714
:101AB0003A004520436F6F6C696E672E2E2E0045ED
:101AC0002048656174696E672E2E2E0020573A00FB
:101AD00042656420636F6F6C696E672E2E2E004224
:101AE00065642068656174696E672E2E2E00205A29
:101AF0003A0020593A0020436F756E7420583A001E
:101B000020453A00205A3A0020593A00583A003A03
:101B1000004361703A00205A0020590058002020EC
:101B20004D61783A2000205A0020590058002020AA
:101B30004D696E3A20004F6E20004F666600536F6D
:101B4000667420656E6473746F70733A2000496E1A
:101B500076616C69642065787472756465720A00D8
:101B600020643A0020693A0020703A0023646566D8
:101B7000696E652044454641554C545F4B642000D6
:101B800023646566696E652044454641554C545F43
:101B90004B69200023646566696E652044454641B3
:101BA000554C545F4B702000504944204175746F70
:101BB00074756E652066696E69736865642120506E
:101BC000757420746865206C617374204B702C20D0
:101BD0004B6920616E64204B6420636F6E73746187
:101BE0006E74732066726F6D2062656C6F7720690A
:101BF0006E746F20436F6E66696775726174696F8A
:101C00006E2E680A00504944204175746F74756ED9
:101C100065206661696C6564212074696D656F7506
:101C2000740A00453120544845524D414C205255CC
:101C30004E4157415900546865726D616C20527570
:101C40006E617761790045312048656174696E671E
:101C5000206661696C65640048656174696E67201F
:101C60006661696C656400504944204175746F7405
:101C7000756E65206661696C6564212054656D70C0
:101C80006572617475726520746F6F20686967682A
:101C90000A00204B643A2000204B693A2000204B78
:101CA000703A20000A20436C6173736963205049C5
:101CB00044200A002054753A2000204B753A200039
:101CC000206D61783A2000206D696E3A2000206412
:101CD0003A200020626961733A2000504944204153
:101CE00075746F74756E652073746172740A005038
:101CF0004944204175746F74756E65206661696C26
:101D00006564212054656D7065726174757265201B
:101D1000746F6F20686967680A00504944204175F4
:101D2000746F74756E65206661696C65642120420C
:101D30006164206578747275646572206E756D6279
:101D400065720A004F666673657473206170706C0B
:101D5000696564004572723A20546F6F2066617243
:101D60002100546F6F206661722066726F6D207261
:101D700065666572656E636520706F696E740A00D2
:101D800047322F47332062616420706172616D6554
:101D9000746572730A00536C6565702E2E2E0048B0
:101DA0006F6D652058592066697273740A00486F18
:101DB0006D6520585920666972737400205A3A2064
:101DC0000020593A200042656420583A2000436CB4
:101DD00069636B20746F20726573756D652E2E2E8E
:101DE000004E6F206D6F76652E00456E642066692B
:101DF0006C65206C6973740A00426567696E2066C1
:101E0000696C65206C6973740A00286E6F206669BE
:101E10006C65290043757272656E742066696C6525
:101E20003A20005344207072696E74696E672062B4
:101E300079746520004E6F74205344207072696E6F
:101E400074696E670A002569730025696D2025692C
:101E500073002569682025696D202569730025694F
:101E600064202569682025696D202569730025692E
:101E70007920256964202569682025696D202569F8
:101E800073005072696E742074696D653A20006F3A
:101E9000666600D216CD16C616BF16B11644454268
:101EA00055473A004B494C4C45442E20004D3131AA
:101EB000332053006F6B0047656565746563682068
:101EC00049332050726F2042204F66662E002C202E
:101ED000002C2000544845524D414C5F50524F5405
:101EE000454354494F4E004155544F5245504F526F
:101EF000545F53445F53544154555300454D45522C
:101F000047454E43595F5041525345520043415358
:101F1000455F4C494748545F4252494748544E45F3
:101F2000535300544F47474C455F4C49474854531F
:101F300000534F4654574152455F504F574552004A
:101F40004255494C445F50455243454E54004C4520
:101F500056454C494E475F44415441005A5F5052E8
:101F60004F4245004155544F4C4556454C00505248
:101F7000494E545F4A4F420050524F4752455353C7
:101F8000004155544F5245504F52545F54454D50A7
:101F900000564F4C554D455452494300454550520B
:101FA0004F4D0053455249414C5F584F4E5F584F7B
:101FB0004646004649524D574152455F4E414D45B8
:101FC0003A4D61726C696E20312E312E395F424676
:101FD0005F30323130323031395F30332028577939
:101FE000736F636B692920534F555243455F434FCD
:101FF00044455F55524C3A68747470733A2F2F679A
:1020000069746875622E636F6D2F4D61726C696EB5
:102010004669726D776172652F4D61726C696E20D1
:1020200050524F544F434F4C5F56455253494F4EB9
:102030003A312E30204D414348494E455F54595066
:10204000453A476565657465636820493320507279
:102050006F20422045585452554445525F434F55D6
:102060004E543A3120555549443A636564653261AE
:1020700032662D343161322D343734382D396231A6
:10208000322D6335356336326633363766660A007D
:102090002F2F20004D31343520533C696E64657814
:1020A0003E206F7574206F662072616E6765202810
:1020B000302D31290A00205400205200416363650D
:1020C0006C65726174696F6E3A20500020466C6FC7
:1020D000773A2000000119171B16FFFFFFFF1F2191
:1020E0001D1AFFFFFFFF2527231EFFFFFFFFFFFF36
:1020F0000C0407FFFFFF2B2D29FFFFFF044002FF09
:102100003E3A200020536572766F2000206F757470
:10211000206F662072616E67650A00536572766F84
:10212000200043290A0061626C656420286D696E95
:102130002074656D702000436F6C64206578747244
:10214000756465732061726520004E6F2063617352
:1021500065206C696768740A00426564204C657686
:10216000656C696E6720004661696C656420746FF8
:1021700020656E61626C6520426564204C65766501
:102180006C696E670A00426564204C6576656C2058
:10219000436F7272656374696F6E204D617472690A
:1021A000783A00454550524F4D204F4B0A003F5A58
:1021B000206F7574206F662072616E676520282D10
:1021C000323020746F203230290A003A20005072D9
:1021D0006F6265205A204F666673657400416374B0
:1021E0006976652045787472756465723A20004995
:1021F0006E76616C69642065787472756465720AC4
:1022000000526573656E643A20006F6B0020746F36
:102210006F206C6F6E6720657874727573696F6E6E
:102220002070726576656E7465640A0020636F6C59
:102230006420657874727573696F6E20707265764C
:10224000656E7465640A00627573793A2070617511
:1022500073656420666F7220696E7075740A00621F
:102260007573793A2070617573656420666F7220AA
:10227000757365720A00627573793A2070726F63C4
:10228000657373696E670A004B494C4C45442E20B8
:10229000004B494C4C206361757365642062792062
:1022A000746F6F206D75636820696E616374697601
:1022B000652074696D65202D2063757272656E747A
:1022C00020636F6D6D616E643A2000506C656173C0
:1022D00065207265736574005052494E5445522012
:1022E00048414C544544005072696E7465722068D0
:1022F000616C7465642E206B696C6C2829206361A5
:102300006C6C6564210A000000A040000000000021
:1023100000000000007042000070420000704200A7
:102320000000005761726E696E673A20486F6D69F0
:102330006E672042756D702044697669736F7220F4
:102340003C20310A000202040000A0400000A0402E
:1023500000000040000044430000404300003943B7
:10236000FFFFFF7C3C3E5E2B3D3F2F5B5D3B2C2AFD
:10237000225C004572726F722077726974696E67B1
:1023800020746F20454550524F4D210A0056652D4F
:102390006A65726B0056652D6A65726B00567A2D00
:1023A0006A65726B00567A2D6A65726B0056792DDC
:1023B0006A65726B0056792D6A65726B0056782DCE
:1023C0006A65726B0056782D6A65726B004D6F748A
:1023D000696F6E004573746570732F6D6D00457382
:1023E000746570732F6D6D005A73746570732F6D03
:1023F0006D005A73746570732F6D6D005973746539
:1024000070732F6D6D005973746570732F6D6D004F
:102410005873746570732F6D6D00587374657073A5
:102420002F6D6D004D6F74696F6E0053746570731E
:102430002F6D6D004A65726B00416363656C657258
:102440006174696F6E0056656C6F636974790050D2
:10245000726F6265205A204F666673657400507211
:102460006F6265205A204F666673657400436F6E15
:1024700074726F6C0046696C2E204469612E0046B0
:10248000696C2E204469612E004F6666004F6E20F5
:10249000004520696E206D6D3300436F6E74726F5E
:1024A0006C0043616E6E6F7420656E74657220738C
:1024B00075626469723A2000052E2E004D61696EC6
:1024C00000436172642072656D6F766564004361DC
:1024D000726420696E73657274656400001C1F115C
:1024E000111F00000006191803130C00040E1F042E
:1024F0001C000000000E1315110E00001C10181710
:1025000005060500040A0A0A0A11110E0C12120C23
:1025100000000000001F1511151F00000000210021
:10252000240027002A002D003000330001010000A4
:10253000040107010A0100002200250028002B00E9
:102540002E003100340002010000050108010B01DA
:10255000000020002300260029002C002F0032005C
:102560000001000003010601090105050505070535
:1025700008080808020202020A0A080804040404FF
:10258000010101010101010103030303030303032B
:10259000040707070C0C0C0C0C0C0C0C02020202BA
:1025A00006060606060606060B0B0B0B0B0B0B0BA3
:1025B0000102102020080810204010204080020155
:1025C000020108040201010204081020408080403A
:1025D0002010080402018004020180402010080439
:1025E00002010804020101020408102040800102D7
:1025F00004081020408000000A0B02090C0D0E0890
:1026000007030401000000000000000000000000BB
:1026100000000000000000000000000000000000BA
:102620000000121110000000000000000000000077
:10263000000000000000000000000000000000009A
:10264000010204040000001C1C0C0404040201002C
:102650000000000004081000000000002D2D2D2DAA
:102660002D2D007C4D61726C696E7C002D2D2D2D01
:102670002D2D00687474703A2F2F6D61726C696E25
:1026800066772E6F726700687474703A2F2F6D61D1
:10269000726C696E66772E6F726700312E312E393B
:1026A0005F42465F30323130323031395F30330093
:1026B000312E312E395F42465F3032313032303187
:1026C000395F303300002020506C616E6E657242BD
:1026D000756666657242797465733A2000204672A9
:1026E0006565204D656D6F72793A2000436F6D709E
:1026F000696C65643A20446563203135203230329C
:10270000300A00207C20417574686F723A20286A74
:102710006F6E7361672C205779736F636B692C2020
:10272000477465636820312E312E39204275676603
:102730006978203032313032303139290A00323074
:1027400031392D30322D313000204C6173742055D9
:102750007064617465643A2000312E312E395F4215
:10276000465F30323130323031395F30330A004D1C
:1027700061726C696E0020536F66747761726520B8
:1027800052657365740A00205761746368646F67EB
:102790002052657365740A002042726F776E206F55
:1027A00075742052657365740A00204578746572EB
:1027B0006E616C2052657365740A00506F776572A4
:1027C00055700A0073746172740A006175746F2524
:1027D000692E67006572726F722077726974696E14
:1027E0006720746F2066696C650A00456E647374B7
:1027F0006F707320256320256320256320256300E7
:10280000205A3A0020593A0020583A00656E647305
:10281000746F7073206869743A2000446F6E65208D
:10282000736176696E672066696C652E0A004D32A9
:1028300039004D3234004D323320257300556E6B14
:102840006E6F776E20636F6D6D616E643A2022004B
:1028500050726F62696E67206661696C65640A0018
:1028600050726F62696E67206661696C65640020F2
:102870005A3A200020593A200042656420583A20F4
:102880000053544F505045442E20005072696E74CE
:1028900065722073746F7070656420647565207450
:1028A0006F206572726F72732E204669782074688B
:1028B00065206572726F7220616E64207573652089
:1028C0004D39393920746F20726573746172742EBA
:1028D000202854656D706572617475726520697326
:1028E0002072657365742E205365742069742061AD
:1028F000667465722072657374617274696E67299B
:102900000A0053544F502063616C6C65642062650B
:102910006361757365206F6620424C546F75636800
:10292000206572726F72202D2072657374617274EB
:102930002077697468204D3939390A00486F6D6510
:1029400020257325732573206669727374002066D1
:10295000697273740A005A0059005800486F6D6517
:10296000200053442063617264206F6B0A006F7013
:10297000656E526F6F74206661696C65640A0076DB
:102980006F6C756D652E696E6974206661696C6522
:10299000640A00534420696E6974206661696C0A98
:1029A0000057726974696E6720746F2066696C6580
:1029B0003A20006F70656E206661696C65642C203A
:1029C00046696C653A20006F70656E206661696CBF
:1029D00065642C2046696C653A200046696C652068
:1029E00073656C65637465640A002053697A653A9F
:1029F000200046696C65206F70656E65643A200042
:102A00002066696C653A2000646F696E67006672C3
:102A1000657368004E6F772000454E442053554241
:102A2000524F5554494E450A002220706F730022C0
:102A300020706172656E743A2200535542524F55B0
:102A400054494E452043414C4C2074617267657473
:102A50003A22004B494C4C45442E2000747279694F
:102A60006E6720746F2063616C6C207375622D67D4
:102A7000636F64652066696C65732077697468208C
:102A8000746F6F206D616E79206C6576656C732E46
:102A9000204D4158206C6576656C2069733A00457D
:102AA00072726F723A006F70656E206661696C6554
:102AB000642C2046696C653A200043616E6E6F7429
:102AC000206F70656E2073756264697220006563A3
:102AD000686F3A0024E6EDE511241FBECFEFD1E286
:102AE000DEBFCDBF00E00CBF13E0A0E0B2E0E0EC41
:102AF000F3EF01E00BBF02C007900D92AA32B107BD
:102B0000D9F722E1AAE2B3E001C01D92A53CB207C9
:102B1000E1F715E1CBE6D5E100E006C02197010918
:102B2000802FFE010E9447F9CA36D10780E00807CE
:102B3000A9F70E9454E70C94CEF90C9400002CEAFB
:102B400035EC47E25EE360917809709179098091F4
:102B50007A0990917B090E94FBF66093410870937B
:102B60004208809343089093440808952CEA35EC7A
:102B700047E25EE360917C0970917D0980917E0956
:102B800090917F090E9410F2609345087093460867
:102B900080934708909348080895609112027091BD
:102BA0001302072E000C880B990B0E94B1F12AE04A
:102BB00037ED43E25CE30E9410F220912C08309143
:102BC0002D0840912E0850912F080E9410F260931A
:102BD0000E0270930F0280931002909311020895D9
:102BE00090916F00292F227091FF05C090916F0086
:102BF0009D7F90936F0034E0839FC0011124FC01FE
:102C0000ED5EF74F40815181628173818051974F12
:102C1000FC01408351836283738381E080931208B7
:102C2000222329F080916F00826080936F000895C5
:102C3000BC012091EE083091EF084091EE085091D0
:102C4000EF082417350731F481E02617370709F01C
:102C500080E008959A01F1CFCF92DF92EF92FF9238
:102C60008091EF0A882309F457C0C090EB0AD090F6
:102C7000EC0AE090ED0AF090EE0A20E030E0A901C5
:102C8000C701B6010E94AAF1882309F445C020E0DB
:102C900030E040E05FE3C701B6010E9410F29B0103
:102CA000AC010E9410F22BED3FE049E450E40E9499
:102CB00010F29B01AC0160E070E080E89FE30E94AD
:102CC000FBF66B017C01C0922C08D0922D08E0929B
:102CD0002E08F0922F086091120270911302072EB5
:102CE000000C880B990B0E94B1F12AE037ED43E20A
:102CF0005CE30E9410F2A70196010E9410F260931B
:102D00000E0270930F028093100290931102FF90B5
:102D1000EF90DF90CF900895C12CD12C80E8E82E61
:102D20008FE3F82ED0CFCF93DF938091080B8111E2
:102D300005C08091090B882309F459C080918A0845
:102D4000009B4FC0816080938A0880918A08049913
:102D50004AC08D7F80938A0880918A08379945C040
:102D60008B7F80938A08C091E108C0FF10C08091DA
:102D7000A70880FF0CC080918A0880FF08C080915E
:102D8000F30C81608093F30C80E00E94F015C1FF8A
:102D900010C08091A70881FF0CC080918A0881FF34
:102DA00008C08091F30C82608093F30C81E00E9454
:102DB000F015C2FF1CC08091A70882FF18C0809147
:102DC000090B8823A1F080918A0882FF10C08091AE
:102DD000F30C84608093F30C82E0DF91CF910C942C
:102DE000F0158E7FB0CF8260B5CF8460BACFDF910F
:102DF000CF9108950C94EDC7CF92DF92EF92FF929E
:102E0000CF93C82F0E94E1C76B017C0124EA30E711
:102E10004DE75FE3609172097091730980917409C5
:102E2000909175090E94AAF187FD18C08AEF90E081
:102E3000A0E0B0E08C0D9D1DAE1DBF1D8093F10A7A
:102E40009093F20AA093F30AB093F40AC093340269
:102E5000CF91FF90EF90DF90CF90089580E090E0C9
:102E6000DC01E8CFCF93DF9300D01F92CDB7DEB760
:102E7000882349F00E9459D20F900F900F900F9025
:102E8000DF91CF91089588EB91E09C838B8384E15F
:102E900090E09A838983BE016D5F7F4FCE010196DA
:102EA0000E9403C0E9CF1F93CF93DF93182FEB014C
:102EB000FE018491219681110AC0CBE8D6E0FE0183
:102EC00084912196882331F00E94127CF8CF0E94D1
:102ED000127CEECFC6E8D6E0112311F0CCE7D6E0A5
:102EE000FE0184912196882319F00E94127CF8CF6C
:102EF0008AE0DF91CF911F910C94127CCF93DF93E6
:102F00008F389240A1F0CFE9DAE2FE018491219658
:102F100081110AC0CFECD2E0FE0184912196882372
:102F200051F00E94127CF8CF0E94127CEECF80E01C
:102F3000DF91CF91089581E0FBCFCF92DF92EF92A6
:102F4000FF920F931F93CF93DF936B017A01EC01F4
:102F5000CC55D74F28813CE0389F8001399F100D18
:102F6000112427FF24C0FB011182108288818F5F0A
:102F7000888388819801280F311D87FD3A95C90102
:102F80002091F90FF6012817190629F024F08881FD
:102F90008C300CF43CC080819181049680349C4933
:102FA00008F475C0F60180819181049672C0888111
:102FB0009801280F311D87FD3A95C9012091F90F1D
:102FC0002817190699F294F28881A801480F511D1B
:102FD00087FD5A95FA01EE0FFF1FE40FF51FE35727
:102FE000F04F808186FFC2CF8881F801E80FF11D84
:102FF00087FDFA95CF01EE0FFF1FE80FF91FE3578A
:10300000F04F808160E08F730E941FC4AFCF80813A
:1030100091812881A801420F511D27FD5A959A01DF
:10302000FA01EE0FFF1FE20FF31FE357F04F21816C
:103030003281820F931FF7019183808388819801E9
:10304000280F311D87FD3A95F901EE0FFF1FE20FA2
:10305000F31FE357F04F808186FF20C08881080F5F
:10306000111D87FD1A95F801EE0FFF1FE00FF11FEC
:10307000E357F04F808161E08F73DF91CF911F9113
:103080000F91FF90EF90DF90CF900C941FC480E4DD
:103090009CE9F701918380838FEF8883DF91CF9143
:1030A0001F910F91FF90EF90DF90CF9008954F9276
:1030B0005F926F927F928F929F92AF92BF92CF92C8
:1030C000DF92EF92FF92CF93DF93CDB7DEB76A978F
:1030D0000FB6F894DEBF0FBECDBF9A8F898F5B010C
:1030E0004A01DC01D7966D917D918D919C91DA9783
:1030F0000E94AFF16B017C01F50120813181428199
:1031000053810E9410F20E94DFF60E9474F73B0187
:103110005C01D4012D913D914D915C91C701B601A7
:103120000E9410F20E94DFF60E9474F76D827E8288
:10313000AF82B8862D813E814F8158852837310571
:103140004105510540F428E730E040E050E02D8390
:103150003E834F83588769837A838B839C838981DD
:103160009A81AB81BC8188379105A105B10540F4F6
:1031700028E730E040E050E029833A834B835C83CA
:10318000E98DFA8DED5BFF4F80819181A281B38142
:1031900089879A87AB87BC87BC01CD010E94B1F1BA
:1031A0002B013C016D817E818F8198850E94AFF15A
:1031B000698B7A8B8B8B9C8B20E030E0A901C3015B
:1031C000B2010E94AAF1882309F43BC1A70196012C
:1031D000C701B6010E9410F24B015C0129893A89AE
:1031E0004B895C89CA01B9010E9410F29B01AC01B4
:1031F000C501B4010E9400F64B015C01A3019201DC
:10320000C301B2010E9401F69B01AC01C501B401EA
:103210000E94FBF60E94DFF60E9474F76D877E879E
:103220008F87988B69857A858B859C85909580950D
:10323000709561957F4F8F4F9F4F0E94B1F14B0169
:103240005C0169817A818B819C810E94AFF16987E1
:103250007A878B879C8720E030E0A901C501B40103
:103260000E94AAF1882309F4F0C029853A854B858C
:103270005C85CA01B9010E9410F26D8B7E8B8F8B29
:10328000988FA7019601C701B6010E9410F29B0119
:10329000AC016D897E898F89988D0E9400F66B0143
:1032A0007C01A5019401C501B4010E9401F69B01B6
:1032B000AC01C701B6010E94FBF60E94A3F7A98DDD
:1032C000BA8D95968D909D90AD90BC909897750114
:1032D00064012D853E854F855889C21AD30AE40AB8
:1032E000F50A0E9474F7C61AD70AE80AF90AF7FE27
:1032F0006EC020E030E0A901C301B2010E94AAF132
:10330000882309F4A6C0C501B4010E94AFF16B0186
:103310007C01A3019201C301B2010E9401F69B014D
:10332000AC01C701B6010E9410F26B017C01298932
:103330003A894B895C89CA01B9010E9410F29B014C
:10334000AC01C701B6010E9400F66B017C01298522
:103350003A854B855C85CA01B9010E9410F29B0138
:10336000AC01C701B6010E9401F66B017C0120E0AF
:1033700030E040E850E4C301B2010E9410F29B012A
:10338000AC01C701B6010E94FBF60E94DFF66B019B
:103390007C0120E030E0A9010E9461F818161CF0C1
:1033A000C12CD12C7601C701B6010E9474F76D873C
:1033B0007E878F87988B86169706A806B90620F415
:1033C0008D869E86AF86B88AC12CD12C76018D85DC
:1033D0009E85AF85B889E98DFA8D82A793A7A4A7AA
:1033E000B5A7C80ED91EEA1EFB1EDF01C6A6D7A6CA
:1033F000E0AAF1AA2D813E814F81588523AF34AFD9
:1034000045AF56AFDF9629813A814B815C812D9380
:103410003D934D935C9313976A960FB6F894DEBF75
:103420000FBECDBFDF91CF91FF90EF90DF90CF9097
:10343000BF90AF909F908F907F906F905F904F90D4
:10344000089560E070E0CB01E5CE60E070E0CB0174
:1034500034CF60E070E0CB0198CF80917109823069
:10346000B1F090911D10992359F080912E10811187
:1034700004C081E290E10C940ABF8EE290E1FBCFA0
:10348000813041F084E591E16FEF0C9439D389E705
:1034900091E1FACF8DE691E1F7CF80916B0986300B
:1034A000D8F496E0899FF0011124E95BF64F209152
:1034B0003D0230913E02318320834091BC0C5091FB
:1034C000BD0C6091BE0C7091BF0C4283538364832A
:1034D00075838F5F80936B09089520913D02309131
:1034E0003E0228173907D9F090933E0280933D029F
:1034F0004093BC0C5093BD0C6093BE0C7093BF0CFA
:103500008E5D9A4221F41092F90A10926B090E9482
:10351000FBC482E08093480281E08093BA0C089556
:1035200021E02093F90A60937209709373098093E4
:1035300074099093750940E050E0BA0180917609D2
:10354000909177090C946D1A60E070E080E291E44C
:103550000C94901A60E070E080E89FE30C94901A5D
:103560006DEC7CEC8CEC9DE30C94901A40E050E008
:10357000BA018EED9AE20C946D1AE0916B09EE237C
:1035800089F0E150E0936B0986E0E89FF001112497
:10359000E95BF64F4281538164817581808191811D
:1035A0000C946D1A0C94B61AEF92FF920F93CF936E
:1035B000DF93D82F7A01C22F80E00E94E9C4D11195
:1035C00001C0C0E28C2F0E9449C5C2E1F70164919D
:1035D000662359F0CC2389F088E29FE00E9403C55E
:1035E000C150FFEFEF1AFF0AF1CFC15030F060E297
:1035F00088E29FE00E9403C5F8CF802FDF91CF9132
:103600000F91FF90EF900C9449C52F923F924F92EB
:103610005F926F927F928F929F92AF92BF92CF9262
:10362000DF92EF92FF920F931F93CF93DF9300D01F
:103630001F92CDB7DEB70E9407C11091B80CF12CD4
:10364000EE24E39481E8C82E86E1D82E812C912CBB
:10365000540183942DED422E23E0522E612C712CC7
:1036600031E9232E3DEC332E111140C08091BB0C6B
:103670008823C9F080914802882361F081E090910D
:10368000BB0C911180E003E023E04AEA56E16F2D84
:103690000E94D41A1F5FF394B4E0FB12E5CF88E0D8
:1036A0008093B90C0CC08091FE0A882319F3109204
:1036B000FE0A0E94BD1A8091BA0C8823D9F20F909D
:1036C0000F900F900F90DF91CF911F910F91FF906E
:1036D000EF90DF90CF90BF90AF909F908F907F90B2
:1036E0006F905F904F903F902F900895113009F0A8
:1036F00077C08091BB0C8130B1F080914802882363
:1037000049F201E08091BB0C813009F000E086E8CD
:1037100098E00E9418CC9C014EE956E16F2D802F55
:103720000E9460D9B7CF8091FE0A882331F31092AE
:10373000FE0A1093C00C1092FA0A1092FB0A109223
:10374000FC0A1092FD0A0E944D1A83E08093480201
:10375000A4EAB6E1B093B00CA093AF0C86E898E071
:103760009093AE0C8093AD0C1092A90C1092AA0C01
:103770001092AB0C1092AC0C8EED93E0A0E0B0E098
:103780008093A50C9093A60CA093A70CB093A80CC3
:103790002AE037ED43E25CE3609186087091870888
:1037A00080918808909189080E9410F20E9474F715
:1037B0006093BC0C7093BD0C8093BE0C9093BF0CB7
:1037C00030923E0220923D021092B30C1092B20C45
:1037D0001092B10C8091BA0C882309F48ECF6FCF70
:1037E000123009F0D4C18091BB0C823099F08091E5
:1037F0004802882309F44ECF01E08091BB0C82304F
:1038000009F000E082E898E00E9418CC9C014AE8A8
:1038100056E184CF8091FE0A882349F31092FE0A74
:10382000E092C00C1092FA0A1092FB0A1092FC0A65
:103830001092FD0A0E944D1A93E090934802A4E969
:10384000B6E1B093B00CA093AF0C82E898E09093EF
:10385000AE0C8093AD0C8092A90C9092AA0CA09211
:10386000AB0CB092AC0C4092A50C5092A60C60929E
:10387000A70C7092A80C2AE037ED43E25CE360915C
:1038800082087091830880918408909185080E9435
:1038900010F220E030E040E85FE30E9400F60E9472
:1038A00074F76093BC0C7093BD0C8093BE0C909326
:1038B000BF0C30923E0220923D021092B30C109247
:1038C000B20C1092B10C8091BA0C882309F48FCFFE
:1038D000F6CE8091BB0C833099F08091480288230A
:1038E00009F4D8CE01E08091BB0C833009F000E0F0
:1038F0008EE798E00E9418CC9C0148E756E10ECF75
:103900008091FE0A882349F31092FE0AE092C00CCF
:103910001092FA0A1092FB0A1092FC0A1092FD0A09
:103920000E944D1A10934802D092B00CC092AF0C76
:10393000AEE7B8E0B093AE0CA093AD0C8092A90CAA
:103940009092AA0CA092AB0CB092AC0C4092A50C39
:103950005092A60C6092A70C7092A80C2AE037ED4A
:1039600043E25CE360917E0870917F08809180085B
:10397000909181080E9410F220E030E040E85FE37F
:103980000E9400F60E9474F76093BC0C7093BD0C0B
:103990008093BE0C9093BF0C30923E0220923D0269
:1039A0001092B30C1092B20C1092B10C8091BA0C20
:1039B000882309F492CF83CE8091BB0C843009F127
:1039C00080914802882309F465CE01E08091BB0C08
:1039D000843009F000E060916E0870916F0880916A
:1039E0007008909171080E94AFF169837A838B838C
:1039F0009C83CE0101960E9418CC9C014AE656E1B8
:103A00008DCE8091FE0A8823D9F21092FE0AE092B0
:103A1000C00C1092FA0A1092FB0A1092FC0A109243
:103A2000FD0A24E630E040E050E06EE678E081E711
:103A300096E10E9482C38091BA0C882309F23FCE9E
:103A40008091BB0C853009F180914802882309F4EC
:103A500021CE01E08091BB0C853009F000E060913F
:103A600072087091730880917408909175080E9493
:103A7000AFF169837A838B839C83CE0101960E9488
:103A800018CC9C014CE556E149CE8091FE0A882372
:103A9000D9F21092FE0AE092C00C1092FA0A10922B
:103AA000FB0A1092FC0A1092FD0A24E630E040E086
:103AB00050E062E778E083E696E10E9482C380915D
:103AC000BA0C882309F2FBCD8091BB0C863009F13A
:103AD00080914802882309F4DDCD01E08091BB0C80
:103AE000863009F000E06091760870917708809147
:103AF0007808909179080E94AFF169837A838B836B
:103B00009C83CE0101960E9418CC9C014EE456E1A4
:103B100005CE8091FE0A8823D9F21092FE0AE09227
:103B2000C00C1092FA0A1092FB0A1092FC0A109232
:103B3000FD0A2AE030E040E050E066E778E085E505
:103B400096E10E9482C38091BA0C882309F2B7CD16
:103B50008091FE0A882371F11092FE0AE092C00C57
:103B60001092FA0A1092FB0A1092FC0A1092FD0AB7
:103B700024E630E040E050E06AE778E087E496E150
:103B80000E9482C38091BA0C8823A1F098CD133093
:103B900009F49FCE143009F40FCF153009F450CF3B
:103BA000163009F491CF173009F074CD8091BB0C19
:103BB000873071F280914802882309F46BCD01E0CF
:103BC0008091BB0C873009F000E060917A08709119
:103BD0007B0880917C0890917D080E94AFF16983F9
:103BE0007A838B839C83CE0101960E9418CC9C0122
:103BF00040E456E193CD3F924F925F926F927F9255
:103C00008F929F92AF92BF92CF92DF92EF92FF92EC
:103C10000F931F93CF93DF930E9407C1C091B80CFD
:103C2000D0E05524539463E0462E77EE372EE1E042
:103C3000CE2EE6E1DE2EFFE0AF2EF6E1BF2EADE1A7
:103C40008A2EA6E19A2EBBE26B2EB6E17B2EC11125
:103C50003AC08091BB0C8823C1F080914802882330
:103C600061F081E09091BB0C911180E003E023E0D2
:103C700049E356E16D2F0E94D41ACF5FDF5FD43045
:103C800031F787E08093B90C0CC08091FE0A88233D
:103C900021F31092FE0A0E94BD1A8091BA0C88236B
:103CA000E1F2DF91CF911F910F91FF90EF90DF90A4
:103CB000CF90BF90AF909F908F907F906F905F90CC
:103CC0004F903F900895C13009F04AC08091BB0CDD
:103CD000813009F180914802882379F24F923F9216
:103CE0001F925F928EE598E09F938F937F926F92E1
:103CF000DF9381E09091BB0C913009F080E08F93CD
:103D00000E94AED98DB79EB70A960FB6F8949EBFA3
:103D10000FBE8DBFB2CF8091FE0A8823D9F21092D8
:103D2000FE0AC093C00C1092FA0A1092FB0A10927D
:103D3000FC0A1092FD0AE12C10ECF12E09E714E4C4
:103D400020E030E040E85FE36EE578E082E396E172
:103D50000E94BBC18091BA0C882309F4BBCFA1CFCC
:103D6000C23009F050C18091BB0C823011F18091BA
:103D70004802882309F481CF4F923F921F925F92AD
:103D800082E698E09F938F939F928F92DF9381E0DA
:103D90009091BB0C923009F080E08F930E94AED9D5
:103DA0008DB79EB70A960FB6F8949EBF0FBE8DBF13
:103DB00064CF8091FE0A8823D1F21092FE0A5092BD
:103DC000C00C1092FA0A1092FB0A1092FC0A109290
:103DD000FD0AE12C10ECF12E09E714E420E030E0BC
:103DE00040E85FE362E678E084E296E10E94BBC1CE
:103DF0008091BA0C882309F4BACF53CF8091BB0CC1
:103E0000833011F180914802882309F436CF4F9214
:103E10003F921F925F9286E698E09F938F93BF92A6
:103E2000AF92DF9381E09091BB0C933009F080E07A
:103E30008F930E94AED98DB79EB70A960FB6F894AD
:103E40009EBF0FBE8DBF19CF8091FE0A8823D1F28D
:103E50001092FE0A5092C00C1092FA0A1092FB0ABD
:103E60001092FC0A1092FD0AE12C10ECF12E09E7E9
:103E700014E420E030E040E85FE366E678E086E1C5
:103E800096E10E94BBC18091BA0C882309F4BACF95
:103E900008CF8091BB0C843011F1809148028823B7
:103EA00009F4EBCE4F923F921F925F928AE698E020
:103EB0009F938F93DF92CF92DF9381E09091BB0C21
:103EC000943009F080E08F930E94AED98DB79EB7F1
:103ED0000A960FB6F8949EBF0FBE8DBFCECE8091CE
:103EE000FE0A8823D1F21092FE0A5092C00C109262
:103EF000FA0A1092FB0A1092FC0A1092FD0AE12CB9
:103F000010ECF12E09E714E420E030E040E85FE334
:103F10006AE678E088E096E10E94BBC18091BA0C25
:103F2000882309F4BACFBDCE8091BB0C853021F136
:103F300080914802882309F4A0CE4F923F921F92AD
:103F40001F928AE598E09F938F9387EF95E19F9367
:103F50008F93DF9381E09091BB0C953009F080E066
:103F60008F930E94AED98DB79EB70A960FB6F8947C
:103F70009EBF0FBE8DBF81CE8091FE0A8823C1F205
:103F80001092FE0A5092C00C1092FA0A1092FB0A8C
:103F90001092FC0A1092FD0AE12C10ECF12E09E7B8
:103FA00014E420E030E0A9016AE578E08CEF95E1C7
:103FB0000E94BBC18091BA0C882309F4B9CF71CE9D
:103FC0008091FE0A882379F11092FE0A5092C00C6B
:103FD0001092FA0A1092FB0A1092FC0A1092FD0A43
:103FE000E12C10ECF12E09E714E420E030E0A90107
:103FF00066E578E08DEE95E10E94BBC18091BA0C38
:10400000882389F04ECEC33009F4F8CEC43009F4C9
:1040100040CFC53009F488CFC63009F02ECE80914C
:10402000BB0C863069F280914802882309F425CEC2
:104030004F923F921F921F9286E598E09F938F9335
:1040400083EE95E19F938F93DF9381E09091BB0C7A
:10405000963009F080E08F930E94AED98DB79EB75D
:104060000A960FB6F8949EBF0FBE8DBF06CE8F92F4
:104070009F92AF92BF92CF92DF92EF92FF920F93F7
:10408000CF93DF930E9407C1D091B80CC0E083E9C1
:10409000E82E81E1F82E9EEAC92E91E1D92E2CEC72
:1040A000A22E21E1B22E37EE832E31E1932ED111D3
:1040B00034C08091BB0C8823C1F0809148028823D2
:1040C00061F081E09091BB0C911180E003E023E06E
:1040D00044EF51E16C2F0E94D41ADF5FCF5FC430F0
:1040E00031F785E08093B90C0CC08091FE0A8823DB
:1040F00021F31092FE0A0E94BD1A8091BA0C882307
:10410000E1F2DF91CF910F91FF90EF90DF90CF9090
:10411000BF90AF909F908F900895D13021F58091FE
:10412000BB0C813079F0809148028823B1F281E0A4
:104130009091BB0C913009F080E000E22EE349ED54
:1041400051E1C8CF8091FE0A882369F31092FE0ADC
:104150009092C20C8092C10C0E94B6828091BA0CDF
:10416000882309F3CECFD23009F05BC08091BB0C1D
:10417000823081F080914802882309F4AECF81E03B
:104180009091BB0C923009F080E000E22EE34AEB04
:1041900051E1A0CF8091FE0A882361F31092FE0ABC
:1041A000B092C20CA092C10C0E94B6828091BA0C4F
:1041B000882301F3A6CF8091BB0C833081F08091DE
:1041C0004802882309F489CF81E09091BB0C933099
:1041D00009F080E000E22EE34FE951E17BCF8091CE
:1041E000FE0A882361F31092FE0AD092C20CC0929C
:1041F000C10C0E94B6828091BA0C882301F381CF52
:104200008091FE0A8823B1F01092FE0AF092C20C4F
:10421000E092C10C0E94B6828091BA0C882351F0C2
:1042200070CFD33041F2D43009F057CF8091BB0C1E
:10423000843031F380914802882309F44ECF81E025
:104240009091BB0C943009F080E000E22EE346E848
:1042500051E140CF0F93CF93DF930E9407C1D091DC
:10426000B80CC0E0D1112CC08091BB0C8823C1F0E8
:1042700080914802882361F081E09091BB0C9111FC
:1042800080E003E023E04EE554E16C2F0E94D41A55
:10429000DF5FCF5FC43031F785E08093B90C0CC08D
:1042A0008091FE0A882321F31092FE0A0E94BD1A13
:1042B0008091BA0C8823E1F2DF91CF910F9108959C
:1042C000D13011F58091BB0C813079F0809148029A
:1042D0008823F1F281E09091BB0C913009F080E0ED
:1042E0000EE32EE347E554E1D0CF8091FE0A882308
:1042F00069F31092FE0A8BE493E20E9420DB809126
:10430000BA0C882319F3D8CFD23009F055C0809168
:10431000BB0C823081F080914802882309F4B8CF29
:1043200081E09091BB0C923009F080E00EE32EE327
:1043300040E554E1AACF8091FE0A882361F31092F0
:10434000FE0A80E593E20E9420DB8091BA0C88236C
:1043500011F3B2CF8091BB0C833081F08091480281
:10436000882309F495CF81E09091BB0C933009F03C
:1043700080E00EE32EE349E454E187CF8091FE0A0A
:10438000882361F31092FE0A85E593E20E9420DB08
:104390008091BA0C882311F38FCF8091FE0A882375
:1043A000A1F01092FE0A8AE593E20E9420DB809140
:1043B000BA0C882351F080CFD33061F2D43009F0A9
:1043C00067CF8091BB0C843041F3809148028823F1
:1043D00009F45ECF81E09091BB0C943009F080E04D
:1043E0000EE32EE340E454E150CF0F931F93CF939D
:1043F000DF93182F70937709609376090E9407C1A5
:10440000D091B80CC0E081E0113009F459C048F1F6
:10441000123009F47EC0D111A3C08823D9F0809155
:10442000BB0C1816BCF04091BC0C5091BD0C6091B7
:10443000BE0C7091BF0C4F5F5F4F6F4F7F4F40932B
:10444000BC0C5093BD0C6093BE0C7093BF0C8F5F7F
:104450008093BB0C80914802882341F162E274E1B1
:1044600054C0D1117DC08823D9F08091BB0C18169F
:10447000BCF04091BC0C5091BD0C6091BE0C709191
:10448000BF0C4F5F5F4F6F4F7F4F4093BC0C5093FB
:10449000BD0C6093BE0C7093BF0C8F5F8093BB0C00
:1044A0008091480269E374E181112FC0DF5F80E0F1
:1044B000CF5FC43009F0A8CF85E08093B90C75C0F8
:1044C000D1114EC08823D9F08091BB0C1816BCF0D6
:1044D0004091BC0C5091BD0C6091BE0C7091BF0C12
:1044E0004F5F5F4F6F4F7F4F4093BC0C5093BD0C9D
:1044F0006093BE0C7093BF0C8F5F8093BB0C809158
:10450000480262E374E1882389F28C2F0E94D7D895
:10451000CDCFD11125C08823D9F08091BB0C1816BE
:10452000BCF04091BC0C5091BD0C6091BE0C7091E0
:10453000BF0C4F5F5F4F6F4F7F4F4093BC0C50934A
:10454000BD0C6093BE0C7093BF0C8F5F8093BB0C4F
:10455000809148026BE274E1882309F4A7CFD5CF9C
:10456000D13041F58091BB0C813099F080914802A7
:10457000882309F49BCF81E09091BB0C913009F026
:1045800080E003E023E048E154E16C2F0E94D41A5C
:104590008DCF8091FE0A882349F31092FE0A0E9473
:1045A000BD1A8091BA0C882309F3DF91CF911F9136
:1045B0000F910895D23009F055C08091BB0C823024
:1045C00081F080914802882309F470CF81E09091B6
:1045D000BB0C923009F080E00EE32EE34EE054E194
:1045E000D4CF8091FE0A882361F31092FE0A84EAF8
:1045F0009AE10E9420DB8091BA0C882311F3D5CF79
:104600008091BB0C833081F080914802882309F4AB
:104610004DCF81E09091BB0C933009F080E00EE328
:104620002EE345E054E1B1CF8091FE0A882361F387
:104630001092FE0A8AEA9AE10E9420DB8091BA0C6D
:10464000882311F3B2CF8091FE0A8823A1F0109243
:10465000FE0A80EB9AE10E9420DB8091BA0C88234D
:1046600051F0A3CFD33061F2D43009F01FCF809145
:10467000BB0C843041F380914802882309F416CFA3
:1046800081E09091BB0C943009F080E00EE32EE3C2
:104690004AEF53E17ACF60EA78E280E00C94F521AA
:1046A0006BE978E281E00C94F52166E978E282E03A
:1046B0000C94F5216EE077E283E00C94F5210F93E2
:1046C000CF93DF930E9407C1D091B80CC0E0D11105
:1046D0002BC08091BB0C8823B9F0809148028823BD
:1046E00061F081E09091BB0C911180E003E023E048
:1046F00046ED52E16C2F0E94D41ADF5FCF5FC430C9
:1047000031F7C093B90C0CC08091FE0A882329F3BD
:104710001092FE0A0E94BD1A8091BA0C8823E9F219
:10472000DF91CF910F910895D13061F58091BB0C4D
:10473000813079F0809148028823F9F281E09091EC
:10474000BB0C913009F080E000E22EE34AEC52E12C
:10475000D1CF8091FE0A882369F31092FE0A40911E
:1047600052085091530860914A0870914B0880910B
:104770004E0890914F080E9498D28091BA0C8823DD
:10478000C9F2CECFD23009F042C08091BB0C82304A
:1047900081F080914802882309F4AFCF81E09091A5
:1047A000BB0C923009F080E000E22EE34AEA52E1CD
:1047B000A1CF8091FE0A882361F31092FE0A4091F6
:1047C0005208509153086FEF7FEF80914E089091FF
:1047D0004F080E9498D28091BA0C8823D1F2A0CFC2
:1047E0008091FE0A8823D1F01092FE0A409152086F
:1047F0005091530860914A0870914B0890E080E016
:104800000E9498D28091BA0C882341F089CFD3308E
:1048100009F073CF8091BB0C833011F38091480273
:10482000882309F46ACF81E09091BB0C933009F0A2
:1048300080E000E22EE34AEB52E15CCF0F93CF938E
:10484000DF930E9407C1D091B80CC0E0D1112BC0FA
:104850008091BB0C8823B9F080914802882361F0D5
:1048600081E09091BB0C911180E003E023E04AE0ED
:1048700053E16C2F0E94D41ADF5FCF5FC43031F751
:10488000C093B90C0CC08091FE0A882329F31092C2
:10489000FE0A0E94BD1A8091BA0C8823E9F2DF91CA
:1048A000CF910F910895D13061F58091BB0C81308B
:1048B00079F0809148028823F9F281E09091BB0C55
:1048C000913009F080E000E22EE34EEF52E1D1CFCB
:1048D0008091FE0A882369F31092FE0A40915408E1
:1048E0005091550860914C0870914D088091500886
:1048F000909151080E9498D28091BA0C8823C9F2F5
:10490000CECFD23009F042C08091BB0C823081F012
:1049100080914802882309F4AFCF81E09091BB0CCD
:10492000923009F080E000E22EE34EED52E1A1CF9B
:104930008091FE0A882361F31092FE0A4091540888
:10494000509155086FEF7FEF80915008909151087A
:104950000E9498D28091BA0C8823D1F2A0CF809186
:10496000FE0A8823D1F01092FE0A4091540850911B
:10497000550860914C0870914D0890E080E00E94CD
:1049800098D28091BA0C882341F089CFD33009F0B6
:1049900073CF8091BB0C833011F380914802882340
:1049A00009F46ACF81E09091BB0C933009F080E06C
:1049B00000E22EE34EEE52E15CCF2F923F924F92F7
:1049C0005F926F927F928F929F92AF92BF92CF929F
:1049D000DF92EF92FF920F931F93CF93DF930E948A
:1049E00007C1C091B80CD0E083E0482E97EE392E75
:1049F0002AE0222E35E6632E32E1732E552453949D
:104A00004FE6E42E42E1F42E53E8C52E52E1D52EB6
:104A10006BE8A62E62E1B62E79E9872E72E1972E19
:104A2000C1113BC08091BB0C8823C1F0809148022A
:104A3000882361F081E09091BB0C911180E003E04C
:104A400023E045EA52E16D2F0E94D41ACF5FDF5F69
:104A5000D43031F786E08093B90C0CC08091FE0A07
:104A6000882321F31092FE0A0E94BD1A8091BA0C8D
:104A70008823E1F2DF91CF911F910F91FF90EF908A
:104A8000DF90CF90BF90AF909F908F907F906F906E
:104A90005F904F903F902F900895C130E1F5809145
:104AA000BB0C813009F180914802882379F24F9242
:104AB0003F921F922F9284E192E09F938F939F9257
:104AC0008F92DF9381E09091BB0C913009F080E0F0
:104AD0008F930E949AD98DB79EB70A960FB6F89415
:104AE0009EBF0FBE8DBFB2CF8091FE0A8823D9F240
:104AF0001092FE0A10E000E027EE33E04AE050E0BA
:104B000064E172E08FE992E10E945AC18091BA0C8F
:104B1000882349F2AFCFC23009F0FAC08091BB0CB4
:104B2000823039F180914802882309F48FCF8AEFCF
:104B300096E19F938F935F9294E09F931F921F92B1
:104B400082E29FE09F938F93BF92AF92DF9381E0C9
:104B50009091BB0C923009F080E08F930E949AD91B
:104B60008DB79EB70C960FB6F8949EBF0FBE8DBF43
:104B70006DCF8091FE0A8823A9F21092FE0A50920E
:104B8000C00C1092FA0A1092FB0A1092FC0A1092C2
:104B9000FD0A0AEF16E124E031E050E040E062E275
:104BA0007FE082E992E10E945AC18091BA0C882389
:104BB00009F4B8CF5FCF8091BB0C833039F180917D
:104BC0004802882309F442CF8BEF99E29F938F9399
:104BD0001F9297E89F931F921F9284EB9CE09F93F4
:104BE0008F93DF92CF92DF9381E09091BB0C933053
:104BF00009F080E08F930E949AD98DB79EB70C96EA
:104C00000FB6F8949EBF0FBE8DBF20CF8091FE0AD5
:104C10008823A9F21092FE0A5092C00C1092FA0A50
:104C20001092FB0A1092FC0A1092FD0A0BEF19E297
:104C300027E830E050E040E064EB7CE087E892E178
:104C40000E945AC18091BA0C882309F4B8CF12CFC0
:104C50008091BB0C843019F180914802882309F4BB
:104C6000F5CE1F929FEF9F931F921F9286EB9CE0C1
:104C70009F938F93FF92EF92DF9381E09091BB0C13
:104C8000943009F080E08F930E949AD98DB79EB737
:104C90000A960FB6F8949EBF0FBE8DBFD7CE8091F7
:104CA000FE0A8823C9F21092FE0A5092C00C10929C
:104CB000FA0A1092FB0A1092FC0A1092FD0A10E008
:104CC00000E02FEF30E050E040E066EB7CE089E769
:104CD00092E10E945AC18091BA0C882309F4BCCF9A
:104CE000C9CE8091FE0A882301F11092FE0A0DECD4
:104CF00015E127EE33E04AE050E062E172E08AE637
:104D000092E10E945AC18091BA0C882371F0B2CE10
:104D1000C33009F450CFC43009F49ACFC53009F03C
:104D200095CE8091BB0C8530E1F2809148028823BA
:104D300009F48CCE8DEC95E19F938F934F923F9227
:104D40001F922F9282E192E09F938F937F926F92B6
:104D5000DF9381E09091BB0C953009F080E08F9358
:104D60000E949AD98DB79EB70C960FB6F8949EBF45
:104D70000FBE8DBF6BCECF93DF93EC01FE0184910C
:104D8000882321F00E9449C52196F8CFDF91CF9169
:104D90000895CF93DF93EC018991882319F00E9445
:104DA00049C5FACFDF91CF9108950F931F93CF9309
:104DB000DF93EC018B0161E081E00E94E9C4CE0148
:104DC0000E9409C50115110521F16AE388E29FE0FF
:104DD0000E9403C5CE010E94C9D8EC01C8010E94FF
:104DE00052D92196C80FD91F61E062970CF062E09A
:104DF00092E1981B892F0E94E9C460E288E29FE05B
:104E00000E9403C5C801DF91CF911F910F910C94AF
:104E1000C926DF91CF911F910F9108958091FE0ACD
:104E20001092FE0A882321F01092F90A0C94BD1A00
:104E30006091BC0C7091BD0C8091BE0C9091BF0C28
:104E4000611571058105910561F10E94B1F1209113
:104E500072093091730940917409509175090E944B
:104E600010F22091E30C3091E40C4091E50C50914C
:104E7000E60C0E9401F66093E30C7093E40C8093BF
:104E8000E50C9093E60C83E00E94FC1681E0809391
:104E900048021092BC0C1092BD0C1092BE0C1092E5
:104EA000BF0C80914802882349F083EE9CE00E9469
:104EB00052CEBC0181EF93E10C94D52608953F9228
:104EC0004F925F926F927F928F929F92AF92BF921A
:104ED000CF92DF92EF92FF920F931F93CF93DF93C6
:104EE00000D000D000D01F92CDB7DEB79A87898757
:104EF000362E8091FE0A1092FE0A8823E1F010926D
:104F0000F90A0E94BD1A2A960FB6F894DEBF0FBEAA
:104F1000CDBFDF91CF911F910F91FF90EF90DF9068
:104F2000CF90BF90AF909F908F907F906F905F9049
:104F30004F903F9008958091BC0C9091BD0CA09132
:104F4000BE0CB091BF0C8D839E83AF83B887892B35
:104F50008A2B8B2B09F454C094E0699F80011124A3
:104F6000F801E952F34F4080518062807380809154
:104F70002202811184C020E030E04AE754E4C301FA
:104F8000B2010E9400F64B015C0120E030E04AE7EC
:104F900054E4C301B2010E9401F66B017C016D81F2
:104FA0007E818F8198850E94B1F1209172093091A4
:104FB000730940917409509175090E9410F2A30180
:104FC00092010E9401F62B013C018D819E81AF81EF
:104FD000B885B7FF95C0A5019401C301B2010E9435
:104FE000AAF187FD85C0F801E952F34F4082518252
:104FF00062827382832D0E94FC1681E080934802B6
:105000001092BC0C1092BD0C1092BE0C1092BF0CF2
:1050100080914802882309F476CFA4E03A9EC0012B
:105020001124FC01E952F34F8953934FDC012D9178
:105030003D914D915C9160817181828193810E944B
:1050400001F669837A838B839C832DEC3CEC4CECDA
:105050005DE3609172097091730980917409909178
:1050600075090E9461F887FD5CC0CE0101960E941F
:1050700052CEBC0189859A850E94D52644CFA1E0F5
:105080006A17A1F0B2E06B1711F18090310890908F
:105090003208A0903308B0903408C0901602D09027
:1050A0001702E0901802F090190279CF809035082D
:1050B00090903608A0903708B0903808C0901A0237
:1050C000D0901B02E0901C02F0901D0268CF8090EF
:1050D000390890903A08A0903B08B0903C08C090E6
:1050E0001E02D0901F02E0902002F090210257CFC4
:1050F000F801E952F34F80829182A282B3827ACF83
:10510000A7019601C301B2010E9461F818160CF0C4
:105110006ACFF801E952F34FC082D182E282F38272
:1051200069CFCE0101960E942CC2A3CF62E08AEE25
:1051300093E10C945F2761E083EE93E10C945F2789
:1051400060E08CED93E10C945F2764E084E10E94C1
:10515000B8C50E94C0D20C94FBC4EF92FF920F938B
:105160001F93CF93DF9300D000D01F921F92CDB733
:10517000DEB78E010F5F1F4FD80130E020E0FB014A
:10518000E20FF31FE491ED932F5F3F4F283031057D
:10519000B1F7877028E0829FC001112480640E94CB
:1051A000E3C4780188E0E80EF11CF80161918F01F9
:1051B00088E29FE00E9403C5E016F106B1F7289649
:1051C0000FB6F894DEBF0FBECDBFDF91CF911F9118
:1051D0000F91FF90EF9008958F929F92AF92BF92A0
:1051E000CF92DF92EF92FF920F931F93CF93DF93B3
:1051F000B0E4A0E06A2F70E0AB014B0F511D559554
:1052000047954A1711F0B41319C0E8E7F0E165912A
:105210007491072E000C880B990B0E94B1F1DF915D
:10522000CF911F910F91FF90EF90DF90CF90BF90A3
:10523000AF909F908F900895B42FDECF9A012150A8
:105240003109220F331F220F331FF901E658F04FA7
:10525000E590F490F901E258F04FC591D4918E1584
:105260009F0554F3A42FC817D9070CF4C3CFF90135
:10527000E458F04F05911491F901E058F04FC590B2
:10528000D490BC016E197F09072E000C880B990B76
:105290000E94B1F14B015C01B601601B710B072E3E
:1052A000000C880B990B0E94B1F19B01AC01C50168
:1052B000B4010E9410F24B015C01BE016E197F091E
:1052C000072E000C880B990B0E94B1F19B01AC01D9
:1052D000C501B4010E94FBF66B017C01B801110FFE
:1052E000880B990B0E94B1F19B01AC01C701B6017B
:1052F0000E9401F694CF0F930FB70F9300916E00A9
:105300000B7F00936E0078940F930BB70F930CB73D
:105310000F921F922F933F934F935F936F937F93BF
:105320008F939F93AF93BF93EF93FF9311240E94AA
:105330007533FF91EF91BF91AF919F918F917F91C5
:105340006F915F914F913F912F911F900F900CBFE4
:105350000F910BBF0F910460F89400936E000F91B2
:105360000FBF0F911895CF92DF92EF92FF92C090EE
:105370002808D0902908E0902A08F0902B08609126
:10538000B40C7091B50C66507109072E000C880B97
:10539000990B0E94B1F1A70196010E9461F81816BD
:1053A0000CF520E030E040E050E4C701B6010E9477
:1053B00001F60E9474F770932909609328090E94EE
:1053C000E1C7605A75418F4F9F4F609324097093D6
:1053D00025098093260990932709FF90EF90DF908D
:1053E000CF90089510922409109225091092260951
:1053F00010922709F2CF0C94B3298F929F92AF920B
:10540000BF92CF92DF92EF92FF920F931F93CF93B1
:10541000DF93B0E4A0E06A2F70E0AB014B0F511DA9
:1054200055954795A41711F0B41319C0E8E7F0E1BA
:1054300065917491072E000C880B990B0E94B1F1B5
:10544000DF91CF911F910F91FF90EF90DF90CF9060
:10545000BF90AF909F908F900895B42FDECF9A01A8
:1054600021503109220F331F220F331FF901E65853
:10547000F04FE590F490F901E258F04FC591D491C6
:105480008E159F0554F3A42FC817D9070CF4C3CF6A
:10549000F901E458F04F05911491F901E058F04FEB
:1054A000C590D490BC016E197F09072E000C880BA3
:1054B000990B0E94B1F14B015C01B601601B710BAD
:1054C000072E000C880B990B0E94B1F19B01AC01D7
:1054D000C501B4010E9410F24B015C01BE016E19BE
:1054E0007F09072E000C880B990B0E94B1F19B01DC
:1054F000AC01C501B4010E94FBF66B017C01B8014F
:10550000110F880B990B0E94B1F19B01AC01C701EF
:10551000B6010E9401F694CF80913409909135092B
:105520000E94EC286093240F7093250F8093260F20
:105530009093270F80913209909133090E94FD29A1
:10554000609328087093290880932A0890932B0869
:10555000A8951092230808950F931F9380917109C5
:10556000813019F50E94E1C70091000910910109ED
:105570002091020930910309601B710B820B930B80
:1055800028EE33E040E050E00E949DF56091FC0879
:105590007091FD088091FE089091FF08620F731FC3
:1055A000841F951F1F910F910895609104097091B8
:1055B00005098091060990910709D6CF4F925F9215
:1055C0006F927F928F929F92AF92BF92CF92DF9213
:1055D000EF92FF920F931F93CF93DF9300D000D0F1
:1055E00000D01F92CDB7DEB71092C00C8091FE0A9A
:1055F0001092FE0A882301F10E94A52840E050E0A5
:10560000BA0189EF9EE20E946D1A2A960FB6F894AD
:10561000DEBF0FBECDBFDF91CF911F910F91FF90E5
:10562000EF90DF90CF90BF90AF909F908F907F9042
:105630006F905F904F9008954091BC0C5091BD0CBD
:105640006091BE0C7091BF0C209114023091150234
:10565000C901840F951F243631050CF03AC18536F7
:1056600091050CF03DC190931502809314021092A5
:10567000BC0C1092BD0C1092BE0C1092BF0C80910D
:10568000140290911502883EE3E09E0714F087EE25
:1056900093E08A30910514F48AE090E0909315022B
:1056A000809314020E94E1C700916D0910916E0968
:1056B00020916F09309170096B017C01C01AD10AE9
:1056C000E20AF30A9701860137FD11C020916C09A7
:1056D000209520936C096A547C4F8F4F9F4F6093A5
:1056E0006D0970936E0980936F0990937009109102
:1056F0006C0960E080E00E94E9C48090240F9090E3
:10570000250FA090260FB090270F6091220F709167
:10571000230F072E000C880B990B0E94B1F16B012F
:105720007C0182E00E9449C520E030E040E05FE378
:10573000C501B4010E9401F60E946DF7CB010E94E1
:10574000D0D00E94F5C06FE288E29FE00E9403C5BE
:1057500020E030E040E05FE3C701B6010E9401F6BF
:105760000E946DF7CB010E94A5D00E94F5C081E098
:105770000E9449C560E288E29FE00E9403C520E0E4
:1057800030E040E251E4C701B6010E94AAF187FF70
:1057900005C060E288E29FE00E9403C560E08AE005
:1057A0000E94E9C480913008882319F00FE5111197
:1057B00001C000E0C0902808D0902908E0902A0895
:1057C000F0902B086091B40C7091B50C072E000C72
:1057D000880B990B0E94B1F14B015C01802F0E9454
:1057E00049C520E030E040E05FE3C701B6010E9418
:1057F00001F60E946DF7CB010E94D0D00E94F5C047
:105800006FE288E29FE00E9403C520E030E040E0C4
:105810005FE3C501B4010E9401F60E946DF7CB0160
:105820000E94A5D00E94F5C081E00E9449C560E2B7
:1058300088E29FE00E9403C520E030E040E251E4AE
:10584000C501B4010E94AAF187FF05C060E288E2A9
:105850009FE00E9403C561E080E00E94E9C42091BE
:10586000C70C3091C80C4091C90C5091CA0C609182
:10587000D70C7091D80C8091D90C9091DA0C0E94C1
:1058800001F66B017C0120E030E0A9010E94AAF141
:1058900020E030E040E05FEB87FD04C020E030E036
:1058A00040E05FE3C701B6010E9401F60E946DF778
:1058B000CB010E9426D0D82E092F68E588E29FE010
:1058C0000E9403C51123F1F08D2D902F0E94F5C089
:1058D00034C02436310539F0843691050CF0C3CE3E
:1058E00084E690E0C0CE473051056105710514F0A3
:1058F0000697B9CE4A3F5F4F6F4F7F4F0CF0BFCE38
:105900000696B1CE8091F40C80FD0FC0ED2CF02EE8
:10591000F70161917F01662381F06F320CF06FE334
:1059200088E29FE00E9403C5F3CF8091C60C80FD02
:10593000CBCF8FE491E10E94BB2660E288E29FE03A
:105940000E9403C52091CB0C3091CC0C4091CD0C22
:105950005091CE0C6091DB0C7091DC0C8091DD0CD1
:105960009091DE0C0E9401F66B017C0120E030E09A
:10597000A9010E94AAF120E030E040E05FEB87FD42
:1059800004C020E030E040E05FE3C701B6010E94C0
:1059900001F60E946DF7CB010E9426D0D82E092F68
:1059A00069E588E29FE00E9403C5112329F08D2D4F
:1059B000902F0E94F5C01BC08091F40C81FD0FC098
:1059C000ED2CF02EF70161917F01662381F06F329B
:1059D0000CF06FE388E29FE00E9403C5F3CF809153
:1059E000C60C81FDE4CF8FE491E10E94BB2661E00B
:1059F0008CE00E94E9C42091CF0C3091D00C4091F2
:105A0000D10C5091D20C6091DF0C7091E00C809120
:105A1000E10C9091E20C0E9401F66B017C0120E008
:105A200030E04AE754E40E9410F24B015C0120E0B0
:105A300030E0A901C701B6010E94AAF120E030E0E0
:105A400040EA50EC87FD04C020E030E040EA50E43A
:105A5000C501B4010E9401F620E030E040E251E4CB
:105A60000E94FBF60E946DF76B017C01F7FC1AC1E6
:105A700060E2F0E1CF16F7E2DF06E104F10484F022
:105A8000B60120E137E240E050E00E94BFF5CA01D4
:105A9000B9012AE030E040E050E00E94BFF5605DCF
:105AA00060939E0C60E228EEC21623E0D206E10469
:105AB000F1048CF0C701B60128EE33E040E050E07D
:105AC0000E94BFF5CA01B9012AE030E040E050E091
:105AD0000E94BFF5605D60939F0CC701B60124E68C
