:100000000C94C31D0C94F41D0C94F41D0C94F41D5D
:100010000C94F41D0C94F41D0C94F41D0C94F41D1C
:100020000C94F41D0C94F41D0C94F41D0C94F41D0C
:100030000C94F41D0D940D020C94F41D0C94F41DFD
:100040000C94F41D0C94AF9D0C94F41D0C94F41DB1
:100050000C94F41D0C94F41D0C9432980D944303ED
:100060000C94F41D0C9415740C940B740C94F41DE6
:100070000C94F41D0C94F41D0C94F41D0C94F41DBC
:100080000C94064D0C94F41D0C94F41D0C94F41D6A
:100090000C94F41D0C94F41D0C94F41D0C94F41D9C
:1000A0000C94F41D0C94F41D0C94D84C0C94F41D79
:1000B0000C94F41D0C94F41D0C94F41D0C94F41D7C
:1000C0000C94F41D0C94F41D0C94F41D0C94F41D6C
:1000D0000C94F41D0C94F41D0C94F41D0C94F41D5C
:1000E0000C94F41D084AD73B3BCE016E84BCBFFD87
:1000F000C12F3D6C74319ABD56833DDA3D00C77FF8
:1001000011BED9E4BB4C3E916BAAAABE0000008090
:100110003F05A84CCDB2D44EB93836A9020C50B91F
:10012000918688083CA6AAAA2ABE000000803F004B
:100130000C947E920C94D61E0C9493320C94A824AA
:100140000C94301F0D94E1010C946E1E0C944B4ADC
:100150000C94B0240D94D7010C94C88B0C94AB3242
:100160000C949F320C94755E0D94D0010D94B601E1
:100170000C941D240C94DE220C94B1320C940F1EAE
:100180000C941A5E0C9420250C94192B0C94244882
:100190000C94E31F0C9479350C94768D0D94EF013B
:1001A0000C9436D30C9467BD0C94A2CD0D94B91C5D
:1001B0000C94FC5D0C9479920C94E0370C94171F0E
:1001C0000C9461250C9483920C9491E20C94DB2A9C
:1001D0000C9487320C94531E0C94AE240C94618FB3
:1001E0000C940E2F0C949ECD0D9403020C94118F41
:1001F0000C94CB3E0C943E5E0C94C0D40C948E8E2A
:100200000C9492E20C94D18D0D94B1010C941A903F
:100210000C946C4A0C9454D70C94D58E0C94774162
:100220000C948E230C94408D0C9480C30C948D9E62
:100230000D94DD010D94FD010C94B28F0C94891E78
:100240000C9415900C94015E0C946A250C94245E19
:100250000D94C8010C940B8F0C9480E20C94B22482
:100260000C94895E0C94041F0C949ED50D94EB01A4
:100270000C94E1220C94A41E0C94A6240C94BE8D24
:100280000C948D320C940B900C94949E0C94615EA3
:100290000C946FBC0C942C5E0C9481320C94065E12
:1002A0000C94B4240C947F5E0C94F11E0C9410906A
:1002B0000C94B08F0C94FE280C9475280C94345E2A
:1002C0000C94CF220C94525E0C94428F0C94381EE6
:1002D0000C94178F0C94C3390C94EF2E0D94B61414
:1002E0000C9497E20C94D2CD0C941D1E0C941F908C
:1002F0000C949C280C94E5C30C94AC240D94D4016C
:100300000C9475330C9448400C940FB60C947521E2
:100310000D9407020C9499320C947F8D0C94CD8E21
:100320000C947B320C9489980C94BD1E0C940FE4B1
:100330000C940A240C94D6420C94CF240C94933B36
:100340000C94A5320C94FE230C94F61D0C94BA2048
:100350000C9411250C9405900C947CE20C946B5E2B
:100360000C948F230C94908E0D94F9010C94AA2474
:100370000C94105E0D94F5010C94491F0C94935E3F
:100380000C94238F0C94638D0D94E7010C94FA2A3E
:100390000C9474920C942A240D94CC010C941D8F0F
:1003A0000C9499D10C94485E4E414E494E49545993
:1003B000494E46CDCCCC3D0AD7233C17B7D1387730
:1003C000CC2B329595E6241FB14F0A000020410046
:1003D00000C84200401C4620BCBE4CCA1B0E5AAE90
:1003E000C59D7400407A10F35A00A0724E1809009F
:1003F00010A5D4E80000E87648170000E40B54028A
:100400000000CA9A3B000000E1F5050000809698C4
:1004100000000040420F000000A086010000001014
:100420002700000000E80300000000640000000056
:10043000000A00000000000100000000002C76D837
:1004400088DC674F0823DFC1DFAE59E1B1B796E51D
:10045000E3E453C63AE651997696E8E6C28426EB81
:10046000898C9B62ED407C6FFCEFBC9C9F40F2BA94
:10047000A56FA5F490055A2AF75C936B6CF9676D2C
:10048000C11BFCE0E40D47FEF520E6B500D0ED9081
:100490002E0300943577050080841E080000204E4E
:1004A0000A000000C80C333333330F986E128311E7
:1004B00041EF8D2114893BE65516CFFEE6DB18D1BE
:1004C000844B381BF77C1D901DA4BBE42420328490
:1004D000725E228100C9F124ECA1E53D27434F4D16
:1004E0004D554E49434154494F4E0044525952557F
:1004F0004E004552524F525300494E464F0045431D
:10050000484F004572726F722077726974696E6726
:1005100020746F20454550524F4D210A0021212063
:100520004B494C4C2063617573656420627920747B
:100530006F6F206D75636820696E6163746976659D
:100540002074696D65202D2063757272656E74204C
:10055000636F6D6D616E643A20004D343130004D33
:10056000313132004D3130380053544F50504544F2
:100570002E20005072696E7465722073746F7070F3
:1005800065642064756520746F206572726F727384
:100590002E2046697820746865206572726F72201B
:1005A000616E6420757365204D39393920746F2070
:1005B000726573746172742E202854656D70657253
:1005C00061747572652069732072657365742E207D
:1005D0005365742069742061667465722072657356
:1005E00074617274696E67290A004E6F20436865F2
:1005F000636B73756D2077697468206C696E652014
:100600006E756D6265722C204C617374204C696E3E
:10061000653A20004E6F20436865636B73756D20EB
:1006200077697468206C696E65206E756D6265729D
:100630002C204C617374204C696E653A200063680D
:1006400065636B73756D206D69736D617463682C80
:10065000204C617374204C696E653A20004C696EC1
:1006600065204E756D626572206973206E6F74200F
:100670004C617374204C696E65204E756D626572B5
:100680002B312C204C617374204C696E653A20002C
:100690004D313130005344207265616420657272BF
:1006A0006F720A00627573793A20706175736564C0
:1006B00020666F7220696E7075740A0062757379B6
:1006C0003A2070617573656420666F72207573657A
:1006D000720A00627573793A2070726F6365737382
:1006E000696E670A004D656469612052656D6F76B9
:1006F0006564004D6564696120496E736572746557
:100700006400506C656173652052657365740050B8
:1007100052494E5445522048414C544544002553BB
:100720003A202553004B494C4C45442E2000507232
:10073000696E7465722068616C7465642E206B69E3
:100740006C6C28292063616C6C6564210A00535429
:100750004F505045442E20005072696E74657220CF
:1007600073746F707065642064756520746F2065A4
:1007700072726F72732E20466978207468652065E6
:1007800072726F7220616E6420757365204D393905
:100790003920746F20726573746172742E2028542E
:1007A000656D70657261747572652069732072651C
:1007B0007365742E205365742069742061667465B6
:1007C000722072657374617274696E67290A0065BC
:1007D00063686F3A004572726F723A0021212053AC
:1007E000544F502063616C6C656420626563617571
:1007F0007365206F6620424C546F75636820657284
:10080000726F72202D207265737461727420776923
:100810007468204D3939390A0021212053544F5032
:100820002063616C6C65642062656361757365202B
:100830006F6620424C546F756368206572726F72E8
:10084000202D20726573746172742077697468203A
:100850004D3939390A000A0A426564204C657665CB
:100860006C20436F7272656374696F6E204D6174A2
:100870007269783A000A436F727265637465642026
:10088000426564204865696768742076732E20424B
:10089000656420546F706F6C6F67793A0A000A4282
:1008A00065642048656967687420546F706F67726B
:1008B000617068793A0A2020202B2D2D2D2042418D
:1008C000434B202D2D2B0A2020207C20202020206F
:1008D0002020202020207C0A204C207C202020204A
:1008E000282B29202020207C20520A2045207C20F3
:1008F000202020202020202020207C20490A204663
:10090000207C20282D29204E20282B29207C2047A0
:100910000A2054207C20202020202020202020205D
:100920007C20480A2020207C20202020282D2920DF
:100930002020207C20540A2020207C2020202020E1
:100940002020202020207C0A2020204F2D2D2046F2
:10095000524F4E54202D2D2B0A2028302C30290A9E
:10096000000A4D65616E206F662073616D706C6565
:100970006420706F696E74733A200020643A20001E
:1009800020623A200045716E20636F656666696378
:1009900069656E74733A20613A200050726F626923
:1009A0006E6720506F696E740025532025692F25CE
:1009B00069002E0A002F0050726F62696E67206D09
:1009C00065736820706F696E742000202844525946
:1009D00052554E2900473239204175746F204265C7
:1009E00064204C6576656C696E67003F20284C2C4E
:1009F000522C462C4229206F7574206F6620626F3E
:100A0000756E64732E0A003F50726F626520706FBE
:100A1000696E74732028592920696D706C61757333
:100A200069626C652028322D33292E0A003F5072EE
:100A30006F626520706F696E747320285829206971
:100A40006D706C61757369626C652028322D332975
:100A50002E0A003F2856296572626F7365206C6507
:100A600076656C20696D706C61757369626C652068
:100A700028302D34292E0A00446576696174696F27
:100A80006E0025533A2025730046696E69736865C8
:100A900064210A003A207A3A2000206F662000473D
:100AA0006F696E6720746F3A20580043570A002020
:100AB0006469723A0020616E676C653A0053746134
:100AC0007274207261646975733A004D3438205035
:100AD0006F696E740025533A2025642F25640050F9
:100AE0006F736974696F6E696E67207468652070D2
:100AF000726F62652E2E2E0A003F4C656773206F61
:100B000066206D6F76656D656E7420696D706C61C1
:100B1000757369626C652028302D3135292E0A00E5
:100B20003F2028582C5929206F7574206F66206249
:100B30006F756E64732E0A0050726F6265206F7558
:100B400074206F6620626F756E6473003F53616D31
:100B5000706C652073697A65206E6F7420706C61AB
:100B6000757369626C652028342D3530292E0A0092
:100B70004D3438205A2D50726F6265205265706571
:100B800061746162696C69747920546573740A00D8
:100B90003F2856296572626F7365206C6576656CB7
:100BA00020696D706C61757369626C652028302DE9
:100BB00034292E0A005374616E64617264204465A6
:100BC00076696174696F6E3A20002052616E6765C4
:100BD0003A2000204D61783A2000204D696E3A207D
:100BE00000205369676D613A20004D65616E3A20BF
:100BF0000020496E76616C69642065787472756452
:100C00006572200020746F6F206C6F6E67206578AE
:100C100074727573696F6E2070726576656E746537
:100C2000640A0020636F6C64206578747275736960
:100C30006F6E2070726576656E7465640A00536C21
:100C40006565702E2E2E005A2050726F62652050FE
:100C5000617374204265640A005A2050726F6265A5
:100C600020506173742042656400205A3A200020AD
:100C7000593A200042656420583A2000436C696369
:100C80006B20746F20526573756D652E2E2E004E8D
:100C90006F204D6F76652E00456E642066696C6529
:100CA000206C6973740A00426567696E2066696C1E
:100CB00065206C6973740A004E6F206D656469610C
:100CC0000A00286E6F2066696C6529004375727290
:100CD000656E742066696C653A200053442070721A
:100CE000696E74696E67206279746520004E6F7456
:100CF000205344207072696E74696E670A002E0A70
:100D00000044656C6574696F6E206661696C65642A
:100D10002C2046696C653A200046696C6520646544
:100D20006C657465643A002569730025696D20253A
:100D30006973002569682025696D20256973002580
:100D40006964202569682025696D2025697300255F
:100D5000697920256964202569682025696D202529
:100D60006973005072696E742074696D653A200071
:100D70006F6B006F666600FE04F904F204EB04DD9D
:100D80000444454255473A004D313132205368758D
:100D900074646F776E004D31313320530020573A21
:100DA0000042656420436F6F6C696E672E2E2E00C3
:100DB0004265642048656174696E672E2E2E004777
:100DC000656565746563682069332050726F2042E1
:100DD000204F46462E004348414D4245525F544500
:100DE0004D50455241545552450042414259535489
:100DF000455050494E470041524353004D4F5449CE
:100E00004F4E5F4D4F44455300544845524D414C61
:100E10005F50524F54454354494F4E004C4F4E473C
:100E20005F46494C454E414D45004155544F524552
:100E3000504F52545F53445F5354415455530053E1
:100E400044434152440050524F4D50545F5355500B
:100E5000504F525400454D455247454E43595F50FF
:100E6000415253455200434153455F4C4947485412
:100E70005F4252494748544E45535300544F4747E9
:100E80004C455F4C494748545300534F46545741D3
:100E900052455F504F574552004255494C445F50B0
:100EA000455243454E54004C4556454C494E475FCC
:100EB00044415441005A5F50524F42450052554EF2
:100EC0004F5554004155544F4C4556454C005052D7
:100ED000494E545F4A4F420050524F475245535378
:100EE000004155544F5245504F52545F54454D5058
:100EF00000564F4C554D45545249430045455052BC
:100F00004F4D0042494E4152595F46494C455F544E
:100F100052414E534645520053455249414C5F5849
:100F20004F4E5F584F4646004649524D5741524535
:100F30005F4E414D453A4D61726C696E20322E30E4
:100F40002E372E3220284A616E2020352032303252
:100F5000312031333A33323A31302920534F555210
:100F600043455F434F44455F55524C3A6874747033
:100F7000733A2F2F6769746875622E636F6D2F4DFA
:100F800061726C696E4669726D776172652F4D6131
:100F9000726C696E2050524F544F434F4C5F564510
:100FA0005253494F4E3A312E30204D414348494E1D
:100FB000455F545950453A476565657465636820D7
:100FC00069332050726F2042204558545255444591
:100FD000525F434F554E543A3120555549443A6378
:100FE000656465326132662D343161322D343734B7
:100FF000382D396231322D633535633632663336FA
:101000003766660A002F2F20004D31343520533CBF
:10101000696E6465783E206F7574206F662072611A
:101020006E67652028302D31290A00205200416367
:1010300063656C65726174696F6E3A2050003F4A57
:10104000206F7574206F662072616E67652028308E
:101050002E303120746F20302E33290A00205800A2
:1010600020204D61783A2000200020204D696E3A02
:101070002000536F667420656E6473746F70733AEA
:10108000200046523A0020466C6F773A20003A2002
:101090000020536572766F2000206F7574206F6694
:1010A0002072616E67650A00536572766F200020BA
:1010B000643A0020693A0020703A00496E76616C0B
:1010C00069642065787472756465720A0064697376
:1010D00000656E0043290A0061626C656420286D1A
:1010E000696E2074656D702000436F6C64206578B4
:1010F0007472756465732061726520004F46460006
:101100004F4E00426564204C6576656C696E6720C1
:10111000004661696C656420746F20656E61626C65
:101120006520426564204C6576656C696E670A00CF
:10113000426564204C6576656C20436F727265630E
:1011400074696F6E204D61747269783A004F6666FB
:1011500073657473204170706C69656400457272C8
:101160003A20546F6F206661722100546F6F2066C1
:1011700061722066726F6D207265666572656E635E
:101180006520706F696E740A00454550524F4D20BE
:101190004F4B0A00290A0020746F20003F5A206F2D
:1011A0007574206F662072616E6765202800290AB9
:1011B0000020746F20003F59206F7574206F6620E7
:1011C00072616E676520282D00290A0020746F2047
:1011D000003F58206F7574206F662072616E6765DE
:1011E00020282D0050726F6265204F66667365740B
:1011F0002058002058593A2000536B6577204661EB
:1012000063746F72006D696E5F736B65775F6661A3
:1012100063746F723A20202D31206D61785F736B9B
:1012200065775F666163746F723A2020310A004D02
:10123000383400446F6E65207072696E74696E6731
:101240002066696C650A004D3737004D333100491F
:101250006E76616C69642065787472756465720A73
:10126000004361703A0047322F47332062616420A7
:10127000706172616D65746572730A00220A00659F
:101280006E7175657565696E672022006F6B00521F
:101290006573656E643A200020573A00436F6F6CA7
:1012A000696E672E2E2E0048656174696E672E2E5A
:1012B0002E00452025530023646566696E65204431
:1012C000454641554C545F004B6420004B6920005B
:1012D0004B702000504944204175746F74756E65E1
:1012E0002066696E69736865642120507574207486
:1012F0006865206C617374204B702C204B692061F1
:101300006E64204B6420636F6E7374616E7473201F
:1013100066726F6D2062656C6F7720696E746F20E6
:10132000436F6E66696775726174696F6E2E680AC5
:1013300000504944204175746F74756E6520666174
:10134000696C6564212074696D656F75740A00505D
:101350004944204175746F74756E65206661696CCF
:101360006564212054656D706572617475726520C5
:10137000746F6F20686967680A00204B643A200028
:10138000204B693A2000204B703A20000A20436C21
:10139000617373696320504944200A002054753AF0
:1013A0002000204B753A2000206D61783A20002003
:1013B0006D696E3A200020643A20002062696173F2
:1013C0003A2000504944204175746F74756E652051
:1013D00073746172740A00504944204175746F74CB
:1013E000756E65206661696C6564212054656D7059
:1013F0006572617475726520746F6F2068696768C3
:101400000A00504944204175746F74756E65005030
:101410004944204175746F74756E65206661696C0E
:101420006564212042616420657874727564657218
:10143000206E756D6265720A004572723A2075748D
:10144000663820666F6E74206E6F7420696E6974E2
:1014500069616C697A65642E004572723A20757410
:10146000663820666F6E74206E6F7420696E6974C2
:1014700069616C697A65642E004572723A207574F0
:10148000663820666F6E74206E6F7420696E6974A2
:1014900069616C697A65642E0042656400456E631B
:1014A0006C6F737572650046696C2E204469612EFD
:1014B000004520696E206D6DC2B300200820466192
:1014C0006374002008204D6178002008204D696E6B
:1014D000004F6666004F6E004175746F74656D70E5
:1014E000005654726176204D696E00566D696E002B
:1014F000566D6178204500566D6178205A00566D12
:101500006178205900566D6178205800416D6178EE
:10151000204500416D6178205A00416D6178205965
:1015200000416D6178205800412D54726176656CE0
:1015300000412D5265747261637400416363656C90
:101540000050726F6265205A204F666673657400A2
:1015500050726F62652059204F6666736574005043
:10156000726F62652058204F66667365740045206F
:1015700073746570732F6D6D005A205374657073AA
:101580002F6D6D00592053746570732F6D6D005869
:101590002053746570732F6D6D00416476616E63C6
:1015A00065642053657474696E6773003F0043611E
:1015B0006E63656C00496E6974004D3432380049C1
:1015C0006E697469616C697A6520454550524F4D6A
:1015D0000046696C616D656E740054656D7065726E
:1015E00061747572650053746570732F6D6D005072
:1015F000726F6265204F666673657473004A756E1C
:101600006374696F6E2044657600416363656C6541
:10161000726174696F6E0056656C6F6369747900EE
:1016200053657420486F6D65204F666673657473EB
:1016300000436F6E66696775726174696F6E003F13
:10164000004E65787420506F696E7400446F6E654B
:10165000004E65787400486F6D696E672058595A5E
:101660000053746F72652053657474696E677300FC
:101670004C6F61642053657474696E6773004C65C8
:1016800076656C20436F726E6572730050726F6284
:1016900065205A204F6666736574004F6666004F7A
:1016A0006E00426564204C6576656C696E67004C1F
:1016B0006576656C20426564004732380A473239E6
:1016C00000473239004175746F20486F6D65004DD9
:1016D0006F74696F6E0053572D4D6F6465005374BE
:1016E0006F77004465706C6F790053656C662D549C
:1016F00065737400526573657400426564004E6FD3
:101700007A7A6C650046616E2053706565640043AB
:101710006F6E66696775726174696F6E005265738A
:10172000746F72652044656661756C7473004C6FEC
:1017300061642053657474696E67730053746F72CB
:10174000652053657474696E6773005072656865CF
:101750006174202420436F6E6600424C546F7563A1
:10176000680050726F6265205A204F666673657418
:1017700000416476616E6365642053657474696EBC
:101780006773004D61696E00000C0F00FE070225B3
:1017900003BB017FFE08FE08FE05080806000040A6
:1017A000F0C88888987810050808060000C0F888F6
:1017B00088888888F80505050600012030F8302063
:1017C0000508080600002070F820202020E0050908
:1017D000090600FF2070A8A8B888887020070505B2
:1017E000070001D86C366CD80509090600FFF8A877
:1017F0008888888888A8F8050A0A0600FE205050C4
:10180000505088A8A8887003030306000340A04036
:10181000FFFFFFFFFFFFFFFFFFFFFFFFFFFFFFFFD8
:10182000FFFFFFFFFFFF0000000605FF010707069F
:10183000020080808080800080030303060105A0F1
:10184000A0A005060606000050F85050F850050903
:10185000090600FF2070A8A07028A87020050707BF
:10186000060000C8C8102040989805070706000029
:1018700040A0A040A8906801030306020580808074
:101880000309090601FF204040808080404020037A
:1018900009090601FF8040402020204040800507C4
:1018A0000706000020A8702070A820050505060086
:1018B000012020F820200203030601FFC04080051C
:1018C0000101060003F8020202060100C0C005077C
:1018D000070600000810102040408005070706009A
:1018E00000708898A8C8887003070706010040C0E8
:1018F00040404040E00507070600007088081020BF
:1019000040F8050707060000F80810300888700541
:10191000070706000010305090F810100507070662
:101920000000F880F00808887005070706000030FE
:101930004080F0888870050707060000F80810103E
:1019400020202005070706000070888870888870AE
:1019500005070706000070888878081060020505F2
:10196000060100C0C000C0C00206060601FFC0C0DC
:1019700000C040800305050601012040804020058D
:101980000303060002F800F8030505060101804084
:1019900020408005070706000070881020200020E6
:1019A0000507070600007088B8A8B880700507070B
:1019B000060000708888F8888888050707060000F8
:1019C000F04848704848F005070706000070888016
:1019D00080808870050707060000F048484848489E
:1019E000F0050707060000F88080F08080F8050702
:1019F00007060000F88080F0808080050707060059
:101A00000070888080988870050707060000888825
:101A100088F8888888030707060100E040404040B6
:101A200040E0050707060000381010101090600510
:101A300007070600008890A0C0A090880507070649
:101A40000000808080808080F805070706000088FD
:101A5000D8A8888888880507070600008888C8A84D
:101A6000988888050707060000708888888888702D
:101A7000050707060000F08888F0808080050707CA
:101A800006000070888888A890680507070600008F
:101A9000F08888F0A090880507070600007088800D
:101AA00070088870050707060000F8202020202015
:101AB0002005070706000088888888888870050741
:101AC0000706000088888888505020050707060010
:101AD0000088888888A8A85005070706000088881D
:101AE000502050888805070706000088885020206D
:101AF0002020050707060000F80810204080F803A2
:101B000009090601FFE080808080808080E0050771
:101B10000706000080404020101008030909060154
:101B2000FFE020202020202020E005030306000500
:101B30002050880501010600FEF803030306010595
:101B400080402005050506000070087888780507A4
:101B5000070600008080F0888888F00505050600EB
:101B600000708080887005070706000008087888E4
:101B70008888780505050600007088F080700507E4
:101B800007060000304840E04040400507070600D7
:101B9000FE70888888780870050707060000808036
:101BA000F0888888880307070601004000C040408D
:101BB00040E00409090601FE1000301010101090DA
:101BC0006005070706000080808890E09088030782
:101BD00007060100C04040404040E0050505060002
:101BE00000D0A8A8A8A8050505060000B0C88888E8
:101BF00088050505060000708888887005070706B7
:101C000000FEF0888888F080800507070600FE78CF
:101C1000888888780808050505060000B0C8808017
:101C20008005050506000078807008F005070706A6
:101C300000002020F8202020180505050600008857
:101C40008888986805050506000088888850200562
:101C500005050600008888A8A850050505060000AF
:101C600088502050880507070600FE888888502085
:101C70004080050505060000F8102040F80309091A
:101C80000601FF20404040804040402001090906F5
:101C900002FF8080808080808080800309090601A7
:101CA000FF80404040204040408005030306000282
:101CB00048A890FF5045544700504C41003F004217
:101CC00061636B0053746F70005072696E742066AC
:101CD000726F6D204D65646961004368616E676570
:101CE000204D65646961004D323100436F6E666955
:101CF0006775726174696F6E0054656D70657261AD
:101D000074757265004D6F74696F6E0052657375FE
:101D10006D65205072696E74004E6F204D65646968
:101D2000610054756E650053746F70205072696E57
:101D300074005061757365205072696E7400496E4D
:101D4000666F2053637265656E003F005374617265
:101D500074205072696E740043616E63656C00504C
:101D600072696E740043616E6E6F7420656E746587
:101D700072207375626469723A2000022E2E004D43
:101D800061696E002100486F74656E6420746F6F26
:101D900020636F6C64004261636B0050726F636517
:101DA0006564004D6F74696F6E0044697361626CA5
:101DB00065205374657070657273004D3834004D42
:101DC00034382050726F6265205465737400473256
:101DD00038204F0A4D34382050313000426564209D
:101DE0004C6576656C696E6700486F6D65205A00BA
:101DF0004732385A00486F6D6520590047323859CC
:101E000000486F6D6520580047323858004175749E
:101E10006F20486F6D6500473238004D61696E0074
:101E200050726568656174202420456E64005072AC
:101E300065686561742024204265640054656D7096
:101E40006572617475726500B91CB41C436F6F6C68
:101E5000646F776E00507265686561742024004677
:101E6000616E20537065656400426564004E6F7A50
:101E70007A6C65004D61696E00466C6F7700466153
:101E80006E20537065656400426564004E6F7A7A17
:101E90006C65005370656564004D61696E0025686E
:101EA000753A25303268750025303268753A25302C
:101EB00032687500256875642025303268753A25CA
:101EC0003032687500202020202020200020202093
:101ED00020001FE0201020102010102010202010C3
:101EE000201030300840048003001FE03FF03FF036
:101EF0003FF01FE01FE03FF03FF03FF00FC00780D2
:101F000003003FFFF038007030FC3020FC102078D8
:101F1000102030102C00D02E31D02F7BD02F7BD032
:101F20002E31D02C00D020301020781020FC103022
:101F3000FC303800703FFFF03FFFF0380070318612
:101F4000302387102787902F87D02F03D020301081
:101F50002078102078102030102F03D02F87D02722
:101F600087902387103186303800703FFFF01FFFC5
:101F7000F81FFFF804104002082002082004104057
:101F8000082080104100104100082080041040000B
:101F900000001FFFF81FFFF85072696E7420416245
:101FA0006F72746564004D32350050617573696EEF
:101FB000672E2E2E00454550524F4D2056657273A8
:101FC000696F6E204572726F7200454550524F4DD9
:101FD00020496E646578204572726F7200454550E5
:101FE000524F4D20435243204572726F72003F00A2
:101FF00049676E6F726500526573657400496E695A
:102000007469616C697A6520454550524F4D006F87
:1020100070656E00545249474745524544003A2086
:10202000007A5F6D696E00795F6D696E00785F6D33
:10203000696E005265706F7274696E6720656E64B8
:1020400073746F70207374617475730A00486F6DD8
:1020500065202573257325732046697273740048C3
:102060006F6D696E67204661696C656400000020D1
:1020700041000020C100000000000048420000486C
:1020800042000080405761726E696E673A20486F67
:102090006D696E672042756D702044697669736F53
:1020A00072203C20310A000202040000A04000001F
:1020B000A0400000004000003A4300003B43000005
:1020C0003943FFFFFF000000010000000100008015
:1020D00000555555000000400033333300AAAA2AAA
:1020E000004992240000002000C7711C0099991932
:1020F00000D1451700555515003BB1130024491276
:102100000011111100000010000F0F0F00E3380E36
:102110000043790D00CCCC0C00C3300C00E8A20BBE
:102120000064210B00AAAA0A00703D0A009DD8098C
:1021300000427B090092240900DCD308008888084B
:10214000001042080000000800F0C1070087870760
:102150000075500700711C07003EEB0600A1BC068D
:10216000006990060066660600703E06006118066B
:102170000017F4050074D105005BB00500B29005AE
:1021800000627205005555050078390500B81E0536
:1021900000050505004EEC040087D40400A1BD0431
:1021A0000090A7040049920400C17D0400EE690478
:1021B00000C7560400444404005C320400082104B3
:1021C0000041100400000004003FF00300F8E003A9
:1021D0000026D20300C3C30300CCB503003AA80312
:1021E000000A9B0300388E0300C08103009F750323
:1021F00000D0690300505E03001D53030034480300
:1022000000913D03003333030016290300381F03F8
:102210000097150300300C0300030303000BFA02C0
:102220000049F10200BAE802005CE002002DD80289
:10223000002DD0020059C80200B0C0020031B9021E
:1022400000DAB10200AAAA0200A0A30200BC9C020C
:1022500000FA9502005C8F0200DF88020082820291
:1022600000457C02002776020027700200436A02C4
:10227000007C640200D05E02003F590200C8530295
:1022800000FFFDFCFAF8F6F4F2F0EEECEAE9E7E51F
:10229000E3E1E0DEDCDAD9D7D5D4D2D0CFCDCBCADA
:1022A000C8C7C5C3C2C0BFBDBCBAB9B7B6B4B3B264
:1022B000B0AFADACAAA9A8A6A5A4A2A1A09E9D9CC2
:1022C0009A99989795949392908F8E8D8B8A8988FE
:1022D000878684838281807F7E7D7B7A797877761A
:1022E0007574737271706F6E6D6C6B6A6968676616
:1022F0006564636261605F5E5D5C5B5A5958585704
:1023000056555453525150504F4E4D4C4B4A4A49DA
:1023100048474646454443424241403F3E3E3D3C9D
:102320003B3B3A3938383736353534333232313051
:10233000302F2E2E2D2C2B2B2A29292827272625F6
:102340002524232322212120201F1E1E1D1C1C1B8F
:102350001B1A19191818171616151514131312121B
:102360001111100F0F0E0E0D0D0C0C0B0A0A09099E
:102370000808070706060505040403030202010016
:1023800000000044430000314300003943000020B6
:1023900041000020C10000000053657474696E673D
:1023A000732053746F72656400290A002062797487
:1023B00065733B20637263200053657474696E67B4
:1023C000732053746F726564202800454550524F46
:1023D0004D206461746173697A65206572726F72F1
:1023E0002E0A00290A002062797465733B2063720B
:1023F0006320002073746F72656420736574746960
:102400006E67732072657472696576656420280052
:10241000202863616C63756C6174656429210A000E
:1024200020213D2000454550524F4D20435243202E
:102430006D69736D61746368202D202873746F72E9
:1024400065642920002053697A653A2000496E644A
:1024500065783A200044494749504F5453204C6F07
:10246000616465640A0044494749504F5453204C05
:102470006F6164696E670A00204D61726C696E3D20
:10248000563832290A00454550524F4D2076657224
:1024900073696F6E206D69736D6174636820284580
:1024A0004550524F4D3D0048617264636F646564EE
:1024B0002044656661756C742053657474696E6739
:1024C00073204C6F616465640A000000C84300001B
:1024D000C84300000040000034420000A342000056
:1024E000A3425258C8430000D84288130000881302
:1024F000000032000000881300003B20003A0A0070
:1025000020204D383532205300536B6577204661CB
:1025100063746F723A200020204D38353120580006
:102520005A2D50726F6265204F6666736574002085
:10253000440020490020204D3330312050005049C4
:10254000442073657474696E67733A0020460020F6
:10255000420020480020204D3134352053004D6189
:1025600074657269616C2068656174757020706152
:1025700072616D65746572733A0020204D3432309B
:102580002053004175746F20426564204C65766568
:102590006C696E673A0020204D3230362058004872
:1025A0006F6D65206F66667365743A00204A00207F
:1025B000530020204D323035204200416476616E58
:1025C0006365643A20423C6D696E5F7365676D6553
:1025D0006E745F74696D655F75733E20533C6D6901
:1025E0006E5F66656564726174653E20543C6D691A
:1025F0006E5F74726176656C5F6665656472617446
:10260000653E204A3C6A756E635F6465763E0020D5
:10261000540020520020204D3230342050004163BD
:1026200063656C65726174696F6E2028756E69747C
:10263000732F7332293A20503C7072696E745F6157
:102640006363656C3E20523C726574726163745FB3
:10265000616363656C3E20543C74726176656C5FA7
:10266000616363656C3E0020204D3230312058009C
:102670004D6178696D756D20416363656C6572614C
:1026800074696F6E2028756E6974732F7332293ADE
:102690000020204D3230332058004D6178696D752F
:1026A0006D206665656472617465732028756E6956
:1026B00074732F73293A00537465707320706572B8
:1026C00020756E69743A0020440020204D3230306D
:1026D0002053002044697361626C65640A00466996
:1026E0006C616D656E742073657474696E67733A9E
:1026F0000020204D3134392043203B20556E697431
:102700007320696E2043656C736975730A00202815
:102710006D6D29002020473231202020203B20559C
:102720006E69747320696E206D6D0024F4D430508E
:10273000C38E20C2A24017828B7011127A910D8134
:102740006CD90AA861E108C7586607615143061EA3
:102750004B5D05C145A7041A411104093D98037159
:102760003931034036DB0265339102D430540280A4
:102770002E1D02632CEE01752AC501B028A00110A0
:102780002781018F2564012B244B01E0223401AC09
:10279000211F018D200D01801FFC00841EED00977C
:1027A0001DDF00B81CD200E61BC600201BBC006465
:1027B0001AB200B219A8000A19A0006A189900D12B
:1027C00017910040178B00B516840031167E00B3B8
:1027D0001579003A157300C7146F0058146A00EE9B
:1027E0001366008813630025135E00C7125B006C3C
:1027F00012570015125400C111510070114F0021E1
:10280000114B00D61049008D1047004610440002BD
:10281000104200C00F4000800F3E00420F3C0006F7
:102820000F3B00CB0E3800930E37005C0E350027AF
:102830000E3400F30D3200C10D3100900D300060F8
:102840000D2E00320D2D00050D2C00D90C2B00AEE5
:102850000C2900850C29005C0C2700350C27000E84
:102860000C2600E80B2400C40B2400A00B23007DE1
:102870000B23005A0B2100390B2100180B2000F804
:102880000A1F00D90A1E00BB0A1E009D0A1D0080F7
:102890000A1D00630A1C00470A1B002C0A1B0011BA
:1028A0000A1A00F7091A00DD091900C4091900AB5A
:1028B000091900920917007B091800630917004CD9
:1028C00009160036091600200916000A091500F538
:1028D000081500E0081400CC081400B8081400A47F
:1028E000081400900813007D0812006B08130058AC
:1028F00008120046081200340811002308110012C3
:1029000008110001081100F0071000E0071000D0C6
:10291000071000C0071000B0070F00A107100091BA
:10292000070E0083070F0074070F0065070E00579E
:10293000070E0049070E003B070D002E070E002072
:10294000070D0013070D0006070D00F9060C00ED3A
:10295000060D00E0060C00D4060C00C8060C00BCF6
:10296000060C00B0060C00A4060B0099060C008DA6
:10297000060B0082060B0077060B006C060B00614D
:10298000060A0057060B004C060A0042060A0038E9
:10299000060A002E060A0024060A001A060A00107B
:1029A00006090007060A00FD050900F4050900EB09
:1029B000050900E2050900D9050900D0050900C78D
:1029C000050900BE050900B5050800AD050800A50C
:1029D0000509009C050800940508008C0508008482
:1029E0000508007C050800740508006C05070065F3
:1029F0000508005D050700560508004E050700475D
:102A00000507004005080038050700310507002AC2
:102A1000050700230507001C050600160507000F23
:102A20000507000805060002050700FB040600F57F
:102A3000040700EE040600E8040600E2040700DBD9
:102A4000040600D5040600CF040600C9040600C32E
:102A5000040600BD040600B7040600B1040500AC7E
:102A6000040600A6040600A00405009B04060095C9
:102A7000040500900406008A040500850405008012
:102A80000406007A04050075040500700405006B57
:102A900004050066040500610405005C0405005798
:102AA000040500520405004D0405004804050043D8
:102AB0000405003E0404003A040500350405003016
:102AC0000404002C04050027040400230405001E50
:102AD0000404001A04040016040500110404000D87
:102AE000040400090405000404040000040400FCBC
:102AF000030400F8030400F4030400F0030400ECF2
:102B0000030400E8030400E4030400E0030400DC21
:102B1000030400D8030400D4030400D0030400CC51
:102B2000030400C8030300C503030024F404D920F0
:102B30001BC40C5C0E9804C4095F0265077101F4A4
:102B400005F900FB04B30048048700C1036900587D
:102B500003550003034500BE023A008402310053CE
:102B6000022A002902250004022000E4011C00C8FA
:102B7000011900AF011700980114008401130071BE
:102B80000110006101100051010E0043010D0036DB
:102B9000010B002B010B0020010B00150109000C9B
:102BA00001090003010800FB000800F3000800EB26
:102BB000000700E4000600DE000600D8000600D290
:102BC000000600CC000500C7000500C2000500BDDE
:102BD000000400B9000400B5000400B1000400AD19
:102BE000000400A9000400A5000300A20003009F48
:102BF0000004009B0003009800030095000200936E
:102C0000000300900003008D0002008B0003008889
:102C10000002008600020084000300810002007FA1
:102C20000002007D0002007B0002007900020077B4
:102C300000010076000200740002007200010071C1
:102C40000002006F0002006D0001006C0002006ACB
:102C500000010069000200670001006600010065D4
:102C600000010064000200620001006100010060D8
:102C70000001005F0002005D0001005C0001005BDC
:102C80000001005A000100590001005800010057DE
:102C900000010056000100550001005400010053DE
:102CA00000000053000100520001005100010050DB
:102CB0000001004F0001004E0000004E0001004DD9
:102CC0000001004C0001004B0000004B0001004AD5
:102CD00000010049000100480000004800010047D1
:102CE00000010046000000460001004500000045CC
:102CF00000010044000100430000004300010042C5
:102D000000000042000100410000004100010040BD
:102D10000001003F0000003F0001003E0000003EB7
:102D20000001003D0000003D0001003C0000003CAF
:102D30000000003C0001003B0000003B0001003AA5
:102D40000000003A0001003900000039000100389D
:102D50000000003800000038000100370000003794
:102D6000000100360000003600000036000100358A
:102D70000000003500000035000100340000003480
:102D80000000003400010033000000330000003375
:102D9000000100320000003200000032000100316A
:102DA0000000003100000031000100300000003060
:102DB000000000300001002F0000002F0000002F55
:102DC0000000002F0001002E0000002E0000002E49
:102DD0000001002D0000002D0000002D0000002D3E
:102DE0000001002C0000002C0000002C0000002C32
:102DF0000001002B0000002B0000002B0000002B26
:102E00000001002A0000002A0000002A0000002A19
:102E1000000100290000002900000029000000290D
:102E20000000002900010028000000280000002800
:102E300000000028000000280001002700000027F3
:102E400000000027000000270000002700010026E6
:102E500000000026000000260000002600000026DA
:102E600000010025000000250000002500000025CD
:102E700000000025000000250001002400000024BF
:102E800000000024000000240000002400010023B2
:102E900000000023000000230000002300000023A6
:102EA0000000002300000023000100220000002297
:102EB000000000220000002200000022000000228A
:102EC000000100210000002100000021000000217D
:102ED000000000210000002100000021000100206E
:102EE0000000002000000020000000200000002062
:102EF0000000002000000020000000200001001F52
:102F00000000001F0000001F0000001F0000001F45
:102F10000000001F0000001F0001001E0000001E36
:102F20000000001E0000001E0000003930000033C9
:102F300025000087190000B00F0000DB080000BD6D
:102F4000040000740200003F01000020436F756E12
:102F50007420583A0042656400453100626564009F
:102F60002C2073797374656D2073746F7070656451
:102F700021204865617465725F49443A20004865C4
:102F80006174696E67204661696C656400486561BB
:102F900074696E67206661696C65640054484552C7
:102FA0004D414C2052554E4157415900546865726D
:102FB0006D616C2052756E61776179004572723A6D
:102FC000204D415854454D50004D415854454D50A9
:102FD00020747269676765726564004572723A2091
:102FE0004D494E54454D50004D494E54454D50208D
:102FF00074726967676572656400202F0020424023
:103000003A0020403A000009121B242D363F484167
:103010005A536C657E7719100B023D342F26515898
:10302000434A757C676E323B2029161F040D7A7364
:1030300068615E574C452B2239300F061D14636AB8
:103040007178474E555C646D767F4049525B2C2504
:103050003E3708011A137D746F6659504B42353C58
:10306000272E1118030A565F444D727B60691E17A4
:103070000C053A3328214F465D546B627970070E78
:10308000151C232A31384148535A656C777E090054
:103090001B122D243F3658514A437C756E67101918
:1030A000020B343D262F737A6168575E454C3B32E4
:1030B00029201F160D046A6378714E475C55222B38
:1030C0003039060F141D252C373E0108131A6D6484
:1030D0007F7649405B523C352E2718110A03747DD8
:1030E000666F5059424B171E050C333A21285F5624
:1030F0004D447B7269600E071C152A233831464FF8
:10310000545D626B70797C3C3E5E2B3D3F2F5B5D76
:103110003B2C2A225C005072696E742050617573DA
:1031200065640043616E6E6F74206F70656E20730E
:1031300075626469722000534420496E69742046A8
:1031400061696C0053442063617264206F6B0A00F4
:103150006F70656E526F6F74206661696C65640A8A
:1031600000766F6C756D652E696E69742066616995
:103170006C65640A004E6F20534420636172640AD8
:10318000004D3234004D3233202573002E0A006F7B
:1031900070656E206661696C65642C2046696C659B
:1031A0003A200046696C652073656C6563746564DC
:1031B0000A002053697A653A200046696C65206FE1
:1031C00070656E65643A2000454E44205355425266
:1031D0004F5554494E450A002220706F730022203B
:1031E000706172656E743A2200535542524F5554C5
:1031F000494E452043414C4C207461726765743AD6
:10320000220053756263616C6C204F766572666C48
:103210006F77004578636565646564206D6178202B
:10322000535542524F5554494E4520646570746859
:103230003A310A0057726974696E6720746F2066AC
:10324000696C653A2000667265736800646F696E28
:1032500067002066696C653A20004E6F7720000099
:10326000000A0B02090C0D0E080703040100000000
:10327000000000000000000000000000000000004E
:10328000000000000000000000000012111000000B
:10329000000000000000000000000000000000002E
:1032A00000000000000268747470733A2F2F6D6183
:1032B000726C696E66772E6F726700322E302E3711
:1032C0002E320001FFFFFFFFFFFFFFFFFFFFFFFFA9
:1032D000FF0FFFFFFFFFFFFFFFFFFFFFFFFFFF1ECF
:1032E0000000000000000000000007FFFF380000A1
:1032F000000000000000000003FFFF70000000005D
:1033000000000000000001FFFF600000000000005E
:103310000000000000FFFF6000000000000000004F
:103320000000007FFFC000000000000000007800E7
:10333000003FFFC00FC0FC00000000007818001F15
:10334000FFC03FE1FF0000000000783C000FFFC01D
:103350007FF3FF8000000000783C0007FFC0FFFF04
:10336000FFC000000000783C0003FFC1F87F87E049
:103370000000000078000001FFC1F03F03E0000002
:10338000000078000000FFC1E01E01E01F0003E024
:10339000783C03F07FC1E01E01E07FC00FF8783C6D
:1033A00007FC3FC1E01E01E1FFE01FFC783C0FFE7F
:1033B0001FC1E01E01E3FFF03FFE783C1FFE0FC17E
:1033C000E01E01E3F3F83F3E783C3F3F07C1E01EBB
:1033D00001E7E0FC7C1F783C3E1F07C1E01E01E7CF
:1033E000C07C7C0F783C3C0F03C1E01E01E7807C71
:1033F000780F783C3C0F03C1E01E01E7803C780069
:10340000783C3C0F03C1E01E01E7803C7800783C2B
:103410003C0F03C1E01E01E7803C7800783C3C0F84
:1034200003C1E01E01E7C03C7800783C3C0F03C1BB
:10343000E01E01E3E03C78007C3C3C0F03C1E01E51
:1034400001E3FF3FF8007FBC3C0F03C1E01E01E138
:10345000FF3FF8003FBFFC0F03C1E01E01E0FF3F4C
:10346000F8001FBFFC0F03C1E01E01E07F3FF80022
:103470000FBFFC0F03600000000000000000000010
:1034800000000760000000000000000000000000D5
:1034900006700000000000000000000000000E3870
:1034A0000000000000000000000000001C1E0000E2
:1034B00000000000000000000000780FFFFFFFFF89
:1034C000FFFFFFFFFFFFFFFFF001FFFFFFFFFFFF19
:1034D000FFFFFFFFFFFF8070012C0190012701B06B
:1034E000012201C0011D01F0011801100213013079
:1034F000020E016002090190020401C002FF0000F7
:1035000003FA004003F5008003F000D003EB002035
:1035100004E6007004E100E004DC004005D700C0D0
:1035200005D2004006CD00D006C8008007C3003099
:1035300008BE00F008B900C009B400B00AAF00B07E
:103540000BAA00D00CA500000EA000500F9B00C0DD
:103550001096005012910000148C00C0158700B026
:10356000178200B0197D00D01B7800001E73004048
:10357000206E0090226900F024640040275F0090D4
:10358000295A00E02B5500102E500020304B00101F
:10359000324600E033410090353C00103737007070
:1035A000383200A0392D00B03A2800A03B2300603B
:1035B0003C1E00103D1900903D1400103E0F00709D
:1035C0003E0A00C03E0500003F0000403FFBFF8078
:1035D0003FF6FFC03FF1FF2020506C616E6E6572B8
:1035E00042756666657242797465733A20002046BA
:1035F000726565204D656D6F72793A2000436F6D7D
:1036000070696C65643A204A616E20203520323042
:1036100032310A00204C6173742055706461746506
:10362000643A20323032302D31302D3135207C203B
:10363000417574686F723A206A6F6E7361670A0031
:10364000322E302E372E320A004D61726C696E00B8
:1036500020536F6674776172652052657365740AD2
:1036600000205761746368646F67205265736574E6
:103670000A002042726F776E206F75742052657356
:1036800065740A002045787465726E616C2052651D
:103690007365740A00506F77657255700A00737411
:1036A0006172740A006175746F25632E670047327A
:1036B000385859004D31303031006572726F7220C8
:1036C00077726974696E6720746F2066696C650A29
:1036D00000446F6E6520736176696E672066696C61
:1036E000652E0A004D323900456E6473746F707335
:1036F00000255320256320256320256320256300B2
:10370000205A3A0020593A0020583A00656E6473F6
:10371000746F7073206869743A2000004D6F76658D
:103720002025736D6D004D6F766520302E316D6DE7
:10373000004D6F766520316D6D004D6F76652031DF
:10374000306D6D004D6F7665204178697300457866
:10375000747275646572004D6F7665205A004D6F06
:1037600076652059004D6F76652058005072696E5D
:10377000742066726F6D204D656469610050726FD0
:1037800062696E67204661696C65640A0050726FF9
:1037900062696E67204661696C656400205A3A2050
:1037A0000020593A200042656420583A2000220A3D
:1037B00000556E6B6E6F776E20636F6D6D616E641A
:1037C0003A20220047656565746563682069332087
:1037D00050726F20422052656164792E00507269E8
:1037E0006E74696E672E2E2E00204500205A002030
:1037F0005900204D393220580020453A00205A3ACD
:103800000020593A00583A00DB0FC93F45BCDA3F67
:103810008FB30240FCF0274056946140FE4B9B4022
:1038200084A5D840E0231841346A5641E8599741AD
:1038300064DBD5416E271742B4B75542CE1A974282
:10384000C8AED542B5885A43D40684BFA65FA7BF89
:103850007443E0BF10B11AC01C2C58C0E8F697C0E2
:10386000B849D6C04E4E17C124D355C1802497C144
:10387000A0B5D5C1121A17C244AE55C2781797C267
:103880006CACD5C267885AC320746F6F206C6F6EA2
:103890006720657874727573696F6E2070726576D3
:1038A000656E7465640A0020636F6C6420657874CB
:1038B000727573696F6E2070726576656E7465647B
:1038C0000A0000002110422063308440A550C660E9
:1038D000E770088129914AA16BB18CC1ADD1CEE1CD
:1038E000EFF13112100273325222B5529442F77244
:1038F000D662399318837BB35AA3BDD39CC3FFF31D
:10390000DEE36224433420040114E664C774A44453
:1039100085546AA54BB528850995EEE5CFF5ACC56C
:103920008DD55336722611163006D776F666955623
:10393000B4465BB77AA719973887DFF7FEE79DD7BC
:10394000BCC7C448E5588668A778400861180228B3
:103950002338CCC9EDD98EE9AFF9488969990AA90C
:103960002BB9F55AD44AB77A966A711A500A333A83
:10397000122AFDDBDCCBBFFB9EEB799B588B3BBB5C
:103980001AABA66C877CE44CC55C222C033C600C13
:10399000411CAEED8FFDECCDCDDD2AAD0BBD688DAC
:1039A000499D977EB66ED55EF44E133E322E511E63
:1039B000700E9FFFBEEFDDDFFCCF1BBF3AAF599FFC
:1039C000788F8891A981CAB1EBA10CD12DC14EF19C
:1039D0006FE18010A100C230E32004502540467002
:1039E0006760B9839893FBA3DAB33DC31CD37FE32D
:1039F0005EF3B1029012F322D23235421452776252
:103A00005672EAB5CBA5A89589856EF54FE52CD5FC
:103A10000DC5E234C324A0148104667447642454A1
:103A20000544DBA7FAB79987B8975FE77EF71DC70C
:103A30003CD7D326F2369106B016576676761546F1
:103A400034564CD96DC90EF92FE9C899E9898AB95C
:103A5000ABA94458654806782768C018E108823841
:103A6000A3287DCB5CDB3FEB1EFBF98BD89BBBAB6C
:103A70009ABB754A545A376A167AF10AD01AB32A91
:103A8000923A2EFD0FED6CDD4DCDAABD8BADE89DBC
:103A9000C98D267C076C645C454CA23C832CE01CE1
:103AA000C10C1FEF3EFF5DCF7CDF9BAFBABFD98F4C
:103AB000F89F176E367E554E745E932EB23ED10E31
:103AC000F01E00002200250028002B002E003100EF
:103AD000340002010000050108010B010000210073
:103AE000240027002A002D003000330001010000CF
:103AF000040107010A01050505050705080808086E
:103B0000020202020A0A0808040404040101010175
:103B10000101010103030303030303030407070770
:103B20000C0C0C0C0C0C0C0C020202020606060615
:103B3000060606060B0B0B0B0B0B0B0B01021020E2
:103B400020080810204010204080020102010804D3
:103B50000201010204081020408080402010080467
:103B600002018004020180402010080402010804C0
:103B70000201010204081020408001020408102004
:103B800040806E01D60011241FBECFEFD1E2DEBF10
:103B9000CDBF00E00CBF13E0A0E0B2E0E2E5F9E544
:103BA00002E00BBF02C007900D92AC31B107D9F70C
:103BB00025E1ACE1B3E001C01D92A333B207E1F708
:103BC0001DE1C2ECDDE100E006C021970109802F74
:103BD000FE010F94002CC13CD10780E00807A9F733
:103BE0000F94EB150D94972C0C940000CF93DF935A
:103BF000EC01CB01BA010F940B2229EC38EC48EC14
:103C00005EE30F94A62920E030E040E05FE30F94EC
:103C1000AC280F941F2A6883DF91CF910895E0911B
:103C20002D0886E0E802F0011124EE53FB4F80914D
:103C30000B0890E0958384830895CF93DF9300D0A1
:103C40001F92CDB7DEB784EF91E0A0E0B0E08983AA
:103C50009A83AB83BC83BE016F5F7F4F80EA0E9473
:103C60003D4C0F900F900F900F90DF91CF910895E2
:103C7000CF93DF9300D01F92CDB7DEB787E791E0F7
:103C8000A0E0B0E089839A83AB83BC83BE016F5F01
:103C90007F4F8CE30E943D4C0F900F900F900F9040
:103CA000DF91CF910895CF93DF9300D01F92CDB7CE
:103CB000DEB787E791E0A0E0B0E089839A83AB8329
:103CC000BC83BE016F5F7F4F88E70E943D4C0F9021
:103CD0000F900F900F90DF91CF910895CF93DF93C6
:103CE00000D01F92CDB7DEB78EEE92E0A0E0B0E03C
:103CF00089839A83AB83BC83BE016F5F7F4F8AE069
:103D00000E943D4C0F900F900F900F90DF91CF913C
:103D10000895CF93DF9300D01F92CDB7DEB78EEE1C
:103D200092E0A0E0B0E089839A83AB83BC83BE01BC
:103D30006F5F7F4F8AE50E943D4C0F900F900F9070
:103D40000F90DF91CF910895CF93DF93EC01CB01DA
:103D5000BA010F940B2220E030E040E251E40F94CE
:103D6000A62920E030E0A9010F94AC28688379836C
:103D70008A839B83DF91CF910895CF93DF93EC01EA
:103D8000CB01BA010F940B2220E030E040E251E475
:103D90000F94A62920E030E0A9010F94AC28688395
:103DA00079838A839B83DF91CF910895CF93DF93AB
:103DB000EC01CB01BA010F940B222AE037ED43E26C
:103DC0005DE30F94A62920E030E0A9010F94AC2810
:103DD0000F941F2A688379838A839B83DF91CF9115
:103DE0000895CF93DF93EC01CB01BA010F940B221E
:103DF00020E030E0A9010F94AC28688379838A839E
:103E00009B83DF91CF910895CF93DF93EC01CB019A
:103E1000BA010F940B2220E030E0A9010F94AC28E6
:103E2000688379838A839B83DF91CF910895CF93B1
:103E3000DF93EC01CB01BA010F940B222AE037ED9E
:103E400043E25DE30F94A62920E030E0A9010F943E
:103E5000AC28688379838A839B83DF91CF9108950F
:103E6000CF93DF93EC01CB01BA010F940B2220E03A
:103E700030E048EC52E40F94A62920E030E0A9019C
:103E80000F94AC28688379838A839B83DF91CF91D9
:103E90000895CF93DF93EC01CB01BA010F940B226D
:103EA00020E030E04AE754E40F94A62920E030E017
:103EB000A9010F94AC28688379838A839B83DF915F
:103EC000CF9108958F929F92AF92BF92CF92DF923F
:103ED000EF92FF926B017C0120E030E0A9010F948A
:103EE000042287FD6BC06DEB77E386E095E3A701C5
:103EF00096010F94AC286B017C0120E030E040E299
:103F000051E40F946A2220E030E040E251E40F9443
:103F10006A224B015C0120E030E0A901C701B60133
:103F20000F94042220E030E040EA50E487FF04C010
:103F300020E030E040EA50ECC501B4010F94AC2819
:103F400020E030E040E251E40F94A6290F94182AB3
:103F50009B018BE237FF05C022273327261B370B37
:103F60008DE280939504C90164E670E00F94EC2B18
:103F7000CB01EAE0F0E0BF010F94EC2B805D809371
:103F80009604C901BF010F94EC2B282FCB01BF0170
:103F90000F94EC2B805D809397048EE280939804BD
:103FA000205D2093990485E994E0FF90EF90DF90E5
:103FB000CF90BF90AF909F908F9008956DEB77E377
:103FC00086E095EB94CF0F940B2220E030E040E2A6
:103FD00051E40F94A62920E030E0A9010F94AC2809
:103FE0000C94621F8F929F92AF92BF92CF92DF92FA
:103FF000EF92FF92CF936B017C0120E030E0A901AA
:104000000F94042287FDAAC06DEB77E386E095E369
:10401000A70196010F94AC286B017C0120E030E0F1
:10402000A9010F94042287FF9EC0C701B6019058D2
:1040300020E030E040E251E40F946A2220E030E0DA
:1040400040E251E40F946A2220E030E040EA50E47C
:104050000F94AC2820E030E040E251E40F94A62910
:104060000F94182A6B017C0180E28093930460E234
:1040700080E1C81687E2D806E104F1048CF0C7019C
:10408000B60120E137E240E050E00F946A28CA010F
:10409000B9012AE030E040E050E00F946A28605D0A
:1040A0006093940460E288EEC81683E0D806E104C9
:1040B000F1048CF0C701B60128EE33E040E050E097
:1040C0000F946A28CA01B9012AE030E040E050E0CC
:1040D0000F946A28605D6093950460E284E6C816D8
:1040E000D104E104F1048CF0C701B60124E630E00C
:1040F00040E050E00F946A28CA01B9012AE030E09C
:1041000040E050E00F946A28605D609396048AE076
:10411000882E912CA12CB12CC701B601A5019401C8
:104120000F946A28C62FCA01B901A50194010F9402
:104130006A28605D609397048EE280939804C05D66
:10414000C093990483E994E0CF91FF90EF90DF90C2
:10415000CF90BF90AF909F908F9008956DEB77E3D5
:1041600086E095EB55CF20E030E040E251E4C70116
:10417000B60162CF0F940B2220E030E040E251E420
:104180000F94A62920E030E0A9010F94AC280C94EC
:10419000F21F8F929F92AF92BF92CF92DF92EF92D7
:1041A000FF92CF936B017C0120E030E0A9010F94D6
:1041B000042287FD93C06DEB77E386E095E3A701CA
:1041C00096010F94AC286B017C0120E030E040E2C6
:1041D00051E40F946A2220E030E04AE754E40F945F
:1041E0006A224B015C0120E030E0A901C701B60161
:1041F0000F94042220E030E040EA50E487FF04C03E
:1042000020E030E040EA50ECC501B4010F94AC2846
:1042100020E030E040E251E40F94A6290F94182AE0
:104220006B017C01C114D104E104F10409F45BC009
:10423000F7FE59C0F094E094D094C094C11CD11CF6
:10424000E11CF11C8DE280939404C701B60128EEB5
:1042500033E040E050E00F946A288AE0882E912CE9
:10426000A12CB12CCA01B901A50194010F946A28AF
:10427000605D609395048EE280939604C701B60159
:1042800024E630E040E050E00F946A28CA01B9010A
:10429000A50194010F946A28605D60939704C7019B
:1042A000B601A50194010F946A28C62FCA01B9016D
:1042B000A50194010F946A28605D60939804C05D25
:1042C000C093990484E994E0CF91FF90EF90DF9040
:1042D000CF90BF90AF909F908F9008956DEB77E354
:1042E00086E095EB6CCF80E2AECF0F940B2220E0FE
:1042F00030E04AE754E40F94A62920E030E0A90119
:104300000F94AC280C94C9208F929F92AF92BF92C9
:10431000CF92DF92EF92FF92CF936B017C0120E06E
:1043200030E0A9010F94042287FFA3C06DEB77E36F
:1043300086E095EBA70196010F94AC286B017C01F8
:1043400020E030E040E251E40F946A2220E030E0C7
:1043500048EC52E40F946A224B015C0120E030E00B
:1043600040E251ECC701B6010F940422181654F430
:1043700020E030E048EC52E4C701B6010F940C2B6A
:1043800087FD8BC020E030E0A901C701B6010F9482
:10439000042287FF73C060E070E080EA90ECA50122
:1043A00094010F94AC2820E030E040E251E40F94F7
:1043B000A6290F94182A6B017C01F7FC64C020E148
:1043C00037E240E050E00F946A28CA01B9012AE0C0
:1043D00030E040E050E00F946A28605D6093940400
:1043E000C701B60128EE33E040E050E00F946A28A0
:1043F0009AE0892E912CA12CB12CCA01B901A501FA
:1044000094010F946A28605D60939504C701B6011A
:1044100024E630E040E050E00F946A28CA01B90178
:10442000A50194010F946A28605D609396048EE262
:1044300080939704C701B601A50194010F946A28DF
:10444000C62FCA01B901A50194010F946A28605DC5
:1044500060939804C05DC093990484E994E0CF917F
:10446000FF90EF90DF90CF90BF90AF909F908F9094
:1044700008956DEB77E386E095E35CCF60E070E054
:1044800080EA90E48CCFF094E094D094C094C11C66
:10449000D11CE11CF11C6DE2A1CF20E030E0A901AC
:1044A000C701B6010F94042287FF6AC060E070E084
:1044B00080EA90ECA50194010F94AC2820E030E054
:1044C00040E251E40F94A6290F94182A4B015C0195
:1044D00020E030E0A901C701B6010F940C2B87FD45
:1044E0000BC020E030E040E251E4C701B6010F9478
:1044F000042260E287FD13C0B7FC47C0C501B401C8
:1045000028EE33E040E050E00F946A28CA01B90178
:104510002AE030E040E050E00F946A28605D60934C
:104520009504C501B40124E630E040E050E00F946A
:104530006A288AE0C82ED12CE12CF12CCA01B901DD
:10454000A70196010F946A28605D609396048EE23D
:1045500080939704C501B401A70196010F946A28BE
:10456000C62FCA01B901A70196010F946A28605DA0
:1045700060939804C05DC093990485E994E06FCF7F
:1045800060E070E080EA90E495CFB094A0949094BD
:104590008094811C911CA11CB11C6DE2C0CF0F94B2
:1045A0000B2220E030E048EC52E40F94A62920E0F2
:1045B00030E0A9010F94AC280C948421FC01849173
:1045C0000895FC01808108958091AB119091AC1108
:1045D000891B8F7051F480916908813031F080918E
:1045E0005E1382FB882780F9089581E008959091F9
:1045F00002019270909300019091020187FD9095C5
:104600009170909300019091020190959270909317
:10461000000100009091020192709093000190912E
:10462000020186FD90959170909300019091020196
:104630009095927090930001000090910201927009
:10464000909300019091020185FD90959170909357
:1046500000019091020190959270909300010000EA
:10466000909102019270909300019091020184FD5B
:1046700090959170909300019091020190959270A5
:1046800090930001000090910201927090930001BC
:104690009091020183FD909591709093000190910B
:1046A0000201909592709093000100009091020198
:1046B0009270909300019091020182FD909591700B
:1046C0009093000190910201909592709093000157
:1046D000000090910201927090930001909102016C
:1046E00081FD9095917090930001809102018095D9
:1046F000827080930001000080910201827080939B
:10470000000180910201817080930001809102017B
:10471000809582708093000100000895089590E0D4
:1047200080E00895CF93DF93DB01F9019C919130F4
:10473000C1F0943080F094509C938830D1F4808103
:104740009181009771F0019791838083480F591FE1
:10475000EA01188206C08C3539F49C5F9C93943032
:1047600041F4DF91CF9108958B3339F781E08C9339
:10477000F8CF20813181B9016F5F7F4F71836083F2
:10478000420F531FEA018883808191818F35910503
:104790006CF7E7CF90917D06E92FF0E0EF5BFD4EDF
:1047A00080839F5F943040F490937D068091010850
:1047B0008F5F80930108089510927D06F7CF282F10
:1047C0009091A803833021F495FD0FC094FD0FC094
:1047D000892F90E0B0E0A0E004C0B695A79597952A
:1047E00087952A95D2F78170089581E0089580E039
:1047F0000895A09A0895809A889808950F940B229E
:1048000020E030E0A9010F94AC280F941F2ACB01BF
:104810000C948CC30F940B2229EC38EC48EC5EE32B
:104820000F94A62920E030E040E05FE30F94AC282D
:104830000F941F2A862F0C94BAC3809154028823A8
:1048400041F0609190047091910441E081E00C94FA
:104850008AFD089580E090E0A0E8B0E480936B02C8
:1048600090936C02A0936D02B0936E028EEE92E074
:104870000E94A7B280918704823009F45AC0F4F4F0
:10488000882389F1813009F447C089E892E00E94C9
:10489000A7B210926B0210926C0210926D021092ED
:1048A0006E028EEE92E00E94A7B2809187048F5F25
:1048B00085300CF048C08093870408958330F1F16F
:1048C000843019F780E090E0AAEBB2E480936302B1
:1048D00090936402A0936502B093660280E090E03A
:1048E000A6EAB2E410C080E090E0ACE0B2E48093CD
:1048F000630290936402A0936502B093660280E025
:1049000090E0A0E2B1E48093670290936802A093E4
:104910006902B0936A02B9CF80E090E0ABE2B3E401
:104920008093630290936402A0936502B093660241
:10493000ACCF80E090E0A3E1B3E4E5CF80E090E08D
:10494000ACE0B2E4EDCF1092870408950C942EA051
:104950000C942EA00C942EA00C942EA00C94E09FEE
:104960000C94E09F0C94E09F0C94E09FCF93DF9316
:1049700000D01F92CDB7DEB70F941F2A0F940922E3
:1049800069837A838B839C83CE0101960E94AFBC9E
:104990000F900F900F900F90DF91CF9108950F948B
:1049A0000B222AE037ED43E25DE30F94A62920E0D5
:1049B00030E0A9010F94AC280C94B624CF92DF927A
:1049C000EF92FF92CF93DF9300D01F92CDB7DEB767
:1049D0006B017C0120E030E0A9010F94042287FDE7
:1049E0001BC06DEB77E386E095E3A70196010F947A
:1049F000AC2869837A838B839C83CE0101960E94C5
:104A0000AFBC0F900F900F900F90DF91CF91FF9060
:104A1000EF90DF90CF9008956DEB77E386E095EB14
:104A2000E4CF0F940B222AE037ED43E25DE30F94CD
:104A3000A62920E030E0A9010F94AC280C94DE24D4
:104A40000F940B2220E030E0A9010F94AC280C94C5
:104A5000DE24CF92DF92EF92FF926B017C0120E087
:104A600030E0A9010F94042287FD26C06DEB77E3A7
:104A700086E095E3A70196010F94AC286B017C01B9
:104A800020E030E0A9010F94042220E030E040E073
:104A90005FE387FF04C020E030E040E05FEBC70148
:104AA000B6010F94AC280F94182ACB01FF90EF9019
:104AB000DF90CF900C9432BD6DEB77E386E095EB01
:104AC000D9CF0F940B2220E030E0A9010F94AC283D
:104AD0000C942925AF92BF92CF92DF92EF92FF9272
:104AE0000F931F93CF93DF936B01E9014A3009F4D1
:104AF000B8C0453109F06AC0DB011296ED91FC9116
:104B0000F280C681D781599A88E28A950000E9F738
:104B1000BF2CB29420EFB22230E1A32EAF0C48E2BA
:104B2000E42E88EF0E94F7228E2D8A950000E9F787
:104B3000BFE1BF1508F481C08F2D807780680E9487
:104B4000F7228B2D0E94F7228E2D8A950000E9F71F
:104B500080E80E94F72280E00E94F7228E2D8A953D
:104B60000000E9F78AEF0E94F7228E2D8A95000057
:104B7000E9F78E01005F1F4F8881807F0E94F72236
:104B800089918295807F0E94F722C017D107A1F7F3
:104B90008E2D8A950000E9F7F394E0E1BE0EFA103D
:104BA000C0CF5998D6011296CD91DC91CE010F94C9
:104BB000A30381117FC2DF91CF911F910F91FF90CD
:104BC000EF90DF90CF90BF90AF900895FB010281EE
:104BD0001381423309F429C208F42DC2463409F482
:104BE0001AC2473409F41DC24B3329F589812B8140
:104BF000D80112966C91129713964C91213009F4BA
:104C000070C2233009F03AC238EF380F582F91E0C4
:104C1000431708F490E041E0531708F040E031E01A
:104C2000561708F430E0592F542B352309F04EC2A3
:104C3000942309F04BC281E0BECF80EE8F0D8068D7
:104C4000807F0E94F7228F2D8295807F0E94F7221D
:104C50008E2D8A950000E9F780E80E94F72280E80F
:104C60007BCF519A59988091010181608093010115
:104C70008091020181708093000180910101826026
:104C800080930101809102018095827080930001E0
:104C9000599A88E28A950000E9F788E790E0CEE922
:104CA000DFE0FE013197F1F70197D9F788EF0E9415
:104CB000F72218E2812F8A950000E9F780E20E942E
:104CC000F72280E00E94F722812F8A950000E9F701
:104CD00080E00E94F72280E80E94F722812F8A95C7
:104CE0000000E9F780E00E94F72280E10E94F722AD
:104CF000812F8A950000E9F7CE010197F1F7CE01E7
:104D00000197F1F7CE010197F1F7CE010197F1F785
:104D1000CE010197F1F7CE010197F1F7CE0101978E
:104D2000F1F7CE010197F1F7CE010197F1F7CE012E
:104D30000197F1F7CE010197F1F7CE010197F1F755
:104D4000CE010197F1F7CE010197F1F72197F1F725
:104D500080E20E94F72280E40E94F722812F8A9548
:104D60000000E9F780E20E94F72280E60E94F72225
:104D70001A950000E9F710E0D0E0C8E28D2F8077A7
:104D800080680E94F722812F0E94F7228C2F8A953B
:104D90000000E9F780E80E94F72280E00E94F722F5
:104DA0008C2F8A950000E9F78AEF0E94F7228C2F5A
:104DB0008A950000E9F790E2809102018270809369
:104DC00000018091020181708093000180910201B5
:104DD00080958270809300010000809102018270B2
:104DE0008093000180910201817080930001809185
:104DF0000201809582708093000100008091020181
:104E00008270809300018091020181708093000183
:104E10008091020180958270809300010000809152
:104E20000201827080930001809102018170809361
:104E30000001809102018095827080930001000042
:104E40008091020182708093000180910201817043
:104E5000809300018091020180958270809300010F
:104E60000000809102018270809300018091020114
:104E700081708093000180910201809582708093FF
:104E800000010000809102018270809300018091F6
:104E900002018170809300018091020180958270EF
:104EA00080930001000080910201827080930001D4
:104EB00080910201817080930001809102018095B0
:104EC00082708093000100008091020182708093C3
:104ED00000018091020181708093000180910201A4
:104EE00080958270809300010000809102018270A1
:104EF0008093000180910201817080930001809174
:104F0000020180958270809300010000809102016F
:104F10008270809300018091020181708093000172
:104F20008091020180958270809300010000809141
:104F30000201827080930001809102018170809350
:104F40000001809102018095827080930001000031
:104F50008091020182708093000180910201817032
:104F600080930001809102018095827080930001FE
:104F70000000809102018270809300018091020103
:104F800081708093000180910201809582708093EE
:104F900000010000809102018270809300018091E5
:104FA00002018170809300018091020180958270DE
:104FB00080930001000080910201827080930001C3
:104FC000809102018170809300018091020180959F
:104FD00082708093000100008C2F8A950000E9F711
:104FE000915009F0E9CE88EF0E94F7228C2F8A9524
:104FF0000000E9F7DF5F105FD03209F0BFCE80E03C
:105000000E94F72280EC0E94F722CA950000E9F77F
:10501000599881E0D0CDD80115968C91888381E094
:10502000CACDF80181818883FACFB901C8010F94F4
:105030008D0381E0C0CD443171F0473109F0FBCDE3
:105040001882F80182818983858181508A838381D6
:105050008B8381E0B0CDD80115964C91159750E027
:10506000440F551F70E060E016968D919C910F944F
:10507000382CC8010F94B90381E09DCD481708F47E
:10508000DACD861708F4D7CDFA80E12CD12C243064
:1050900070F41DC0BE01C8010F948D0389819881F1
:1050A0009D0D98838E0D8983FF0C09F4C4CDF7FE06
:1050B000F6CFF0CF4D8150E0440F551F70E060E017
:1050C0008E819F810F94382C81E075CDFA8030E07D
:1050D000F901EB57FD4FD0802F573D4FF901E0808C
:1050E000E6CF58E0580F382F92CDDF92EF92FF9223
:1050F0000F931F93CF93DF93EC01D62E1CAD0BAD16
:105100007C0184E0E80EF11CE98DFA8DC701199548
:10511000412F480F2D2D602FC7010F943B069BADEB
:10512000890F8BAF81E090E0DF91CF911F910F91BC
:10513000FF90EF90DF9008959F92AF92BF92CF9231
:10514000DF92EF92FF920F931F93CF93DF93EC01C7
:105150008B01942EA52E8A859B858617970731F0A3
:10516000888199810F94E3051B870A878885998533
:10517000019649F5BC800A818E81080FC880D980CC
:10518000D6015596ED91FC91C6011995B80EE92C02
:10519000FA2C10E0F70121917F01211127C08E81A7
:1051A0009F81810F911D9F838E8390E080E0DF912E
:1051B000CF911F910F91FF90EF90DF90CF90BF9014
:1051C000AF909F9008950E811F81692D7A2D88815F
:1051D00099810E9456FD800F912F911D2885398558
:1051E0002817390738F681E090E0E1CF4B2D602F8A
:1051F000C6010F943B06080F180FCCCFEF92FF9219
:105200000F931F93CF93DF93EC018B017A018A8573
:105210009B858617970731F0888199810F94E30564
:105220001B870A87B701888199810E9456FD2E81CC
:105230003F81820F932F911D9F838E8390E080E0AA
:10524000DF91CF911F910F91FF90EF900895CF9232
:10525000DF92EF92FF920F931F93CF93DF93CDB71F
:10526000DEB72C970FB6F894DEBF0FBECDBFF0901F
:105270003E12E0903F122091890421111DC049E5A2
:1052800054E16E2D8F2D0F94A70690E080E0F80E6C
:10529000F0923E12E0923F1299272C960FB6F894A6
:1052A000DEBF0FBECDBFDF91CF911F910F91FF9059
:1052B000EF90DF90CF900895C0900B12D0900C1219
:1052C00027E032E13A8329832F2D30E03C832B8382
:1052D0002E2D30E03E832D8318861F827A876987C2
:1052E0001C861B860CE918E29E012F5F3F4F4EED96
:1052F00052E2BC01C6010E9486E5B60187E092E158
:105300000F94E3058F819885C2CF80919D03909182
:105310009E03009731F04AE050E070E060E00D94A9
:10532000212060E070E0CB01089580919D03909171
:105330009E03009731F04AE050E070E060E00D9489
:10534000F31E60E070E0CB0108950E949529CB0127
:1053500008950E94952997FD0CC00E9495296F3FE2
:1053600071058105910509F034F40E949529862F75
:10537000089580E008958FEF089580919D039091A6
:105380009E03892B41F00E94A92991E0811101C05F
:1053900090E0892F089591E0FCCFCF92DF92EF92B9
:1053A000FF920F931F93CF93DF936B017A01EC0170
:1053B000C45DDC4F28813CE0389F8001399F100D8F
:1053C000112427FF24C0FB011182108288818F5F86
:1053D000888388819801280F311D87FD3A95C9017E
:1053E0002091A411F6012817190629F024F08881CC
:1053F0008C300CF43CC080819181049680349C49AF
:1054000008F475C0F60180819181049672C088818C
:105410009801280F311D87FD3A95C9012091A411EB
:105420002817190699F294F28881A801480F511D96
:1054300087FD5A95FA01EE0FFF1FE40FF51FE45A9E
:10544000FE4E808187FFC2CF8881F801E80FF11DF1
:1054500087FDFA95CF01EE0FFF1FE80FF91FE45A01
:10546000FE4E808160E08F770F948101AFCF808105
:1054700091812881A801420F511D27FD5A959A015B
:10548000FA01EE0FFF1FE20FF31FE45AFE4E2181D7
:105490003281820F931FF701918380838881980165
:1054A000280F311D87FD3A95F901EE0FFF1FE20F1E
:1054B000F31FE45AFE4E808187FF20C08881080FC9
:1054C000111D87FD1A95F801EE0FFF1FE00FF11F68
:1054D000E45AFE4E808161E08F77DF91CF911F917A
:1054E0000F91FF90EF90DF90CF900D94810180E4B9
:1054F0009CE9F701918380838FEF8883DF91CF91BF
:105500001F910F91FF90EF90DF90CF900895CF9370
:10551000DF93CDB7DEB720E2488559856F818E8154
:105520000E94E7FDDF91CF91089563E972E084E680
:1055300090E00E94EEC86AEB72E084E690E00C9482
:10554000EEC881110C94952A68EB71E084E190E03B
:105550000C94EEC80F931F93522F2091011230919B
:1055600002122817390721F1909302128093011239
:105570008B0130E020E000931B0810931C0820935F
:105580001D0830931E084093130850931408875643
:105590009D4B21F4109292041092850482E0809336
:1055A000540281E080932B0810928A0410928604A2
:1055B0001F910F91089580915402882331F041E0AA
:1055C00066E576E182E00E948AFD8091AB048770F7
:1055D000873079F41092870420E040E070E060E0CA
:1055E0008FEE9EE20E94AA2A81E0809386040C94AA
:1055F0002A24089520E040E070E060E087E69DEB1B
:105600000C94AA2AE0918504EE2389F0E150E093FE
:10561000850488E0E89FF0011124EB5AFB4F62817A
:10562000738127814681808191810C94AA2A0C94F0
:10563000FA2A2F923F924F925F926F927F928F92AF
:105640009F92AF92BF92CF92DF92EF92FF920F9311
:105650001F93CF93DF9300D000D01F92CDB7DEB75A
:105660000E94CCFE10911308012F25E0210F2D83FD
:1056700087E7C82EDD24D394E12CF12C85E0282E79
:10568000211A9EEE492E92E0592E612C712C84E055
:10569000382E311A83E0811B8E8382E0811B8F8339
:1056A00024EF822E99249394A12CB12C111141C086
:1056B000809115088823C1F080915402882361F0FD
:1056C000602F619581E090911508911180E024E0B0
:1056D0004FE057E10E94E7FD1F5F8D811813E6CF71
:1056E00086E0809314080CC080910408109204088E
:1056F000882311F30E94022B80912B088823E1F26A
:1057000027960FB6F894DEBF0FBECDBFDF91CF91C5
:105710001F910F91FF90EF90DF90CF90BF90AF90CF
:105720009F908F907F906F905F904F903F902F90C1
:105730000895113079F5809115088130B1F080918C
:105740005402882349F28DE19EE19F938F9384EF69
:1057500096E19F938F9381E0801B8F9381E09091DE
:105760001508913091F180E030C0809104081092CA
:105770000408882321F389829A82AB82BC82BE010D
:105780006F5F7F4F80EA0E943D4C80912B088823F9
:10579000B1F2B6CF123009F0A9C08091150882305D
:1057A000F1F080915402882309F496CF83E59EE1BD
:1057B0009F938F938AEE96E19F938F938F818F9320
:1057C00081E090911508923071F68F930E94872A9C
:1057D0000F900F900F900F900F900F907DCF8091B2
:1057E0000408109204088823E1F2C982DA82EB826D
:1057F000FC82BE016F5F7F4F88E70E943D4C809125
:105800002B08882371F27CCF809115088330B1F08A
:1058100080915402882309F45FCF8EE69EE19F9326
:105820008F9383EE96E19F938F939E819F9381E068
:1058300090911508933009F096CFC7CF8091040856
:1058400010920408882321F349825A826B827C8259
:10585000BE016F5F7F4F8AE00E943D4C80912B0814
:105860008823B1F24DCF809115088430A9F0809142
:105870005402882309F430CF89E89EE19F938F93E7
:105880008EED96E19F938F933F9281E09091150862
:10589000943009F068CF99CF8091040810920408E1
:1058A000882329F349825A826B827C82BE016F5F12
:1058B0007F4F8AE50E943D4C80912B088823B9F2E6
:1058C0001FCF80910408109204088823E1F0C98258
:1058D000DA82EB82FC82BE016F5F7F4F8CE30E9415
:1058E0003D4C80912B08882371F00ACF133009F4C6
:1058F0008BCF143009F4B7CF153009F0EDCE80917D
:1059000015088530F1F280915402882309F4E4CE21
:1059100088E39EE19F938F9386ED96E19F938F930B
:105920002F9281E090911508953009F01CCF4DCF52
:10593000E0918504E63010F581E08E0F80938504B8
:1059400040911B0850911C0860911D0870911E0821
:10595000909113088091140828E0E29FF00111242F
:10596000EB5AFB4F209101123091021231832083B8
:105970004283538364837583968387830895AF92AC
:10598000BF92CF92DF92EF92FF920F931F93CF932C
:10599000DF93EC015B018A01FB01199587FD16C0BD
:1059A000C82ED12CF12CE12C2196F801C082D18295
:1059B000E282F382CE01DF91CF911F910F91FF9090
:1059C000EF90DF90CF90BF90AF900895982F907E8A
:1059D000903CA9F48F7190E0B0E0A0E06C017D01F3
:1059E00026E0CC0CDD1CEE1CFF1C2A95D1F7CE0165
:1059F0000196F50119958F73C82A2296D6CF982F54
:105A0000907F903E11F58F7090E0B0E0A0E06C01C7
:105A10007D0186E0CC0CDD1CEE1CFF1C8A95D1F7C5
:105A2000CE010196F50119958F73C82A96E0CC0C2A
:105A3000DD1CEE1CFF1C9A95D1F7CE010296F501F4
:105A400019958F73C82A2396B0CF982F987F903FCF
:105A500079F5877090E0B0E0A0E06C017D01F6E0A0
:105A6000CC0CDD1CEE1CFF1CFA95D1F7CE01019683
:105A7000F50119958F73C82AA6E0CC0CDD1CEE1C2D
:105A8000FF1CAA95D1F7CE010296F50119958F73E7
:105A9000C82AB6E0CC0CDD1CEE1CFF1CBA95D1F771
:105AA000CE010396F50119958F73C82A24967DCFF0
:105AB000982F9C7F983FE1F5837090E0B0E0A0E0E4
:105AC0006C017D0156E0CC0CDD1CEE1CFF1C5A95D0
:105AD000D1F7CE010196F50119958F73C82A66E0BA
