:100000000C94321C0C94631C0C94631C0C94631CA5
:100010000C94631C0C94631C0C94631C0C94631C64
:100020000C94631C0C94631C0C94631C0C94631C54
:100030000C94631C0C94B7ED0C94631C0C94631C1F
:100040000C94631C0C947D8D0C94631C0C94631CA9
:100050000C94631C0C94631C0C9400880C94E5F1C4
:100060000C94631C0C94CB650C94C1650C94631CBC
:100070000C94631C0C94631C0C94631C0C94631C04
:100080000C946C3C0C94631C0C94631C0C94631CCB
:100090000C94631C0C94631C0C94631C0C94631CE4
:1000A0000C94631C0C94631C0C943E3C0C94631CD9
:1000B0000C94631C0C94631C0C94631C0C94631CC4
:1000C0000C94631C0C94631C0C94631C0C94631CB4
:1000D0000C94631C0C94631C0C94631C0C94631CA4
:1000E0000C94631C084AD73B3BCE016E84BCBFFD19
:1000F000C12F3D6C74319ABD56833DDA3D00C77FF8
:1001000011BED9E4BB4C3E916BAAAABE0000008090
:100110003F05A84CCDB2D44EB93836A9020C50B91F
:10012000918688083CA6AAAA2ABE000000803F004B
:100130000C9448800C94E62A0C943B7F0C94584D08
:100140000C9451840C9491ED0C94A3ED0D94200F1C
:100150000C949E840C94A1810C944E2C0C94D43954
:100160000C9483B60C94F07F0C94BDD30C9439C0DE
:100170000C9494840C94444D0C9403800C94A2CD64
:100180000C944A800C943AC20C94137E0C946B81AC
:100190000C9439840C94D4290C9437820C94B7D1E4
:1001A0000C9467B20C949EAA0C9476ED0C94DD80AE
:1001B0000C948F840C947EED0C94904D0C94EA7EFC
:1001C0000C9496EF0C94367E0C94A7810C94DB4D26
:1001D0000C94E31C0C94D9330C943F840C948B87BF
:1001E0000C9416800C94C0C90C949DB10C9410D43E
:1001F0000C94A9870C94AF820C94BD4D0C94567F3F
:100200000C948BED0C94D7B70C94DD1C0C94A7EDDB
:100210000C9487ED0C945D870C94A2AA0C94A37F98
:100220000C94DB1C0C9495ED0C9431C00C94ADED4A
:100230000C94F3860C944C800C94B38E0C94DC7E5E
:100240000C94F9810C94651C0C94D71C0C94917E31
:100250000C94B34D0C948A840C94B8870C94028748
:100260000C945D840C9457840C94497E0C942D7CE2
:100270000C948ED30C9481ED0C940FD40D94A7069E
:100280000C9499ED0C9469840C94A47E0C94BC7F1E
:100290000C94E8300C94057F0C94864D0C944E4DD4
:1002A0000C9472ED0C947C4D0C94D91C0C946C4DF8
:1002B0000C94A94D0C94681C0C94527E0C94F886F6
:1002C0000C947B840C9496CF0C940AC20C949A875D
:1002D0000C94AC8E0C9463840C9475840C945788A5
:1002E0000C94DA810C9492320C94E51C0C94E71C6B
:1002F0000C94AD810C94F5C80C9460CB0C94638184
:100300000C94D52D0C94D14D0C94DF1C0C94A78229
:100310000C946EC70C949DD30C945BED0C948A7F67
:100320000C94D57F0C94B1ED0C947AED0C94207F55
:100330000C9499840C944B840C949A4D0C942F80BB
:100340000C947C870C94B3810C94FD860C94ECC5C2
:100350000C94A5820C9445840C9433840C94494DE0
:100360000C94E11C0C94B07E0C94E6250C94717FE7
:100370000C94624D0C946F840C9418820C94B98187
:100380000C94C97E0C9455870C9456820C943DC0F5
:100390000C94744D0C9460ED0C94C74D0C94C18773
:1003A0000C949FED4E414E494E495459494E46CD0D
:1003B000CCCC3D0AD7233C17B7D13877CC2B32951C
:1003C00095E6241FB14F0A000020410000C84200FA
:1003D000401C4620BCBE4CCA1B0E5AAEC59D7400C4
:1003E000407A10F35A00A0724E18090010A5D4E804
:1003F0000000E87648170000E40B54020000CA9A97
:100400003B000000E1F505000080969800000040E8
:10041000420F000000A0860100000010270000002D
:1004200000E803000000006400000000000A000073
:100430000000000100000000002C76D888DC674F27
:100440000823DFC1DFAE59E1B1B796E5E3E453C657
:100450003AE651997696E8E6C28426EB898C9B624F
:10046000ED407C6FFCEFBC9C9F40F2BAA56FA5F4F9
:1004700090055A2AF75C936B6CF9676DC11BFCE021
:10048000E40D47FEF520E6B500D0ED902E03009474
:100490003577050080841E080000204E0A00000009
:1004A000C80C333333330F986E12831141EF8D2113
:1004B00014893BE65516CFFEE6DB18D1844B381B7A
:1004C000F77C1D901DA4BBE424203284725E22813F
:1004D00000C9F124ECA1E53D27434F4D4D554E4950
:1004E000434154494F4E0044525952554E004552D3
:1004F000524F525300494E464F004543484F004526
:1005000072726F722077726974696E6720746F20DF
:10051000454550524F4D210A002121204B494C4C5A
:100520002063617573656420627920746F6F206D3C
:1005300075636820696E6163746976652074696D9E
:1005400065202D2063757272656E7420636F6D6D0A
:10055000616E643A20004D343130004D313132004B
:100560004D3130380053544F505045442E200050E8
:1005700072696E7465722073746F70706564206444
:10058000756520746F206572726F72732E204669D4
:100590007820746865206572726F7220616E6420C5
:1005A000757365204D39393920746F207265737405
:1005B0006172742E202854656D7065726174757255
:1005C000652069732072657365742E2053657420ED
:1005D00069742061667465722072657374617274E7
:1005E000696E67290A004E6F20436865636B7375F7
:1005F0006D2077697468206C696E65206E756D6218
:1006000065722C204C617374204C696E653A200031
:100610004E6F20436865636B73756D2077697468EE
:10062000206C696E65206E756D6265722C204C6160
:100630007374204C696E653A2000636865636B7360
:10064000756D206D69736D617463682C204C6173E6
:1006500074204C696E653A20004C696E65204E75B9
:100660006D626572206973206E6F74204C617374C3
:10067000204C696E65204E756D6265722B312C20A1
:100680004C617374204C696E653A20004D313130F5
:100690000053442072656164206572726F720A00B3
:1006A000627573793A2070617573656420666F7244
:1006B00020696E7075740A00627573793A207061F2
:1006C0007573656420666F7220757365720A0062C7
:1006D0007573793A2070726F63657373696E670A18
:1006E000004D656469612052656D6F766564004DEB
:1006F0006564696120496E73657274656400506C4D
:1007000065617365205265736574005052494E549B
:1007100045522048414C5445440025533A20255326
:10072000004B494C4C45442E20005072696E746554
:10073000722068616C7465642E206B696C6C28296A
:100740002063616C6C6564210A0053544F5050451E
:10075000442E20005072696E7465722073746F703D
:100760007065642064756520746F206572726F72A5
:10077000732E2046697820746865206572726F72E6
:1007800020616E6420757365204D39393920746F8E
:1007900020726573746172742E202854656D7065C3
:1007A0007261747572652069732072657365742E49
:1007B00020536574206974206166746572207265C7
:1007C0007374617274696E67290A006563686F3AB1
:1007D000004572726F723A0021212053544F50200D
:1007E00063616C6C65642062656361757365206F1D
:1007F0006620424C546F756368206572726F722078
:100800002D20726573746172742077697468204D4D
:100810003939390A0021212053544F502063616C2B
:100820006C65642062656361757365206F66204244
:100830004C546F756368206572726F72202D207240
:100840006573746172742077697468204D39393921
:100850000A000A0A426564204C6576656C20436F85
:100860007272656374696F6E204D61747269783A53
:10087000000A436F72726563746564204265642088
:100880004865696768742076732E20426564205439
:100890006F706F6C6F67793A0A000A42656420488E
:1008A000656967687420546F706F677261706879EA
:1008B0003A0A2020202B2D2D2D204241434B202D64
:1008C0002D2B0A2020207C202020202020202020CA
:1008D00020207C0A204C207C20202020282B29202E
:1008E0002020207C20520A2045207C20202020200F
:1008F0002020202020207C20490A2046207C2028FF
:100900002D29204E20282B29207C20470A205420E6
:100910007C20202020202020202020207C20480A0D
:100920002020207C20202020282D29202020207CF1
:1009300020540A2020207C2020202020202020203D
:1009400020207C0A2020204F2D2D2046524F4E542F
:10095000202D2D2B0A2028302C30290A000A4D6525
:10096000616E206F662073616D706C656420706FBE
:10097000696E74733A200020643A200020623A20A5
:100980000045716E20636F656666696369656E74A4
:10099000733A20613A200050726F62696E6720508E
:1009A0006F696E740025532025692F2569002E0A72
:1009B000002F0050726F62696E67206D657368204A
:1009C000706F696E742000202844525952554E2988
:1009D00000473239204175746F20426564204C65B0
:1009E00076656C696E67003F20284C2C522C462C93
:1009F0004229206F7574206F6620626F756E647374
:100A00002E0A003F50726F626520706F696E7473BA
:100A10002028592920696D706C61757369626C6555
:100A20002028322D35292E0A003F50726F62652032
:100A3000706F696E74732028582920696D706C611D
:100A4000757369626C652028322D35292E0A003FA6
:100A50002856296572626F7365206C6576656C2017
:100A6000696D706C61757369626C652028302D3416
:100A7000292E0A00446576696174696F6E002553FA
:100A80003A2025730046696E6973686564210A001F
:100A90003A207A3A2000206F662000476F696E671F
:100AA00020746F3A20580043570A00206469723A54
:100AB0000020616E676C653A005374617274207235
:100AC00061646975733A004D343820506F696E74F3
:100AD0000025533A2025642F256400506F736974F4
:100AE000696F6E696E67207468652070726F6265E9
:100AF0002E2E2E0A003F4C656773206F66206D6FA7
:100B000076656D656E7420696D706C617573696270
:100B10006C652028302D3135292E0A003F202858B9
:100B20002C5929206F7574206F6620626F756E6472
:100B3000732E0A0050726F6265206F7574206F66A5
:100B400020626F756E6473003F53616D706C652039
:100B500073697A65206E6F7420706C617573696259
:100B60006C652028342D3530292E0A004D3438206C
:100B70005A2D50726F6265205265706561746162B2
:100B8000696C69747920546573740A003F2856298A
:100B90006572626F7365206C6576656C20696D7037
:100BA0006C61757369626C652028302D34292E0ABA
:100BB000005374616E646172642044657669617487
:100BC000696F6E3A20002052616E67653A200020FE
:100BD0004D61783A2000204D696E3A20002053691B
:100BE000676D613A20004D65616E3A200020496EC4
:100BF00076616C6964206578747275646572200032
:100C000020746F6F206C6F6E6720657874727573D7
:100C1000696F6E2070726576656E7465640A002077
:100C2000636F6C6420657874727573696F6E207081
:100C3000726576656E7465640A00536C6565702E26
:100C40002E2E005A2050726F6265205061737420FE
:100C50004265640A005A2050726F626520506173C9
:100C6000742042656400205A3A200020593A20003E
:100C700042656420583A2000436C69636B20746FAE
:100C800020526573756D652E2E2E004E6F204D6FB0
:100C900076652E00456E642066696C65206C69730C
:100CA000740A00426567696E2066696C65206C692C
:100CB00073740A004E6F206D656469610A00286EC6
:100CC0006F2066696C65290043757272656E7420C9
:100CD00066696C653A20005344207072696E7469CD
:100CE0006E67206279746520004E6F742053442033
:100CF0007072696E74696E670A002E0A0044656C32
:100D00006574696F6E206661696C65642C20466944
:100D10006C653A200046696C652064656C65746595
:100D2000643A005072696E742074696D653A2000EF
:100D30000A53746174733A2046696C616D656E7410
:100D400020757365643A20002C204C6F6E676573C4
:100D500074206A6F623A2000546F74616C20746969
:100D60006D653A200053746174733A20002C20465C
:100D700061696C65643A20002C2046696E6973686D
:100D800065643A20005072696E74733A200053749F
:100D90006174733A20006F6B006F666600FA04F5A9
:100DA00004EE04E704D90444454255473A004D3166
:100DB00031322053687574646F776E004D31313372
:100DC000205300476565657465636820693320506A
:100DD000726F2042204F46462E00204500204D399C
:100DE000322058004348414D4245525F54454D50D2
:100DF0004552415455524500424142595354455081
:100E000050494E470041524353004D4F54494F4EB5
:100E10005F4D4F44455300544845524D414C5F503F
:100E2000524F54454354494F4E004C4F4E475F4636
:100E3000494C454E414D45004155544F5245504F48
:100E400052545F53445F53544154555300534443E9
:100E50004152440050524F4D50545F535550504FE3
:100E6000525400454D455247454E43595F504152FB
:100E700053455200434153455F4C494748545F42F4
:100E800052494748544E45535300544F47474C45E9
:100E90005F4C494748545300534F465457415245BD
:100EA0005F504F574552004255494C445F504552A0
:100EB00043454E54004C4556454C494E475F4441CE
:100EC0005441005A5F50524F42450052554E4F55C3
:100ED00054004155544F4C4556454C005052494ED4
:100EE000545F4A4F420050524F47524553530041BE
:100EF00055544F5245504F52545F54454D50005633
:100F00004F4C554D455452494300454550524F4D65
:100F10000042494E4152595F46494C455F54524147
:100F20004E534645520053455249414C5F584F4E2F
:100F30005F584F4646004649524D574152455F4E15
:100F4000414D453A4D61726C696E20322E302E371C
:100F50002E3220284A616E2020312032303231205A
:100F600031363A32323A31382920534F55524345BF
:100F70005F434F44455F55524C3A68747470733AFE
:100F80002F2F6769746875622E636F6D2F4D6172C4
:100F90006C696E4669726D776172652F4D61726C16
:100FA000696E2050524F544F434F4C5F5645525339
:100FB000494F4E3A312E30204D414348494E455F0E
:100FC000545950453A4765656574656368206933CF
:100FD0002050726F20422045585452554445525F6C
:100FE000434F554E543A3120555549443A63656450
:100FF00065326132662D343161322D343734382D0B
:10100000396231322D6335356336326633363766B1
:10101000660A002F2F20004D31343520533C696E75
:101020006465783E206F7574206F662072616E670C
:10103000652028302D31290A00205400205200411B
:101040006363656C65726174696F6E3A205000204D
:10105000580020204D61783A2000200020204D6962
:101060006E3A2000536F667420656E6473746F70FF
:10107000733A200046523A0020466C6F773A2000BF
:101080003A200020536572766F2000206F7574201F
:101090006F662072616E67650A00536572766F2015
:1010A0000020643A0020693A0020703A00496E76C8
:1010B000616C69642065787472756465720A006495
:1010C000697300656E0043290A0061626C656420E3
:1010D000286D696E2074656D702000436F6C64200C
:1010E00065787472756465732061726520004F467F
:1010F00046004F4E00426564204C6576656C696E13
:101100006720004661696C656420746F20656E61BC
:10111000626C6520426564204C6576656C696E671B
:101120000A00426564204C6576656C20436F7272DC
:10113000656374696F6E204D61747269783A004F0F
:10114000666673657473204170706C6965640045F0
:1011500072723A20546F6F206661722100546F6F73
:10116000206661722066726F6D20726566657265B9
:101170006E636520706F696E740A00454550524F6A
:101180004D204F4B0A00290A0020746F20003F5A5F
:10119000206F7574206F662072616E67652028006D
:1011A000290A0020746F20003F59206F7574206F4A
:1011B000662072616E676520282D00290A00207460
:1011C0006F20003F58206F7574206F662072616E2B
:1011D000676520282D00205A0020590050726F6248
:1011E00065204F66667365742058002058593A2070
:1011F00000536B657720466163746F72006D696E92
:101200005F736B65775F666163746F723A20202D40
:1012100031206D61785F736B65775F666163746FB2
:10122000723A2020310A004D383400446F6E652038
:101230007072696E74696E672066696C650A004D2C
:101240003737004D333100496E76616C6964206533
:10125000787472756465720A004361703A004732AF
:101260002F47332062616420706172616D6574651F
:1012700072730A00220A00656E7175657565696E84
:10128000672022006F6B00526573656E643A200020
:101290002569730025696D2025697300256968201B
:1012A00025696D20256973002569642025696820FA
:1012B00025696D20256973002569792025696420D9
:1012C0002569682025696D202569730020573A003B
:1012D000436F6F6C696E672E2E2E004865617469CE
:1012E0006E672E2E2E00452025530020573A0042CF
:1012F000656420436F6F6C696E672E2E2E00426509
:10130000642048656174696E672E2E2E0023646523
:1013100066696E652044454641554C545F004B64F8
:1013200020004B6920004B7020005049442041753B
:10133000746F74756E652066696E69736865642183
:101340002050757420746865206C617374204B7034
:101350002C204B6920616E64204B6420636F6E7398
:1013600074616E74732066726F6D2062656C6F7746
:1013700020696E746F20436F6E6669677572617461
:10138000696F6E2E680A00504944204175746F746D
:10139000756E65206661696C6564212074696D6590
:1013A0006F75740A00504944204175746F74756EEE
:1013B00065206661696C6564212054656D70657295
:1013C000617475726520746F6F20686967680A00C0
:1013D000204B643A2000204B693A2000204B703AA1
:1013E00020000A20436C61737369632050494420D4
:1013F0000A002054753A2000204B753A2000206DD9
:1014000061783A2000206D696E3A200020643A200D
:101410000020626961733A2000504944204175748C
:101420006F74756E652073746172740A005049445C
:10143000204175746F74756E65206661696C6564B2
:10144000212054656D706572617475726520746FCA
:101450006F20686967680A00504944204175746FBD
:1014600074756E6500504944204175746F74756ED3
:1014700065206661696C656421204261642065783D
:10148000747275646572206E756D6265720A00A172
:101490000000006900A20000006300B00000000925
:1014A00000C10000004100C20000004100C3000074
:1014B000004100C40000004100C50000004100C61A
:1014C0000000004145C70000004300C8000000457F
:1014D00000C90000004500CD0000004900D1000017
:1014E000004E00D50000004F00D60000004F00D78E
:1014F0000000007800DC0000005500DD000000590D
:1015000000E00000006100E10000006100E2000076
:10151000006100E30000006100E40000006100E5FC
:101520000000006100E60000006165E70000006364
:1015300000E80000006500E90000006500EA000026
:10154000006500EB0000006500EC0000006900EDA4
:101550000000006900EE0000006900EF0000006973
:1015600000F10000006E00F20000006F00F30000C8
:10157000006F00F40000006F00F50000006F00F63F
:101580000000006F00F80000006F00F90000007517
:1015900000FA0000007500FB0000007500FC000070
:1015A000007500FD0000007900FF000000790004D4
:1015B0000100004100050100006100060100004338
:1015C000000701000063000C01000043000D010052
:1015D0000063000E01000044000F010000640011D0
:1015E00001000064001901000065001A01000045B7
:1015F000001B01000065001F0100006700300100B2
:10160000004900310100006900410100004C004226
:101610000100006C00430100004E00440100006E18
:1016200000480100006E00580100005200590100FE
:101630000072005A01000053005B01000073005F5C
:10164000010000730060010000530061010000739D
:10165000006501000074006F01000075007C01004E
:10166000007A007D0100005A007E0100007A00929D
:101670000100006600E30200007800222000002E36
:10168000001E210000507822210000544D902100BE
:10169000003C2D922100002D3EB02100000300BB34
:1016A00021000004003C2200007E00482200007E51
:1016B0003D60220000213D612200003D00642200C7
:1016C000003C3D652200003E3DF12300000700A0E4
:1016D0003000003D0021F301000200C2F4010005CA
:1016E00000A2000000EC00B0000000DF00E40000F9
:1016F00000E100F6000000EF00F7000000FD00FC34
:10170000000000F500E3020000EB0087030000A5E5
:10171000008F030000F40098030000F2009E030015
:1017200000E300A3030000F600A9030000F400ACEE
:10173000030000E000AD030000E300B1030000E09F
:1017400000B2030000E200B5030000E300B80300AC
:1017500000F200BC030000E400BE030000E300C090
:10176000030000F700C1030000E600C3030000E52A
:1017700000902100007F00922100007E001A2200CC
:1017800000E8001E220000F30088250000FF000290
:10179000300000A1000C300000A2000D300000A3BA
:1017A000009B300000DE009C300000DF00A0300015
:1017B000003D00A1300000A700A2300000B100A34E
:1017C000300000A800A4300000B200A5300000A93D
:1017D00000A6300000B300A7300000AA00A8300027
:1017E00000B400A9300000AB00AA300000B500AB87
:1017F000300000B600AC300000B6DEAD300000B7FF
:1018000000AE300000B7DEAF300000B800B03000EE
:1018100000B8DEB1300000B900B2300000B9DEB36C
:10182000300000BA00B4300000BADEB5300000BBB2
:1018300000B6300000BBDEB7300000BC00B830009E
:1018400000BCDEB9300000BD00BA300000BDDEBB18
:10185000300000BE00BC300000BEDEBD300000BF66
:1018600000BE300000BFDEBF300000C000C030004E
:1018700000C0DEC1300000C100C2300000C1DEC3C4
:10188000300000AF00C4300000C200C5300000C20C
:10189000DEC6300000C300C7300000C3DEC8300021
:1018A00000C400C9300000C4DECA300000C500CB4F
:1018B000300000C600CC300000C700CD300000C8AA
:1018C00000CE300000C900CF300000CA00D0300088
:1018D00000CADED1300000CADFD2300000CB00D316
:1018E000300000CBDED4300000CBDFD5300000CCA0
:1018F00000D6300000CCDED7300000CCDFD830007E
:1019000000CD00D9300000CDDEDA300000CDDFDBC5
:10191000300000CE00DC300000CEDEDD300000CE36
:10192000DFDE300000CF00DF300000D000E030000C
:1019300000D100E1300000D200E2300000D300E32B
:10194000300000AC00E4300000D400E5300000AD11
:1019500000E6300000D500E7300000AE00E83000BF
:1019600000D600E9300000D700EA300000D800EBD4
:10197000300000D900EC300000DA00ED300000DB70
:1019800000EF300000DC00F2300000A600F3300071
:1019900000DD00F4300000B3DEF7300000DCDEFADA
:1019A000300000A6DEFB300000A500FC300000B0D7
:1019B00000FD300000A400074E0000FB008651002F
:1019C00000FC0043530000FA0064FF0000A400651F
:1019D000FF0000A50066FF0000A60067FF0000A74B
:1019E0000068FF0000A80069FF0000A9006AFF006E
:1019F00000AA006BFF0000AB006CFF0000AC006DA4
:101A0000FF0000AD006EFF0000AE006FFF0000AFF2
:101A10000070FF0000B00071FF0000B10072FF0015
:101A200000B20073FF0000B30074FF0000B4007543
:101A3000FF0000B50076FF0000B60077FF0000B79A
:101A40000078FF0000B80079FF0000B9007AFF00BD
:101A500000BA007BFF0000BB007CFF0000BC007DE3
:101A6000FF0000BD007EFF0000BE007FFF0000BF42
:101A70000080FF0000C00081FF0000C10082FF0065
:101A800000C20083FF0000C30084FF0000C4008583
:101A9000FF0000C50086FF0000C60087FF0000C7EA
:101AA0000088FF0000C80089FF0000C9008AFF000D
:101AB00000CA008BFF0000CB008CFF0000CC008D23
:101AC000FF0000CD008EFF0000CE008FFF0000CF92
:101AD0000090FF0000D00091FF0000D10092FF00B5
:101AE00000D20093FF0000D30094FF0000D40095C3
:101AF000FF0000D50096FF0000D60097FF0000D73A
:101B00000098FF0000D80099FF0000D9009AFF005C
:101B100000DA009BFF0000DB009CFF0000DC009D62
:101B2000FF0000DD009EFF0000DE009FFF0000DFE1
:101B300000E5FF00005C000000000001020404005A
:101B400000001C1C0C04040402010000000000043E
:101B5000081000000000002D2D2D2D2D2D007C4D96
:101B600061726C696E7C002D2D2D2D2D2D00001CB9
:101B70001F11111F00000006191803130C00040E9A
:101B80001F041C000000000E1315110E00001C1095
:101B9000181705060500040A0A0A0A11110E0C128C
:101BA000120C00000000001F1511151F00004265F7
:101BB0006400456E636C6F737572650046696C2EC8
:101BC000204469612E004520696E206D6DC2B3000E
:101BD00020022046616374002002204D61780020BD
:101BE00002204D696E004F6666004F6E00417574AD
:101BF0006F74656D70005654726176204D696E0089
:101C0000566D696E00566D6178204500566D61789D
:101C1000205A00566D6178205900566D6178205821
:101C200000416D6178204500416D6178205A004186
:101C30006D6178205900416D6178205800412D5424
:101C4000726176656C00412D526574726163740037
:101C5000416363656C0056652D4A65726B00565A88
:101C60002D4A65726B0056592D4A65726B005658A5
:101C70002D4A65726B0050726F6265205A204F6664
:101C8000667365740050726F62652059204F6666F6
:101C90007365740050726F62652058204F666673DA
:101CA000657400452073746570732F6D6D005A2044
:101CB00053746570732F6D6D005920537465707384
:101CC0002F6D6D00582053746570732F6D6D00413A
:101CD0006476616E6365642053657474696E6773BE
:101CE000005045544700504C41003F0043616E6333
:101CF000656C00496E6974004D34323800496E6974
:101D00007469616C697A6520454550524F4D0046B3
:101D1000696C616D656E740054656D706572617497
:101D20007572650053746570732F6D6D0050726F1E
:101D30006265204F666673657473004A65726B0056
:101D4000416363656C65726174696F6E0056656CA2
:101D50006F636974790053657420486F6D65204F17
:101D600066667365747300436F6E6669677572614A
:101D700074696F6E003F004E65787420506F696E15
:101D80007400446F6E65004E65787400486F6D692D
:101D90006E672058595A0053746F726520536574EA
:101DA00074696E6773004C6F616420536574746965
:101DB0006E6773004C6576656C20436F726E65725A
:101DC000730050726F6265205A204F6666736574A7
:101DD000004F6666004F6E00426564204C65766574
:101DE0006C696E67004C6576656C204265640047DF
:101DF00032380A47323900473239004175746F2052
:101E0000486F6D65004D6F74696F6E0053746F7726
:101E1000004465706C6F790053656C662D54657372
:101E2000740052657365740053572D4D6F646500DF
:101E3000426564004E6F7A7A6C650046616E20538D
:101E40007065656400436F6E666967757261746979
:101E50006F6E00526573746F7265204465666175BC
:101E60006C7473004C6F61642053657474696E67A1
:101E7000730053746F72652053657474696E677371
:101E80000050726568656174202420436F6E66009F
:101E9000424C546F7563680050726F6265205A201F
:101EA0004F666673657400416476616E6365642095
:101EB00053657474696E6773004D61696E003F000D
:101EC0004261636B0053746F70005072696E7420CE
:101ED00066726F6D204D65646961004368616E676D
:101EE00065204D65646961004D323100436F6E6657
:101EF000696775726174696F6E0054656D706572A3
:101F00006174757265004D6F74696F6E0052657310
:101F1000756D65205072696E74004E6F204D65645A
:101F200069610054756E650053746F70205072695A
:101F30006E74005061757365205072696E7400494B
:101F40006E666F2053637265656E003F0053746167
:101F50007274205072696E740043616E63656C0028
:101F60005072696E740043616E6E6F7420656E749A
:101F70006572207375626469723A2000052E2E0026
:101F80004D61696E002100486F74656E6420746F46
:101F90006F20636F6C64004261636B0050726F630B
:101FA000656564004D6F74696F6E004469736162AA
:101FB0006C65205374657070657273004D38340021
:101FC0004D34382050726F62652054657374004739
:101FD0003238204F0A4D3438205031300042656489
:101FE000204C6576656C696E6700486F6D65205A98
:101FF000004732385A00486F6D6520590047323823
:102000005900486F6D6520580047323858004175B7
:10201000746F20486F6D6500473238004D61696EFE
:102020000050726568656174202420456E6400501C
:102030007265686561742024204265640054656D92
:10204000706572617475726500E61CE11C436F6F08
:102050006C646F776E00507265686561742024004F
:1020600046616E20537065656400426564004E6F82
:102070007A7A6C65004D61696E00466C6F77004638
:10208000616E20537065656400426564004E6F7A2E
:102090007A6C65005370656564004D61696E00255A
:1020A00068753A25303268750025303268753A25F2
:1020B00030326875002D2D2D005344002020202043
:1020C0002020200020202020005072696E742041C2
:1020D000626F72746564004D3235005061757369CA
:1020E0006E672E2E2E00454550524F4D205665727C
:1020F00073696F6E204572726F7200454550524F82
:102100004D20496E646578204572726F72004545B6
:1021100050524F4D20435243204572726F72003F20
:102120000049676E6F726500526573657400496E91
:10213000697469616C697A6520454550524F4D005C
:102140006F70656E00545249474745524544003A06
:1021500020007A5F6D696E00795F6D696E00785F4F
:102160006D696E005265706F7274696E6720656E7E
:102170006473746F70207374617475730A00486FB0
:102180006D6520257325732573204669727374006D
:10219000486F6D696E67204661696C656400000078
:1021A0002041000020C10000000000004842000063
:1021B0004842000080405761726E696E673A20485D
:1021C0006F6D696E672042756D7020446976697322
:1021D0006F72203C20310A000202040000A040007F
:1021E00000A0400000004000003A4300003B4300D4
:1021F000003943FFFFFF0000000100000001000064
:102200008000555555000000400033333300AAAA22
:102210002A004992240000002000C7711C009999EF
:102220001900D1451700555515003BB1130024493D
:10223000120011111100000010000F0F0F00E33801
:102240000E0043790D00CCCC0C00C3300C00E8A28A
:102250000B0064210B00AAAA0A00703D0A009DD859
:102260000900427B090092240900DCD30800888819
:1022700008001042080000000800F0C1070087872E
:10228000070075500700711C07003EEB0600A1BC5B
:1022900006006990060066660600703E060061183A
:1022A000060017F4050074D105005BB00500B2907C
:1022B0000500627205005555050078390500B81E05
:1022C0000500050505004EEC040087D40400A1BDFF
:1022D000040090A7040049920400C17D0400EE6947
:1022E0000400C7560400444404005C320400082182
:1022F000040041100400000004003FF00300F8E077
:10230000030026D20300C3C30300CCB503003AA8E0
:1023100003000A9B0300388E0300C08103009F75F1
:102320000300D0690300505E03001D5303003448CE
:102330000300913D03003333030016290300381FC7
:10234000030097150300300C0300030303000BFA8E
:10235000020049F10200BAE802005CE002002DD858
:1023600002002DD0020059C80200B0C0020031B9ED
:102370000200DAB10200AAAA0200A0A30200BC9CDB
:102380000200FA9502005C8F0200DF880200828260
:102390000200457C02002776020027700200436A93
:1023A00002007C640200D05E02003F590200C85364
:1023B0000200FFFDFCFAF8F6F4F2F0EEECEAE9E7D1
:1023C000E5E3E1E0DEDCDAD9D7D5D4D2D0CFCDCB8E
:1023D000CAC8C7C5C3C2C0BFBDBCBAB9B7B6B4B31B
:1023E000B2B0AFADACAAA9A8A6A5A4A2A1A09E9D7B
:1023F0009C9A99989795949392908F8E8D8B8A89B9
:1024000088878684838281807F7E7D7B7A797877D6
:10241000767574737271706F6E6D6C6B6A696867D4
:10242000666564636261605F5E5D5C5B5A595858C3
:102430005756555453525150504F4E4D4C4B4A4A9B
:102440004948474646454443424241403F3E3E3D5F
:102450003C3B3B3A39383837363535343332323114
:1024600030302F2E2E2D2C2B2B2A292928272726BA
:10247000252524232322212120201F1E1E1D1C1C54
:102480001B1B1A19191818171616151514131312E1
:10249000121111100F0F0E0E0D0D0C0C0B0A0A0964
:1024A00009080807070606050504040303020201DC
:1024B00000000000444300003143000039430000A5
:1024C0002041000020C10000000053657474696E53
:1024D00067732053746F72656400290A0020627963
:1024E0007465733B20637263200053657474696E76
:1024F00067732053746F72656420280045455052FD
:102500004F4D206461746173697A65206572726FE2
:10251000722E0A00290A002062797465733B2063D9
:10252000726320002073746F726564207365747425
:10253000696E6773207265747269657665642028B8
:1025400000202863616C63756C6174656429210ADD
:102550000020213D2000454550524F4D204352431D
:10256000206D69736D61746368202D202873746F0A
:102570007265642920002053697A653A2000496E0B
:102580006465783A200044494749504F5453204CE1
:102590006F616465640A0044494749504F545320B1
:1025A0004C6F6164696E670A00204D61726C696EE0
:1025B0003D563832290A00454550524F4D20766528
:1025C0007273696F6E206D69736D61746368202822
:1025D000454550524F4D3D0048617264636F6465DC
:1025E000642044656661756C742053657474696E0B
:1025F0006773204C6F616465640A000000C8430083
:1026000000C84300000040000034420000A3420024
:1026100000A3425258C8430000D8428813000088E3
:10262000130000320000008813000024F4D430505E
:10263000C38E20C2A24017828B7011127A910D8135
:102640006CD90AA861E108C7586607615143061EA4
:102650004B5D05C145A7041A411104093D9803715A
:102660003931034036DB0265339102D430540280A5
:102670002E1D02632CEE01752AC501B028A00110A1
:102680002781018F2564012B244B01E0223401AC0A
:10269000211F018D200D01801FFC00841EED00977D
:1026A0001DDF00B81CD200E61BC600201BBC006466
:1026B0001AB200B219A8000A19A0006A189900D12C
:1026C00017910040178B00B516840031167E00B3B9
:1026D0001579003A157300C7146F0058146A00EE9C
:1026E0001366008813630025135E00C7125B006C3D
:1026F00012570015125400C111510070114F0021E2
:10270000114B00D61049008D1047004610440002BE
:10271000104200C00F4000800F3E00420F3C0006F8
:102720000F3B00CB0E3800930E37005C0E350027B0
:102730000E3400F30D3200C10D3100900D300060F9
:102740000D2E00320D2D00050D2C00D90C2B00AEE6
:102750000C2900850C29005C0C2700350C27000E85
:102760000C2600E80B2400C40B2400A00B23007DE2
:102770000B23005A0B2100390B2100180B2000F805
:102780000A1F00D90A1E00BB0A1E009D0A1D0080F8
:102790000A1D00630A1C00470A1B002C0A1B0011BB
:1027A0000A1A00F7091A00DD091900C4091900AB5B
:1027B000091900920917007B091800630917004CDA
:1027C00009160036091600200916000A091500F539
:1027D000081500E0081400CC081400B8081400A480
:1027E000081400900813007D0812006B08130058AD
:1027F00008120046081200340811002308110012C4
:1028000008110001081100F0071000E0071000D0C7
:10281000071000C0071000B0070F00A107100091BB
:10282000070E0083070F0074070F0065070E00579F
:10283000070E0049070E003B070D002E070E002073
:10284000070D0013070D0006070D00F9060C00ED3B
:10285000060D00E0060C00D4060C00C8060C00BCF7
:10286000060C00B0060C00A4060B0099060C008DA7
:10287000060B0082060B0077060B006C060B00614E
:10288000060A0057060B004C060A0042060A0038EA
:10289000060A002E060A0024060A001A060A00107C
:1028A00006090007060A00FD050900F4050900EB0A
:1028B000050900E2050900D9050900D0050900C78E
:1028C000050900BE050900B5050800AD050800A50D
:1028D0000509009C050800940508008C0508008483
:1028E0000508007C050800740508006C05070065F4
:1028F0000508005D050700560508004E050700475E
:102900000507004005080038050700310507002AC3
:10291000050700230507001C050600160507000F24
:102920000507000805060002050700FB040600F580
:10293000040700EE040600E8040600E2040700DBDA
:10294000040600D5040600CF040600C9040600C32F
:10295000040600BD040600B7040600B1040500AC7F
:10296000040600A6040600A00405009B04060095CA
:10297000040500900406008A040500850405008013
:102980000406007A04050075040500700405006B58
:1029900004050066040500610405005C0405005799
:1029A000040500520405004D0405004804050043D9
:1029B0000405003E0404003A040500350405003017
:1029C0000404002C04050027040400230405001E51
:1029D0000404001A04040016040500110404000D88
:1029E000040400090405000404040000040400FCBD
:1029F000030400F8030400F4030400F0030400ECF3
:102A0000030400E8030400E4030400E0030400DC22
:102A1000030400D8030400D4030400D0030400CC52
:102A2000030400C8030300C503030024F404D920F1
:102A30001BC40C5C0E9804C4095F0265077101F4A5
:102A400005F900FB04B30048048700C1036900587E
:102A500003550003034500BE023A008402310053CF
:102A6000022A002902250004022000E4011C00C8FB
:102A7000011900AF011700980114008401130071BF
:102A80000110006101100051010E0043010D0036DC
:102A9000010B002B010B0020010B00150109000C9C
:102AA00001090003010800FB000800F3000800EB27
:102AB000000700E4000600DE000600D8000600D291
:102AC000000600CC000500C7000500C2000500BDDF
:102AD000000400B9000400B5000400B1000400AD1A
:102AE000000400A9000400A5000300A20003009F49
:102AF0000004009B0003009800030095000200936F
:102B0000000300900003008D0002008B000300888A
:102B10000002008600020084000300810002007FA2
:102B20000002007D0002007B0002007900020077B5
:102B300000010076000200740002007200010071C2
:102B40000002006F0002006D0001006C0002006ACC
:102B500000010069000200670001006600010065D5
:102B600000010064000200620001006100010060D9
:102B70000001005F0002005D0001005C0001005BDD
:102B80000001005A000100590001005800010057DF
:102B900000010056000100550001005400010053DF
:102BA00000000053000100520001005100010050DC
:102BB0000001004F0001004E0000004E0001004DDA
:102BC0000001004C0001004B0000004B0001004AD6
:102BD00000010049000100480000004800010047D2
:102BE00000010046000000460001004500000045CD
:102BF00000010044000100430000004300010042C6
:102C000000000042000100410000004100010040BE
:102C10000001003F0000003F0001003E0000003EB8
:102C20000001003D0000003D0001003C0000003CB0
:102C30000000003C0001003B0000003B0001003AA6
:102C40000000003A0001003900000039000100389E
:102C50000000003800000038000100370000003795
:102C6000000100360000003600000036000100358B
:102C70000000003500000035000100340000003481
:102C80000000003400010033000000330000003376
:102C9000000100320000003200000032000100316B
:102CA0000000003100000031000100300000003061
:102CB000000000300001002F0000002F0000002F56
:102CC0000000002F0001002E0000002E0000002E4A
:102CD0000001002D0000002D0000002D0000002D3F
:102CE0000001002C0000002C0000002C0000002C33
:102CF0000001002B0000002B0000002B0000002B27
:102D00000001002A0000002A0000002A0000002A1A
:102D1000000100290000002900000029000000290E
:102D20000000002900010028000000280000002801
:102D300000000028000000280001002700000027F4
:102D400000000027000000270000002700010026E7
:102D500000000026000000260000002600000026DB
:102D600000010025000000250000002500000025CE
:102D700000000025000000250001002400000024C0
:102D800000000024000000240000002400010023B3
:102D900000000023000000230000002300000023A7
:102DA0000000002300000023000100220000002298
:102DB000000000220000002200000022000000228B
:102DC000000100210000002100000021000000217E
:102DD000000000210000002100000021000100206F
:102DE0000000002000000020000000200000002063
:102DF0000000002000000020000000200001001F53
:102E00000000001F0000001F0000001F0000001F46
:102E10000000001F0000001F0001001E0000001E37
:102E20000000001E0000001E0000003930000033CA
:102E300025000087190000B00F0000DB080000BD6E
:102E4000040000740200003F01000020436F756E13
:102E50007420583A004265640045310062656400A0
:102E60002C2073797374656D2073746F7070656452
:102E700021204865617465725F49443A20004865C5
:102E80006174696E67204661696C656400486561BC
:102E900074696E67206661696C65640054484552C8
:102EA0004D414C2052554E4157415900546865726E
:102EB0006D616C2052756E61776179005072696E38
:102EC0007420506175736564004572723A204D41FB
:102ED0005854454D50004D415854454D5020747242
:102EE00069676765726564004572723A204D494EA4
:102EF00054454D50004D494E54454D502074726913
:102F000067676572656400202F002042403A002008
:102F1000403A000009121B242D363F48415A536C99
:102F2000657E7719100B023D342F265158434A75A0
:102F30007C676E323B2029161F040D7A7368615E30
:102F4000574C452B2239300F061D14636A717847A0
:102F50004E555C646D767F4049525B2C253E3708A8
:102F6000011A137D746F6659504B42353C272E1160
:102F700018030A565F444D727B60691E170C053AB0
:102F80003328214F465D546B627970070E151C2360
:102F90002A31384148535A656C777E09001B122D3F
:102FA000243F3658514A437C756E671019020B3422
:102FB0003D262F737A6168575E454C3B3229201FAE
:102FC000160D046A6378714E475C55222B30390622
:102FD0000F141D252C373E0108131A6D647F7649A6
:102FE000405B523C352E2718110A03747D666F50E2
:102FF00059424B171E050C333A21285F564D447B2E
:103000007269600E071C152A233831464F545D62E1
:103010006B70797C3C3E5E2B3D3F2F5B5D3B2C2AE9
:10302000225C0043616E6E6F74206F70656E20735A
:1030300075626469722000534420496E69742046A9
:1030400061696C0053442063617264206F6B0A00F5
:103050006F70656E526F6F74206661696C65640A8B
:1030600000766F6C756D652E696E69742066616996
:103070006C65640A004E6F20534420636172640AD9
:10308000004D3234004D3233202573002E0A006F7C
:1030900070656E206661696C65642C2046696C659C
:1030A0003A200046696C652073656C6563746564DD
:1030B0000A002053697A653A200046696C65206FE2
:1030C00070656E65643A2000454E44205355425267
:1030D0004F5554494E450A002220706F730022203C
:1030E000706172656E743A2200535542524F5554C6
:1030F000494E452043414C4C207461726765743AD7
:10310000220053756263616C6C204F766572666C49
:103110006F77004578636565646564206D6178202C
:10312000535542524F5554494E452064657074685A
:103130003A310A0057726974696E6720746F2066AD
:10314000696C653A2000667265736800646F696E29
:1031500067002066696C653A20004E6F772000009A
:10316000000A0B02090C0D0E080703040100000001
:10317000000000000000000000000000000000004F
:10318000000000000000000000000012111000000C
:10319000000000000000000000000000000000002F
:1031A00000000000000268747470733A2F2F6D6184
:1031B000726C696E66772E6F7267006874747073D4
:1031C0003A2F2F6D61726C696E66772E6F72670091
:1031D00068747470733A2F2F6D61726C696E6677C4
:1031E0002E6F726700322E302E372E3200322E3084
:1031F0002E372E3200322E302E372E320068747465
:1032000070733A2F2F6D61726C696E66772E6F72D4
:10321000670068747470733A2F2F6D61726C696EF9
:1032200066772E6F72670068747470733A2F2F6D13
:1032300061726C696E66772E6F72670020322E3075
:103240002E372E320070012C0190012701B001228F
:1032500001C0011D01F00118011002130130020E1E
:10326000016002090190020401C002FF000003FA9C
:10327000004003F5008003F000D003EB002004E6DB
:10328000007004E100E004DC004005D700C005D276
:10329000004006CD00D006C8008007C3003008BE3D
:1032A00000F008B900C009B400B00AAF00B00BAA22
:1032B00000D00CA500000EA000500F9B00C010967F
:1032C000005012910000148C00C0158700B01782C6
:1032D00000B0197D00D01B7800001E730040206EE6
:1032E0000090226900F024640040275F0090295A72
:1032F00000E02B5500102E500020304B00103246BD
:1033000000E033410090353C001037370070383210
:1033100000A0392D00B03A2800A03B2300603C1EDD
:1033200000103D1900903D1400103E0F00703E0A41
:1033300000C03E0500003F0000403FFBFF803FF61D
:10334000FFC03FF1FF2020506C616E6E65724275C8
:103350006666657242797465733A2000204672652C
:1033600065204D656D6F72793A2000436F6D70690D
:103370006C65643A204A616E20203120323032314F
:103380000A00204C61737420557064617465643A5E
:1033900020323032302D31302D3135207C204175B6
:1033A00074686F723A206A6F6E7361670A00322E1A
:1033B000302E372E320A004D61726C696E00205338
:1033C0006F6674776172652052657365740A0020B8
:1033D0005761746368646F672052657365740A008F
:1033E0002042726F776E206F75742052657365741A
:1033F0000A002045787465726E616C2052657365B1
:10340000740A00506F77657255700A0073746172A8
:10341000740A006175746F25632E6700473238584F
:1034200059004D31303031006572726F7220777201
:103430006974696E6720746F2066696C650A004460
:103440006F6E6520736176696E672066696C652EA4
:103450000A004D323900456E6473746F7073002535
:103460005320256320256320256320256300205AEF
:103470003A0020593A0020583A00656E6473746F20
:103480007073206869743A2000004D6F76652025BE
:10349000736D6D004D6F766520302E316D6D004D72
:1034A0006F766520316D6D004D6F76652031306D22
:1034B0006D004D6F766520417869730045787472B0
:1034C00075646572004D6F7665205A004D6F7665A4
:1034D0002059004D6F76652058005072696E742037
:1034E00066726F6D204D656469610050726F62692C
:1034F0006E67204661696C65640A0050726F62698C
:103500006E67204661696C656400205A3A2000208D
:10351000593A200042656420583A2000220A00559A
:103520006E6B6E6F776E20636F6D6D616E643A20A7
:1035300022004765656574656368206933205072B1
:103540006F20422052656164792E005072696E745A
:10355000696E672E2E2E0020453A00205A3A002030
:10356000593A00583A0020746F6F206C6F6E6720D4
:10357000657874727573696F6E2070726576656EAA
:103580007465640A0020636F6C64206578747275DA
:1035900073696F6E2070726576656E7465640A007B
:1035A00000002110422063308440A550C660E770BF
:1035B000088129914AA16BB18CC1ADD1CEE1EFF167
:1035C0003112100273325222B5529442F772D6620F
:1035D000399318837BB35AA3BDD39CC3FFF3DEE3B7
:1035E0006224433420040114E664C774A44485545F
:1035F0006AA54BB528850995EEE5CFF5ACC58DD507
:103600005336722611163006D776F6669556B446AE
:103610005BB77AA719973887DFF7FEE79DD7BCC756
:10362000C448E5588668A7784008611802282338FE
:10363000CCC9EDD98EE9AFF9488969990AA92BB9A6
:10364000F55AD44AB77A966A711A500A333A122A4E
:10365000FDDBDCCBBFFB9EEB799B588B3BBB1AABF6
:10366000A66C877CE44CC55C222C033C600C411C9E
:10367000AEED8FFDECCDCDDD2AAD0BBD688D499D46
:10368000977EB66ED55EF44E133E322E511E700EEE
:103690009FFFBEEFDDDFFCCF1BBF3AAF599F788F96
:1036A0008891A981CAB1EBA10CD12DC14EF16FE176
:1036B0008010A100C230E3200450254046706760AE
:1036C000B9839893FBA3DAB33DC31CD37FE35EF3C6
:1036D000B1029012F322D2323542145277625672FE
:1036E000EAB5CBA5A89589856EF54FE52CD50DC516
:1036F000E234C324A014810466744764245405444E
:10370000DBA7FAB79987B8975FE77EF71DC73CD765
:10371000D326F2369106B01657667676154634569D
:103720004CD96DC90EF92FE9C899E9898AB9ABA9B5
:103730004458654806782768C018E1088238A328ED
:103740007DCB5CDB3FEB1EFBF98BD89BBBAB9ABB05
:10375000754A545A376A167AF10AD01AB32A923A3D
:103760002EFD0FED6CDD4DCDAABD8BADE89DC98D55
:10377000267C076C645C454CA23C832CE01CC10C8D
:103780001FEF3EFF5DCF7CDF9BAFBABFD98FF89FA5
:10379000176E367E554E745E932EB23ED10EF01EDD
:1037A00000002200250028002B002E0031003400EC
:1037B00002010000050108010B01000021002400A6
:1037C00027002A002D003000330001010000040111
:1037D00007010A0105050505070508080808020292
:1037E00002020A0A0808040404040101010101019B
:1037F00001010303030303030303040707070C0C7E
:103800000C0C0C0C0C0C0202020206060606060644
:1038100006060B0B0B0B0B0B0B0B010210202008E9
:10382000081020401020408002010201080402011B
:10383000010204081020408080402010080402018A
:1038400080040201804020100804020108040201E3
:10385000010204081020408001020408102040806A
:103860003E01A60011241FBECFEFD1E2DEBFCDBFC7
:1038700000E00CBF13E0A0E0B2E0EEEEFDE302E0FA
:103880000BBF02C007900D92AE30B107D9F723E10C
:10389000AEE0B3E001C01D92A93FB207E1F71CE121
:1038A000C1E3DCE100E006C021970109802FFE01A1
:1038B0000F94671EC033D10780E00807A9F70F9463
:1038C000C6070D94E51E0C940000FC018491089538
:1038D000FC0180810895CF93DF93DB01F9019C9176
:1038E0009130C1F0943080F094509C938830D1F4A2
:1038F00080819181009771F0019791838083480FB7
:10390000591FEA01188206C08C3539F49C5F9C93DC
:10391000943041F4DF91CF9108958B3339F781E0F2
:103920008C93F8CF20813181B9016F5F7F4F718314
:103930006083420F531FEA018883808191818F3514
:1039400091056CF7E7CF90915306E92FF0E0EA502C
:10395000F04F80839F5F943040F4909353068091A2
:10396000D7078F5F8093D707089510925306F7CF3C
:10397000282F9091A203833021F495FD0FC094FD70
:103980000FC0892F90E0B0E0A0E004C0B695A795E5
:10399000979587952A95D2F78170089581E00895CB
:1039A00080E00895A09A0895809A889808950C94CC
:1039B0003D900C943D900C943D900C943D900C9453
:1039C000EF8F0C94EF8F0C94EF8F0C94EF8F80910E
:1039D0004A02882341F0609184047091850441E09B
:1039E00081E00C94E8E80895EF92FF920F931F9303
:1039F000CF93DF9300D000D01F921F92CDB7DEB7D8
:103A00008E010F5F1F4FD80130E020E0FB01E20F75
:103A1000F31FE491ED932F5F3F4F28303105B1F74D
:103A2000877028E0829FC001112480640E94ECEE20
:103A3000780188E0E80EF11CF80161918F018EEDAC
:103A40009FE00E9496EFE016F106B1F728960FB6B8
:103A5000F894DEBF0FBECDBFDF91CF911F910F91C4
:103A6000FF90EF900895CF92DF92EF92FF920F9325
:103A70001F93CF93DF9300D000D0CDB7DEB78A017C
:103A800046E0469F9001479F300D1124BC01620F14
:103A9000731F46E050E0CE0101960F949413C98045
:103AA000DA80EB80FC80F801408151816281738172
:103AB0008FEF9FEFC416D506E606F70640F081E0CB
:103AC00090E04C155D056E057F0508F080E02696B8
:103AD0000FB6F894DEBF0FBECDBFDF91CF911F911F
:103AE0000F91FF90EF90DF90CF9008950F931F9369
:103AF000CF93DF93CDB7DEB72E970FB6F894DEBF26
:103B00000FBECDBF8A011E861D866F837887898789
:103B10009A872FEF2B87603871058105910538F45E
:103B20008EED9FE00E9496EF81E090E02FC09E0115
:103B3000235F3F4FAE01495F5F4F69EB70E081EE5D
:103B400096E10E94ECD497FD2CC08D859E8526E0E1
:103B5000289FB001299F700D11246F51794E46E0C6
:103B600050E0CE0101960F9494136D818EED9FE08D
:103B70000E9496EF01301105B9F26E816623A1F221
:103B80008EED9FE00E9496EF82E090E02E960FB6B9
:103B9000F894DEBF0FBECDBFDF91CF911F910F9183
:103BA00008959E01235F3F4FAE01495F5F4F63E67B
:103BB00070E08FE894E10E94ECD497FD0BC08D85F6
:103BC0009E8526E0289FB001299F700D1124615722
:103BD0007B4EC5CF6FE3A4CF2F923F924F925F925F
:103BE0006F927F928F929F92AF92BF92CF92DF920D
:103BF000EF92FF920F931F93CF93DF93D62FC72F90
:103C0000FC0180809180A280B380C501B40120E8CE
:103C100031E541E050E00F94AF1AC9016DE671E063
:103C20000F943F1E6B017C01C501B40120E13EE011
:103C300040E050E00F94AF1ACA01B90128E130E02A
:103C400040E050E00F94AF1A362E272E062F172F84
:103C50008CE3482E512C612C712CC501B401A301B9
:103C600092010F94AF1AB62EA72ECA01B901A30173
:103C700092010F94AF1ACB01C114D10479F1AF9224
:103C8000BF927F936F932F923F92FF92EF92DF92BA
:103C9000CF9288EB92E19F938F93CF93DF930F9412
:103CA00002148DB79EB70E960FB6F8949EBF0FBE46
:103CB0008DBF8D2F9C2FDF91CF911F910F91FF9082
:103CC000EF90DF90CF90BF90AF909F908F907F90BC
:103CD0006F905F904F903F902F900895E114F10402
:103CE000C9F0AF92BF927F936F932F923F92FF9252
:103CF000EF9288EA92E19F938F93CF93DF930F9493
:103D00000214EDB7FEB73C960FB6F894FEBF0FBE97
:103D1000EDBFCFCF012BB9F0AF92BF927F936F93DE
:103D20002F923F928CE992E19F938F93CF93DF93F1
:103D30000F9402148DB79EB70A960FB6F8949EBFE3
:103D40000FBE8DBFB6CF892BA9F0AF92BF927F93E4
:103D50006F9384E992E19F938F93CF93DF930F94B6
:103D60000214EDB7FEB738960FB6F894FEBF0FBE3B
:103D7000EDBF9FCFAF92BF9280E992E19F938F9367
:103D8000CF93DF930F9402140F900F900F900F902A
:103D90000F900F908ECF809197039091980300978A
:103DA00031F04AE050E070E060E00D94881260E08D
:103DB00070E0CB010895809197039091980300974C
:103DC00031F04AE050E070E060E00D945A1160E09C
:103DD00070E0CB0108950E94DB1ECB0108950E9484
:103DE000DB1E97FD0CC00E94DB1E6F3F7105810535
:103DF000910509F034F40E94DB1E862F089580E0BF
:103E000008958FEF08958091970390919803892BDF
:103E100041F00E94EF1E91E0811101C090E0892FD6
:103E2000089591E0FCCFCF92DF92EF92FF920F9333
:103E30001F93CF93DF936B017A01EC01C25EDC4FDD
:103E400028813CE0389F8001399F100D112427FF05
:103E500024C0FB011182108288818F5F8883888152
:103E60009801280F311D87FD3A95C90120917F0FD8
:103E7000F6012817190629F024F088818C300CF4FB
:103E80003CC080819181049680349C4908F475C0BF
:103E9000F60180819181049672C088819801280F73
:103EA000311D87FD3A95C90120917F0F281719060A
:103EB00099F294F28881A801480F511D87FD5A9507
:103EC000FA01EE0FFF1FE40FF51FE95CF04F808150
:103ED00087FFC2CF8881F801E80FF11D87FDFA95B1
:103EE000CF01EE0FFF1FE80FF91FE95CF04F808153
:103EF00060E08F770E942BEDAFCF80819181288188
:103F0000A801420F511D27FD5A959A01FA01EE0FA3
:103F1000FF1FE20FF31FE95CF04F21813281820F16
:103F2000931FF7019183808388819801280F311DA9
:103F300087FD3A95F901EE0FFF1FE20FF31FE95CD1
:103F4000F04F808187FF20C08881080F111D87FDF9
:103F50001A95F801EE0FFF1FE00FF11FE95CF04F1B
:103F6000808161E08F77DF91CF911F910F91FF905A
:103F7000EF90DF90CF900C942BED80E49CE9F7015B
:103F8000918380838FEF8883DF91CF911F910F9171
:103F9000FF90EF90DF90CF900895CF93DF9300D004
:103FA0001F92CDB7DEB70F94861C0F9470146983EF
:103FB0007A838B839C83CE0101960E94AFB10F90D0
:103FC0000F900F900F90DF91CF9108958F929F9255
:103FD000AF92BF92CF92DF92EF92FF92CF936B019D
:103FE0007C0120E030E0A9010F946B1487FD9FC095
:103FF0006DEB77E386E095E3A70196010F94131B21
:104000006B017C0120E030E040E251E40F94D114D8
:1040100020E030E048EC52E40F94D1144B015C01F5
:1040200020E030E0A901C701B6010F946B1420E035
:1040300030E040EA50E487FF04C020E030E040EA8E
:1040400050ECC501B4010F94131B20E030E040E2B6
:1040500051E40F940D1C0F947F1C6B017C018BE2CB
:10406000F7FE09C0F094E094D094C094C11CD11C18
:10407000E11CF11C8DE28093E907C701B60120E144
:1040800037E240E050E00F94D11A8AE0882E912C5C
:10409000A12CB12CCA01B901A50194010F94D11A28
:1040A000605D6093EA07C701B60128EE33E040E0A7
:1040B00050E00F94D11ACA01B901A50194010F94DF
:1040C000D11A605D6093EB07C701B60124E630E0CA
:1040D00040E050E00F94D11ACA01B901A501940142
:1040E0000F94D11A605D6093EC078EE28093ED0728
:1040F000C701B601A50194010F94D11AC62FCA01B8
:10410000B901A50194010F94D11A605D6093EE0787
:10411000C05DC093EF0789EE97E0CF91FF90EF90DD
:10412000DF90CF90BF90AF909F908F9008956DEBF0
:1041300077E386E095EB60CF8F929F92AF92BF922C
:10414000CF92DF92EF92FF926B017C0120E030E092
:10415000A9010F946B1487FD6BC06DEB77E386E0CC
:1041600095E3A70196010F94131B6B017C0120E0DE
:1041700030E040E251E40F94D11420E030E040E21E
:1041800051E40F94D1144B015C0120E030E0A9010F
:10419000C701B6010F946B1420E030E040EA50E410
:1041A00087FF04C020E030E040EA50ECC501B401D4
:1041B0000F94131B20E030E040E251E40F940D1CFB
:1041C0000F947F1C9B018BE237FF05C0222733270A
:1041D000261B370B8DE28093EB07C90164E670E084
:1041E0000F94531ECB01EAE0F0E0BF010F94531E81
:1041F000805D8093EC07C901BF010F94531E282FE7
:10420000CB01BF010F94531E805D8093ED078EE2BA
:104210008093EE07205D2093EF078BEE97E0FF90F1
:10422000EF90DF90CF90BF90AF909F908F900895C8
:104230006DEB77E386E095EB94CF8F929F92AF92F0
:10424000BF92CF92DF92EF92FF92CF936B017C01EE
:1042500020E030E0A9010F946B1487FDAAC06DEB3C
:1042600077E386E095E3A70196010F94131B6B019A
:104270007C0120E030E0A9010F946B1487FF9EC001
:10428000C701B601905820E030E040E251E40F94BD
:10429000D11420E030E040E251E40F94D11420E04A
:1042A00030E040EA50E40F94131B20E030E040E29D
:1042B00051E40F940D1C0F947F1C6B017C0180E274
:1042C0008093E90760E280E1C81687E2D806E1043E
:1042D000F1048CF0C701B60120E137E240E050E084
:1042E0000F94D11ACA01B9012AE030E040E050E051
:1042F0000F94D11A605D6093EA0760E288EEC816F9
:1043000083E0D806E104F1048CF0C701B60128EE81
:1043100033E040E050E00F94D11ACA01B9012AE01D
:1043200030E040E050E00F94D11A605D6093EB07FD
:1043300060E284E6C816D104E104F1048CF0C70100
:10434000B60124E630E040E050E00F94D11ACA01F3
:10435000B9012AE030E040E050E00F94D11A605DEE
:104360006093EC078AE0882E912CA12CB12CC70118
:10437000B601A50194010F94D11AC62FCA01B90143
:10438000A50194010F94D11A605D6093ED078EE250
:104390008093EE07C05DC093EF0789EE97E0CF9161
:1043A000FF90EF90DF90CF90BF90AF909F908F9055
:1043B00008956DEB77E386E095EB55CF20E030E094
:1043C00040E251E4C701B60162CFCF92DF92EF9293
:1043D000FF92CF93DF9300D01F92CDB7DEB76B0172
:1043E0007C0120E030E0A9010F946B1487FD1BC015
:1043F0006DEB77E386E095E3A70196010F94131B1D
:1044000069837A838B839C83CE0101960E94AFB12E
:104410000F900F900F900F90DF91CF91FF90EF9042
:10442000DF90CF9008956DEB77E386E095EBE4CFD6
:104430008F929F92AF92BF92CF92DF92EF92FF92B4
:10444000CF936B017C0120E030E0A9010F946B1445
:1044500087FFA3C06DEB77E386E095EBA70196019C
:104460000F94131B6B017C0120E030E040E251E42B
:104470000F94D11420E030E048EC52E40F94D114B2
:104480004B015C0120E030E040E251ECC701B60195
:104490000F946B14181654F420E030E048EC52E40A
:1044A000C701B6010F94731D87FD8BC020E030E07B
:1044B000A901C701B6010F946B1487FF73C060E0B8
:1044C00070E080EA90ECA50194010F94131B20E0AA
:1044D00030E040E251E40F940D1C0F947F1C6B01FF
:1044E0007C01F7FC64C020E137E240E050E00F942B
:1044F000D11ACA01B9012AE030E040E050E00F943F
:10450000D11A605D6093EA07C701B60128EE33E077
:1045100040E050E00F94D11A9AE0892E912CA12C02
:10452000B12CCA01B901A50194010F94D11A605DA3
:104530006093EB07C701B60124E630E040E050E0AD
:104540000F94D11ACA01B901A50194010F94D11A8F
:10455000605D6093EC078EE28093ED07C701B601C2
:10456000A50194010F94D11AC62FCA01B901A50162
:1045700094010F94D11A605D6093EE07C05DC09303
:10458000EF078AEE97E0CF91FF90EF90DF90CF900A
:10459000BF90AF909F908F9008956DEB77E386E08A
:1045A00095E35CCF60E070E080EA90E48CCFF0941B
:1045B000E094D094C094C11CD11CE11CF11C6DE2AC
:1045C000A1CF20E030E0A901C701B6010F946B1420
:1045D00087FF6AC060E070E080EA90ECA50194017A
:1045E0000F94131B20E030E040E251E40F940D1CC7
:1045F0000F947F1C4B015C0120E030E0A901C70152
:10460000B6010F94731D87FD0BC020E030E040E23F
:1046100051E4C701B6010F946B1460E287FD13C02B
:10462000B7FC47C0C501B40128EE33E040E050E0DC
:104630000F94D11ACA01B9012AE030E040E050E0FD
:104640000F94D11A605D6093EB07C501B40124E6B5
:1046500030E040E050E00F94D11A8AE0C82ED12C0F
:10466000E12CF12CCA01B901A70196010F94D11ACE
:10467000605D6093EC078EE28093ED07C501B401A5
:10468000A70196010F94D11AC62FCA01B901A7013B
:1046900096010F94D11A605D6093EE07C05DC093E0
:1046A000EF078BEE97E06FCF60E070E080EA90E478
:1046B00095CFB094A09490948094811C911CA11CDF
:1046C000B11C6DE2C0CFCF92DF92EF92FF926B01EF
:1046D0007C0120E030E0A9010F946B1487FD26C017
:1046E0006DEB77E386E095E3A70196010F94131B2A
:1046F0006B017C0120E030E0A9010F946B1420E0F5
:1047000030E040E05FE387FF04C020E030E040E0BD
:104710005FEBC701B6010F94131B0F947F1CCB01F5
:10472000FF90EF90DF90CF900C9432B26DEB77E377
:1047300086E095EBD9CF63E972E084E690E00E94D1
:104740007BBB6AEB72E084E690E00C947BBB81114A
:104750000C949B2368EB71E084E190E00C947BBBAC
:104760008091860F9091870F891B8F7051F48091F3
:104770004508813031F08091131182FB882780F940
:10478000089581E00895E0917D04E63010F581E020
:104790008E0F80937D044091F8075091F907609146
:1047A000FA077091FB079091F1078091F20728E0DA
:1047B000E29FF0011124E35BFB4F2091DC0F30916D
:1047C000DD0F318320834283538364837583968313
:1047D00087830895AF92BF92CF92DF92EF92FF92BC
:1047E0000F931F93CF93DF93EC015B018A01FB01D1
:1047F000199587FD16C0C82ED12CF12CE12C2196DD
:10480000F801C082D182E282F382CE01DF91CF91A2
:104810001F910F91FF90EF90DF90CF90BF90AF90DE
:104820000895982F907E903CA9F48F7190E0B0E0AD
:10483000A0E06C017D0126E0CC0CDD1CEE1CFF1C11
:104840002A95D1F7CE010196F50119958F73C82AE3
:104850002296D6CF982F907F903E11F58F7090E0E2
:10486000B0E0A0E06C017D0186E0CC0CDD1CEE1C0C
:10487000FF1C8A95D1F7CE010196F50119958F732A
:10488000C82A96E0CC0CDD1CEE1CFF1C9A95D1F7D3
:10489000CE010296F50119958F73C82A2396B0CFE1
:1048A000982F987F903F79F5877090E0B0E0A0E076
:1048B0006C017D01F6E0CC0CDD1CEE1CFF1CFA95B2
:1048C000D1F7CE010196F50119958F73C82AA6E09C
:1048D000CC0CDD1CEE1CFF1CAA95D1F7CE01029674
:1048E000F50119958F73C82AB6E0CC0CDD1CEE1CBF
:1048F000FF1CBA95D1F7CE010396F50119958F7378
:10490000C82A24967DCF982F9C7F983FE1F583702D
:1049100090E0B0E0A0E06C017D0156E0CC0CDD1C25
:10492000EE1CFF1C5A95D1F7CE010196F5011995A1
:104930008F73C82A66E0CC0CDD1CEE1CFF1C6A9548
:10494000D1F7CE010296F50119958F73C82A76E04A
:10495000CC0CDD1CEE1CFF1C7A95D1F7CE01039622
:10496000F50119958F73C82AE6E0CC0CDD1CEE1C0E
:10497000FF1CEA95D1F7CE010496F50119958F73C6
:10498000C82A25963DCF982F9E7F9C3F09F049C0AD
:10499000817090E0B0E0A0E06C017D0186E0CC0C7D
:1049A000DD1CEE1CFF1C8A95D1F7CE010196F501A6
:1049B00019958F73C82A96E0CC0CDD1CEE1CFF1CE9
:1049C0009A95D1F7CE010296F50119958F73C82AF1
:1049D00026E0CC0CDD1CEE1CFF1C2A95D1F7CE0185
:1049E0000396F50119958F73C82A36E0CC0CDD1CAF
:1049F000EE1CFF1C3A95D1F7CE010496F5011995EE
:104A00008F73C82A46E0CC0CDD1CEE1CFF1C4A95B7
:104A1000D1F7CE010596F50119958F73C82A269610
:104A2000EFCE982F907C903841F4807C803869F4E8
:104A30002196CE01F5011995F8CF8E7F8D3F28F094
:104A40002196CE01F5011995F8CFC12CD12C760114
:104A5000D7CE1F93CF93DF9300D01F92CDB7DEB791
:104A600010E0AE014F5F5F4F65E67CE10E94EA23F4
:104A700049815A816B817C81452B462B472B11F054
:104A80001F5FEFCF812F0F900F900F900F90DF914E
:104A9000CF911F9108951F93CF93DF9300D01F9262
:104AA000CDB7DEB710E0AE014F5F5F4F68E67CE147
:104AB0000E94EA2349815A816B817C81452B462BD8
:104AC000472B11F01F5FEFCF812F0F900F900F90AA
:104AD0000F90DF91CF911F91089566EA7BE180E00E
:104AE0000E94F41C6EE97BE181E00E94F41C66E9FF
:104AF0007BE182E00E94F41C6EE87BE186E00E948C
:104B0000F41C66E87BE187E00E94F41C6EE77BE121
:104B100083E00E94F41C66E77BE184E00E94F41CC1
:104B20006EE67BE185E00C94F41CCF93823069F44F
:104B3000C4E0C15068F088E0C89FB0011124695CEE
:104B4000744E8C2F0E94F41CF4CFCF910C946D25E1
:104B5000CF9108950F931F93522F2091DC0F309126
:104B6000DD0F2817390779F19093DD0F8093DC0F63
:104B70008B0130E020E00093F8071093F9072093B1
:104B8000FA073093FB074093F1075093F2078756DB
:104B9000924B21F41092860410927D040E94F2EE52
:104BA00081E02091DC0F3091DD0F2756324B09F068
:104BB00080E00E94952582E080934A0281E0809304
:104BC000080810927E041F910F91089520E040E0A4
:104BD00070E060E087E692EB0C94AA25E0917D04FA
:104BE000EE2389F0E150E0937D0488E0E89FF00136
:104BF0001124E35BFB4F62817381278146818081B1
:104C000091810C94AA250C94E62564E084E10E942D
:104C1000FAEE81E02091DC0F3091DD0F2756324B08
:104C200009F080E00E9495250C94F2EE4FEF5FEFC3
:104C30000C94761DAF92BF92CF92DF92EF92FF92CB
:104C40000F931F93CF93DF9300D01F92CDB7DEB7A2
:104C50006C015B017A0110E000E00E151F05E8F41D
:104C600019821A821B821C82AE014F5F5F4FB50111
:104C7000C6010E94EA236C0169817A818B819C8143
:104C8000611571058105910541F0A701401B510B8C
:104C90000E94761D080F191FE0CFC8010F900F90DA
:104CA0000F900F90DF91CF911F910F91FF90EF9098
:104CB000DF90CF90BF90AF900895CF92DF92EF92A8
:104CC000FF920F931F93CF93DF9300D01F92CDB726
:104CD000DEB77C01062F6A01122F11160CF03EC0C0
:104CE000AE014F5F5F4F65E67CE1C7010E94EA239A
:104CF0007C0169817A818B819C81611571058105B7
:104D0000910561F16D3371058105910509F44BC081
:104D10006E3771058105910509F445C06A32710548
:104D20008105910549F507FF10C082EB9BE10E3F1D
:104D300011F08EEA9BE1412F012E000C550B65E628
:104D40007CE10E941A26181B5EC065E470E080E0DA
:104D500090E00E941626115041F510E0812F0F902F
:104D60000F900F900F90DF91CF911F910F91FF90B7
:104D7000EF90DF90CF900895643271058105910521
:104D800071F4C114D10459F0412F012E000C550BC0
:104D900065E67CE1C6010E941A26181B9ECF0E9480
:104DA000162611509ACF07FDC0CF61E089819A8104
:104DB000AB81BC81CD97A105B10509F460E0600F1E
:104DC0006A30ACF01150862F6AE00F94311E092F23
:104DD000682F880F770B605D7F4F072E000C880BC4
:104DE000990B0E941626112309F4B7CF602F062EC7
:104DF000000C770B605D7F4F072E000C880B990B22
:104E00000E9416261150112309F4A7CF412F012E1D
:104E1000000C550B65E67CE1C7010E941A26181BA1
:104E20009DCF4FEF5FEF68E67CE10C941A264FEFC1
:104E30005FEF65E67CE10C941A26643008F063E0CD
:104E40009091F10F691710F06FEF690FE62FF0E006
:104E5000E252F04F9489890F80680C94ECEE2F9207
:104E60003F924F925F926F927F928F929F92AF92FA
:104E7000BF92CF92DF92EF92FF920F931F93CF9347
:104E8000DF9300D0CDB7DEB74C013B015A01222E93
:104E90003B8328014091F8075091F9076091FA0788
:104EA0007091FB07411551056105710579F081E0AD
:104EB000141615060CF080E080937E041092F8071B
:104EC0001092F9071092FA071092FB0710917E04D6
:104ED0003090DA071092DA07311005C080914A024B
:104EE000882309F4A5C0C2010E942925082F80E06B
:104EF000C114D10419F0C6010E9429251A82198211
:104F0000E114F104B1F4402F50E0282F30E0CA0141
:104F1000820F931F45976CF484E190E0841B950BFE
:104F2000821B930B97FD0196959587958A8381E067
:104F3000898301E025E63CE1A201BE016F5F7F4F5E
:104F4000CE0102960E9418C5E114F10491F08A8105
:104F5000882321F01A8289818F5F898300E028E607
:104F60003CE1A701BE016F5F7F4FCE0102960E9418
:104F700018C5C114D10459F000E025E63CE1A601B2
:104F8000BE016F5F7F4FCE0102960E9418C563E09D
:104F900080E00E941D276BE570E080E090E0112327
:104FA00021F060E270E080E090E00E941626C301EC
:104FB0000E9417276DE570E080E090E0112321F05A
:104FC00060E270E080E090E00E941626C4010E943A
:104FD000292563E092E1981B892F0E941D2760E23A
:104FE00070E080E090E0112321F06BE570E080E05C
:104FF00090E00E941626C4010E94172760E270E02C
:1050000080E090E0112321F06DE570E080E090E019
:105010000E941626332049F0111102C0A22CBB8039
:10502000A114B104D9F0F501199581E080938604AB
:105030000F900F900F90DF91CF911F910F91FF90E4
:10504000EF90DF90CF90BF90AF909F908F907F9028
:105050006F905F904F903F902F9008950E94EE25A3
:10506000E4CFCF92DF92EF92FF9269017A010E9422
:105070001D27C701B601FF90EF90DF90CF900C94F1
:105080001626CF92DF92FF920F931F93CF93DF9359
:105090008C01EB01C0900A08D0900B08F090090831
:1050A00061E080E00E941D2723E1A6016F2DC80169
:1050B0000E945D26182F209711F16AE370E080E0CE
:1050C00090E00E941626CE010E944B258F5F115062
:1050D00061E0181708F462E020E230E040E050E0C0
:1050E00094E1981B892F0E943128CE01DF91CF9146
:1050F0001F910F91FF90DF90CF900C941127DF91BB
:10510000CF911F910F91FF90DF90CF9008950F9353
:105110001F93CF93DF93FC01EB018091F8079091EF
:10512000F907A091FA07B091FB07B7FF08C01092EA
:10513000F8071092F9071092FA071092FB07809176
:10514000FC079091FD07A091FE07B091FF074091E9
:10515000F8075091F9076091FA077091FB078417DF
:105160009507A607B70744F48093F8079093F907CB
:10517000A093FA07B093FB0780914A028823E1F0DD
:105180006091F8077091F9078091FA079091FB07F9
:105190000091000810910108209102083091030845
:1051A000600F711F821F931F1995BC018091060823
:1051B000909107080E9441288091DA07811108C068
:1051C0008091F5078823D1F180914A028823B1F1BB
:1051D00080910408909105080097B1F04091F8077C
:1051E0005091F9076091FA077091FB070091000850
:1051F000109101082091020830910308400F511FBF
:10520000621F731FFE011995E091F607F091F707F1
:10521000309741F08091F507811103C08091DA0742
:10522000811119958091DA071092DA07882331F0FD
:10523000DF91CF911F910F910C94EE25DF91CF91CB
:105240001F910F910895CF92DF92EF92FF920F93EB
:105250001F93CF93DF93C82ED62E7A01E9012097B2
:1052600009F467C0C901002381F10E942925182F84
:105270002EE330E040E050E0C11004C020E230E016
:1052800040E050E06D2D80E00E94312822E1211B9A
:1052900040910A0850910B0860910908C7010E94CB
:1052A0005D26F82E112309F448C06AE370E080E01F
:1052B00090E00E941626FF2059F060E270E080E046
:1052C00090E00E941626FA94F6CF0E944B25CFCF8D
:1052D000CE01002351F0DF91CF911F910F91FF90EC
:1052E000EF90DF90CF900C941727DF91CF911F9113
:1052F0000F91FF90EF90DF90CF900C9411272EE349
:1053000030E040E050E06D2D80E00E943128409177
:105310000A0850910B0822E160910908C701DF914A
:10532000CF911F910F91FF90EF90DF90CF900C9451
:105330005D268111E4CF10E0A1CFDF91CF911F91C5
:105340000F91FF90EF90DF90CF9008950F93CF9340
:10535000DF93EA01811101C020E2022E000C330B21
:10536000440B550B80E00E94312840910A0850916F
:105370000B0822E160910908CE010E945D26C82F2A
:10538000CC2341F060E270E080E090E00E941626BD
:10539000C150F6CF602F000F770B880B990BDF9170
:1053A000CF910F910C9416260F931F93CF93DF93F9
:1053B0000E94E1E9D091F107C0E0D1112DC08091A8
:1053C000F3078823C1F080914A02882361F081E0CD
:1053D0009091F307911180E003E023E04FEC5CE152
:1053E0006C2F0E94A629DF5FCF5FC43031F785E0C4
:1053F0008093F2070CC08091DA071092DA078823B5
:1054000011F30E94EE25809108088823E1F2DF91D4
:10541000CF911F910F910895D130B1F58091F3078D
:105420008130E9F080914A028823E9F211E080910D
:10543000F307813009F010E06091530E7091540E23
:105440008091550E9091560E0E941D2100E09C0106
:1054500044EC5CE16C2F812F0E942329C4CF809102
:10546000DA071092DA078823E9F20E9468EB4DED23
:105470005CE163E57EE084EC9CE10E94F4EB8091CA
:105480000808882379F2C3CFD23009F07BC080911D
:10549000F3078230D1F080914A02882309F4A3CF28
:1054A00011E08091F307823009F010E06091570E0F
:1054B0007091580E8091590E90915A0E0E941D21A4
:1054C00000E09C0149EB5CE1C5CF8091DA071092C6
:1054D000DA07882301F30E9468EB4BED5CE167E596
:1054E0007EE089EB9CE10E94F4EB80910808882320
:1054F00091F28DCF8091F3078330D1F080914A02F1
:10550000882309F470CF11E08091F307833009F00C
:1055100010E060915B0E70915C0E80915D0E909139
:105520005E0E0E941D2100E09C014EEA5CE192CFDC
:105530008091DA071092DA07882301F30E9468EB62
:1055400049ED5CE16BE57EE08EEA9CE10E94F4EBC4
:1055500080910808882391F25ACF8091DA0710923F
:10556000DA078823C9F00E9468EB47ED5CE16FE53C
:105570007EE083EA9CE10E94F4EB80910808882396
:1055800059F045CFD33009F4B5CFD43009F02BCF43
:105590008091F307843009F380914A02882309F44B
:1055A00022CF11E08091F307843009F010E0609180
:1055B0005F0E7091600E8091610E9091620E0E945C
:1055C0001D2100E09C0143EA5CE144CF8F929F9251
:1055D000AF92BF92CF92DF92EF92FF920F931F9301
:1055E000CF93DF930E94E1E9D091F107C0E0D111A0
:1055F00034C08091F3078823B9F080914A02882350
:1056000061F081E09091F307911180E003E023E0E5
:105610004FEC5CE16C2F0E94A629DF5FCF5FC430A6
:1056200031F7C093F2070CC08091DA071092DA07C5
:10563000882319F30E94EE25809108088823E9F257
:10564000DF91CF911F910F91FF90EF90DF90CF905E
:10565000BF90AF909F908F900895D13009F05FC0B8
:105660008091F3078130E9F080914A028823A9F202
:1056700011E08091F307813009F010E060910E088D
:1056800070910F0880911008909111080E949C2041
:1056900000E09C0144E95CE16C2F812F0E942329EA
:1056A000BCCF8091DA071092DA078823E9F220E074
:1056B00030E040E251E460910E0870910F08809153
:1056C0001008909111080F94D11420E030E0A90146
:1056D0000F94131B20E030E848EE54E40F94131BA2
:1056E0000F94861C912C812C41E5A42E44E8B42E05
:1056F0006B0118E8E12E1EE0F12E00E010E02CEB2B
:1057000038EF4FEF5FEF6EE078E084E99CE10E94B4
:105710006FE980910808882309F4A6CF91CFD23091
:1057200009F09AC08091F3078230D1F080914A024B
:10573000882309F472CF11E08091F307823009F0D9
:1057400010E06091120870911308809114089091F4
:1057500015080E949C2000E09C0145E85CE19CCF7C
:105760008091DA071092DA07882301F320E030E015
:1057700040E251E46091120870911308809114087E
:10578000909115080F94D11420E030E0A9010F94F6
:10579000131B20E030EC40ED54E40F94131B0F94E6
:1057A000861C912C812C21E5A22E24E8B22E6B01BF
:1057B0001CE0E12E1DE0F12E00E010E02AE739EFB9
:1057C0004FEF5FEF62E178E085E89CE10E946FE9CE
:1057D00080910808882309F4A9CF32CF8091DA0795
:1057E0001092DA07882309F43FC020E030E048EC4B
:1057F00052E46091160870911708809118089091F2
:1058000019080F94D11420E030E0A9010F94131B64
:1058100020E030E04AEF54E40F94131B0F94861CF1
:10582000912C812C85E4A82E84E8B82E6B0110EA17
:10583000E12E1FE0F12E00E010E020E338EF4FEF03
:105840005FEF66E178E086E79CE10E946FE9809176
:105850000808882349F0F4CED33009F0DECE8091D9
:10586000F307833009F4BACF80914A02882309F400
:10587000D4CE11E08091F307833009F010E06091FD
:1058800016087091170880911808909119080E94C5
:10589000182200E09C0146E75CE1FECE8F929F92C9
:1058A000AF92BF92CF92DF92EF92FF920F931F932E
:1058B000CF93DF930E94E1E9D091F107C0E0D111CD
:1058C00035C08091F3078823C1F080914A02882374
:1058D00061F081E09091F307911180E003E023E013
:1058E0004FEC5CE16C2F0E94A629DF5FCF5FC430D4
:1058F00031F785E08093F2070CC08091DA071092AF
:10590000DA07882311F30E94EE2580910808882386
:10591000E1F2DF91CF911F910F91FF90EF90DF9017
:10592000CF90BF90AF909F908F900895D130E9F5C0
:105930008091F3078130E9F080914A028823A9F22F
:1059400011E08091F307813009F010E06091520876
:105950007091530880915408909155080E946323D8
:1059600000E09C014EE65CE16C2F812F0E94232910
:10597000BCCF8091DA071092DA078823E9F20E94FF
:1059800068EBE12C10E8F12E07E714E420E030E0AA
:1059900040E85FE362E578E08EE69CE10E94CCEAB5
:1059A00080910808882341F2B4CFD23009F0D8C0E2
:1059B0008091F3078230D1F080914A02882309F464
:1059C00094CF11E08091F307823009F010E06091EC
:1059D00056087091570880915808909159080E9474
:1059E000632300E09C0146E65CE1BECF8091DA07CC
:1059F0001092DA07882301F30E9468EBE12C10E88B
:105A0000F12E07E714E420E030E040E85FE366E5CC
:105A100078E086E69CE10E94CCEA80910808882321
:105A200059F277CF8091F3078330D1F080914A0209
:105A3000882309F45ACF11E08091F307833009F0ED
:105A400010E060915A0870915B0880915C08909119
:105A50005D080E94E61F00E09C014EE55CE184CFFA
:105A60008091DA071092DA07882301F30E9468EB2D
:105A700020E030E048EC52E460915A0870915B08F5
:105A800080915C0890915D080F94D11420E030E083
:105A9000A9010F94131B20E030E040E251E40F9481
:105AA000121B0F94861C912C812C27E5A22E24E832
:105AB000B22E6B011EEAE12E12E8F12E01E010E099
:105AC0002AE030E040E050E06AE578E08EE59CE1D5
:105AD0000E946FE980910808882309F4A7CF19CFA5
