:100000000C94521D0C94831D0C94831D0C94831D21
:100010000C94831D0C94831D0C94831D0C94831DE0
:100020000C94831D0C94831D0C94831D0C94831DD0
:100030000C94831D0C9433F00C94831D0C94831D3D
:100040000C94831D0C94EF8C0C94831D0C94831DD5
:100050000C94831D0C94831D0C9472870C9431F4C2
:100060000C94831D0C94FC630C94F2630C94831D1C
:100070000C94831D0C94831D0C94831D0C94831D80
:100080000C94123D0C94831D0C94831D0C94831DC1
:100090000C94831D0C94831D0C94831D0C94831D60
:1000A0000C94831D0C94831D0C94E43C0C94831DD0
:1000B0000C94831D0C94831D0C94831D0C94831D40
:1000C0000C94831D0C94831D0C94831D0C94831D30
:1000D0000C94831D0C94831D0C94831D0C94831D20
:1000E0000C94831D084AD73B3BCE016E84BCBFFDF8
:1000F000C12F3D6C74319ABD56833DDA3D00C77FF8
:1001000011BED9E4BB4C3E916BAAAABE0000008090
:100110003F05A84CCDB2D44EB93836A9020C50B91F
:10012000918688083CA6AAAA2ABE000000803F004B
:100130000C94684E0C94F6EF0C94E72E0C94898185
:100140000C94FF1D0C944FBA0C94987F0C942C8443
:100150000C94071E0C947A3A0C94011E0C945DD4F6
:100160000C94454E0C9440840C940E870C9429F00A
:100170000C940D820C947D810C9468280C9411F0E1
:100180000C9439810C94F91D0C947F7F0C94088495
:100190000C94C9870C944B7E0C942FC10C94AE86A2
:1001A0000C94851D0C94F2EF0C94B17F0C94CF81CC
:1001B0000C94F94D0C9407F00C942A2A0C947C4E64
:1001C0000C943B4E0C9402840C94327E0C940C7F65
:1001D0000C94544E0C94957D0C9415F00C94D7EF20
:1001E0000C94F0830C946C7E0C94864E0C941484C6
:1001F0000C94314E0C94A9860C944B870C94EE8190
:100200000C944A840C94A4860C942FA50C94B6CF1D
:100210000C9420840C94FB1D0C94257F0C94B57FCA
:100220000C948FAB0C9406870C94BD7E0C94B6C2D4
:100230000C941FF00C94724E0C94034E0D94F50F19
:100240000C94EBD30C9463870C94AF7B0C9441819A
:100250000C942D870C942DF00C940DF00C9421C56A
:100260000C944F840C94407F0C94B37F0C940E84B8
:100270000C94B87D0C944CBC0C94F37E0C94CB7D08
:100280000C9466820C9412F20C94CD8D0C94F44D67
:100290000C941BF00C941F4E0C945C820C9423F075
:1002A0000C941A840C943C870C941D260C94F7B182
:1002B0000C94051E0C94FDEF0C94B0810C944BBA79
:1002C0000C945ED40C9445840C94FC830C94DCEF69
:1002D0000C9487AC0C94537F0C940BD40C94DCD30B
:1002E0000C94D42B0C9481C30C94A8320C944F30F2
:1002F0000C94FAEF0C943B840C9477810C94D87E88
:100300000C945E7E0C9461310C94BF330C945E822D
:100310000C94881D0C94267E0C94A27E0C94B386BB
:100320000C94AAD10C94EA830C945A870C942684DA
:100330000C94ADBF0C94174E0C94EEEF0C9483818B
:100340000C94EF4D0C94B3800C94D47D0C94FD1D53
:100350000C94D48D0C94667F0C945E4E0C94274EB6
:100360000C94F6830C948F810C940D4E0C941CBC51
:100370000C94A3B00C9403F00C94031E0C94B2CF15
:100380000C94137E0C94F71D0C94877E0D94C70774
:100390000C94CBD34E414E494E495459494E46CD0B
:1003A000CCCC3D0AD7233C17B7D13877CC2B32952C
:1003B00095E6241FB14F0A000020410000C842000A
:1003C000401C4620BCBE4CCA1B0E5AAEC59D7400D4
:1003D000407A10F35A00A0724E18090010A5D4E814
:1003E0000000E87648170000E40B54020000CA9AA7
:1003F0003B000000E1F505000080969800000040F9
:10040000420F000000A0860100000010270000003D
:1004100000E803000000006400000000000A000083
:100420000000000100000000002C76D888DC674F37
:100430000823DFC1DFAE59E1B1B796E5E3E453C667
:100440003AE651997696E8E6C28426EB898C9B625F
:10045000ED407C6FFCEFBC9C9F40F2BAA56FA5F409
:1004600090055A2AF75C936B6CF9676DC11BFCE031
:10047000E40D47FEF520E6B500D0ED902E03009484
:100480003577050080841E080000204E0A00000019
:10049000C80C333333330F986E12831141EF8D2123
:1004A00014893BE65516CFFEE6DB18D1844B381B8A
:1004B000F77C1D901DA4BBE424203284725E22814F
:1004C00000C9F124ECA1E53D27434F4D4D554E4960
:1004D000434154494F4E0044525952554E004552E3
:1004E000524F525300494E464F004543484F004536
:1004F00072726F722077726974696E6720746F20F0
:10050000454550524F4D210A002121204B494C4C6A
:100510002063617573656420627920746F6F206D4C
:1005200075636820696E6163746976652074696DAE
:1005300065202D2063757272656E7420636F6D6D1A
:10054000616E643A20004D343130004D313132005B
:100550004D3130380053544F505045442E200050F8
:1005600072696E7465722073746F70706564206454
:10057000756520746F206572726F72732E204669E4
:100580007820746865206572726F7220616E6420D5
:10059000757365204D39393920746F207265737415
:1005A0006172742E202854656D7065726174757265
:1005B000652069732072657365742E2053657420FD
:1005C00069742061667465722072657374617274F7
:1005D000696E67290A004E6F20436865636B737507
:1005E0006D2077697468206C696E65206E756D6228
:1005F00065722C204C617374204C696E653A200042
:100600004E6F20436865636B73756D2077697468FE
:10061000206C696E65206E756D6265722C204C6170
:100620007374204C696E653A2000636865636B7370
:10063000756D206D69736D617463682C204C6173F6
:1006400074204C696E653A20004C696E65204E75C9
:100650006D626572206973206E6F74204C617374D3
:10066000204C696E65204E756D6265722B312C20B1
:100670004C617374204C696E653A20004D31313005
:100680000053442072656164206572726F720A00C3
:10069000627573793A2070617573656420666F7254
:1006A00020696E7075740A00627573793A20706102
:1006B0007573656420666F7220757365720A0062D7
:1006C0007573793A2070726F63657373696E670A28
:1006D000004D656469612052656D6F766564004DFB
:1006E0006564696120496E73657274656400506C5D
:1006F00065617365205265736574005052494E54AC
:1007000045522048414C5445440025533A20255336
:10071000004B494C4C45442E20005072696E746564
:10072000722068616C7465642E206B696C6C28297A
:100730002063616C6C6564210A0053544F5050452E
:10074000442E20005072696E7465722073746F704D
:100750007065642064756520746F206572726F72B5
:10076000732E2046697820746865206572726F72F6
:1007700020616E6420757365204D39393920746F9E
:1007800020726573746172742E202854656D7065D3
:100790007261747572652069732072657365742E59
:1007A00020536574206974206166746572207265D7
:1007B0007374617274696E67290A006563686F3AC1
:1007C000004572726F723A0021212053544F50201D
:1007D00063616C6C65642062656361757365206F2D
:1007E0006620424C546F756368206572726F722088
:1007F0002D20726573746172742077697468204D5E
:100800003939390A0021212053544F502063616C3B
:100810006C65642062656361757365206F66204254
:100820004C546F756368206572726F72202D207250
:100830006573746172742077697468204D39393931
:100840000A000A0A426564204C6576656C20436F95
:100850007272656374696F6E204D61747269783A63
:10086000000A436F72726563746564204265642098
:100870004865696768742076732E20426564205449
:100880006F706F6C6F67793A0A000A42656420489E
:10089000656967687420546F706F677261706879FA
:1008A0003A0A2020202B2D2D2D204241434B202D74
:1008B0002D2B0A2020207C202020202020202020DA
:1008C00020207C0A204C207C20202020282B29203E
:1008D0002020207C20520A2045207C20202020201F
:1008E0002020202020207C20490A2046207C20280F
:1008F0002D29204E20282B29207C20470A205420F7
:100900007C20202020202020202020207C20480A1D
:100910002020207C20202020282D29202020207C01
:1009200020540A2020207C2020202020202020204D
:1009300020207C0A2020204F2D2D2046524F4E543F
:10094000202D2D2B0A2028302C30290A000A4D6535
:10095000616E206F662073616D706C656420706FCE
:10096000696E74733A200020643A200020623A20B5
:100970000045716E20636F656666696369656E74B4
:10098000733A20613A200050726F62696E6720509E
:100990006F696E740025532025692F2569002E0A82
:1009A000002F0050726F62696E67206D657368205A
:1009B000706F696E742000202844525952554E2998
:1009C00000473239204175746F20426564204C65C0
:1009D00076656C696E67003F20284C2C522C462CA3
:1009E0004229206F7574206F6620626F756E647384
:1009F0002E0A003F50726F626520706F696E7473CB
:100A00002028592920696D706C61757369626C6565
:100A10002028322D33292E0A003F50726F62652044
:100A2000706F696E74732028582920696D706C612D
:100A3000757369626C652028322D33292E0A003FB8
:100A40002856296572626F7365206C6576656C2027
:100A5000696D706C61757369626C652028302D3426
:100A6000292E0A00446576696174696F6E0025530A
:100A70003A2025730046696E6973686564210A002F
:100A80003A207A3A2000206F662000476F696E672F
:100A900020746F3A20580043570A00206469723A64
:100AA0000020616E676C653A005374617274207245
:100AB00061646975733A004D343820506F696E7403
:100AC0000025533A2025642F256400506F73697404
:100AD000696F6E696E67207468652070726F6265F9
:100AE0002E2E2E0A003F4C656773206F66206D6FB7
:100AF00076656D656E7420696D706C617573696281
:100B00006C652028302D3135292E0A003F202858C9
:100B10002C5929206F7574206F6620626F756E6482
:100B2000732E0A0050726F6265206F7574206F66B5
:100B300020626F756E6473003F53616D706C652049
:100B400073697A65206E6F7420706C617573696269
:100B50006C652028342D3530292E0A004D3438207C
:100B60005A2D50726F6265205265706561746162C2
:100B7000696C69747920546573740A003F2856299A
:100B80006572626F7365206C6576656C20696D7047
:100B90006C61757369626C652028302D34292E0ACA
:100BA000005374616E646172642044657669617497
:100BB000696F6E3A20002052616E67653A2000200E
:100BC0004D61783A2000204D696E3A20002053692B
:100BD000676D613A20004D65616E3A200020496ED4
:100BE00076616C6964206578747275646572200042
:100BF00020746F6F206C6F6E6720657874727573E8
:100C0000696F6E2070726576656E7465640A002087
:100C1000636F6C6420657874727573696F6E207091
:100C2000726576656E7465640A00536C6565702E36
:100C30002E2E005A2050726F62652050617374200E
:100C40004265640A005A2050726F626520506173D9
:100C5000742042656400205A3A200020593A20004E
:100C600042656420583A2000436C69636B20746FBE
:100C700020526573756D652E2E2E004E6F204D6FC0
:100C800076652E00456E642066696C65206C69731C
:100C9000740A00426567696E2066696C65206C693C
:100CA00073740A004E6F206D656469610A00286ED6
:100CB0006F2066696C65290043757272656E7420D9
:100CC00066696C653A20005344207072696E7469DD
:100CD0006E67206279746520004E6F742053442043
:100CE0007072696E74696E670A002E0A0044656C42
:100CF0006574696F6E206661696C65642C20466955
:100D00006C653A200046696C652064656C657465A5
:100D1000643A002569730025696D202569730025F3
:100D200069682025696D202569730025696420257F
:100D300069682025696D202569730025697920255A
:100D40006964202569682025696D20256973005034
:100D500072696E742074696D653A20006F6B006F64
:100D6000666600EA04E504DE04D704C9044445428B
:100D700055473A004D3131322053687574646F77AE
:100D80006E004D31313320530020573A00426564E4
:100D900020436F6F6C696E672E2E2E0042656420B3
:100DA00048656174696E672E2E2E0047656565740F
:100DB0006563682069332050726F2042204F464699
:100DC0002E004348414D4245525F54454D504552D7
:100DD000415455524500424142595354455050499F
:100DE0004E470041524353004D4F54494F4E5F4DC3
:100DF0004F44455300544845524D414C5F50524F6B
:100E000054454354494F4E004C4F4E475F46494C62
:100E1000454E414D45004155544F5245504F525457
:100E20005F53445F5354415455530053444341521C
:100E3000440050524F4D50545F535550504F5254F0
:100E400000454D455247454E43595F504152534529
:100E50005200434153455F4C494748545F42524911
:100E60004748544E45535300544F47474C455F4CF9
:100E7000494748545300534F4654574152455F50D9
:100E80004F574552004255494C445F5045524345E7
:100E90004E54004C4556454C494E475F44415441E1
:100EA000005A5F50524F42450052554E4F55540024
:100EB0004155544F4C4556454C005052494E545F95
:100EC0004A4F420050524F475245535300415554E8
:100ED0004F5245504F52545F54454D5000564F4C61
:100EE000554D455452494300454550524F4D0042DF
:100EF000494E4152595F46494C455F5452414E5309
:100F00004645520053455249414C5F584F4E5F5839
:100F10004F4646004649524D574152455F4E414D5E
:100F2000453A4D61726C696E20322E302E372E326A
:100F300020284A616E202034203230323120313175
:100F40003A32313A30312920534F555243455F43AD
:100F50004F44455F55524C3A68747470733A2F2F62
:100F60006769746875622E636F6D2F4D61726C696D
:100F70006E4669726D776172652F4D61726C696E34
:100F80002050524F544F434F4C5F56455253494F98
:100F90004E3A312E30204D414348494E455F545919
:100FA00050453A476565657465636820693320502C
:100FB000726F20422045585452554445525F434F6A
:100FC000554E543A3120555549443A63656465326B
:100FD0006132662D343161322D343734382D396227
:100FE00031322D6335356336326633363766660AFD
:100FF000002F2F20004D31343520533C696E64653D
:10100000783E206F7574206F662072616E67652070
:1010100028302D31290A00205200416363656C6538
:10102000726174696F6E3A2050003F4A206F757488
:10103000206F662072616E67652028302E30312067
:10104000746F20302E33290A0020580020204D6173
:10105000783A2000200020204D696E3A2000536F1E
:10106000667420656E6473746F70733A2000465224
:101070003A0020466C6F773A20003A2000205365F2
:1010800072766F2000206F7574206F662072616E1B
:1010900067650A00536572766F200020643A00206D
:1010A000693A0020703A00496E76616C6964206587
:1010B000787472756465720A0064697300656E0005
:1010C00043290A0061626C656420286D696E207492
:1010D000656D702000436F6C642065787472756470
:1010E00065732061726520004F4646004F4E0042F6
:1010F0006564204C6576656C696E672000466169A1
:101100006C656420746F20656E61626C6520426559
:1011100064204C6576656C696E670A0042656420E0
:101120004C6576656C20436F7272656374696F6E8F
:10113000204D61747269783A004F66667365747306
:10114000204170706C696564004572723A20546F7A
:101150006F206661722100546F6F20666172206695
:10116000726F6D207265666572656E636520706F63
:10117000696E740A00454550524F4D204F4B0A008E
:10118000290A0020746F20003F5A206F7574206F69
:10119000662072616E6765202800290A0020746F3E
:1011A00020003F59206F7574206F662072616E6752
:1011B0006520282D00290A0020746F20003F582048
:1011C0006F7574206F662072616E676520282D0030
:1011D00050726F6265204F666673657420580020F8
:1011E00058593A2000536B657720466163746F72DB
:1011F000006D696E5F736B65775F666163746F72B4
:101200003A20202D31206D61785F736B65775F66C2
:101210006163746F723A2020310A004D3834004403
:101220006F6E65207072696E74696E672066696C96
:10123000650A004D3737004D333100496E76616CD9
:1012400069642065787472756465720A0043617020
:101250003A0047322F473320626164207061726127
:101260006D65746572730A00220A00656E7175659A
:101270007565696E672022006F6B00526573656E3D
:10128000643A200020573A00436F6F6C696E672EF6
:101290002E2E0048656174696E672E2E2E00452043
:1012A00025530023646566696E65204445464155B3
:1012B0004C545F004B6420004B6920004B702000B1
:1012C000504944204175746F74756E652066696E6F
:1012D0006973686564212050757420746865206C9A
:1012E000617374204B702C204B6920616E64204B1D
:1012F0006420636F6E7374616E74732066726F6DB9
:101300002062656C6F7720696E746F20436F6E6624
:10131000696775726174696F6E2E680A005049447E
:10132000204175746F74756E65206661696C6564C3
:10133000212074696D656F75740A0050494420411D
:1013400075746F74756E65206661696C65642120C3
:1013500054656D706572617475726520746F6F206D
:10136000686967680A00204B643A2000204B693A9C
:101370002000204B703A20000A20436C617373698F
:101380006320504944200A002054753A2000204B25
:10139000753A2000206D61783A2000206D696E3A20
:1013A000200020643A200020626961733A200050D6
:1013B0004944204175746F74756E65207374617251
:1013C000740A00504944204175746F74756E65202D
:1013D0006661696C6564212054656D706572617425
:1013E00075726520746F6F20686967680A005049DC
:1013F00044204175746F74756E65005049442041F6
:1014000075746F74756E65206661696C6564212002
:10141000426164206578747275646572206E756DC2
:101420006265720A00A10000006900A2000000636A
:1014300000B00000000900C10000004100C200002F
:10144000004100C30000004100C40000004100C58D
:101450000000004100C60000004145C700000043F5
:1014600000C80000004500C90000004500CD000094
:10147000004900D10000004E00D50000004F00D60A
:101480000000004F00D70000007800DC000000558D
:1014900000DD0000005900E00000006100E10000F4
:1014A000006100E20000006100E30000006100E470
:1014B0000000006100E50000006100E6000000613E
:1014C00065E70000006300E80000006500E9000037
:1014D000006500EA0000006500EB0000006500EC1C
:1014E0000000006900ED0000006900EE00000069E6
:1014F00000EF0000006900F10000006E00F2000043
:10150000006F00F30000006F00F40000006F00F5B2
:101510000000006F00F60000006F00F80000006F90
:1015200000F90000007500FA0000007500FB0000E3
:10153000007500FC0000007500FD0000007900FF50
:101540000000007900040100004100050100006175
:10155000000601000043000701000063000C0100C9
:101560000043000D01000063000E01000044000F65
:101570000100006400110100006400190100006511
:10158000001A01000045001B01000065001F01005A
:10159000006700300100004900310100006900418E
:1015A0000100004C00420100006C00430100004EAD
:1015B00000440100006E00480100006E0058010068
:1015C0000052005901000072005A01000053005BF4
:1015D00001000073005F0100007300600100005310
:1015E000006101000073006501000074006F0100DC
:1015F0000075007C0100007A007D0100005A007E29
:101600000100007A00920100006600E30200007809
:1016100000222000002E001E210000507822210010
:1016200000544D902100003C2D922100002D3EB031
:101630002100000300BB21000004003C2200007ECA
:1016400000482200007E3D60220000213D61220012
:10165000003D00642200003C3D652200003E3DF15B
:101660002300000700A03000003D0021F30100022C
:1016700000C2F401000500A2000000EC00B0000070
:1016800000DF00E4000000E100F6000000EF00F7DA
:10169000000000FD00FC000000F500E3020000EB8C
:1016A0000087030000A5008F030000F400980300EA
:1016B00000F2009E030000E300A3030000F600A96F
:1016C000030000F400AC030000E000AD030000E301
:1016D00000B1030000E000B2030000E200B5030027
:1016E00000E300B8030000F200BC030000E400BE09
:1016F000030000E300C0030000F700C1030000E6A0
:1017000000C3030000E500902100007F009221004B
:10171000007E001A220000E8001E220000F300886C
:10172000250000FF0002300000A1000C300000A2E4
:10173000000D300000A3009B300000DE009C300054
:1017400000DF00A03000003D00A1300000A700A293
:10175000300000B100A3300000A800A4300000B2A7
:1017600000A5300000A900A6300000B300A730009B
:1017700000AA00A8300000B400A9300000AB00AA05
:10178000300000B500AB300000B600AC300000B651
:10179000DEAD300000B700AE300000B7DEAF300085
:1017A00000B800B0300000B8DEB1300000B900B2BF
:1017B000300000B9DEB3300000BA00B4300000BA27
:1017C000DEB5300000BB00B6300000BBDEB7300035
:1017D00000BC00B8300000BCDEB9300000BD00BA6B
:1017E000300000BDDEBB300000BE00BC300000BEDB
:1017F000DEBD300000BF00BE300000BFDEBF3000E5
:1018000000C000C0300000C0DEC1300000C100C216
:10181000300000C1DEC3300000AF00C4300000C2A1
:1018200000C5300000C2DEC6300000C300C7300073
:1018300000C3DEC8300000C400C9300000C4DECAE6
:10184000300000C500CB300000C600CC300000C71F
:1018500000CD300000C800CE300000C900CF3000FD
:1018600000CA00D0300000CADED1300000CADFD28A
:10187000300000CB00D3300000CBDED4300000CBF2
:10188000DFD5300000CC00D6300000CCDED73000F1
:1018900000CCDFD8300000CD00D9300000CDDEDA3A
:1018A000300000CDDFDB300000CE00DC300000CEA9
:1018B000DEDD300000CEDFDE300000CF00DF3000A4
:1018C00000D000E0300000D100E1300000D200E2A2
:1018D000300000D300E3300000AC00E4300000D45E
:1018E00000E5300000AD00E6300000D500E7300034
:1018F00000AE00E8300000D600E9300000D700EA72
:10190000300000D800EB300000D900EC300000DAE5
:1019100000ED300000DB00EF300000DC00F23000B2
:1019200000A600F3300000DD00F4300000B3DEF765
:10193000300000DCDEFA300000A6DEFB300000A53F
:1019400000FC300000B000FD300000A400074E0095
:1019500000FB0086510000FC0043530000FA0064C5
:10196000FF0000A40065FF0000A50066FF0000A6C0
:101970000067FF0000A70068FF0000A80069FF00E3
:1019800000A9006AFF0000AA006BFF0000AB006C1A
:10199000FF0000AC006DFF0000AD006EFF0000AE68
:1019A000006FFF0000AF0070FF0000B00071FF008B
:1019B00000B10072FF0000B20073FF0000B30074BA
:1019C000FF0000B40075FF0000B50076FF0000B610
:1019D0000077FF0000B70078FF0000B80079FF0033
:1019E00000B9007AFF0000BA007BFF0000BB007C5A
:1019F000FF0000BC007DFF0000BD007EFF0000BEB8
:101A0000007FFF0000BF0080FF0000C00081FF00DA
:101A100000C10082FF0000C20083FF0000C30084F9
:101A2000FF0000C40085FF0000C50086FF0000C65F
:101A30000087FF0000C70088FF0000C80089FF0082
:101A400000C9008AFF0000CA008BFF0000CB008C99
:101A5000FF0000CC008DFF0000CD008EFF0000CE07
:101A6000008FFF0000CF0090FF0000D00091FF002A
:101A700000D10092FF0000D20093FF0000D3009439
:101A8000FF0000D40095FF0000D50096FF0000D6AF
:101A90000097FF0000D70098FF0000D80099FF00D2
:101AA00000D9009AFF0000DA009BFF0000DB009CD9
:101AB000FF0000DC009DFF0000DD009EFF0000DE57
:101AC000009FFF0000DF00E5FF00005C0000000059
:101AD00000010204040000001C1C0C0404040201A8
:101AE000000000000004081000000000002D2D2D53
:101AF0002D2D2D007C4D61726C696E7C002D2D2D7D
:101B00002D2D2D00001C1F11111F0000000619189B
:101B100003130C00040E1F041C000000000E13151C
:101B2000110E00001C10181705060500040A0A0A09
:101B30000A11110E0C12120C00000000001F1511EA
:101B4000151F000042656400456E636C6F7375720B
:101B5000650046696C2E204469612E004520696E3F
:101B6000206D6DC2B3002002204661637400200224
:101B7000204D6178002002204D696E004F6666009E
:101B80004F6E004175746F74656D700056547261CC
:101B900076204D696E00566D696E00566D61782035
:101BA0004500566D6178205A00566D6178205900C5
:101BB000566D6178205800416D6178204500416D77
:101BC0006178205A00416D6178205900416D61783B
:101BD000205800412D54726176656C00412D52658C
:101BE000747261637400416363656C0050726F626C
:101BF00065205A204F66667365740050726F626587
:101C00002059204F66667365740050726F626520BC
:101C100058204F6666736574004520737465707351
:101C20002F6D6D005A2053746570732F6D6D0059C0
:101C30002053746570732F6D6D0058205374657058
:101C4000732F6D6D00416476616E6365642053652A
:101C50007474696E6773003F0043616E63656C0066
:101C6000496E6974004D34323800496E6974696197
:101C70006C697A6520454550524F4D0046696C614C
:101C80006D656E740054656D706572617475726512
:101C90000053746570732F6D6D0050726F62652014
:101CA0004F666673657473004A756E6374696F6E10
:101CB0002044657600416363656C65726174696F89
:101CC0006E0056656C6F63697479005365742048C3
:101CD0006F6D65204F66667365747300436F6E6643
:101CE000696775726174696F6E00504554470050A2
:101CF0004C41003F004E65787420506F696E74004F
:101D0000446F6E65004E65787400486F6D696E674C
:101D10002058595A0053746F726520536574746962
:101D20006E6773004C6F61642053657474696E67ED
:101D300073004C6576656C20436F726E657273003C
:101D400050726F6265205A204F6666736574004F4B
:101D50006666004F6E00426564204C6576656C696E
:101D60006E67004C6576656C2042656400473238CA
:101D70000A47323900473239004175746F20486F85
:101D80006D65004D6F74696F6E0053746F7700441A
:101D900065706C6F790053656C662D5465737400C3
:101DA00052657365740053572D4D6F64650042652D
:101DB00064004E6F7A7A6C650046616E20537065E0
:101DC000656400436F6E66696775726174696F6EF2
:101DD00000526573746F72652044656661756C743A
:101DE00073004C6F61642053657474696E6773008F
:101DF00053746F72652053657474696E6773005015
:101E0000726568656174202420436F6E6600424CE1
:101E1000546F7563680050726F6265205A204F6678
:101E20006673657400416476616E63656420536512
:101E30007474696E6773004D61696E003F004261A2
:101E4000636B0053746F70005072696E7420667219
:101E50006F6D204D65646961004368616E67652040
:101E60004D65646961004D323100436F6E6669678C
:101E700075726174696F6E0054656D70657261741E
:101E8000757265004D6F74696F6E00526573756D84
:101E900065205072696E74004E6F204D65646961F3
:101EA0000054756E650053746F70205072696E74C3
:101EB000005061757365205072696E7400496E66DA
:101EC0006F2053637265656E003F005374617274D6
:101ED000205072696E740043616E63656C005072CD
:101EE000696E740043616E6E6F7420656E74657206
:101EF000207375626469723A2000052E2E004D61D0
:101F0000696E002100486F74656E6420746F6F20E5
:101F1000636F6C64004261636B0050726F63656550
:101F200064004D6F74696F6E0044697361626C6523
:101F3000205374657070657273004D3834004D34F1
:101F4000382050726F6265205465737400473238D0
:101F5000204F0A4D34382050313000426564204C07
:101F60006576656C696E6700486F6D65205A00473D
:101F700032385A00486F6D65205900473238590091
:101F8000486F6D6520580047323858004175746FAE
:101F900020486F6D6500473238004D61696E005012
:101FA000726568656174202420456E640050726516
:101FB000686561742024204265640054656D706515
:101FC00072617475726500EF1CEA1C436F6F6C647C
:101FD0006F776E00507265686561742024004661F9
:101FE0006E20537065656400426564004E6F7A7AB6
:101FF0006C65004D61696E00466C6F770046616EDE
:1020000020537065656400426564004E6F7A7A6C97
:1020100065005370656564004D61696E00256875E3
:102020003A25303268750025303268753A253032ED
:102030006875002D2D2D00534400202020202020E5
:10204000200020202020005072696E742041626FB1
:1020500072746564004D32350050617573696E6746
:102060002E2E2E00454550524F4D205665727369F5
:102070006F6E204572726F7200454550524F4D2071
:10208000496E646578204572726F72004545505202
:102090004F4D20435243204572726F72003F0049FA
:1020A000676E6F726500526573657400496E69747E
:1020B00069616C697A6520454550524F4D006F70DB
:1020C000656E00545249474745524544003A200046
:1020D0007A5F6D696E00795F6D696E00785F6D691A
:1020E0006E005265706F7274696E6720656E6473FE
:1020F000746F70207374617475730A00486F6D6536
:102100002025732573257320466972737400486F08
:102110006D696E67204661696C656400000020414E
:10212000000020C1000000000000484200004842BA
:10213000000080405761726E696E673A20486F6D8B
:10214000696E672042756D702044697669736F729D
:10215000203C20310A000202040000A0400000A040
:10216000400000004000003A4300003B43000039BB
:1021700043FFFFFF0000000100000001000080009D
:10218000555555000000400033333300AAAA2A00F9
:102190004992240000002000C7711C009999190081
:1021A000D1451700555515003BB1130024491200C5
:1021B00011111100000010000F0F0F00E3380E0086
:1021C00043790D00CCCC0C00C3300C00E8A20B000E
:1021D00064210B00AAAA0A00703D0A009DD80900DC
:1021E000427B090092240900DCD30800888808009B
:1021F0001042080000000800F0C1070087870700B0
:1022000075500700711C07003EEB0600A1BC0600DC
:102210006990060066660600703E060061180600BA
:1022200017F4050074D105005BB00500B2900500FD
:10223000627205005555050078390500B81E050085
:10224000050505004EEC040087D40400A1BD040080
:1022500090A7040049920400C17D0400EE690400C7
:10226000C7560400444404005C3204000821040002
:1022700041100400000004003FF00300F8E00300F8
:1022800026D20300C3C30300CCB503003AA8030061
:102290000A9B0300388E0300C08103009F75030072
:1022A000D0690300505E03001D530300344803004F
:1022B000913D03003333030016290300381F030048
:1022C00097150300300C0300030303000BFA020010
:1022D00049F10200BAE802005CE002002DD80200D9
:1022E0002DD0020059C80200B0C0020031B902006E
:1022F000DAB10200AAAA0200A0A30200BC9C02005C
:10230000FA9502005C8F0200DF88020082820200E0
:10231000457C02002776020027700200436A020013
:102320007C640200D05E02003F590200C8530200E4
:10233000FFFDFCFAF8F6F4F2F0EEECEAE9E7E5E38B
:10234000E1E0DEDCDAD9D7D5D4D2D0CFCDCBCAC844
:10235000C7C5C3C2C0BFBDBCBAB9B7B6B4B3B2B0CB
:10236000AFADACAAA9A8A6A5A4A2A1A09E9D9C9A27
:1023700099989795949392908F8E8D8B8A89888760
:102380008684838281807F7E7D7B7A79787776757B
:1023900074737271706F6E6D6C6B6A696867666575
:1023A00064636261605F5E5D5C5B5A595858575662
:1023B000555453525150504F4E4D4C4B4A4A494838
:1023C000474646454443424241403F3E3E3D3C3BFA
:1023D0003B3A3938383736353534333232313030AC
:1023E0002F2E2E2D2C2B2B2A292928272726252551
:1023F00024232322212120201F1E1E1D1C1C1B1BE9
:102400001A19191818171616151514131312121174
:1024100011100F0F0E0E0D0D0C0C0B0A0A090908F6
:10242000080707060605050404030302020100006D
:1024300000004443000031430000394300002041C4
:10244000000020C10000000053657474696E67735A
:102450002053746F72656400290A002062797465E4
:10246000733B20637263200053657474696E6773F5
:102470002053746F726564202800454550524F4DBB
:10248000206461746173697A65206572726F722E5F
:102490000A00290A002062797465733B2063726325
:1024A00020002073746F7265642073657474696EA4
:1024B00067732072657472696576656420280020F0
:1024C0002863616C63756C6174656429210A00205E
:1024D000213D2000454550524F4D20435243206D31
:1024E00069736D61746368202D202873746F726541
:1024F000642920002053697A653A2000496E64659A
:10250000783A200044494749504F5453204C6F615A
:102510006465640A0044494749504F5453204C6F46
:102520006164696E670A00204D61726C696E3D5688
:102530003832290A00454550524F4D207665727356
:10254000696F6E206D69736D6174636820284545FD
:1025500050524F4D3D0048617264636F6465642062
:1025600044656661756C742053657474696E677335
:10257000204C6F616465640A000000C8430000C815
:102580004300000040000034420000A3420000A3CA
:10259000425258C8430000D84288130000881300F4
:1025A0000032000000881300003B20003A0A00209F
:1025B000204D383532205300536B657720466163D8
:1025C000746F723A200020204D3835312058005A5F
:1025D0002D50726F6265204F6666736574002044EB
:1025E0000020490020204D33303120500050494414
:1025F0002073657474696E67733A00204600204248
:102600000020480020204D3134352053004D6174A6
:10261000657269616C2068656174757020706172A3
:10262000616D65746572733A0020204D343230203C
:1026300053004175746F20426564204C6576656C6B
:10264000696E673A0020204D323036205800486FBE
:102650006D65206F66667365743A00204A002053EA
:102660000020204D323035204200416476616E6397
:1026700065643A20423C6D696E5F7365676D656E97
:10268000745F74696D655F75733E20533C6D696E50
:102690005F66656564726174653E20543C6D696E69
:1026A0005F74726176656C5F66656564726174659E
:1026B0003E204A3C6A756E635F6465763E00205436
:1026C0000020520020204D323034205000416363FE
:1026D000656C65726174696F6E2028756E697473BC
:1026E0002F7332293A20503C7072696E745F6163B7
:1026F00063656C3E20523C726574726163745F6105
:102700006363656C3E20543C74726176656C5F61F6
:102710006363656C3E0020204D3230312058004DFF
:102720006178696D756D20416363656C6572617474
:10273000696F6E2028756E6974732F7332293A00A1
:1027400020204D3230332058004D6178696D756D11
:10275000206665656472617465732028756E69749E
:10276000732F73293A00537465707320706572205B
:10277000756E69743A0020440020204D32303020BC
:1027800053002044697361626C65640A0046696C99
:10279000616D656E742073657474696E67733A0059
:1027A00020204D3134392043203B20556E6974730D
:1027B00020696E2043656C736975730A0020286D6B
:1027C0006D29002020473231202020203B20556EEB
:1027D00069747320696E206D6D0024F4D43050C389
:1027E0008E20C2A24017828B7011127A910D816CDB
:1027F000D90AA861E108C7586607615143061E4B14
:102800005D05C145A7041A411104093D98037139BA
:1028100031034036DB0265339102D4305402802EFE
:102820001D02632CEE01752AC501B028A0011027F6
:1028300081018F2564012B244B01E0223401AC215E
:102840001F018D200D01801FFC00841EED00971DCF
:10285000DF00B81CD200E61BC600201BBC00641AB7
:10286000B200B219A8000A19A0006A189900D1177D
:10287000910040178B00B516840031167E00B31509
:1028800079003A157300C7146F0058146A00EE13EC
:1028900066008813630025135E00C7125B006C128C
:1028A000570015125400C111510070114F00211131
:1028B0004B00D61049008D1047004610440002100E
:1028C0004200C00F4000800F3E00420F3C00060F48
:1028D0003B00CB0E3800930E37005C0E3500270E00
:1028E0003400F30D3200C10D3100900D3000600D49
:1028F0002E00320D2D00050D2C00D90C2B00AE0C36
:102900002900850C29005C0C2700350C27000E0CD3
:102910002600E80B2400C40B2400A00B23007D0B31
:1029200023005A0B2100390B2100180B2000F80A54
:102930001F00D90A1E00BB0A1E009D0A1D00800A46
:102940001D00630A1C00470A1B002C0A1B00110A09
:102950001A00F7091A00DD091900C4091900AB09AA
:102960001900920917007B091800630917004C0928
:10297000160036091600200916000A091500F50888
:102980001500E0081400CC081400B8081400A408CE
:102990001400900813007D0812006B0813005808FB
:1029A0001200460812003408110023081100120812
:1029B000110001081100F0071000E0071000D00717
:1029C0001000C0071000B0070F00A107100091070A
:1029D0000E0083070F0074070F0065070E005707EE
:1029E0000E0049070E003B070D002E070E002007C2
:1029F0000D0013070D0006070D00F9060C00ED068B
:102A00000D00E0060C00D4060C00C8060C00BC0645
:102A10000C00B0060C00A4060B0099060C008D06F5
:102A20000B0082060B0077060B006C060B0061069C
:102A30000A0057060B004C060A0042060A00380638
:102A40000A002E060A0024060A001A060A001006CA
:102A5000090007060A00FD050900F4050900EB0559
:102A60000900E2050900D9050900D0050900C705DC
:102A70000900BE050900B5050800AD050800A5055B
:102A800009009C050800940508008C0508008405D1
:102A900008007C050800740508006C050700650542
:102AA00008005D050700560508004E0507004705AC
:102AB00007004005080038050700310507002A0512
:102AC0000700230507001C050600160507000F0573
:102AD00007000805060002050700FB040600F504D0
:102AE0000700EE040600E8040600E2040700DB0429
:102AF0000600D5040600CF040600C9040600C3047E
:102B00000600BD040600B7040600B1040500AC04CD
:102B10000600A6040600A00405009B040600950418
:102B20000500900406008A04050085040500800461
:102B300006007A04050075040500700405006B04A6
:102B4000050066040500610405005C0405005704E7
:102B50000500520405004D04050048040500430427
:102B600005003E0404003A04050035040500300465
:102B700004002C04050027040400230405001E049F
:102B800004001A04040016040500110404000D04D6
:102B90000400090405000404040000040400FC030C
:102BA0000400F8030400F4030400F0030400EC0341
:102BB0000400E8030400E4030400E0030400DC0371
:102BC0000400D8030400D4030400D0030400CC03A1
:102BD0000400C8030300C503030024F404D9201B28
:102BE000C40C5C0E9804C4095F0265077101F4050A
:102BF000F900FB04B30048048700C10369005803CF
:102C0000550003034500BE023A008402310053021E
:102C10002A002902250004022000E4011C00C8014A
:102C20001900AF011700980114008401130071010D
:102C300010006101100051010E0043010D0036012A
:102C40000B002B010B0020010B00150109000C01EA
:102C5000090003010800FB000800F3000800EB0076
:102C60000700E4000600DE000600D8000600D200DF
:102C70000600CC000500C7000500C2000500BD002D
:102C80000400B9000400B5000400B1000400AD0068
:102C90000400A9000400A5000300A20003009F0097
:102CA00004009B00030098000300950002009300BD
:102CB0000300900003008D0002008B0003008800D9
:102CC00002008600020084000300810002007F00F1
:102CD00002007D0002007B00020079000200770004
:102CE0000100760002007400020072000100710011
:102CF00002006F0002006D0001006C0002006A001B
:102D00000100690002006700010066000100650023
:102D10000100640002006200010061000100600027
:102D200001005F0002005D0001005C0001005B002B
:102D300001005A000100590001005800010057002D
:102D4000010056000100550001005400010053002D
:102D5000000053000100520001005100010050002A
:102D600001004F0001004E0000004E0001004D0028
:102D700001004C0001004B0000004B0001004A0024
:102D80000100490001004800000048000100470020
:102D9000010046000000460001004500000045001B
:102DA0000100440001004300000043000100420014
:102DB000000042000100410000004100010040000D
:102DC00001003F0000003F0001003E0000003E0007
:102DD00001003D0000003D0001003C0000003C00FF
:102DE00000003C0001003B0000003B0001003A00F5
:102DF00000003A00010039000000390001003800ED
:102E000000003800000038000100370000003700E3
:102E100001003600000036000000360001003500D9
:102E200000003500000035000100340000003400CF
:102E300000003400010033000000330000003300C4
:102E400001003200000032000000320001003100B9
:102E500000003100000031000100300000003000AF
:102E60000000300001002F0000002F0000002F00A4
:102E700000002F0001002E0000002E0000002E0098
:102E800001002D0000002D0000002D0000002D008D
:102E900001002C0000002C0000002C0000002C0081
:102EA00001002B0000002B0000002B0000002B0075
:102EB00001002A0000002A0000002A0000002A0069
:102EC000010029000000290000002900000029005D
:102ED0000000290001002800000028000000280050
:102EE0000000280000002800010027000000270043
:102EF0000000270000002700000027000100260036
:102F00000000260000002600000026000000260029
:102F1000010025000000250000002500000025001C
:102F2000000025000000250001002400000024000E
:102F30000000240000002400000024000100230001
:102F400000002300000023000000230000002300F5
:102F500000002300000023000100220000002200E6
:102F600000002200000022000000220000002200D9
:102F700001002100000021000000210000002100CC
:102F800000002100000021000000210001002000BD
:102F900000002000000020000000200000002000B1
:102FA00000002000000020000000200001001F00A1
:102FB00000001F0000001F0000001F0000001F0095
:102FC00000001F0000001F0001001E0000001E0086
:102FD00000001E0000001E000000393000003325F4
:102FE000000087190000B00F0000DB080000BD04DE
:102FF0000000740200003F01000020436F756E74F2
:1030000020583A0042656400453100626564002C36
:103010002073797374656D2073746F7070656421AB
:10302000204865617465725F49443A2000486561D3
:1030300074696E67204661696C65640048656174F7
:10304000696E67206661696C656400544845524D3D
:10305000414C2052554E4157415900546865726D9C
:10306000616C2052756E61776179004572723A2009
:103070004D415854454D50004D415854454D5020F8
:10308000747269676765726564004572723A204DB3
:10309000494E54454D50004D494E54454D502074B5
:1030A000726967676572656400202F005072696EEF
:1030B0007420506175736564002042403A002040DE
:1030C0003A000009121B242D363F48415A536C65C3
:1030D0007E7719100B023D342F265158434A757CD8
:1030E000676E323B2029161F040D7A7368615E57A4
:1030F0004C452B2239300F061D14636A7178474EF8
:10310000555C646D767F4049525B2C253E37080143
:103110001A137D746F6659504B42353C272E111897
:10312000030A565F444D727B60691E170C053A33E3
:1031300028214F465D546B627970070E151C232AB7
:1031400031384148535A656C777E09001B122D2493
:103150003F3658514A437C756E671019020B343D57
:10316000262F737A6168575E454C3B3229201F1623
:103170000D046A6378714E475C55222B3039060F77
:10318000141D252C373E0108131A6D647F764940C3
:103190005B523C352E2718110A03747D666F505917
:1031A000424B171E050C333A21285F564D447B7263
:1031B00069600E071C152A233831464F545D626B37
:1031C00070797C3C3E5E2B3D3F2F5B5D3B2C2A2281
:1031D0005C0043616E6E6F74206F70656E20737556
:1031E000626469722000534420496E69742046610C
:1031F000696C0053442063617264206F6B0A006F36
:1032000070656E526F6F74206661696C65640A0048
:10321000766F6C756D652E696E6974206661696C78
:1032200065640A004E6F20534420636172640A0093
:103230004D3234004D3233202573002E0A006F705A
:10324000656E206661696C65642C2046696C653A20
:10325000200046696C652073656C65637465640A5B
:10326000002053697A653A200046696C65206F70CA
:10327000656E65643A2000454E4420535542524FD6
:103280005554494E450A002220706F730022207069
:103290006172656E743A2200535542524F5554493B
:1032A0004E452043414C4C207461726765743A224C
:1032B0000053756263616C6C204F766572666C6F4B
:1032C00077004578636565646564206D6178205397
:1032D0005542524F5554494E452064657074683AC2
:1032E000310A0057726974696E6720746F206669CD
:1032F0006C653A2000667265736800646F696E677A
:10330000002066696C653A20004E6F77200000004F
:103310000A0B02090C0D0E0807030401000000004F
:10332000000000000000000000000000000000009D
:10333000000000000000000000001211100000005A
:10334000000000000000000000000000000000007D
:10335000000000000268747470733A2F2F6D617260
:103360006C696E66772E6F72670068747470733A5A
:103370002F2F6D61726C696E66772E6F72670068B1
:10338000747470733A2F2F6D61726C696E66772E4C
:103390006F726700322E302E372E3200322E302ED2
:1033A000372E3200322E302E372E32006874747071
:1033B000733A2F2F6D61726C696E66772E6F72672C
:1033C0000068747470733A2F2F6D61726C696E6649
:1033D000772E6F72670068747470733A2F2F6D6167
:1033E000726C696E66772E6F72670020322E302EF7
:1033F000372E320070012C0190012701B00122010B
:10340000C0011D01F00118011002130130020E016C
:103410006002090190020401C002FF000003FA00EB
:103420004003F5008003F000D003EB002004E60029
:103430007004E100E004DC004005D700C005D200C4
:103440004006CD00D006C8008007C3003008BE008B
:10345000F008B900C009B400B00AAF00B00BAA0070
:10346000D00CA500000EA000500F9B00C0109600CD
:103470005012910000148C00C0158700B017820014
:10348000B0197D00D01B7800001E730040206E0034
:1034900090226900F024640040275F0090295A00C0
:1034A000E02B5500102E500020304B00103246000B
:1034B000E033410090353C0010373700703832005F
:1034C000A0392D00B03A2800A03B2300603C1E002C
:1034D000103D1900903D1400103E0F00703E0A0090
:1034E000C03E0500003F0000403FFBFF803FF6FF6D
:1034F000C03FF1FF2020506C616E6E6572427566B0
:1035000066657242797465733A200020467265657B
:10351000204D656D6F72793A2000436F6D70696C54
:1035200065643A204A616E20203420323032310AFC
:1035300000204C61737420557064617465643A2096
:10354000323032302D31302D3135207C20417574B0
:10355000686F723A206A6F6E7361670A00322E30AC
:103560002E372E320A004D61726C696E0020536F47
:103570006674776172652052657365740A0020571E
:1035800061746368646F672052657365740A002014
:1035900042726F776E206F75742052657365740A7E
:1035A000002045787465726E616C20526573657495
:1035B0000A00506F77657255700A007374617274F7
:1035C0000A006175746F25632E67004732385859B9
:1035D000004D31303031006572726F722077726940
:1035E00074696E6720746F2066696C650A00446FA9
:1035F0006E6520736176696E672066696C652E0A58
:10360000004D323900456E6473746F70730025533A
:1036100020256320256320256320256300205A3A56
:103620000020593A0020583A00656E6473746F7038
:1036300073206869743A2000004D6F766520257309
:103640006D6D004D6F766520302E316D6D004D6FC4
:10365000766520316D6D004D6F76652031306D6D72
:10366000004D6F76652041786973004578747275F6
:10367000646572004D6F7665205A004D6F76652047
:1036800059004D6F76652058005072696E7420663F
:10369000726F6D204D656469610050726F62696E72
:1036A00067204661696C65640A0050726F62696EDA
:1036B00067204661696C656400205A3A20002059F1
:1036C0003A200042656420583A2000220A00556ED4
:1036D0006B6E6F776E20636F6D6D616E643A202242
:1036E0000047656565746563682069332050726FB3
:1036F00020422052656164792E005072696E7469AF
:103700006E672E2E2E00204500205A0020590020E2
:103710004D393220580020453A00205A3A002059AD
:103720003A00583A00DB0FC93F45BCDA3F8FB3027D
:1037300040FCF0274056946140FE4B9B4084A5D846
:1037400040E0231841346A5641E859974164DBD57B
:10375000416E271742B4B75542CE1A9742C8AED52C
:1037600042B5885A43D40684BFA65FA7BF7443E01E
:10377000BF10B11AC01C2C58C0E8F697C0B849D683
:10378000C04E4E17C124D355C1802497C1A0B5D5D2
:10379000C1121A17C244AE55C2781797C26CACD585
:1037A000C267885AC320746F6F206C6F6E67206584
:1037B0007874727573696F6E2070726576656E7459
:1037C00065640A0020636F6C642065787472757399
:1037D000696F6E2070726576656E7465640A0000AC
:1037E000002110422063308440A550C660E7700875
:1037F0008129914AA16BB18CC1ADD1CEE1EFF131FC
:1038000012100273325222B5529442F772D66239C4
:103810009318837BB35AA3BDD39CC3FFF3DEE3624B
:1038200024433420040114E664C774A44485546A14
:10383000A54BB528850995EEE5CFF5ACC58DD553DB
:1038400036722611163006D776F6669556B4465B64
:10385000B77AA719973887DFF7FEE79DD7BCC7C4AB
:1038600048E5588668A7784008611802282338CCB4
:10387000C9EDD98EE9AFF9488969990AA92BB9F53B
:103880005AD44AB77A966A711A500A333A122AFD04
:10389000DBDCCBBFFB9EEB799B588B3BBB1AABA60B
:1038A0006C877CE44CC55C222C033C600C411CAE54
:1038B000ED8FFDECCDCDDD2AAD0BBD688D499D971B
:1038C0007EB66ED55EF44E133E322E511E700E9FA4
:1038D000FFBEEFDDDFFCCF1BBF3AAF599F788F886B
:1038E00091A981CAB1EBA10CD12DC14EF16FE1803C
:1038F00010A100C230E3200450254046706760B933
:10390000839893FBA3DAB33DC31CD37FE35EF3B18B
:10391000029012F322D2323542145277625672EA82
:10392000B5CBA5A89589856EF54FE52CD50DC5E2DB
:1039300034C324A01481046674476424540544DB12
:10394000A7FAB79987B8975FE77EF71DC73CD7D32B
:1039500026F2369106B01657667676154634564CE2
:10396000D96DC90EF92FE9C899E9898AB9ABA9447B
:1039700058654806782768C018E1088238A3287D72
:10398000CB5CDB3FEB1EFBF98BD89BBBAB9ABB75CB
:103990004A545A376A167AF10AD01AB32A923A2E42
:1039A000FD0FED6CDD4DCDAABD8BADE89DC98D261B
:1039B0007C076C645C454CA23C832CE01CC10C1F52
:1039C000EF3EFF5DCF7CDF9BAFBABFD98FF89F176B
:1039D0006E367E554E745E932EB23ED10EF01E00B2
:1039E000002200250028002B002E003100340002A8
:1039F000010000050108010B01000021002400273F
:103A0000002A002D003000330001010000040107EE
:103A1000010A010505050507050808080802020254
:103A2000020A0A0808040404040101010101010159
:103A3000010303030303030303040707070C0C0C30
:103A40000C0C0C0C0C020202020606060606060608
:103A5000060B0B0B0B0B0B0B0B01021020200808A5
:103A600010204010204080020102010804020101E0
:103A700002040810204080804020100804020180C9
:103A80000402018040201008040201080402010120
:103A90000204081020408001020408102040800029
:103AA000C6011E0111241FBECFEFD1E2DEBFCDBF84
:103AB00000E00CBF13E0A0E0B2E0ECEBFFE302E0BB
:103AC0000BBF02C007900D92A032B107D9F723E1D6
:103AD000A0E2B3E001C01D92AE3DB207E1F71DE1E7
:103AE000C1E5DDE100E006C021970109802FFE015C
:103AF0000F943C1FC035D10780E00807A9F70F9449
:103B0000C6080D94CC1F0C940000FC01849108950C
:103B1000FC0180810895CF93DF93DB01F9019C9133
:103B20009130C1F0943080F094509C938830D1F45F
:103B300080819181009771F0019791838083480F74
:103B4000591FEA01188206C08C3539F49C5F9C939A
:103B5000943041F4DF91CF9108958B3339F781E0B0
:103B60008C93F8CF20813181B9016F5F7F4F7183D2
:103B70006083420F531FEA018883808191818F35D2
:103B800091056CF7E7CF90915606E92FF0E0EB51E5
:103B9000F04F80839F5F943040F49093560680915D
:103BA000DA078F5F8093DA07089510925606F7CFF1
:103BB000282F9091AC03833021F495FD0FC094FD24
:103BC0000FC0892F90E0B0E0A0E004C0B695A795A3
:103BD000979587952A95D2F78170089581E0089589
:103BE00080E00895A09A0895809A889808950C948A
:103BF0005E8F0C945E8F0C945E8F0C945E8F0C9491
:103C0000108F0C94108F0C94108F0C94108F809147
:103C10004A02882341F060918E0470918F0441E044
:103C200081E00C94FFEB0895EF92FF920F931F93A6
:103C3000CF93DF9300D000D01F921F92CDB7DEB795
:103C40008E010F5F1F4FD80130E020E0FB01E20F33
:103C5000F31FE491ED932F5F3F4F28303105B1F70B
:103C6000877028E0829FC001112480640E9468F15F
:103C7000780188E0E80EF11CF80161918F018DEC6C
:103C80009FE00E9412F2E016F106B1F728960FB6F7
:103C9000F894DEBF0FBECDBFDF91CF911F910F9182
:103CA000FF90EF900895CF92DF92EF92FF920F93E3
:103CB0001F93CF93DF9300D000D0CDB7DEB78A013A
:103CC00046E0469F9001479F300D1124BC01620FD2
:103CD000731F46E050E0CE0101960F946914C9802D
:103CE000DA80EB80FC80F801408151816281738130
:103CF0008FEF9FEFC416D506E606F70640F081E089
:103D000090E04C155D056E057F0508F080E0269675
:103D10000FB6F894DEBF0FBECDBFDF91CF911F91DC
:103D20000F91FF90EF90DF90CF9008950F931F9326
:103D3000CF93DF93CDB7DEB72E970FB6F894DEBFE3
:103D40000FBECDBF8A011E861D866F837887898747
:103D50009A872FEF2B87603871058105910538F41C
:103D60008DEC9FE00E9412F281E090E02FC09E0156
:103D7000235F3F4FAE01495F5F4F69EB70E087E71C
:103D800096E10E943AD597FD2CC08D859E8526E050
:103D9000289FB001299F700D11246958794E46E083
:103DA00050E0CE0101960F9469146D818DEC9FE077
:103DB0000E9412F201301105B9F26E816623A1F260
:103DC0008DEC9FE00E9412F282E090E02E960FB6FA
:103DD000F894DEBF0FBECDBFDF91CF911F910F9141
:103DE00008959E01235F3F4FAE01495F5F4F63E639
:103DF00070E085E294E10E943AD597FD0BC08D8575
:103E00009E8526E0289FB001299F700D11246B5DCF
:103E10007B4EC5CF6FE3A4CF8091A1039091A20305
:103E2000009731F04AE050E070E060E00D945D13DF
:103E300060E070E0CB0108958091A1039091A2030E
:103E4000009731F04AE050E070E060E00D942F12EE
:103E500060E070E0CB0108950E941C1FCB01089523
:103E60000E941C1F97FD0CC00E941C1F6F3F710514
:103E70008105910509F034F40E941C1F862F0895D6
:103E800080E008958FEF08958091A1039091A2039F
:103E9000892B41F00E94301F91E0811101C090E018
:103EA000892F089591E0FCCFCF92DF92EF92FF929D
:103EB0000F931F93CF93DF936B017A01EC01C05DE9
:103EC000DC4F28813CE0389F8001399F100D112480
:103ED00027FF24C0FB011182108288818F5F8883B5
:103EE00088819801280F311D87FD3A95C9012091DD
:103EF0006E0FF6012817190629F024F088818C30FE
:103F00000CF43CC080819181049680349C4908F473
:103F100075C0F60180819181049672C088819801F4
:103F2000280F311D87FD3A95C90120916E0F281782
:103F3000190699F294F28881A801480F511D87FD56
:103F40005A95FA01EE0FFF1FE40FF51FEA5DF04FDF
:103F5000808187FFC2CF8881F801E80FF11D87FDBE
:103F6000FA95CF01EE0FFF1FE80FF91FEA5DF04F42
:103F7000808160E08F770E94A7EFAFCF8081918131
:103F80002881A801420F511D27FD5A959A01FA0177
:103F9000EE0FFF1FE20FF31FEA5DF04F2181328128
:103FA000820F931FF7019183808388819801280FE6
:103FB000311D87FD3A95F901EE0FFF1FE20FF31F48
:103FC000EA5DF04F808187FF20C08881080F111DB6
:103FD00087FD1A95F801EE0FFF1FE00FF11FEA5D54
:103FE000F04F808161E08F77DF91CF911F910F912A
:103FF000FF90EF90DF90CF900C94A7EF80E49CE9C6
:10400000F701918380838FEF8883DF91CF911F9198
:104010000F91FF90EF90DF90CF900895CF93DF93B3
:1040200000D01F92CDB7DEB70F945B1D0F944515DE
:1040300069837A838B839C83CE0101960E94CFABE8
:104040000F900F900F900F90DF91CF9108958F9266
:104050009F92AF92BF92CF92DF92EF92FF926B014D
:104060007C0120E030E0A9010F94401587FD6BC072
:104070006DEB77E386E095E3A70196010F94E81BCB
:104080006B017C0120E030E040E251E40F94A61582
:1040900020E030E040E251E40F94A6154B015C01B2
:1040A00020E030E0A901C701B6010F94401520E0DF
:1040B00030E040EA50E487FF04C020E030E040EA0E
:1040C00050ECC501B4010F94E81B20E030E040E261
:1040D00051E40F94E21C0F94541D9B018BE237FFB7
:1040E00005C022273327261B370B8DE280939304CC
:1040F000C90164E670E00F94281FCB01EAE0F0E00C
:10410000BF010F94281F805D80939404C901BF01F3
:104110000F94281F282FCB01BF010F94281F805D0B
:10412000809395048EE280939604205D20939704FB
:1041300083E994E0FF90EF90DF90CF90BF90AF9035
:104140009F908F9008956DEB77E386E095EB94CF89
:104150008F929F92AF92BF92CF92DF92EF92FF9297
:10416000CF936B017C0120E030E0A9010F94401552
:1041700087FDAAC06DEB77E386E095E3A701960182
:104180000F94E81B6B017C0120E030E0A9010F9443
:10419000401587FF9EC0C701B601905820E030E06F
:1041A00040E251E40F94A61520E030E040E251E4F3
:1041B0000F94A61520E030E040EA50E40F94E81B8D
:1041C00020E030E040E251E40F94E21C0F94541DD3
:1041D0006B017C0180E28093910460E280E1C8166B
:1041E00087E2D806E104F1048CF0C701B60120E1B2
:1041F00037E240E050E00F94A61BCA01B9012AE063
:1042000030E040E050E00F94A61B605D60939204A4
:1042100060E288EEC81683E0D806E104F1048CF071
:10422000C701B60128EE33E040E050E00F94A61B32
:10423000CA01B9012AE030E040E050E00F94A61B2B
:10424000605D6093930460E284E6C816D104E104E3
:10425000F1048CF0C701B60124E630E040E050E004
:104260000F94A61BCA01B9012AE030E040E050E0FB
:104270000F94A61B605D609394048AE0882E912CB5
:10428000A12CB12CC701B601A50194010F94A61B66
:10429000C62FCA01B901A50194010F94A61B605D48
:1042A000609395048EE280939604C05DC09397045A
:1042B00081E994E0CF91FF90EF90DF90CF90BF9095
:1042C000AF909F908F9008956DEB77E386E095EB2C
:1042D00055CF20E030E040E251E4C701B60162CFA3
:1042E000CF92DF92EF92FF92CF93DF9300D01F9295
:1042F000CDB7DEB76B017C0120E030E0A9010F945F
:10430000401587FD1BC06DEB77E386E095E3A701C1
:1043100096010F94E81B69837A838B839C83CE017B
:1043200001960E94CFAB0F900F900F900F90DF91EE
:10433000CF91FF90EF90DF90CF9008956DEB77E3F2
:1043400086E095EBE4CF8F929F92AF92BF92CF928F
:10435000DF92EF92FF92CF936B017C0120E030E07F
:10436000A9010F94401587FD93C06DEB77E386E0BC
:1043700095E3A70196010F94E81B6B017C0120E0F7
:1043800030E040E251E40F94A61520E030E04AE727
:1043900054E40F94A6154B015C0120E030E0A90124
:1043A000C701B6010F94401520E030E040EA50E428
:1043B00087FF04C020E030E040EA50ECC501B401C2
:1043C0000F94E81B20E030E040E251E40F94E21C3F
:1043D0000F94541D6B017C01C114D104E104F1045C
:1043E00009F45BC0F7FE59C0F094E094D094C094F7
:1043F000C11CD11CE11CF11C8DE280939204C70109
:10440000B60128EE33E040E050E00F94A61B8AE0AE
:10441000882E912CA12CB12CCA01B901A5019401BF
:104420000F94A61B605D609393048EE280939404C6
:10443000C701B60124E630E040E050E00F94A61B2F
:10444000CA01B901A50194010F94A61B605D609398
:104450009504C701B601A50194010F94A61BC62FB0
:10446000CA01B901A50194010F94A61B605D609378
:104470009604C05DC093970482E994E0CF91FF90C9
:10448000EF90DF90CF90BF90AF909F908F90089566
:104490006DEB77E386E095EB6CCF80E2AECF8F9249
:1044A0009F92AF92BF92CF92DF92EF92FF92CF9303
:1044B0006B017C0120E030E0A9010F94401587FFDB
:1044C000A3C06DEB77E386E095EBA70196010F940F
:1044D000E81B6B017C0120E030E040E251E40F94E6
:1044E000A61520E030E048EC52E40F94A6154B01ED
:1044F0005C0120E030E040E251ECC701B6010F94CE
:104500004015181654F420E030E048EC52E4C7019E
:10451000B6010F94481E87FD8BC020E030E0A90152
:10452000C701B6010F94401587FF73C060E070E0CB
:1045300080EA90ECA50194010F94E81B20E030E0A4
:1045400040E251E40F94E21C0F94541D6B017C0176
:10455000F7FC64C020E137E240E050E00F94A61B76
:10456000CA01B9012AE030E040E050E00F94A61BF8
:10457000605D60939204C701B60128EE33E040E02D
:1045800050E00F94A61B9AE0892E912CA12CB12CFF
:10459000CA01B901A50194010F94A61B605D609347
:1045A0009304C701B60124E630E040E050E00F94E8
:1045B000A61BCA01B901A50194010F94A61B605D59
:1045C000609394048EE280939504C701B601A5011F
:1045D00094010F94A61BC62FCA01B901A50194012D
:1045E0000F94A61B605D60939604C05DC093970412
:1045F00082E994E0CF91FF90EF90DF90CF90BF9051
:10460000AF909F908F9008956DEB77E386E095E3F0
:104610005CCF60E070E080EA90E48CCFF094E094AE
:10462000D094C094C11CD11CE11CF11C6DE2A1CF3F
:1046300020E030E0A901C701B6010F94401587FFC3
:104640006AC060E070E080EA90ECA50194010F94EC
:10465000E81B20E030E040E251E40F94E21C0F94AC
:10466000541D4B015C0120E030E0A901C701B601F7
:104670000F94481E87FD0BC020E030E040E251E47B
:10468000C701B6010F94401560E287FD13C0B7FC67
:1046900047C0C501B40128EE33E040E050E00F947C
:1046A000A61BCA01B9012AE030E040E050E00F94B7
:1046B000A61B605D60939304C501B40124E630E05D
:1046C00040E050E00F94A61B8AE0C82ED12CE12CCC
:1046D000F12CCA01B901A70196010F94A61B605DD8
:1046E000609394048EE280939504C501B401A70100
:1046F00096010F94A61BC62FCA01B901A701960106
:104700000F94A61B605D60939604C05DC0939704F0
:1047100083E994E06FCF60E070E080EA90E495CFA9
:10472000B094A09490948094811C911CA11CB11C05
:104730006DE2C0CFCF92DF92EF92FF926B017C01CE
:1047400020E030E0A9010F94401587FD26C06DEBF5
:1047500077E386E095E3A70196010F94E81B6B01D0
:104760007C0120E030E0A9010F94401520E030E00A
:1047700040E05FE387FF04C020E030E040E05FEB13
:10478000C701B6010F94E81B0F94541DCB01FF9095
:10479000EF90DF90CF900C9452AC6DEB77E386E016
:1047A00095EBD9CF63E972E084E690E00E949BB577
:1047B0006AEB72E084E690E00C949BB581110C9456
:1047C000D22368EB71E084E190E00C949BB580917A
:1047D000750F9091760F891B8F7051F4809140086E
:1047E000813031F08091021182FB882780F9089591
:1047F00081E00895E0918704E63010F581E08E0FA6
:10480000809387044091F3075091F4076091F50776
:104810007091F6079091EC078091ED0728E0E29FF8
:10482000F0011124E95AFB4F2091CB0F3091CC0FAE
:104830003183208342835383648375839683878384
:104840000895AF92BF92CF92DF92EF92FF920F93B3
:104850001F93CF93DF93EC015B018A01FB01199554
:1048600087FD16C0C82ED12CF12CE12C2196F80121
:10487000C082D182E282F382CE01DF91CF911F917B
:104880000F91FF90EF90DF90CF90BF90AF90089581
:10489000982F907E903CA9F48F7190E0B0E0A0E05A
:1048A0006C017D0126E0CC0CDD1CEE1CFF1C2A9562
:1048B000D1F7CE010196F50119958F73C82A22967A
:1048C000D6CF982F907F903E11F58F7090E0B0E09A
:1048D000A0E06C017D0186E0CC0CDD1CEE1CFF1C11
:1048E0008A95D1F7CE010196F50119958F73C82AE3
:1048F00096E0CC0CDD1CEE1CFF1C9A95D1F7CE0186
:104900000296F50119958F73C82A2396B0CF982F78
:10491000987F903F79F5877090E0B0E0A0E06C015F
:104920007D01F6E0CC0CDD1CEE1CFF1CFA95D1F7E6
:10493000CE010196F50119958F73C82AA6E0CC0C1B
:10494000DD1CEE1CFF1CAA95D1F7CE010296F501E5
:1049500019958F73C82AB6E0CC0CDD1CEE1CFF1C29
:10496000BA95D1F7CE010396F50119958F73C82A30
:1049700024967DCF982F9C7F983FE1F5837090E03F
:10498000B0E0A0E06C017D0156E0CC0CDD1CEE1C1B
:10499000FF1C5A95D1F7CE010196F50119958F7339
:1049A000C82A66E0CC0CDD1CEE1CFF1C6A95D1F712
:1049B000CE010296F50119958F73C82A76E0CC0CCA
:1049C000DD1CEE1CFF1C7A95D1F7CE010396F50194
:1049D00019958F73C82AE6E0CC0CDD1CEE1CFF1C79
:1049E000EA95D1F7CE010496F50119958F73C82A7F
:1049F00025963DCF982F9E7F9C3F09F049C081703E
:104A000090E0B0E0A0E06C017D0186E0CC0CDD1C04
:104A1000EE1CFF1C8A95D1F7CE010196F501199580
:104A20008F73C82A96E0CC0CDD1CEE1CFF1C9A95F7
:104A3000D1F7CE010296F50119958F73C82A26E0A9
:104A4000CC0CDD1CEE1CFF1C2A95D1F7CE01039681
:104A5000F50119958F73C82A36E0CC0CDD1CEE1CCD
:104A6000FF1C3A95D1F7CE010496F50119958F7385
:104A7000C82A46E0CC0CDD1CEE1CFF1C4A95D1F781
:104A8000CE010596F50119958F73C82A2696EFCEAB
:104A9000982F907C903841F4807C803869F421967E
:104AA000CE01F5011995F8CF8E7F8D3F28F0219624
:104AB000CE01F5011995F8CFC12CD12C7601D7CEB6
:104AC0001F93CF93DF9300D01F92CDB7DEB710E0D6
:104AD000AE014F5F5F4F65E87DE10E94212449816F
:104AE0005A816B817C81452B462B472B11F01F5F30
:104AF000EFCF812F0F900F900F900F90DF91CF91FC
:104B00001F9108951F93CF93DF9300D01F92CDB7CD
:104B1000DEB710E0AE014F5F5F4F68E87DE10E94B5
:104B2000212449815A816B817C81452B462B472B5F
:104B300011F01F5FEFCF812F0F900F900F900F900C
:104B4000DF91CF911F9108956CE37BE180E00E949B
:104B5000141E64E37BE181E00E94141E6CE27BE1A1
:104B600082E00E94141E64E27BE186E00E94141E33
:104B70006CE17BE187E00E94141E64E17BE183E04D
:104B80000E94141E6CE07BE184E00E94141E64E02D
:104B90007BE185E00C94141ECF93823069F4C4E06D
:104BA000C15068F088E0C89FB00111246353754E6E
:104BB0008C2F0E94141EF4CFCF910C94A425CF917A
:104BC00008950F931F93522F2091CB0F3091CC0F4C
:104BD0002817390779F19093CC0F8093CB0F8B0175
:104BE00030E020E00093F3071093F4072093F507DB
:104BF0003093F6074093EC075093ED0787589C4A93
:104C000021F410929004109287040E946EF181E0CA
:104C10002091CB0F3091CC0F27583C4A09F080E00F
:104C20000E94CC2582E080934A0281E080930308B1
:104C3000109288041F910F91089520E040E070E0E9
:104C400060E087E89CEA0C94E125E0918704EE237C
:104C500089F0E150E093870488E0E89FF001112497
:104C6000E95AFB4F6281738127814681808191815E
:104C70000C94E1250C941D2664E084E10E9476F1F9
:104C800081E02091CB0F3091CC0F27583C4A09F09E
:104C900080E00E94CC250C946EF14FEF5FEF0C94F6
:104CA000961EAF92BF92CF92DF92EF92FF920F9338
:104CB0001F93CF93DF9300D01F92CDB7DEB76C0167
:104CC0005B017A0110E000E00E151F05E8F419827F
:104CD0001A821B821C82AE014F5F5F4FB501C60175
:104CE0000E9421246C0169817A818B819C816115EC
:104CF00071058105910541F0A701401B510B0E94F0
:104D0000961E080F191FE0CFC8010F900F900F904B
:104D10000F90DF91CF911F910F91FF90EF90DF9057
:104D2000CF90BF90AF900895CF92DF92EF92FF9215
:104D30000F931F93CF93DF9300D01F92CDB7DEB7B1
:104D40007C01062F6A01122F11160CF03EC0AE0135
:104D50004F5F5F4F65E87DE1C7010E9421247C0120
:104D600069817A818B819C8161157105810591052D
:104D700061F16D3371058105910509F44BC06E3702
:104D800071058105910509F445C06A3271058105F7
:104D9000910549F507FF10C088E49BE10E3F11F033
:104DA00084E49BE1412F012E000C550B65E87DE169
:104DB0000E945126181B5EC065E470E080E090E020
:104DC0000E944D26115041F510E0812F0F900F9059
:104DD0000F900F90DF91CF911F910F91FF90EF9067
:104DE000DF90CF900895643271058105910571F4CB
:104DF000C114D10459F0412F012E000C550B65E868
:104E00007DE1C6010E945126181B9ECF0E944D26AF
:104E100011509ACF07FDC0CF61E089819A81AB81A3
:104E2000BC81CD97A105B10509F460E0600F6A303F
:104E3000ACF01150862F6AE00F94061F092F682FDF
:104E4000880F770B605D7F4F072E000C880B990B46
:104E50000E944D26112309F4B7CF602F062E000CB7
:104E6000770B605D7F4F072E000C880B990B0E941B
:104E70004D261150112309F4A7CF412F012E000C0C
:104E8000550B65E87DE1C7010E945126181B9DCF97
:104E90004FEF5FEF68E87DE10C9451264FEF5FEF35
:104EA00065E87DE10C945126643008F063E0909150
:104EB000E00F691710F06FEF690FE62FF0E0E35392
:104EC000F04F9489890F80680C9468F12F923F927B
:104ED0004F925F926F927F928F929F92AF92BF920A
:104EE000CF92DF92EF92FF920F931F93CF93DF93B6
:104EF00000D0CDB7DEB74C013B015A01222E3B83D7
:104F000028014091F3075091F4076091F5077091E3
:104F1000F607411551056105710579F081E0141618
:104F200015060CF080E0809388041092F30710922D
:104F3000F4071092F5071092F6071091880430904C
:104F4000DD071092DD07311005C080914A028823E9
:104F500009F4A5C0C2010E946025082F80E0C11499
:104F6000D10419F0C6010E9460251A821982E11449
:104F7000F104B1F4402F50E0282F30E0CA01820F35
:104F8000931F45976CF484E190E0841B950B821B82
:104F9000930B97FD0196959587958A8381E0898388
:104FA00001E025E83DE1A201BE016F5F7F4FCE0128
:104FB00002960E94D9BEE114F10491F08A818823FF
:104FC00021F01A8289818F5F898300E028E83DE122
:104FD000A701BE016F5F7F4FCE0102960E94D9BE2E
:104FE000C114D10459F000E025E83DE1A601BE015D
:104FF0006F5F7F4FCE0102960E94D9BE63E080E0D2
:105000000E9454276BE570E080E090E0112321F0CE
:1050100060E270E080E090E00E944D26C3010E94B3
:105020004E276DE570E080E090E0112321F060E212
:1050300070E080E090E00E944D26C4010E9460254F
:1050400063E092E1981B892F0E94542760E270E090
:1050500080E090E0112321F06BE570E080E090E0CB
:105060000E944D26C4010E944E2760E270E080E05D
:1050700090E0112321F06DE570E080E090E00E9467
:105080004D26332049F0111102C0A22CBB80A1147F
:10509000B104D9F0F501199581E0809390040F9047
:1050A0000F900F90DF91CF911F910F91FF90EF9094
:1050B000DF90CF90BF90AF909F908F907F906F9038
:1050C0005F904F903F902F9008950E942526E4CF47
:1050D000CF92DF92EF92FF920F931F9387E5C82E36
:1050E0008CE1D82EF12CE12C0AE61CE130E020E026
:1050F0004BEC53ED69E57CE180E69CE10E9466277C
:105100001F910F91FF90EF90DF90CF900895CF9275
:10511000DF92EF92FF9269017A010E945427C70142
:10512000B601FF90EF90DF90CF900C944D26CF9278
:10513000DF92FF920F931F93CF93DF938C01EB01CC
:10514000C0900508D0900608F090040861E080E067
:105150000E94542723E1A6016F2DC8010E949426C6
:10516000182F209711F16AE370E080E090E00E9430
:105170004D26CE010E9482258F5F115061E01817E5
:1051800008F462E020E230E040E050E094E1981B57
:10519000892F0E948728CE01DF91CF911F910F9117
:1051A000FF90DF90CF900C944827DF91CF911F9113
:1051B0000F91FF90DF90CF9008950F931F93CF939F
:1051C000DF93FC01EB018091F3079091F407A0912C
:1051D000F507B091F607B7FF08C01092F3071092D9
:1051E000F4071092F5071092F6078091F707909157
:1051F000F807A091F907B091FA074091F307509191
:10520000F4076091F5077091F60784179507A607D4
:10521000B70744F48093F3079093F407A093F5073E
:10522000B093F60780914A028823E1F06091F3077A
:105230007091F4078091F5079091F6070091FB07B4
:105240001091FC072091FD073091FE07600F711F40
:10525000821F931F1995BC0180910108909102084B
:105260000E9497288091DD07811108C08091F00786
:105270008823D1F180914A028823B1F18091FF0700
:10528000909100080097B1F04091F3075091F40716
:105290006091F5077091F6070091FB071091FC07EC
:1052A0002091FD073091FE07400F511F621F731FB1
:1052B000FE011995E091F107F091F207309741F066
:1052C0008091F007811103C08091DD07811119954C
:1052D0008091DD071092DD07882331F0DF91CF91B7
:1052E0001F910F910C942526DF91CF911F910F9163
:1052F0000895CF92DF92EF92FF920F931F93CF9377
:10530000DF93C82ED62E7A01E901209709F467C0F1
:10531000C901002381F10E946025182F2EE330E09F
:1053200040E050E0C11004C020E230E040E050E036
:105330006D2D80E00E94872822E1211B4091050805
:105340005091060860910408C7010E949426F82E27
:10535000112309F448C06AE370E080E090E00E9405
:105360004D26FF2059F060E270E080E090E00E945E
:105370004D26FA94F6CF0E948225CFCFCE0100238E
:1053800051F0DF91CF911F910F91FF90EF90DF903F
:10539000CF900C944E27DF91CF911F910F91FF90EA
:1053A000EF90DF90CF900C9448272EE330E040E060
:1053B00050E06D2D80E00E948728409105085091B3
:1053C000060822E160910408C701DF91CF911F9187
:1053D0000F91FF90EF90DF90CF900C949426811165
:1053E000E4CF10E0A1CFDF91CF911F910F91FF90FB
:1053F000EF90DF90CF9008950F93CF93DF93EA0162
:10540000811101C020E2022E000C330B440B550B1E
:1054100080E00E948728409105085091060822E10B
:1054200060910408CE010E949426C82FCC2341F03D
:1054300060E270E080E090E00E944D26C150F6CF1F
:10544000602F000F770B880B990BDF91CF910F9195
:105450000C944D26EF92FF920F931F93CF93DF93FF
:105460000E94F8ECD091EC07C0E0D1112FC08091E0
:10547000EE078823C1F080914A02882361F081E021
:105480009091EE07911180E003E023E045E45CE1B8
:105490006C2F0E94FC29DF5FCF5FC43031F787E0BB
:1054A0008093ED070CC08091DD071092DD07882303
:1054B00011F30E942526809103088823E1F2DF91F1
:1054C000CF911F910F91FF90EF900895D130E9F5A2
:1054D0008091EE078130E9F080914A028823D9F269
:1054E00011E08091EE07813009F010E06091520EDA
:1054F0007091530E8091540E9091550E0E949A23F4
:1055000000E09C0140EB5BE16C2F812F0E94792928
:10551000C2CF8091DD071092DD078823E9F20E9457
:1055200048EDE12C10ECF12E09E714E420E030E026
:1055300040E85FE362E57EE080EB9BE10E9454ED92
:1055400080910308882341F2BACFD23009F002C11A
:105550008091EE078230D1F080914A02882309F4CD
:105560009ACF11E08091EE07823009F010E060914F
:10557000560E7091570E8091580E9091590E0E94C0
:105580009A2300E09C0149EA5BE1BECF8091DD07F0
:105590001092DD07882301F30E9448EDE12C10EC06
:1055A000F12E09E714E420E030E040E85FE366E52F
:1055B0007EE089EA9BE10E9454ED809103088823F4
:1055C00059F27DCF8091EE078330D1F080914A026D
:1055D000882309F460CF11E08091EE07833009F051
:1055E00010E060915A0E70915B0E80915C0E90916C
:1055F0005D0E0E949A2300E09C0142EA5BE184CFA9
:105600008091DD071092DD07882301F30E9448EDA9
:10561000E12C10ECF12E09E714E420E030E040E842
:105620005FE36AE57EE082EA9BE10E9454ED8091AF
:105630000308882359F243CF8091EE078430D1F0DC
:1056400080914A02882309F426CF11E08091EE0769
:10565000843009F010E060915E0E70915F0E8091D1
:10566000600E9091610E0E949A2300E09C014BE92C
:105670005BE14ACF8091DD071092DD07882301F3BB
:105680000E9448EDE12C10ECF12E09E714E420E033
:1056900030E040E85FE36EE57EE08BE99BE10E944D
:1056A00054ED80910308882359F209CF8091EE07C9
:1056B0008530D1F080914A02882309F4ECCE11E0C4
:1056C0008091EE07853009F010E060916E0E7091C8
:1056D0006F0E8091700E9091710E0E949A2300E0DF
:1056E0009C0146E95BE110CF8091DD071092DD0758
:1056F000882301F30E9448EDE12C10ECF12E09E71C
:1057000014E420E030E0A9016EE67EE086E99BE14A
:105710000E9454ED80910308882361F2D0CE8091DD
:10572000DD071092DD07882329F10E9448EDE12C66
:1057300010ECF12E09E714E420E030E0A90162E763
:105740007EE08CE89BE10E9454ED80910308882361
:1057500089F0B5CED33009F435CFD43009F46CCF0D
:10576000D53009F4A3CFD63009F095CE8091EE075D
:105770008630A9F280914A02882309F48CCE11E088
:105780008091EE07863009F010E06091720E709102
:10579000730E8091740E9091750E0E949A2300E012
:1057A0009C014CE85BE1B0CE4F925F926F927F928A
:1057B0008F929F92AF92BF92CF92DF92EF92FF9221
:1057C0000F931F93CF93DF9300D000D0CDB7DEB7F8
:1057D000C090320ED090330EE090340EF090350E23
:1057E0008091360E9091370EA091380EB091390EFF
:1057F0008C159D05AE05BF0510F4D701C601C090FC
:105800002E0ED0902F0EE090300EF090310EBC0195
:10581000CD016C157D058E059F0510F4C701B601FD
:105820000F9445152B013C010E94F8EC2091EC07E8
:105830002E831D828E81811143C08091EE078823C3
:10584000E1F080914A02882361F081E09091EE07B7
:10585000911180E003E023E045E45CE16D810E946A
:10586000FC298E818F5F8E832D812F5F2D832430C5
:1058700009F788E08093ED070CC08091DD07109256
:10588000DD078823F1F20E942526809103088823F2
:10589000C1F226960FB6F894DEBF0FBECDBFDF91E2
:1058A000CF911F910F91FF90EF90DF90CF90BF901D
:1058B000AF909F908F907F906F905F904F900895E2
:1058C0002E81213009F087C08091EE078130E9F008
:1058D00080914A02882329F211E08091EE078130FD
:1058E00009F010E06091620E7091630E8091640E79
:1058F0009091650E0E94702100E09C0146EE5BE1F4
:105900006D81812F0E947929ACCF8091DD071092A3
:10591000DD078823E9F20E9448ED2AE037ED43E2F3
:105920005DE3C301B2010F94A61520E030E0A901A8
:105930000F94E81B4B015C0120E030E040E05FE4A5
:105940000F94401587FD05C0812C912CA12C5FE49C
:10595000B52E2AE037ED43E25DE36091620E70916F
:10596000630E8091640E9091650E0F94A61520E051
:1059700030E0A9010F94E81B20E030E040E85FE34D
:105980000F94E71B0F945B1D69837A838B839C8341
:10599000C501B4010F94541D7B018C0121E0E21A72
:1059A000F10801091109912C812C4AE1A42E44E847
:1059B000B42EC980DA8021E030E040E050E062E6B9
:1059C0007EE086EE9BE10E9486EC809103088823AE
:1059D00009F47ECF5ECF8E81823009F0C8C18091FC
:1059E000EE078230D1F080914A02882309F439CF42
:1059F00011E08091EE07823009F010E06091660EB0
:105A00007091670E8091680E9091690E0E947021CE
:105A100000E09C014CED5BE173CF8091DD071092BB
:105A2000DD07882301F30E9448ED60913A0E7091E2
:105A30003B0E80913C0E90913D0E0F94451520E059
:105A400030E0A9010F94E81B4B015C0120E030E03D
:105A500040E05FE40F94401587FD05C0812C912C38
:105A6000A12C3FE4B32E20E030E0A9016091660E46
:105A70007091670E8091680E9091690E0F94E81BEB
:105A800020E030E048EC52E40F94E71B0F945B1DDC
:105A900069837A838B839C83C501B4010F94541D61
:105AA0007B018C0124E6E21AF10801091109912C0D
:105AB000812C24E1A22E24E8B22EC980DA8024E6CB
:105AC00030E040E050E066E67EE08CED9BE10E9435
:105AD00086EC80910308882309F485CFDACE809183
