:100000000C94571C0C94881C0C94881C0C94881C11
:100010000C94881C0C94881C0C94881C0C94881CD0
:100020000C94881C0C94881C0C94881C0C94881CC0
:100030000C94881C0C9496EA0C94881C0C94881CD4
:100040000C94881C0C94A0940C94881C0C94881C10
:100050000C94881C0C94881C0C94238F0C94C4EE74
:100060000C94881C0C948F690C9485690C94881CE2
:100070000C94881C0C94881C0C94881C0C94881C70
:100080000C94AE420C94881C0C94881C0C94881C14
:100090000C94881C0C94881C0C94881C0C94881C50
:1000A0000C94881C0C94881C0C9480420C94881C22
:1000B0000C94881C0C94881C0C94881C0C94881C30
:1000C0000C94881C0C94881C0C94881C0C94881C20
:1000D0000C94881C0C94881C0C94881C0C94881C10
:1000E0000C94881C084AD73B3BCE016E84BCBFFDF4
:1000F000C12F3D6C74319ABD56833DDA3D00C77FF8
:1001000011BED9E4BB4C3E916BAAAABE0000008090
:100110003F05A84CCDB2D44EB93836A9020C50B91F
:10012000918688083CA6AAAA2ABE000000803F004B
:100130000C94ADB80C94B81D0C94378B0C942F33E1
:100140000C94AB8D0C94B41D0C9419830C94A4885E
:100150000C94B61D0C9443880C943B2B0C942E539A
:100160000C94E7830C94FCC10C9410860C94778358
:100170000C9402840C9484530C945C880C94E8D105
:100180000C9485880C9451EA0C94C21D0C94CA847A
:100190000C94418B0C9455EA0C9457880C9475EC94
:1001A0000C948D8D0C94D91D0C94B7860C94BD863F
:1001B0000C940EBE0C945BD20C9466530C948CEA97
:1001C0000C945E530C946A840C9495BF0C9482EA50
:1001D0000C94C9860C949F860C94BA8D0C9453C8C9
:1001E0000C94F3270C9411850C94E2880C94683CD1
:1001F0000C9486EA0C94952E0C949D530C94C01D7F
:100200000C9466880C949C8D0C94AC990C942036BC
:100210000C9454860C9487860C946AEA0C94528849
:100220000C94DA820C9474EA0C9438840C9438534D
:100230000C941D840C944E860C94BA1D0C9408D218
:100240000C94A18B0C94A7530D94AE0B0C94518479
:100250000C945B250C94F6840C947A250C9483847E
:100260000C94EA1D0C944C530C9493860C943FEA26
:100270000C94B7840C9442530C949C840C94565365
:100280000C94998B0D94C2030C94C3860C948A1C15
:100290000C9466860C948A850C947A8F0C9460C0BA
:1002A0000C94118E0C9413850C94A5860C94935386
:1002B0000C948D1C0C94B3990C94563C0C94D9D18D
:1002C0000C94BC1D0C9408860C94CF860C948B2542
:1002D0000C943AEA0C9406860C94D28D0C942D2D35
:1002E0000C941C300C9490EA0C9433530C945DEAFB
:1002F0000C94A3830C94FD820C9458830C948D86EB
:100300000C940F850C94B1530C9459B70C943EC4C3
:100310000C94BE1D0C9490830C9466EA0C94DD84BE
:100320000C9459EA0C9470EA0C94D9340C946188BA
:100330000C94EE1D0C94B1830C9470530C941083A8
:100340000C945A860C947EEA0C94C08B0C9499867B
:100350000C943C8B0C94E53B0C94B1860C94C388B4
:100360000C94AB860C947A530C9432C60C94188679
:100370000C9460860C949E810C94E61D0C94C98D9F
:100380000C948CBC0C94C5530C945AD20C94468B90
:100390000C9460EA0C9478EA0C946B830C94BB5335
:1003A0000C94CC834E414E494E495459494E46CD4A
:1003B000CCCC3D0AD7233C17B7D13877CC2B32951C
:1003C00095E6241FB14F0A000020410000C84200FA
:1003D000401C4620BCBE4CCA1B0E5AAEC59D7400C4
:1003E000407A10F35A00A0724E18090010A5D4E804
:1003F0000000E87648170000E40B54020000CA9A97
:100400003B000000E1F505000080969800000040E8
:10041000420F000000A0860100000010270000002D
:1004200000E803000000006400000000000A000073
:100430000000000100000000002C76D888DC674F27
:100440000823DFC1DFAE59E1B1B796E5E3E453C657
:100450003AE651997696E8E6C28426EB898C9B624F
:10046000ED407C6FFCEFBC9C9F40F2BAA56FA5F4F9
:1004700090055A2AF75C936B6CF9676DC11BFCE021
:10048000E40D47FEF520E6B500D0ED902E03009474
:100490003577050080841E080000204E0A00000009
:1004A000C80C333333330F986E12831141EF8D2113
:1004B00014893BE65516CFFEE6DB18D1844B381B7A
:1004C000F77C1D901DA4BBE424203284725E22813F
:1004D00000C9F124ECA1E53D27434F4D4D554E4950
:1004E000434154494F4E0044525952554E004552D3
:1004F000524F525300494E464F004543484F004526
:1005000072726F722077726974696E6720746F20DF
:10051000454550524F4D210A002121204B494C4C5A
:100520002063617573656420627920746F6F206D3C
:1005300075636820696E6163746976652074696D9E
:1005400065202D2063757272656E7420636F6D6D0A
:10055000616E643A200053544F505045442E2000A1
:100560005072696E7465722073746F707065642068
:1005700064756520746F206572726F72732E2046E9
:10058000697820746865206572726F7220616E648C
:1005900020757365204D39393920746F2072657369
:1005A000746172742E202854656D70657261747563
:1005B00072652069732072657365742E20536574AB
:1005C000206974206166746572207265737461724B
:1005D00074696E67290A004E6F20436865636B7308
:1005E000756D2077697468206C696E65206E756D15
:1005F0006265722C204C617374204C696E653A20E0
:10060000004E6F20436865636B73756D2077697466
:1006100068206C696E65206E756D6265722C204C69
:10062000617374204C696E653A2000636865636B82
:1006300073756D206D69736D617463682C204C61F6
:100640007374204C696E653A20004C696E65204ECB
:10065000756D626572206973206E6F74204C6173D2
:1006600074204C696E65204E756D6265722B312C5D
:10067000204C617374204C696E653A20004D313115
:10068000300053442072656164206572726F720A93
:1006900000627573793A2070617573656420666FC6
:1006A0007220696E7075740A00627573793A2070F1
:1006B000617573656420666F7220757365720A00D8
:1006C000627573793A2070726F63657373696E67D0
:1006D0000A004D656469612052656D6F766564003E
:1006E0004D6564696120496E73657274656400507C
:1006F0006C65617365205265736574005052494E94
:100700005445522048414C5445440025533A202535
:1007100053004B494C4C45442E20005072696E7476
:1007200065722068616C7465642E206B696C6C283E
:10073000292063616C6C6564210A0053544F50504A
:1007400045442E20005072696E7465722073746F78
:10075000707065642064756520746F206572726FB7
:1007600072732E2046697820746865206572726FF6
:100770007220616E6420757365204D39393920749B
:100780006F20726573746172742E202854656D70C9
:100790006572617475726520697320726573657422
:1007A0002E2053657420697420616674657220720E
:1007B000657374617274696E67290A006563686F96
:1007C0003A004572726F723A0021212053544F5003
:1007D0002063616C6C65642062656361757365207C
:1007E0006F6620424C546F756368206572726F7239
:1007F000202D20726573746172742077697468208B
:100800004D3939390A0021212053544F502063615A
:100810006C6C65642062656361757365206F66202A
:10082000424C546F756368206572726F72202D2080
:10083000726573746172742077697468204D3939F8
:10084000390A000A0A426564204C6576656C2043CB
:100850006F7272656374696F6E204D61747269782E
:100860003A000A436F72726563746564204265647E
:10087000204865696768742076732E20426564207D
:10088000546F706F6C6F67793A0A000A4265642092
:1008900048656967687420546F706F67726170682B
:1008A000793A0A2020202B2D2D2D204241434B2028
:1008B0002D2D2B0A2020207C2020202020202020CD
:1008C0002020207C0A204C207C20202020282B293E
:1008D000202020207C20520A2045207C202020201F
:1008E000202020202020207C20490A2046207C2017
:1008F000282D29204E20282B29207C20470A2054EF
:10090000207C20202020202020202020207C204807
:100910000A2020207C20202020282D292020202073
:100920007C20540A2020207C2020202020202020F1
:100930002020207C0A2020204F2D2D2046524F4E73
:1009400054202D2D2B0A2028302C30290A000A4D46
:1009500065616E206F662073616D706C65642070D8
:100960006F696E74733A200020643A200020623A66
:10097000200045716E20636F656666696369656E08
:1009800074733A20613A200050726F62696E67207A
:10099000506F696E740025532025692F2569002E3C
:1009A0000A002F0050726F62696E67206D65736870
:1009B00020706F696E742000202844525952554EA1
:1009C0002900473239204175746F20426564204CFC
:1009D0006576656C696E67003F20284C2C522C466A
:1009E0002C4229206F7574206F6620626F756E64CB
:1009F000732E0A003F50726F626520706F696E74CB
:100A0000732028592920696D706C61757369626C57
:100A1000652028322D33292E0A003F50726F6265FF
:100A200020706F696E74732028582920696D706C6E
:100A300061757369626C652028322D33292E0A0096
:100A40003F2856296572626F7365206C6576656C08
:100A500020696D706C61757369626C652028302D3A
:100A600034292E0A00446576696174696F6E002529
:100A7000533A2025730046696E6973686564210ADC
:100A8000003A207A3A2000206F662000476F696E96
:100A90006720746F3A20580043570A002064697237
:100AA0003A0020616E676C653A005374617274207D
:100AB0007261646975733A004D343820506F696E05
:100AC000740025533A2025642F256400506F736904
:100AD00074696F6E696E67207468652070726F62EA
:100AE000652E2E2E0A003F4C656773206F66206DC1
:100AF0006F76656D656E7420696D706C6175736974
:100B0000626C652028302D3135292E0A003F2028BF
:100B1000582C5929206F7574206F6620626F756E8E
:100B200064732E0A0050726F6265206F7574206FB7
:100B30006620626F756E6473003F53616D706C6503
:100B40002073697A65206E6F7420706C61757369AB
:100B5000626C652028342D3530292E0A004D34383A
:100B6000205A2D50726F6265205265706561746104
:100B700062696C69747920546573740A003F285661
:100B8000296572626F7365206C6576656C20696D8E
:100B9000706C61757369626C652028302D34292E64
:100BA0000A005374616E6461726420446576696101
:100BB00074696F6E3A20002052616E67653A2000BA
:100BC000204D61783A2000204D696E3A2000205374
:100BD00069676D613A20004D65616E3A20002049D9
:100BE0006E76616C696420657874727564657220D4
:100BF0000020746F6F206C6F6E672065787472755B
:100C000073696F6E2070726576656E7465640A0034
:100C100020636F6C6420657874727573696F6E20E1
:100C200070726576656E7465640A00536C656570F4
:100C30002E2E2E005A2050726F6265205061737400
:100C4000204265640A005A2050726F62652050612C
:100C500073742042656400205A3A200020593A20DB
:100C60000042656420583A2000436C69636B20742D
:100C70006F20526573756D652E2E2E004E6F204DC0
:100C80006F76652E00456E642066696C65206C6920
:100C900073740A00426567696E2066696C65206C32
:100CA0006973740A004E6F206D656469610A0028DB
:100CB0006E6F2066696C65290043757272656E748B
:100CC0002066696C653A20005344207072696E7426
:100CD000696E67206279746520004E6F74205344FA
:100CE000207072696E74696E670A002E0A0044658E
:100CF0006C6574696F6E206661696C65642C204652
:100D0000696C653A200046696C652064656C6574A1
:100D100065643A002569730025696D2025697300B3
:100D20002569682025696D2025697300256964207F
:100D30002569682025696D2025697300256979205A
:100D4000256964202569682025696D20256973005F
:100D50005072696E742074696D653A20006F6B0083
:100D60006F666600FA04F504EE04E704D90444450E
:100D70004255473A004D3131322053687574646FE3
:100D8000776E004D31313320530020573A004265D1
:100D90006420436F6F6C696E672E2E2E004265646F
:100DA0002048656174696E672E2E2E004765656563
:100DB000746563682069332050726F2042204F466B
:100DC000462E004348414D4245525F54454D5045E3
:100DD0005241545552450042414259535445505096
:100DE000494E470041524353004D4F54494F4E5FC7
:100DF0004D4F44455300544845524D414C5F50526D
:100E00004F54454354494F4E004C4F4E475F46495F
:100E10004C454E414D45004155544F5245504F525F
:100E2000545F53445F535441545553005245504509
:100E30004154005344434152440050524F4D50548A
:100E40005F535550504F525400454D455247454E03
:100E500043595F50415253455200434153455F4C03
:100E6000494748545F4252494748544E45535300FE
:100E7000544F47474C455F4C494748545300534FE4
:100E80004654574152455F504F57455200425549CD
:100E90004C445F50455243454E54004C4556454CDA
:100EA000494E475F44415441005A5F50524F4245BA
:100EB0000052554E4F5554004155544F4C455645E0
:100EC0004C005052494E545F4A4F420050524F47D7
:100ED00052455353004155544F5245504F52545F61
:100EE00054454D5000564F4C554D455452494300C2
:100EF000454550524F4D0042494E4152595F464977
:100F00004C455F5452414E53464552005345524959
:100F1000414C5F584F4E5F584F4646004649524D30
:100F2000574152455F4E414D453A4D61726C696E75
:100F3000206275676669782D322E302E7820284A17
:100F4000616E20203420323032312031303A353059
:100F50003A35302920534F555243455F434F44455E
:100F60005F55524C3A6769746875622E636F6D2FD6
:100F70004D61726C696E4669726D776172652F4D55
:100F800061726C696E2050524F544F434F4C5F5604
:100F9000455253494F4E3A312E30204D4143484936
:100FA0004E455F545950453A4765656574656368B9
:100FB0002069332050726F204220455854525544C6
:100FC00045525F434F554E543A3120555549443AA6
:100FD00063656465326132662D343161322D343798
:100FE00034382D396231322D63353563363266330C
:100FF000363766660A002F2F004D31343520533CBA
:10100000696E6465783E206F7574206F662072612A
:101010006E67652028302D31290A00205200416377
:1010200063656C65726174696F6E3A2050004D3271
:10103000303620580020204D61783A2000200020D2
:10104000204D696E3A2000536F667420656E64739C
:10105000746F70733A200046523A0020466C6F77E6
:101060003A20003A200020536572766F2000206FEE
:101070007574206F662072616E67650A0053657231
:10108000766F200020643A0020693A0020703A0010
:10109000496E76616C6964206578747275646572F6
:1010A0000A0064697300656E0043290A0061626C7E
:1010B000656420286D696E2074656D702000436F33
:1010C0006C64206578747275646573206172652044
:1010D000004F4646004F4E00426564204C657665E1
:1010E0006C696E6720004661696C656420746F20CE
:1010F000656E61626C6520426564204C6576656C46
:10110000696E670A00426564204C6576656C204311
:101110006F7272656374696F6E204D617472697865
:101120003A004F666673657473204170706C696530
:1011300064004572723A20546F6F2066617221001C
:10114000546F6F206661722066726F6D20726566E3
:101150006572656E636520706F696E740A0045453F
:1011600050524F4D204F4B0A00290A0020746F2027
:10117000003F5A206F7574206F662072616E67653C
:10118000202800290A0020746F20003F59206F7525
:1011900074206F662072616E676520282D00290A11
:1011A0000020746F20003F58206F7574206F6620F8
:1011B00072616E676520282D0050726F6265204F46
:1011C00066667365742058004D383400446F6E6550
:1011D000207072696E74696E672066696C650A00BA
:1011E0004D3737004D333100496E76616C696420AC
:1011F00065787472756465720A004361703A0047DD
:10120000322F47332062616420706172616D6574B2
:101210006572730A006F6B00526573656E643A20E5
:101220000020573A00436F6F6C696E672E2E2E00B8
:1012300048656174696E672E2E2E00452025530087
:1012400023646566696E652044454641554C545F8C
:10125000004B6420004B6920004B70200050494433
:10126000204175746F74756E652066696E69736868
:101270006564212050757420746865206C617374F6
:10128000204B702C204B6920616E64204B642063DE
:101290006F6E7374616E74732066726F6D20626519
:1012A0006C6F7720696E746F20436F6E6669677527
:1012B000726174696F6E2E680A005049442041754E
:1012C000746F74756E65206661696C656421207445
:1012D000696D656F75740A00504944204175746FDB
:1012E00074756E65206661696C6564212054656D56
:1012F000706572617475726520746F6F20686967BC
:10130000680A00204B643A2000204B693A200020F4
:101310004B703A20000A20436C617373696320505C
:101320004944200A002054753A2000204B753A2089
:1013300000206D61783A2000206D696E3A2000200F
:10134000643A200020626961733A200050494420C9
:101350004175746F74756E652073746172740A00E0
:10136000504944204175746F74756E6520666169DB
:101370006C6564212054656D706572617475726569
:1013800020746F6F20686967680A005049442041E3
:1013900075746F74756E6500504944204175746FA3
:1013A00074756E65206661696C65642120426164B4
:1013B000206578747275646572206E756D626572F1
:1013C0000A00A10000006900A20000006300B00054
:1013D00000000900C10000004100C20000004100FF
:1013E000C30000004100C40000004100C50000002F
:1013F0004100C60000004145C70000004300C8008E
:1014000000004500C90000004500CD000000490073
:10141000D10000004E00D50000004F00D6000000B3
:101420004F00D70000007800DC0000005500DD0010
:1014300000005900E00000006100E10000006100D0
:10144000E20000006100E30000006100E400000031
:101450006100E50000006100E60000006165E70052
:1014600000006300E80000006500E900000065007E
:10147000EA0000006500EB0000006500EC000000E1
:101480006900ED0000006900EE0000006900EF0057
:1014900000006900F10000006E00F20000006F0023
:1014A000F30000006F00F40000006F00F500000082
:1014B0006F00F60000006F00F80000006F00F900F8
:1014C00000007500FA0000007500FB0000007500C8
:1014D000FC0000007500FD0000007900FF00000026
:1014E00079000401000041000501000061000601CF
:1014F000000043000701000063000C0100004300EE
:101500000D01000063000E01000044000F01000007
:1015100064001101000064001901000065001A0157
:10152000000045001B01000065001F01000067006E
:101530003001000049003101000069004101000054
:101540004C00420100006C00430100004E004401C9
:1015500000006E00480100006E00580100005200BB
:101560005901000072005A01000053005B010000A5
:1015700073005F010000730060010000530061010F
:10158000000073006501000074006F010000750029
:101590007C0100007A007D0100005A007E010000FD
:1015A0007A00920100006600E30200007800222029
:1015B00000002E001E210000507822210000544D12
:1015C000902100003C2D922100002D3EB021000012
:1015D0000300BB21000004003C2200007E004822E2
:1015E00000007E3D60220000213D612200003D00A0
:1015F000642200003C3D652200003E3DF1230000D6
:101600000700A03000003D0021F301000200C2F4F9
:1016100001000500A2000000EC00B0000000DF00A7
:10162000E4000000E100F6000000EF00F700000019
:10163000FD00FC000000F500E3020000EB00870362
:101640000000A5008F030000F40098030000F200E2
:101650009E030000E300A3030000F600A9030000BE
:10166000F400AC030000E000AD030000E300B103B0
:101670000000E000B2030000E200B5030000E30058
:10168000B8030000F200BC030000E400BE03000049
:10169000E300C0030000F700C1030000E600C3033D
:1016A0000000E500902100007F00922100007E00F4
:1016B0001A220000E8001E220000F3008825000026
:1016C000FF0002300000A1000C300000A2000D302D
:1016D0000000A3009B300000DE009C300000DF0013
:1016E000A03000003D00A1300000A700A2300000A3
:1016F000B100A3300000A800A4300000B200A53063
:101700000000A900A6300000B300A7300000AA0026
:10171000A8300000B400A9300000AB00AA300000DF
:10172000B500AB300000B600AC300000B6DEAD3026
:101730000000B700AE300000B7DEAF300000B800E8
:10174000B0300000B8DEB1300000B900B2300000A7
:10175000B9DEB3300000BA00B4300000BADEB530F4
:101760000000BB00B6300000BBDEB7300000BC009C
:10177000B8300000BCDEB9300000BD00BA30000057
:10178000BDDEBB300000BE00BC300000BEDEBD30A0
:101790000000BF00BE300000BFDEBF300000C00050
:1017A000C0300000C0DEC1300000C100C230000007
:1017B000C1DEC3300000AF00C4300000C200C5303D
:1017C0000000C2DEC6300000C300C7300000C3DE28
:1017D000C8300000C400C9300000C4DECA300000B8
:1017E000C500CB300000C600CC300000C700CD30B3
:1017F0000000C800CE300000C900CF300000CA0091
:10180000D0300000CADED1300000CADFD230000084
:10181000CB00D3300000CBDED4300000CBDFD5309E
:101820000000CC00D6300000CCDED7300000CCDF8A
:10183000D8300000CD00D9300000CDDEDA30000015
:10184000CDDFDB300000CE00DC300000CEDEDD304E
:101850000000CEDFDE300000CF00DF300000D0001F
:10186000E0300000D100E1300000D200E2300000A2
:10187000D300E3300000AC00E4300000D400E530D9
:101880000000AD00E6300000D500E7300000AE00FB
:10189000E8300000D600E9300000D700EA30000050
:1018A000D800EB300000D900EC300000DA00ED3059
:1018B0000000DB00EF300000DC00F2300000A6008A
:1018C000F3300000DD00F4300000B3DEF73000003C
:1018D000DCDEFA300000A6DEFB300000A500FC30A4
:1018E0000000B000FD300000A400074E0000FB0027
:1018F00086510000FC0043530000FA0064FF000022
:10190000A40065FF0000A50066FF0000A60067FFB9
:101910000000A70068FF0000A80069FF0000A90000
:101920006AFF0000AA006BFF0000AB006CFF000024
:10193000AC006DFF0000AD006EFF0000AE006FFF59
:101940000000AF0070FF0000B00071FF0000B100A8
:1019500072FF0000B20073FF0000B30074FF0000CC
:10196000B40075FF0000B50076FF0000B60077FFF9
:101970000000B70078FF0000B80079FF0000B90050
:101980007AFF0000BA007BFF0000BB007CFF000074
:10199000BC007DFF0000BD007EFF0000BE007FFF99
:1019A0000000BF0080FF0000C00081FF0000C100F8
:1019B00082FF0000C20083FF0000C30084FF00001C
:1019C000C40085FF0000C50086FF0000C60087FF39
:1019D0000000C70088FF0000C80089FF0000C900A0
:1019E0008AFF0000CA008BFF0000CB008CFF0000C4
:1019F000CC008DFF0000CD008EFF0000CE008FFFD9
:101A00000000CF0090FF0000D00091FF0000D10047
:101A100092FF0000D20093FF0000D30094FF00006B
:101A2000D40095FF0000D50096FF0000D60097FF78
:101A30000000D70098FF0000D80099FF0000D900EF
:101A40009AFF0000DA009BFF0000DB009CFF000013
:101A5000DC009DFF0000DD009EFF0000DE009FFF18
:101A60000000DF00E5FF00005C0000000000010254
:101A700004040000001C1C0C04040402010000000B
:101A8000000004081000000000002D2D2D2D2D2D2C
:101A9000007C4D61726C696E7C002D2D2D2D2D2DDD
:101AA00000001C1F11111F00000006191803130C61
:101AB00000040E1F041C000000000E1315110E0080
:101AC000001C10181705060500040A0A0A0A11115D
:101AD0000E0C12120C00000000001F1511151F0043
:101AE0000042656400456E636C6F73757265002516
:101AF00068753A25303268750025303268753A25A8
:101B000030326875002D2D2D0053440020202020F8
:101B10002020200020202020005072696E74204177
:101B2000626F72746564004D32350050617573697F
:101B30006E672E2E2E004D323400454550524F4DCB
:101B40002056657273696F6E204572726F72004520
:101B50004550524F4D20496E646578204572726F32
:101B60007200454550524F4D2043524320457272FA
:101B70006F72003F0049676E6F7265005265736552
:101B80007400496E697469616C697A6520454550D5
:101B9000524F4D0046696C2E204469612E0045204D
:101BA000696E206D6D5E3300200220466163740013
:101BB0002002204D6178002002204D696E004F66A2
:101BC00066004F6E004175746F74656D70005654F9
:101BD000726176204D696E00566D696E00566D61BA
:101BE00078204500566D6178205A00566D61782046
:101BF0005900566D6178205800416D61782045008C
:101C0000416D6178205A00416D6178205900416D25
:101C10006178205800412D54726176656C00412D29
:101C20005265747261637400416363656C0056654C
:101C30002D4A65726B00565A2D4A65726B005659D3
:101C40002D4A65726B0056582D4A65726B005072B2
:101C50006F6265205A204F66667365740050726F1C
:101C600062652059204F66667365740050726F621A
:101C7000652058204F6666736574005045544700D0
:101C8000504C4100452073746570732F6D6D005A80
:101C90002053746570732F6D6D00592053746570F7
:101CA000732F6D6D00582053746570732F6D6D0028
:101CB000416476616E6365642053657474696E6710
:101CC00073003F0043616E63656C00496E69740088
:101CD0004D34323800496E697469616C697A6520E7
:101CE000454550524F4D0046696C616D656E7400FC
:101CF00054656D70657261747572650053746570BA
:101D0000732F6D6D0050726F6265204F666673654C
:101D10007473004A65726B00416363656C65726140
:101D200074696F6E0056656C6F63697479005365F2
:101D30007420486F6D65204F666673657473004349
:101D40006F6E66696775726174696F6E003F004EF1
:101D500065787420506F696E7400446F6E65004E34
:101D600065787400486F6D696E672058595A005342
:101D7000746F72652053657474696E6773004C6F7D
:101D800061642053657474696E6773004C65766591
:101D90006C20436F726E6572730050726F626520C3
:101DA0005A204F6666736574004F6666004F6E007A
:101DB000426564204C6576656C696E67004C65769B
:101DC000656C20426564004732380A473239004763
:101DD0003239004175746F20486F6D65004D6F7426
:101DE000696F6E0053746F77004465706C6F790093
:101DF00053656C662D546573740052657365740089
:101E000053572D4D6F646500426564004E6F7A7ABA
:101E10006C650046616E20537065656400436F6EAB
:101E200066696775726174696F6E00526573746F6D
:101E300072652044656661756C7473004C6F6164F3
:101E40002053657474696E67730053746F726520F4
:101E500053657474696E6773005072656865617468
:101E6000202420436F6E6600424C546F75636800F7
:101E700050726F6265205A204F6666736574004128
:101E80006476616E6365642053657474696E67730C
:101E9000004D61696E003F004261636B0053746FD7
:101EA00070005072696E742066726F6D204D6564AB
:101EB0006961004368616E6765204D656469610012
:101EC0004D323100436F6E66696775726174696F78
:101ED0006E0054656D7065726174757265004D6F4A
:101EE00074696F6E00526573756D65205072696E0E
:101EF00074004E6F204D656469610054756E650015
:101F000053746F70205072696E7400506175736500
:101F1000205072696E7400496E666F20536372655B
:101F2000656E003F005374617274205072696E7464
:101F30000043616E63656C005072696E74004361AA
:101F40006E6E6F7420656E7465722073756264695D
:101F5000723A2000052E2E004D61696E0021004866
:101F60006F74656E6420746F6F20636F6C640042E1
:101F700061636B0050726F63656564004D6F7469D7
:101F80006F6E0044697361626C6520537465707094
:101F9000657273004D3834004D34382050726F62D2
:101FA00065205465737400473238204F0A4D343829
:101FB0002050313000426564204C6576656C696E56
:101FC0006700486F6D65205A004732385A00486FE5
:101FD0006D652059004732385900486F6D652058AB
:101FE0000047323858004175746F20486F6D6500A6
:101FF000473238004D61696E0050726568656174E2
:10200000202420456E640050726568656174202448
:10201000204265640054656D706572617475726507
:1020200000801C7B1C436F6F6C646F776E00507276
:10203000656865617420240046616E205370656593
:102040006400426564004E6F7A7A6C65004D616988
:102050006E00466C6F770046616E20537065656454
:1020600000426564004E6F7A7A6C65005370656556
:1020700064004D61696E006F70656E00545249478F
:102080004745524544003A20007A5F6D696E0079F9
:102090005F6D696E00785F6D696E005265706F727A
:1020A00074696E6720656E6473746F7020737461F9
:1020B0007475730A00486F6D652025732573257349
:1020C00020466972737400486F6D696E67204661BF
:1020D000696C65640000002041000020C100000020
:1020E000005761726E696E673A20486F6D696E675E
:1020F0002042756D702044697669736F72203C20B0
:10210000310A000202040000A0400000A0400000CC
:10211000004000003A4300003B4300003943FFFF0A
:10212000FF0000000100000001000080005555552F
:10213000000000400033333300AAAA2A0049922449
:102140000000002000C7711C0099991900D14517A3
:1021500000555515003BB11300244912001111110F
:1021600000000010000F0F0F00E3380E0043790D40
:1021700000CCCC0C00C3300C00E8A20B0064210B97
:1021800000AAAA0A00703D0A009DD80900427B09F6
:102190000092240900DCD308008888080010420857
:1021A0000000000800F0C10700878707007550078E
:1021B00000711C07003EEB0600A1BC0600699006FA
:1021C0000066660600703E06006118060017F405FA
:1021D0000074D105005BB00500B290050062720585
:1021E000005555050078390500B81E0500050505A0
:1021F000004EEC040087D40400A1BD040090A704A5
:102200000049920400C17D0400EE690400C7560431
:1022100000444404005C320400082104004110041E
:1022200000000004003FF00300F8E0030026D203A2
:1022300000C3C30300CCB503003AA803000A9B0304
:1022400000388E0300C08103009F750300D069032E
:1022500000505E03001D53030034480300913D030A
:10226000003333030016290300381F0300971503BA
:1022700000300C0300030303000BFA020049F102D3
:1022800000BAE802005CE002002DD802002DD00266
:102290000059C80200B0C0020031B90200DAB10230
:1022A00000AAAA0200A0A30200BC9C0200FA9502A8
:1022B000005C8F0200DF88020082820200457C02FF
:1022C000002776020027700200436A02007C640245
:1022D00000D05E02003F590200C8530200FFFDFC1F
:1022E000FAF8F6F4F2F0EEECEAE9E7E5E3E1E0DE35
:1022F000DCDAD9D7D5D4D2D0CFCDCBCAC8C7C5C3E5
:10230000C2C0BFBDBCBAB9B7B6B4B3B2B0AFADAC62
:10231000AAA9A8A6A5A4A2A1A09E9D9C9A999897B7
:1023200095949392908F8E8D8B8A898887868483EB
:102330008281807F7E7D7B7A7978777675747372FF
:1023400071706F6E6D6C6B6A6968676665646362F5
:1023500061605F5E5D5C5B5A5958585756555453DF
:10236000525150504F4E4D4C4B4A4A4948474646B1
:10237000454443424241403F3E3E3D3C3B3B3A396F
:10238000383837363535343332323130302F2E2E1F
:102390002D2C2B2B2A2929282727262525242323C2
:1023A00022212120201F1E1E1D1C1C1B1B1A191957
:1023B0001818171616151514131312121111100FE1
:1023C0000F0E0E0D0D0C0C0B0A0A09090808070761
:1023D0000606050504040303020201000000004490
:1023E0004300003143000039430000204100002039
:1023F000C10000000053657474696E6773205374E4
:102400006F726564000000C8430000C8430000000C
:1024100040000034420000A3420000A3425258C8CA
:10242000430000D8428813000088130000320000E7
:1024300000881300003B20003A0A0020204D383568
:10244000312058005A2D50726F6265204F666673B6
:1024500065740020440020490020204D3330312095
:1024600050005049442073657474696E67733A0074
:1024700020460020420020480020204D31343520E5
:1024800053004D6174657269616C20686561747593
:102490007020706172616D65746572733A002020FE
:1024A0004D3432302053004175746F2042656420F2
:1024B0004C6576656C696E673A0020204D32303687
:1024C000205800486F6D65206F66667365743A002A
:1024D00020580020530020204D323035204200414A
:1024E0006476616E6365643A20423C6D696E5F7329
:1024F00065676D656E745F74696D655F75733E20A9
:10250000533C6D696E5F66656564726174653E20FB
:10251000543C6D696E5F74726176656C5F6665656B
:1025200064726174653E20583C6D61785F785F6AC3
:1025300065726B3E20593C6D61785F795F6A6572A8
:102540006B3E205A3C6D61785F7A5F6A65726B3EC4
:1025500020453C6D61785F655F6A65726B3E002067
:10256000540020520020204D32303420500041636E
:1025700063656C65726174696F6E2028756E69742D
:10258000732F7332293A20503C7072696E745F6108
:102590006363656C3E20523C726574726163745F64
:1025A000616363656C3E20543C74726176656C5F58
:1025B000616363656C3E0020204D3230312058004D
:1025C0004D6178696D756D20416363656C657261FD
:1025D00074696F6E2028756E6974732F7332293A8F
:1025E0000020204D3230332058004D6178696D75E0
:1025F0006D206665656472617465732028756E6907
:1026000074732F73293A0053746570732070657268
:1026100020756E69743A0020440020204D3230301D
:102620002053002044697361626C65640A00466946
:102630006C616D656E742073657474696E67733A4E
:102640000020204D3134392043203B20556E6974E1
:102650007320696E2043656C736975730A002028C6
:102660006D6D29002020473231202020203B20554D
:102670006E69747320696E206D6D0024F4D430503F
:10268000C38E20C2A24017828B7011127A910D81E5
:102690006CD90AA861E108C7586607615143061E54
:1026A0004B5D05C145A7041A411104093D9803710A
:1026B0003931034036DB0265339102D43054028055
:1026C0002E1D02632CEE01752AC501B028A0011051
:1026D0002781018F2564012B244B01E0223401ACBA
:1026E000211F018D200D01801FFC00841EED00972D
:1026F0001DDF00B81CD200E61BC600201BBC006416
:102700001AB200B219A8000A19A0006A189900D1DB
:1027100017910040178B00B516840031167E00B368
:102720001579003A157300C7146F0058146A00EE4B
:102730001366008813630025135E00C7125B006CEC
:1027400012570015125400C111510070114F002191
:10275000114B00D61049008D10470046104400026E
:10276000104200C00F4000800F3E00420F3C0006A8
:102770000F3B00CB0E3800930E37005C0E35002760
:102780000E3400F30D3200C10D3100900D300060A9
:102790000D2E00320D2D00050D2C00D90C2B00AE96
:1027A0000C2900850C29005C0C2700350C27000E35
:1027B0000C2600E80B2400C40B2400A00B23007D92
:1027C0000B23005A0B2100390B2100180B2000F8B5
:1027D0000A1F00D90A1E00BB0A1E009D0A1D0080A8
:1027E0000A1D00630A1C00470A1B002C0A1B00116B
:1027F0000A1A00F7091A00DD091900C4091900AB0B
:10280000091900920917007B091800630917004C89
:1028100009160036091600200916000A091500F5E8
:10282000081500E0081400CC081400B8081400A42F
:10283000081400900813007D0812006B081300585C
:102840000812004608120034081100230811001273
:1028500008110001081100F0071000E0071000D077
:10286000071000C0071000B0070F00A1071000916B
:10287000070E0083070F0074070F0065070E00574F
:10288000070E0049070E003B070D002E070E002023
:10289000070D0013070D0006070D00F9060C00EDEB
:1028A000060D00E0060C00D4060C00C8060C00BCA7
:1028B000060C00B0060C00A4060B0099060C008D57
:1028C000060B0082060B0077060B006C060B0061FE
:1028D000060A0057060B004C060A0042060A00389A
:1028E000060A002E060A0024060A001A060A00102C
:1028F00006090007060A00FD050900F4050900EBBA
:10290000050900E2050900D9050900D0050900C73D
:10291000050900BE050900B5050800AD050800A5BC
:102920000509009C050800940508008C0508008432
:102930000508007C050800740508006C05070065A3
:102940000508005D050700560508004E050700470D
:102950000507004005080038050700310507002A73
:10296000050700230507001C050600160507000FD4
:102970000507000805060002050700FB040600F530
:10298000040700EE040600E8040600E2040700DB8A
:10299000040600D5040600CF040600C9040600C3DF
:1029A000040600BD040600B7040600B1040500AC2F
:1029B000040600A6040600A00405009B040600957A
:1029C000040500900406008A0405008504050080C3
:1029D0000406007A04050075040500700405006B08
:1029E00004050066040500610405005C0405005749
:1029F000040500520405004D040500480405004389
:102A00000405003E0404003A0405003504050030C6
:102A10000404002C04050027040400230405001E00
:102A20000404001A04040016040500110404000D37
:102A3000040400090405000404040000040400FC6C
:102A4000030400F8030400F4030400F0030400ECA2
:102A5000030400E8030400E4030400E0030400DCD2
:102A6000030400D8030400D4030400D0030400CC02
:102A7000030400C8030300C503030024F404D920A1
:102A80001BC40C5C0E9804C4095F0265077101F455
:102A900005F900FB04B30048048700C1036900582E
:102AA00003550003034500BE023A0084023100537F
:102AB000022A002902250004022000E4011C00C8AB
:102AC000011900AF0117009801140084011300716F
:102AD0000110006101100051010E0043010D00368C
:102AE000010B002B010B0020010B00150109000C4C
:102AF00001090003010800FB000800F3000800EBD7
:102B0000000700E4000600DE000600D8000600D240
:102B1000000600CC000500C7000500C2000500BD8E
:102B2000000400B9000400B5000400B1000400ADC9
:102B3000000400A9000400A5000300A20003009FF8
:102B40000004009B0003009800030095000200931E
:102B5000000300900003008D0002008B000300883A
:102B60000002008600020084000300810002007F52
:102B70000002007D0002007B000200790002007765
:102B80000001007600020074000200720001007172
:102B90000002006F0002006D0001006C0002006A7C
:102BA0000001006900020067000100660001006585
:102BB0000001006400020062000100610001006089
:102BC0000001005F0002005D0001005C0001005B8D
:102BD0000001005A0001005900010058000100578F
:102BE000000100560001005500010054000100538F
:102BF000000000530001005200010051000100508C
:102C00000001004F0001004E0000004E0001004D89
:102C10000001004C0001004B0000004B0001004A85
:102C20000001004900010048000000480001004781
:102C3000000100460000004600010045000000457C
:102C40000001004400010043000000430001004275
:102C5000000000420001004100000041000100406E
:102C60000001003F0000003F0001003E0000003E68
:102C70000001003D0000003D0001003C0000003C60
:102C80000000003C0001003B0000003B0001003A56
:102C90000000003A0001003900000039000100384E
:102CA0000000003800000038000100370000003745
:102CB000000100360000003600000036000100353B
:102CC0000000003500000035000100340000003431
:102CD0000000003400010033000000330000003326
:102CE000000100320000003200000032000100311B
:102CF0000000003100000031000100300000003011
:102D0000000000300001002F0000002F0000002F05
:102D10000000002F0001002E0000002E0000002EF9
:102D20000001002D0000002D0000002D0000002DEE
:102D30000001002C0000002C0000002C0000002CE2
:102D40000001002B0000002B0000002B0000002BD6
:102D50000001002A0000002A0000002A0000002ACA
:102D600000010029000000290000002900000029BE
:102D700000000029000100280000002800000028B1
:102D800000000028000000280001002700000027A4
:102D90000000002700000027000000270001002697
:102DA000000000260000002600000026000000268B
:102DB000000100250000002500000025000000257E
:102DC0000000002500000025000100240000002470
:102DD0000000002400000024000000240001002363
:102DE0000000002300000023000000230000002357
:102DF0000000002300000023000100220000002248
:102E0000000000220000002200000022000000223A
:102E1000000100210000002100000021000000212D
:102E2000000000210000002100000021000100201E
:102E30000000002000000020000000200000002012
:102E40000000002000000020000000200001001F02
:102E50000000001F0000001F0000001F0000001FF6
:102E60000000001F0000001F0001001E0000001EE7
:102E70000000001E0000001E00000039300000337A
:102E800025000087190000B00F0000DB080000BD1E
:102E9000040000740200003F01000020436F756EC3
:102EA0007420583A00426564004531006265640050
:102EB0002C2073797374656D2073746F7070656402
:102EC00021204865617465725F49443A2000486575
:102ED0006174696E67204661696C6564004865616C
:102EE00074696E67206661696C6564005448455278
:102EF0004D414C2052554E4157415900546865721E
:102F00006D616C2052756E61776179004572723A1D
:102F1000204D415854454D50004D415854454D5059
:102F200020747269676765726564004572723A2041
:102F30004D494E54454D50004D494E54454D50203D
:102F400074726967676572656400202F00204240D3
:102F50003A0020403A000009121B242D363F484118
:102F60005A536C657E7719100B023D342F26515849
:102F7000434A757C676E323B2029161F040D7A7315
:102F800068615E574C452B2239300F061D14636A69
:102F90007178474E555C646D767F4049525B2C25B5
:102FA0003E3708011A137D746F6659504B42353C09
:102FB000272E1118030A565F444D727B60691E1755
:102FC0000C053A3328214F465D546B627970070E29
:102FD000151C232A31384148535A656C777E090005
:102FE0001B122D243F3658514A437C756E671019C9
:102FF000020B343D262F737A6168575E454C3B3295
:1030000029201F160D046A6378714E475C55222BE8
:103010003039060F141D252C373E0108131A6D6434
:103020007F7649405B523C352E2718110A03747D88
:10303000666F5059424B171E050C333A21285F56D4
:103040004D447B7269600E071C152A233831464FA8
:10305000545D626B70797C3C3E5E2B3D3F2F5B5D27
:103060003B2C2A225C0043616E6E6F74206F70658A
:103070006E207375626469722000534420496E6942
:1030800074204661696C0053442063617264206F50
:103090006B0A006F70656E526F6F74206661696CA9
:1030A00065640A00766F6C756D652E696E697420B3
:1030B0006661696C65640A004E6F20534420636149
:1030C00072640A000A4D3234004D323320257300F9
:1030D0002E0A006F70656E206661696C65642C2035
:1030E00046696C653A200046696C652073656C65BD
:1030F000637465640A002053697A653A2000466962
:103100006C65206F70656E65643A2000454E442002
:10311000535542524F5554494E450A002220706F74
:1031200073002220706172656E743A22005355421A
:10313000524F5554494E452043414C4C20746172C6
:103140006765743A220053756263616C6C204F7638
:103150006572666C6F7700457863656564656420A9
:103160006D617820535542524F5554494E45206465
:10317000657074683A0057726974696E6720746F7D
:103180002066696C653A2000667265736800646F3A
:10319000696E67002066696C653A20004E6F772083
:1031A000002F6175746F25632E670000000A0B0203
:1031B000090C0D0E080703040100000000000000C8
:1031C00000000000000000000000000000000000FF
:1031D00000000000000000121110000000000000BC
:1031E00000000000000000000000000000000000DF
:1031F00000026D61726C696E66772E6F7267006D8A
:1032000061726C696E66772E6F7267006D61726CA9
:10321000696E66772E6F7267006275676669782DD2
:10322000322E302E78006275676669782D322E3026
:103230002E78006275676669782D322E302E780000
:103240006D61726C696E66772E6F7267006D617268
:103250006C696E66772E6F7267006D61726C696E55
:1032600066772E6F726700206275676669782D3207
:103270002E302E780070012C0190012701B0012220
:1032800001C0011D01F00118011002130130020EEE
:10329000016002090190020401C002FF000003FA6C
:1032A000004003F5008003F000D003EB002004E6AB
:1032B000007004E100E004DC004005D700C005D246
:1032C000004006CD00D006C8008007C3003008BE0D
:1032D00000F008B900C009B400B00AAF00B00BAAF2
:1032E00000D00CA500000EA000500F9B00C010964F
:1032F000005012910000148C00C0158700B0178296
:1033000000B0197D00D01B7800001E730040206EB5
:103310000090226900F024640040275F0090295A41
:1033200000E02B5500102E500020304B001032468C
:1033300000E033410090353C0010373700703832E0
:1033400000A0392D00B03A2800A03B2300603C1EAD
:1033500000103D1900903D1400103E0F00703E0A11
:1033600000C03E0500003F0000403FFBFF803FF6ED
:10337000FFC03FF1FF2020506C616E6E6572427598
:103380006666657242797465733A200020467265FC
:1033900065204D656D6F72793A2000436F6D7069DD
:1033A0006C65643A204A616E20203420323032311C
:1033B0000A00204C61737420557064617465643A2E
:1033C00020323032312D30312D3033207C20417588
:1033D00074686F723A206A6F6E7361670A00627573
:1033E000676669782D322E302E780A004D61726C36
:1033F000696E0020536F6674776172652052657341
:1034000065740A00205761746368646F67205265B1
:103410007365740A002042726F776E206F75742096
:1034200052657365740A002045787465726E616C2C
:103430002052657365740A00506F77657255700A83
:103440000073746172740A004732385859004D3164
:10345000303031006572726F722077726974696EF4
:103460006720746F2066696C650A00446F6E652082
:10347000736176696E672066696C652E0A004D324D
:103480003900456E6473746F707300255320256393
:1034900020256320256320256300205A3A00205907
:1034A0003A0020583A00656E6473746F7073206838
:1034B00069743A2000004D6F76652025736D6D00AC
:1034C0004D6F766520302E316D6D004D6F76652025
:1034D000316D6D004D6F76652031306D6D004D6F33
:1034E00076652041786973004578747275646572F9
:1034F000004D6F7665205A004D6F76652059004D5E
:103500006F76652058005072696E742066726F6D18
:10351000204D656469610050726F62696E67204674
:1035200061696C65640A0050726F62696E6720465B
:1035300061696C656400205A3A200020593A2000E5
:1035400042656420583A2000220A00556E6B6E6F67
:10355000776E20636F6D6D616E643A20220047655F
:103560006565746563682069332050726F2042205E
:1035700052656164792E005072696E74696E672EAF
:103580002E2E005072696E74205061757365640050
:10359000204500205A00205900204D393220580083
:1035A00020453A00205A3A0020593A00583A002063
:1035B000746F6F206C6F6E672065787472757369B5
:1035C0006F6E2070726576656E7465640A002063A4
:1035D0006F6C6420657874727573696F6E20707299
:1035E0006576656E7465640A0000002110422063F0
:1035F000308440A550C660E770088129914AA16BCC
:10360000B18CC1ADD1CEE1EFF13112100273325263
:1036100022B5529442F772D662399318837BB35A1B
:10362000A3BDD39CC3FFF3DEE36224433420040133
:1036300014E664C774A44485546AA54BB52885096B
:1036400095EEE5CFF5ACC58DD55336722611163003
:1036500006D776F6669556B4465BB77AA7199738BB
:1036600087DFF7FEE79DD7BCC7C448E5588668A743
:10367000784008611802282338CCC9EDD98EE9AF0B
:10368000F9488969990AA92BB9F55AD44AB77A96A3
:103690006A711A500A333A122AFDDBDCCBBFFB9E5B
:1036A000EB799B588B3BBB1AABA66C877CE44CC573
:1036B0005C222C033C600C411CAEED8FFDECCDCDAB
:1036C000DD2AAD0BBD688D499D977EB66ED55EF443
:1036D0004E133E322E511E700E9FFFBEEFDDDFFCFB
:1036E000CF1BBF3AAF599F788F8891A981CAB1EBA0
:1036F000A10CD12DC14EF16FE18010A100C230E3C9
:10370000200450254046706760B9839893FBA3DA84
:10371000B33DC31CD37FE35EF3B1029012F322D218
:10372000323542145277625672EAB5CBA5A8958914
:10373000856EF54FE52CD50DC5E234C324A0148168
:10374000046674476424540544DBA7FAB79987B824
:10375000975FE77EF71DC73CD7D326F2369106B0B8
:103760001657667676154634564CD96DC90EF92F24
:10377000E9C899E9898AB9ABA94458654806782708
:1037800068C018E1088238A3287DCB5CDB3FEB1EC4
:10379000FBF98BD89BBBAB9ABB754A545A376A1658
:1037A0007AF10AD01AB32A923A2EFD0FED6CDD4D54
:1037B000CDAABD8BADE89DC98D267C076C645C45A8
:1037C0004CA23C832CE01CC10C1FEF3EFF5DCF7C64
:1037D000DF9BAFBABFD98FF89F176E367E554E74F8
:1037E0005E932EB23ED10EF01E000022002500286E
:1037F000002B002E003100340002010000050108FA
:10380000010B0100002100240027002A002D0030B8
:1038100000330001010000040107010A010505054C
:1038200005070508080808020202020A0A08080437
:103830000404040101010101010101030303030365
:10384000030303040707070C0C0C0C0C0C0C0C02F4
:1038500002020206060606060606060B0B0B0B0BFB
:103860000B0B0B01021020200808102040102040F4
:103870008002010201080402010102040810204034
:103880008080402010080402018004020180402052
:10389000100804020108040201010204081020407B
:1038A00080010204081020408000420124011124FC
:1038B0001FBECFEFD1E2DEBFCDBF00E00CBF13E0F3
:1038C000A0E0B2E0EEE0F7E302E00BBF02C0079039
:1038D0000D92A232B107D9F723E1A2E2B3E001C011
:1038E0001D92A23FB207E1F71CE1C6E5DCE100E072
:1038F00006C021970109802FFE010F94F71AC535E4
:10390000D10780E00807A9F70F94D5040D94751B23
:103910000C940000FC0184910895FC0180810895BD
:10392000AF92BF92CF92DF92EF92FF920F931F93CD
:10393000CF93DF93EC015B018A01FB01199587FDB1
:1039400016C0C82ED12CF12CE12C2196F801C08292
:10395000D182E282F382CE01DF91CF911F910F914C
:10396000FF90EF90DF90CF90BF90AF900895982F89
:10397000907E903CA9F48F7190E0B0E0A0E06C01E3
:103980007D0156E0CC0CDD1CEE1CFF1C5A95D1F7D6
:10399000CE010196F50119958F73C82A2296D6CFCC
:1039A000982F907F903E11F58F7090E0B0E0A0E0EE
:1039B0006C017D0136E0CC0CDD1CEE1CFF1C3A9541
:1039C000D1F7CE010196F50119958F73C82A46E00B
:1039D000CC0CDD1CEE1CFF1C4A95D1F7CE010296E3
:1039E000F50119958F73C82A2396B0CF982F987F29
:1039F000903F79F5877090E0B0E0A0E06C017D0128
:103A000086E0CC0CDD1CEE1CFF1C8A95D1F7CE01A4
:103A10000196F50119958F73C82A96E0CC0CDD1C30
:103A2000EE1CFF1C9A95D1F7CE010296F50119956F
:103A30008F73C82A26E0CC0CDD1CEE1CFF1C2A95D7
:103A4000D1F7CE010396F50119958F73C82A2496F4
:103A50007DCF982F907C903841F4807C803869F439
:103A60002196CE01F5011995F8CF8E7F8D3F28F074
:103A70002196CE01F5011995F8CFC12CD12C7601F4
:103A800065CFCF93DF93DB01F9019C919130C1F0B9
:103A9000943080F094509C938830D1F4808191814F
:103AA000009771F0019791838083480F591FEA01B5
:103AB000188206C08C3539F49C5F9C93943041F495
:103AC000DF91CF9108958B3339F781E08C93F8CF54
:103AD00020813181B9016F5F7F4F71836083420F15
:103AE000531FEA018883808191818F3591056CF79E
:103AF000E7CF0F931F9381E00091081110910911F6
:103B000020910A1130910B1140910411509105112F
:103B100060910611709107110417150726073707E2
:103B200008F480E01F910F910895282F9091AE0323
:103B3000833021F495FD0FC094FD0FC0892F90E0D4
:103B4000B0E0A0E004C0B695A795979587952A9513
:103B5000D2F78170089581E0089580E00895A09AD9
:103B60000895809A889808950C943D9B0C943D9BF1
:103B70000C943D9B0C943D9B0C94EF9A0C94EF9A03
:103B80000C94EF9A0C94EF9A63E972E084E690E06B
:103B90000E9451BC6AEB72E084E690E00C9451BC48
:103BA00081110C94C41D68EB71E084E190E00C94E9
:103BB00051BC80915002882341F06091AF04709114
:103BC000B00441E081E00C94C7E508950E9422957D
:103BD0000C94D01D0E94CBD10C94D01D0E94C7AE76
:103BE0000C94C41DEF92FF920F931F93CF93DF931A
:103BF00000D000D01F921F92CDB7DEB78E010F5FAD
:103C00001F4FD80130E020E0FB01E20FF31FE491E9
:103C1000ED932F5F3F4F28303105B1F7877028E0D3
:103C2000829FC001112480640E94CBEB780188E060
:103C3000E80EF11CF80161918F0187ED9FE00E9471
:103C400075ECE016F106B1F728960FB6F894DEBFD2
:103C50000FBECDBFDF91CF911F910F91FF90EF90DD
:103C60000895CF92DF92EF92FF920F931F93CF931D
:103C7000DF9300D000D0CDB7DEB78A0146E0469F83
:103C80009001479F300D1124BC01620F731F46E065
:103C900050E0CE0101960F942210C980DA80EB80AB
:103CA000FC80F80140815181628173818FEF9FEF29
:103CB000C416D506E606F70640F081E090E04C1504
:103CC0005D056E057F0508F080E026960FB6F89436
:103CD000DEBF0FBECDBFDF91CF911F910F91FF903F
:103CE000EF90DF90CF9008950F931F93CF93DF93C2
:103CF000CDB7DEB72E970FB6F894DEBF0FBECDBF9F
:103D00008A011E861D866F83788789879A872FEFA1
:103D10002B87603871058105910538F487ED9FE0A8
:103D20000E9475EC81E090E02FC09E01235F3F4F21
:103D3000AE01495F5F4F69EB70E084E196E10E945C
:103D400046D397FD2CC08D859E8526E0289FB00127
:103D5000299F700D11246C5E794E46E050E0CE0133
:103D600001960F9422106D8187ED9FE00E9475EC03
:103D700001301105B9F26E816623A1F287ED9FE053
:103D80000E9475EC82E090E02E960FB6F894DEBFAC
:103D90000FBECDBFDF91CF911F910F9108959E016E
:103DA000235F3F4FAE01495F5F4F63E670E082ECF7
:103DB00093E10E9446D397FD0BC08D859E8526E03A
:103DC000289FB001299F700D11246E537C4EC5CFE2
:103DD0006FE3A4CF8091A3039091A403009731F0E7
:103DE0004AE050E070E060E00D94160F60E070E093
:103DF000CB0108958091A3039091A403009731F023
:103E00004AE050E070E060E00D94E80D60E070E0A2
:103E1000CB0108950E94FA1ECB0108950E94FA1E5C
:103E200097FD0CC00E94FA1E6F3F71058105910538
:103E300009F034F40E94FA1E862F089580E0089558
:103E40008FEF08958091A3039091A403892B41F0F3
:103E50000E940E1F91E0811101C090E0892F08950A
:103E600091E0FCCFCF92DF92EF92FF920F931F93DE
:103E7000CF93DF936B017A01EC01CE5CDC4F28819C
:103E80003CE0389F8001399F100D112427FF24C08A
:103E9000FB011182108288818F5F8883888198015D
:103EA000280F311D87FD3A95C9012091760FF60143
:103EB0002817190629F024F088818C300CF43CC0B6
:103EC00080819181049680349C4908F475C0F60184
:103ED00080819181049672C088819801280F311DDC
:103EE00087FD3A95C9012091760F2817190699F296
:103EF00094F28881A801480F511D87FD5A95FA0157
:103F0000EE0FFF1FE40FF51FE25DF04F808187FF8A
:103F1000C2CF8881F801E80FF11D87FDFA95CF0126
:103F2000EE0FFF1FE80FF91FE25DF04F808160E0A8
:103F30008F770E940AEAAFCF808191812881A80102
:103F4000420F511D27FD5A959A01FA01EE0FFF1FEE
:103F5000E20FF31FE25DF04F21813281820F931F48
:103F6000F7019183808388819801280F311D87FD97
:103F70003A95F901EE0FFF1FE20FF31FE25DF04FDC
:103F8000808187FF20C08881080F111D87FD1A9549
:103F9000F801EE0FFF1FE00FF11FE25DF04F80818F
:103FA00061E08F77DF91CF911F910F91FF90EF909C
:103FB000DF90CF900C940AEA80E49CE9F7019183AA
:103FC00080838FEF8883DF91CF911F910F91FF90B6
:103FD000EF90DF90CF900895CF93DF9300D01F92A2
:103FE000CDB7DEB70F9416190F94001169837A8349
:103FF0008B839C83CE0101960E94F7B50F900F90A2
:104000000F900F90DF91CF9108958F929F92AF9272
:10401000BF92CF92DF92EF92FF92CF936B017C0120
:1040200020E030E0A9010F94FB1087FD9FC06DEBED
:1040300077E386E095E3A70196010F94A3176B0140
:104040007C0120E030E040E251E40F94611120E077
:1040500030E048EC52E40F9461114B015C0120E028
:1040600030E0A901C701B6010F94FB1020E030E059
:1040700040EA50E487FF04C020E030E040EA50EC22
:10408000C501B4010F94A31720E030E040E251E4F1
:104090000F949D180F940F196B017C018BE2F7FEB2
:1040A00009C0F094E094D094C094C11CD11CE11CD0
:1040B000F11C8DE28093E807C701B60120E137E2E9
:1040C00040E050E00F9461178AE0882E912CA12CDB
:1040D000B12CCA01B901A50194010F946117605D6B
:1040E0006093E907C701B60128EE33E040E050E0F5
:1040F0000F946117CA01B901A50194010F946117CA
:10410000605D6093EA07C701B60124E630E040E055
:1041100050E00F946117CA01B901A50194010F94F1
:104120006117605D6093EB078EE28093EC07C70137
:10413000B601A50194010F946117C62FCA01B901F8
:10414000A50194010F946117605D6093ED07C05D58
:10415000C093EE0788EE97E0CF91FF90EF90DF904D
:10416000CF90BF90AF909F908F9008956DEB77E3C5
:1041700086E095EB60CF8F929F92AF92BF92CF92E5
:10418000DF92EF92FF926B017C0120E030E0A90109
:104190000F94FB1087FD6BC06DEB77E386E095E332
:1041A000A70196010F94A3176B017C0120E030E07A
:1041B00040E251E40F94611120E030E040E251E42C
:1041C0000F9461114B015C0120E030E0A901C701AF
:1041D000B6010F94FB1020E030E040EA50E487FF86
:1041E00004C020E030E040EA50ECC501B4010F9477
:1041F000A31720E030E040E251E40F949D180F94A3
:104200000F199B018BE237FF05C022273327261B9E
:10421000370B8DE28093EA07C90164E670E00F94E2
:10422000E31ACB01EAE0F0E0BF010F94E31A805DEE
:104230008093EB07C901BF010F94E31A282FCB012C
:10424000BF010F94E31A805D8093EC078EE28093A8
:10425000ED07205D2093EE078AEE97E0FF90EF9048
:10426000DF90CF90BF90AF909F908F9008956DEBAF
:1042700077E386E095EB94CF8F929F92AF92BF92B7
:10428000CF92DF92EF92FF92CF936B017C0120E0FF
:1042900030E0A9010F94FB1087FDAAC06DEB77E316
:1042A00086E095E3A70196010F94A3176B017C01AB
:1042B00020E030E0A9010F94FB1087FF9EC0C701EA
:1042C000B601905820E030E040E251E40F946111D3
:1042D00020E030E040E251E40F94611120E030E052
:1042E00040EA50E40F94A31720E030E040E251E4AC
:1042F0000F949D180F940F196B017C0180E280933D
:10430000E80760E280E1C81687E2D806E104F1041C
:104310008CF0C701B60120E137E240E050E00F9495
:104320006117CA01B9012AE030E040E050E00F9483
:104330006117605D6093E90760E288EEC81683E06C
:10434000D806E104F1048CF0C701B60128EE33E091
:1043500040E050E00F946117CA01B9012AE030E053
:1043600040E050E00F946117605D6093EA0760E2FF
:1043700084E6C816D104E104F1048CF0C701B6014B
:1043800024E630E040E050E00F946117CA01B90123
:104390002AE030E040E050E00F946117605D6093E8
:1043A000EB078AE0882E912CA12CB12CC701B60115
:1043B000A50194010F946117C62FCA01B901A50187
:1043C00094010F946117605D6093EC078EE2809317
:1043D000ED07C05DC093EE0788EE97E0CF91FF90A8
:1043E000EF90DF90CF90BF90AF909F908F90089507
:1043F0006DEB77E386E095EB55CF20E030E040E2CF
:1044000051E4C701B60162CFCF92DF92EF92FF92E3
:10441000CF93DF9300D01F92CDB7DEB76B017C0145
:1044200020E030E0A9010F94FB1087FD1BC06DEB6D
:1044300077E386E095E3A70196010F94A3176983BC
:104440007A838B839C83CE0101960E94F7B50F90EF
:104450000F900F900F90DF91CF91FF90EF90DF9032
:10446000CF9008956DEB77E386E095EBE4CF8F92E4
:104470009F92AF92BF92CF92DF92EF92FF92CF9333
:104480006B017C0120E030E0A9010F94FB1087FF55
:10449000A3C06DEB77E386E095EBA70196010F943F
:1044A000A3176B017C0120E030E040E251E40F945F
:1044B000611120E030E048EC52E40F9461114B01AF
:1044C0005C0120E030E040E251ECC701B6010F94FE
:1044D000FB10181654F420E030E048EC52E4C70119
:1044E000B6010F94031A87FD8BC020E030E0A901CC
:1044F000C701B6010F94FB1087FF73C060E070E046
:1045000080EA90ECA50194010F94A31720E030E01D
:1045100040E251E40F949D180F940F196B017C0138
:10452000F7FC64C020E137E240E050E00F946117EF
:10453000CA01B9012AE030E040E050E00F94611771
:10454000605D6093E907C701B60128EE33E040E003
:1045500050E00F9461179AE0892E912CA12CB12C78
:10456000CA01B901A50194010F946117605D6093C0
:10457000EA07C701B60124E630E040E050E00F94BE
:104580006117CA01B901A50194010F946117605D1B
:104590006093EB078EE28093EC07C701B601A5019B
:1045A00094010F946117C62FCA01B901A5019401A6
:1045B0000F946117605D6093ED07C05DC093EE07D7
:1045C00089EE97E0CF91FF90EF90DF90CF90BF9072
:1045D000AF909F908F9008956DEB77E386E095E321
:1045E0005CCF60E070E080EA90E48CCFF094E094DF
:1045F000D094C094C11CD11CE11CF11C6DE2A1CF70
:1046000020E030E0A901C701B6010F94FB1087FF3D
:104610006AC060E070E080EA90ECA50194010F941C
:10462000A31720E030E040E251E40F949D180F946E
:104630000F194B015C0120E030E0A901C701B60170
:104640000F94031A87FD0BC020E030E040E251E4F4
:10465000C701B6010F94FB1060E287FD13C0B7FCE1
:1046600047C0C501B40128EE33E040E050E00F94AC
:104670006117CA01B9012AE030E040E050E00F9430
:104680006117605D6093EA07C501B40124E630E07C
:1046900040E050E00F9461178AE0C82ED12CE12C45
:1046A000F12CCA01B901A70196010F946117605D51
:1046B0006093EB078EE28093EC07C501B401A7017C
:1046C00096010F946117C62FCA01B901A70196017F
:1046D0000F946117605D6093ED07C05DC093EE07B6
:1046E0008AEE97E06FCF60E070E080EA90E495CFCB
:1046F000B094A09490948094811C911CA11CB11C36
:104700006DE2C0CFCF92DF92EF92FF926B017C01FE
:1047100020E030E0A9010F94FB1087FD26C06DEB6F
:1047200077E386E095E3A70196010F94A3176B0149
:104730007C0120E030E0A9010F94FB1020E030E084
:1047400040E05FE387FF04C020E030E040E05FEB43
:10475000C701B6010F94A3170F940F19CB01FF9057
:10476000EF90DF90CF900C9424B76DEB77E386E069
:1047700095EBD9CF80918B0F90918C0F891B8F7007
:1047800051F480912108813031F080910C1182FB2D
:10479000882780F9089581E00895E091AE04E6301D
:1047A00010F581E08E0F8093AE044091F607509192
:1047B000F7076091F8077091F9079091F0078091E1
:1047C000F10728E0E29FF0011124E258FB4F20910D
:1047D000D50F3091D60F3183208342835383648376
:1047E0007583968387830895CF93DF93CDB7DEB724
:1047F0008E819091AD0E891768F08093AD0E9E0169
:10480000275F3F4F4F81588568E270E084E89EE063
:104810000F94C210DF91CF9108950F931F93CF9300
:10482000DF938C016F3F19F41092AD0E60E0209180
:10483000AD0E862F062E000C990B2817190609F0CD
:10484000F4F46093AD0EC8010F944810800F911FCF
:10485000EC01C01BD10BC932D1053CF00197FC0122
:104860002491207C2038D1F3F3CFDD27AE01B801AD
:1048700084E89EE00F946910CC57D14F1882DF91E5
:10488000CF911F910F9108950F931F930E94E6EC13
:10489000009171041091720420917304309174049A
:1048A000601B710B820B930B97FD0CC0809109016B
:1048B0008095881F8827881F919B82604A9B84600F
:1048C000809370048091700481709091700491FDC8
:1048D000826090916F04981749F0813009F148F097
:1048E000823079F0833091F080936F041F910F91A3
:1048F0000895913079F09230B9F790916E0491500B
:104900000CC0992339F09330C1F3EECF9130A9F365
:10491000923051F790916E049F5F90936E04E4CFB4
:10492000992359F3933001F7F5CFCF92DF92EF92AD
:10493000FF92CF93C82F0E94E6EC6B017C0124EA22
:1049400030E74DE75FE360910A0270910B028091BE
:104950000C0290910D020F94FB1087FD18C08AEF96
:1049600090E0A0E0B0E08C0D9D1DAE1DBF1D8093BA
:104970005E0490935F04A0936004B0936104C093BD
:104980000802CF91FF90EF90DF90CF90089580E0E4
:1049900090E0DC01E8CFFC0180E09491992331F0B4
:1049A000907C903809F08F5F3196F7CF0895FC0125
:1049B00080E09191992329F0907C9038D1F38F5F1A
:1049C000F8CF089569ED7AE180E00E94F21D61ED73
:1049D0007AE181E00E94F21D69EC7AE182E00E94B6
:1049E000F21D61EC7AE186E00E94F21D69EB7AE14A
:1049F00087E00E94F21D61EB7AE183E00E94F21DE4
:104A000069EA7AE184E00E94F21D61EA7AE185E0D8
:104A10000C94F21DCF93823069F4C4E0C15068F069
:104A200088E0C89FB00111246659754E8C2F0E94F2
:104A3000F21DF4CFCF910C94E224CF9108950F93FF
:104A40001F93522F2091D50F3091D60F2817390779
:104A500079F19093D60F8093D50F8B0130E020E051
:104A60000093F6071093F7072093F8073093F907A0
:104A70004093F0075093F10788569C4321F410921D
:104A8000B2041092AE040E94D1EB81E02091D50FC8
:104A90003091D60F28563C4309F080E00E940A2549
:104AA00082E08093500281E0809306081092B10466
:104AB0001F910F91089520E040E070E060E088E6EB
:104AC0009CE30C941F25E091AE04EE2389F0E150A5
:104AD000E093AE0488E0E89FF0011124E258FB4F18
:104AE0006281738127814681808191810C941F2589
:104AF0000C945B25CF930E94C7AE0E942295C82FCD
:104B0000882319F080E00E942ACA8C2F0E94D01DB1
:104B1000CF910C945B251092750410924F028091F6
:104B20000C11806480930C110E94C9B560E089E18A
:104B30009BE10E940D240C945B254F925F926F9233
:104B40007F928F929F92AF92BF92CF92DF92EF921D
:104B5000FF920F931F93CF93DF9300D01F92CDB797
:104B6000DEB70E94E6EC6B017C01809108028F3F6A
:104B7000D9F10E94E6EC80905E0490905F04A090D2
:104B80006004B0906104681979098A099B0997FD4E
:104B90002BC080918B0F90918C0F8F5F8F70891736
:104BA00019F1E0910802E43008F057C024E0E29FD8
:104BB000F0011124ED58FD4F80819181A281B381D4
:104BC00089839A83AB83BC838E010F5F1F4F27E6D7
:104BD00032E043E652E06FE572E08BE592E00E943E
:104BE000D6E18FEF809308020E94442480917004E4
:104BF00082FF3CC080916D0481113AC091E0909396
:104C00006D048091750489278093DD0710927504E7
:104C100083E080935002109270040E94E6EC6C5086
:104C20007E4F8F4F9F4F60937104709372048093F7
:104C300073049093740468E873E185E090E00E9447
:104C400051BC16E01150A1F00E94B9B862E070E0CA
:104C500080E090E00E9483ECF5CF8091510290912A
:104C60005202A0915302B0915402AACF10926D0447
:104C70008091690490916A04A0916B04B0916C04D6
:104C8000A7019601281B390B4A0B5B0BDA01C901FE
:104C9000B7FD87C1D701C6018C599F4FAF4FBF4F9A
:104CA0008093690490936A04A0936B04B0936C049E
:104CB00060916E04062E000C770B77FF03C0719590
:104CC0006195710990916E0480916804981399C060
:104CD000633008F096C010926E0480916E04809349
:104CE0006804643008F09DC08091DD0781111BC10C
:104CF0008091D50F9091D60F88569C4341F48091B6
:104D00000902882309F421C18150809309020E947D
:104D1000159E8090520890905308A0905408B0902F
:104D2000550881110E94229E20915002222309F4ED
:104D30004BC0D501C4014AE0B695A79597958795D4
:104D40004A95D1F7009741E0A407B10520F08FEF15
:104D50009FEFA0E0B0E096958795009739F04091DD
:104D60006204509163044817590770F5223038F0F7
:104D7000243008F4FCC0243011F410925002E09169
:104D8000D50FF091D60F19951092DD078091D50FB0
:104D90009091D60F88569C43F9F40E94E6ECDC0112
:104DA000CB018C199D09AE09BF09809062049090D7
:104DB0006304B12CA12C88169906AA06BB0620F420
:104DC00090936304809362048091D50F9091D60FE5
:104DD00088569C4309F4CFC08091B2048111CBC0A6
:104DE0008091640490916504A0916604B091670479
:104DF000C81AD90AEA0AFB0AF7FCCBC00E945B2555
:104E0000C8C0633009F069CF80916E0487FD07C088
:104E100081E0880F880F80936E0464E05ECF8FEF8F
:104E2000F8CF80910B0821E030E040E050E088238B
:104E300009F456C08090070890900808A0900908CF
:104E4000B0900A0881149104A104B104E9F170E062
:104E500090E080E00F94001120E030E040E85EE355
:104E60000F9461112B013C01C701B6016819790942
:104E70008A099B090F9400119B01AC01C301B20187
:104E80000F949D1820E030E04AE754E40F9461113C
:104E90004B015C0120E030E040EA52E40F94031A39
:104EA00024E630E040E050E087FF12C020E030E030
:104EB00040EF51E4C501B4010F94031A2AE030E039
:104EC00040E050E087FF04C021E030E040E050E0E7
:104ED000C0920708D0920808E0920908F0920A08E8
:104EE000A0916E040A2E000CBB0B0F948B1724E0CC
:104EF00030E040E050E00F9461178091F607909108
:104F0000F707A091F807B091F907820F931FA41F2C
:104F1000B51F8093F6079093F707A093F807B09317
:104F2000F90710926E04D701C6018856954CAF4F11
:104F3000BF4F8093640490936504A0936604B0937C
:104F4000670481E080935002D3CE89E08093090208
:104F50008091620490916304009729F001979093E7
:104F600063048093620481E080935002D0CE81E09C
:104F70008093500204CF38E9C30E3AE3D31EE11CFC
:104F8000F11CC0926404D0926504E0926604F09231
:104F90006704809150028130C9F0833011F40E947F
:104FA000D1EB0F900F900F900F90DF91CF911F9149
:104FB0000F91FF90EF90DF90CF90BF90AF909F90B8
:104FC0008F907F906F905F904F9008951092500255
:104FD000E8CF8093E40720E040E070E060E08BE3FE
:104FE0009BE20C941F25CF9380917604811109C018
:104FF0008BE29BE19093B0048093AF0481E08093B7
:1050000076040E94CD2320E040E070E060E089ED6E
:105010009DE10E941F25C1E0C093B2040E94619BE4
:105020001092B2040E946325C093B20460E083E84A
:1050300095E30E940D2487E29BE1909358068093AC
:105040005706CF91089564E084E10E94D9EB81E096
:105050002091D50F3091D60F28563C4309F080E0BF
:105060000E940A250C94D1EB0E942328EAE0F1E08B
:1050700080818F77808380910B01809580788093E9
:1050800009019998A19A52985A9A0E944424109220
:105090006E0408954FEF5FEF0C94741EAF92BF92B1
:1050A000CF92DF92EF92FF920F931F93CF93DF93F4
:1050B00000D01F92CDB7DEB76C015B017A0110E022
:1050C00000E00E151F05E8F419821A821B821C826B
:1050D000AE014F5F5F4FB501C6010E94901C6C018D
:1050E00069817A818B819C816115710581059105AA
:1050F00041F0A701401B510B0E94741E080F191F9D
:10510000E0CFC8010F900F900F900F90DF91CF91DB
:105110001F910F91FF90EF90DF90CF90BF90AF90D5
:105120000895CF92DF92EF92FF920F931F93CF9348
:10513000DF9300D01F92CDB7DEB77C01062F6A0146
:10514000122F11160CF03EC0AE014F5F5F4F6AE8A0
:105150007CE1C7010E94901C7C0169817A818B816E
:105160009C81611571058105910561F16D337105B2
:105170008105910509F44BC06E37710581059105D4
:1051800009F445C06A3271058105910549F507FFAB
:1051900010C085EE9AE10E3F11F081EE9AE1412FA9
:1051A000012E000C550B6AE87CE10E944E28181B6A
:1051B0005EC065E470E080E090E00E944A281150F3
:1051C00041F510E0812F0F900F900F900F90DF911D
:1051D000CF911F910F91FF90EF90DF90CF900895A6
:1051E000643271058105910571F4C114D10459F03F
:1051F000412F012E000C550B6AE87CE1C6010E948C
:105200004E28181B9ECF0E944A2811509ACF07FDA6
:10521000C0CF61E089819A81AB81BC81CD97A10526
:10522000B10509F460E0600F6A30ACF01150862FD0
:105230006AE00F94C11A092F682F880F770B605D01
:105240007F4F072E000C880B990B0E944A281123D0
:1052500009F4B7CF602F062E000C770B605D7F4FEF
:10526000072E000C880B990B0E944A28115011231D
:1052700009F4A7CF412F012E000C550B6AE87CE101
:10528000C7010E944E28181B9DCF4FEF5FEF6DE8BE
:105290007CE10C944E284FEF5FEF6AE87CE10C94C0
:1052A0004E28643008F063E09091EA0F691710F01F
:1052B0006FEF690FE62FF0E0E952F04F9489890F04
:1052C00080680C94CBEBFC01A081B1811C92A2817F
:1052D000B3818C918F5F8C930280F381E02D60818C
:1052E00080E00C9451294F925F926F927F928F923F
:1052F0009F92BF92CF92DF92EF92FF920F931F93F4
:10530000CF93DF9300D000D01F921F92CDB7DEB7AE
:105310007C013B016A014901FB016081FC01808144
:105320000E945129C114D10471F1FA82E9827C8270
:105330006B82011121C0AE014B5F5F4FB401C6010A
:105340000E94901C6C016D817E818F819885611512
:10535000710581059105B9F00E944A28F701808105
:105360008F5F8083843138F3CE0101960E946329D8
:10537000E2CFB12C860129C08601B12C26C0452878
:1053800046284728B1F728960FB6F894DEBF0FBE1F
:10539000CDBFDF91CF911F910F91FF90EF90DF90E4
:1053A000CF90BF909F908F907F906F905F904F9025
:1053B0000895B39407C0B1102EC001151105C9F2AC
:1053C0000F5F1F4F01151105A9F2AE014B5F5F4F33
:1053D000B401C6010E94901C6C014D805E806F80FC
:1053E00078844114510461047104A9F0F0E24F166D
:1053F000510461047104F9F2D301C2018D97A1092E
:10540000B1090297A105B10530F04BE244165104F1
:105410006104710471F6F7018081482F4B0D552707
:10542000551F4531510534F0853020F0CE010196ED
:105430000E94632981E0411451046104710409F45C
:1054400080E0B80EF70180818B0D8083BB2009F4CA
:1054500096CFBA94AE014B5F5F4FB401C8010E9472
:10546000901C8C016D817E818F8198850E944A28D5
:10547000EDCF2F923F924F925F926F927F928F92D9
:105480009F92AF92BF92CF92DF92EF92FF920F93D3
:105490001F93CF93DF9300D0CDB7DEB74C013B0114
:1054A0005A01222E3B8328014091F6075091F707BD
:1054B0006091F8077091F907411551056105710573
:1054C00079F081E0141615060CF080E08093B104A9
:1054D0001092F6071092F7071092F8071092F9074A
:1054E0001091B1043090DD071092DD07311005C036
:1054F00080915002882309F4A5C0C2010E94CB24E8
:10550000082F80E0C114D10419F0C6010E94CB24F9
:105510001A821982E114F104B1F4402F50E0282FCF
:1055200030E0CA01820F931F45976CF484E190E04C
:10553000841B950B821B930B97FD01969595879580
:105540008A8381E0898301E02AE83CE1A201BE016F
:105550006F5F7F4FCE0102960E947329E114F10420
:1055600091F08A81882321F01A8289818F5F898353
:1055700000E02DE83CE1A701BE016F5F7F4FCE0147
:1055800002960E947329C114D10459F000E02AE860
:105590003CE1A601BE016F5F7F4FCE0102960E94E3
:1055A000732963E080E00E9451296BE570E080E0A0
:1055B00090E0112321F060E270E080E090E00E9432
:1055C0004A28C3010E944B296DE570E080E090E01D
:1055D000112321F060E270E080E090E00E944A2810
:1055E000C4010E94CB2463E092E1981B892F0E94A2
:1055F000512960E270E080E090E0112321F06BE53A
:1056000070E080E090E00E944A28C4010E944B298B
:1056100060E270E080E090E0112321F06DE570E041
:1056200080E090E00E944A28332049F0111102C026
:10563000A22CBB80A114B104D9F0F501199581E029
:105640008093B2040F900F900F90DF91CF911F9134
:105650000F91FF90EF90DF90CF90BF90AF909F9011
:105660008F907F906F905F904F903F902F90089514
:105670000E946325E4CFAF92BF92CF92DF92EF9268
:10568000FF920F931F93CF93DF93CDB7DEB7ADB6E5
:10569000BEB682E89BE10E94CB2490E001962DB734
:1056A0003EB7281B390B0FB6F8943EBF0FBE2DBF77
:1056B0008DB79EB701967C0162E87BE10F944110A3
:1056C0008091E4070FE41BE1813031F00AE31BE134
:1056D000823011F002E61BE183E7C82E8BE1D82E61
:1056E0002BE535E24AE755E265E77BE18CE79BE194
:1056F0000E94392A0FB6F894BEBE0FBEADBEDF9130
:10570000CF911F910F91FF90EF90DF90CF90BF90BE
:10571000AF900895CF92DF92EF92FF9269017A01E4
:105720000E945129C701B601FF90EF90DF90CF9002
:105730000C944A28CF92DF92FF920F931F93CF933E
:10574000DF938C01EB01C0900D08D0900E08F09013
:105750000C0861E080E00E94512923E1A6016F2D31
:10576000C8010E949128182F209711F16AE370E078
:1057700080E090E00E944A28CE010E94D7248F5FEB
:10578000115061E0181708F462E020E230E040E0D8
:1057900050E094E1981B892F0E948A2BCE01DF9163
:1057A000CF911F910F91FF90DF90CF900C944529DE
:1057B000DF91CF911F910F91FF90DF90CF900895CF
:1057C0000F931F93CF93DF93FC01EB018091F607BA
:1057D0009091F707A091F807B091F907B7FF08C0BB
:1057E0001092F6071092F7071092F8071092F90737
:1057F0008091FA079091FB07A091FC07B091FD07FB
:105800004091F6075091F7076091F8077091F907FA
:1058100084179507A607B70744F48093F60790937B
:10582000F707A093F807B093F907809150028823F7
:10583000E1F06091F6077091F7078091F807909179
:10584000F9070091FE071091FF07209100083091A1
:105850000108600F711F821F931F1995BC01809171
:105860000408909105080E949A2B8091DD07811110
:1058700008C08091F3078823D1F1809150028823DA
:10588000B1F180910208909103080097B1F0409126
:10589000F6075091F7076091F8077091F9070091AA
:1058A000FE071091FF072091000830910108400F7A
:1058B000511F621F731FFE011995E091F407F091CB
:1058C000F507309741F08091F307811103C0809173
:1058D000DD07811119958091DD071092DD0788237E
:1058E00031F0DF91CF911F910F910C946325DF91DF
:1058F000CF911F910F910895CF92DF92EF92FF9277
:105900000F931F93CF93DF93C82ED62E7A01E90110
:10591000209709F467C0C901002381F10E94CB24BC
:10592000182F2EE330E040E050E0C11004C020E228
:1059300030E040E050E06D2D80E00E948A2B22E1B3
:10594000211B40910D0850910E0860910C08C70171
:105950000E949128F82E112309F448C06AE370E0F0
:1059600080E090E00E944A28FF2059F060E270E059
:1059700080E090E00E944A28FA94F6CF0E94D72453
:10598000CFCFCE01002351F0DF91CF911F910F9126
:10599000FF90EF90DF90CF900C944B29DF91CF9147
:1059A0001F910F91FF90EF90DF90CF900C944529BD
:1059B0002EE330E040E050E06D2D80E00E948A2B25
:1059C00040910D0850910E0822E160910C08C7012A
:1059D000DF91CF911F910F91FF90EF90DF90CF90CB
:1059E0000C9491288111E4CF10E0A1CFDF91CF91E9
:1059F0001F910F91FF90EF90DF90CF9008950F933C
:105A0000CF93DF93EA01811101C020E2022E000C46
:105A1000330B440B550B80E00E948A2B40910D08FC
:105A200050910E0822E160910C08CE010E9491284D
:105A3000C82FCC2341F060E270E080E090E00E944B
:105A40004A28C150F6CF602F000F770B880B990BB7
:105A5000DF91CF910F910C944A288F929F92AF9231
:105A6000BF92CF92DF92EF92FF920F931F93CF934B
:105A7000DF930E94CCE6D091F007C0E0D11134C092
:105A80008091F2078823B9F080915002882361F059
:105A900081E09091F207911180E003E023E040EB78
:105AA0005CE16C2F0E94FF2CDF5FCF5FC43031F7C9
:105AB000C093F1070CC08091DD071092DD078823A9
:105AC00019F30E946325809106088823E9F2DF918B
:105AD000CF911F910F91FF90EF90DF90CF90BF90EB
