:100000000C94EC1B0C942C1C0C942C1C0C942C1C91
:100010000C942C1C0C942C1C0C942C1C0C942C1C40
:100020000C942C1C0C942C1C0C942C1C0C942C1C30
:100030000C942C1C0D94CE020C942C1C0C942C1C97
:100040000C942C1C0C947AA60C942C1C0C942C1C38
:100050000C942C1C0C94B1A00C942C1C0D948402B8
:100060000C942C1C0C94C15C0C94B75C0C942C1C50
:100070000C942C1C0C942C1C0C942C1C0C942C1CE0
:100080000C942F4E0C942C1C0C942C1C0C942C1C9B
:100090000C942C1C0C942C1C0C942C1C0C942C1CC0
:1000A0000C942C1C0C942C1C0C94014E0C942C1CA9
:1000B0000C942C1C0C942C1C0C942C1C0C942C1CA0
:1000C0000C942C1C0C942C1C0C942C1C0C942C1C90
:1000D0000C942C1C0C942C1C0C942C1C0C942C1C80
:1000E0000C942C1C084AD73B3BCE016E84BCBFFD50
:1000F000C12F3D6C74319ABD56833DDA3D00C77FF8
:1001000011BED9E4BB4C3E916BAAAABE0000008090
:100110003F05A84CCDB2D44EB93836A9020C50B91F
:10012000918688083CA6AAAA2ABE000000803F004B
:100130000D9498010D94AA010D9462010D94B401DF
:100140000D947D010D94A0010D94AE010D947901E3
:100150000D94A6010D9488010D94CC190D94850180
:100160000D94B8010D9451100D9492010D948E01CF
:100170000D949C010D9467010D9481014E414E49EF
:100180004E495459494E46CDCCCC3D0AD7233C1755
:10019000B7D13877CC2B329595E6241FB14F0A00A2
:1001A0000020410000C84200401C4620BCBE4CCA92
:1001B0001B0E5AAEC59D7400407A10F35A00A0720F
:1001C0004E18090010A5D4E80000E8764817000092
:1001D000E40B54020000CA9A3B000000E1F5050060
:1001E0000080969800000040420F000000A08601A9
:1001F000000000102700000000E803000000006479
:1002000000000000000A00000000000100000000E3
:10021000002C76D888DC674F0823DFC1DFAE59E1B8
:10022000B1B796E5E3E453C63AE651997696E8E627
:10023000C28426EB898C9B62ED407C6FFCEFBC9CFA
:100240009F40F2BAA56FA5F490055A2AF75C936B0C
:100250006CF9676DC11BFCE0E40D47FEF520E6B5C7
:1002600000D0ED902E0300943577050080841E08A1
:100270000000204E0A000000C80C333333330F98BF
:100280006E12831141EF8D2114893BE65516CFFE86
:10029000E6DB18D1844B381BF77C1D901DA4BBE412
:1002A00024203284725E228100C9F124ECA1E53D54
:1002B00027434F4D4D554E49434154494F4E0044FD
:1002C000525952554E004552524F525300494E46D4
:1002D0004F004543484F0053544F505045442E2043
:1002E000005072696E7465722073746F707065640B
:1002F0002064756520746F206572726F72732E2092
:1003000046697820746865206572726F7220616E2C
:100310006420757365204D39393920746F207265FA
:1003200073746172742E202854656D7065726174E7
:100330007572652069732072657365742E2053652C
:1003400074206974206166746572207265737461CB
:100350007274696E67290A004E6F20436865636B8B
:1003600073756D2077697468206C696E65206E7591
:100370006D6265722C204C617374204C696E653A15
:1003800020004E6F20436865636B73756D2077693D
:100390007468206C696E65206E756D6265722C20C4
:1003A0004C617374204C696E653A20006368656324
:1003B0006B73756D206D69736D617463682C204C6F
:1003C000617374204C696E653A20004C696E65203B
:1003D0004E756D626572206973206E6F74204C617A
:1003E0007374204C696E65204E756D6265722B3199
:1003F0002C204C617374204C696E653A20004D319D
:1004000031300053657269616C2073746174757367
:10041000206D69736D617463680A005344207265CE
:100420006164206572726F720A00746F6F206D755F
:10043000636820696E6163746976652074696D65AF
:10044000202D2063757272656E7420636F6D6D610F
:100450006E643A20002121204B494C4C2063617589
:100460007365642062792000627573793A20706147
:100470007573656420666F7220696E7075740A000A
:10048000627573793A2070617573656420666F7266
:1004900020757365720A00627573793A2070726F05
:1004A00063657373696E670A004D65646961205204
:1004B000656D6F766564004D6564696120496E7392
:1004C000657274656400506C656173652052657374
:1004D0006574005052494E5445522048414C544591
:1004E000440025533A202553004B494C4C45442E9B
:1004F00020005072696E7465722068616C74656466
:100500002E206B696C6C28292063616C6C656421FA
:100510000A00006563686F3A004572726F723A00B4
:100520004F4646004F4E000A0A426564204C6576ED
:10053000656C20436F7272656374696F6E204D61E4
:10054000747269783A000A436F7272656374656405
:1005500020426564204865696768742076732E20A0
:1005600042656420546F706F6C6F67793A0A000AB5
:100570004265642048656967687420546F706F67CE
:1005800072617068793A0A2020202B2D2D2D20428F
:1005900041434B202D2D2B0A2020207C2020202081
:1005A000202020202020207C0A204C207C2020207D
:1005B00020282B29202020207C20520A2045207C26
:1005C00020202020202020202020207C20490A20BC
:1005D00046207C20282D29204E20282B29207C20D5
:1005E000470A2054207C202020202020202020206A
:1005F000207C20480A2020207C20202020282D2913
:10060000202020207C20540A2020207C2020202014
:10061000202020202020207C0A2020204F2D2D204B
:1006200046524F4E54202D2D2B0A2028302C302995
:100630000A000A4D65616E206F662073616D706CF3
:10064000656420706F696E74733A200020643A20EC
:100650000020623A200045716E20636F656666690E
:100660006369656E74733A20613A200050726F625C
:10067000696E6720506F696E740025532025692FBD
:100680002569002E0A002F0050726F62696E672084
:100690006D65736820706F696E7420002028445265
:1006A0005952554E2900473239204175746F204206
:1006B0006564204C6576656C696E67003F20284C48
:1006C0002C522C462C4229206F7574206F662062B4
:1006D0006F756E64732E0A003F50726F62652070F2
:1006E0006F696E74732028592920696D706C61756B
:1006F0007369626C652028322D33292E0A003F5021
:10070000726F626520706F696E747320285829209B
:10071000696D706C61757369626C652028322D3368
:10072000292E0A003F2856296572626F7365206C76
:100730006576656C20696D706C61757369626C6556
:100740002028302D34292E0A0044657669617469A9
:100750006F6E0025533A2025730046696E697368F1
:100760006564210A003A207A3A2000206F66200052
:10077000476F696E6720746F3A20580043570A002C
:10078000206469723A0020616E676C653A005374A8
:10079000617274207261646975733A004D34382057
:1007A000506F696E740025533A2025642F2564002C
:1007B000506F736974696F6E696E67207468652025
:1007C00070726F62652E2E2E0A003F4C6567732093
:1007D0006F66206D6F76656D656E7420696D706CE7
:1007E00061757369626C652028302D3135292E0AB8
:1007F000003F2028582C5929206F7574206F6620DF
:10080000626F756E64732E0A0050726F6265206F9E
:100810007574206F6620626F756E6473003F53615C
:100820006D706C652073697A65206E6F7420706CD2
:1008300061757369626C652028342D3530292E0A64
:10084000004D3438205A2D50726F62652052657009
:100850006561746162696C69747920546573740AA6
:10086000003F2856296572626F7365206C65766556
:100870006C20696D706C61757369626C65202830DD
:100880002D34292E0A005374616E64617264204411
:100890006576696174696F6E3A20002052616E67F7
:1008A000653A2000204D61783A2000204D696E3A6B
:1008B0002000205369676D613A20004D65616E3AF2
:1008C0002000203B2058590A0020204D3835322086
:1008D0004900536B657720466163746F7200204452
:1008E0000020204D323030205300202844697361AD
:1008F000626C6564293A0046696C616D656E7420AE
:1009000073657474696E67730020204D3230312036
:1009100058004D617820416363656C65726174694C
:100920006F6E2028756E6974732F73322900202032
:100930004D3230332058004D617820666565647211
:10094000617465732028756E6974732F7329002094
:10095000520020204D323034205000416363656CDA
:1009600065726174696F6E2028756E6974732F7378
:1009700032292028503C7072696E742D6163636562
:100980006C3E20523C726574726163742D616363C6
:10099000656C3E20543C74726176656C2D616363B6
:1009A000656C3E2900204A0020540020530020207E
:1009B0004D323035204200416476616E63656420BB
:1009C00028423C6D696E5F7365676D656E745F7418
:1009D000696D655F75733E20533C6D696E5F66653A
:1009E0006564726174653E20543C6D696E5F74721B
:1009F0006176656C5F66656564726174653E204A08
:100A00003C6A756E635F6465763E29002044002071
:100A1000490020204D333031205000486F74656EFE
:100A200064205049440020580020204D61783A202D
:100A300000200020204D696E3A2000203B2000203D
:100A4000204D3231312053003B200020496E766129
:100A50006C69642065787472756465722000207416
:100A60006F6F206C6F6E6720657874727573696F35
:100A70006E2070726576656E7465640A0020636F1F
:100A80006C6420657874727573696F6E207072651E
:100A900076656E7465640A0047322F4733206261C1
:100AA0006420706172616D65746572730A00536CC5
:100AB0006565702E2E2E005A2050726F6265205090
:100AC000617374204265640A005A2050726F626537
:100AD000205061737420426564004732384C300006
:100AE000205A3A200020593A200042656420583AA2
:100AF0002000436C69636B20746F20526573756DC1
:100B0000652E2E2E004E6F204D6F76652E00456EA1
:100B1000642066696C65206C6973740A00426567BD
:100B2000696E2066696C65206C6973740A004E6F8B
:100B3000206D656469610A00286E6F2066696C65C6
:100B4000290043757272656E742066696C653A207F
:100B5000005344207072696E74696E672062797404
:100B60006520004E6F74205344207072696E746962
:100B70006E670A002E0A0044656C6574696F6E200A
:100B80006661696C65642C2046696C653A20004694
:100B9000696C652064656C657465643A00256973E9
:100BA0000025696D20256973002569682025696D18
:100BB0002025697300256964202569682025696DF1
:100BC00020256973002569792025696420256968D5
:100BD0002025696D20256973005072696E74207438
:100BE000696D653A20006F6B006F666600D202CDBA
:100BF00002C602BF02B10244454255473A004D3198
:100C000031322053687574646F776E004D31313323
:100C1000205300476565657465636820693320501B
:100C2000726F2042204F46462E002F2F004D313448
:100C30003520533C696E6465783E206F7574206F73
:100C4000662072616E67652028302D31290A003FC9
:100C50004A206F7574206F662072616E6765202868
:100C6000302E303120746F20302E33290A00465246
:100C70003A0020466C6F773A20003A2000205365F6
:100C800072766F2000206F7574206F662072616E1F
:100C900067650A00536572766F20006469730065AA
:100CA0006E0043290A0061626C656420286D696EDC
:100CB0002074656D702000436F6C642065787472D9
:100CC00075646573206172652000426564204C651F
:100CD00076656C696E6720004661696C6564207496
:100CE0006F20656E61626C6520426564204C65769C
:100CF000656C696E670A00426564204C6576656CB8
:100D000020436F7272656374696F6E204D617472F7
:100D100069783A004F666673657473204170706C31
:100D2000696564004572723A20546F6F2066617283
:100D30002100546F6F206661722066726F6D2072A1
:100D400065666572656E636520706F696E740A0012
:100D5000454550524F4D204F4B0A00290A00207440
:100D60006F20003F5A206F7574206F662072616E8D
:100D70006765202800290A0020746F20003F592051
:100D80006F7574206F662072616E676520282D0074
:100D9000290A0020746F20003F58206F7574206F5F
:100DA000662072616E676520282D006D696E5F7325
:100DB0006B65775F666163746F723A20202D312016
:100DC0006D61785F736B65775F666163746F723AAC
:100DD0002020310A004D383400446F6E6520707257
:100DE000696E74696E672066696C650A004D3737F5
:100DF000004D333100496E76616C6964206578740A
:100E000072756465720A0020204D32303620580019
:100E1000486F6D65206F6666736574004361703A54
:100E200000434F4E4649475F4558504F5254004D7E
:100E30004541545041434B00434F4F4C45525F5442
:100E4000454D5045524154555245004348414D424D
:100E500045525F54454D504552415455524500420C
:100E60004142595354455050494E47004152435313
:100E7000004D4F54494F4E5F4D4F44455300544829
:100E800045524D414C5F50524F54454354494F4E8B
:100E900000455854454E4445445F4D32300043555B
:100EA00053544F4D5F4649524D574152455F55503F
:100EB0004C4F4144004C464E5F5752495445004CFC
:100EC0004F4E475F46494C454E414D4500415554B4
:100ED0004F5245504F52545F53445F535441545501
:100EE000530053445F5752495445005245504541C1
:100EF00054004D554C54495F564F4C554D45005389
:100F000044434152440050524F4D50545F5355504A
:100F1000504F525400484F53545F414354494F4E31
:100F20005F434F4D4D414E445300454D455247455B
:100F30004E43595F50415253455200434153455F20
:100F40004C494748545F4252494748544E455353D1
:100F500000544F47474C455F4C4947485453005352
:100F60004F4654574152455F504F574552004255E6
:100F7000494C445F50455243454E54004C455645FC
:100F80004C494E475F44415441005A5F50524F42D2
:100F9000450052554E4F5554004155544F4C4556FF
:100FA000454C005052494E545F4A4F420050524FF8
:100FB0004752455353004155544F5245504F525498
:100FC0005F54454D50004155544F5245504F525477
:100FD0005F504F5300564F4C554D455452494300B6
:100FE000454550524F4D0042494E4152595F464986
:100FF0004C455F5452414E53464552005345524969
:10100000414C5F584F4E5F584F4646004649524D3F
:10101000574152455F4E414D453A4D61726C696E84
:10102000206275676669782D322E312E7820284A25
:10103000756E20313720323032322030303A32363D
:101040003A31372920534F555243455F434F44456A
:101050005F55524C3A6769746875622E636F6D2FE5
:101060004D61726C696E4669726D776172652F4D64
:1010700061726C696E2050524F544F434F4C5F5613
:10108000455253494F4E3A312E30204D4143484945
:101090004E455F545950453A4765656574656368C8
:1010A0002069332050726F204220455854525544D5
:1010B00045525F434F554E543A3120555549443AB5
:1010C00063656465326132662D343161322D3437A7
:1010D00034382D396231322D63353563363266331B
:1010E000363766660A00203B0020204D3835312017
:1010F00058005A2D50726F6265204F666673657492
:101100000020573A00436F6F6C696E672E2E2E00D9
:1011100045312025530020573A0042656420436F33
:101120006F6C696E672E2E2E0042656420486561E3
:1011300074696E672E2E2E00206661696C656421CD
:1011400020426164206865617465722069640A00E8
:10115000504944204175746F74756E650023646551
:1011600066696E652044454641554C545F004B64AA
:1011700020004B6920004B7020002066696E697367
:10118000686564212050757420746865206C6173F3
:1011900074204B702C204B6920616E64204B6420BE
:1011A000636F6E7374616E74732066726F6D20620C
:1011B000656C6F7720696E746F20436F6E66696728
:1011C00075726174696F6E2E680A0050494420413F
:1011D00075746F74756E6500206661696C65642155
:1011E0002074696D656F75740A005049442041751B
:1011F000746F74756E6500206661696C656421208A
:1012000054656D706572617475726520746F6F20BE
:10121000686967680A00504944204175746F7475A5
:101220006E6500504944204379636C657300255313
:101230002025692F256900204B643A2000204B6946
:101240003A2000204B703A200020436C6173736990
:101250006320504944200A002054753A2000204B56
:10126000753A2000206D61783A2000206D696E3A51
:10127000200020643A200020626961733A2000480F
:10128000656174696E672E2E2E002073746172740E
:101290000A00504944204175746F74756E650020D2
:1012A0006661696C6564212054656D706572617456
:1012B00075726520746F6F20686967680A0050490D
:1012C00044204175746F74756E6500504944204127
:1012D00075746F74756E65004572723A2075746628
:1012E0003820666F6E74206E6F7420696E69746941
:1012F000616C697A65642E004572723A2075746675
:101300003820666F6E74206E6F7420696E69746920
:10131000616C697A65642E004572723A2075746654
:101320003820666F6E74206E6F7420696E69746900
:10133000616C697A65642E002568753A25303268DB
:10134000750025303268753A2530326875002530D1
:101350003268752725303268750025687564202548
:10136000303268753A253032687500426564004550
:101370006E636C6F73757265002020202020202022
:10138000002020202000657272001FE02010201035
:101390002010102010202010201030300840048031
:1013A00003001FE03FF03FF03FF01FE01FE03FF081
:1013B0003FF03FF00FC0078003003FFFF0380070A0
:1013C00030FC3020FC102078102030102C00D02E63
:1013D00031D02F7BD02F7BD02E31D02C00D020309D
:1013E0001020781020FC1030FC303800703FFFF0E7
:1013F0003FFFF03800703186302387102787902F09
:1014000087D02F03D0203010207810207810203083
:10141000102F03D02F87D027879023871031863055
:101420003800703FFFF01FFFF81FFFF80410400264
:1014300008200208200410400820801041001041BC
:10144000000820800410400000001FFFF81FFFF874
:101450005072696E742041626F72746564004D321F
:10146000350050617573696E672E2E2E004D323433
:1014700000454550524F4D2056657273696F6E207E
:101480004572726F7200454550524F4D20496E644F
:101490006578204572726F7200454550524F4D205D
:1014A000435243204572726F72003F0049676E6F6E
:1014B000726500526573657400496E697469616C88
:1014C000697A6520454550524F4D0046696C2E2083
:1014D0004469612E004520696E206D6D5E330020E9
:1014E000082046616374002008204D6178002008C0
:1014F000204D696E004F6666004F6E004175746F37
:1015000074656D70004D696E2054726176656C2053
:101510005370656564004D696E2056656C6F636934
:101520007479004D61782040205370656564004DEA
:101530006178204520416363656C004D6178205AD5
:1015400020416363656C004D6178205920416363DD
:10155000656C004D6178205820416363656C0054D0
:10156000726176656C20416363656C0052657472CC
:1015700061637420416363656C00416363656C0063
:1015800050726F6265205A204F6666736574005012
:10159000726F62652059204F6666736574005072E1
:1015A0006F62652058204F66667365740040207333
:1015B000746570732F6D6D00416476616E63656450
:1015C0002053657474696E6773003F0043616E63F6
:1015D000656C00496E6974004D34323800496E699B
:1015E0007469616C697A6520454550524F4D0046DB
:1015F000696C616D656E740054656D7065726174BF
:101600007572650053746570732F6D6D0050726F45
:101610006265204F666673657473004A756E637405
:10162000696F6E2044657600416363656C65726125
:1016300074696F6E004D6178205370656564202871
:101640006D6D2F73290053657420486F6D65204FB1
:1016500066667365747300436F6E66696775726161
:1016600074696F6E00000C0F00FE07022503BB01BA
:101670007FFE08FE08FE05080806000040F0C88846
:1016800088987810050808060000C0F888888888BF
:1016900088F80505050600012030F8302005080807
:1016A0000600002070F820202020E005090906002F
:1016B000FF2070A8A8B888887020070505070001DA
:1016C000D86C366CD80509090600FFF8A888888808
:1016D0008888A8F8050A0A0600FE20505050508855
:1016E000A8A8887003030306000340A040FFFFFF83
:1016F000FFFFFFFFFFFFFFFFFFFFFFFFFFFFFFFFFA
:10170000FFFFFF0000000605FF010707060200803B
:10171000808080800080030303060105A0A0A0054F
:10172000060606000050F85050F85005090906005A
:10173000FF2070A8A07028A87020050707060000E9
:10174000C8C8102040989805070706000040A0A0D0
:1017500040A8906801030306020580808003090900
:101760000601FF2040408080804040200309090698
:1017700001FF8040402020204040800507070600F0
:101780000020A8702070A820050505060001202073
:10179000F820200203030601FFC040800501010676
:1017A0000003F8020202060100C0C0050707060098
:1017B00000081010204040800507070600007088D0
:1017C00098A8C8887003070706010040C040404041
:1017D00040E0050707060000708808102040F80563
:1017E0000707060000F8081030088870050707068C
:1017F000000010305090F81010050707060000F8A0
:1018000080F008088870050707060000304080F067
:10181000888870050707060000F8081010202020AF
:10182000050707060000708888708888700507071C
:10183000060000708888780810600205050601001F
:10184000C0C000C0C00206060601FFC0C000C04004
:1018500080030505060101204080402005030306A2
:101860000002F800F80305050601018040204080D1
:1018700005070706000070881020200020050707D4
:101880000600007088B8A8B8807005070706000039
:10189000708888F8888888050707060000F048489F
:1018A000704848F00507070600007088808080882F
:1018B00070050707060000F04848484848F005074B
:1018C00007060000F88080F08080F8050707060012
:1018D00000F88080F080808005070706000070888F
:1018E0008080988870050707060000888888F88837
:1018F0008888030707060100E04040404040E005BB
:101900000707060000381010101090600507070642
:1019100000008890A0C0A0908805070706000080FE
:101920008080808080F805070706000088D8A88896
:101930008888880507070600008888C8A8988888CE
:1019400005070706000070888888888870050707E3
:10195000060000F08888F0808080050707060000F8
:1019600070888888A89068050707060000F08888B6
:10197000F0A090880507070600007088807008882E
:1019800070050707060000F820202020202005070A
:101990000706000088888888888870050707060081
:1019A000008888888850502005070706000088882E
:1019B0008888A8A85005070706000088885020508E
:1019C0008888050707060000888850202020200509
:1019D0000707060000F80810204080F803090906F0
:1019E00001FFE080808080808080E005070706009E
:1019F00000804040201010080309090601FFE02084
:101A0000202020202020E005030306000520508828
:101A10000501010600FEF8030303060105804020CE
:101A20000505050600007008788878050707060098
:101A3000008080F0888888F0050505060000708029
:101A4000808870050707060000080878888888786D
:101A50000505050600007088F08070050707060080
:101A600000304840E04040400507070600FE70880F
:101A700088887808700507070600008080F088884D
:101A800088880307070601004000C0404040E0048A
:101A900009090601FE1000301010101090600507B3
:101AA0000706000080808890E09088030707060101
:101AB00000C04040404040E0050505060000D0A8B9
:101AC000A8A8A8050505060000B0C88888880505EF
:101AD0000506000070888888700507070600FEF07C
:101AE000888888F080800507070600FE7888888847
:101AF000780808050505060000B0C8808080050547
:101B00000506000078807008F00507070600002031
:101B100020F82020201805050506000088888898F0
:101B2000680505050600008888885020050505061B
:101B300000008888A8A850050505060000885020E8
:101B400050880507070600FE8888885020408005D9
:101B50000505060000F8102040F80309090601FFFA
:101B60002040404080404040200109090602FF809B
:101B700080808080808080800309090601FF80408A
:101B80004040204040408005030306000248A890E2
:101B9000FF414253005045544700504C41003F0024
:101BA0004E65787420506F696E7400446F6E6500E6
:101BB0004E65787400486F6D696E672058595A00F9
:101BC00053746F72652053657474696E6773004C4B
:101BD0006F61642053657474696E67730042656455
:101BE000205472616D6D696E670050726F6265207E
:101BF0005A204F6666736574004F6666004F6E002C
:101C0000426564204C6576656C696E67004C65764C
:101C1000656C20426564004732394E004732390016
:101C20004175746F20486F6D65004D6F74696F6EFC
:101C30000053572D4D6F64650053746F77004465F2
:101C4000706C6F790053656C662D54657374005227
:101C50006573657400426564004E6F7A7A6C650046
:101C600046616E20537065656400436F6E666967F8
:101C700075726174696F6E00526573746F7265205E
:101C800044656661756C7473004C6F6164205365C4
:101C90007474696E67730053746F72652053657452
:101CA00074696E67730050726568656174202420E2
:101CB000436F6E6600424C546F7563680050726FDC
:101CC0006265205A204F66667365740041647661D0
:101CD0006E6365642053657474696E6773004D614B
:101CE000696E003F004261636B0053746F70004E79
:101CF0006F204D65646961005072696E7420667270
:101D00006F6D204D65646961004368616E67652091
:101D10004D65646961004D323100436F6E666967DD
:101D200075726174696F6E0054656D70657261746F
:101D3000757265004D6F74696F6E00526573756DD5
:101D400065205072696E740054756E650053746F2F
:101D500070205072696E7400506175736520507206
:101D6000696E7400496E666F2053637265656E001C
:101D70003F005374617274205072696E7400436145
:101D80006E63656C005072696E740043616E6E6FB5
:101D90007420656E746572207375626469723A208E
:101DA0000002202E2E004D61696E002100486F74E4
:101DB000656E6420746F6F20636F6C6400426163B2
:101DC0006B0050726F63656564004D6F74696F6E70
:101DD0000044697361626C6520537465707065724C
:101DE00073004D3834004D34382050726F626520D6
:101DF00054657374004732384F0A4D3438205031DF
:101E00003000426564204C6576656C696E670047FA
:101E100032385A004732385900486F6D652040000B
:101E200047323858004175746F20486F6D65004720
:101E30003238004D61696E005072656865617420CA
:101E40002420426564005072656865617420242016
:101E5000456E640054656D706572617475726500DD
:101E60009A1B951B911B436F6F6C646F776E0050CC
:101E700072656865617420240046616E2053706548
:101E8000656400426564004E6F7A7A6C65004D614E
:101E9000696E00466C6F770046616E205370656511
:101EA0006400426564004E6F7A7A6C650053706519
:101EB0006564004D61696E006F70656E0054524933
:101EC000474745524544003A20007A5F6D696E00ED
:101ED000795F6D696E00785F6D696E005265706F35
:101EE0007274696E6720656E6473746F70207374AA
:101EF000617475730A00486F6D652025732573251D
:101F0000732046697273740000002041000020C1F4
:101F1000000000005761726E696E673A20486F6D6D
:101F2000696E672042756D702044697669736F72BF
:101F3000203C20310A0002020400003A4300003B2A
:101F400043000039430000A0400000A04000000012
:101F500040000000010000000100008000555555C0
:101F6000000000400033333300AAAA2A004992241B
:101F70000000002000C7711C0099991900D1451775
:101F800000555515003BB1130024491200111111E1
:101F900000000010000F0F0F00E3380E0043790D12
:101FA00000CCCC0C00C3300C00E8A20B0064210B69
:101FB00000AAAA0A00703D0A009DD80900427B09C8
:101FC0000092240900DCD308008888080010420829
:101FD0000000000800F0C107008787070075500760
:101FE00000711C07003EEB0600A1BC0600699006CC
:101FF0000066660600703E06006118060017F405CC
:102000000074D105005BB00500B290050062720556
:10201000005555050078390500B81E050005050571
:10202000004EEC040087D40400A1BD040090A70476
:102030000049920400C17D0400EE690400C7560403
:1020400000444404005C32040008210400411004F0
:1020500000000004003FF00300F8E0030026D20374
:1020600000C3C30300CCB503003AA803000A9B03D6
:1020700000388E0300C08103009F750300D0690300
:1020800000505E03001D53030034480300913D03DC
:10209000003333030016290300381F03009715038C
:1020A00000300C0300030303000BFA020049F102A5
:1020B00000BAE802005CE002002DD802002DD00238
:1020C0000059C80200B0C0020031B90200DAB10202
:1020D00000AAAA0200A0A30200BC9C0200FA95027A
:1020E000005C8F0200DF88020082820200457C02D1
:1020F000002776020027700200436A02007C640217
:1021000000D05E02003F590200C8530200FFFDFCF0
:10211000FAF8F6F4F2F0EEECEAE9E7E5E3E1E0DE06
:10212000DCDAD9D7D5D4D2D0CFCDCBCAC8C7C5C3B6
:10213000C2C0BFBDBCBAB9B7B6B4B3B2B0AFADAC34
:10214000AAA9A8A6A5A4A2A1A09E9D9C9A99989789
:1021500095949392908F8E8D8B8A898887868483BD
:102160008281807F7E7D7B7A7978777675747372D1
:1021700071706F6E6D6C6B6A6968676665646362C7
:1021800061605F5E5D5C5B5A5958585756555453B1
:10219000525150504F4E4D4C4B4A4A494847464683
:1021A000454443424241403F3E3E3D3C3B3B3A3941
:1021B000383837363535343332323130302F2E2EF1
:1021C0002D2C2B2B2A292928272726252524232394
:1021D00022212120201F1E1E1D1C1C1B1B1A191929
:1021E0001818171616151514131312121111100FB3
:1021F0000F0E0E0D0D0C0C0B0A0A09090808070733
:102200000606050504040303020201000053544FAF
:10221000505045442E20005072696E7465722073D0
:10222000746F707065642064756520746F206572CA
:10223000726F72732E20466978207468652065720B
:10224000726F7220616E6420757365204D39393963
:1022500020746F20726573746172742E2028546527
:102260006D70657261747572652069732072657333
:1022700065742E20536574206974206166746572DC
:102280002072657374617274696E67290A00206533
:1022900072726F72202D2072657374617274207770
:1022A000697468204D3939390A00424C546F75639E
:1022B000680021212053544F502063616C6C656489
:1022C0002062656361757365206F662000000044BD
:1022D000430000314300003943000020410000204A
:1022E000C10000000053657474696E6773205374F5
:1022F0006F72656400290A002062797465733B205F
:10230000637263200053657474696E67732053743D
:102310006F72656420280048617264636F6465644D
:102320002044656661756C742053657474696E67CA
:1023300073204C6F616465640020286D6D29002056
:102340003B204C6576656C696E67200020204D341B
:1023500032302053004175746F20426564204C6513
:1023600076656C696E6700204600204200204800B8
:1023700020204D3134352053004D61746572696100
:102380006C2068656174757020706172616D657430
:102390006572730020204D3134392043203B205595
:1023A0006E69747320696E2043656C736975730A76
:1023B0000054656D706572617475726520556E6943
:1023C0007473002020473231203B004C696E6561F8
:1023D0007220556E69747300454550524F4D20640C
:1023E00061746173697A65206572726F722E0A007A
:1023F000290A002062797465733B206372632000B0
:102400002073746F7265642073657474696E67738A
:1024100020726574726965766564202800202863DF
:10242000616C63756C6174656429210A0020213D2B
:102430002000454550524F4D20435243206D697353
:102440006D61746368202D202873746F7265642930
:1024500020002053697A653A2000496E6465783A15
:1024600020000000C8430000C843000000400000F6
:1024700034420000A3420000A3425258C843000067
:10248000D84288130000881300004B000000881316
:102490000000204D61726C696E3D563836290A0085
:1024A000454550524F4D2076657273696F6E206DB1
:1024B00069736D617463682028454550524F4D3DE6
:1024C0000024F4D43050C38E20C2A24017828B70F7
:1024D00011127A910D816CD90AA861E108C758667A
:1024E00007615143061E4B5D05C145A7041A411102
:1024F00004093D9803713931034036DB026533919D
:1025000002D4305402802E1D02632CEE01752AC5C0
:1025100001B028A001102781018F2564012B244BD5
:1025200001E0223401AC211F018D200D01801FFC30
:1025300000841EED00971DDF00B81CD200E61BC60C
:1025400000201BBC00641AB200B219A8000A19A02E
:10255000006A189900D117910040178B00B51684B6
:102560000031167E00B31579003A157300C7146F59
:102570000058146A00EE1366008813630025135E8A
:1025800000C7125B006C12570015125400C11151A4
:102590000070114F0021114B00D61049008D1047DB
:1025A000004610440002104200C00F4000800F3E61
:1025B00000420F3C00060F3B00CB0E3800930E3755
:1025C000005C0E3500270E3400F30D3200C10D31D2
:1025D00000900D3000600D2E00320D2D00050D2CE9
:1025E00000D90C2B00AE0C2900850C29005C0C27AF
:1025F00000350C27000E0C2600E80B2400C40B2429
:1026000000A00B23007D0B23005A0B2100390B2166
:1026100000180B2000F80A1F00D90A1E00BB0A1E72
:10262000009D0A1D00800A1D00630A1C00470A1B4A
:10263000002C0A1B00110A1A00F7091A00DD0919FB
:1026400000C4091900AB091900920917007B091889
:1026500000630917004C09160036091600200916F8
:10266000000A091500F5081500E0081400CC08144C
:1026700000B8081400A4081400900813007D081284
:10268000006B0813005808120046081200340811A5
:1026900000230811001208110001081100F00710B2
:1026A00000E0071000D0071000C0071000B0070FAF
:1026B00000A107100091070E0083070F0074070F99
:1026C0000065070E0057070E0049070E003B070D77
:1026D000002E070E0020070D0013070D0006070D42
:1026E00000F9060C00ED060D00E0060C00D4060C07
:1026F00000C8060C00BC060C00B0060C00A4060BBB
:102700000099060C008D060B0082060B0077060B65
:10271000006C060B0061060A0057060B004C060A07
:102720000042060A0038060A002E060A0024060A9D
:10273000001A060A001006090007060A00FD05092E
:1027400000F4050900EB050900E2050900D90509B7
:1027500000D0050900C7050900BE050900B5050838
:1027600000AD050800A50509009C050800940508B2
:10277000008C050800840508007C05080074050825
:10278000006C050700650508005D05070056050893
:10279000004E0507004705070040050800380507FB
:1027A00000310507002A050700230507001C050660
:1027B00000160507000F05070008050600020507BB
:1027C00000FB040600F5040700EE040600E804061A
:1027D00000E2040700DB040600D5040600CF04066F
:1027E00000C9040600C3040600BD040600B70406C1
:1027F00000B1040500AC040600A6040600A0040510
:10280000009B04060095040500900406008A040558
:102810000085040500800406007A0405007504059F
:1028200000700405006B04050066040500610405E2
:10283000005C04050057040500520405004D040522
:102840000048040500430405003E0404003A040562
:102850000035040500300404002C0405002704049E
:1028600000230405001E0404001A040400160405D5
:1028700000110404000D040400090405000404040C
:102880000000040400FC030400F8030400F4030443
:1028900000F0030400EC030400E8030400E4030474
:1028A00000E0030400DC030400D8030400D40304A4
:1028B00000D0030400CC030400C8030300C50303D5
:1028C0000024F404D9201BC40C5C0E9804C4095FD6
:1028D0000265077101F405F900FB04B300480487A1
:1028E00000C10369005803550003034500BE023AC6
:1028F000008402310053022A00290225000402202C
:1029000000E4011C00C8011900AF01170098011470
:102910000084011300710110006101100051010ECB
:102920000043010D0036010B002B010B0020010BB1
:1029300000150109000C01090003010800FB000853
:1029400000F3000800EB000700E4000600DE0006CC
:1029500000D8000600D2000600CC000500C7000524
:1029600000C2000500BD000400B9000400B5000469
:1029700000B1000400AD000400A9000400A500039C
:1029800000A20003009F0004009B000300980003C6
:10299000009500020093000300900003008D0002E8
:1029A000008B000300880002008600020084000300
:1029B00000810002007F0002007D0002007B000217
:1029C0000079000200770001007600020074000226
:1029D0000072000100710002006F0002006D000132
:1029E000006C0002006A000100690002006700013B
:1029F0000066000100650001006400020062000141
:102A00000061000100600001005F0002005D000144
:102A1000005C0001005B0001005A00010059000148
:102A20000058000100570001005600010055000148
:102A30000054000100530000005300010052000147
:102A40000051000100500001004F0001004E000045
:102A5000004E0001004D0001004C0001004B000041
:102A6000004B0001004A000100490001004800003D
:102A70000048000100470001004600000046000138
:102A80000045000000450001004400010043000033
:102A9000004300010042000000420001004100002C
:102AA0000041000100400001003F0000003F000124
:102AB000003E0000003E0001003D0000003D00011E
:102AC000003C0000003C0000003C0001003B000016
:102AD000003B0001003A0000003A0001003900000C
:102AE0000039000100380000003800000038000103
:102AF00000370000003700010036000000360000FB
:102B000000360001003500000035000000350001EE
:102B100000340000003400000034000100330000E5
:102B200000330000003300010032000000320000DA
:102B300000320001003100000031000000310001CE
:102B4000003000000030000000300001002F0000C5
:102B5000002F0000002F0000002F0001002E0000B9
:102B6000002E0000002E0001002D0000002D0000AE
:102B7000002D0000002D0001002C0000002C0000A2
:102B8000002C0000002C0001002B0000002B000096
:102B9000002B0000002B0001002A0000002A00008A
:102BA000002A0000002A000100290000002900007E
:102BB0000029000000290000002900010028000071
:102BC0000028000000280000002800000028000164
:102BD0000027000000270000002700000027000059
:102BE000002700010026000000260000002600004B
:102BF000002600000026000100250000002500003E
:102C0000002500000025000000250000002500012F
:102C10000024000000240000002400000024000024
:102C20000024000100230000002300000023000016
:102C30000023000000230000002300000023000107
:102C400000220000002200000022000000220000FC
:102C500000220000002200010021000000210000ED
:102C600000210000002100000021000000210000E0
:102C700000210001002000000020000000200000D2
:102C800000200000002000000020000000200000C4
:102C900000200001001F0000001F0000001F0000B6
:102CA000001F0000001F0000001F0000001F0001A7
:102CB000001E0000001E0000001E0000001E00009C
:102CC00000393000003325000087190000B00F00E4
:102CD00000DB080000BD040000740200003F01009A
:102CE0000020436F756E7420583A004265640045B9
:102CF00031004500626564002C2073797374656D42
:102D00002073746F7070656421204865617465720A
:102D10005F49443A200048656174696E67204661E6
:102D2000696C65640048656174696E6720666169F5
:102D30006C6564004572723A204D415854454D50BF
:102D4000004D415854454D50207472696767657253
:102D50006564004572723A204D494E54454D50000D
:102D60004D494E54454D50207472696767657265D0
:102D70006400544845524D414C2052554E415741F4
:102D80005900546865726D616C2052756E6177618F
:102D90007900202F002042403A0020403A000009EC
:102DA000121B242D363F48415A536C657E7719100B
:102DB0000B023D342F265158434A757C676E323BD7
:102DC0002029161F040D7A7368615E574C452B222B
:102DD00039300F061D14636A7178474E555C646D77
:102DE000767F4049525B2C253E3708011A137D74CB
:102DF0006F6659504B42353C272E1118030A565F17
:102E0000444D727B60691E170C053A3328214F46EA
:102E10005D546B627970070E151C232A31384148C6
:102E2000535A656C777E09001B122D243F3658518A
:102E30004A437C756E671019020B343D262F737A56
:102E40006168575E454C3B3229201F160D046A63AA
:102E500078714E475C55222B3039060F141D252CF6
:102E6000373E0108131A6D647F7649405B523C354A
:102E70002E2718110A03747D666F5059424B171E96
:102E8000050C333A21285F564D447B7269600E076A
:102E90001C152A233831464F545D626B707900004F
:102EA0002110422063308440A550C660E77008813D
:102EB00029914AA16BB18CC1ADD1CEE1EFF13112B4
:102EC000100273325222B5529442F772D66239938D
:102ED00018837BB35AA3BDD39CC3FFF3DEE3622404
:102EE000433420040114E664C774A44485546AA5DD
:102EF0004BB528850995EEE5CFF5ACC58DD5533694
:102F0000722611163006D776F6669556B4465BB72C
:102F10007AA719973887DFF7FEE79DD7BCC7C44863
:102F2000E5588668A7784008611802282338CCC97C
:102F3000EDD98EE9AFF9488969990AA92BB9F55AF3
:102F4000D44AB77A966A711A500A333A122AFDDBCC
:102F5000DCCBBFFB9EEB799B588B3BBB1AABA66CC3
:102F6000877CE44CC55C222C033C600C411CAEED1C
:102F70008FFDECCDCDDD2AAD0BBD688D499D977ED3
:102F8000B66ED55EF44E133E322E511E700E9FFF6C
:102F9000BEEFDDDFFCCF1BBF3AAF599F788F889122
:102FA000A981CAB1EBA10CD12DC14EF16FE1801006
:102FB000A100C230E3200450254046706760B98309
:102FC0009893FBA3DAB33DC31CD37FE35EF3B10256
:102FD0009012F322D2323542145277625672EAB519
:102FE000CBA5A89589856EF54FE52CD50DC5E234A6
:102FF000C324A01481046674476424540544DBA7E9
:10300000FAB79987B8975FE77EF71DC73CD7D326F5
:10301000F2369106B01657667676154634564CD978
:103020006DC90EF92FE9C899E9898AB9ABA9445845
:10303000654806782768C018E1088238A3287DCB48
:103040005CDB3FEB1EFBF98BD89BBBAB9ABB754A95
:10305000545A376A167AF10AD01AB32A923A2EFDD8
:103060000FED6CDD4DCDAABD8BADE89DC98D267CE5
:10307000076C645C454CA23C832CE01CC10C1FEF28
:103080003EFF5DCF7CDF9BAFBABFD98FF89F176E35
:10309000367E554E745E932EB23ED10EF01E7C3CB1
:1030A0003E5E2B3D3F2F5B5D3B2C2A225C00436143
:1030B0006E6E6F74206F70656E20737562646972D6
:1030C00020004D6564696120496E6974204661691C
:1030D0006C0053442063617264206F6B0A006F7050
:1030E000656E526F6F74206661696C65640A007664
:1030F0006F6C756D652E696E6974206661696C65AB
:10310000640A004E6F20534420636172640A000A0F
:103110004D3234004D3233202573002E0A006F707B
:10312000656E206661696C65642C2046696C653A41
:10313000200046696C652073656C65637465640A7C
:10314000002053697A653A200046696C65206F70EB
:10315000656E65643A2000454E4420535542524FF7
:103160005554494E450A002220706F73002220708A
:103170006172656E743A2200535542524F5554495C
:103180004E452043414C4C207461726765743A226D
:103190000053756263616C6C204F766572666C6F6C
:1031A00077004578636565646564206D61782053B8
:1031B0005542524F5554494E452064657074683AE3
:1031C0000057726974696E6720746F2066696C6558
:1031D0003A2000667265736800646F696E6700204C
:1031E00066696C653A20004E6F7720002F61757418
:1031F0006F25632E6700026D61726C696E66772EB3
:103200006F7267006275676669782D322E312E788D
:10321000001FFFFFFFFFFFFF600000000001FF40F5
:103220000000000000FF8000000000007F83CF004E
:10323000000C303F87FF80000C301F867980000C27
:10324000000F8C30C7838C30E78C30CFC7CC31F384
:103250008C30DCECEC33B98C30D86C6C33198C309E
:10326000D06C0C33198C30D86C0C33198C30DC6C6E
:103270000E3B198C30CF7C079F198C30C77C038F95
:103280001940000000000002600000000000061F5E
:10329000FFFFFFFFFFF870012C0190012701B00133
:1032A0002201C0011D01F0011801100213013002BA
:1032B0000E016002090190020401C002FF00000338
:1032C000FA004003F5008003F000D003EB00200477
:1032D000E6007004E100E004DC004005D700C00512
:1032E000D2004006CD00D006C8008007C3003008D9
:1032F000BE00F008B900C009B400B00AAF00B00BBE
:10330000AA00D00CA500000EA000500F9B00C0101A
:1033100096005012910000148C00C0158700B01761
:103320008200B0197D00D01B7800001E7300402081
:103330006E0090226900F024640040275F0090290D
:103340005A00E02B5500102E500020304B00103258
:103350004600E033410090353C00103737007038AC
:103360003200A0392D00B03A2800A03B2300603C79
:103370001E00103D1900903D1400103E0F00703EDD
:103380000A00C03E0500003F0000403FFBFF803FB9
:10339000F6FFC03FF1FF2020506C616E6E657242F7
:1033A000756666657242797465733A2000204672CC
:1033B0006565204D656D6F72793A200020436F6D11
:1033C00070696C65643A204A756E2031372032305E
:1033D00032320A00204C6173742055706461746548
:1033E000643A20323032322D30362D3135207C2077
:1033F000417574686F723A206A6F6E7361670A0074
:103400004D61726C696E206275676669782D322E27
:10341000312E780A0020536F6674776172652052EE
:10342000657365740A00205761746368646F672070
:1034300052657365740A002042726F776E206F7553
:10344000742052657365740A002045787465726E45
:10345000616C2052657365740A00506F7765725510
:10346000700A0073746172740A0047323858590048
:103470004D31303031006F6B006572726F722077A2
:10348000726974696E6720746F2066696C650A00E2
:10349000446F6E6520736176696E672066696C653E
:1034A0002E0A004D323900456E6473746F707300DC
:1034B00025532025632025632025632025630020D4
:1034C0005A3A0020593A0020583A00656E647374E5
:1034D0006F7073206869743A200000000A0B0209BB
:1034E0000C0D0E080703040100000000000000009E
:1034F00000000000000000000000000000000000CC
:103500000000000000001211100000000000000088
:1035100000000000000000000000000000000000AB
:103520004D6F766520246D6D00302E303235004DA4
:103530006F766520302E316D6D004D6F76652031D0
:103540006D6D004D6F76652031306D6D004D6F767D
:10355000652041786973004D6F76652045787472F7
:1035600075646572004D6F7665205A004D6F766503
:103570002059004D6F7665205800486F6D696E6761
:10358000204661696C656400FFFFFF50726F6269DD
:103590006E67204661696C65640A0050726F6269EB
:1035A0006E67204661696C656400205A3A200020ED
:1035B000593A200042656420583A2000220A0055FA
:1035C0006E6B6E6F776E20636F6D6D616E643A2007
:1035D0002200204500205A0020590020204D393279
:1035E00020580053746570732070657220756E6981
:1035F0007400DB0FC93F45BCDA3F8FB30240FCF0DB
:10360000274056946140FE4B9B4084A5D840E02360
:103610001841346A5641E859974164DBD5416E2719
:103620001742B4B75542CE1A9742C8AED542B588B4
:103630005A43D40684BFA65FA7BF7443E0BF10B14E
:103640001AC01C2C58C0E8F697C0B849D6C04E4ED8
:1036500017C124D355C1802497C1A0B5D5C1121A72
:1036600017C244AE55C2781797C26CACD5C26788F2
:103670005AC320746F6F206C6F6E67206578747208
:103680007573696F6E2070726576656E7465640A15
:103690000020636F6C6420657874727573696F6E57
:1036A0002070726576656E7465640A006F6B0A003F
:1036B000526573656E643A200020453A00205A3AFC
:1036C0000020593A00583A00000022002500280046
:1036D0002B002E003100340002010000050108011A
:1036E0000B0100002100240027002A002D003000DB
:1036F000330001010000040107010A010505050569
:10370000070508080808020202020A0A0808040459
:103710000404010101010101010103030303030387
:103720000303040707070C0C0C0C0C0C0C0C020216
:10373000020206060606060606060B0B0B0B0B0B13
:103740000B0B0102102020080810204010204080A0
:103750000201020108040201010204081020408055
:1037600080402010080402018004020180402010E3
:10377000080402010804020101020408102040802C
:1037800001020408102040804572726F7220777227
:103790006974696E6720746F20454550524F4D2102
:1037A0000A00476565657465636820693320507257
:1037B0006F20422052656164792E005072696E74E8
:1037C000696E672E2E2E005072696E7420506175DE
:1037D00073656400B200AC0011241FBECFEFD1E2CC
:1037E000DEBFCDBF00E00CBF84B78093031614BECC
:1037F0000FB6F894A895809160008861809360006E
:10380000109260000FBE13E0A0E0B2E0E8E7F2E53E
:1038100002E00BBF02C007900D92AA3BB107D9F797
:1038200026E1AAEBB3E001C01D92A330B207E1F795
:103830001BE1CBEEDBE100E006C021970109802F00
:10384000FE010F94D025CA3ED10780E00807A9F7F2
:103850000F943A110D942B290C9400008F929F9293
:10386000AF92BF92CF92DF92EF92FF926B017C01F9
:1038700020E030E0A9010F94091F87FD6BC06DEBBC
:1038800077E386E095E3A70196010F94EB256B01A2
:103890007C0120E030E040E251E40F946E1F20E014
:1038A00030E040E251E40F946E1F4B015C0120E0D8
:1038B00030E0A901C701B6010F94091F20E030E0F4
:1038C00040EA50E487FF04C020E030E040EA50ECDA
:1038D000C501B4010F94EB2520E030E040E251E453
:1038E0000F94C7260F942F279B018BE237FF05C04B
:1038F00022273327261B370B8DE28093AE05C901A3
:1039000064E670E00F94BD25CB01EAE0F0E0BF0172
:103910000F94BD25805D8093AF05C901BF010F9451
:10392000BD25282FCB01BF010F94BD25805D80935D
:10393000B0058EE28093B105205D2093B2058EEA3A
:1039400095E0FF90EF90DF90CF90BF90AF909F9069
:103950008F9008956DEB77E386E095EB94CF8F928F
:103960009F92AF92BF92CF92DF92EF92FF92CF934E
:103970006B017C0120E030E0A9010F94091F87FD55
:10398000C3C06DEB77E386E095E3A70196010F9442
:10399000EB256B017C0120E030E0A9010F94091FA9
:1039A00087FFB7C0C701B601905820E030E040E281
:1039B00051E40F946E1F20E030E040E251E40F9498
:1039C0006E1F20E030E040EA50E40F94EB2520E049
:1039D00030E040E251E40F94C7260F942F276B018B
:1039E0007C0160E280EAC81686E8D80681E0E80635
:1039F000F1048CF0C701B60120EA36E841E050E05E
:103A00000F945525CA01B9012AE030E040E050E0AA
:103A10000F945525605D6093AC0560E280E1C816A7
:103A200087E2D806E104F1048CF0C701B60120E179
:103A300037E240E050E00F945525CA01B9012AE071
:103A400030E040E050E00F945525605D6093AD0597
:103A500060E288EEC81683E0D806E104F1048CF039
:103A6000C701B60128EE33E040E050E00F94552541
:103A7000CA01B9012AE030E040E050E00F9455253A
:103A8000605D6093AE0560E284E6C816D104E1048F
:103A9000F1048CF0C701B60124E630E040E050E0CC
:103AA0000F945525CA01B9012AE030E040E050E00A
:103AB0000F945525605D6093AF058AE0882E912CA8
:103AC000A12CB12CC701B601A50194010F94552575
:103AD000C62FCA01B901A50194010F945525605D57
:103AE0006093B0058EE28093B105C05DC093B205CE
:103AF0008CEA95E0CF91FF90EF90DF90CF90BF9050
:103B0000AF909F908F9008956DEB77E386E095EBF3
:103B10003CCF20E030E040E251E4C701B60149CF9C
:103B20008F929F92AF92BF92CF92DF92EF92FF92CD
:103B3000CF936B017C0120E030E0A9010F94091FB5
:103B400087FD93C06DEB77E386E095E3A7019601CF
:103B50000F94EB256B017C0120E030E040E251E462
:103B60000F946E1F20E030E04AE754E40F946E1F7C
:103B70004B015C0120E030E0A901C701B6010F94C0
:103B8000091F20E030E040EA50E487FF04C020E055
:103B900030E040EA50ECC501B4010F94EB2520E081
:103BA00030E040E251E40F94C7260F942F276B01B9
:103BB0007C01C114D104E104F10409F45BC0F7FEF7
:103BC00059C0F094E094D094C094C11CD11CE11C65
:103BD000F11C8DE28093AD05C701B60128EE33E0FC
:103BE00040E050E00F9455258AE0882E912CA12CBE
:103BF000B12CCA01B901A50194010F945525605D4E
:103C00006093AE058EE28093AF05C701B60124E64E
:103C100030E040E050E00F945525CA01B901A501FC
:103C200094010F945525605D6093B005C701B601FE
:103C3000A50194010F945525C62FCA01B901A5010C
:103C400094010F945525605D6093B105C05DC093EC
:103C5000B2058DEA95E0CF91FF90EF90DF90CF9085
:103C6000BF90AF909F908F9008956DEB77E386E0C3
:103C700095EB6CCF80E2AECFCF93DF93EC01CB011D
:103C8000BA010F940F1F20E030E040E251E40F949E
:103C9000C726688379838A839B83DF91CF910895B8
:103CA000CF93DF93EC01CB01BA010F940F1F20E0FB
:103CB00030E040E251E40F94C726688379838A8319
:103CC0009B83DF91CF9108950F940F1F20E030E088
:103CD00040E251E40F94C72642CE0F940F1F20E01C
:103CE00030E040E251E40F94C726B8CDCF93DF9384
:103CF000EC01CB01BA010F940F1F2AE037ED43E22C
:103D00005DE30F94C7260F943427688379838A83F1
:103D10009B83DF91CF910895CF93DF93EC01CB018B
:103D2000BA010F940F1F2AE037ED43E25DE30F94D1
:103D3000C726688379838A839B83DF91CF91089517
:103D4000CF93DF93EC01CB01BA010F940F1F68836F
:103D500079838A839B83DF91CF910895CF93DF93FB
:103D6000EC01CB01BA010F940F1F20E030E048ECCA
:103D700052E40F94C726688379838A839B83DF91FB
:103D8000CF910895CF93DF93EC01CB01BA010F944B
:103D90000F1F0F942F2779836883DF91CF910895A8
:103DA000CF93DF93EC01CB01BA010F940F1F20E0FA
:103DB00030E04AE754E40F94C726688379838A8306
:103DC0009B83DF91CF9108950F940F1F20E030E087
:103DD0004AE754E40F94C726A3CEFC0184910895CA
:103DE000FC0180810895FC01A081B1811C92A28117
:103DF000B3818C918F5F8C930280F381E02D908151
:103E00008CE0989F800D1124E6EDF3E113AE84AFB2
:103E10000895009751F0FC0180E09191992331F0D1
:103E2000907C9038D1F38F5FF8CF80E00895909127
:103E3000020192709093000100C09091020187FDF1
:103E400090959170909300019091020190959270DD
:103E50009093000100C000C0909102019270909375
:103E6000000100C09091020186FD909591709093A1
:103E7000000190910201909592709093000100C012
:103E800000C09091020192709093000100C0909147
:103E9000020185FD9095917090930001909102012F
:103EA000909592709093000100C000C09091020123
:103EB00092709093000100C09091020184FD909552
:103EC000917090930001909102019095927090935F
:103ED000000100C000C09091020192709093000117
:103EE00000C09091020183FD909591709093000124
:103EF00090910201909592709093000100C000C0D3
:103F00009091020192709093000100C09091020183
:103F100082FD90959170909300019091020190958F
:103F200092709093000100C000C0909102019270C5
:103F30009093000100C09091020181FD90959170D5
:103F4000909300018091020180958270809300011E
:103F500000C000C08091020182708093000100C007
:103F6000809102018170809300018091020180950F
:103F700082708093000100C000C0089590E080E04E
:103F80000895CF93DF93C0916707D091680781E0D0
:103F9000CE31D105E4F020E030E040E05FE3609115
:103FA00063077091640780916507909166070F948D
:103FB000EB250F942F276C1B7D0B77FF03C07195AA
:103FC0006195710981E0633071050CF080E0DF914B
:103FD000CF910895CF93DF93DB01F9019C9191304C
:103FE000C1F0943080F094509C938830D1F480815B
:103FF0009181009771F0019791838083480F591F39
:10400000EA01188206C08C3539F49C5F9C93943089
:1040100041F4DF91CF9108958B3339F781E08C9390
:10402000F8CF20813181B9016F5F7F4F7183608349
:10403000420F531FEA018883808191818F3591055A
:104040006CF7E7CF0F931F9381E000912915109132
:104050002A1520912B1530912C1540912515509142
:104060002615609127157091281504171507260746
:10407000370708F480E01F910F91089590E080E0E9
:1040800008952091E604833021F425FD0CC024FD21
:104090000CC030E0A90102C0559547958A95E2F71A
:1040A000CA018170089581E0089580E008958091AB
:1040B000020584FD0BC08091040587FD07C0909127
:1040C0000505937081E019F480E0089581E008957A
:1040D0002FEB280F2A3108F047C0E22FF0E0809143
:1040E000020590910305A0910405B091050504C057
:1040F000B695A795979587952A95D2F780FD02C02A
:1041000081700895E851FB4FE081EE2341F18091E9
:10411000AE079091AF07E80FF92FF11D808190ED68
:10412000980F9A3030F08E3251F4818180538A306A
:1041300098F4F093DC04E093DB0481E008958D3281
:1041400011F08B3249F4818190ED980F9A3088F309
:104150008E3211F48281EACFF0E0E0E0EACF1092F3
:10416000DC041092DB04E9CF80E00895B1DF8823FE
:1041700041F081E02091DB043091DC04232B09F431
:1041800080E00895809A8898089580E090E0A0E803
:10419000B0E48093700290937102A0937202B09386
:1041A00073028AED92E00E94C8BBE091A805E4305A
:1041B000C9F480E090E0AAEBB2E4809368029093A7
:1041C0006902A0936A02B0936B0280E090E0A6EAD5
:1041D000B2E480936C0290936D02A0936E02B09350
:1041E0006F0232C080E090E0ACE0B2E480936802FD
:1041F00090936902A0936A02B0936B0280E090E012
:10420000A0E2B1E480936C0290936D02A0936E02E1
:10421000B0936F02EE0FFF0BE654FD4F808191814A
:104220008330910549F18430910591F1029761F451
:1042300080E090E0ABE2B3E480936802909369027F
:10424000A0936A02B0936B0282EC92E00E94C8BB1A
:104250001092700210927102109272021092730208
:104260008AED92E00E94C8BB8091A8058F5F8530DF
:10427000A4F48093A805089580E090E0ABE2B3E455
:104280008093680290936902A0936A02B0936B02D4
:1042900080E090E0A3E1B3E49CCF1092A8050895DC
:1042A000CF93DF9300D01F92CDB7DEB70F943427A2
:1042B0000F940D1F69837A838B839C83CE010196B3
:1042C0000E9497C90F900F900F900F90DF91CF91A0
:1042D00008950F940F1F2AE037ED43E25DE30F943A
:1042E000C726DECFCF92DF92EF92FF92CF93DF937C
:1042F00000D01F92CDB7DEB76B017C0120E030E02B
:10430000A9010F94091F87FD1BC06DEB77E386E0C1
:1043100095E3A70196010F94EB2569837A838B833C
:104320009C83CE0101960E9497C90F900F900F9029
:104330000F90DF91CF91FF90EF90DF90CF90089595
:104340006DEB77E386E095EBE4CF0F940F1F2AE047
:1043500037ED43E25DE30F94C726C4CF0F940F1FE0
:10436000C1CF0F940F1F20E030E048EC52E40F94CF
:10437000C7260C9463D80F940F1F0F942F27CB01DF
:104380000C9499CA0C941BAB0C941BAB0C94CDAA47
:104390000C94CDAA0C94CDAA0C94CDAA63E972E03A
:1043A00084E690E00E9482D170E060E08AE090E0D4
:1043B0000E9482D16AEB72E084E690E00C9482D194
:1043C0008111ECCF68E270E080E991E00C9482D139
:1043D0000E94E5A7F5CF80915F02882341F06091AC
:1043E000A5057091A60541E081E00C949FFD08951C
:1043F0000E94BFC2E5CF0E9465C1D0CFCF93DF93AB
:10440000C0916707D0916807209729F160916307F1
:104410007091640780916507909166070F942F272C
:104420006E5F7F4F24976C177D07ACF47093EA059D
:104430006093E9050F945802605A75418F4F9F4F62
:104440006093EB057093EC058093ED059093EE057A
:10445000DF91CF9108951092EB051092EC05109228
:10446000ED051092EE05F4CFBF92CF92DF92EF925E
:10447000FF920F931F93CF93DF936B01E9014A30B3
:1044800009F4D6C0453109F081C0DB011296ED91E7
:10449000FC911281C681D781599A00C0000086E242
:1044A00090E00197F0F7012F0295007F20E1B22EF6
:1044B000B10E88EFBCDC00C0000086E290E00197FE
:1044C000F0F7103208F0A1C0812F80778068AFDC50
:1044D000802FADDC00C0000086E290E00197F0F78D
:1044E00080E8A5DC80E0A3DC00C0000086E290E06C
:1044F0000197F0F78AEF9BDC00C0000086E290E0B5
:104500000197F0F77E01B0E1EB0EF11C8881807F0E
:104510008EDC89918295807F8ADCCE15DF05B1F72C
:1045200000C0000086E290E00197F0F71F5F005F97
:104530001B11BFCF5998D6011296ED91FC91808145
:104540009281980F92832181921708F075C294810D
:104550009F5F94839381890F821710F08FEF820FF2
:104560008383458150E0440F551F70E060E08681F1
:1045700097810F94D72881E0DF91CF911F910F9100
:10458000FF90EF90DF90CF90BF900895FB010281E4
:104590001381423309F452C208F45AC2463409F472
:1045A00047C2473409F44FC24B3329F789812B8125
:1045B000D80112966C91129713964C91213009F400
:1045C0008CC2233009F06DC238EF380F582F91E0BC
:1045D000431708F490E041E0531708F040E031E061
:1045E000561708F430E0592F542B352319F494232F
:1045F00009F4C1CFFA8030E0F901EA55FD4FD080CF
:104600002E553D4FF901E08065C280EE810F806834
:10461000807F0DDC812F8295807F09DC00C0000047
:1046200086E290E00197F0F780E801DC80E85BCF5C
:10463000519A599880910101816080930101809184
:10464000020181708093000180910101826080935A
:104650000101809102018095827080930001599A36
:1046600000C0000086E290E00197F0F788E790E054
:10467000CEE9DFE0FE013197F1F70197D9F788EF36
:10468000D6DB00C0000086E290E00197F0F780E200
:10469000CEDB80E0CCDB00C0000086E290E001973A
:1046A000F0F780E0C4DB80E8C2DB00C0000086E2F7
:1046B00090E00197F0F780E0BADB80E1B8DB00C062
:1046C000000086E290E00197F0F7CE010197F1F744
:1046D000CE010197F1F7CE010197F1F7CE010197D5
:1046E000F1F7CE010197F1F7CE010197F1F7CE0175
:1046F0000197F1F7CE010197F1F7CE010197F1F79C
:10470000CE010197F1F7CE010197F1F7CE010197A4
:10471000F1F7CE010197F1F7CE010197F1F721975B
:10472000F1F780E284DB80E482DB00C0000086E2F7
:1047300090E00197F0F780E27ADB80E678DB00C05A
:10474000000086E290E00197F0F7D0E0C0E08C2F07
:10475000807780686CDB8D2F6ADB00C0000086E20A
:1047600090E00197F0F780E862DB80E060DB00C05A
:10477000000086E290E00197F0F78AEF58DB00C076
:10478000000086E290E00197F0F790E2809102014C
:1047900082708093000100C080910201817080933B
:1047A000000180910201809582708093000100C019
:1047B00000C08091020182708093000100C080914E
:1047C00002018170809300018091020180958270C6
:1047D0008093000100C000C080910201827080932C
:1047E000000100C0809102018170809300018091DE
:1047F0000201809582708093000100C000C080910A
:10480000020182708093000100C0809102018170DA
:104810008093000180910201809582708093000155
:1048200000C000C08091020182708093000100C02E
:104830008091020181708093000180910201809536
:1048400082708093000100C000C0809102018270DC
:104850008093000100C0809102018170809300016B
:1048600080910201809582708093000100C000C099
:104870008091020182708093000100C0809102014A
:1048800081708093000180910201809582708093F5
:10489000000100C000C0809102018270809300017D
:1048A00000C080910201817080930001809102011B
:1048B000809582708093000100C000C08091020149
:1048C00082708093000100C080910201817080930A
:1048D000000180910201809582708093000100C0E8
:1048E00000C08091020182708093000100C080911D
:1048F0000201817080930001809102018095827095
:104900008093000100C000C08091020182708093FA
:10491000000100C0809102018170809300018091AC
:104920000201809582708093000100C000C08091D8
:10493000020182708093000100C0809102018170A9
:104940008093000180910201809582708093000124
:1049500000C000C08091020182708093000100C0FD
:104960008091020181708093000180910201809505
:1049700082708093000100C000C0809102018270AB
:104980008093000100C0809102018170809300013A
:1049900080910201809582708093000100C000C068
:1049A0008091020182708093000100C08091020119
:1049B00081708093000180910201809582708093C4
:1049C000000100C000C0809102018270809300014C
:1049D00000C08091020181708093000180910201EA
:1049E000809582708093000100C000C000C000006C
:1049F000E6E2F0E03197F0F7915009F0C7CE88EF8A
:104A000016DA00C0000086E290E00197F0F7CF5F71
:104A1000D05FC03209F09BCE80E009DA80EC07DA83
:104A200000C0000086E290E00197F0F75998A3CD0E
:104A3000F801858188839FCD80E09ECDB901C801B2
:104A40000F946C0398CDD80111968C91888393CDE7
:104A5000443191F0473109F08ECD1882D801129679
:104A60008C911297898315968C91159781508A8322
:104A700013968C918B837FCDD80115964C91159709
:104A800050E0440F551F70E060E016968D919C91A8
:104A90000F94D728F8011282808181508383148279
:104AA0006ACD481708F467CD861708F464CDFA80FC
:104AB000E12CD12C243070F49ECDBE01C8010F949E
:104AC0006C03898198819D0D98838E0D8983FF0CDD
:104AD00009F451CDF7FEF6CFF0CF58E0580F382F3C
:104AE00076CDEF92FF920F931F93CF93DF93EC015C
:104AF0008B017A018A859B858617970731F088811B
:104B000099810F949E051B870A87B7018881998137
:104B10000E9453FE2E813F81820F932F911D9F8310
:104B20008E8390E080E0DF91CF911F910F91FF90F5
:104B3000EF9008959F92AF92BF92CF92DF92EF9243
:104B4000FF920F931F93CF93DF93EC018B01942E71
:104B5000A52E8A859B858617970731F088819981D4
:104B60000F949E051B870A8788859985019649F5CC
:104B7000BC800A818E81080FC880D980D6015596E5
:104B8000ED91FC91C6011995B80EE92CFA2C10E0B4
:104B9000F70121917F01211127C08E819F81810F13
:104BA000911D9F838E8390E080E0DF91CF911F91D4
:104BB0000F91FF90EF90DF90CF90BF90AF909F90BC
:104BC00008950E811F81692D7A2D888199810E9417
:104BD00053FE800F912F911D28853985281739079D
:104BE00038F681E090E0E1CF4B2D602FC6010F94A5
:104BF000F605080F180FCCCFDF92EF92FF920F93BC
:104C00001F93CF93DF93EC01D62E1CAD0BAD7C012F
:104C100084E0E80EF11CE98DFA8DC7011995412F4A
:104C2000480F2D2D602FC7010F94F6059BAD890FFE
:104C30008BAF81E090E0DF91CF911F910F91FF90BA
:104C4000EF90DF9008952F923F924F925F926F9274
:104C50007F928F929F92AF92BF92CF92DF92EF920C
:104C6000FF920F931F93CF93DF93162F072F242EBE
:104C7000FC0180809180A280B380C501B40120E155
:104C80003EE040E050E00F943325E22ED32EC22FB9
:104C9000D32F8CE3482E512C612C712CC501B4010B
:104CA000A30192010F943325C62E372ECA01B901F4
:104CB000A30192010F943325F62E772E222059F16D
:104CC000C501B40120E831E541E050E00F943325FF
:104CD00069017F92FF92CE0168E170E00F94A925EF
:104CE0009F938F933F932F938AE593E19F938F93A5
:104CF0000F931F930F94A21EEDB7FEB73A960FB60F
:104D0000F894FEBF0FBEEDBF88E0FAE0CF16D104E5
:104D1000C8F089E017C0209741F53F92CF927F936A
:104D20006F938EE493E19F938F930F931F930F9450
:104D3000A21E8DB79EB708960FB6F8949EBF0FBE01
:104D40008DBF85E0DF91CF911F910F91FF90EF9084
:104D5000DF90CF90BF90AF909F908F907F906F909B
:104D60005F904F903F902F900895C436D105A8F4DE
:104D70007F936F93DF92EF9282E493E19F938F93FF
:104D80000F931F930F94A21EEDB7FEB738960FB680
:104D9000F894FEBF0FBEEDBFD4CF7F936F93DF9229
:104DA000EF9288E393E19F938F930F931F930F9458
:104DB000A21E8DB79EB708960FB6F8949EBF0FBE81
:104DC0008DBF86E0BFCFCF9380911005811154C075
:104DD0001092111410921214109213141092DF13E7
:104DE0001092DE131092E1131092E0131092E3136D
:104DF00081E08093E21382E28093E4131092E9133E
:104E00001092E813EDEFF3E12BE034E18FEF8193A3
:104E10002E173F07E1F7C1E0C093FA1327E430EE05
:104E20003093F0132093EF13C093F1131092F21309
:104E30001092F31390E49093F4131092F51326E478
:104E400030EE30930C1420930B1421E132E03093B8
:104E5000DD132093DC1390E19093011491E1909382
:104E6000021494E19093FF138093FE138093FD133B
:104E70000F94AA03C093100581E08093120588E384
:104E800093E19093B9128093B8121092BB121092D2
:104E9000BA12CF910895CF92DF92EF92FF920F93C3
:104EA0001F93CF93DF93CDB7DEB72C970FB6F8944F
:104EB000DEBF0FBECDBFF0901114E0901214209110
:104EC000120521111DC048EF52E16E2D8F2D0F9458
:104ED000610690E080E0F80EF0921114E092121456
:104EE00099272C960FB6F894DEBF0FBECDBFDF9189
:104EF000CF911F910F91FF90EF90DF90CF90089589
:104F0000C090DE13D090DF132AED33E13A8329837A
:104F10002F2D30E03C832B832E2D30E03E832D83DC
:104F200018861F827A8769871C861B860AE915E224
:104F30009E012F5F3F4F4DEE5EE1BC01C6010E9416
:104F4000EFF2B6018AED93E10F949E058F8198856B
:104F5000C2CF8091DB049091DC04009731F04AE0ED
:104F600050E070E060E00D942A1D60E070E0CB013D
:104F700008950F931F93CF938091DB049091DC04ED
:104F80000097E9F0FC018F01C1912C2F2F7D81F05A
:104F9000C53411F0C536B9F7F801108270E060E051
:104FA0000F94A71AF801C083CF911F910F91089514
:104FB00070E060E0CF911F910F910D94A71A60E00F
:104FC00070E0CB01F1CFCF92DF92EF92FF926A01B6
:104FD0007B01CCD8882329F0FF90EF90DF90CF9011
:104FE000C8CFC701B601FF90EF90DF90CF90089532
:104FF0004F925F926F927F92AF92BF92CF92DF9269
:10500000EF92FF920F931F93CF938EE9A82E82E029
:10501000B82E94ECE92E95E0F92E08E612E023E58F
:10502000C22E22E1D22EC0E0F50181915F019ED80F
:10503000882309F477C09DDF2B013C018C2F21D8F8
:10504000882309F465C0F8012081318142815381B0
:10505000C301B2010F94EB25F70160837183828352
:105060009383CF5FF4E0EF0EF11C0C5F1F4F84E0E1
:10507000C80ED11CC330C1F685E478D8882309F462
:105080005CC077DF6B017C0183E00E9441208823B4
:1050900071F0209174023091750240917602509126
:1050A0007702C701B6010F94EB256B017C01C0921A
:1050B000D005D092D105E092D205F092D30540E020
:1050C00050E0BA0186E47FDF20E030E0A9010F94D0
:1050D000122818167CF44DDF20E030E040E752E45F
:1050E0000F94C7266093290270932A0280932B02A3
:1050F00090932C02CF911F910F91FF90EF90DF9032
:10510000CF90BF90AF907F906F905F904F90089539
:10511000F6012081318142815381C301B2010F9494
:10512000EA259ACFF80180819181A281B381F701AC
:1051300080839183A283B38394CF809174029091F2
:105140007502A0917602B09177028093D00590937A
:10515000D105A093D205B093D305B1CF8091DB04E4
:105160009091DC04009731F04AE050E070E060E09C
:105170000D94FD1B60E070E0CB010895EFDFCB01E3
:105180000895ECDF97FD0AC0E9DF6F3F71058105E7
:10519000910509F02CF4E2DF862F089580E0089550
:1051A0008FEF0895CF93C62F0E94B620882311F069
:1051B000CF91E7CF8C2FCF9108958091DB04909110
:1051C000DC04892B39F0DDDF91E0811101C090E032
:1051D000892F089591E0FCCFCF93DF93C82FD62F6E
:1051E0000E94B620882319F0DF91CF91E6CF8C2F53
:1051F0000E946820811101C08D2FDF91CF91089509
:10520000CF92DF92EF92FF920F931F93CF93DF9392
:105210006B017A01EC01C653DB4F28813CE0389FDB
:105220008001399F100D112427FF24C0FB0111823A
:10523000108288818F5F888388819801280F311DB3
:1052400087FD3A95C90120916913F60128171906BF
:1052500029F024F088818C300CF43CC0808191814D
:10526000049680349C4908F475C0F60180819181D0
:10527000049672C088819801280F311D87FD3A95E8
:10528000C901209169132817190699F294F28881AF
:10529000A801480F511D87FD5A95FA01EE0FFF1F17
:1052A000E40FF51FEF5DFC4E808187FFC2CF888140
:1052B000F801E80FF11D87FDFA95CF01EE0FFF1FF2
:1052C000E80FF91FEF5DFC4E808160E08F770F944F
:1052D0003201AFCF808191812881A801420F511DF9
:1052E00027FD5A959A01FA01EE0FFF1FE20FF31FF7
:1052F000EF5DFC4E21813281820F931FF701918374
:10530000808388819801280F311D87FD3A95F90126
:10531000EE0FFF1FE20FF31FEF5DFC4E808187FF52
:1053200020C08881080F111D87FD1A95F801EE0F26
:10533000FF1FE00FF11FEF5DFC4E808161E08F7772
:10534000DF91CF911F910F91FF90EF90DF90CF9061
:105350000D94320180E49CE9F701918380838FEF03
:105360008883DF91CF911F910F91FF90EF90DF9095
:10537000CF900895CF93DF93CDB7DEB720E2488575
:1053800059856F818E810E9408FEDF91CF9108952B
:105390000F931F93522F2091D4133091D5132817B8
:1053A000390781F11092D8052091A2053091A3050B
:1053B00037FF04C01092A3051092A2059093D51355
:1053C0008093D4138B0130E020E000938E0710937C
:1053D0008F0720939007309391074093870750934E
:1053E00088078451954421F41092AB051092A405CE
:1053F00082E080935F0281E080939E071092AA056D
:105400001092A7051F910F91089520E040E070E0F1
:1054100060E084E195E4BCCFCF930E9465C10E9417
:10542000E5A7C82F882319F080E00E9448A78C2F99
:105430000E94E021CF91E9CF88ED95E190935D073F
:1054400080935C07E2CFCF93DF93C091A405CC2378
:10545000B1F0C150C093A40589E0C89FE0011124B8
:10546000C459DA4F6A817B812F814E81888199816D
:105470008FDF88858093AB05DF91CF910895DF9111
:10548000CF91C3CFE091A405E63028F581E08E0FDF
:105490008093A40540918E0750918F0760919007EB
:1054A0007091910720918707909188078091AB05B3
:1054B00039E0E39FF0011124E459FA4FA091D4138D
:1054C000B091D513B183A0834283538364837583E2
:1054D00026839783808708958093830720E040E0A8
:1054E00070E060E082EC9EE253CFCF93DF93CDB7C4
:1054F000DEB78E81282F082E000C330B9091B71247
:105500009217130609F08CF48093B7129E01275F5F
:105510003F4F4F8158856AE270E08CE892E10F942A
:10552000D11E10928B1210928A12DF91CF910895A2
:105530000F931F93CF93DF938C016F3F19F4109259
:10554000B71260E02091B712862F062E000C990B3F
:105550002817190609F014F56093B712C8010F94C3
:10556000581E800F911FEC01C01BD10BCB32D1050F
:105570003CF00197FC012491207C2038D1F3F3CF3B
:10558000DD27AE01B8018CE892E10F94791EC45773
:10559000DD4E188210928B1210928A12DF91CF91F9
:1055A0001F910F910895CF9380916405811109C0D7
:1055B00082E694E19093A6058093A50581E080930F
:1055C000640560DF20E040E070E060E08BEE91E297
:1055D000DFDEC1E0C093AB050E943EAB1092AB058D
:1055E00032DFC093AB0560E087EC97E3A1DF8EE587
:1055F00094E190935D0780935C07CF9108950F939A
:105600001F930F94580200915F051091600520913F
:10561000610530916205601B710B820B930B97FD46
:105620000CC0809109018095881F8827881F919B55
:1056300082604A9B846080935E0580915E058170E4
:1056400090915E0591FD826090915D05981749F0FB
:10565000813009F148F0823079F0833091F0809305
:105660005D051F910F910895913079F09230B9F74F
:1056700090915C059F5F0CC0992339F09330C1F382
:10568000EECF9130A9F3923051F790915C05915093
:1056900090935C05E4CF992359F3933001F7F5CF4C
:1056A000CF92DF92EF92FF92CF93C82F0F945802C0
:1056B0006B017C0124EA30E74DE75FE36091230250
:1056C0007091240280912502909126020F94091F67
:1056D00087FD18C08AEF90E0A0E0B0E08C0D9D1D22
:1056E000AE1DBF1D80934C0590934D05A0934E05B4
:1056F000B0934F05C0931902CF91FF90EF90DF90C8
:10570000CF90089580E090E0DC01E8CF5CDBEAE038
:10571000F1E080818F77808380910B018095807884
:10572000809309019998A19A52985A9A68DF109229
:105730005C050C945AF3FC0180E0309749F0949199
:10574000992331F0907C903809F08F5F3196F7CF34
:105750000895AF92BF92CF92DF92EF92FF920F9394
:105760001F93CF93DF93EC015B018A01FB01199535
:1057700087FD16C0C82ED12CF12CE12C2196F80102
:10578000C082D182E282F382CE01DF91CF911F915C
:105790000F91FF90EF90DF90CF90BF90AF90089562
:1057A000982F907E903CA9F48F7190E0B0E0A0E03B
:1057B0006C017D0156E0CC0CDD1CEE1CFF1C5A95E3
:1057C000D1F7CE010196F50119958F73C82A22965B
:1057D000D6CF982F907F903E11F58F7090E0B0E07B
:1057E000A0E06C017D0136E0CC0CDD1CEE1CFF1C42
:1057F0003A95D1F7CE010196F50119958F73C82A14
:1058000046E0CC0CDD1CEE1CFF1C4A95D1F7CE0106
:105810000296F50119958F73C82A2396B0CF982F59
:10582000987F903F79F5877090E0B0E0A0E06C0140
:105830007D0186E0CC0CDD1CEE1CFF1C8A95D1F7A7
:10584000CE010196F50119958F73C82A96E0CC0C0C
:10585000DD1CEE1CFF1C9A95D1F7CE010296F501D6
:1058600019958F73C82A26E0CC0CDD1CEE1CFF1C9A
:105870002A95D1F7CE010396F50119958F73C82AA1
:1058800024967DCF982F907C903841F4807C80388E
:1058900069F42196CE01F5011995F8CF8E7F8D3FE1
:1058A00028F02196CE01F5011995F8CFC12CD12C05
:1058B000760165CF9CE0899F802D112491E0980F9F
:1058C000909311052CE0280F2093A40730E02E5F61
:1058D0003F4F40910E144217130619F014F080E068
:1058E0000895209110149217D0F7662341F08E5F2F
:1058F0000F94CC048091A4078E5F0F94CC04809108
:10590000A40790910E14891750F3209110149091D0
:105910001105291720F3109211148093121481E0BD
:10592000089520910F05022E000C330B82171306E9
:1059300041F080930F0565E676E18AED93E10D94E1
:105940009E050895CF92DF92EF92FF920F931F93DF
:10595000CF93DF93CDB7DEB72C970FB6F894DEBFA9
:105960000FBECDBF6F3F71058105910509F0C8F4E9
:1059700086ED93E141D9E091DE13F091DF1331968A
:10598000849190E02C960FB6F894DEBF0FBECDBF89
:10599000DF91CF911F910F91FF90EF90DF90CF900B
:1059A0000895F0901114E090121420911205211125
:1059B0000FC048E153E16E2D8F2D0F94610690E0EA
:1059C00080E0F80EF0921114E09212149927DACFC9
:1059D000C090DE13D090DF132AED33E13A832983A0
:1059E0002F2D30E03C832B832E2D30E03E832D8302
:1059F00018861F822FEF3FEF3A8729871C861B8668
:105A00000AE915E29E012F5F3F4FAB01BC01C601C1
:105A10000E942BF2B6018AED93E10F949E058F81CF
:105A20009885CFCF4F925F926F927F928F929F9285
:105A3000BF92CF92DF92EF92FF920F931F93CF937B
:105A4000DF9300D000D01F921F92CDB7DEB77C014C
:105A50006A014901FB0190818CE0989F800D11241F
:105A6000982FF7012081822F880F820F880F809353
:105A70001114909312144115510561F1FA82E982D3
:105A80007C836B8301111FC0AE014B5F5F4FB4017C
:105A9000C6015FDE6C016D817E818F819885611505
:105AA000710581059105B1F04DDFF70180818F5FB0
:105AB0008083853148F3CE0101960E94F31EE4CF26
:105AC000B12C860129C08A01B12C26C04528462860
:105AD0004728B1F728960FB6F894DEBF0FBECDBFAA
