:100000000C94DB140C940C150C940C150C940C151E
:100010000C940C150C940C150C940C150C940C15DC
:100020000C940C150C940C150C940C150C940C15CC
:100030000C940C150C940C150C940C150C940C15BC
:100040000C940C150C94EA7F0C940C150C940C1564
:100050000C940C150C940C150C94B27A0C9456C795
:100060000C940C150C945F460C940C150C940C1508
:100070000C940C150C940C150C940C150C940C157C
:100080000C9436880C940C150C940C150C940C15CF
:100090000C940C150C940C150C940C150C940C155C
:1000A0000C940C150C940C150C9408880C940C15DD
:1000B0000C940C150C940C150C940C150C94DA87FC
:1000C0000C940C150C940C150C940C150C940C152C
:1000D0000C940C150C940C150C940C150C940C151C
:1000E0000C940C15084AD73B3BCE016E84BCBFFD77
:1000F000C12F3D6C74319ABD56833DDA3D00C77FF8
:1001000011BED9E4BB4C3E916BAAAABE0000008090
:100110003F05A84CCDB2D44EB93836A9020C50B91F
:10012000918688083CA6AAAA2ABE000000803F004B
:100130000C9439730C9433BA0C941AB40C944E7317
:100140000C94B19B0C94E1E30C94591E0C9435BAB9
:100150000C9422C40C9491C40C9451C00C94446926
:100160000C94D8BF0C94C56A0C941EB40C94566DB4
:100170000C94B3B80C9401C40C94D7E10C94FCB368
:100180000C940CB40C9473C40C946BCD0C944A6D09
:100190000C940CD60C947DC40C9450640C9495650E
:1001A0000C94D2770C9422640C949F690C9411B730
:1001B0000C9410B40C9487C40C944A990C9469C4A0
:1001C0000C9453AC0C945AC40C94F9150C942CC494
:1001D0000C9438BA0C94536E0C9450BE0C948FCA85
:1001E0000C9402B40C94E7B30C949BC40C9406B426
:1001F0000C94EFB70C9428B40C944EAF0C9414B438
:100200000C943E690C94BEC90C94FAD30C942CB493
:100210000C949C640C944A690C9454CC0C94FFE3A9
:100220000C942D730C9439640C9450C40C94B2D774
:100230000C9428160C9485DB0C9422B40C9409C4FD
:100240000C9427B40C9446C40C94C8C90C9434C4C0
:100250000C946CB90C945C6D0C94AF770C9460D9D1
:100260000C94446D0C944A6F0C94F9B30C94F1B354
:100270000C943CC40C94F1AF0C949CB30C94F5B367
:100280000C9475CD0C9418C40C94506D0C940EC441
:100290000C94A2710C94F8150C9433730C94EDB378
:1002A0004E414E494E495459494E46CDCCCC3D0A5B
:1002B000D7233C17B7D13877CC2B329595E6241F3E
:1002C000B14F0A000020410000C84200401C4620F7
:1002D000BCBE4CCA1B0E5AAEC59D74434F4D4D5506
:1002E0004E49434154494F4E0044525952554E00D5
:1002F0004552524F525300494E464F004543484FD6
:10030000004B494C4C45442E200053544F5050450F
:10031000442E20005072696E7465722073746F7081
:100320007065642064756520746F206572726F72E9
:10033000732E2046697820746865206572726F722A
:1003400020616E6420757365204D39393920746FD2
:1003500020726573746172742E202854656D706507
:100360007261747572652069732072657365742E8D
:10037000205365742069742061667465722072650B
:100380007374617274696E67290A004E6F20436846
:1003900065636B73756D2077697468206C696E6531
:1003A000206E756D6265722C204C617374204C69EF
:1003B0006E653A2000636865636B73756D206D69C7
:1003C000736D617463682C204C617374204C696E8A
:1003D000653A20004C696E65204E756D626572202D
:1003E0006973206E6F74204C617374204C696E6564
:1003F000204E756D6265722B312C204C6173742018
:100400004C696E653A20004D313130004D3331007A
:1004100053442072656164206572726F720A0044F1
:100420006F6E65207072696E74696E672066696CA4
:10043000650A0020496E76616C6964206578747283
:100440007564657220000000A040000000000000FC
:100450000000000049430000404300003943207081
:100460006F736974696F6E206F7574206F66207288
:10047000616E67652E0A003F50726F626520000A48
:100480000A426564204C6576656C20436F72726524
:100490006374696F6E204D61747269783A00202B25
:1004A000000A436F7272656374656420426564205C
:1004B0004865696768742076732E2042656420540D
:1004C0006F706F6C6F67793A0A00202B000A4265E3
:1004D000642048656967687420546F706F67726143
:1004E0007068793A0A2020202B2D2D2D204241437F
:1004F0004B202D2D2B0A2020207C20202020202066
:1005000020202020207C0A204C207C202020202815
:100510002B29202020207C20520A2045207C2020CE
:100520002020202020202020207C20490A20462036
:100530007C20282D29204E20282B29207C20470A8A
:100540002054207C20202020202020202020207CBF
:1005500020480A2020207C20202020282D2920200F
:1005600020207C20540A2020207C202020202020B5
:1005700020202020207C0A2020204F2D2D20465294
:100580004F4E54202D2D2B0A2028302C30290A00C4
:100590004D65616E206F662073616D706C656420BF
:1005A000706F696E74733A200020643A20002062F4
:1005B0003A200045716E20636F6566666963696500
:1005C0006E74733A20613A200020284452595255E3
:1005D0004E2900473239204175746F2042656420EE
:1005E0004C6576656C696E670028422961636B0013
:1005F000284629726F6E7400285229696768740052
:10060000284C29656674003F4E756D626572206FD7
:10061000662070726F626520706F696E74732069F6
:100620007320696D706C61757369626C6520283226
:10063000206D696E696D756D292E0A003F28562957
:100640006572626F7365206C6576656C20697320D6
:10065000696D706C61757369626C652028302D342A
:10066000292E0A0044656C6574696F6E20666169A5
:100670006C65642C2046696C653A200046696C659F
:100680002064656C657465643A006F70656E206601
:1006900061696C65642C2046696C653A2000486588
:1006A0006174696E6720646F6E652E0020573A0092
:1006B0004525692025730047656565746563682075
:1006C00069332050726F20422072656164792E0078
:1006D00042656420646F6E652E0020573A004265C3
:1006E000642048656174696E672E00205A3A0020C4
:1006F000593A0020436F756E7420583A0020453AED
:1007000000205A3A0020593A00583A003A00436112
:10071000703A0023646566696E6520204445464151
:10072000554C545F4B64200023646566696E6520F8
:100730002044454641554C545F4B69200023646575
:1007400066696E65202044454641554C545F4B70A8
:100750002000504944204175746F74756E652066A1
:10076000696E6973686564212050757420746865CA
:10077000206C617374204B702C204B6920616E6477
:10078000204B6420636F6E7374616E7473206672A5
:100790006F6D2062656C6F7720696E746F20436F98
:1007A0006E66696775726174696F6E2E680A0050B3
:1007B0004944204175746F74756E65206661696C7B
:1007C0006564212074696D656F75740A005448452D
:1007D000524D414C2052554E415741590054686585
:1007E000726D616C2052756E617761790048656148
:1007F00074696E67206661696C6564004865617440
:10080000696E67206661696C6564005049442041E7
:1008100075746F74756E65206661696C65642120FE
:1008200054656D706572617475726520746F6F20A8
:10083000686967680A00204B643A2000204B693AD7
:100840002000204B703A20000A20436C61737369CA
:100850006320504944200A002054753A2000204B60
:10086000753A2000206D61783A2000206D696E3A5B
:10087000200020643A200020626961733A2000471A
:10088000322F47332062616420706172616D65743C
:100890006572730A00536C6565702E2E2E00473208
:1008A00038205A20466F7262696464656E0A004798
:1008B0003238205A20466F7262696464656E002087
:1008C0005A3A200020593A200042656420583A20C4
:1008D00000526573756D696E67207072696E740081
:1008E00047656565746563682069332050726F20C1
:1008F000422072656164792E00436C69636B2074D9
:100900006F20726573756D652E2E2E004E6F206DF3
:100910006F76652E00456E642066696C65206C6993
:1009200073740A00426567696E2066696C65206CA5
:100930006973740A005344207072696E74696E673B
:10094000206279746520004E6F74205344207072C9
:10095000696E74696E670A002569730025696D20E8
:10096000256973002569682025696D202569730054
:10097000256964202569682025696D202569730033
:1009800025697920256964202569682025696D20FD
:10099000256973005072696E742074696D653A2020
:1009A0000050726F7465637465642050696E0A004C
:1009B0004525692025730047656565746563682072
:1009C00069332050726F20422072656164792E0075
:1009D0006F666600FC02F702F002E902DB024445A2
:1009E0004255473A004B494C4C45442E20004D316E
:1009F00031332053006F6B0047656565746563682C
:100A00002069332050726F2042204F66662E0045C9
:100A10004D455247454E43595F5041525345520050
:100A2000434153455F4C494748545F425249474808
:100A3000544E45535300544F47474C455F4C49472C
:100A400048545300534F4654574152455F504F57F7
:100A50004552004255494C445F50455243454E541F
:100A6000004C4556454C494E475F44415441005A5D
:100A70005F50524F4245004155544F4C4556454CEE
:100A8000005052494E545F4A4F420050524F475215
:100A9000455353004155544F5245504F52545F54A3
:100AA000454D5000564F4C554D4554524943004515
:100AB0004550524F4D0053455249414C5F584F4E9F
:100AC0005F584F4646004649524D574152455F4E8A
:100AD000414D453A4D61726C696E20312E312E3890
:100AE0005F313233303230313720285779736F63BA
:100AF0006B692920534F555243455F434F44455F2F
:100B000055524C3A68747470733A2F2F6769746841
:100B100075622E636F6D2F4D61726C696E466972DE
:100B20006D776172652F4D61726C696E2050524F06
:100B3000544F434F4C5F56455253494F4E3A312E16
:100B400030204D414348494E455F545950453A473E
:100B5000656565746563682069332050726F204253
:100B60002045585452554445525F434F554E543AD0
:100B70003120555549443A63656465326132662DCA
:100B8000343161322D343734382D396231322D63AE
:100B900035356336326633363766660A002F2F20C6
:100BA000004D31343520533C696E6465783E206FCA
:100BB0007574206F662072616E67652028302D3154
:100BC000290A0053657474696E67205472617665F2
:100BD0006C20416363656C65726174696F6E3A2065
:100BE0000053657474696E67205265747261637432
:100BF00020416363656C65726174696F6E3A2000B1
:100C000053657474696E67205072696E7420416315
:100C100063656C65726174696F6E3A200053657428
:100C200074696E67205072696E7420616E6420541E
:100C3000726176656C20416363656C65726174698D
:100C40006F6E3A2000205A00205900580020204D95
:100C500061783A2000205A00205900580020204D89
:100C6000696E3A20004F6E20004F666600536F6633
:100C70007420656E6473746F70733A2000000119FC
:100C8000171B16FF1F211D1AFF2527231EFFFF0C10
:100C90000407FFFFFF2B2D29FFFF044002FF3EFF4B
:100CA000FFFFFFFFFF3A200020536572766F2000A0
:100CB000206F7574206F662072616E67650A00533D
:100CC0006572766F200020643A0020693A00207037
:100CD0003A0043290A0061626C656420286D696EE0
:100CE0002074656D702000436F6C642065787472A9
:100CF00075646573206172652000426564204C65EF
:100D000076656C696E6720004661696C6564207465
:100D10006F20656E61626C6520426564204C65766B
:100D2000656C696E670A00426564204C6576656C87
:100D300020436F7272656374696F6E204D617472C7
:100D400069783A004F666673657473206170706CE1
:100D5000696564004572723A20546F6F2066617253
:100D60002100546F6F206661722066726F6D207271
:100D700065666572656E636520706F696E740A00E2
:100D80003A2000207A5F6D696E3A20202D323020A3
:100D90007A5F6D61783A202032300A0050726F62BB
:100DA00065205A204F6666736574004E6F2063613C
:100DB0007365206C696768740A00416374697665BD
:100DC0002045787472756465723A2000556E6B6EBA
:100DD0006F776E20636F6D6D616E643A20220052F2
:100DE0006573656E643A20006F6B0020746F6F202E
:100DF0006C6F6E6720657874727573696F6E2070A2
:100E0000726576656E7465640A0020636F6C642099
:100E1000657874727573696F6E2070726576656E31
:100E20007465640A00627573793A20706175736540
:100E30006420666F7220696E7075740A0062757343
:100E4000793A2070617573656420666F72207573DE
:100E500065720A00627573793A2070726F63657308
:100E600073696E670A004B494C4C45442E20004B79
:100E7000494C4C2063617573656420627920746FFE
:100E80006F206D75636820696E6163746976652093
:100E900074696D65202D2063757272656E742063B0
:100EA0006F6D6D616E643A2000506C6561736520F2
:100EB0007265736574005052494E54455220484142
:100EC0004C544544005072696E7465722068616CC0
:100ED0007465642E206B696C6C28292063616C6CCE
:100EE0006564210A000000A040000000000000002E
:100EF000000000484200004842000080400000001E
:100F0000005761726E696E673A20486F6D696E674F
:100F10002042756D702044697669736F72203C20A1
:100F2000310A000202040000A0400000A0400000BE
:100F30000040000044430000404300003943FFFFED
:100F4000FF7C3C3E5E2B3D3F2F5B5D3B2C2A225CB1
:100F5000004572726F722077726974696E672074CF
:100F60006F20454550524F4D210A00290A0020624A
:100F7000797465733B2063726320005365747469F0
:100F80006E67732053746F72656420280020286395
:100F9000616C63756C6174656429210A0020213DD0
:100FA0002000454550524F4D20435243206D6973F8
:100FB0006D61746368202D202873746F72656429D5
:100FC0002000290A002062797465733B20637263F4
:100FD00020002073746F7265642073657474696E89
:100FE00067732072657472696576656420280020D5
:100FF0004D61726C696E3D563437290A00284545AB
:1010000050524F4D3D00454550524F4D2076657230
:1010100073696F6E206D69736D6174636820004839
:10102000617264636F6465642044656661756C74A5
:101030002053657474696E6773204C6F61646564D6
:101040000A00881300008813000032000000881393
:1010500000000000C8430000C8430000004000003A
:1010600034420000A3420000A3425258C84300008B
:10107000D84220204D383531205A005A2D50726FF9
:101080006265204F666673657420286D6D293A0A83
:101090000020440020490020204D333031205000F2
:1010A0005049442073657474696E67733A0A00206E
:1010B000460020420020480020204D313435205386
:1010C000004D6174657269616C206865617475704A
:1010D00020706172616D65746572733A0A00202038
:1010E0004D3432302053004175746F2042656420C6
:1010F0004C6576656C696E673A0A00205A00205983
:101100000020204D323036205800486F6D65206F2A
:1011100066667365743A0A00204500205A0020591B
:101120000020580020420020540020204D3230354D
:10113000205300416476616E6365643A20533C6DD0
:10114000696E5F66656564726174653E20543C6DCE
:10115000696E5F74726176656C5F66656564726105
:1011600074653E20423C6D696E5F7365676D656EA8
:10117000745F74696D655F75733E20583C6D61786E
:101180005F78795F6A65726B3E205A3C6D61785F6B
:101190007A5F6A65726B3E20453C6D61785F655F82
:1011A0006A65726B3E0A0020540020520020204DD8
:1011B000323034205000416363656C65726174693C
:1011C0006F6E2028756E6974732F7332293A205020
:1011D0003C7072696E745F616363656C3E20523C63
:1011E000726574726163745F616363656C3E205401
:1011F0003C74726176656C5F616363656C3E0A0086
:10120000204500205A0020590020204D3230312046
:1012100058004D6178696D756D20416363656C653B
:10122000726174696F6E2028756E6974732F7332E2
:10123000293A0A00204500205A0020590020204D5C
:101240003230332058004D6178696D756D206665C8
:10125000656472617465732028756E6974732F7389
:10126000293A0A00204500205A0020590020204D2C
:101270003932205800537465707320706572207580
:101280006E69743A0A0020204D3230302044300A12
:101290000020204D323030204400204469736162C8
:1012A0006C65640A0046696C616D656E74207365D7
:1012B0007474696E67733A0020204D3134392043CD
:1012C000203B20556E69747320696E2043656C73F2
:1012D0006975730A002020473231202020203B20EE
:1012E000556E69747320696E206D6D0A007A5F6DAA
:1012F000696E3A2000795F6D696E3A2000785F6D03
:10130000696E3A20005265706F7274696E6720656D
:101310006E6473746F70207374617475730A002047
:10132000746F6F206C6F6E67206578747275736967
:101330006F6E2070726576656E7465640A00206356
:101340006F6C6420657874727573696F6E2070724B
:101350006576656E7465640A0024F4D43050C38EDB
:1013600020C2A24017828B7011127A910D816CD924
:101370000AA861E108C7586607615143061E4B5D24
:1013800005C145A7041A411104093D98037139317B
:10139000034036DB0265339102D4305402802E1DA7
:1013A00002632CEE01752AC501B028A00110278127
:1013B000018F2564012B244B01E0223401AC211F55
:1013C000018D200D01801FFC00841EED00971DDFA4
:1013D00000B81CD200E61BC600201BBC00641AB279
:1013E00000B219A8000A19A0006A189900D1179133
:1013F0000040178B00B516840031167E00B31579B6
:10140000003A157300C7146F0058146A00EE136693
:10141000008813630025135E00C7125B006C12572F
:101420000015125400C111510070114F0021114BD1
:1014300000D61049008D10470046104400021042AB
:1014400000C00F4000800F3E00420F3C00060F3BE3
:1014500000CB0E3800930E37005C0E3500270E349B
:1014600000F30D3200C10D3100900D3000600D2EE3
:1014700000320D2D00050D2C00D90C2B00AE0C29CF
:1014800000850C29005C0C2700350C27000E0C266B
:1014900000E80B2400C40B2400A00B23007D0B23C9
:1014A000005A0B2100390B2100180B2000F80A1FED
:1014B00000D90A1E00BB0A1E009D0A1D00800A1DDD
:1014C00000630A1C00470A1B002C0A1B00110A1AA1
:1014D00000F7091A00DD091900C4091900AB091940
:1014E00000920917007B091800630917004C0916C0
:1014F0000036091600200916000A091500F508151E
:1015000000E0081400CC081400B8081400A4081463
:1015100000900813007D0812006B08130058081291
:1015200000460812003408110023081100120811A7
:101530000001081100F0071000E0071000D00710AC
:1015400000C0071000B0070F00A107100091070EA0
:101550000083070F0074070F0065070E0057070E82
:101560000049070E003B070D002E070E0020070D57
:101570000013070D0006070D00F9060C00ED060D1F
:1015800000E0060C00D4060C00C8060C00BC060CDB
:1015900000B0060C00A4060B0099060C008D060B8B
:1015A0000082060B0077060B006C060B0061060A32
:1015B0000057060B004C060A0042060A0038060ACD
:1015C000002E060A0024060A001A060A0010060960
:1015D0000007060A00FD050900F4050900EB0509EE
:1015E00000E2050900D9050900D0050900C7050971
:1015F00000BE050900B5050800AD050800A50509F0
:10160000009C050800940508008C05080084050866
:10161000007C050800740508006C050700650508D6
:10162000005D050700560508004E05070047050741
:10163000004005080038050700310507002A0507A6
:1016400000230507001C050600160507000F050707
:10165000000805060002050700FB040600F5040764
:1016600000EE040600E8040600E2040700DB0406BE
:1016700000D5040600CF040600C9040600C3040612
:1016800000BD040600B7040600B1040500AC040662
:1016900000A6040600A00405009B040600950405AE
:1016A00000900406008A04050085040500800406F5
:1016B000007A04050075040500700405006B04053C
:1016C0000066040500610405005C0405005704057C
:1016D00000520405004D04050048040500430405BC
:1016E000003E0404003A04050035040500300404FB
:1016F000002C04050027040400230405001E040434
:10170000001A04040016040500110404000D04046A
:1017100000090405000404040000040400FC0304A0
:1017200000F8030400F4030400F0030400EC0304D5
:1017300000E8030400E4030400E0030400DC030405
:1017400000D8030400D4030400D0030400CC030435
:1017500000C8030300C503030024F404D9201BC4FC
:101760000C5C0E9804C4095F0265077101F405F969
:1017700000FB04B30048048700C103690058035507
:101780000003034500BE023A008402310053022ADE
:10179000002902250004022000E4011C00C80119F0
:1017A00000AF0117009801140084011300710110AB
:1017B000006101100051010E0043010D0036010BC4
:1017C000002B010B0020010B00150109000C010981
:1017D0000003010800FB000800F3000800EB00070D
:1017E00000E4000600DE000600D8000600D2000675
:1017F00000CC000500C7000500C2000500BD0004C4
:1018000000B9000400B5000400B1000400AD0004FC
:1018100000A9000400A5000300A20003009F00042B
:10182000009B000300980003009500020093000352
:1018300000900003008D0002008B0003008800026E
:10184000008600020084000300810002007F000285
:10185000007D0002007B0002007900020077000199
:1018600000760002007400020072000100710002A4
:10187000006F0002006D0001006C0002006A0001B0
:1018800000690002006700010066000100650001B8
:1018900000640002006200010061000100600001BC
:1018A000005F0002005D0001005C0001005B0001C0
:1018B000005A0001005900010058000100570001C2
:1018C00000560001005500010054000100530000C3
:1018D00000530001005200010051000100500001BE
:1018E000004F0001004E0000004E0001004D0001BD
:1018F000004C0001004B0000004B0001004A0001B9
:1019000000490001004800000048000100470001B4
:1019100000460000004600010045000000450001AF
:1019200000440001004300000043000100420000A9
:1019300000420001004100000041000100400001A0
:10194000003F0000003F0001003E0000003E00019B
:10195000003D0000003D0001003C0000003C000094
:10196000003C0001003B0000003B0001003A000089
:10197000003A000100390000003900010038000081
:101980000038000000380001003700000037000177
:10199000003600000036000000360001003500006F
:1019A0000035000000350001003400000034000064
:1019B0000034000100330000003300000033000158
:1019C000003200000032000000320001003100004F
:1019D0000031000000310001003000000030000044
:1019E00000300001002F0000002F0000002F000039
:1019F000002F0001002E0000002E0000002E00012C
:101A0000002D0000002D0000002D0000002D000121
:101A1000002C0000002C0000002C0000002C000115
:101A2000002B0000002B0000002B0000002B000109
:101A3000002A0000002A0000002A0000002A0001FD
:101A400000290000002900000029000000290000F2
:101A500000290001002800000028000000280000E4
:101A600000280000002800010027000000270000D7
:101A700000270000002700000027000100260000CA
:101A800000260000002600000026000000260001BD
:101A900000250000002500000025000000250000B2
:101AA00000250000002500010024000000240000A3
:101AB0000024000000240000002400010023000096
:101AC000002300000023000000230000002300008A
:101AD000002300000023000100220000002200007B
:101AE000002200000022000000220000002200016D
:101AF0000021000000210000002100000021000062
:101B00000021000000210000002100010020000051
:101B10000020000000200000002000000020000045
:101B2000002000000020000000200001001F000035
:101B3000001F0000001F0000001F0000001F000029
:101B4000001F0000001F0001001E0000001E00001A
:101B5000001E0000001E0000004D3834205820599F
:101B6000205A2045006265640A002C207379737442
:101B7000656D2073746F70706564212048656174B1
:101B800065725F49443A200048656174696E672058
:101B90006661696C65640048656174696E6720669A
:101BA00061696C65640048656174696E672066618F
:101BB000696C65640048656174696E672066616977
:101BC0006C65640070012C0190012701B0012201B5
:101BD000C0011D01F00118011002130130020E01B5
:101BE0006002090190020401C002FF000003FA0034
:101BF0004003F5008003F000D003EB002004E60072
:101C00007004E100E004DC004005D700C005D2000C
:101C10004006CD00D006C8008007C3003008BE00D3
:101C2000F008B900C009B400B00AAF00B00BAA00B8
:101C3000D00CA500000EA000500F9B00C010960015
:101C40005012910000148C00C0158700B01782005C
:101C5000B0197D00D01B7800001E730040206E007C
:101C600090226900F024640040275F0090295A0008
:101C7000E02B5500102E500020304B001032460053
:101C8000E033410090353C001037370070383200A7
:101C9000A0392D00B03A2800A03B2300603C1E0074
:101CA000103D1900903D1400103E0F00703E0A00D8
:101CB000C03E0500003F0000403FFBFF803FF6FFB5
:101CC000C03FF1FF544845524D414C2052554E41C2
:101CD00057415900546865726D616C2052756E6190
:101CE000776179004572723A204D494E54454D5006
:101CF00020424544004572723A204D494E54454DAC
:101D000050004D494E54454D5020747269676765C7
:101D1000726564004572723A204D415854454D50E9
:101D200020424544004572723A204D415854454D79
:101D300050004D415854454D502074726967676595
:101D400072656400202F002042403A0020403A0093
:101D500025753A2530327500253032753A253032F6
:101D600075002D2D2D005344005A00590058005382
:101D7000746F7720424C546F756368004D32383071
:101D800020503020533930004465706C6F79204208
:101D90004C546F756368004D3238302050302053FA
:101DA000313000424C546F7563682053656C662D6A
:101DB00054657374004D3238302050302053313226
:101DC0003000526573657420424C546F756368002F
:101DD0004D3238302050302053313630004D61695B
:101DE0006E005072696E74207061757365640000D6
:101DF0005072696E742061626F7274656400507213
:101E0000696E742066726F6D2053440053746F7056
:101E1000207072696E7400526573756D6520707202
:101E2000696E74004E6F20534420636172640050E9
:101E300061757365207072696E7400436F6E7472A1
:101E40006F6C00507265706172650054756E65004C
:101E5000496E666F2073637265656E00466C6F77BE
:101E600000466C6F770046616E2073706565640094
:101E700046616E207370656564004265640042656A
:101E800064004E6F7A7A6C65004E6F7A7A6C6500EA
:101E90005370656564005370656564004D61696EDB
:101EA000005072656865617420504C4120456E6435
:101EB000005072656865617420504C412042656431
:101EC000005072656865617420504C410050726525
:101ED000706172650050726568656174204142539B
:101EE00020456E64005072656865617420414253FC
:101EF00020426564005072656865617420414253F8
:101F00000050726570617265004261636B004E65DE
:101F1000787420636F726E6572004D343238004DF4
:101F2000323830205030205331363000424C546F1C
:101F30007563682053656C662D54657374004D326B
:101F4000383020503020533132300050726568658F
:101F5000617420414253005072656865617420507D
:101F60004C4100436F6F6C646F776E00446973611E
:101F7000626C65207374657070657273004D3834DF
:101F80000053657420686F6D65206F6666736574B5
:101F90007300526573657420424C546F756368001A
:101FA0004C6576656C20636F726E65727300426576
:101FB00064204C6576656C696E67004732380A4765
:101FC0003239004175746F20686F6D650047323893
:101FD000004D6F76652061786973004D61696E0010
:101FE0004D6F76652058004D6F76652059004D6F16
:101FF0007665205A004578747275646572004D6F7D
:10200000766520302E316D6D004D6F766520316D17
:102010006D004D6F76652031306D6D004D6F7665CA
:102020002061786973004578747275646572004D3B
:102030006F7665205A004D6F76652059004D6F769A
:10204000652058004578747275646572004D6F762E
:1020500065205A004D6F76652059004D6F766520DA
:1020600058005072657061726500496E69746961EB
:102070006C697A6520454550524F4D00436F6E7430
:10208000726F6C00526573746F7265206661696C63
:1020900073616665004C6F61642073657474696E6A
:1020A000677300496E697469616C697A652045459A
:1020B00050524F4D0053746F72652073657474698C
:1020C0006E677300424C546F7563680046696C61BB
:1020D0006D656E74004D6F74696F6E0054656D7040
:1020E00065726174757265004D61696E005072654C
:1020F000686561742041425320636F6E66005072C0
:10210000656865617420504C4120636F6E660050B5
:1021100049442D44005049442D44005049442D4920
:10212000005049442D49005049442D500050494425
:102130002D50002002204661637400200220466179
:102140006374002002204D6178002002204D6178E8
:10215000002002204D696E002002204D696E004F64
:102160006666004F6E20004175746F74656D700077
:1021700046616E2073706565640046616E20737001
:102180006565640042656400426564004E6F7A7A5A
:102190006C65004E6F7A7A6C6500436F6E74726F77
:1021A0006C0053746F72652073657474696E677325
:1021B0000042656400426564004E6F7A7A6C650087
:1021C0004E6F7A7A6C650046616E20737065656447
:1021D0000046616E2073706565640054656D7065BE
:1021E000726174757265005654726176206D696E05
:1021F000005654726176206D696E00566D696E00EE
:10220000566D696E00566D6178204500566D617897
:10221000204500566D6178205A00566D6178205A2D
:1022200000566D6178205900566D6178205900562E
:102230006D6178205800566D61782058004D6F749C
:10224000696F6E00416D6178204500416D617820B5
:102250004500416D6178205A00416D6178205A0037
:10226000416D6178205900416D6178205900416DC0
:102270006178205800416D6178205800412D7472BA
:102280006176656C00412D74726176656C00412D3C
:102290007265747261637400412D7265747261635A
:1022A0007400416363656C00416363656C004D6F4E
:1022B00074696F6E0056652D6A65726B0056652DE8
:1022C0006A65726B00567A2D6A65726B00567A2DBC
:1022D0006A65726B0056792D6A65726B0056792DAE
:1022E0006A65726B0056782D6A65726B0056782DA0
:1022F0006A65726B004D6F74696F6E00457374652B
:1023000070732F6D6D004573746570732F6D6D0064
:102310005A73746570732F6D6D005A7374657073A2
:102320002F6D6D005973746570732F6D6D00597347
:10233000746570732F6D6D005873746570732F6DB5
:102340006D005873746570732F6D6D004D6F7469F7
:102350006F6E0053746570732F6D6D004A65726BFC
:1023600000416363656C65726174696F6E005665E8
:102370006C6F63697479005A204F666673657400E8
:102380005A204F666673657400436F6E74726F6C8B
:102390000046696C2E204469612E0046696C2E202F
:1023A0004469612E004F6666004F6E20004520692B
:1023B0006E206D6D3300436F6E74726F6C004361FD
:1023C0006E6E6F7420656E746572207375626469D9
:1023D000723A2000052E2E004D61696E0043617235
:1023E000642072656D6F7665640043617264206974
:1023F0006E73657274656400001C1F11111F00006C
:102400000006191803130C00040E1F041C00000022
:10241000000E1315110E00001C10181705060500FC
:10242000040A0A0A0A11110E0C12120C0000000014
:10243000001F1511151F00000000210024002700B7
:102440002A002D00300033000101000004010701C3
:102450000A0100002200250028002B002E00310078
:10246000340002010000050108010B0100002000FA
:102470002300260029002C002F003200000100005C
:1024800003010601090105050505070508080808F7
:10249000020202020A0A08080404040401010101FC
:1024A00001010101030303030303030304070707F7
:1024B0000C0C0C0C0C0C0C0C02020202060606069C
:1024C000060606060B0B0B0B0B0B0B0B0102102069
:1024D000200808102040102040800201020108045A
:1024E00002010102040810204080804020100804EE
:1024F0000201800402018040201008040201080447
:10250000020101020408102040800102040810208A
:10251000408000000A0B02090C0D0E08070304019D
:1025200000000000000000000000000000000000AB
:102530000000000000000000000000000000121178
:10254000100000000000000000000000000000007B
:1025500000000000000000002D2D2D2D2D2D007CF1
:102560004D61726C696E7C002D2D2D2D2D2D00007E
:10257000000000010204040000001C1C0C04040400
:1025800002010000000000040810000000000031FB
:102590002E312E385F313233303230313700312E28
:1025A000312E385F31323330323031370000202065
:1025B000506C616E6E6572427566666572427974C2
:1025C00065733A20002046726565204D656D6F7217
:1025D000793A2000436F6D70696C65643A204465F8
:1025E0006320313720323032300A00207C204175A0
:1025F00074686F723A20286A6F6E7361672C205777
:1026000079736F636B692C20477465636820312E82
:10261000312E38203034313932303138290A003205
:102620003031372D31322D33302031323A30305085
:102630004D00204C61737420557064617465643A78
:102640002000312E312E385F313233303230313785
:102650000A004D61726C696E0020536F6674776179
:1026600072652052657365740A002057617463684F
:10267000646F672052657365740A002042726F7739
:102680006E206F75742052657365740A002045785A
:102690007465726E616C2052657365740A00506FC8
:1026A00077657255700A0073746172740A006572FE
:1026B000726F722077726974696E6720746F20661A
:1026C000696C650A00456E6473746F7073202563CE
:1026D00020256320256320256300205A3A002059D5
:1026E0003A0020583A00656E6473746F7073206806
:1026F00069743A2000446F6E6520736176696E6775
:102700002066696C652E0A004D32390050726F6286
:10271000696E67206661696C65640A0050726F6259
:10272000696E67206661696C656400205A3A200012
:1027300020593A200042656420583A200053544FF3
:10274000505045442E20005072696E74657220739B
:10275000746F707065642064756520746F20657295
:10276000726F72732E2046697820746865206572D6
:10277000726F7220616E6420757365204D3939392E
:1027800020746F20726573746172742E20285465F2
:102790006D706572617475726520697320726573FE
:1027A00065742E20536574206974206166746572A7
:1027B0002072657374617274696E67290A005354DC
:1027C0004F502063616C6C65642062656361757352
:1027D00065206F6620424C546F7563682065727285
:1027E0006F72202D20726573746172742077697422
:1027F00068204D3939390A00486F6D6520257325E9
:10280000732573206669727374002066697273742D
:102810000A005A0059005800486F6D652000534463
:102820002063617264206F6B0A006F70656E526F77
:102830006F74206661696C65640A00766F6C756DF3
:10284000652E696E6974206661696C65640A00535F
:102850004420696E6974206661696C0A0061757450
:102860006F25692E67004D3234004D3233202573B9
:1028700000656E7175657565696E67202200577217
:102880006974696E6720746F2066696C653A200010
:102890006F70656E206661696C65642C2046696C9A
:1028A000653A20006F70656E206661696C65642C06
:1028B0002046696C653A200046696C652073656C3A
:1028C00065637465640A002053697A653A2000469E
:1028D000696C65206F70656E65643A20006F706585
:1028E0006E206661696C65642C2046696C653A20CF
:1028F000002066696C653A2000646F696E67006647
:1029000072657368004E6F772000454E4420535522
:1029100042524F5554494E450A002220706F7300B1
:102920002220706172656E743A2200535542524FF4
:102930005554494E452043414C4C207461726765A3
:10294000743A22004B494C4C45442E200074727955
:10295000696E6720746F2063616C6C207375622DE3
:1029600067636F64652066696C6573207769746856
:1029700020746F6F206D616E79206C6576656C7365
:102980002E204D4158206C6576656C2069733A00A5
:102990004572726F723A0043616E6E6F74206F7091
:1029A000656E2073756264697220006563686F3AB2
:1029B0000000FFE3E1E311241FBECFEFD1E2DEBF51
:1029C000CDBF00E00CBF13E0A0E0B2E0ECE5FFEE0D
:1029D00001E00BBF02C007900D92AC38B107D9F7E8
:1029E00023E1ACE8B3E001C01D92A031B207E1F7EA
:1029F00014E1CAEDD4E100E006C021970109802F5F
:102A0000FE010E9415F7C93DD10780E00807A9F72C
:102A10000E945CE50C949CF70C9400008CE0EEEBBB
:102A2000F4E0A7E9BBE001900D928A95E1F70895E3
:102A3000CF92DF92EF92FF92CF93DF93EC01C090A1
:102A4000EE09D090EF09E090F009F090F109A701AC
:102A50009601688179818A819B810E9478EF87FF46
:102A600004C0C882D982EA82FB82C090F209D09069
:102A7000F309E090F409F090F509A70196016C8143
:102A80007D818E819F810E9478EF87FF04C0CC8278
:102A9000DD82EE82FF82C0901902D0901A02E0908F
:102AA0001B02F0901C02A7019601688179818A813E
:102AB0009B810E942FF6181624F4C882D982EA82DC
:102AC000FB82C0901D02D0901E02E0901F02F09089
:102AD0002002A70196016C817D818E819F810E94D9
:102AE0002FF6181624F4CC82DD82EE82FF82C0908D
:102AF000F609D090F709E090F809F090F909A701DC
:102B00009601688579858A859B850E9478EF87FF85
:102B100004C0C886D986EA86FB86C0902102D09080
:102B20002202E0902302F0902402A701960168851A
:102B300079858A859B850E942FF6181624F4C8860D
:102B4000D986EA86FB86DF91CF91FF90EF90DF90E8
:102B5000CF900895159AE1E4FBE01082179A118254
:102B6000429A1282A09A08950F931F93CF93DF93F6
:102B7000EC01CC0FDD1FCC0FDD1F8E010957144F68
:102B8000FE01EA5BF44FDE01A653BB4F2D913D9150
:102B90004D915C9160817181828193810E94CFF31C
:102BA000F8016083718382839383FE01EA5BFB4FAC
:102BB00085919591A591B491FE01E251F64F8083E4
:102BC0009183A283B383FE01EE5AFB4F85919591C9
:102BD000A591B491C75EDD4F88839983AA83BB8397
:102BE000DF91CF911F910F910895809A8898089551
:102BF000089590E080E0089580E1E7E9FBE0A6ED2C
:102C0000B4E001900D928A95E1F7089580E1E6ED38
:102C1000F4E0A7E9BBE001900D928A95E1F70895F1
:102C20008FB7F8949091A4042091A304291769F018
:102C3000E92FF0E0ED5DFB4F208130E09F5F9F7753
:102C40009093A4048FBFC90108952FEF3FEFFACFEF
:102C50000F931F93CF93DF93EC010E94D3C40E8197
:102C60001F8128853985011511052105310579F563
:102C70002C85222339F1EA8521502C8721E02E0F63
:102C80002A873D85231301C01A86F0E03196EE0FA6
:102C9000FF1FEE0FFF1FEC0FFD1F0285138524851C
:102CA00035850A831B832C833D83600F711F811D33
:102CB000911D6E837F83888799878C819D81892B65
:102CC00009F05B9ADF91CF911F910F910895601BDE
:102CD000710B820B930B97FDF5CF5B981E821F82C1
:102CE00018861986EFCFEF920F931F93CF93DF9340
:102CF000CDB7DEB72C970FB6F894DEBF0FBECDBFB1
:102D0000E090ED09E7E9FBE080859185A285B38538
:102D100044815581668177810081118122813381CF
:102D200009831A832B833C834D835E836F8378876B
:102D300089879A87AB87BC87AE01475F5F4FBE012B
:102D40006B5F7F4FCE0101960E946E9D00E412E002
:102D500023EA3BE0AE01475F5F4FBE016B5F7F4FF1
:102D6000CE0101960E9418972C960FB6F894DEBFFC
:102D70000FBECDBFDF91CF911F910F91EF900895BE
:102D8000CF93DF9390E080E00E94837FCEEBD4E08E
:102D9000688379838A839B8381E090E00E94837FAC
:102DA0006C837D838E839F8382E090E00E94837F8B
:102DB000688779878A879B87DF91CF910895809173
:102DC0008C0390918D03009731F04AE050E070E061
:102DD00060E00C9494EC60E070E0CB0108950E94F8
:102DE000DF1697FD0CC00E94DF166F3F710581054D
:102DF000910509F034F40E94DF16862F089580E0D3
:102E000008958FEF089580918C0390918D03892B05
:102E100041F00E94EF1691E0811101C090E0892FEE
:102E2000089591E0FCCF80918C0390918D030097E1
:102E300031F04AE050E070E060E00C94C2ED60E0F8
:102E400070E0CB010895AF92BF92CF92DF92EF92E4
:102E5000FF920F931F93CF93DF931F92CDB7DEB7EF
:102E60006C018B0159018091E60481111BC07B012B
:102E7000E40EF51EF601808191810E9445F389835D
:102E8000F80181938F01BE016F5F7F4FC5010E94E2
:102E900051BDF60180819181019691838083E01676
:102EA000F10641F70F90DF91CF911F910F91FF90A5
:102EB000EF90DF90CF90BF90AF900895FC0120E09D
:102EC0003EE2DB014D91BD01403249F0283011F462
:102ED00030833196DB0111974C91408331962F5FFF
:102EE0002B3079F71082089561E0FC0180810C9409
:102EF00014BF8EBD0DB407FEFDCF08958FEF8EBDBC
:102F00000DB407FEFDCF8EB508958F929F92AF92BC
:102F1000BF92EF92FF920F931F93CF937C01C62F26
:102F200049015A01FC019281892F806A86958CBDE6
:102F300090FD03C081E0963009F480E08DBD60E033
:102F4000F70180810E9414BF8CE291E00E946EC55F
:102F50008C2F80640E94791708E110E0D501C4012C
:102F6000002E04C0B695A795979587950A94D2F739
:102F70000E94791708501109083FFFEF1F0771F7EA
:102F800085E9CC2321F087E8C83009F08FEF0E9453
:102F90007917CC3011F40E947E17C0E00E947E1792
:102FA000F701838387FF04C0CF3F11F0CF5FF6CFD7
:102FB000CF911F910F91FF90EF90BF90AF909F9096
:102FC0008F9008950F931F93CF93DF93EC018901A6
:102FD0008C81833039F089E0440F551F661F771FBD
:102FE0008A95D1F79A01AB0168E1CE010E9485175D
:102FF000882319F086E089833AC08EEF8EBDF801F0
:10300000C8019E5F0DB407FEFDCF20812EBD0DB41B
:1030100007FEFDCF21812EBD3296E817F90791F703
:103020000DB407FEFDCF8FEF0E9479178FEF0E943E
:1030300079170E947E178B838F71853099F488E50C
:1030400092E00E946EC5182F87E11123A1F220E0C3
:1030500030E0A9016DE0CE010E948517882361F060
:1030600086E1C9CF83E18983CE010E947417CE0126
:103070000E94741710E007C00E947E178111F0CFE4
:10308000CE010E947417812FDF91CF911F910F9174
:103090000895CF938091B80DC1E08823A1F04091AD
:1030A000B00D5091B10D6091B20D7091B30D20EB48
:1030B0003BE08091B90D9091BA0D0E94E217C82FA4
:1030C000811104C0C0E08C2FCF9108954091B40DC0
:1030D0005091B50D6091B60D7091B70D4115510528
:1030E0006105710591F020EB3BE08091B90D909165
:1030F000BA0D0E94E217882329F31092B40D1092A2
:10310000B50D1092B60D1092B70D1092B80DDBCF21
:10311000EF92FF920F931F93CF93DF93EC0179010E
:103120008C81833039F089E0440F551F661F771F6B
:103130008A95D1F79A01AB0161E1CE010E94851712
:10314000882339F084E08983CE010E94741780E0DF
:103150003BC00E94D3C48B010E947E178B838F3F9C
:1031600081F40E94D3C4601B710B6D327140A0F3D7
:1031700081E18983CE010E9474178FEF0E94791735
:10318000E6CF8E3F11F08FE0F4CF8FEF8EBDF701C9
:10319000D701A150BE4F0DB407FEFDCF9EB5919350
:1031A0008EBDAE17BF07B9F70DB407FEFDCF8EB5C4
:1031B0008C930E947E170E947E17CE010E94741786
:1031C0008FEF0E94791781E0DF91CF911F910F91CE
:1031D000FF90EF900895CF92DF92EF92FF92CF93FE
:1031E0006B017C01C42F8091B00D9091B10DA09125
:1031F000B20DB091B30D8C159D05AE05BF0501F163
:103200000E944918811108C0C0E08C2FCF91FF9017
:10321000EF90DF90CF90089520EB3BE0B701A6013F
:103220008091B90D9091BA0D0E948818882361F39E
:10323000C092B00DD092B10DE092B20DF092B30DEC
:10324000CC2321F081E08093B80DDFCFC1E0DDCF4A
:103250004F925F926F927F928F929F92AF92BF92A6
:10326000CF92DF92EF92FF920F931F93CF93DF9352
:10327000EC01423051056105710590F480E0DF9169
:10328000CF911F910F91FF90EF90DF90CF90BF9063
:10329000AF909F908F907F906F905F904F90089528
:1032A00089859A85AB85BC850196A11DB11D8417C2
:1032B0009507A607B70710F38F898031C9F5852ECA
:1032C000962EA72EBB248B899C89AD89BE89880E3A
:1032D000991EAA1EBB1E280139016A017B0141E02B
:1032E000C501B4010E94EB18882341F29F899031F7
:1032F00081F5DD24EE24FF24F601EE0FFF1FE055DB
:10330000F44F118300839A89923008F4B8CF4D812D
:103310005E816F817885840E951EA61EB71E8092F1
:10332000B40D9092B50DA092B60DB092B70DA7CF87
:10333000803209F0A3CF8B899C89AD89BE894A016F
:103340005B01E7E0B694A79497948794EA95D1F748
:10335000BECFE894C7F8DD24EE24FF24F601EE0F7B
:10336000FF1FEE0FFF1FE055F44F40825182628233
:103370007382C9CFCF92DF92EF92FF920F931F9388
:10338000CF93DF93FC0181859285A385B485019657
:10339000A11DB11D84179507A607B70750F480E05B
:1033A000DF91CF911F910F91FF90EF90DF90CF9021
:1033B000089587898031A9F5BB27A72F962F852FE0
:1033C000C388D488E588F6888C0D9D1DAE1DBF1D71
:1033D000E9016A017B018F014091B00D5091B10D5F
:1033E0006091B20D7091B30D84179507A607B707CA
:1033F00049F5F8018789803169F5B701A60155279C
:1034000066277727440F551F4055544FFA01808196
:103410009181B0E0A0E088839983AA83BB8381E097
:10342000BFCF803209F0BBCFC388D488E588F68847
:10343000DB01CA01C7E0B695A79597958795CA9510
:10344000D1F7C2CF40E0BC01CD010E94EB18811141
:10345000D0CFA5CFB701A6014F775527662777278D
:10346000440F551F440F551F4055544FFA0180819A
:103470009181A281B381BF70CECF4F925F926F9244
:103480007F92AF92BF92CF92DF92EF92FF920F9313
:103490001F93CF93DF9300D01F92CDB7DEB78C017F
:1034A00049835A836B837C835901C12CD12C7601CB
:1034B000412C82E0582E612C712C49815A816B81FC
:1034C0007C819E012F5F3F4FC8010E94BA1988235B
:1034D00019F1F8018585A301920104C0220F331F61
:1034E000441F551F8A95D2F7DA01C901C80ED91EAB
:1034F000EA1EFB1E49815A816B817C81878980315C
:10350000F1F481E0483F5F4F61057105B0F2F501CC
:10351000C082D182E282F3820F900F900F900F90C1
:10352000DF91CF911F910F91FF90EF90DF90CF909F
:10353000BF90AF907F906F905F904F90089581E023
:10354000483F5F4F6F4F7F4008F4B7CFE0CF0F93F6
:103550001F93CF93DF93FC012381222331F080E07E
:10356000DF91CF911F910F9108958B01EC01FB0129
:103570008789803139F582E08B831D8A1E8A1F8AF4
:10358000188E808D918DB0E0A0E025E0880F991F06
:10359000AA1FBB1F2A95D1F7898B9A8BAB8BBC8B4B
:1035A0001A8F098F81E08983188619861A861B86EF
:1035B0001C821D821E821F82188A1C861D861E8602
:1035C0001F86CECF803259F683E08B83428D538D98
:1035D000648D758D4D8B5E8B6F8B788F9E012F5E0A
:1035E0003F4FC8010E943D1A8111DACFB8CF8F92A8
:1035F0009F92AF92BF92CF92DF92EF92FF920F9382
:103600001F93CF93DF93EC018B8181110EC080E07B
:10361000DF91CF911F910F91FF90EF90DF90CF90AE
:10362000BF90AF909F908F90089509891A892B8938
:103630003C89041715072607370748F34A015B0141
:10364000823031F488869986AA86BB8681E0E0CFF5
:1036500081149104A104B10449F4188619861A86CC
:103660001B861C821D821E821F82F0CF0885198551
:103670002A853B85E98DFA8D858590E00996B9010B
:10368000A8014150510961097109082E04C07695BD
:103690006795579547950A94D2F775016401E1E063
:1036A000CE1AD108E108F10804C0F694E794D79443
:1036B000C7948A95D2F7C416D506E606F70620F019
:1036C000012B022B032B11F58D899E89AF89B88DB3
:1036D0008C839D83AE83BF838E010C5F1F4FC1140B
:1036E000D104E104F10409F4ADCF4C815D816E8118
:1036F0007F819801898D9A8D0E94BA1991E0C91A2B
:10370000D108E108F1088111EACF81CFC41AD50AA6
:10371000E60AF70AE1CF40E050E0BA010C94F71A4C
:103720003F924F925F926F927F928F929F92AF9251
:10373000BF92CF92DF92EF92FF920F931F93CF939E
:10374000DF93CDB7DEB72C970FB6F894DEBF0FBE70
:10375000CDBF5C01DC0159968D909C90F401818570
:103760009285A385B4859C01AD012F5F3F4F4F4FDC
:103770005F4F29873A874B875C87D50114964D9018
:103780005D906D907C901797411451046104710411
:1037900009F459C0BFEF4B1A5B0A6B0A7B0A312C44
:1037A000730162011D821E821F821886F4018185C9
:1037B0009285A385B4852D813E814F815885281738
:1037C00039074A075B0708F056C089859A85AB859B
:1037D000BC858C159D05AE05BF0550F482E0C82E52
:1037E000D12CE12CF12C92E0492E512C612C712C22
:1037F0009E012F5F3F4FB701A601C4010E94BA1975
:103800008823C9F189819A81AB81BC81892B8A2B5C
:103810008B2B01F1260137019FEF491A590A690ADA
:10382000790A2D813E814F8158852F5F3F4F4F4F41
:103830005F4F2D833E834F8358873FEFC31AD30AD0
:10384000E30AF30AB3CF408051806280738033244F
:103850003394A6CFC414D504E604F70411F70FEF90
:103860001FEF2FEF3FE0B701A601C4010E94281906
:10387000782E81111AC0712C872D2C960FB6F894D2
:10388000DEBF0FBECDBFDF91CF911F910F91FF9093
:10389000EF90DF90CF90BF90AF909F908F907F90F0
:1038A0006F905F904F903F900895F501448155814E
:1038B00066817781411551056105710539F09701E0
:1038C0008601C4010E9428198823A9F2D501149603
:1038D000CD92DD92ED92FC921797332051F0D701F3
:1038E000C6010196A11DB11DF40180839183A283BD
:1038F000B383F50185899689A789B08D892B8A2B99
:103900008B2B09F0B9CFC58AD68AE78AF08E8181E0
:1039100080688183B1CFCF93DF93EC01462F417054
:103920006C857D858E859F850E94EB18882351F0DC
:10393000888920E2829FC00111248055944FDF9135
:10394000CF91089590E080E0FACFCF93DF93EC0120
:103950008B81882349F1898187FF22C061E0CE01F4
:103960000E948B1CFC01892BF9F08081853EE1F0DF
:103970008B81823040F489899A89AB89BC89848F94
:10398000958FA68FB78F8D899E89938F828F8D8912
:103990009E89AF89B88DB58BA48B89818F778983F8
:1039A000DF91CF910C94491881E0888380E0DF910A
:1039B000CF9108952F923F924F925F926F927F9294
:1039C0008F929F92AF92BF92CF92DF92EF92FF922F
:1039D0000F931F93CF93DF9300D01F92CDB7DEB725
:1039E0008C014B011A01DC0113968C9113978130E5
:1039F00009F0CAC011968C9181FFC6C082FDB0C08B
:103A00006101D80118964D915D916D917C911B9744
:103A1000C114D10409F41AC159968D919C915A97F9
:103A2000FC0174802FEF270D2A013B0139E07694C9
:103A30006794579447943A95D1F7722E74207A017F
:103A4000F1E0FF22711020C0E114F104E9F41496B2
:103A50004D915D916D917C911797411551056105CF
:103A6000710509F097C055968D919D910D90BC916F
:103A7000A02D0097A105B10509F0A5C0C8010E94BD
:103A8000901B882309F480C080E092E08E199F0982
:103A900056018C159D0508F45C01D80159964D918D
:103AA0005C915A9714968D919D910D90BC91A02D8B
:103AB0000297A109B109FA01258504C0880F991F51
:103AC000AA1FBB1F2A95D2F7468557856089718941
:103AD000840F951FA61FB71F9C01AD01270D311D37
:103AE000411D511D29013A01A11432E0B30609F02C
:103AF00078C08091B00D9091B10DA091B20DB091B0
:103B0000B30D481659066A067B0669F41092B80D83
:103B10008FEF9FEFDC018093B00D9093B10DA093D8
:103B2000B20DB093B30D9401B301A2018091B90D10
:103B30009091BA0D0E94E217882331F1F801808537
:103B40009185A285B3858A0D9B1DA11DB11D80871E
:103B50009187A287B3878A0C9B1CCA18DB0851CFB8
:103B6000F801418952896389748980859185A2858C
:103B7000B385481759076A077B0709F441CFC80185
:103B80000E94F71A81113CCF81E0D8018C938FEF0E
:103B90009FEF72C09E012F5F3F4F0E94BA1988238A
:103BA00099F389819A81AB81BC81F801218D328D95
:103BB000F9012789203169F4883FFFEF9F07A105AC
:103BC000B10508F05BCFF80184839583A683B783A2
:103BD0005BCF883F2FEF9207A2072FE0B20798F341
:103BE0004DCFE114F10451F5D80118964D915D9136
:103BF0006D917C911B9751968D919D910D90BC91EB
:103C0000A02D481759076A077B07C0F00E94491882
:103C1000882309F4B9CF81E08093B80D4092B00DAC
:103C20005092B10D6092B20D7092B30DA501B40126
:103C3000C7018055944F0E9432F780CF41E0C30105
:103C4000B2010E94EB188111F1CF9ECFF80181895A
:103C50009289A389B48984179507A607B70738F412
:103C60008181418B528B638B748B80688183F801D7
:103C7000818183FD18C0C1010F900F900F900F90AC
:103C8000DF91CF911F910F91FF90EF90DF90CF9038
:103C9000BF90AF909F908F907F906F905F904F906C
:103CA0003F902F900895C8010E94A51C8111E3CF79
:103CB0006BCFCF93DF931F92CDB7DEB7698341E01F
:103CC00050E0BE016F5F7F4F04960E94DA1C0F9098
:103CD000DF91CF910895CF93DF93EC010E94A51C53
:103CE0001B82DF91CF910895FC01238121110C9457
:103CF0006B1E0895CF93DF93EB01FC01238121110B
:103D000004C080E0DF91CF9108952250223028F442
:103D10008FE28883198281E0F5CF60E00E948B1CDE
:103D2000009779F3DC0160E080E09EE22D91203283
:103D300099F0883031F49E01260F311DF9019083EE
:103D40006F5F9E01260F311DAD0141505109FA01EF
:103D50004081F90140836F5F8F5F8B3039F7FE013F
:103D6000E60FF11D1082D7CF0F931F93CF93DF93F0
:103D70008B01EA01DB016D917C9104960E947A1E11
:103D8000D801ED91FC91119788819081992349F098
:103D90008D38A0F43196ED93FC9388818F5F8883F2
:103DA000EFCF8D3858F48FE28083F80180819181C4
:103DB00001969183808388818F5F8883DF91CF9183
:103DC0001F910F9108952F923F924F925F926F92A1
:103DD0007F928F929F92AF92BF92CF92DF92EF929B
:103DE000FF920F931F93CF93DF9300D01F92CDB715
:103DF000DEB79C838B834B017A01DC0113968C9197
:103E0000811119C08FEF9FEF0F900F900F900F90BF
:103E1000DF91CF911F910F91FF90EF90DF90CF90A6
:103E2000BF90AF909F908F907F906F905F904F90DA
:103E30003F902F900895EB81FC81818180FFE2CF3C
:103E4000018912892389348940855185628573856A
:103E5000C701B0E0A0E028013901441A550A660AFA
:103E6000770A481659066A067B0618F47801E41AA0
:103E7000F50A67018B819C8104969A838983612C62
:103E800032E0732EC114D10409F4B7C0AB81BC81F8
:103E900018964D915D916D917C911B975A01B1E0FF
:103EA000BB22EB81FC81818D928D1A012B0129E0CF
:103EB00056944794379427942A95D1F7238122303A
:103EC00091F5DC015A966D917D918D919C915D9754
:103ED000620D731D841D951D83010A191B09C016EF
:103EE000D10608F486010115B2E01B0771F4209198
:103EF000B00D3091B10D4091B20D5091B30D6217DC
:103F000073078407950709F059C040E00E94EB1839
:103F1000882309F477CFB5016055744FA801C40117
:103F20000E9432F757C0FC01148111501221A114D4
:103F3000B10481F411110EC0452B462B472B79F5A6
:103F4000EB81FC8185899689A789B08D84839583CF
:103F5000A683B783AB81BC815996ED91FC915A97AA
:103F600014966D917D918D919C9117976250710976
:103F700081099109258504C0660F771F881F991F45
:103F80002A95D2F72685378540895189620F731F9C
:103F9000841F951F610F711D811D911D9DCFAB81E8
:103FA000BC8114964D915D916D917C9117972981FB
:103FB0003A810E94BA198111CDCF24CF9401AB016F
:103FC000BC018091B90D9091BA0D0E948818882388
:103FD00009F418CF800E911EEB81FC8180859185BC
:103FE000A285B385800F911FA11DB11D8087918788
:103FF000A287B387C01AD10A45CFC70105CFDF9288
:10400000EF92FF920F931F93CF93DF938C01EB01FD
:104010007A018DE0D82E40E250E0BE01C8010E9436
:10402000E31E8032910571F021E0892B09F420E034
:10403000822F8195DF91CF911F910F91FF90EF908B
:10404000DF90089528812223C1F1253E21F32E32ED
:1040500011F3E114F10439F13B853F733F3019F559
:104060004A8D5B8D452BF9F42F713FEF320F3230C3
:10407000D0F42150330BD29EC001D39E900D112459
:10408000D701A80FB91FFE0120E0AD01253078F45B
:1040900031813D932F5F32962D30C1F7288126FF65
:1040A00002C0FA0115862B8523FDB5CFC3CF2B3077
:1040B00010F43481EECF3681ECCF80E0BBCF4F924D
:1040C0005F926F927F92AF92BF92CF92DF92EF9208
:1040D000FF920F931F93CF93DF931F92CDB7DEB75D
:1040E0008C017B015A01C22EDB0159968D919C9166
:1040F000F801928F818FCB010E948B1B712CF701ED
:1041000080859185A285B3854189528963897489A7
:1041100084179507A607B70708F052C055E0B69573
:10412000A795979587955A95D1F7F82FFF70DF2EB1
:10413000D70113968C91823010F480E0DBC041E00F
:1041400050E0BE016F5F7F4FC7010E94E31E0197E1
:10415000A1F7F70180859185A285B3854F96A11DB2
:10416000B11D80879187A287B387F0E2DF9EB001FF
:1041700011246055744F61157105F9F2DB018C91C2
:10418000882341F0853E09F04CC0772029F0772440
:104190007394B5CF71100EC08091B00D9091B10D98
:1041A000A091B20DB091B30DF80184879587A687D1
:1041B000B787D08ADB018C918111E9CF7724739482
:1041C0008C2D8274823409F0B8CF772009F4A2C014
:1041D000F801D08861E0C8010E948B1C009709F4A7
:1041E000ACCF20E2DC011D922A95E9F72BE0F50126
:1041F000DC0101900D922A95E1F721E238E2FC0101
:10420000318B208B40E058E057874687338B228BD9
:10421000318F208F578B468B0E944918811109C01E
:104220008CCF4BE050E0C5010E9425F7892B09F0A7
:1042300066CFF0E2DF9ED00111249D012055344F5E
:10424000F9018385817121F08C2D827109F0FCC008
:10425000F801818D928D4091B00D5091B10D60911A
:10426000B20D7091B30D4487558766877787D08AE2
:10427000FD01E055F44F44885588712C612C3201C2
:1042800055244424D80155964D925D926D927C92AE
:104290005897428D538D70E060E044295529662976
:1042A000772955964D935D936D937C935897D901DB
:1042B0001B962C91287109F0B9C0848D958DA68D1F
:1042C000B78DF801818B928BA38BB48B81E08383B4
:1042D0008C2D8F70F80181831482158216821782CB
:1042E000108611861286138681E0C4FE03C0C801C1
:1042F0000E9473BA0F90DF91CF911F910F91FF90A1
:10430000EF90DF90CF90BF90AF907F906F905F90D5
:104310004F900895D70113968C911397823009F42A
:104320000CCF51968D919D910D90BC91A02D803E0A
:104330009F4FAF41B10508F000CFC7010E94901B0D
:10434000882309F4FACE0E944918882309F4F5CE8F
:10435000D7015996ED91FC915A9714964D905D9026
:104360006D907C901797B2E04B1A51086108710864
:10437000858504C0440C551C661C771C8A95D2F7B1
:1043800086859785A089B189480E591E6A1E7B1EB5
:1043900081E08093B80D4092B00D5092B10D6092C3
:1043A000B20D7092B30DE0EBFBE080E092E0DF0134
:1043B0009C011D9221503040E1F7DD24D394D701B8
:1043C0005996ED91FC918481D81698F420EB3BE04E
:1043D000B301A2014D0D511D611D711D8091B90DDB
:1043E0009091BA0D0E94E217882309F4A6CED394C7
:1043F000E6CF258580E092E0A0E0B0E004C0880F21
:10440000991FAA1FBB1F2A95D2F7F701418952892C
:1044100063897489840F951FA61FB71F818B928BA8
:10442000A38BB48B80EB9BE0D12CDBCE203161F4ED
:1044300098012F5E3F4F0E943D1A882329F084E0A7
:10444000D80113968C9344CFD80113961C9275CE45
:104450002F923F924F925F926F927F928F929F9294
:10446000AF92BF92CF92DF92EF92FF920F931F9382
:10447000CF93DF93CDB7DEB7C354D1090FB6F8940D
:10448000DEBF0FBECDBF4C015B016A01222E198237
:104490001C821C8E1F8E6115710521F510E0CE0166
:1044A0004C960E94741ECE0101960E94741E812FAC
:1044B000CD5BDF4F0FB6F894DEBF0FBECDBFDF91EF
:1044C000CF911F910F91FF90EF90DF90CF90BF9011
:1044D000AF909F908F907F906F905F904F903F90A4
:1044E0002F900895FC0183818111D8CFFA0180813A
:1044F0008F32A9F18B01CE0101967C013C0180E253
:10450000382E2E019CE1490E511C2396EFAE2397C5
:104510002496FFAE249722963FAE229721963FAE77
:1045200021973FAE3EAE3DAE3CAE3BAE3AAE39AE6D
:1045300038AE3FAA960190E047E0D9018D918823DB
:1045400009F448C08F3209F445C0282F8E3209F58E
:104550004A3009F4A3CF98E04AE09D01EECFFB0179
:10456000838182508B01823060F0618D728DCE012B
:104570004C960E94A71A8E01045E1F4F882309F4EF
:104580008DCFC6016C010196F60120812F32D1F347
:10459000B2CFE1E4FFE03491332321F0319683136D
:1045A000FACF7CCF491708F479CF813208F476CF5F
:1045B0008F3709F473CF3FE9380F3A3110F420EE0A
:1045C000280FE7E3F0E0EC0FFD1FE90FF11D20835A
:1045D0009F5FC3CF8FA9803209F460CF6901F901D1
:1045E00080812F5F3F4F8F32C9F3882301F121E093
:1045F000AE01495C5F4FB801C7010E945F2088236C
:1046000009F44CCF0A151B0519F0C8010E946B1E56
:10461000942D852D6E147F0431F023969FAD239742
:1046200024968FAD24978701E92EF82E74CF222D82
:10463000AE01495C5F4FB801C4010E945F20182F92
:104640002ECF21EE32E0FC013183208304960C94BE
:10465000741EBC018DE190E10E94358767E771E02F
:1046600080E090E00C9477CD2F923F924F925F9232
:104670006F927F928F929F92AF92BF92CF92DF9272
:10468000EF92FF920F931F93CF93DF9300D01F926F
:10469000CDB7DEB79A8389831B018A013C832B83C4
:1046A000409040025090410260904202709043025C
:1046B000F901E080F1809280838020E030E0A90160
:1046C000B701892D982D0E9478EF811109C0E9EF7B
:1046D000FEE085919591A591B4917C019A2E8B2E47
:1046E000F801208131814281538160919F0B70914B
:1046F000A00B8091A10B9091A20B0E9478EF87FFF5
:104700001AC0C701A92DB82D809340029093410291
:10471000A0934202B0934302F80180819181A2816B
:10472000B38180939F0B9093A00BA093A10BB093A8
:10473000A20B0E947316EB81FC81A080B180C28025
:10474000D38020E030E0A901C601B5010E9478EFD6
:10475000811108C0A0903C02B0903D02C0903E0282
:10476000D0903F02A0924002B0924102C092420219
:10477000D0924302E981FA8180819181A281B38143
:104780008093970B9093980BA093990BB0939A0BEF
:10479000F10180819181A281B38180939B0B9093E1
:1047A0009C0BA0939D0BB0939E0B0E947316F80177
:1047B000208131814281538160919F0B7091A00BC8
:1047C0008091A10B9091A20B0E942FF61816D4F4A1
:1047D000C701A92DB82D8093400290934102A09368
:1047E0004202B0934302F80180819181A281B3819A
:1047F00080939F0B9093A00BA093A10BB093A20B5F
:104800000E9473160E94A27F409240025092410281
:1048100060924202709243020F900F900F900F909F
:10482000DF91CF911F910F91FF90EF90DF90CF908C
:10483000BF90AF909F908F907F906F905F904F90C0
:104840003F902F9008959B01AC016BE97BE087E9D5
:104850009BE00C943423CF92DF92EF92FF921F9350
:10486000CF93DF93CDB7DEB72C970FB6F894DEBFAA
:104870000FBECDBF9091450B981709F46BC0182F50
:1048800080E090E0A0EAB0E48D839E83AF83B88798
:10489000C090930BD090940BE090950BF090960BFA
:1048A00020E030E0A901C701B6010E9478EF87FF40
:1048B0000CC0A701960160E070E080EA90E40E94DD
:1048C000CEF36D837E838F8398872D813E814F81C8
:1048D000588560919F0B7091A00B8091A10B9091D6
:1048E000A20B0E9478EF87FF0BC019821A821B82ED
:1048F0001C82BE016F5F7F4FCE0105960E9423246C
:104900008091970B9091980BA091990BB0919A0B75
:1049100089879A87AB87BC8780919B0B90919C0B72
:10492000A0919D0BB0919E0B8D839E83AF83B88722
:1049300019821A821B821C829E012F5F3F4F4FE912
:104940005BE0BE016B5F7F4FCE0109960E9434236E
:104950001093450B80E02C960FB6F894DEBF0FBE87
:10496000CDBFDF91CF911F91FF90EF90DF90CF905F
:10497000089590913D0FE92FF0E0EE5AF44F8083B7
:104980009F5F943040F490933D0F80913E0F8F5F76
:1049900080933E0F089510923D0FF7CFDF92EF9274
:1049A000FF920F931F93CF93DF93CDB7DEB76E9730
:1049B0000FB6F894DEBF0FBECDBF6091BB0D7091F6
:1049C000BC0D6115710569F14DE150E08E010F5F7D
:1049D0001F4FC8010E94E6EE1E8EF8017F01E01A0B
:1049E000F10AD190DD2019F08AE0D812F7CFF80152
:1049F000EE0DFF1D1082C8010E9407BB882389F0BD
:104A000090E080E0DD2049F08FEFE81AF80A80910D
:104A1000BB0D9091BC0D8E0D9F1D9093BC0D80938E
:104A2000BB0D81E02091BB0D3091BC0D232B09F40F
:104A300080E06E960FB6F894DEBF0FBECDBFDF915B
:104A4000CF911F910F91FF90EF90DF9008950F93FA
:104A50001F93CF93DF93CDB7DEB72C970FB6F894A3
:104A6000DEBF0FBECDBFE7E9FBE080859185A28563
:104A7000B3854481558166817781008111812281CE
:104A8000338109831A832B833C834D835E836F8339
:104A9000788789879A87AB87BC87AE01475F5F4F6E
:104AA000BE016B5F7F4FCE0101960E946E9D23EA8F
:104AB0003BE0AE01475F5F4FBE016B5F7F4FCE01B2
:104AC00001960E94E8952C960FB6F894DEBF0FBEB3
:104AD000CDBFDF91CF911F910F9108954F925F92BB
:104AE0006F927F929F92AF92BF92CF92DF92EF929E
:104AF000FF920F931F93CF93DF93CDB7DEB76097ED
:104B00000FB6F894DEBF0FBECDBF7C012A013B017A
:104B1000902EA12EB22EC32E82E0E816F10409F0E9
:104B20009EC020E030E0A901CB01B2010E9478EFE5
:104B300087FF95C00E9460CEDD24D3948701000FCB
:104B4000111F000F111FF801E956F44F7F01108269
:104B50001182128213820E942725F701408251821E
:104B600062827382E090ED0920E030E0A901692DB6
:104B70007A2D8B2D9C2D0E9478EF81110BC0F801AE
:104B8000EF50F14F85919591A591B491982EA92E52
:104B9000BA2ECB2E892D9A2DAB2DBC2D8D879E87BD
:104BA000AF87B88B80919F0B9091A00BA091A10B28
:104BB000B091A20B40919B0B50919C0B60919D0B6F
:104BC00070919E0B0091970B1091980B2091990B6F
:104BD00030919A0B09831A832B833C834D835E8328
:104BE0006F83788789879A87AB87BC87AE01475FD9
:104BF0005F4FBE016B5F7F4FCE0101960E946E9D9D
:104C00008E01035F1F4F23EA3BE0AE01475F5F4F1A
:104C1000BE016B5F7F4FCE0101960E9418970E94E4
:104C2000A27FDD2021F08AE590E00E9429231092E6
:104C3000720B60960FB6F894DEBF0FBECDBFDF914A
:104C4000CF911F910F91FF90EF90DF90CF90BF9089
:104C5000AF909F907F906F905F904F900895D12C70
:104C60006DCF9091E409981799F08093E409811130
:104C70000AC00E94C0168EEB94E00E94509C0E94D5
:104C80000E150C94272587E99BE00E94509CF9CFD4
:104C9000089580E00E943126E4E6FFE080E090E0A5
:104CA000A0E8BFE380839183A283B383148215823B
:104CB0001682178210861186128613861486158630
:104CC00016861786808B918BA28BB38B148A158ADC
:104CD000168A178A108E118E128E138E148E158ED0
:104CE000168E178E80A391A3A2A3B3A30895CF928B
:104CF000DF92EF92FF921F93CF93DF9300D000D00B
:104D00001F921F92CDB7DEB76D837E838F83988706
:104D100069017A010E9460CE81113AC020E030E042
:104D200040E752E4C701B6010E94C9F469837A835F
:104D30008B839C83BE016F5F7F4FCE0105960E94DF
:104D400023248091720B182F147082FF04C08AE50F
:104D500090E00E9429231092720B0E94C0168EEBE5
:104D600094E00E94509C8091C6049091C704A09149
:104D7000C804B091C90480939F0B9093A00BA0939B
:104D8000A10BB093A20B0E94272581E0111180E0B6
:104D900028960FB6F894DEBF0FBECDBFDF91CF913E
:104DA0001F91FF90EF90DF90CF9008950F931F9386
:104DB000CF9380918C0390918D030097E9F0FC01D3
:104DC0008F01C1912C2F2F7D81F0C53411F0C53694
:104DD000B9F7F801108270E060E00E9436EBF8014C
:104DE000C083CF911F910F91089570E060E0CF9143
:104DF0001F910F910C9436EB60E070E0CB01F1CF86
:104E00002FEB280F2A3168F5422F50E0FA0183E09A
:104E1000F595E7958A95E1F7E65EFB4F9081892F3E
:104E200090E0277002C0959587952A95E2F780FD5E
:104E300002C08170089540505C4FFA018081882340
:104E400069F02091B4043091B504820F932F911D25
:104E500090938D0380938C0381E0089590E080E02F
:104E6000F7CF80E008950E940027882341F081E079
:104E700020918C0330918D03232B09F480E0089559
:104E8000CF92DF92EF92FF920F931F93CF93DF9316
:104E900033E8C32E32E0D32E46EDE42E44E0F42E68
:104EA00007E91BE0D0E0C0E0F60181916F010E94AC
:104EB0000027882309F45EC00E94D6269B01AC011E
:104EC000FE01E550FC4F8081811105C08091FF03F8
:104ED000882309F44BC0F80160817181828193813C
:104EE0000E94CFF3C33069F0FE01EE0FFF1FEE0FFB
:104EF000FF1FE957F44F20813181428153810E9485
:104F0000CEF3F70160837183828393832196F4E06B
:104F1000EF0EF11C0C5F1F4FC430D10529F686E45B
:104F20000E9433278823C9F00E94D62620E030E073
:104F3000A9010E942FF6181684F40E94D62620E0BC
:104F400030E040E752E40E94C9F46093400270935D
:104F500041028093420290934302DF91CF911F91CF
:104F60000F91FF90EF90DF90CF90089560E070E098
:104F7000CB01B6CFF80180819181A281B381F70185
:104F800080839183A283B383C1CF2091AC0F909192
:104F9000AD0F81E0291301C080E0089588E893E116
:104FA0009093D0098093CF0980916F008D7F80937B
:104FB0006F000E94C527882359F00E94C5278823C7
:104FC000C1F38091AD0F8F5F8F708093AD0FF1CFE4
:104FD0001092CE091092CD0980916F00826080936B
:104FE0006F008FB7F89410922F0B1092300B109225
:104FF000310B1092320B8FBF0E94A27F0E94C0160D
:105000008EEB94E00E94509C0E940E150C94272574
:10501000AC01485F5F4FBC016C5F7F4F0C946E9D8D
:105020000E94D3C46093B6047093B7048093B8040D
:105030009093B90408958091F7039091F803A0919B
:10504000F903B091FA038093400290934102A09338
:105050004202B09343028091F5039091F60390933E
:105060001802809317020C941028809140029091AE
:105070004102A0914202B09143028093F7039093C2
:10508000F803A093F903B093FA038091170290916B
:1050900018029093F6038093F50384E690E09093D2
:1050A0001802809317020C9410289091C00095FF6D
:1050B000FCCF8093C60008957F928F929F92AF920B
:1050C000BF92CF92DF92EF92FF920F931F93CF93F5
:1050D000DF931F92CDB7DEB7E091E604E11138C04F
:1050E00059017C018B016B01C40ED51E0C151D05E9
:1050F00079F1F70180809180F80171908F017982B8
:10510000C4010E9445F3781691F1672DC4010E94F5
:105110004DF3C4010E9445F39981891741F10BEACF
:1051200019E2F80184910F5F1F4F81110BC001E557
:105130001FE0F80184910F5F1F4F882331F00E9418
:105140005528F7CF0E945528ECCF81E08093E604E4
:105150000F90DF91CF911F910F91FF90EF90DF9013
:10516000CF90BF90AF909F908F907F900895BE0199
:105170006F5F7F4FC5010E9451BDF7018081918112
:10518000019691838083B2CF4F925F926F927F920C
:105190008F929F92AF92BF92EF92FF920F931F93C5
:1051A000CF93DF93EC01FC01E25CF04F1491029786
:1051B00009F444C07E01EE0CFF1CEE0CFF1CF7014D
:1051C000EE5CF04F4590559065907490612F110FF3
:1051D000770B880B990B0E947FEF4B015C0120E05D
:1051E00030E040EC5FE3C301B2010E94DEEFA501B5
:1051F00094010E94DEEFAB01BC0100E010E09801D9
:10520000CE010E946E25F701EA5DF04FC230D10554
:1052100051F50EE21FE0F801659175918591949129
:1052200020E030E040EA50E40E9478EFF80187FF88
:105230001AC0E0E070E060EA80E41DC081E00E94F6
:105240002B24882309F4B6CFDF91CF911F910F91C2
:10525000FF90EF90BF90AF909F908F907F906F9056
:105260005F904F90089585919591A591B491E82F05
:10527000792F6A2F8B2F2E2F372F462F582FC501AE
:10528000B4010E94DEEF4B015C0120E030E0A90197
:105290000E9478EF882309F447C000E010E09801ED
:1052A000B501A4017058CE010E946E25FE01ED5D8E
:1052B000F04F6491611117C00BEA19E2F801849173
:1052C0000F5F1F4F81110BC001E01FE0F8018491B7
:1052D0000F5F1F4F882331F00E945528F7CF0E949F
:1052E0005528ECCF6AE0F701EF50F14F459055900B
:1052F0006590749070E090E080E00E947FEF9B01E9
:10530000AC01C301B2010E94C9F42B013C01A5010B
:105310009401C501B4010E94CFF3AB01BC0193011C
:105320008201CE010E946E2581E0FE01E955F44F15
:105330008083FE01EF5BF44F8083F701E653FB4F60
:105340001082118212821382CE010E94B415F701DD
:10535000EB51F14F85919591A591B491F701E956E3
:10536000F44F80839183A283B383C230D105D1F4FB
:105370002091930B3091940B4091950B5091960B8B
:1053800060919F0B7091A00B8091A10B9091A20B4B
:105390000E94CEF360939F0B7093A00B8093A10BA0
:1053A0009093A20B0E942725D701AA52BB4FF70169
:1053B000E956F44F40815181628173814D935D9331
:1053C0006D937C931397229709F03ECF80E0DF9195
:1053D000CF911F910F91FF90EF90BF90AF909F9052
:1053E0008F907F906F905F904F900C942B248C0146
:1053F000C0E9D9E2FE018491219681110AC0C5EC71
:10540000DEE0FE0184912196882331F00E94552828
:10541000F8CF0E945528EECF0E94B1770E94AA15BE
:105420000E946BD561E0C8010E9442CE0E94506983
:1054300060E080E00E9404C00E94DEBF62E080E085
:105440000E9404C086EB9EE00E944E7163E080E003
:105450000E9404C089EA9EE00E944E71FFEF2BE497
:105460008DE1F15020408040E1F700C00000F89449
:105470009FEFE4E3FCE09150E040F040E1F700C032
:1054800000000E94B1770E94F515A895FECFCF923B
:10549000DF92EF92FF920F931F93CF93DF93CDB7DD
:1054A000DEB760970FB6F894DEBF0FBECDBF809118
:1054B0002502882321F086ED94E00E9418150E94B1
:1054C00010288091EB0483FD82C0C090E204D0904C
:1054D000E304E090E404F090E5042091A30B309104
:1054E000A40B4091A50B5091A60BC701B6010E94D9
:1054F00078EF882309F46BC00E947D898823F1F03E
:10550000C092A30BD092A40BE092A50BF092A60B35
:105510000BEA19E2F80184910F5F1F4F81110BC054
:105520000AE01EE0F80184910F5F1F4F882331F0DD
:105530000E945528F7CF0E945528ECCFC090E20476
:10554000D090E304E090E404F090E5042091A30BF4
:105550003091A40B4091A50B5091A60BC701B60149
:105560000E94CEF39F77E091ED0924E0E29FF001E5
:105570001124EF5EFD4F20813181428153810E94D1
:10558000DEEF20E030E048E453E40E942FF61816E6
:10559000F4F4C092A30BD092A40BE092A50BF0926E
:1055A000A60B0BEA19E2F80184910F5F1F4F8111DE
:1055B0000BC00BEE1DE0F80184910F5F1F4F882395
:1055C00031F00E945528F7CF0E945528ECCF60910A
:1055D000170270911802072E000C880B990B0E947D
:1055E0007FEF209140023091410240914202509160
:1055F00043020E94DEEF2AE037ED43E25CE30E94C3
:10560000DEEF6D877E878F87988BE090ED09809124
:10561000DE049091DF04A091E004B091E104409198
:10562000DA045091DB046091DC047091DD04009198
:10563000D6041091D7042091D8043091D90409835D
:105640001A832B833C834D835E836F83788789879E
:105650009A87AB87BC87AE01475F5F4FBE016B5F28
:105660007F4FCE0101960E946E9D8E01035F1F4FFA
:1056700022EE34E0AE01475F5F4FBE016B5F7F4FAC
:10568000CE0101960E9418970E94061660960FB6EA
:10569000F894DEBF0FBECDBFDF91CF911F910F9168
:1056A000FF90EF90DF90CF900895CF93DF930E940B
:1056B0001028E091730BF0E0EE5AF44F80818823BC
:1056C00079F0C8EEDDE0FE0184912196882319F07F
:1056D0000E945528F8CF8AE0DF91CF910C9455288D
:1056E000DF91CF9108958F929F92AF92BF92CF9208
:1056F000DF92EF92FF920F931F93CF93DF93CDB77B
:10570000DEB7EA970FB6F894DEBF0FBECDBF80912B
:105710004F10882309F48FC089E192E10E94A51CF3
:1057200089E192E10E946B1E10924D1010924C1074
:1057300080914F10882309F47EC0E0901E04F09001
:105740001F0410924E1080911C12882321F089E1D1
:1057500092E10E946B1E1D8218861C821B8281EEC4
:1057600092E09A8389838BE790E190939B108093DA
:105770009A10F70180818F3209F07BC06FE270E0F0
:10578000C7010E9459F78C010F5F1F4FCE01019690
:105790005C010115110509F472C06FE270E0C801E7
:1057A0000E9459F76C01009709F46AC0081719079D
:1057B00008F066C04C01801A910AA401B801CE011C
:1057C00080960E9482F7E0E2F0E0EC0FFD1FE80D0A
:1057D000F91D10828E01005E1F4FF80181918F012B
:1057E000882319F00E945528F8CF8AE00E94552896
:1057F00060919A1070919B106115710579F16C5F41
:105800007F4F21E0AE01405E5F4FCE0105960E94C2
:105810002822811126C0BE01605E7F4F8AE896E093
:105820000E9461898EE20E9455288AE00E945528D4
:10583000C5010E942123EA960FB6F894DEBF0FBE81
:10584000CDBFDF91CF911F910F91FF90EF90DF902F
:10585000CF90BF90AF909F908F90089570E060E0E0
:10586000D0CFB0929B10A0929A1086010F5F1F4F6D
:1058700090CF8CE990E190939B1080939A108701D0
:1058800060919A1070919B106115710511F16C5F18
:105890007F4F18A21BA222E0A801CE0180960E9491
:1058A0002822811119C0F12CCE0180960E94741E0D
:1058B000F11027C094E6E92E96E0F92EF7018491C5
:1058C000FFEFEF1AFF0A882309F43FC00E94552812
:1058D000F5CF70E060E0DDCFCE0180960E9473BA14
:1058E000882309F361E0CE0180960E948B1C00970B
:1058F000D1F225EEFC0120831BA20E944918F82E4C
:10590000D3CF8CE7E82E86E0F82EF7018491FFEFE5
:10591000EF1AFF0A882319F00E945528F6CFF801E4
:1059200081918F01882319F00E945528F8CF8AE0D1
:105930000E9455281092CA121092CB121092CC12CB
:105940001092CD12CE01019674CFF80181918F0192
:10595000882319F00E945528F8CF8EE20E9455281E
:10596000F1CF0F931F93CF93DF93182F092FC7E722
:10597000D4E0FE0184912196811111C0C12FD02F56
:10598000FE018491219681110DC0CEE5D4E0FE0187
:1059900084912196882349F00E945528F8CF0E94CF
:1059A0005528E7CF0E945528EBCFDF91CF911F916B
:1059B0000F9108952F923F924F925F926F927F9234
:1059C0008F929F92AF92BF92CF92DF92EF92FF920F
:1059D0000F931F93CF93DF931F92CDB7DEB70E9433
:1059E000CE2481118EC270E6E72E80913E0F843066
:1059F00008F05FC00E941016AC0197FD5AC02091BC
:105A0000AA0B3091AB0B8A3019F08D3009F082C1AE
:105A10001092F2032115310541F32E563C4FF90146
:105A200010821092AB0B1092AA0B02E913E0F8015E
:105A30008191803209F4D1C08E3409F00BC167E046
:105A400074E0C8010E94F5EE6C01892B41F06EE410
:105A500070E0C80104960E9459F7009709F4C80144
:105A60004AE050E070E060E001960E9494ECAB01E7
:105A7000BC0140938E0350938F0360939003709307
:105A800091038091AC0B9091AD0BA091AE0BB091B6
:105A9000AF0B0196A11DB11D481759076A077B0777
:105AA00009F49DC0CD2809F09AC084ED93E00E94CE
:105AB0004CBC80914E10882309F423C280913E0F84
:105AC000811102C01092F403FF24F3944091CA1292
:105AD0005091CB126091CC127091CD128091C61270
