:100000000C94FD1B0C942E1C0C942E1C0C942E1C7A
:100010000C942E1C0C942E1C0C942E1C0C942E1C38
:100020000C942E1C0C942E1C0C942E1C0C942E1C28
:100030000C942E1C0C941CEB0C942E1C0C942E1C5B
:100040000C942E1C0C94EC930C942E1C0C942E1CD3
:100050000C942E1C0C942E1C0C946F8E0C944AEF56
:100060000C942E1C0C941C6A0C94126A0C942E1C7A
:100070000C942E1C0C942E1C0C942E1C0C942E1CD8
:100080000C941C480C942E1C0C942E1C0C942E1CAE
:100090000C942E1C0C942E1C0C942E1C0C942E1CB8
:1000A0000C942E1C0C942E1C0C94EE470C942E1CBD
:1000B0000C942E1C0C942E1C0C942E1C0C942E1C98
:1000C0000C942E1C0C942E1C0C942E1C0C942E1C88
:1000D0000C942E1C0C942E1C0C942E1C0C942E1C78
:1000E0000C942E1C084AD73B3BCE016E84BCBFFD4E
:1000F000C12F3D6C74319ABD56833DDA3D00C77FF8
:1001000011BED9E4BB4C3E916BAAAABE0000008090
:100110003F05A84CCDB2D44EB93836A9020C50B91F
:10012000918688083CA6AAAA2ABE000000803F004B
:100130000C9416EB0C94D9850C9438830C94F185AF
:100140000C94D4800C94EED20C94F0EA0C94FD1E26
:100150000C948E820C940F8D0C9446820C941A1F72
:100160000C94D0C10C9478340C947B5A0C94F6EA1D
:100170000C940F860C94AD820C9447840C94D92F68
:100180000C94995A0C941D830C94855A0C94A68552
:100190000C949E870C947E370C94F18C0C94301C3C
:1001A0000C94DA870C94CED20C944F820C94C0EA53
:1001B0000C94165A0C9409860C942DB70C94158B3C
:1001C0000C9492C80C943C5A0C94A0850C942B1F50
:1001D0000C94F7850C94445A0C94FB1E0C94FD85EA
:1001E0000C94F51E0C94E7820C9453830C948F5A54
:1001F0000C9464850C94031F0C94C68E0C94E6EA50
:100200000C9434C00C940CEB0D9448040C94498469
:100210000C940C5A0C94B2850C949B8A0C94F68A1C
:100220000C94E28C0C94B1870C94ECEA0C941E8D27
:100230000C9433360C94DF850C94F9870C94D98296
:100240000C94F91E0C946E830C9403860C94B68760
:100250000C9454850C9465310C94B9830C94BFD2E2
:100260000C94011F0C94EE8A0C94715A0C94008D1E
:100270000C94AC850C947F2C0C9487830C94712E79
:100280000C94968A0C94918A0C94F71E0C94A1827B
:100290000C948C8A0C9424990C9437290C9460BC8F
:1002A0000C9410820C941D990C944E5A0C94ED836E
:1002B0000C942A5A0C94D2830C94331C0C9441D382
:1002C0000C94A7870C9408EB0C949C260C94C441C6
:1002D0000C9418880C94DBEA0C94625A0C94D38525
:1002E0000C94EB850C94E63F0C94A0830C9406C60A
:1002F0000C94D6410C942F1F0C9445840C94FBEC69
:100300000C94E3EA0C94345A0C9481B80C94B084A5
:100310000C945D8D0C94115A0C94DFEA0C9412C469
:100320000C9433820C9402830C94D6840C942C8409
:100330000C94AC870C9415860C94E5850D94320CC6
:100340000C948F870C94E2BD0C94FAEA0C94A35A97
:100350000C9469BF0C941B860C9437880C94C5EAE6
:100360000C9440D30C94BB870C9452850C949A85C2
:100370000C94CC260C9413840C94585A0C94205A48
:100380000C94BB260C9404EB0C945C850C94FEEA54
:100390000C9412EB0C9400840C94FF1E0C94271FF9
:1003A0000C94D7EA0C94C6824E414E494E4954599A
:1003B000494E46CDCCCC3D0AD7233C17B7D1387730
:1003C000CC2B329595E6241FB14F0A000020410046
:1003D00000C84200401C4620BCBE4CCA1B0E5AAE90
:1003E000C59D7400407A10F35A00A0724E1809009F
:1003F00010A5D4E80000E87648170000E40B54028A
:100400000000CA9A3B000000E1F5050000809698C4
:1004100000000040420F000000A086010000001014
:100420002700000000E80300000000640000000056
:10043000000A00000000000100000000002C76D837
:1004400088DC674F0823DFC1DFAE59E1B1B796E51D
:10045000E3E453C63AE651997696E8E6C28426EB81
:10046000898C9B62ED407C6FFCEFBC9C9F40F2BA94
:10047000A56FA5F490055A2AF75C936B6CF9676D2C
:10048000C11BFCE0E40D47FEF520E6B500D0ED9081
:100490002E0300943577050080841E080000204E4E
:1004A0000A000000C80C333333330F986E128311E7
:1004B00041EF8D2114893BE65516CFFEE6DB18D1BE
:1004C000844B381BF77C1D901DA4BBE42420328490
:1004D000725E228100C9F124ECA1E53D27434F4D16
:1004E0004D554E49434154494F4E0044525952557F
:1004F0004E004552524F525300494E464F0045431D
:10050000484F004572726F722077726974696E6726
:1005100020746F20454550524F4D210A0021212063
:100520004B494C4C2063617573656420627920747B
:100530006F6F206D75636820696E6163746976659D
:100540002074696D65202D2063757272656E74204C
:10055000636F6D6D616E643A200053544F50504587
:10056000442E20005072696E7465722073746F702F
:100570007065642064756520746F206572726F7297
:10058000732E2046697820746865206572726F72D8
:1005900020616E6420757365204D39393920746F80
:1005A00020726573746172742E202854656D7065B5
:1005B0007261747572652069732072657365742E3B
:1005C00020536574206974206166746572207265B9
:1005D0007374617274696E67290A004E6F204368F4
:1005E00065636B73756D2077697468206C696E65DF
:1005F000206E756D6265722C204C617374204C699D
:100600006E653A20004E6F20436865636B73756DAD
:100610002077697468206C696E65206E756D6265FF
:10062000722C204C617374204C696E653A20006313
:100630006865636B73756D206D69736D6174636854
:100640002C204C617374204C696E653A20004C6913
:100650006E65204E756D626572206973206E6F74D1
:10066000204C617374204C696E65204E756D626517
:10067000722B312C204C617374204C696E653A20CA
:10068000004D313130005344207265616420657241
:10069000726F720A00627573793A207061757365C2
:1006A0006420666F7220696E7075740A00627573DB
:1006B000793A2070617573656420666F7220757376
:1006C00065720A00627573793A2070726F636573A0
:1006D00073696E670A004D656469612052656D6FCC
:1006E000766564004D6564696120496E7365727456
:1006F000656400506C6561736520526573657400B4
:100700005052494E5445522048414C5445440025CE
:10071000533A202553004B494C4C45442E20005061
:1007200072696E7465722068616C7465642E206BEA
:10073000696C6C28292063616C6C6564210A005324
:10074000544F505045442E20005072696E746572AB
:100750002073746F707065642064756520746F20F9
:100760006572726F72732E204669782074686520F6
:100770006572726F7220616E6420757365204D39E9
:10078000393920746F20726573746172742E202859
:1007900054656D706572617475726520697320723D
:1007A000657365742E2053657420697420616674C6
:1007B00065722072657374617274696E67290A00CC
:1007C0006563686F3A004572726F723A0042696CF5
:1007D000696E656172204C6576656C696E6720474D
:1007E0007269643A0A0021212053544F50206361FA
:1007F0006C6C65642062656361757365206F66204B
:10080000424C546F756368206572726F72202D20A0
:10081000726573746172742077697468204D393918
:10082000390A0021212053544F502063616C6C65BC
:10083000642062656361757365206F6620424C5465
:100840006F756368206572726F72202D20726573F8
:10085000746172742077697468204D3939390A00DF
:100860004F46460A004661646520486569676874BA
:100870002000426564204C6576656C696E672000D7
:100880004661696C656420746F20656E61626C6599
:1008900020426564204C6576656C696E670A004984
:1008A0006E76616C6964206D6573682E0A00507203
:1008B0006F62696E6720506F696E74002553202542
:1008C000692F2569002E0A002F0050726F62696E31
:1008D00067206D65736820706F696E742000202832
:1008E00044525952554E2900473239204175746F90
:1008F00020426564204C6576656C696E67003F2018
:10090000284C2C522C462C4229206F7574206F667F
:1009100020626F756E64732E0A003F285629657237
:10092000626F7365206C6576656C20696D706C61B3
:10093000757369626C652028302D34292E0A0042B7
:100940006164205A2076616C75650A004E6F2062E2
:10095000696C696E65617220677269640A0044653A
:1009600076696174696F6E0025533A2025730046DD
:10097000696E6973686564210A003A207A3A20003A
:10098000206F662000476F696E6720746F3A2058A9
:100990000043570A00206469723A0020616E676C58
:1009A000653A005374617274207261646975733AB8
:1009B000004D343820506F696E740025533A20255D
:1009C000642F256400506F736974696F6E696E6778
:1009D000207468652070726F62652E2E2E0A003FAB
:1009E0004C656773206F66206D6F76656D656E74FC
:1009F00020696D706C61757369626C652028302D9B
:100A00003135292E0A003F2028582C5929206F758E
:100A100074206F6620626F756E64732E0A005072C8
:100A20006F6265206F7574206F6620626F756E64EB
:100A300073003F53616D706C652073697A65206E39
:100A40006F7420706C61757369626C652028342D39
:100A50003530292E0A004D3438205A2D50726F62DD
:100A600065205265706561746162696C6974792092
:100A7000546573740A003F2856296572626F736566
:100A8000206C6576656C20696D706C617573696248
:100A90006C652028302D34292E0A005374616E6451
:100AA00061726420446576696174696F6E3A2000F2
:100AB0002052616E67653A2000204D61783A20002F
:100AC000204D696E3A2000205369676D613A20001D
:100AD0004D65616E3A200020496E76616C69642034
:100AE00065787472756465722000536C6565702E4C
:100AF0002E2E005A2050726F626520506173742050
:100B00004265640A005A2050726F6265205061731A
:100B1000742042656400205A3A200020593A20008F
:100B200042656420583A20004D65736820706F69F3
:100B30006E74206F7574206F662072616E67650A2F
:100B400000436C69636B20746F20526573756D652B
:100B50002E2E2E004E6F204D6F76652E00456E6452
:100B60002066696C65206C6973740A004265676968
:100B70006E2066696C65206C6973740A004E6F2084
:100B80006D656469610A00286E6F2066696C65296D
:100B90000043757272656E742066696C653A200058
:100BA0005344207072696E74696E6720627974654F
:100BB00020004E6F74205344207072696E74696E09
:100BC000670A002E0A0044656C6574696F6E2066C2
:100BD00061696C65642C2046696C653A2000466941
:100BE0006C652064656C657465643A002569730002
:100BF00025696D20256973002569682025696D20A8
:100C000025697300256964202569682025696D20A0
:100C10002569730025697920256964202569682084
:100C200025696D20256973005072696E742074699E
:100C30006D653A20006F6B006F666600FE04F90474
:100C4000F204EB04DD0444454255473A004D31318E
:100C5000322053687574646F776E004D31313320E4
:100C60005300476565657465636820693320507279
:100C70006F2042204F46462E004348414D42455288
:100C80005F54454D504552415455524500424142F2
:100C9000595354455050494E470041524353004D1B
:100CA0004F54494F4E5F4D4F4445530054484552B1
:100CB0004D414C5F50524F54454354494F4E004CA8
:100CC0004F4E475F46494C454E414D4500415554B6
:100CD0004F5245504F52545F53445F535441545503
:100CE000530052455045415400534443415244003F
:100CF00050524F4D50545F535550504F5254004531
:100D00004D455247454E43595F504152534552005D
:100D1000434153455F4C494748545F425249474815
:100D2000544E45535300544F47474C455F4C494739
:100D300048545300534F4654574152455F504F5704
:100D40004552004255494C445F50455243454E542C
:100D5000004C4556454C494E475F44415441005A6A
:100D60005F50524F42450052554E4F555400415529
:100D7000544F4C4556454C005052494E545F4A4FD3
:100D8000420050524F4752455353004155544F5221
:100D900045504F52545F54454D5000564F4C554DA1
:100DA000455452494300454550524F4D0042494E2B
:100DB0004152595F46494C455F5452414E53464556
:100DC000520053455249414C5F584F4E5F584F4671
:100DD00046004649524D574152455F4E414D453AB6
:100DE0004D61726C696E206275676669782D322E6E
:100DF000302E7820284A616E202033203230323164
:100E00002032333A34333A30312920534F5552434C
:100E1000455F434F44455F55524C3A676974687566
:100E2000622E636F6D2F4D61726C696E4669726DD3
:100E3000776172652F4D61726C696E2050524F540C
:100E40004F434F4C5F56455253494F4E3A312E3027
:100E5000204D414348494E455F545950453A4765F6
:100E60006565746563682069332050726F20422085
:100E700045585452554445525F434F554E543A31AC
:100E800020555549443A63656465326132662D34B4
:100E90003161322D343734382D396231322D63359A
:100EA000356336326633363766660A002F2F004DBB
:100EB00031343520533C696E6465783E206F75741B
:100EC000206F662072616E67652028302D31290AF7
:100ED00000205200416363656C65726174696F6ED6
:100EE0003A2050005741524E494E4721204C6F77CF
:100EF000205A204A65726B206D6179206C656164AF
:100F000020746F20756E77616E74656420706175F2
:100F10007365732E0A004D3230362058004F464616
:100F2000004F4E0020204D61783A20002000202004
:100F30004D696E3A2000536F667420656E64737459
:100F40006F70733A200046523A0020466C6F773A31
:100F500020003A200020536572766F2000206F75C4
:100F600074206F662072616E67650A005365727641
:100F70006F200020643A0020693A0020703A00494E
:100F80006E76616C69642065787472756465720A46
:100F90000064697300656E0043290A0061626C6534
:100FA0006420286D696E2074656D702000436F6C3D
:100FB00064206578747275646573206172652000C1
:100FC0004D34323120696E636F72726563742070C4
:100FD0006172616D657465722075736167650A0081
:100FE0004D65736820706F696E74206F7574206F23
:100FF000662072616E67650A004F6666736574737A
:10100000204170706C696564004572723A20546FBB
:101010006F206661722100546F6F206661722066D6
:10102000726F6D207265666572656E636520706FA4
:10103000696E740A00454550524F4D204F4B0A00CF
:10104000290A0020746F20003F5A206F7574206FAA
:10105000662072616E6765202800290A0020746F7F
:1010600020003F59206F7574206F662072616E6793
:101070006520282D00290A0020746F20003F582089
:101080006F7574206F662072616E676520282D0071
:1010900050726F6265204F66667365742058004D0C
:1010A000383400446F6E65207072696E74696E67C3
:1010B0002066696C650A004D3737004D33310049B1
:1010C0006E76616C69642065787472756465720A05
:1010D000004361703A0047322F4733206261642039
:1010E000706172616D65746572730A006F6B005296
:1010F0006573656E643A200020573A00436F6F6C49
:10110000696E672E2E2E0048656174696E672E2EFB
:101110002E00452025530020573A004265642043A5
:101120006F6F6C696E672E2E2E00426564204865D5
:101130006174696E672E2E2E0023646566696E6584
:101140002044454641554C545F004B6420004B6998
:1011500020004B702000504944204175746F747515
:101160006E652066696E69736865642120507574C8
:1011700020746865206C617374204B702C204B695F
:1011800020616E64204B6420636F6E7374616E74B3
:10119000732066726F6D2062656C6F7720696E7464
:1011A0006F20436F6E66696775726174696F6E2E2A
:1011B000680A00504944204175746F74756E65204B
:1011C0006661696C6564212074696D656F75740A68
:1011D00000504944204175746F74756E65206661D6
:1011E000696C6564212054656D70657261747572F7
:1011F0006520746F6F20686967680A00204B643A45
:101200002000204B693A2000204B703A20000A2031
:10121000436C617373696320504944200A00205471
:10122000753A2000204B753A2000206D61783A20F5
:1012300000206D696E3A200020643A200020626927
:1012400061733A2000504944204175746F74756E83
:10125000652073746172740A0050494420417574AA
:101260006F74756E65206661696C656421205465D4
:101270006D706572617475726520746F6F20686936
:1012800067680A00504944204175746F74756E6533
:1012900000504944204175746F74756E6520666115
:1012A000696C65642120426164206578747275649C
:1012B0006572206E756D6265720A00A1000000699A
:1012C00000A20000006300B00000000900C100009F
:1012D000004100C20000004100C30000004100C402
:1012E0000000004100C50000004100C600000041B0
:1012F00045C70000004300C80000004500C90000C9
:10130000004500CD0000004900D10000004E00D58E
:101310000000004F00D60000004F00D7000000780A
:1013200000DC0000005500DD0000005900E0000076
:10133000006100E10000006100E20000006100E3E4
:101340000000006100E40000006100E500000061B1
:1013500000E60000006165E70000006300E80000AF
:10136000006500E90000006500EA0000006500EB90
:101370000000006500EC0000006900ED000000695D
:1013800000EE0000006900EF0000006900F10000BD
:10139000006E00F20000006F00F30000006F00F428
:1013A0000000006F00F50000006F00F60000006F05
:1013B00000F80000006F00F90000007500FA00005E
:1013C000007500FB0000007500FC0000007500FDCA
:1013D0000000007900FF00000079000401000041D6
:1013E0000005010000610006010000430007010044
:1013F0000063000C01000043000D01000063000EBB
:1014000001000044000F01000064001101000064AD
:10141000001901000065001A01000045001B0100D1
:101420000065001F01000067003001000049003125
:101430000100006900410100004C00420100006C05
:1014400000430100004E00440100006E004801000E
:10145000006E005801000052005901000072005A4D
:1014600001000053005B01000073005F0100007386
:10147000006001000053006101000073006501007D
:101480000074006F01000075007C0100007A007D8F
:101490000100005A007E0100007A009201000066FF
:1014A00000E30200007800222000002E001E210030
:1014B00000507822210000544D902100003C2D92D4
:1014C0002100002D3EB02100000300BB21000004DC
:1014D000003C2200007E00482200007E3D60220089
:1014E00000213D612200003D00642200003C3D657A
:1014F0002200003E3DF12300000700A03000003D27
:101500000021F301000200C2F401000500A2000066
:1015100000EC00B0000000DF00E4000000E100F695
:10152000000000EF00F7000000FD00FC000000F5E7
:1015300000E3020000EB0087030000A5008F03001A
:1015400000F40098030000F2009E030000E300A3F3
:10155000030000F600A9030000F400AC030000E063
:1015600000AD030000E300B1030000E000B203009F
:1015700000E200B5030000E300B8030000F200BC85
:10158000030000E400BE030000E300C0030000F716
:1015900000C1030000E600C3030000E50090210045
:1015A000007F00922100007E001A220000E8001E49
:1015B000220000F30088250000FF0002300000A197
:1015C000000C300000A2000D300000A3009B300092
:1015D00000DE009C300000DF00A03000003D00A1D4
:1015E000300000A700A2300000B100A3300000A826
:1015F00000A4300000B200A5300000A900A6300011
:1016000000B300A7300000AA00A8300000B400A971
:10161000300000AB00AA300000B500AB300000B6CF
:1016200000AC300000B6DEAD300000B700AE3000D8
:1016300000B7DEAF300000B800B0300000B8DEB157
:10164000300000B900B2300000B9DEB3300000BA9B
:1016500000B4300000BADEB5300000BB00B6300088
:1016600000BBDEB7300000BC00B8300000BCDEB903
:10167000300000BD00BA300000BDDEBB300000BE4F
:1016800000BC300000BEDEBD300000BF00BE300038
:1016900000BFDEBF300000C000C0300000C0DEC1AF
:1016A000300000C100C2300000C1DEC3300000AF16
:1016B00000C4300000C200C5300000C2DEC63000E9
:1016C00000C300C7300000C3DEC8300000C400C93A
:1016D000300000C4DECA300000C500CB300000C6B8
:1016E00000CC300000C700CD300000C800CE300074
:1016F00000C900CF300000CA00D0300000CADED1DF
:10170000300000CADFD2300000CB00D3300000CB65
:10171000DED4300000CBDFD5300000CC00D6300066
:1017200000CCDED7300000CCDFD8300000CD00D9AF
:10173000300000CDDEDA300000CDDFDB300000CE3F
:1017400000DC300000CEDEDD300000CEDFDE300019
:1017500000CF00DF300000D000E0300000D100E119
:10176000300000D200E2300000D300E3300000ACD3
:1017700000E4300000D400E5300000AD00E63000A9
:1017800000D500E7300000AE00E8300000D600E9E8
:10179000300000D700EA300000D800EB300000D95C
:1017A00000EC300000DA00ED300000DB00EF30002C
:1017B00000DC00F2300000A600F3300000DD00F491
:1017C000300000B3DEF7300000DCDEFA300000A6A7
:1017D000DEFB300000A500FC300000B000FD300052
:1017E00000A400074E0000FB0086510000FC0043EF
:1017F000530000FA0064FF0000A40065FF0000A58C
:101800000066FF0000A60067FF0000A70068FF0059
:1018100000A80069FF0000A9006AFF0000AA006B91
:10182000FF0000AB006CFF0000AC006DFF0000ADDE
:10183000006EFF0000AE006FFF0000AF0070FF0001
:1018400000B00071FF0000B10072FF0000B2007331
:10185000FF0000B30074FF0000B40075FF0000B586
:101860000076FF0000B60077FF0000B70078FF00A9
:1018700000B80079FF0000B9007AFF0000BA007BD1
:10188000FF0000BB007CFF0000BC007DFF0000BD2E
:10189000007EFF0000BE007FFF0000BF0080FF0051
:1018A00000C00081FF0000C10082FF0000C2008371
:1018B000FF0000C30084FF0000C40085FF0000C5D6
:1018C0000086FF0000C60087FF0000C70088FF00F9
:1018D00000C80089FF0000C9008AFF0000CA008B11
:1018E000FF0000CB008CFF0000CC008DFF0000CD7E
:1018F000008EFF0000CE008FFF0000CF0090FF00A1
:1019000000D00091FF0000D10092FF0000D20093B0
:10191000FF0000D30094FF0000D40095FF0000D525
:101920000096FF0000D60097FF0000D70098FF0048
:1019300000D80099FF0000D9009AFF0000DA009B50
:10194000FF0000DB009CFF0000DC009DFF0000DDCD
:10195000009EFF0000DE009FFF0000DF00E5FF00AB
:10196000005C0000000000010204040000001C1CD8
:101970000C04040402010000000000040810000030
:101980000000002D2D2D2D2D2D007C4D61726C69D8
:101990006E7C002D2D2D2D2D2D00001C1F11111FD3
:1019A00000000006191803130C00040E1F041C008D
:1019B0000000000E1315110E00001C10181705066C
:1019C0000500040A0A0A0A11110E0C12120C00007A
:1019D0000000001F1511151F000042656400456ED0
:1019E000636C6F73757265002568753A25303268CF
:1019F000750025303268753A2530326875002D2D16
:101A00002D005344002020202020202000202020D2
:101A100020005072696E742041626F7274656400B8
:101A20004D32350050617573696E672E2E2E004D54
:101A3000323400454550524F4D2056657273696FE0
:101A40006E204572726F7200454550524F4D2049CD
:101A50006E646578204572726F7200454550524F32
:101A60004D20435243204572726F72003F00496718
:101A70006E6F726500526573657400496E697469B2
:101A8000616C697A6520454550524F4D0046696C3E
:101A90002E204469612E004520696E206D6D5E33F5
:101AA0000020022046616374002002204D6178000E
:101AB0002002204D696E004F6666004F6E00417532
:101AC000746F74656D70005654726176204D696E46
:101AD00000566D696E00566D6178204500566D6147
:101AE00078205A00566D6178205900566D61782033
:101AF0005800416D6178204500416D6178205A00A1
:101B0000416D6178205900416D6178205800412D68
:101B100054726176656C00412D5265747261637414
:101B200000416363656C0056652D4A65726B005613
:101B30005A2D4A65726B0056592D4A65726B0056D4
:101B4000582D4A65726B0050726F6265205A204FA3
:101B500066667365740050726F62652059204F6627
:101B6000667365740050726F62652058204F666618
:101B7000736574005045544700504C410045207334
:101B8000746570732F6D6D005A2053746570732FD8
:101B90006D6D00592053746570732F6D6D00582062
:101BA00053746570732F6D6D00416476616E63656B
:101BB000642053657474696E6773003F0043616EFF
:101BC00063656C00496E6974004D34323800496EAB
:101BD000697469616C697A6520454550524F4D00C2
:101BE00046696C616D656E740054656D70657261F7
:101BF000747572650053746570732F6D6D0050724B
:101C00006F6265204F666673657473004A65726B18
:101C100000416363656C65726174696F6E0056653F
:101C20006C6F636974790053657420486F6D65202B
:101C30004F66667365747300436F6E66696775728D
:101C40006174696F6E003F004E65787420506F6953
:101C50006E7400446F6E65004E65787400486F6D59
:101C6000696E672058595A0053746F726520536526
:101C70007474696E6773004C6F616420536574748B
:101C8000696E6773004C6576656C20436F726E6594
:101C900072730050726F6265205A204F66667365DA
:101CA00074004661646520486569676874004F6622
:101CB00066004F6E00426564204C6576656C696E07
:101CC00067004C6576656C20426564004732380ACF
:101CD00047323900473239004175746F20486F6DC3
:101CE00065004D6F74696F6E0053572D4D6F6465BD
:101CF0000053746F77004465706C6F790053656CA6
:101D0000662D546573740052657365740042656492
:101D1000004E6F7A7A6C650046616E20537065657F
:101D20006400436F6E66696775726174696F6E00F7
:101D3000526573746F72652044656661756C747367
:101D4000004C6F61642053657474696E677300534F
:101D5000746F72652053657474696E677300507296
:101D60006568656174202420436F6E6600424C54A0
:101D70006F7563680050726F6265205A204F666607
:101D800073657400416476616E63656420536574A5
:101D900074696E6773004D61696E003F0042616354
:101DA0006B0053746F70005072696E742066726FAE
:101DB0006D204D65646961004368616E6765204D03
:101DC00065646961004D323100436F6E6669677505
:101DD000726174696F6E0054656D706572617475BF
:101DE0007265004D6F74696F6E00526573756D6535
:101DF000205072696E740054756E650053746F7074
:101E0000205072696E74005061757365205072695C
:101E10006E74004E6F204D6564696100496E666F97
:101E20002053637265656E003F00537461727420C5
:101E30005072696E740043616E63656C0050726924
:101E40006E740043616E6E6F7420656E74657220EF
:101E50007375626469723A2000052E2E004D616927
:101E60006E002100486F74656E6420746F6F20638C
:101E70006F6C64004261636B0050726F63656564F0
:101E8000004D6F74696F6E0044697361626C652008
:101E90005374657070657273004D3834004D34387A
:101EA0002050726F62652054657374004732382089
:101EB0004F0A4D34382050313000426564204C6563
:101EC00076656C696E6700486F6D65205A00473211
:101ED000385A00486F6D652059004732385900481C
:101EE0006F6D6520580047323858004175746F2077
:101EF000486F6D6500473238004D61696E00507261
:101F00006568656174202420456E640050726568C0
:101F10006561742024204265640054656D706572AB
:101F2000617475726500791B741B436F6F6C646F0D
:101F3000776E005072656865617420240046616E9A
:101F400020537065656400426564004E6F7A7A6C58
:101F500065004D61696E00466C6F770046616E20CA
:101F6000537065656400426564004E6F7A7A6C65F3
:101F7000005370656564004D61696E006F70656E39
:101F800000545249474745524544003A20007A5F81
:101F90006D696E00795F6D696E00785F6D696E00C6
:101FA0005265706F7274696E6720656E6473746FCA
:101FB00070207374617475730A0020746F6F206CE5
:101FC0006F6E6720657874727573696F6E207072BA
:101FD0006576656E7465640A0020636F6C642065C5
:101FE0007874727573696F6E2070726576656E7441
:101FF00065640A00486F6D6520257325732573207D
:10200000466972737400486F6D696E672046616936
:102010006C65640000002041000020C10000000049
:102020005761726E696E673A20486F6D696E6720FE
:1020300042756D702044697669736F72203C20315F
:102040000A000202040000A0400000A040000000BE
:102050004000003A4300003B4300003943FFFFFFCC
:1020600000000001000000010000800055555500EF
:102070000000400033333300AAAA2A00499224000A
:1020800000002000C7711C0099991900D145170064
:10209000555515003BB113002449120011111100D0
:1020A000000010000F0F0F00E3380E0043790D0001
:1020B000CCCC0C00C3300C00E8A20B0064210B0058
:1020C000AAAA0A00703D0A009DD80900427B0900B7
:1020D00092240900DCD30800888808001042080018
:1020E00000000800F0C1070087870700755007004F
:1020F000711C07003EEB0600A1BC060069900600BB
:1021000066660600703E06006118060017F40500BA
:1021100074D105005BB00500B29005006272050045
:102120005555050078390500B81E05000505050060
:102130004EEC040087D40400A1BD040090A7040065
:1021400049920400C17D0400EE690400C7560400F2
:10215000444404005C3204000821040041100400DF
:10216000000004003FF00300F8E0030026D2030063
:10217000C3C30300CCB503003AA803000A9B0300C5
:10218000388E0300C08103009F750300D0690300EF
:10219000505E03001D53030034480300913D0300CB
:1021A0003333030016290300381F0300971503007B
:1021B000300C0300030303000BFA020049F1020094
:1021C000BAE802005CE002002DD802002DD0020027
:1021D00059C80200B0C0020031B90200DAB10200F1
:1021E000AAAA0200A0A30200BC9C0200FA95020069
:1021F0005C8F0200DF88020082820200457C0200C0
:102200002776020027700200436A02007C64020005
:10221000D05E02003F590200C8530200FFFDFCFAE5
:10222000F8F6F4F2F0EEECEAE9E7E5E3E1E0DEDC13
:10223000DAD9D7D5D4D2D0CFCDCBCAC8C7C5C3C2BF
:10224000C0BFBDBCBAB9B7B6B4B3B2B0AFADACAA3B
:10225000A9A8A6A5A4A2A1A09E9D9C9A999897958D
:10226000949392908F8E8D8B8A89888786848382BF
:1022700081807F7E7D7B7A797877767574737271D1
:10228000706F6E6D6C6B6A696867666564636261C6
:10229000605F5E5D5C5B5A595858575655545352AF
:1022A0005150504F4E4D4C4B4A4A4948474646457F
:1022B0004443424241403F3E3E3D3C3B3B3A39383D
:1022C0003837363535343332323130302F2E2E2DEB
:1022D0002C2B2B2A2929282727262525242323228E
:1022E000212120201F1E1E1D1C1C1B1B1A19191822
:1022F00018171616151514131312121111100F0FAB
:102300000E0E0D0D0C0C0B0A0A090908080707062A
:102310000605050404030302020100000000444313
:10232000000031430000394300002041000020C17B
:102330000000000053657474696E67732053746FF6
:10234000726564000000C8430000C84300000040FC
:10235000000034420000A3420000A3425258C84388
:102360000000D842881300008813000032000000EB
:10237000881300003B20003A0A0020204D383531F8
:102380002058005A2D50726F6265204F6666736543
:10239000740020440020490020204D33303120506B
:1023A000005049442073657474696E67733A002065
:1023B000460020420020480020204D313435205373
:1023C000004D6174657269616C2068656174757037
:1023D00020706172616D65746572733A00204A0005
:1023E0002020473239205720490020204D343230F8
:1023F0002053004175746F20426564204C657665FA
:102400006C696E673A0020204D3230362058004803
:102410006F6D65206F66667365743A002058002002
:10242000530020204D323035204200416476616EE9
:102430006365643A20423C6D696E5F7365676D65E4
:102440006E745F74696D655F75733E20533C6D6992
:102450006E5F66656564726174653E20543C6D69AB
:102460006E5F74726176656C5F66656564726174D7
:10247000653E20583C6D61785F785F6A65726B3E9F
:1024800020593C6D61785F795F6A65726B3E205AB6
:102490003C6D61785F7A5F6A65726B3E20453C6D8A
:1024A00061785F655F6A65726B3E00205400205260
:1024B0000020204D323034205000416363656C654C
:1024C000726174696F6E2028756E6974732F733230
:1024D000293A20503C7072696E745F616363656C69
:1024E0003E20523C726574726163745F6163636520
:1024F0006C3E20543C74726176656C5F6163636509
:102500006C3E0020204D3230312058004D617869FA
:102510006D756D20416363656C65726174696F6E82
:102520002028756E6974732F7332293A0020204D6C
:102530003230332058004D6178696D756D206665C5
:10254000656472617465732028756E6974732F7386
:10255000293A0053746570732070657220756E6936
:10256000743A0020440020204D32303020530020A7
:1025700044697361626C65640A0046696C616D65EB
:102580006E742073657474696E67733A0020204D11
:102590003134392043203B20556E69747320696EB5
:1025A0002043656C736975730A0020286D6D2900DE
:1025B0002020473231202020203B20556E69747343
:1025C00020696E206D6D0024F4D43050C38E20C27B
:1025D000A24017828B7011127A910D816CD90AA8D2
:1025E00061E108C7586607615143061E4B5D05C18E
:1025F00045A7041A411104093D980371393103407C
:1026000036DB0265339102D4305402802E1D026302
:102610002CEE01752AC501B028A001102781018F79
:102620002564012B244B01E0223401AC211F018DD4
:10263000200D01801FFC00841EED00971DDF00B8F7
:102640001CD200E61BC600201BBC00641AB200B2FC
:1026500019A8000A19A0006A189900D11791004022
:10266000178B00B516840031167E00B31579003A39
:10267000157300C7146F0058146A00EE13660088C3
:1026800013630025135E00C7125B006C1257001520
:10269000125400C111510070114F0021114B00D68E
:1026A0001049008D1047004610440002104200C03F
:1026B0000F4000800F3E00420F3C00060F3B00CB56
:1026C0000E3800930E37005C0E3500270E3400F3F1
:1026D0000D3200C10D3100900D3000600D2E003222
:1026E0000D2D00050D2C00D90C2B00AE0C290085FA
:1026F0000C29005C0C2700350C27000E0C2600E886
:102700000B2400C40B2400A00B23007D0B23005AD4
:102710000B2100390B2100180B2000F80A1F00D9EB
:102720000A1E00BB0A1E009D0A1D00800A1D0063D0
:102730000A1C00470A1B002C0A1B00110A1A00F78A
:10274000091A00DD091900C4091900AB0919009222
:102750000917007B091800630917004C0916003699
:10276000091600200916000A091500F5081500E0F1
:10277000081400CC081400B8081400A40814009031
:102780000813007D0812006B081300580812004659
:10279000081200340811002308110012081100016A
:1027A000081100F0071000E0071000D0071000C06B
:1027B000071000B0070F00A107100091070E00835B
:1027C000070F0074070F0065070E0057070E00493A
:1027D000070E003B070D002E070E0020070D00130B
:1027E000070D0006070D00F9060C00ED060D00E0D0
:1027F000060C00D4060C00C8060C00BC060C00B089
:10280000060C00A4060B0099060C008D060B008236
:10281000060B0077060B006C060B0061060A0057DA
:10282000060B004C060A0042060A0038060A002E73
:10283000060A0024060A001A060A00100609000704
:10284000060A00FD050900F4050900EB050900E290
:10285000050900D9050900D0050900C7050900BE12
:10286000050900B5050800AD050800A50509009C8F
:10287000050800940508008C050800840508007C04
:10288000050800740508006C050700650508005D73
:10289000050700560508004E0507004705070040DC
:1028A00005080038050700310507002A0507002341
:1028B0000507001C050600160507000F05070008A0
:1028C00005060002050700FB040600F5040700EEFC
:1028D000040600E8040600E2040700DB040600D555
:1028E000040600CF040600C9040600C3040600BDA8
:1028F000040600B7040600B1040500AC040600A6F7
:10290000040600A00405009B040600950405009041
:102910000406008A04050085040500800406007A88
:1029200004050075040500700405006B04050066CD
:10293000040500610405005C04050057040500520D
:102940000405004D04050048040500430405003E4D
:102950000404003A04050035040500300404002C8A
:1029600004050027040400230405001E0404001AC3
:1029700004040016040500110404000D04040009F9
:102980000405000404040000040400FC030400F82F
:10299000030400F4030400F0030400EC030400E863
:1029A000030400E4030400E0030400DC030400D893
:1029B000030400D4030400D0030400CC030400C8C3
:1029C000030300C503030024F404D9201BC40C5CDA
:1029D0000E9804C4095F0265077101F405F900FB54
:1029E00004B30048048700C103690058035500037D
:1029F000034500BE023A008402310053022A002936
:102A000002250004022000E4011C00C8011900AFE7
:102A10000117009801140084011300710110006176
:102A200001100051010E0043010D0036010B002B77
:102A3000010B0020010B00150109000C0109000326
:102A4000010800FB000800F3000800EB000700E4A9
:102A5000000600DE000600D8000600D2000600CC0A
:102A6000000500C7000500C2000500BD000400B954
:102A7000000400B5000400B1000400AD000400A98A
:102A8000000400A5000300A20003009F0004009BB7
:102A900000030098000300950002009300030090DB
:102AA0000003008D0002008B0003008800020086F6
:102AB00000020084000300810002007F0002007D0C
:102AC0000002007B0002007900020077000100761E
:102AD0000002007400020072000100710002006F29
:102AE0000002006D0001006C0002006A0001006934
:102AF000000200670001006600010065000100643B
:102B00000002006200010061000100600001005F3E
:102B10000002005D0001005C0001005B0001005A42
:102B20000001005900010058000100570001005643
:102B30000001005500010054000100530000005343
:102B40000001005200010051000100500001004F3F
:102B50000001004E0000004E0001004D0001004C3D
:102B60000001004B0000004B0001004A0001004939
:102B70000001004800000048000100470001004635
:102B8000000000460001004500000045000100442F
:102B90000001004300000043000100420000004229
:102BA0000001004100000041000100400001003F21
:102BB0000000003F0001003E0000003E0001003D1B
:102BC0000000003D0001003C0000003C0000003C13
:102BD0000001003B0000003B0001003A0000003A09
:102BE0000001003900000039000100380000003801
:102BF00000000038000100370000003700010036F7
:102C000000000036000000360001003500000035ED
:102C100000000035000100340000003400000034E2
:102C200000010033000000330000003300010032D7
:102C300000000032000000320001003100000031CD
:102C400000000031000100300000003000000030C2
:102C50000001002F0000002F0000002F0000002FB7
:102C60000001002E0000002E0000002E0001002DAB
:102C70000000002D0000002D0000002D0001002CA0
:102C80000000002C0000002C0000002C0001002B94
:102C90000000002B0000002B0000002B0001002A88
:102CA0000000002A0000002A0000002A000100297C
:102CB0000000002900000029000000290000002970
:102CC0000001002800000028000000280000002863
:102CD0000000002800010027000000270000002756
:102CE0000000002700000027000100260000002649
:102CF000000000260000002600000026000100253C
:102D0000000000250000002500000025000000252F
:102D10000000002500010024000000240000002421
:102D20000000002400000024000100230000002314
:102D30000000002300000023000000230000002307
:102D400000000023000100220000002200000022F9
:102D500000000022000000220000002200010021EB
:102D600000000021000000210000002100000021DF
:102D700000000021000000210001002000000020D0
:102D800000000020000000200000002000000020C3
:102D900000000020000000200001001F0000001FB4
:102DA0000000001F0000001F0000001F0000001FA7
:102DB0000000001F0001001E0000001E0000001E99
:102DC0000000001E0000003930000033250000879D
:102DD000190000B00F0000DB080000BD0400007403
:102DE0000200003F01000020436F756E7420583AC6
:102DF0000042656400453100626564002C207379EF
:102E00007374656D2073746F7070656421204865FC
:102E1000617465725F49443A200048656174696E67
:102E200067204661696C65640048656174696E6716
:102E3000206661696C656400544845524D414C20E0
:102E400052554E4157415900546865726D616C206E
:102E500052756E61776179004572723A204D415822
:102E600054454D50004D415854454D5020747269A1
:102E7000676765726564004572723A204D494E5429
:102E8000454D50004D494E54454D50207472696770
:102E9000676572656400202F002042403A002040A0
:102EA0003A000009121B242D363F48415A536C65E5
:102EB0007E7719100B023D342F265158434A757CFA
:102EC000676E323B2029161F040D7A7368615E57C6
:102ED0004C452B2239300F061D14636A7178474E1A
:102EE000555C646D767F4049525B2C253E37080166
:102EF0001A137D746F6659504B42353C272E1118BA
:102F0000030A565F444D727B60691E170C053A3305
:102F100028214F465D546B627970070E151C232AD9
:102F200031384148535A656C777E09001B122D24B5
:102F30003F3658514A437C756E671019020B343D79
:102F4000262F737A6168575E454C3B3229201F1645
:102F50000D046A6378714E475C55222B3039060F99
:102F6000141D252C373E0108131A6D647F764940E5
:102F70005B523C352E2718110A03747D666F505939
:102F8000424B171E050C333A21285F564D447B7285
:102F900069600E071C152A233831464F545D626B59
:102FA00070797C3C3E5E2B3D3F2F5B5D3B2C2A22A3
:102FB0005C0043616E6E6F74206F70656E20737578
:102FC000626469722000534420496E69742046612E
:102FD000696C0053442063617264206F6B0A006F58
:102FE00070656E526F6F74206661696C65640A006B
:102FF000766F6C756D652E696E6974206661696C9B
:1030000065640A004E6F20534420636172640A00B5
:103010000A4D3234004D3233202573002E0A006FE2
:1030200070656E206661696C65642C2046696C650C
:103030003A200046696C652073656C65637465644D
:103040000A002053697A653A200046696C65206F52
:1030500070656E65643A2000454E442053554252D7
:103060004F5554494E450A002220706F73002220AC
:10307000706172656E743A2200535542524F555436
:10308000494E452043414C4C207461726765743A47
:10309000220053756263616C6C204F766572666CBA
:1030A0006F77004578636565646564206D6178209D
:1030B000535542524F5554494E45206465707468CB
:1030C0003A0057726974696E6720746F2066696C84
:1030D000653A2000667265736800646F696E670008
:1030E0002066696C653A20004E6F7720002F61756D
:1030F000746F25632E670000000A0B02090C0D0E89
:1031000008070304010000000000000000000000A8
:1031100000000000000000000000000000000000AF
:10312000000000121110000000000000000000006C
:1031300000000000000000000000000000026D61BF
:10314000726C696E66772E6F7267006D61726C6962
:103150006E66772E6F7267006D61726C696E66774E
:103160002E6F7267006275676669782D322E302E79
:1031700078006275676669782D322E302E7800628D
:1031800075676669782D322E302E78006D61726C0D
:10319000696E66772E6F7267006D61726C696E661C
:1031A000772E6F7267006D61726C696E66772E6F35
:1031B000726700206275676669782D322E302E782E
:1031C0000070012C0190012701B0012201C0011DF6
:1031D00001F00118011002130130020E0160020912
:1031E0000190020401C002FF000003FA004003F551
:1031F000008003F000D003EB002004E6007004E13F
:1032000000E004DC004005D700C005D2004006CD38
:1032100000D006C8008007C3003008BE00F008B91F
:1032200000C009B400B00AAF00B00BAA00D00CA5D2
:1032300000000EA000500F9B00C01096005012918D
:103240000000148C00C0158700B0178200B0197DF3
:1032500000D01B7800001E730040206E0090226991
:1032600000F024640040275F0090295A00E02B55AD
:1032700000102E500020304B0010324600E0334149
:103280000090353C001037370070383200A0392DDF
:1032900000B03A2800A03B2300603C1E00103D19FE
:1032A00000903D1400103E0F00703E0A00C03E0525
:1032B00000003F0000403FFBFF803FF6FFC03FF1B2
:1032C000FF2020506C616E6E657242756666657295
:1032D00042797465733A20002046726565204D6519
:1032E0006D6F72793A2000436F6D70696C65643A56
:1032F000204A616E20203320323032310A00204CC7
:1033000061737420557064617465643A20323032A0
:10331000312D30312D3033207C20417574686F722F
:103320003A206A6F6E7361670A0062756766697832
:103330002D322E302E780A004D61726C696E00209D
:10334000536F6674776172652052657365740A0005
:10335000205761746368646F672052657365740AEF
:10336000002042726F776E206F757420526573650E
:10337000740A002045787465726E616C2052657322
:1033800065740A00506F77657255700A0073746136
:1033900072740A004732385859004D3130303100CC
:1033A0006572726F722077726974696E6720746FCC
:1033B0002066696C650A00446F6E652073617669EA
:1033C0006E672066696C652E0A004D323900456EC5
:1033D0006473746F70730025532025632025632068
:1033E000256320256300205A3A0020593A002058CE
:1033F0003A00656E6473746F7073206869743A2064
:1034000000004D6F76652025736D6D004D6F7665FC
:1034100020302E316D6D004D6F766520316D6D0061
:103420004D6F76652031306D6D004D6F76652041B2
:10343000786973004578747275646572004D6F76B3
:1034400065205A004D6F76652059004D6F766520D6
:1034500058005072696E742066726F6D204D6564FD
:1034600069610050726F62696E67204661696C65C0
:10347000640A0050726F62696E67204661696C650C
:103480006400205A3A200020593A20004265642006
:10349000583A2000220A00556E6B6E6F776E2063DB
:1034A0006F6D6D616E643A202200476565657465D5
:1034B00063682069332050726F2042205265616436
:1034C000792E005072696E74696E672E2E2E005030
:1034D00072696E7420506175736564002045002028
:1034E0005A00205900204D393220580020453A001A
:1034F000205A3A0020593A00583A0020746F6F2041
:103500006C6F6E6720657874727573696F6E20706A
:10351000726576656E7465640A0020636F6C642062
:10352000657874727573696F6E2070726576656EFA
:103530007465640A0000002110422063308440A5B5
:1035400050C660E770088129914AA16BB18CC1AD6A
:10355000D1CEE1EFF13112100273325222B5529402
:1035600042F772D662399318837BB35AA3BDD39CBA
:10357000C3FFF3DEE36224433420040114E664C78E
:1035800074A44485546AA54BB528850995EEE5CF0A
:10359000F5ACC58DD55336722611163006D776F6A2
:1035A000669556B4465BB77AA719973887DFF7FE5A
:1035B000E79DD7BCC7C448E5588668A7784008612E
:1035C0001802282338CCC9EDD98EE9AFF9488969AA
:1035D000990AA92BB9F55AD44AB77A966A711A5042
:1035E0000A333A122AFDDBDCCBBFFB9EEB799B58FA
:1035F0008B3BBB1AABA66C877CE44CC55C222C03CE
:103600003C600C411CAEED8FFDECCDCDDD2AAD0B49
:10361000BD688D499D977EB66ED55EF44E133E32E1
:103620002E511E700E9FFFBEEFDDDFFCCF1BBF3A99
:10363000AF599F788F8891A981CAB1EBA10CD12D88
:10364000C14EF16FE18010A100C230E3200450258B
:103650004046706760B9839893FBA3DAB33DC31CFF
:10366000D37FE35EF3B1029012F322D232354214DB
:103670005277625672EAB5CBA5A89589856EF54F4B
:10368000E52CD50DC5E234C324A01481046674472B
:103690006424540544DBA7FAB79987B8975FE77E9F
:1036A000F71DC73CD7D326F2369106B0165766767B
:1036B00076154634564CD96DC90EF92FE9C899E9EB
:1036C000898AB9ABA94458654806782768C018E1CB
:1036D000088238A3287DCB5CDB3FEB1EFBF98BD83F
:1036E0009BBBAB9ABB754A545A376A167AF10AD01B
:1036F0001AB32A923A2EFD0FED6CDD4DCDAABD8B8B
:10370000ADE89DC98D267C076C645C454CA23C836A
:103710002CE01CC10C1FEF3EFF5DCF7CDF9BAFBADE
:10372000BFD98FF89F176E367E554E745E932EB2BA
:103730003ED10EF01E00002200250028002B002E96
:10374000003100340002010000050108010B0100F6
:10375000002100240027002A002D00300033000142
:10376000010000040107010A010505050507050818
:10377000080808020202020A0A08080404040401F4
:103780000101010101010103030303030303030416
:103790000707070C0C0C0C0C0C0C0C0202020206A6
:1037A000060606060606060B0B0B0B0B0B0B0B0196
:1037B0000210202008081020401020408002010242
:1037C000010804020101020408102040808040200A
:1037D0001008040201800402018040201008040245
:1037E00001080402010102040810204080010204C3
:1037F00008102040800004019E0111241FBECFEF5D
:10380000D1E2DEBFCDBF00E00CBF13E0A0E0B2E02C
:10381000E6E1F8E302E00BBF02C007900D92AC3383
:10382000B107D9F724E1ACE3B3E001C01D92A8359C
:10383000B207E1F71BE1CCEFDBE100E006C0219726
:103840000109802FFE010F947B1BCB3FD10780E045
:103850000807A9F70F9459050D94F91B0C94000063
:10386000FC0184910895FC0180810895AF92BF927C
:10387000CF92DF92EF92FF920F931F93CF93DF933C
:10388000EC015B018A01FB01199587FD16C0C82E6A
:10389000D12CF12CE12C2196F801C082D182E28258
:1038A000F382CE01DF91CF911F910F91FF90EF90A6
:1038B000DF90CF90BF90AF900895982F907E903C6E
:1038C000A9F48F7190E0B0E0A0E06C017D0156E0BA
:1038D000CC0CDD1CEE1CFF1C5A95D1F7CE010196D5
:1038E000F50119958F73C82A2296D6CF982F907F0D
:1038F000903E11F58F7090E0B0E0A0E06C017D018A
:1039000036E0CC0CDD1CEE1CFF1C3A95D1F7CE0145
:103910000196F50119958F73C82A46E0CC0CDD1C81
:10392000EE1CFF1C4A95D1F7CE010296F5011995C0
:103930008F73C82A2396B0CF982F987F903F79F540
:10394000877090E0B0E0A0E06C017D0186E0CC0CD7
:10395000DD1CEE1CFF1C8A95D1F7CE010196F50106
:1039600019958F73C82A96E0CC0CDD1CEE1CFF1C49
:103970009A95D1F7CE010296F50119958F73C82A51
:1039800026E0CC0CDD1CEE1CFF1C2A95D1F7CE01E5
:103990000396F50119958F73C82A24967DCF982F29
:1039A000907C903841F4807C803869F42196CE0177
:1039B000F5011995F8CF8E7F8D3F28F02196CE0125
:1039C000F5011995F8CFC12CD12C760165CFCF9395
:1039D000DF93DB01F9019C919130C1F0943080F0CC
:1039E00094509C938830D1F480819181009771F03C
:1039F000019791838083480F591FEA01188206C0FE
:103A00008C3539F49C5F9C93943041F4DF91CF91D5
:103A100008958B3339F781E08C93F8CF2081318181
:103A2000B9016F5F7F4F71836083420F531FEA01BB
:103A30008883808191818F3591056CF7E7CF0F9353
:103A40001F9381E000916E1110916F112091701100
:103A50003091711140916A1150916B1160916C110C
:103A600070916D11041715072607370708F480E0D9
:103A70001F910F910895282F9091FC03833021F41A
:103A800095FD0FC094FD0FC0892F90E0B0E0A0E03D
:103A900004C0B695A795979587952A95D2F781701A
:103AA000089581E0089580E008952F923F924F920B
:103AB0005F926F927F928F929F92AF92BF92CF92BE
:103AC000DF92EF92FF920F931F93CF93DF93CDB7C7
:103AD000DEB72E970FB6F894DEBF0FBECDBFF82E1F
:103AE000E62E042F122F282F30E03A872987862FC1
:103AF00090E09C878B87220F331FA985BA852A0FF8
:103B00003B1F3E872D87FC01E20FF31FEE0FFF1FC7
:103B1000EE0FFF1FED5BFA4F60817181828193810F
:103B20009B01AC010F94191B882309F440C1802F1D
:103B30008F0D612F6E0D282F30E0F901EE0FFF1F62
:103B4000E20FF31FAB85BC85AE0FBF1FAA0FBB1FD3
:103B5000AA0FBB1FAD5BBA4FAC901196BC901197EA
:103B60001296CC9012971396DC90080F802F90E05D
:103B7000AC01440F551F480F591FAB85BC85A40FDE
:103B8000B51FAA0FBB1FAA0FBB1FAD5BBA4FEC90AE
:103B90001196FC90119712960C91129713969C9087
:103BA000862F90E0AD85BE85A80FB91FAA0FBB1F59
:103BB000AA0FBB1FAD5BBA4F8C9011967C901197EA
:103BC00012966C90129713965C90610F70E02D85A1
:103BD0003E85260F371F220F331F220F331F2D5B09
:103BE0003A4F3E872D87D9014C9011963C90119702
:103BF00012961C91129713962C90E80FF91FEE0F56
:103C0000FF1FEE0FFF1FED5BFA4FB081B9832181DB
:103C10002A8332813B8383818C83FA01E60FF71F6D
:103C2000EE0FFF1FEE0FFF1FED5BFA4F90819D839C
:103C3000A181AE83B281BF83238128879701402F62
:103C4000592DB701802F992D0F94191B882321F02E
:103C5000E12CF12C00E0912C9501A601B501C601E3
:103C60000F94191B882319F05701C02ED92C242D2D
:103C7000332D412F522D642D732D812F922D0F94B2
:103C8000191B882321F0412C312C10E0212C282DE8
:103C9000372D462D552D682D772D862D952D0F947A
:103CA000191B882321F0842C732C612E522C2D811A
:103CB0003E814F8158856D817E818F8198850F94DB
:103CC000191B882321F01D821E821F8218862981DC
:103CD0003A814B815C8169817A818B819C810F94CF
:103CE000191B882341F03D8139838E818A839F810E
:103CF0009B83A885AC83E985FA85EE0FFF1F298594
:103D00003A85E20FF31F8B859C85E80FF91FEE0FB4
:103D1000FF1FEE0FFF1FED5BFA4FFA87E987950152
:103D2000A601B501C6010F9427189701402F592D00
:103D30000F9426186B017C01282D372D462D552D0B
:103D4000682D772D862D952D0F942718242D332D32
:103D5000412F522D0F9426189B01AC01C701B601CB
:103D60000F9427186B017C0129813A814B815C817A
:103D700069817A818B819C810F9427182D813E81E6
:103D80004F8158850F9426189B01AC01C701B601DD
:103D90000F94271820E030E040E450E40F942119FC
:103DA000A985BA856D937D938D939C9313972E96D9
:103DB0000FB6F894DEBF0FBECDBFDF91CF911F913C
:103DC0000F91FF90EF90DF90CF90BF90AF909F90BA
:103DD0008F907F906F905F904F903F902F900895BD
:103DE000A09A0895809A889808950C94AE9A0C949D
:103DF000AE9A0C94AE9A0C94AE9A0C94609A0C9471
:103E0000609A0C94609A0C94609A63E972E084E67C
:103E100090E00E9425BC6AEB72E084E690E00C948E
:103E200025BC81110C94051F68EB71E084E190E0E2
:103E30000C9425BC80915E02882341F06091FD04C2
:103E40007091FE0441E081E00C9449E608950E94DF
:103E50006E940C94111F0E94B1D20C94111F0E94F9
:103E6000FEB10C94051FEF92FF920F931F93CF9317
:103E7000DF9300D000D01F921F92CDB7DEB78E0126
:103E80000F5F1F4FD80130E020E0FB01E20FF31F6E
:103E9000E491ED932F5F3F4F28303105B1F78770E4
:103EA00028E0829FC001112480640E9451EC7801B7
:103EB00088E0E80EF11CF80161918F018DE390E13B
:103EC0000E94FBECE016F106B1F728960FB6F894C5
:103ED000DEBF0FBECDBFDF91CF911F910F91FF903D
:103EE000EF900895CF92DF92EF92FF920F931F937E
:103EF000CF93DF9300D000D0CDB7DEB78A0146E084
:103F0000469F9001479F300D1124BC01620F731F23
:103F100046E050E0CE0101960F94A610C980DA80E9
:103F2000EB80FC80F80140815181628173818FEFC9
:103F30009FEFC416D506E606F70640F081E090E054
:103F40004C155D056E057F0508F080E026960FB6DE
:103F5000F894DEBF0FBECDBFDF91CF911F910F91BF
:103F6000FF90EF90DF90CF9008950F931F93CF9322
:103F7000DF93CDB7DEB72E970FB6F894DEBF0FBE36
:103F8000CDBF8A011E861D866F83788789879A87B1
:103F90002FEF2B87603871058105910538F48DE38B
:103FA00090E10E94FBEC81E090E02FC09E01235F36
:103FB0003F4FAE01495F5F4F69EB70E08DE095E1E7
:103FC0000E942CD497FD2CC08D859E8526E0289FCD
:103FD000B001299F700D1124635F7A4E46E050E0D6
:103FE000CE0101960F94A6106D818DE390E10E94A1
:103FF000FBEC01301105B9F26E816623A1F28DE36D
:1040000090E10E94FBEC82E090E02E960FB6F894CF
:10401000DEBF0FBECDBFDF91CF911F910F910895ED
:104020009E01235F3F4FAE01495F5F4F63E670E043
:104030008BEB92E10E942CD497FD0BC08D859E8561
:1040400026E0289FB001299F700D112465547D4EF4
:10405000C5CF6FE3A4CF8091F1039091F203009755
:1040600031F04AE050E070E060E00D949A0F60E0BB
:1040700070E0CB0108958091F1039091F2030097D5
:1040800031F04AE050E070E060E00D946C0E60E0CA
:1040900070E0CB0108950E943B2097FD0CC00E9468
:1040A0003B206F3F71058105910509F034F40E94B2
:1040B0003B20862F089580E008958FEF089580912A
:1040C000F1039091F203892B41F00E944B2091E083
:1040D000811101C090E0892F089591E0FCCF0E94EA
:1040E0003B20CB010895CF92DF92EF92FF920F9386
:1040F0001F93CF93DF936B017A01EC01C45BDC4F1C
:1041000028813CE0389F8001399F100D112427FF42
:1041100024C0FB011182108288818F5F888388818F
:104120009801280F311D87FD3A95C9012091001093
:10413000F6012817190629F024F088818C300CF438
:104140003CC080819181049680349C4908F475C0FC
:10415000F60180819181049672C088819801280FB0
:10416000311D87FD3A95C9012091001028171906C5
:1041700099F294F28881A801480F511D87FD5A9544
:10418000FA01EE0FFF1FE40FF51FE854F04F808196
:1041900087FFC2CF8881F801E80FF11D87FDFA95EE
:1041A000CF01EE0FFF1FE80FF91FE854F04F808199
:1041B00060E08F770E9490EAAFCF80819181288163
:1041C000A801420F511D27FD5A959A01FA01EE0FE1
:1041D000FF1FE20FF31FE854F04F21813281820F5D
:1041E000931FF7019183808388819801280F311DE7
:1041F00087FD3A95F901EE0FFF1FE20FF31FE85418
:10420000F04F808187FF20C08881080F111D87FD36
:104210001A95F801EE0FFF1FE00FF11FE854F04F61
:10422000808161E08F77DF91CF911F910F91FF9097
:10423000EF90DF90CF900C9490EA80E49CE9F70136
:10424000918380838FEF8883DF91CF911F910F91AE
:10425000FF90EF90DF90CF900895CF93DF9300D041
:104260001F92CDB7DEB70F949A190F94841169830A
:104270007A838B839C83CE0101960E94CBB50F90ED
:104280000F900F900F90DF91CF9108958F929F9292
:10429000AF92BF92CF92DF92EF92FF92CF936B01DA
:1042A0007C0120E030E0A9010F947F1187FD9FC0C1
:1042B0006DEB77E386E095E3A70196010F9427184D
:1042C0006B017C0120E030E040E251E40F94E51105
:1042D00020E030E048EC52E40F94E5114B015C0122
:1042E00020E030E0A901C701B6010F947F1120E062
:1042F00030E040EA50E487FF04C020E030E040EACC
:1043000050ECC501B4010F94271820E030E040E2E2
:1043100051E40F9421190F9493196B017C018BE2E6
:10432000F7FE09C0F094E094D094C094C11CD11C55
:10433000E11CF11C8DE280937208C701B60120E1F7
:1043400037E240E050E00F94E5178AE0882E912C88
:10435000A12CB12CCA01B901A50194010F94E51754
:10436000605D60937308C701B60128EE33E040E05A
:1043700050E00F94E517CA01B901A50194010F940B
:10438000E517605D60937408C701B60124E630E06C
:1043900040E050E00F94E517CA01B901A50194016E
:1043A0000F94E517605D609375088EE28093760840
:1043B000C701B601A50194010F94E517C62FCA01E4
:1043C000B901A50194010F94E517605D609377082A
:1043D000C05DC093780882E798E0CF91FF90EF909E
:1043E000DF90CF90BF90AF909F908F9008956DEB2E
:1043F00077E386E095EB60CF8F929F92AF92BF926A
:10440000CF92DF92EF92FF926B017C0120E030E0CF
:10441000A9010F947F1187FD6BC06DEB77E386E0F8
:1044200095E3A70196010F9427186B017C0120E00A
:1044300030E040E251E40F94E51120E030E040E24A
:1044400051E40F94E5114B015C0120E030E0A9013B
:10445000C701B6010F947F1120E030E040EA50E43C
:1044600087FF04C020E030E040EA50ECC501B40111
:104470000F94271820E030E040E251E40F94211916
:104480000F9493199B018BE237FF05C02227332736
:10449000261B370B8DE280937408C90164E670E037
:1044A0000F94671BCB01EAE0F0E0BF010F94671B9C
:1044B000805D80937508C901BF010F94671B282F89
:1044C000CB01BF010F94671B805D809376088EE25D
:1044D00080937708205D2093780884E798E0FF9028
:1044E000EF90DF90CF90BF90AF909F908F90089506
:1044F0006DEB77E386E095EB94CF8F929F92AF922E
:10450000BF92CF92DF92EF92FF92CF936B017C012B
:1045100020E030E0A9010F947F1187FDAAC06DEB68
:1045200077E386E095E3A70196010F9427186B01C6
:104530007C0120E030E0A9010F947F1187FF9EC02D
:10454000C701B601905820E030E040E251E40F94FA
:10455000E51120E030E040E251E40F94E51120E065
:1045600030E040EA50E40F94271820E030E040E2C9
:1045700051E40F9421190F9493196B017C0180E28F
:104580008093720860E280E1C81687E2D806E104F1
:10459000F1048CF0C701B60120E137E240E050E0C1
:1045A0000F94E517CA01B9012AE030E040E050E07D
:1045B0000F94E517605D6093730860E288EEC8169B
:1045C00083E0D806E104F1048CF0C701B60128EEBF
:1045D00033E040E050E00F94E517CA01B9012AE04A
:1045E00030E040E050E00F94E517605D60937408A0
:1045F00060E284E6C816D104E104F1048CF0C7013E
:10460000B60124E630E040E050E00F94E517CA011F
:10461000B9012AE030E040E050E00F94E517605D1A
:10462000609375088AE0882E912CA12CB12CC701CB
:10463000B601A50194010F94E517C62FCA01B9016F
:10464000A50194010F94E517605D609376088EE2F2
:1046500080937708C05DC093780882E798E0CF9197
:10466000FF90EF90DF90CF90BF90AF909F908F9092
:1046700008956DEB77E386E095EB55CF20E030E0D1
:1046800040E251E4C701B60162CFCF92DF92EF92D0
:10469000FF92CF93DF9300D01F92CDB7DEB76B01AF
:1046A0007C0120E030E0A9010F947F1187FD1BC041
:1046B0006DEB77E386E095E3A70196010F94271849
:1046C00069837A838B839C83CE0101960E94CBB54C
:1046D0000F900F900F900F90DF91CF91FF90EF9080
:1046E000DF90CF9008956DEB77E386E095EBE4CF14
:1046F0008F929F92AF92BF92CF92DF92EF92FF92F2
:10470000CF936B017C0120E030E0A9010F947F1171
:1047100087FFA3C06DEB77E386E095EBA7019601D9
:104720000F9427186B017C0120E030E040E251E457
:104730000F94E51120E030E048EC52E40F94E511CD
:104740004B015C0120E030E040E251ECC701B601D2
:104750000F947F11181654F420E030E048EC52E436
:10476000C701B6010F94871A87FD8BC020E030E0A7
:10477000A901C701B6010F947F1187FF73C060E0E4
:1047800070E080EA90ECA50194010F94271820E0D6
:1047900030E040E251E40F9421190F9493196B011A
:1047A0007C01F7FC64C020E137E240E050E00F9468
:1047B000E517CA01B9012AE030E040E050E00F946B
:1047C000E517605D60937308C701B60128EE33E01A
:1047D00040E050E00F94E5179AE0892E912CA12C2F
:1047E000B12CCA01B901A50194010F94E517605DD0
:1047F00060937408C701B60124E630E040E050E061
:104800000F94E517CA01B901A50194010F94E517AA
:10481000605D609375088EE280937608C701B601EB
:10482000A50194010F94E517C62FCA01B901A5018E
:1048300094010F94E517605D60937708C05DC093A5
:10484000780883E798E0CF91FF90EF90DF90CF90CA
:10485000BF90AF909F908F9008956DEB77E386E0C7
:1048600095E35CCF60E070E080EA90E48CCFF09458
:10487000E094D094C094C11CD11CE11CF11C6DE2E9
:10488000A1CF20E030E0A901C701B6010F947F114C
:1048900087FF6AC060E070E080EA90ECA5019401B7
:1048A0000F94271820E030E040E251E40F942119E2
:1048B0000F9493194B015C0120E030E0A901C7017E
:1048C000B6010F94871A87FD0BC020E030E040E26C
:1048D00051E4C701B6010F947F1160E287FD13C058
:1048E000B7FC47C0C501B40128EE33E040E050E01A
:1048F0000F94E517CA01B9012AE030E040E050E02A
:104900000F94E517605D60937408C501B40124E657
:1049100030E040E050E00F94E5178AE0C82ED12C3B
:10492000E12CF12CCA01B901A70196010F94E517FA
:10493000605D609375088EE280937608C501B401CE
:10494000A70196010F94E517C62FCA01B901A70167
:1049500096010F94E517605D60937708C05DC09382
:10496000780884E798E06FCF60E070E080EA90E438
:1049700095CFB094A09490948094811C911CA11C1C
:10498000B11C6DE2C0CFCF92DF92EF92FF926B012C
:104990007C0120E030E0A9010F947F1187FD26C043
:1049A0006DEB77E386E095E3A70196010F94271856
:1049B0006B017C0120E030E0A9010F947F1120E021
:1049C00030E040E05FE387FF04C020E030E040E0FB
:1049D0005FEBC701B6010F9427180F949319CB0111
:1049E000FF90EF90DF90CF900C94F8B66DEB77E3EB
:1049F00086E095EBD9CF8091151090911610891B08
:104A00008F7051F48091AB08813031F08091721138
:104A100082FB882780F9089581E00895E091FC04E5
:104A2000E63010F581E08E0F8093FC044091800801
:104A300050918108609182087091830890917A0862
:104A400080917B0828E0E29FF0011124E453FB4FA2
:104A500020913B1030913C1031832083428353835B
:104A600064837583968387830895CF93DF93CDB74F
:104A7000DEB78E819091370F891768F08093370FDA
:104A80009E01275F3F4F4F81588568E270E08EE0BE
:104A90009FE00F944611DF91CF9108950F931F93DC
:104AA000CF93DF938C016F3F19F41092370F60E0C2
:104AB0002091370F862F062E000C990B2817190608
:104AC00009F0F4F46093370FC8010F94CC10800FF5
:104AD000911FEC01C01BD10BC932D1053CF00197ED
:104AE000FC012491207C2038D1F3F3CFDD27AE01E7
:104AF000B8018EE09FE00F94ED10C25FD04F188296
:104B0000DF91CF911F910F9108950F931F930E94F2
:104B10006CED0091BF041091C0042091C10430914C
:104B2000C204601B710B820B930B97FD0CC080912C
:104B300009018095881F8827881F919B82604A9B66
:104B400084608093BE048091BE0481709091BE0405
:104B500091FD82609091BD04981749F0813009F170
:104B600048F0823079F0833091F08093BD041F913A
:104B70000F910895913079F09230B9F79091BC047B
:104B800091500CC0992339F09330C1F3EECF91309E
:104B9000A9F3923051F79091BC049F5F9093BC04AD
:104BA000E4CF992359F3933001F7F5CFCF92DF92F9
:104BB000EF92FF92CF93C82F0E946CED6B017C01A6
:104BC00024EA30E74DE75FE3609118027091190223
:104BD00080911A0290911B020F947F1187FD18C0DB
:104BE0008AEF90E0A0E0B0E08C0D9D1DAE1DBF1DD2
:104BF0008093AC049093AD04A093AE04B093AF0443
:104C0000C0931602CF91FF90EF90DF90CF90089560
:104C100080E090E0DC01E8CFFC0180E094919923F2
:104C200031F0907C903809F08F5F3196F7CF08957E
:104C3000FC0180E09191992329F0907C9038D1F388
:104C40008F5FF8CF089562ED79E180E00E94331F15
:104C50006AEC79E181E00E94331F62EC79E182E045
:104C60000E94331F6AEB79E186E00E94331F62EBFA
:104C700079E187E00E94331F6AEA79E183E00E94CC
:104C8000331F62EA79E184E00E94331F6AE979E127
:104C900085E00C94331FCF93823069F4C4E0C15097
:104CA00068F088E0C89FB00111246D59764E8C2FB2
:104CB0000E94331FF4CFCF910C942326CF910895F7
:104CC0000F931F93522F20913B1030913C102817C7
:104CD000390779F190933C1080933B108B0130E0C1
:104CE00020E000938008109381082093820830937D
:104CF000830840937A0850937B08865D914421F4A1
:104D0000109200051092FC040E9457EC81E0209163
:104D10003B1030913C10265D314409F080E00E9448
:104D20004B2682E080935E0281E08093900810928F
:104D3000FF041F910F91089520E040E070E060E0D3
:104D400086ED91E40C946026E091FC04EE2389F05A
:104D5000E150E093FC0488E0E89FF0011124E45363
:104D6000FB4F6281738127814681808191810C9400
:104D700060260C949C26CF930E94FEB10E946E94F4
:104D8000C82F882319F080E00E9469CA8C2F0E94E6
:104D9000111FCF910C949C261092C30410925D02B7
:104DA000809172118064809372110E949DB560E0C1
:104DB00082E19AE10E944E250C949C264F925F92CC
:104DC0006F927F928F929F92AF92BF92CF92DF921B
:104DD000EF92FF920F931F93CF93DF9300D01F9218
:104DE000CDB7DEB70E946CED4B015C0180911602DD
:104DF0008F3FF1F10E946CEDC090AC04D090AD04F7
:104E0000E090AE04F090AF046C197D098E099F0903
:104E100097FD2EC080911510909116108F5F8F70A6
:104E2000891731F1E0911602E43008F05AC024E00D
:104E3000E29FF0011124E357FD4F80819181A2810F
:104E4000B38189839A83AB83BC83C12CD12C760137
:104E50008E010F5F1F4F25E732E041E752E06DE61C
:104E600072E089E692E00E94BCE28FEF8093160226
:104E70000E9485258091BE0482FF3CC08091BB04C6
:104E800081113AC091E09093BB048091C3048927BB
:104E9000809367081092C30483E080935E021092AF
:104EA000BE040E946CED6C507E4F8F4F9F4F6093FD
:104EB000BF047093C0048093C1049093C20468E857
:104EC00073E185E090E00E9425BC16E01150A1F04E
:104ED0000E948DB862E070E080E090E00E9409EDF1
:104EE000F5CF80915F0290916002A0916102B09134
:104EF0006202A7CF1092BB048091B7049091B804CE
:104F0000A091B904B091BA04A5019401281B390BF2
:104F10004A0B5B0BDA01C901B7FD87C1D501C4019A
:104F20008C599F4FAF4FBF4F8093B7049093B804F5
:104F3000A093B904B093BA046091BC04062E000C8F
:104F4000770B77FF03C07195619571099091BC044F
:104F50008091B604981399C0633008F096C01092FF
:104F6000BC048091BC048093B604643008F09DC0FA
:104F70008091670881111BC180913B1090913C107A
:104F8000865D914441F480911702882309F421C180
:104F90008150809317020E94BC9DC090DC08D09085
:104FA000DD08E090DE08F090DF0881110E94C99DC5
:104FB00020915E02222309F44BC0D701C6014AE0CA
:104FC000B695A795979587954A95D1F7009741E0B3
:104FD000A407B10520F08FEF9FEFA0E0B0E0969519
:104FE0008795009739F04091B0045091B10448176B
:104FF000590770F5223038F0243008F4FCC0243012
:1050000011F410925E02E0913B10F0913C10199562
:105010001092670880913B1090913C10865D9144FE
:10502000F9F40E946CEDDC01CB0188199909AA09F9
:10503000BB09C090B004D090B104F12CE12CC8168B
:10504000D906EA06FB0620F49093B1048093B004DD
:1050500080913B1090913C10865D914409F4CFC043
:10506000809100058111CBC08091B2049091B3046E
:10507000A091B404B091B504881A990AAA0ABB0A8F
:10508000B7FCCBC00E949C26C8C0633009F069CF32
:105090008091BC0487FD07C081E0880F880F809352
:1050A000BC0464E05ECF8FEFF8CF8091950821E0DB
:1050B00030E040E050E0882309F456C0C0909108E9
:1050C000D0909208E0909308F0909408C114D10415
:1050D000E104F104E9F170E090E080E00F948411C4
:1050E00020E030E040E85EE30F94E5112B013C0145
:1050F000C501B4016C197D098E099F090F948411B3
:105100009B01AC01C301B2010F94211920E030E0F2
:105110004AE754E40F94E5116B017C0120E030E094
:1051200040EA52E40F94871A24E630E040E050E071
:1051300087FF12C020E030E040EF51E4C701B60124
:105140000F94871A2AE030E040E050E087FF04C067
:1051500021E030E040E050E0809291089092920887
:10516000A0929308B0929408A091BC040A2E000C5F
:10517000BB0B0F940F1824E030E040E050E00F9498
:10518000E5178091800890918108A0918208B091E4
:105190008308820F931FA41FB51F809380089093EC
:1051A0008108A0938208B09383081092BC04D501B3
:1051B000C4018856954CAF4FBF4F8093B204909373
:1051C000B304A093B404B093B50481E080935E026D
:1051D000D3CE89E0809317028091B0049091B104FE
:1051E000009729F001979093B1048093B00481E077
:1051F00080935E02D0CE81E080935E0204CF38E9D6
:10520000830E3AE3931EA11CB11C8092B2049092CB
:10521000B304A092B404B092B50480915E028130D0
:10522000C9F0833011F40E9457EC0F900F900F904B
:105230000F90DF91CF911F910F91FF90EF90DF9032
:10524000CF90BF90AF909F908F907F906F905F9026
:105250004F90089510925E02E8CF80936E0820E090
:1052600040E070E060E08FE79CE20C946026CF9312
:105270008091C404811109C084E29AE19093FE04F4
:105280008093FD0481E08093C4040E940E2520E0F9
:1052900040E070E060E08AE19FE10E946026C1E0AA
:1052A000C09300050E94D29A109200050E94A42685
:1052B000C093000560E08FEC94E30E944E2580E2ED
:1052C0009AE19093E2068093E106CF91089564E01D
:1052D00084E10E945FEC81E020913B1030913C1012
:1052E000265D314409F080E00E944B260C9457EC77
:1052F0000E946729EAE0F1E080818F7780838091C6
:105300000B0180958078809309019998A19A529811
:105310005A9A0E9485251092BC0408954FEF5FEFC2
:105320000C94B51FAF92BF92CF92DF92EF92FF9293
:105330000F931F93CF93DF9300D01F92CDB7DEB7AB
:105340006C015B017A0110E000E00E151F05E8F426
:1053500019821A821B821C82AE014F5F5F4FB5011A
:10536000C6010E94361C6C0169817A818B819C8107
:10537000611571058105910541F0A701401B510B95
:105380000E94B51F080F191FE0CFC8010F900F90A2
:105390000F900F90DF91CF911F910F91FF90EF90A1
:1053A000DF90CF90BF90AF900895CF92DF92EF92B1
:1053B000FF920F931F93CF93DF9300D01F92CDB72F
:1053C000DEB77C01062F6A01122F11160CF03EC0C9
:1053D000AE014F5F5F4F60E37CE1C7010E94361C66
:1053E0007C0169817A818B819C81611571058105C0
:1053F000910561F16D3371058105910509F44BC08B
:105400006E3771058105910509F445C06A32710551
:105410008105910549F507FF10C08EED99E10E3F1A
:1054200011F08AED99E1412F012E000C550B60E33C
:105430007CE10E949229181B5EC065E470E080E068
:1054400090E00E948E29115041F510E0812F0F90BD
:105450000F900F900F90DF91CF911F910F91FF90C0
:10546000EF90DF90CF90089564327105810591052A
:1054700071F4C114D10459F0412F012E000C550BC9
:1054800060E37CE1C6010E949229181B9ECF0E9416
:105490008E2911509ACF07FDC0CF61E089819A8192
:1054A000AB81BC81CD97A105B10509F460E0600F27
:1054B0006A30ACF01150862F6AE00F94451B092F1B
:1054C000682F880F770B605D7F4F072E000C880BCD
:1054D000990B0E948E29112309F4B7CF602F062E55
:1054E000000C770B605D7F4F072E000C880B990B2B
:1054F0000E948E291150112309F4A7CF412F012EAC
:10550000000C550B60E37CE1C7010E949229181B37
:105510009DCF4FEF5FEF63E37CE10C9492294FEF57
:105520005FEF60E37CE10C949229643008F063E063
:1055300090915010691710F06FEF690FE62FF0E0AF
:10554000E35CFF4E9489890F80680C9451ECFC0158
:10555000A081B1811C92A281B3818C918F5F8C93C9
:105560000280F381E02D608180E00C94952A4F92B7
:105570005F926F927F928F929F92BF92CF92DF92B3
:10558000EF92FF920F931F93CF93DF9300D000D041
:105590001F921F92CDB7DEB77C013B016A01490122
:1055A000FB016081FC0180810E94952AC114D10415
:1055B00071F1FA82E9827C826B82011121C0AE0115
:1055C0004B5F5F4FB401C6010E94361C6C016D81B8
:1055D0007E818F8198856115710581059105B9F0EE
:1055E0000E948E29F70180818F5F8083843138F398
:1055F000CE0101960E94A72AE2CFB12C860129C0D4
:105600008601B12C26C0452846284728B1F72896A0
:105610000FB6F894DEBF0FBECDBFDF91CF911F91C3
:105620000F91FF90EF90DF90CF90BF909F908F9061
:105630007F906F905F904F900895B39407C0B11022
:105640002EC001151105C9F20F5F1F4F011511057D
:10565000A9F2AE014B5F5F4FB401C6010E94361C38
:105660006C014D805E806F80788441145104610428
:105670007104A9F0F0E24F16510461047104F9F2CB
:10568000D301C2018D97A109B1090297A105B10506
:1056900030F04BE2441651046104710471F6F701D5
:1056A0008081482F4B0D5527551F4531510534F04A
:1056B000853020F0CE0101960E94A72A81E0411496
:1056C00051046104710409F480E0B80EF70180818F
:1056D0008B0D8083BB2009F496CFBA94AE014B5F4B
:1056E0005F4FB401C8010E94361C8C016D817E8120
:1056F0008F8198850E948E29EDCF2F923F924F92F5
:105700005F926F927F928F929F92AF92BF92CF9251
:10571000DF92EF92FF920F931F93CF93DF9300D00E
:10572000CDB7DEB74C013B015A01222E3B83280145
:10573000409180085091810860918208709183089F
:10574000411551056105710579F081E014161506C2
:105750000CF080E08093FF04109280081092810882
:1057600010928208109283081091FF04309067080D
:1057700010926708311005C080915E02882309F4F9
:10578000A5C0C2010E940C26082F80E0C114D104DC
:1057900019F0C6010E940C261A821982E114F10444
:1057A000B1F4402F50E0282F30E0CA01820F931F40
:1057B00045976CF484E190E0841B950B821B930B5E
:1057C00097FD0196959587958A8381E0898301E00D
:1057D00020E33CE1A201BE016F5F7F4FCE01029644
:1057E0000E94B72AE114F10491F08A81882321F004
:1057F0001A8289818F5F898300E023E33CE1A7015E
:10580000BE016F5F7F4FCE0102960E94B72AC1147E
:10581000D10459F000E020E33CE1A601BE016F5F36
:105820007F4FCE0102960E94B72A63E080E00E947B
:10583000952A6BE570E080E090E0112321F060E2B2
:1058400070E080E090E00E948E29C3010E948F2AC0
:105850006DE570E080E090E0112321F060E270E0FF
:1058600080E090E00E948E29C4010E940C2663E033
:1058700092E1981B892F0E94952A60E270E080E0F7
:1058800090E0112321F06BE570E080E090E00E9451
:105890008E29C4010E948F2A60E270E080E090E0CF
:1058A000112321F06DE570E080E090E00E948E29E8
:1058B000332049F0111102C0A22CBB80A114B10405
:1058C000D9F0F501199581E0809300050F900F90B4
:1058D0000F90DF91CF911F910F91FF90EF90DF908C
:1058E000CF90BF90AF909F908F907F906F905F9080
:1058F0004F903F902F9008950E94A426E4CFAF923E
:10590000BF92CF92DF92EF92FF920F931F93CF93AC
:10591000DF93CDB7DEB7ADB6BEB68BE79AE10E9496
:105920000C2690E001962DB73EB7281B390B0FB619
:10593000F8943EBF0FBE2DBF8DB79EB701967C0178
:105940006BE77AE10F94C51080916E0808E41AE1C4
:10595000813031F003E31AE1823011F00BE51AE1F6
:105960008CE6C82E8AE1D82E2CE936E24BEB56E2C3
:105970006EE67AE185E79AE10E947D2B0FB6F894F6
:10598000BEBE0FBEADBEDF91CF911F910F91FF90B4
:10599000EF90DF90CF90BF90AF900895CF92DF92BD
:1059A000EF92FF9269017A010E94952AC701B60120
:1059B000FF90EF90DF90CF900C948E29CF92DF92E2
:1059C000FF920F931F93CF93DF938C01EB01C09055
:1059D0009708D0909808F090960861E080E00E94C7
:1059E000952A23E1A6016F2DC8010E94D529182F01
:1059F000209711F16AE370E080E090E00E948E2928
:105A0000CE010E9418268F5F115061E0181708F42C
:105A100062E020E230E040E050E094E1981B892F02
:105A20000E94CE2CCE01DF91CF911F910F91FF905C
:105A3000DF90CF900C94892ADF91CF911F910F9125
:105A4000FF90DF90CF9008950F931F93CF93DF9334
:105A5000FC01EB018091800890918108A09182085F
:105A6000B0918308B7FF08C0109280081092810897
:105A70001092820810928308809184089091850882
:105A8000A0918608B09187084091800850918108C4
:105A9000609182087091830884179507A607B7075D
:105AA00044F48093800890938108A0938208B09377
:105AB000830880915E028823E1F0609180087091F4
:105AC0008108809182089091830800918808109144
:105AD000890820918A0830918B08600F711F821FFE
