:100000000C94D21B0C94121C0C94121C0C94121CF9
:100010000C94121C0C94121C0C94121C0C94121CA8
:100020000C94121C0C94121C0C94121C0C94121C98
:100030000C94121C0D94D1040C94121C0C94121CE0
:100040000C94121C0C94DEA80C94121C0C94121C20
:100050000C94121C0C943BA30C94121C0D9487045A
:100060000C94121C0C94A55B0C949B5B0C94121CBE
:100070000C94121C0C94121C0C94121C0C94121C48
:100080000C94B44E0C94121C0C94121C0C94121C64
:100090000C94121C0C94121C0C94121C0C94121C28
:1000A0000C94121C0C94121C0C94864E0C94121C72
:1000B0000C94121C0C94121C0C94121C0C94121C08
:1000C0000C94121C0C94121C0C94121C0C94121CF8
:1000D0000C94121C0C94121C0C94121C0C94121CE8
:1000E0000C94121C084AD73B3BCE016E84BCBFFD6A
:1000F000C12F3D6C74319ABD56833DDA3D00C77FF8
:1001000011BED9E4BB4C3E916BAAAABE0000008090
:100110003F05A84CCDB2D44EB93836A9020C50B91F
:10012000918688083CA6AAAA2ABE000000803F004B
:100130000D947C030D9484030D94BB030D949B03D9
:100140000D94B1030D9495030D9480030D949F03BA
:100150000D94A9030D9425110D946A030D94AD031C
:100160000D9488030D9465030D9491030D94A303DE
:100170000D948B030D94B7030D94A01A4E414E4974
:100180004E495459494E46CDCCCC3D0AD7233C1755
:10019000B7D13877CC2B329595E6241FB14F0A00A2
:1001A0000020410000C84200401C4620BCBE4CCA92
:1001B0001B0E5AAEC59D7400407A10F35A00A0720F
:1001C0004E18090010A5D4E80000E8764817000092
:1001D000E40B54020000CA9A3B000000E1F5050060
:1001E0000080969800000040420F000000A08601A9
:1001F000000000102700000000E803000000006479
:1002000000000000000A00000000000100000000E3
:10021000002C76D888DC674F0823DFC1DFAE59E1B8
:10022000B1B796E5E3E453C63AE651997696E8E627
:10023000C28426EB898C9B62ED407C6FFCEFBC9CFA
:100240009F40F2BAA56FA5F490055A2AF75C936B0C
:100250006CF9676DC11BFCE0E40D47FEF520E6B5C7
:1002600000D0ED902E0300943577050080841E08A1
:100270000000204E0A000000C80C333333330F98BF
:100280006E12831141EF8D2114893BE65516CFFE86
:10029000E6DB18D1844B381BF77C1D901DA4BBE412
:1002A00024203284725E228100C9F124ECA1E53D54
:1002B00027434F4D4D554E49434154494F4E0044FD
:1002C000525952554E004552524F525300494E46D4
:1002D0004F004543484F0053544F505045442E2043
:1002E000005072696E7465722073746F707065640B
:1002F0002064756520746F206572726F72732E2092
:1003000046697820746865206572726F7220616E2C
:100310006420757365204D39393920746F207265FA
:1003200073746172742E202854656D7065726174E7
:100330007572652069732072657365742E2053652C
:1003400074206974206166746572207265737461CB
:100350007274696E67290A004E6F20436865636B8B
:1003600073756D2077697468206C696E65206E7591
:100370006D6265722C204C617374204C696E653A15
:1003800020004E6F20436865636B73756D2077693D
:100390007468206C696E65206E756D6265722C20C4
:1003A0004C617374204C696E653A20006368656324
:1003B0006B73756D206D69736D617463682C204C6F
:1003C000617374204C696E653A20004C696E65203B
:1003D0004E756D626572206973206E6F74204C617A
:1003E0007374204C696E65204E756D6265722B3199
:1003F0002C204C617374204C696E653A20004D319D
:1004000031300053657269616C2073746174757367
:10041000206D69736D617463680A005344207265CE
:100420006164206572726F720A00746F6F206D755F
:10043000636820696E6163746976652074696D65AF
:10044000202D2063757272656E7420636F6D6D610F
:100450006E643A20002121204B494C4C2063617589
:100460007365642062792000627573793A20706147
:100470007573656420666F7220696E7075740A000A
:10048000627573793A2070617573656420666F7266
:1004900020757365720A00627573793A2070726F05
:1004A00063657373696E670A004D65646961205204
:1004B000656D6F766564004D6564696120496E7392
:1004C000657274656400506C656173652052657374
:1004D0006574005052494E5445522048414C544591
:1004E000440025533A202553004B494C4C45442E9B
:1004F00020005072696E7465722068616C74656466
:100500002E206B696C6C28292063616C6C656421FA
:100510000A00006563686F3A004572726F723A00B4
:100520004F4646004F4E000A0A426564204C6576ED
:10053000656C20436F7272656374696F6E204D61E4
:10054000747269783A000A436F7272656374656405
:1005500020426564204865696768742076732E20A0
:1005600042656420546F706F6C6F67793A0A000AB5
:100570004265642048656967687420546F706F67CE
:1005800072617068793A0A2020202B2D2D2D20428F
:1005900041434B202D2D2B0A2020207C2020202081
:1005A000202020202020207C0A204C207C2020207D
:1005B00020282B29202020207C20520A2045207C26
:1005C00020202020202020202020207C20490A20BC
:1005D00046207C20282D29204E20282B29207C20D5
:1005E000470A2054207C202020202020202020206A
:1005F000207C20480A2020207C20202020282D2913
:10060000202020207C20540A2020207C2020202014
:10061000202020202020207C0A2020204F2D2D204B
:1006200046524F4E54202D2D2B0A2028302C302995
:100630000A000A4D65616E206F662073616D706CF3
:10064000656420706F696E74733A200020643A20EC
:100650000020623A200045716E20636F656666690E
:100660006369656E74733A20613A200050726F625C
:10067000696E6720506F696E740025532025692FBD
:100680002569002E0A002F0050726F62696E672084
:100690006D65736820706F696E7420002028445265
:1006A0005952554E2900473239204175746F204206
:1006B0006564204C6576656C696E67003F20284C48
:1006C0002C522C462C4229206F7574206F662062B4
:1006D0006F756E64732E0A003F50726F62652070F2
:1006E0006F696E74732028592920696D706C61756B
:1006F0007369626C652028322D33292E0A003F5021
:10070000726F626520706F696E747320285829209B
:10071000696D706C61757369626C652028322D3368
:10072000292E0A003F2856296572626F7365206C76
:100730006576656C20696D706C61757369626C6556
:100740002028302D34292E0A0044657669617469A9
:100750006F6E0025533A2025730046696E697368F1
:100760006564210A003A207A3A2000206F66200052
:10077000476F696E6720746F3A20580043570A002C
:10078000206469723A0020616E676C653A005374A8
:10079000617274207261646975733A004D34382057
:1007A000506F696E740025533A2025642F2564002C
:1007B000506F736974696F6E696E67207468652025
:1007C00070726F62652E2E2E0A003F4C6567732093
:1007D0006F66206D6F76656D656E7420696D706CE7
:1007E00061757369626C652028302D3135292E0AB8
:1007F000003F2028582C5929206F7574206F6620DF
:10080000626F756E64732E0A0050726F6265206F9E
:100810007574206F6620626F756E6473003F53615C
:100820006D706C652073697A65206E6F7420706CD2
:1008300061757369626C652028342D3530292E0A64
:10084000004D3438205A2D50726F62652052657009
:100850006561746162696C69747920546573740AA6
:10086000003F2856296572626F7365206C65766556
:100870006C20696D706C61757369626C65202830DD
:100880002D34292E0A005374616E64617264204411
:100890006576696174696F6E3A20002052616E67F7
:1008A000653A2000204D61783A2000204D696E3A6B
:1008B0002000205369676D613A20004D65616E3AF2
:1008C0002000203B2058590A0020204D3835322086
:1008D0004900536B657720466163746F7200204452
:1008E0000020204D323030205300202844697361AD
:1008F000626C6564293A0046696C616D656E7420AE
:1009000073657474696E67730020204D3230312036
:1009100058004D617820416363656C65726174694C
:100920006F6E2028756E6974732F73322900202032
:100930004D3230332058004D617820666565647211
:10094000617465732028756E6974732F7329002094
:10095000520020204D323034205000416363656CDA
:1009600065726174696F6E2028756E6974732F7378
:1009700032292028503C7072696E742D6163636562
:100980006C3E20523C726574726163742D616363C6
:10099000656C3E20543C74726176656C2D616363B6
:1009A000656C3E2900204A0020540020530020207E
:1009B0004D323035204200416476616E63656420BB
:1009C00028423C6D696E5F7365676D656E745F7418
:1009D000696D655F75733E20533C6D696E5F66653A
:1009E0006564726174653E20543C6D696E5F74721B
:1009F0006176656C5F66656564726174653E204A08
:100A00003C6A756E635F6465763E29002044002071
:100A1000490020204D333031205000486F74656EFE
:100A200064205049440020496E76616C69642065F9
:100A300078747275646572200020746F6F206C6F1B
:100A40006E6720657874727573696F6E2070726559
:100A500076656E7465640A0020636F6C6420657847
:100A600074727573696F6E2070726576656E7465E9
:100A7000640A00536C6565702E2E2E005A20507249
:100A80006F62652050617374204265640A005A20C9
:100A900050726F6265205061737420426564004734
:100AA00032384C3000205A3A200020593A20004277
:100AB000656420583A2000436C69636B20746F2092
:100AC000526573756D652E2E2E004E6F204D6F761C
:100AD000652E00456E642066696C65206C697374D0
:100AE0000A00426567696E2066696C65206C6973EF
:100AF000740A004E6F206D656469610A00286E6F8C
:100B00002066696C65290043757272656E74206693
:100B1000696C653A20005344207072696E74696E86
:100B200067206279746520004E6F742053442070F2
:100B300072696E74696E670A002E0A0044656C65FE
:100B400074696F6E206661696C65642C2046696CFF
:100B5000653A200046696C652064656C657465645F
:100B60003A002569730025696D20256973002569A0
:100B7000682025696D202569730025696420256931
:100B8000682025696D20256973002569792025690C
:100B900064202569682025696D20256973005072DD
:100BA000696E742074696D653A20006F6B006F6622
:100BB0006600D202CD02C602BF02B10244454255D0
:100BC000473A004D3131322053687574646F776E47
:100BD000004D3131332053004765656574656368A6
:100BE0002069332050726F2042204F46462E00432A
:100BF0004F4E4649475F4558504F5254004D45416E
:100C0000545041434B00434F4F4C45525F54454D68
:100C10005045524154555245004348414D4245527A
:100C20005F54454D50455241545552450042414252
:100C3000595354455050494E470041524353004D7B
:100C40004F54494F4E5F4D4F444553005448455211
:100C50004D414C5F50524F54454354494F4E00450F
:100C60005854454E4445445F4D323000435553542B
:100C70004F4D5F4649524D574152455F55504C4F7D
:100C80004144004C464E5F5752495445004C4F4E2C
:100C9000475F46494C454E414D45004155544F52E2
:100CA00045504F52545F53445F5354415455530081
:100CB00053445F57524954450052455045415400F2
:100CC0004D554C54495F564F4C554D450053444388
:100CD0004152440050524F4D50545F535550504F65
:100CE000525400484F53545F414354494F4E5F4361
:100CF0004F4D4D414E445300454D455247454E439F
:100D0000595F50415253455200434153455F4C494E
:100D10004748545F4252494748544E455353005444
:100D20004F47474C455F4C494748545300534F4643
:100D300054574152455F504F574552004255494C18
:100D4000445F50455243454E54004C4556454C492E
:100D50004E475F44415441005A5F50524F42450054
:100D600052554E4F5554004155544F4C4556454CE5
:100D7000005052494E545F4A4F420050524F475222
:100D8000455353004155544F5245504F52545F54B0
:100D9000454D50004155544F5245504F52545F50AD
:100DA0004F5300564F4C554D45545249430045450D
:100DB00050524F4D0042494E4152595F46494C45B1
:100DC0005F5452414E534645520053455249414C9F
:100DD0005F584F4E5F584F4646004649524D574167
:100DE00052455F4E414D453A4D61726C696E2032FD
:100DF0002E312E3120284175672033312032303298
:100E0000322032323A30343A30322920534F555260
:100E100043455F434F44455F55524C3A6769746898
:100E200075622E636F6D2F4D61726C696E466972CB
:100E30006D776172652F4D61726C696E2050524FF3
:100E4000544F434F4C5F56455253494F4E3A312E03
:100E500030204D414348494E455F545950453A472B
:100E6000656565746563682069332050726F204240
:100E70002045585452554445525F434F554E543ABD
:100E80003120555549443A63656465326132662DB7
:100E9000343161322D343734382D396231322D639B
:100EA00035356336326633363766660A002F2F00D3
:100EB0004D31343520533C696E6465783E206F7542
:100EC00074206F662072616E67652028302D31298D
:100ED0000A003F4A206F7574206F662072616E674A
:100EE000652028302E303120746F20302E33290AAF
:100EF000002058003B200020204D61783A2000203F
:100F00000020204D696E3A2000203B200020204D1B
:100F100032313120530046523A0020466C6F773A06
:100F200020003A200020536572766F2000206F75F4
:100F300074206F662072616E67650A005365727671
:100F40006F200064697300656E0043290A006162C6
:100F50006C656420286D696E2074656D7020004397
:100F60006F6C642065787472756465732061726556
:100F70002000426564204C6576656C696E672000D0
:100F80004661696C656420746F20656E61626C6592
:100F900020426564204C6576656C696E670A004284
:100FA0006564204C6576656C20436F72726563746E
:100FB000696F6E204D61747269783A004F6666738E
:100FC000657473204170706C696564004572723A93
:100FD00020546F6F206661722100546F6F2066612C
:100FE000722066726F6D207265666572656E6365EC
:100FF00020706F696E740A00454550524F4D204F66
:101000004B0A00290A0020746F20003F5A206F7598
:1010100074206F662072616E6765202800290A00BF
:1010200020746F20003F59206F7574206F66207206
:10103000616E676520282D00290A0020746F20004A
:101040003F58206F7574206F662072616E6765204F
:10105000282D006D696E5F736B65775F66616374E1
:101060006F723A20202D31206D61785F736B657748
:101070005F666163746F723A2020310A004D383424
:1010800000446F6E65207072696E74696E672066C9
:10109000696C650A004D3737004D333100496E7673
:1010A000616C69642065787472756465720A0020E9
:1010B000204D323036205800486F6D65206F6666CF
:1010C000736574004361703A0047322F47332062E2
:1010D000616420706172616D65746572730A0020CD
:1010E0003B0020204D3835312058005A2D50726F6A
:1010F0006265204F66667365740020573A00436F3F
:101100006F6C696E672E2E2E00453120255300200E
:10111000573A0042656420436F6F6C696E672E2EEC
:101120002E004265642048656174696E672E2E2E1C
:1011300000206661696C65642120426164206865F5
:10114000617465722069640A0050494420417574D5
:101150006F74756E650023646566696E652044452D
:101160004641554C545F004B6420004B6920004BB6
:101170007020002066696E6973686564212050756F
:101180007420746865206C617374204B702C204B44
:101190006920616E64204B6420636F6E7374616EAE
:1011A00074732066726F6D2062656C6F7720696E54
:1011B000746F20436F6E66696775726174696F6ED4
:1011C0002E680A00504944204175746F74756E652D
:1011D00000206661696C6564212074696D656F75B6
:1011E000740A00504944204175746F74756E65002F
:1011F000206661696C6564212054656D706572615B
:101200007475726520746F6F20686967680A005092
:101210004944204175746F74756E650050494420CF
:101220004379636C65730025532025692F25690078
:10123000204B643A2000204B693A2000204B703A42
:10124000200020436C617373696320504944200A75
:10125000002054753A2000204B753A2000206D6123
:10126000783A2000206D696E3A200020643A200010
:1012700020626961733A200048656174696E672E67
:101280002E2E002073746172740A0050494420416C
:1012900075746F74756E6500206661696C65642194
:1012A0002054656D706572617475726520746F6F1E
:1012B00020686967680A00504944204175746F745A
:1012C000756E6500504944204175746F74756E6584
:1012D000004572723A207574663820666F6E74200D
:1012E0006E6F7420696E697469616C697A65642EC9
:1012F000004572723A207574663820666F6E7420ED
:101300006E6F7420696E697469616C697A65642EA8
:10131000004572723A207574663820666F6E7420CC
:101320006E6F7420696E697469616C697A65642E88
:10133000002568753A2530326875002530326875A9
:101340003A253032687500253032687527253032ED
:10135000687500256875642025303268753A253037
:101360003268750042656400456E636C6F73757218
:101370006500202020202020200020202020006543
:101380007272001FE020102010201010201020206A
:1013900010201030300840048003001FE03FF03F71
:1013A000F03FF01FE01FE03FF03FF03FF00FC007BD
:1013B0008003003FFFF038007030FC3020FC10202C
:1013C00078102030102C00D02E31D02F7BD02F7BE6
:1013D000D02E31D02C00D020301020781020FC10DE
:1013E00030FC303800703FFFF03FFFF038007031C4
:1013F00086302387102787902F87D02F03D0203067
:10140000102078102078102030102F03D02F87D094
:101410002787902387103186303800703FFFF01FF8
:10142000FFF81FFFF80410400208200208200410F3
:101430004008208010410010410008208004104026
:101440000000001FFFF81FFFF85072696E74204102
:10145000626F72746564004D323500506175736956
:101460006E672E2E2E004D323400454550524F4DA2
:101470002056657273696F6E204572726F720045F7
:101480004550524F4D20496E646578204572726F09
:101490007200454550524F4D2043524320457272D1
:1014A0006F72003F0049676E6F7265005265736529
:1014B0007400496E697469616C697A6520454550AC
:1014C000524F4D0046696C2E204469612E00452024
:1014D000696E206D6D5E33002008204661637400E4
:1014E0002008204D6178002008204D696E004F666D
:1014F00066004F6E004175746F74656D70004D69C4
:101500006E2054726176656C205370656564004D81
:10151000696E2056656C6F63697479004D6178203F
:1015200040205370656564004D617820452041631B
:1015300063656C004D6178204020416363656C00F9
:1015400054726176656C20416363656C005265740A
:101550007261637420416363656C00416363656C11
:101560000050726F6265205A204F66667365740082
:1015700050726F62652059204F6666736574005023
:10158000726F62652058204F666673657400402054
:1015900073746570732F6D6D00416476616E636561
:1015A000642053657474696E6773003F0043616E15
:1015B00063656C00496E6974004D34323800496EC1
:1015C000697469616C697A6520454550524F4D00D8
:1015D00046696C616D656E740054656D706572610D
:1015E000747572650053746570732F6D6D00507261
:1015F0006F6265204F666673657473004A756E632B
:1016000074696F6E2044657600416363656C657232
:101610006174696F6E004D61782053706565642058
:10162000286D6D2F73290053657420486F6D6520F8
:101630004F66667365747300436F6E666967757293
:101640006174696F6E00000C0F00FE07022503BB7A
:10165000017FFE08FE08FE05080806000040F0C8ED
:101660008888987810050808060000C0F8888888DF
:101670008888F80505050600012030F830200508A7
:10168000080600002070F820202020E00509090647
:1016900000FF2070A8A8B8888870200705050700FB
:1016A00001D86C366CD80509090600FFF8A88888AF
:1016B000888888A8F8050A0A0600FE205050505075
:1016C00088A8A8887003030306000340A040FFFF1A
:1016D000FFFFFFFFFFFFFFFFFFFFFFFFFFFFFFFF1A
:1016E000FFFFFFFF0000000605FF010707060200DD
:1016F00080808080800080030303060105A0A0A0F5
:1017000005060606000050F85050F8500509090675
:1017100000FF2070A8A07028A87020050707060009
:1017200000C8C8102040989805070706000040A090
:10173000A040A89068010303060205808080030989
:10174000090601FF204040808080404020030909B5
:101750000601FF804040202020404080050707060A
:10176000000020A8702070A82005050506000120B3
:1017700020F820200203030601FFC040800501017C
:10178000060003F8020202060100C0C005070706B2
:101790000000081010204040800507070600007078
:1017A0008898A8C8887003070706010040C0404019
:1017B0004040E0050707060000708808102040F848
:1017C000050707060000F8081030088870050707AD
:1017D00006000010305090F81010050707060000B2
:1017E000F880F00808887005070706000030408080
:1017F000F0888870050707060000F8081010202000
:101800002005070706000070888870888870050723
:101810000706000070888878081060020505060138
:1018200000C0C000C0C00206060601FFC0C000C064
:101830004080030505060101204080402005030388
:10184000060002F800F8030505060101804020406B
:10185000800507070600007088102020002005077B
:10186000070600007088B8A8B88070050707060052
:1018700000708888F8888888050707060000F04807
:1018800048704848F005070706000070888080808F
:101890008870050707060000F04848484848F005EA
:1018A0000707060000F88080F08080F8050707062B
:1018B0000000F88080F08080800507070600007037
:1018C000888080988870050707060000888888F857
:1018D000888888030707060100E04040404040E058
:1018E0000507070600003810101010906005070764
:1018F0000600008890A0C0A0908805070706000099
:10190000808080808080F805070706000088D8A8BE
:10191000888888880507070600008888C8A89888EE
:101920008805070706000070888888888870050782
:1019300007060000F08888F0808080050707060011
:101940000070888888A89068050707060000F0885E
:1019500088F0A0908805070706000070888070084E
:101960008870050707060000F820202020202005A9
:10197000070706000088888888888870050707069A
:1019800000008888888850502005070706000088D6
:10199000888888A8A8500507070600008888502076
:1019A00050888805070706000088885020202020DE
:1019B000050707060000F80810204080F803090911
:1019C0000601FFE080808080808080E005070706B8
:1019D0000000804040201010080309090601FFE0C4
:1019E00020202020202020E00503030600052050B1
:1019F000880501010600FEF8030303060105804087
:101A00002005050506000070087888780507070698
:101A100000008080F0888888F005050506000070C9
:101A20008080887005070706000008087888888885
:101A3000780505050600007088F080700507070628
:101A40000000304840E04040400507070600FE70B7
:101A50008888887808700507070600008080F0886D
:101A60008888880307070601004000C0404040E026
:101A70000409090601FE10003010101010906005D6
:101A8000070706000080808890E09088030707061B
:101A90000100C04040404040E0050505060000D080
:101AA000A8A8A8A8050505060000B0C8888888056C
:101AB000050506000070888888700507070600FE87
:101AC000F0888888F080800507070600FE788888FF
:101AD00088780808050505060000B0C880808005E4
:101AE000050506000078807008F00507070600006D
:101AF0002020F82020201805050506000088888889
:101B000098680505050600008888885020050505A9
:101B10000600008888A8A850050505060000885022
:101B20002050880507070600FE88888850204080DE
:101B3000050505060000F8102040F8030909060114
:101B4000FF2040404080404040200109090602FF3C
:101B50008080808080808080800309090601FF806A
:101B6000404040204040408005030306000248A852
:101B700090FF414253005045544700504C41003FB4
:101B8000004E65787420506F696E7400446F6E6506
:101B9000004E65787400486F6D696E672058595A19
:101BA0000053746F72652053657474696E677300B7
:101BB0004C6F61642053657474696E67730042658D
:101BC00064205472616D6D696E670050726F62655A
:101BD000205A204F6666736574004F6666004F6E2C
:101BE00000426564204C6576656C696E67004C65E3
:101BF00076656C20426564004732394E00473239C1
:101C0000004175746F20486F6D65004D6F74696F8A
:101C10006E0053572D4D6F64650053746F77004409
:101C200065706C6F790053656C662D546573740034
:101C3000526573657400426564004E6F7A7A6C6514
:101C40000046616E20537065656400436F6E66697F
:101C50006775726174696F6E00526573746F726537
:101C60002044656661756C7473004C6F6164205329
:101C7000657474696E67730053746F726520536581
:101C80007474696E677300507265686561742024AE
:101C900020436F6E6600424C546F7563680050724B
:101CA0006F6265205A204F666673657400416476E2
:101CB000616E6365642053657474696E6773004D6B
:101CC00061696E003F004261636B0053746F700086
:101CD0004E6F204D65646961005072696E742066B4
:101CE000726F6D204D65646961004368616E676560
:101CF000204D65646961004D323100436F6E666945
:101D00006775726174696F6E0054656D706572619C
:101D100074757265004D6F74696F6E0052657375EE
:101D20006D65205072696E740054756E6500537451
:101D30006F70205072696E74005061757365205029
:101D400072696E7400496E666F2053637265656ECA
:101D5000003F005374617274205072696E740043C6
:101D6000616E63656C005072696E740043616E6EE3
:101D70006F7420656E746572207375626469723A5F
:101D8000200002202E2E004D61696E002100486F58
:101D900074656E6420746F6F20636F6C64004261C1
:101DA000636B0050726F63656564004D6F766520EC
:101DB0004578747275646572004D6F74696F6E005A
:101DC00044697361626C65205374657070657273E9
:101DD000004D3834004D34382050726F6265205405
:101DE000657374004732384F0A4D34382050313013
:101DF00000426564204C6576656C696E6700473209
:101E0000385A004732385900486F6D652040004706
:101E1000323858004175746F20486F6D6500473245
:101E200038004D61696E00507265686561742024E8
:101E30002042656400507265686561742024204505
:101E40006E640054656D7065726174757265007BB7
:101E50001B761B721B436F6F6C646F776E00507242
:101E6000656865617420240046616E205370656565
:101E70006400426564004E6F7A7A6C65004D61695A
:101E80006E00466C6F770046616E20537065656426
:101E900000426564004E6F7A7A6C65005370656528
:101EA00064004D61696E006F70656E005452494761
:101EB0004745524544003A20007A5F6D696E0079CB
:101EC0005F6D696E00785F6D696E005265706F724C
:101ED00074696E6720656E6473746F7020737461CB
:101EE0007475730A00486F6D65202573257325731B
:101EF0002046697273740000002041000020C10078
:101F00000000005761726E696E673A20486F6D6914
:101F10006E672042756D702044697669736F722018
:101F20003C20310A0002020400003A4300003B4317
:101F3000000039430000A0400000A0400000004025
:101F40000000000100000001000080005555550010
:101F50000000400033333300AAAA2A00499224002B
:101F600000002000C7711C0099991900D145170085
:101F7000555515003BB113002449120011111100F1
:101F8000000010000F0F0F00E3380E0043790D0022
:101F9000CCCC0C00C3300C00E8A20B0064210B0079
:101FA000AAAA0A00703D0A009DD80900427B0900D8
:101FB00092240900DCD30800888808001042080039
:101FC00000000800F0C10700878707007550070070
:101FD000711C07003EEB0600A1BC060069900600DC
:101FE00066660600703E06006118060017F40500DC
:101FF00074D105005BB00500B29005006272050067
:102000005555050078390500B81E05000505050081
:102010004EEC040087D40400A1BD040090A7040086
:1020200049920400C17D0400EE690400C756040013
:10203000444404005C320400082104004110040000
:10204000000004003FF00300F8E0030026D2030084
:10205000C3C30300CCB503003AA803000A9B0300E6
:10206000388E0300C08103009F750300D069030010
:10207000505E03001D53030034480300913D0300EC
:102080003333030016290300381F0300971503009C
:10209000300C0300030303000BFA020049F10200B5
:1020A000BAE802005CE002002DD802002DD0020048
:1020B00059C80200B0C0020031B90200DAB1020012
:1020C000AAAA0200A0A30200BC9C0200FA9502008A
:1020D0005C8F0200DF88020082820200457C0200E1
:1020E0002776020027700200436A02007C64020027
:1020F000D05E02003F590200C8530200FFFDFCFA07
:10210000F8F6F4F2F0EEECEAE9E7E5E3E1E0DEDC34
:10211000DAD9D7D5D4D2D0CFCDCBCAC8C7C5C3C2E0
:10212000C0BFBDBCBAB9B7B6B4B3B2B0AFADACAA5C
:10213000A9A8A6A5A4A2A1A09E9D9C9A99989795AE
:10214000949392908F8E8D8B8A89888786848382E0
:1021500081807F7E7D7B7A797877767574737271F2
:10216000706F6E6D6C6B6A696867666564636261E7
:10217000605F5E5D5C5B5A595858575655545352D0
:102180005150504F4E4D4C4B4A4A494847464645A0
:102190004443424241403F3E3E3D3C3B3B3A39385E
:1021A0003837363535343332323130302F2E2E2D0C
:1021B0002C2B2B2A292928272726252524232322AF
:1021C000212120201F1E1E1D1C1C1B1B1A19191843
:1021D00018171616151514131312121111100F0FCC
:1021E0000E0E0D0D0C0C0B0A0A090908080707064C
:1021F00006050504040303020201000053544F5076
:102200005045442E20005072696E746572207374BC
:102210006F707065642064756520746F20657272DC
:102220006F72732E2046697820746865206572721B
:102230006F7220616E6420757365204D39393920C5
:10224000746F20726573746172742E202854656DEA
:10225000706572617475726520697320726573654B
:10226000742E205365742069742061667465722031
:1022700072657374617274696E67290A00206572F1
:10228000726F72202D207265737461727420776989
:102290007468204D3939390A00424C546F756368AF
:1022A0000021212053544F502063616C6C656420E1
:1022B00062656361757365206F66200000004443AA
:1022C000000031430000394300002041000020C1DC
:1022D0000000000053657474696E67732053746F57
:1022E00072656400290A002062797465733B20637B
:1022F0007263200053657474696E67732053746F42
:1023000072656420280048617264636F64656420AC
:1023100044656661756C742053657474696E677387
:10232000204C6F616465640020286D6D2900203B9E
:10233000204C6576656C696E67200020204D343234
:10234000302053004175746F20426564204C6576DF
:10235000656C696E6700204600204200204800201E
:10236000204D3134352053004D6174657269616CC4
:102370002068656174757020706172616D65746547
:1023800072730020204D3134392043203B20556E9C
:1023900069747320696E2043656C736975730A00F4
:1023A00054656D706572617475726520556E6974DF
:1023B00073002020473231203B004C696E6561720A
:1023C00020556E69747300454550524F4D2064612D
:1023D000746173697A65206572726F722E0A0029C2
:1023E0000A002062797465733B20637263200020C9
:1023F00073746F7265642073657474696E6773209B
:1024000072657472696576656420280020286361AE
:102410006C63756C6174656429210A0020213D207C
:1024200000454550524F4D20435243206D69736D16
:1024300061746368202D202873746F72656429208D
:10244000002053697A653A2000496E6465783A2025
:10245000000000C8430000C84300000040000034F2
:10246000420000A3420000A3425258C8430000D8D3
:102470004288130000881300004B000000881300FE
:1024800000204D61726C696E3D563836290A004550
:102490004550524F4D2076657273696F6E206D699D
:1024A000736D617463682028454550524F4D3D005F
:1024B00020436F756E7420583A00426564004531C0
:1024C000004500626564002C2073797374656D208B
:1024D00073746F7070656421204865617465725F04
:1024E00049443A20004572723A204D415854454DB6
:1024F00050004D415854454D5020747269676765CE
:102500007265640048656174696E67204661696C34
:1025100065640048656174696E67206661696C6511
:1025200064004572723A204D494E54454D50004D5D
:10253000494E54454D5020747269676765726564F1
:1025400000544845524D414C2052554E4157415937
:1025500000546865726D616C2052756E61776179A7
:1025600000202F002042403A0020403A000009128B
:102570001B242D363F48415A536C657E7719100B4A
:10258000023D342F265158434A757C676E323B20FA
:1025900029161F040D7A7368615E574C452B22394A
:1025A000300F061D14636A7178474E555C646D7672
:1025B0007F4049525B2C253E3708011A137D746F0A
:1025C0006659504B42353C272E1118030A565F447A
:1025D0004D727B60691E170C053A3328214F465D0A
:1025E000546B627970070E151C232A313841485309
:1025F0005A656C777E09001B122D243F3658514ACC
:10260000437C756E671019020B343D262F737A6177
:1026100068575E454C3B3229201F160D046A6378CB
:10262000714E475C55222B3039060F141D252C376F
:102630003E0108131A6D647F7649405B523C352E8B
:102640002718110A03747D666F5059424B171E05F7
:102650000C333A21285F564D447B7269600E071C8B
:10266000152A233831464F545D626B707900002182
:1026700010422063308440A550C660E7700881296D
:10268000914AA16BB18CC1ADD1CEE1EFF131121005
:102690000273325222B5529442F772D662399318BD
:1026A000837BB35AA3BDD39CC3FFF3DEE362244311
:1026B0003420040114E664C774A44485546AA54B0D
:1026C000B528850995EEE5CFF5ACC58DD5533672A5
:1026D0002611163006D776F6669556B4465BB77A5D
:1026E000A719973887DFF7FEE79DD7BCC7C448E531
:1026F000588668A7784008611802282338CCC9EDAD
:10270000D98EE9AFF9488969990AA92BB9F55AD444
:102710004AB77A966A711A500A333A122AFDDBDCFC
:10272000CBBFFB9EEB799B588B3BBB1AABA66C8750
:102730007CE44CC55C222C033C600C411CAEED8F4C
:10274000FDECCDCDDD2AAD0BBD688D499D977EB6E4
:102750006ED55EF44E133E322E511E700E9FFFBE9C
:10276000EFDDDFFCCF1BBF3AAF599F788F8891A96F
:1027700081CAB1EBA10CD12DC14EF16FE18010A146
:1027800000C230E3200450254046706760B983984A
:1027900093FBA3DAB33DC31CD37FE35EF3B1029096
:1027A00012F322D2323542145277625672EAB5CB16
:1027B000A5A89589856EF54FE52CD50DC5E234C3E6
:1027C00024A01481046674476424540544DBA7FAEA
:1027D000B79987B8975FE77EF71DC73CD7D326F236
:1027E000369106B01657667676154634564CD96D36
:1027F000C90EF92FE9C899E9898AB9ABA944586586
:102800004806782768C018E1088238A3287DCB5C89
:10281000DB3FEB1EFBF98BD89BBBAB9ABB754A54D5
:102820005A376A167AF10AD01AB32A923A2EFD0F55
:10283000ED6CDD4DCDAABD8BADE89DC98D267C0725
:102840006C645C454CA23C832CE01CC10C1FEF3E29
:10285000FF5DCF7CDF9BAFBABFD98FF89F176E3675
:102860007E554E745E932EB23ED10EF01E7C3C3EE1
:102870005E2B3D3F2F5B5D3B2C2A225C0043616E4B
:102880006E6F74206F70656E20737562646972205C
:10289000004D6564696120496E6974204661696C08
:1028A0000053442063617264206F6B0A006F70658F
:1028B0006E526F6F74206661696C65640A00766F92
:1028C0006C756D652E696E6974206661696C6564EE
:1028D0000A004E6F20534420636172640A000A4D5F
:1028E0003234004D3233202573002E0A006F70659C
:1028F0006E206661696C65642C2046696C653A20BF
:102900000046696C652073656C65637465640A00D4
:102910002053697A653A200046696C65206F7065BE
:102920006E65643A2000454E4420535542524F553F
:1029300054494E450A002220706F730022207061B6
:1029400072656E743A2200535542524F5554494EA7
:10295000452043414C4C207461726765743A2200F3
:1029600053756263616C6C204F766572666C6F772D
:10297000004578636565646564206D617820535512
:1029800042524F5554494E452064657074683A0070
:1029900057726974696E6720746F2066696C653A56
:1029A0002000667265736800646F696E6700206658
:1029B000696C653A20004E6F7720002F6175746F47
:1029C00025632E6700026D61726C696E66772E6FEB
:1029D000726700322E312E31001FFFFFFFFFFFFF15
:1029E000600000000001FF400000000000FF8000C8
:1029F000000000007F83CF00000C303F87FF800085
:102A00000C301F867980000C000F8C30C7838C300F
:102A1000E78C30CFC7CC31F38C30DCECEC33B98CA5
:102A200030D86C6C33198C30D06C0C33198C30D896
:102A30006C0C33198C30DC6C0E3B198C30CF7C075E
:102A40009F198C30C77C038F1940000000000002E2
:102A5000600000000000061FFFFFFFFFFFF870018D
:102A60002C0190012701B0012201C0011D01F001DC
:102A700018011002130130020E01600209019002D8
:102A80000401C002FF000003FA004003F5008003C8
:102A9000F000D003EB002004E6007004E100E00445
:102AA000DC004005D700C005D2004006CD00D006AE
:102AB000C8008007C3003008BE00F008B900C00994
:102AC000B400B00AAF00B00BAA00D00CA500000EF5
:102AD000A000500F9B00C0109600501291000014EF
:102AE0008C00C0158700B0178200B0197D00D01B84
:102AF0007800001E730040206E0090226900F024D0
:102B0000640040275F0090295A00E02B5500102EEA
:102B1000500020304B0010324600E0334100903529
:102B20003C001037370070383200A0392D00B03A21
:102B30002800A03B2300603C1E00103D1900903D82
:102B40001400103E0F00703E0A00C03E0500003F1A
:102B50000000403FFBFF803FF6FFC03FF1FF202019
:102B6000506C616E6E65724275666665724279740C
:102B700065733A20002046726565204D656D6F7261
:102B8000793A200020436F6D70696C65643A20418A
:102B9000756720333120323032320A00204C6173A5
:102BA0007420557064617465643A20323032322D7D
:102BB00030382D3036207C20417574686F723A2091
:102BC0006A6F6E7361670A004D61726C696E2032C4
:102BD0002E312E310A0020536F66747761726520A2
:102BE00052657365740A00205761746368646F6787
:102BF0002052657365740A002042726F776E206FF1
:102C000075742052657365740A0020457874657286
:102C10006E616C2052657365740A00506F7765723F
:102C200055700A0073746172740A0047323858593B
:102C3000004D31303031006F6B006572726F722061
:102C400077726974696E6720746F2066696C650AB3
:102C500000446F6E6520736176696E672066696CEB
:102C6000652E0A004D323900456E6473746F7073BF
:102C7000002553202563202563202563202563003C
:102C8000205A3A0020593A0020583A00656E647381
:102C9000746F7073206869743A200000000A0B0298
:102CA000090C0D0E080703040100000000000000DD
:102CB0000000000000000000000000000000000014
:102CC00000000000000000121110000000000000D1
:102CD00000000000000000000000000000000000F4
:102CE0000024F404D9201BC40C5C0E9804C4095FB2
:102CF0000265077101F405F900FB04B3004804877D
:102D000000C10369005803550003034500BE023AA1
:102D1000008402310053022A002902250004022007
:102D200000E4011C00C8011900AF0117009801144C
:102D30000084011300710110006101100051010EA7
:102D40000043010D0036010B002B010B0020010B8D
:102D500000150109000C01090003010800FB00082F
:102D600000F3000800EB000700E4000600DE0006A8
:102D700000D8000600D2000600CC000500C7000500
:102D800000C2000500BD000400B9000400B5000445
:102D900000B1000400AD000400A9000400A5000378
:102DA00000A20003009F0004009B000300980003A2
:102DB000009500020093000300900003008D0002C4
:102DC000008B0003008800020086000200840003DC
:102DD00000810002007F0002007D0002007B0002F3
:102DE0000079000200770001007600020074000202
:102DF0000072000100710002006F0002006D00010E
:102E0000006C0002006A0001006900020067000116
:102E1000006600010065000100640002006200011C
:102E20000061000100600001005F0002005D000120
:102E3000005C0001005B0001005A00010059000124
:102E40000058000100570001005600010055000124
:102E50000054000100530000005300010052000123
:102E60000051000100500001004F0001004E000021
:102E7000004E0001004D0001004C0001004B00001D
:102E8000004B0001004A0001004900010048000019
:102E90000048000100470001004600000046000114
:102EA000004500000045000100440001004300000F
:102EB0000043000100420000004200010041000008
:102EC0000041000100400001003F0000003F000100
:102ED000003E0000003E0001003D0000003D0001FA
:102EE000003C0000003C0000003C0001003B0000F2
:102EF000003B0001003A0000003A000100390000E8
:102F000000390001003800000038000000380001DE
:102F100000370000003700010036000000360000D6
:102F200000360001003500000035000000350001CA
:102F300000340000003400000034000100330000C1
:102F400000330000003300010032000000320000B6
:102F500000320001003100000031000000310001AA
:102F6000003000000030000000300001002F0000A1
:102F7000002F0000002F0000002F0001002E000095
:102F8000002E0000002E0001002D0000002D00008A
:102F9000002D0000002D0001002C0000002C00007E
:102FA000002C0000002C0001002B0000002B000072
:102FB000002B0000002B0001002A0000002A000066
:102FC000002A0000002A000100290000002900005A
:102FD000002900000029000000290001002800004D
:102FE0000028000000280000002800000028000140
:102FF0000027000000270000002700000027000035
:103000000027000100260000002600000026000026
:103010000026000000260001002500000025000019
:10302000002500000025000000250000002500010B
:103030000024000000240000002400000024000000
:1030400000240001002300000023000000230000F2
:1030500000230000002300000023000000230001E3
:1030600000220000002200000022000000220000D8
:1030700000220000002200010021000000210000C9
:1030800000210000002100000021000000210000BC
:1030900000210001002000000020000000200000AE
:1030A00000200000002000000020000000200000A0
:1030B00000200001001F0000001F0000001F000092
:1030C000001F0000001F0000001F0000001F000183
:1030D000001E0000001E0000001E0000001E000078
:1030E0000024F4D43050C38E20C2A24017828B70CB
:1030F00011127A910D816CD90AA861E108C758664E
:1031000007615143061E4B5D05C145A7041A4111D5
:1031100004093D9803713931034036DB0265339170
:1031200002D4305402802E1D02632CEE01752AC594
:1031300001B028A001102781018F2564012B244BA9
:1031400001E0223401AC211F018D200D01801FFC04
:1031500000841EED00971DDF00B81CD200E61BC6E0
:1031600000201BBC00641AB200B219A8000A19A002
:10317000006A189900D117910040178B00B516848A
:103180000031167E00B31579003A157300C7146F2D
:103190000058146A00EE1366008813630025135E5E
:1031A00000C7125B006C12570015125400C1115178
:1031B0000070114F0021114B00D61049008D1047AF
:1031C000004610440002104200C00F4000800F3E35
:1031D00000420F3C00060F3B00CB0E3800930E3729
:1031E000005C0E3500270E3400F30D3200C10D31A6
:1031F00000900D3000600D2E00320D2D00050D2CBD
:1032000000D90C2B00AE0C2900850C29005C0C2782
:1032100000350C27000E0C2600E80B2400C40B24FC
:1032200000A00B23007D0B23005A0B2100390B213A
:1032300000180B2000F80A1F00D90A1E00BB0A1E46
:10324000009D0A1D00800A1D00630A1C00470A1B1E
:10325000002C0A1B00110A1A00F7091A00DD0919CF
:1032600000C4091900AB091900920917007B09185D
:1032700000630917004C09160036091600200916CC
:10328000000A091500F5081500E0081400CC081420
:1032900000B8081400A4081400900813007D081258
:1032A000006B081300580812004608120034081179
:1032B00000230811001208110001081100F0071086
:1032C00000E0071000D0071000C0071000B0070F83
:1032D00000A107100091070E0083070F0074070F6D
:1032E0000065070E0057070E0049070E003B070D4B
:1032F000002E070E0020070D0013070D0006070D16
:1033000000F9060C00ED060D00E0060C00D4060CDA
:1033100000C8060C00BC060C00B0060C00A4060B8E
:103320000099060C008D060B0082060B0077060B39
:10333000006C060B0061060A0057060B004C060ADB
:103340000042060A0038060A002E060A0024060A71
:10335000001A060A001006090007060A00FD050902
:1033600000F4050900EB050900E2050900D905098B
:1033700000D0050900C7050900BE050900B505080C
:1033800000AD050800A50509009C05080094050886
:10339000008C050800840508007C050800740508F9
:1033A000006C050700650508005D05070056050867
:1033B000004E0507004705070040050800380507CF
:1033C00000310507002A050700230507001C050634
:1033D00000160507000F050700080506000205078F
:1033E00000FB040600F5040700EE040600E80406EE
:1033F00000E2040700DB040600D5040600CF040643
:1034000000C9040600C3040600BD040600B7040694
:1034100000B1040500AC040600A6040600A00405E3
:10342000009B04060095040500900406008A04052C
:103430000085040500800406007A04050075040573
:1034400000700405006B04050066040500610405B6
:10345000005C04050057040500520405004D0405F6
:103460000048040500430405003E0404003A040536
:103470000035040500300404002C04050027040472
:1034800000230405001E0404001A040400160405A9
:1034900000110404000D04040009040500040404E0
:1034A0000000040400FC030400F8030400F4030417
:1034B00000F0030400EC030400E8030400E4030448
:1034C00000E0030400DC030400D8030400D4030478
:1034D00000D0030400CC030400C8030300C50303A9
:1034E00000393000003325000087190000B00F00BC
:1034F00000DB080000BD040000740200003F010072
:10350000004D6F766520246D6D00302E3032350011
:103510004D6F766520302E316D6D004D6F766520D4
:10352000316D6D004D6F76652031306D6D004D6FE2
:1035300076652041786973004D6F7665202A004DCD
:103540006F7665204000486F6D696E67204661693F
:103550006C656400FFFFFF50726F62696E67204602
:1035600061696C65640A0050726F62696E6720461B
:1035700061696C656400205A3A200020593A2000A5
:1035800042656420583A2000220A00556E6B6E6F27
:10359000776E20636F6D6D616E643A202200204566
:1035A00000205A0020590020204D39322058005365
:1035B000746570732070657220756E697400DB0F1E
:1035C000C93F45BCDA3F8FB30240FCF02740569418
:1035D0006140FE4B9B4084A5D840E0231841346AEB
:1035E0005641E859974164DBD5416E271742B4B77D
:1035F0005542CE1A9742C8AED542B5885A43D40632
:1036000084BFA65FA7BF7443E0BF10B11AC01C2CD3
:1036100058C0E8F697C0B849D6C04E4E17C124D35B
:1036200055C1802497C1A0B5D5C1121A17C244AEA6
:1036300055C2781797C26CACD5C267885AC320743C
:103640006F6F206C6F6E6720657874727573696F29
:103650006E2070726576656E7465640A0020636F13
:103660006C6420657874727573696F6E2070726512
:1036700076656E7465640A006F6B0A005265736547
:103680006E643A200020453A00205A3A0020593A08
:1036900000583A0000002200250028002B002E00D0
:1036A0003100340002010000050108010B01000097
:1036B0002100240027002A002D00300033000101E2
:1036C0000000040107010A010505050507050808B2
:1036D0000808020202020A0A08080404040401019C
:1036E00001010101010103030303030303030407B1
:1036F00007070C0C0C0C0C0C0C0C02020202060648
:103700000606060606060B0B0B0B0B0B0B0B01023A
:1037100010202008081020401020408002010201E3
:10372000080402010102040810204080804020109B
:1037300008040201800402018040201008040201F4
:10374000080402010102040810204080010204085C
:10375000102040804572726F722077726974696EB2
:103760006720746F20454550524F4D210A00476530
:103770006565746563682069332050726F2042204C
:1037800052656164792E005072696E74696E672E9D
:103790002E2E005072696E7420506175736564003E
:1037A000AA00BC0011241FBECFEFD1E2DEBFCDBF07
:1037B00000E00CBF84B780930C1614BE0FB6F894CB
:1037C000A8958091600088618093600010926000ED
:1037D0000FBE13E0A0E0B2E0E0E2F4E502E00BBFD0
:1037E00002C007900D92AA3BB107D9F726E1AAEBD8
:1037F000B3E001C01D92AC30B207E1F71BE1C1EDAF
:10380000DBE100E006C021970109802FFE010F9443
:10381000A426C03DD10780E00807A9F70F940E1237
:103820000D94FF290C9400008F929F92AF92BF924B
:10383000CF92DF92EF92FF926B017C0120E030E0AB
:10384000A9010F94DD1F87FD6BC06DEB77E386E068
:1038500095E3A70196010F94BF266B017C0120E040
:1038600030E040E251E40F94422020E030E040E2BA
:1038700051E40F9442204B015C0120E030E0A901AB
:10388000C701B6010F94DD1F20E030E040EA50E4AC
:1038900087FF04C020E030E040EA50ECC501B401ED
:1038A0000F94BF2620E030E040E251E40F949B27C4
:1038B0000F9403289B018BE237FF05C02227332793
:1038C000261B370B8DE28093AD05C90164E670E0DD
:1038D0000F949126CB01EAE0F0E0BF010F9491260E
:1038E000805D8093AE05C901BF010F949126282FFA
:1038F000CB01BF010F949126805D8093AF058EE2CE
:103900008093B005205D2093B1058DEA95E0FF908E
:10391000EF90DF90CF90BF90AF909F908F900895E1
:103920006DEB77E386E095EB94CF8F929F92AF9209
:10393000BF92CF92DF92EF92FF92CF936B017C0107
:1039400020E030E0A9010F94DD1F87FDC3C06DEBBF
:1039500077E386E095E3A70196010F94BF266B01FC
:103960007C0120E030E0A9010F94DD1F87FFB7C084
:10397000C701B601905820E030E040E251E40F94D6
:10398000422020E030E040E251E40F94422020E069
:1039900030E040EA50E40F94BF2620E030E040E2FF
:1039A00051E40F949B270F9403286B017C0160E284
:1039B00080EAC81686E8D80681E0E806F1048CF0B3
:1039C000C701B60120EA36E841E050E00F9429260D
:1039D000CA01B9012AE030E040E050E00F94292606
:1039E000605D6093AB0560E280E1C81687E2D806AF
:1039F000E104F1048CF0C701B60120E137E240E0B8
:103A000050E00F942926CA01B9012AE030E040E0D5
:103A100050E00F942926605D6093AC0560E288EE6B
:103A2000C81683E0D806E104F1048CF0C701B601A2
:103A300028EE33E040E050E00F942926CA01B90196
:103A40002AE030E040E050E00F942926605D60936A
:103A5000AD0560E284E6C816D104E104F1048CF0FF
:103A6000C701B60124E630E040E050E00F9429267B
:103A7000CA01B9012AE030E040E050E00F94292665
:103A8000605D6093AE058AE0882E912CA12CB12C4C
:103A9000C701B601A50194010F942926C62FCA01BA
:103AA000B901A50194010F942926605D6093AF05CB
:103AB0008EE28093B005C05DC093B1058BEA95E0BE
:103AC000CF91FF90EF90DF90CF90BF90AF909F90FD
:103AD0008F9008956DEB77E386E095EB3CCF20E087
:103AE00030E040E251E4C701B60149CF8F929F9286
:103AF000AF92BF92CF92DF92EF92FF92CF936B0182
:103B00007C0120E030E0A9010F94DD1F87FD93C008
:103B10006DEB77E386E095E3A70196010F94BF264E
:103B20006B017C0120E030E040E251E40F94422040
:103B300020E030E04AE754E40F9442204B015C015E
:103B400020E030E0A901C701B6010F94DD1F20E09D
:103B500030E040EA50E487FF04C020E030E040EA73
:103B600050ECC501B4010F94BF2620E030E040E2E4
:103B700051E40F949B270F9403286B017C01C1141F
:103B8000D104E104F10409F45BC0F7FE59C0F094DC
:103B9000E094D094C094C11CD11CE11CF11C8DE2B6
:103BA0008093AC05C701B60128EE33E040E050E059
:103BB0000F9429268AE0882E912CA12CB12CCA01C1
:103BC000B901A50194010F942926605D6093AD05AC
:103BD0008EE28093AE05C701B60124E630E040E0F6
:103BE00050E00F942926CA01B901A50194010F9450
:103BF0002926605D6093AF05C701B601A501940158
:103C00000F942926C62FCA01B901A50194010F946A
:103C10002926605D6093B005C05DC093B1058CEA54
:103C200095E0CF91FF90EF90DF90CF90BF90AF9055
:103C30009F908F9008956DEB77E386E095EB6CCFC6
:103C400080E2AECFCF93DF93EC01CB01BA010F94AA
:103C5000E31F20E030E040E251E40F949B276883AB
:103C600079838A839B83DF91CF910895CF93DF93EC
:103C7000EC01CB01BA010F94E31F20E030E040E2F9
:103C800051E40F949B27688379838A839B83DF9118
:103C9000CF9108950F94E31F20E030E040E251E41B
:103CA0000F949B2742CE0F94E31F20E030E040E2C8
:103CB00051E40F949B27B8CDCF93DF93EC01CB0158
:103CC000BA010F94E31F2AE037ED43E25DE30F945E
:103CD0009B270F940828688379838A839B83DF91CD
:103CE000CF910895CF93DF93EC01CB01BA010F94EC
:103CF000E31F2AE037ED43E25DE30F949B276883DF
:103D000079838A839B83DF91CF910895CF93DF934B
:103D1000EC01CB01BA010F94E31F688379838A8396
:103D20009B83DF91CF910895CF93DF93EC01CB017B
:103D3000BA010F94E31F20E030E048EC52E40F9406
:103D40009B27688379838A839B83DF91CF91089532
:103D5000CF93DF93EC01CB01BA010F94E31F0F94D3
:103D6000032879836883DF91CF910895CF93DF9300
:103D7000EC01CB01BA010F94E31F20E030E04AE7E9
:103D800054E40F949B27688379838A839B83DF9114
:103D9000CF9108950F94E31F20E030E04AE754E408
:103DA0000F949B27A3CEFC0184910895FC01808190
:103DB0000895FC01A081B1811C92A281B3818C91F4
:103DC0008F5F8C930280F381E02D90818CE0989F2F
:103DD000800D1124EFEDF3E113AE84AF0895009749
:103DE00051F0FC0180E09191992331F0907C903862
:103DF000D1F38F5FF8CF80E0089590910201927027
:103E00009093000100C09091020187FD9095917000
:103E1000909300019091020190959270909300010F
:103E200000C000C09091020192709093000100C008
:103E30009091020186FD9095917090930001909170
:103E40000201909592709093000100C000C0909183
:103E5000020192709093000100C09091020185FDD3
:103E600090959170909300019091020190959270BD
:103E70009093000100C000C0909102019270909355
:103E8000000100C09091020184FD90959170909383
:103E9000000190910201909592709093000100C0F2
:103EA00000C09091020192709093000100C0909127
:103EB000020183FD90959170909300019091020111
:103EC000909592709093000100C000C09091020103
:103ED00092709093000100C09091020182FD909534
:103EE000917090930001909102019095927090933F
:103EF000000100C000C090910201927090930001F7
:103F000000C09091020181FD909591709093000105
:103F100080910201809582708093000100C000C0F2
:103F20008091020182708093000100C080910201A3
:103F3000817080930001809102018095827080934E
:103F4000000100C000C0089590E080E00895CF9384
:103F5000DF93C0917007D091710781E0CE31D10518
:103F6000E4F020E030E040E05FE360916C077091A6
:103F70006D0780916E0790916F070F94BF260F9485
:103F800003286C1B7D0B77FF03C071956195710948
:103F900081E0633071050CF080E0DF91CF910895EE
:103FA000CF93DF93DB01F9019C919130C1F0943004
:103FB00080F094509C938830D1F480819181009757
:103FC00071F0019791838083480F591FEA0118828D
:103FD00006C08C3539F49C5F9C93943041F4DF919A
:103FE000CF9108958B3339F781E08C93F8CF2081FE
:103FF0003181B9016F5F7F4F71836083420F531F1F
:10400000EA018883808191818F3591056CF7E7CF34
:104010000F931F9381E00091321510913315209179
:1040200034153091351540912E1550912F15609112
:10403000301570913115041715072607370708F456
:1040400080E01F910F91089590E080E00895209105
:10405000E504833021F425FD0CC024FD0CC030E0C4
:10406000A90102C0559547958A95E2F7CA0181706A
:10407000089581E0089580E008958091010584FD10
:104080000BC08091030587FD07C0909104059370D4
:1040900081E019F480E0089581E008952FEB280F66
:1040A0002A3108F047C0E22FF0E08091010590919D
:1040B0000205A0910305B091040504C0B695A7952B
:1040C000979587952A95D2F780FD02C08170089553
:1040D000E951FB4FE081EE2341F18091B7079091C8
:1040E000B807E80FF92FF11D808190ED980F9A30F5
:1040F00030F08E3251F4818180538A3098F4F093FD
:10410000DB04E093DA0481E008958D3211F08B3204
:1041100049F4818190ED980F9A3088F38E3211F432
:104120008281EACFF0E0E0E0EACF1092DB04109267
:10413000DA04E9CF80E00895B1DF882341F081E01F
:104140002091DA043091DB04232B09F480E00895F8
:10415000809A8898089580E090E0A0E8B0E4809389
:10416000700290937102A0937202B09373028AED71
:1041700092E00E9462BCE091A705E430C9F480E0BF
:1041800090E0AAEBB2E48093680290936902A09356
:104190006A02B0936B0280E090E0A6EAB2E48093FA
:1041A0006C0290936D02A0936E02B0936F0232C0C6
:1041B00080E090E0ACE0B2E4809368029093690202
:1041C000A0936A02B0936B0280E090E0A0E2B1E4B9
:1041D00080936C0290936D02A0936E02B0936F0275
:1041E000EE0FFF0BE654FD4F8081918183309105E6
:1041F00049F18430910591F1029761F480E090E0FB
:10420000ABE2B3E48093680290936902A0936A02E0
:10421000B0936B0282EC92E00E9462BC109270023A
:104220001092710210927202109273028AED92E063
:104230000E9462BC8091A7058F5F8530A4F48093B3
:10424000A705089580E090E0ABE2B3E480936802B4
:1042500090936902A0936A02B0936B0280E090E0B1
:10426000A3E1B3E49CCF1092A7050895CF93DF9309
:1042700000D01F92CDB7DEB70F9408280F94E11F2E
:1042800069837A838B839C83CE0101960E9453CAF3
:104290000F900F900F900F90DF91CF9108950F9492
:1042A000E31F2AE037ED43E25DE30F949B27DECF67
:1042B000CF92DF92EF92FF92CF93DF9300D01F92C5
:1042C000CDB7DEB76B017C0120E030E0A9010F948F
:1042D000DD1F87FD1BC06DEB77E386E095E3A7014B
:1042E00096010F94BF2669837A838B839C83CE01CA
:1042F00001960E9453CA0F900F900F900F90DF917C
:10430000CF91FF90EF90DF90CF9008956DEB77E322
:1043100086E095EBE4CF0F94E31F2AE037ED43E20C
:104320005DE30F949B27C4CF0F94E31FC1CF0F947D
:10433000E31F20E030E048EC52E40F949B270C94FC
:1043400043D90F94E31F0F940328CB010C9455CB52
:104350000C947EAD0C947EAD0C9430AD0C9430ADCD
:104360000C9430AD0C9430AD63E972E084E690E0DB
:104370000E943ED270E060E08AE090E00E943ED26F
:104380006AEB72E084E690E00C943ED28111ECCFAF
:1043900068E270E080E991E00C943ED20E9448AA65
:1043A000F5CF80915F02882341F06091A405709160
:1043B000A50541E081E00C94E7FE08950E947BC3CF
:1043C000E5CF0E9421C2D0CFCF93DF93C091700779
:1043D000D0917107209729F160916C0770916D075A
:1043E00080916E0790916F070F9403286E5F7F4F47
:1043F00024976C177D07ACF47093E9056093E8058A
:104400000F945B04605A75418F4F9F4F6093EA058C
:104410007093EB058093EC059093ED05DF91CF91C0
:1044200008951092EA051092EB051092EC05109297
:10443000ED05F4CFBF92CF92DF92EF92FF920F93F0
:104440001F93CF93DF936B01E9014A3009F4D6C083
:10445000453109F081C0DB011296ED91FC9112818A
:10446000C681D781599A00C0000086E290E001978A
:10447000F0F7012F0295007F20E1B22EB10E88EFF8
:10448000BCDC00C0000086E290E00197F0F710323B
:1044900008F0A1C0812F80778068AFDC802FADDC71
:1044A00000C0000086E290E00197F0F780E8A5DC0C
:1044B00080E0A3DC00C0000086E290E00197F0F706
:1044C0008AEF9BDC00C0000086E290E00197F0F7E5
:1044D0007E01B0E1EB0EF11C8881807F8EDC89913A
:1044E0008295807F8ADCCE15DF05B1F700C0000021
:1044F00086E290E00197F0F71F5F005F1B11BFCFCE
:104500005998D6011296ED91FC9180819281980F75
:1045100092832181921708F075C294819F5F9483E2
:104520009381890F821710F08FEF820F838345816B
:1045300050E0440F551F70E060E0868197810F9432
:10454000AB2981E0DF91CF911F910F91FF90EF9008
:10455000DF90CF90BF900895FB0102811381423319
:1045600009F452C208F45AC2463409F447C2473427
:1045700009F44FC24B3329F789812B81D801129658
:104580006C91129713964C91213009F48CC2233010
:1045900009F06DC238EF380F582F91E0431708F437
:1045A00090E041E0531708F040E031E0561708F47E
:1045B00030E0592F542B352319F4942309F4C1CF3B
:1045C000FA8030E0F901EA55FD4FD0802E553D4F7D
:1045D000F901E08065C280EE810F8068807F0DDC8C
:1045E000812F8295807F09DC00C0000086E290E088
:1045F0000197F0F780E801DC80E85BCF519A599889
:10460000809101018160809301018091020181709C
:10461000809300018091010182608093010180916B
:1046200002018095827080930001599A00C00000B9
:1046300086E290E00197F0F788E790E0CEE9DFE0CE
:10464000FE013197F1F70197D9F788EFD6DB00C06B
:10465000000086E290E00197F0F780E2CEDB80E098
:10466000CCDB00C0000086E290E00197F0F780E02C
:10467000C4DB80E8C2DB00C0000086E290E0019766
:10468000F0F780E0BADB80E1B8DB00C0000086E232
:1046900090E00197F0F7CE010197F1F7CE01019775
:1046A000F1F7CE010197F1F7CE010197F1F7CE01B5
:1046B0000197F1F7CE010197F1F7CE010197F1F7DC
:1046C000CE010197F1F7CE010197F1F7CE010197E5
:1046D000F1F7CE010197F1F7CE010197F1F7CE0185
:1046E0000197F1F7CE010197F1F72197F1F780E2F9
:1046F00084DB80E482DB00C0000086E290E001976A
:10470000F0F780E27ADB80E678DB00C0000086E22A
:1047100090E00197F0F7D0E0C0E08C2F80778068C0
:104720006CDB8D2F6ADB00C0000086E290E0019711
:10473000F0F780E862DB80E060DB00C0000086E22A
:1047400090E00197F0F78AEF58DB00C0000086E2A6
:1047500090E00197F0F790E28091020182708093DF
:10476000000100C08091020181708093000180915E
:104770000201809582708093000100C000C080918A
:10478000020182708093000100C08091020181705B
:1047900080930001809102018095827080930001D6
:1047A00000C000C08091020182708093000100C0AF
:1047B00080910201817080930001809102018095B7
:1047C00082708093000100C000C08091020182705D
:1047D0008093000100C080910201817080930001EC
:1047E00080910201809582708093000100C000C01A
:1047F0008091020182708093000100C080910201CB
:104800008170809300018091020180958270809375
:10481000000100C000C080910201827080930001FD
:1048200000C080910201817080930001809102019B
:10483000809582708093000100C000C080910201C9
:1048400082708093000100C080910201817080938A
:10485000000180910201809582708093000100C068
:1048600000C08091020182708093000100C080919D
:104870000201817080930001809102018095827015
:104880008093000100C000C080910201827080937B
:10489000000100C08091020181708093000180912D
:1048A0000201809582708093000100C000C0809159
:1048B000020182708093000100C08091020181702A
:1048C00080930001809102018095827080930001A5
:1048D00000C000C08091020182708093000100C07E
:1048E0008091020181708093000180910201809586
:1048F00082708093000100C000C08091020182702C
:104900008093000100C080910201817080930001BA
:1049100080910201809582708093000100C000C0E8
:104920008091020182708093000100C08091020199
:104930008170809300018091020180958270809344
:10494000000100C000C080910201827080930001CC
:1049500000C080910201817080930001809102016A
:10496000809582708093000100C000C08091020198
:1049700082708093000100C0809102018170809359
:10498000000180910201809582708093000100C037
:1049900000C08091020182708093000100C080916C
:1049A00002018170809300018091020180958270E4
:1049B0008093000100C000C000C00000E6E2F0E00B
:1049C0003197F0F7915009F0C7CE88EF16DA00C0A2
:1049D000000086E290E00197F0F7CF5FD05FC03231
:1049E00009F09BCE80E009DA80EC07DA00C0000015
:1049F00086E290E00197F0F75998A3CDF801858100
:104A000088839FCD80E09ECDB901C8010F946F05CA
:104A100098CDD80111968C91888393CD443191F033
:104A2000473109F08ECD1882D80112968C911297D9
:104A3000898315968C91159781508A8313968C9152
:104A40008B837FCDD80115964C91159750E0440F7C
:104A5000551F70E060E016968D919C910F94AB29E4
:104A6000F801128280818150838314826ACD4817B5
:104A700008F467CD861708F464CDFA80E12CD12CB8
:104A8000243070F49ECDBE01C8010F946F0589815A
:104A900098819D0D98838E0D8983FF0C09F451CD6B
:104AA000F7FEF6CFF0CF58E0580F382F76CDEF92C3
:104AB000FF920F931F93CF93DF93EC018B017A0149
:104AC0008A859B858617970731F0888199810F9495
:104AD000A1071B870A87B701888199810E94DFFFA0
:104AE0002E813F81820F932F911D9F838E8390E0B3
:104AF00080E0DF91CF911F910F91FF90EF9008958B
:104B00009F92AF92BF92CF92DF92EF92FF920F935C
:104B10001F93CF93DF93EC018B01942EA52E8A85F2
:104B20009B858617970731F0888199810F94A1079B
:104B30001B870A8788859985019649F5BC800A817B
:104B40008E81080FC880D980D6015596ED91FC91D1
:104B5000C6011995B80EE92CFA2C10E0F701219145
:104B60007F01211127C08E819F81810F911D9F831D
:104B70008E8390E080E0DF91CF911F910F91FF90A5
:104B8000EF90DF90CF90BF90AF909F9008950E81EF
:104B90001F81692D7A2D888199810E94DFFF800F06
:104BA000912F911D288539852817390738F681E01E
:104BB00090E0E1CF4B2D602FC6010F94F907080F4D
:104BC000180FCCCFDF92EF92FF920F931F93CF93EA
:104BD000DF93EC01D62E1CAD0BAD7C0184E0E80E1A
:104BE000F11CE98DFA8DC7011995412F480F2D2D24
:104BF000602FC7010F94F9079BAD890F8BAF81E040
:104C000090E0DF91CF911F910F91FF90EF90DF9097
:104C100008952F923F924F925F926F927F928F9260
:104C20009F92AF92BF92CF92DF92EF92FF920F933B
:104C30001F93CF93DF93162F072F242EFC01808024
:104C40009180A280B380C501B40120E13EE040E044
:104C500050E00F940726E22ED32EC22FD32F8CE3E1
:104C6000482E512C612C712CC501B401A301920175
:104C70000F940726C62E372ECA01B901A30192014F
:104C80000F940726F62E772E222059F1C501B40184
:104C900020E831E541E050E00F94072669017F925A
:104CA000FF92CE0168E170E00F947D269F938F9371
:104CB0003F932F9383E593E19F938F930F931F93DC
:104CC0000F94761FEDB7FEB73A960FB6F894FEBF75
:104CD0000FBEEDBF88E0FAE0CF16D104C8F089E03E
:104CE00017C0209741F53F92CF927F936F9387E44F
:104CF00093E19F938F930F931F930F94761F8DB71C
:104D00009EB708960FB6F8949EBF0FBE8DBF85E084
:104D1000DF91CF911F910F91FF90EF90DF90CF9097
:104D2000BF90AF909F908F907F906F905F904F90CB
:104D30003F902F900895C436D105A8F47F936F93C8
:104D4000DF92EF928BE393E19F938F930F931F93E7
:104D50000F94761FEDB7FEB738960FB6F894FEBFE6
:104D60000FBEEDBFD4CF7F936F93DF92EF9281E3BD
:104D700093E19F938F930F931F930F94761F8DB79B
:104D80009EB708960FB6F8949EBF0FBE8DBF86E003
:104D9000BFCFCF9380910F05811154C010921A1488
:104DA00010921B1410921C141092E8131092E71327
:104DB0001092EA131092E9131092EC1381E08093A1
:104DC000EB1382E28093ED131092F2131092F11321
:104DD000E6E0F4E124E134E18FEF81932E173F0701
:104DE000E1F7C1E0C093031427E231EE3093F913E9
:104DF0002093F813C093FA131092FB131092FC1334
:104E000090E49093FD131092FE1326E231EE30935E
:104E100015142093141421E132E03093E61320930B
:104E2000E51390E190930A1491E190930B1494E1AF
:104E30009093081480930714809306140F94AD0583
:104E4000C0930F0581E08093110581E393E1909376
:104E5000C2128093C1121092C4121092C312CF9149
:104E60000895CF92DF92EF92FF920F931F93CF930B
:104E7000DF93CDB7DEB72C970FB6F894DEBF0FBE29
:104E8000CDBFF0901A14E0901B1420911105211150
:104E90001DC041EF52E16E2D8F2D0F94640890E0FC
:104EA00080E0F80EF0921A14E0921B1499272C96C9
:104EB0000FB6F894DEBF0FBECDBFDF91CF911F912B
:104EC0000F91FF90EF90DF90CF900895C090E7137F
:104ED000D090E81323EE33E13A8329832F2D30E07D
:104EE0003C832B832E2D30E03E832D8318861F823A
:104EF0007A8769871C861B8600E815E29E012F5F72
:104F00003F4F43ED5EE1BC01C6010E94DBF3B601F9
:104F100083EE93E10F94A1078F819885C2CF809192
:104F2000DA049091DB04009731F04AE050E070E041
:104F300060E00D94FE1D60E070E0CB0108950F93DA
:104F40001F93CF938091DA049091DB040097E9F0EE
:104F5000FC018F01C1912C2F2F7D81F0C53411F000
:104F6000C536B9F7F801108270E060E00F947B1B42
:104F7000F801C083CF911F910F91089570E060E018
:104F8000CF911F910F910D947B1B60E070E0CB01DE
:104F9000F1CFCF92DF92EF92FF926A017B01CCD8E2
:104FA000882329F0FF90EF90DF90CF90C8CFC70102
:104FB000B601FF90EF90DF90CF9008954F925F92EF
:104FC0006F927F92AF92BF92CF92DF92EF92FF9259
:104FD0000F931F93CF938EE9A82E82E0B82E93EC07
:104FE000E92E95E0F92E08E612E02CE5C22E22E12A
:104FF000D22EC0E0F50181915F019ED8882309F48B
:1050000077C09DDF2B013C018C2F21D8882309F428
:1050100065C0F8012081318142815381C301B20111
:105020000F94BF26F7016083718382839383CF5FE0
:10503000F4E0EF0EF11C0C5F1F4F84E0C80ED11C92
:10504000C330C1F685E478D8882309F45CC077DFE3
:105050006B017C0183E00E942720882371F020915E
:105060007402309175024091760250917702C70127
:10507000B6010F94BF266B017C01C092CF05D09280
:10508000D005E092D105F092D20540E050E0BA019F
:1050900086E47FDF20E030E0A9010F94E6281816AF
:1050A0007CF44DDF20E030E040E752E40F949B2792
:1050B0006093290270932A0280932B0290932C0212
:1050C000CF911F910F91FF90EF90DF90CF90BF9005
:1050D000AF907F906F905F904F900895F601208180
:1050E000318142815381C301B2010F94BE269ACF10
:1050F000F80180819181A281B381F701808391833E
:10510000A283B38394CF8091740290917502A09191
:105110007602B09177028093CF059093D005A0934B
:10512000D105B093D205B1CF8091DA049091DB0420
:10513000009731F04AE050E070E060E00D94D11C3F
:1051400060E070E0CB010895EFDFCB010895ECDF64
:1051500097FD0AC0E9DF6F3F71058105910509F0F0
:105160002CF4E2DF862F089580E008958FEF0895F4
:10517000CF93C62F0E949C20882311F0CF91E7CFB8
:105180008C2FCF9108958091DA049091DB04892BC4
:1051900039F0DDDF91E0811101C090E0892F0895A1
:1051A00091E0FCCFCF93DF93C82FD62F0E949C2095
:1051B000882319F0DF91CF91E6CF8C2F0E944E20EB
:1051C000811101C08D2FDF91CF910895AF92BF92D1
:1051D000CF92DF92EF92FF920F931F93CF935C01D8
:1051E0006B018A0186539B4F7C01DC01CC91C7FF88
:1051F0003DC0FB0111821082CF5FD701CC93CC3030
:105200000CF053C08CE08A9DF0018B9DF00D1124B1
:10521000CF018C0F911DC7FD9A952091721328170D
:10522000190609F00CF441C0F60120813181FC011E
:10523000EE0FFF1FE80FF91FE65DFC4E81819281A2
:10524000820F931FD80111969C938E93808187FFC4
:105250003DC061E08F77CF911F910F91FF90EF904C
:10526000DF90CF90BF90AF900D9435038CE08A9D76
:10527000F0018B9DF00D1124CF018C0F911DC7FD06
:105280009A95209172132817190609F00CF4B4CFDF
:10529000FC01EE0FFF1FE80FF91FE65DFC4E808159
:1052A00060E08F770F943503A7CFF601808191815D
:1052B00004968034FCE99F0710F480E49CE9D8014F
:1052C00011969C938E938FEFF7018083CF911F915E
:1052D0000F91FF90EF90DF90CF90BF90AF90089527
:1052E000CF93DF93CDB7DEB720E2488559856F8134
:1052F0008E810E9472FFDF91CF9108950F931F93CB
:10530000522F2091DD133091DE132817390781F1D8
:105310001092D7052091A1053091A20537FF04C056
:105320001092A2051092A1059093DE138093DD13D5
:105330008B0130E020E000939707109398072093AB
:10534000990730939A0740939007509391078D5394
:10535000954421F41092AA051092A30582E080934F
:105360005F0281E08093A7071092A9051092A6051D
:105370001F910F91089520E040E070E060E08DE320
:1053800095E4BCCFCF930E9421C20E9448AAC82FA7
:10539000882319F080E00E94ACA98C2F0E94C621BE
:1053A000CF91E9CF89EB95E19093650780936407EE
:1053B000E2CFCF93DF93C091A305CC23B1F0C150CE
:1053C000C093A30589E0C89FE0011124C559DA4FB5
:1053D0006A817B812F814E81888199818FDF8885C9
:1053E0008093AA05DF91CF910895DF91CF91C3CF2C
:1053F000E091A305E63028F581E08E0F8093A305A8
:1054000040919707509198076091990770919A077A
:1054100020919007909191078091AA0539E0E39F30
:10542000F0011124E559FA4FA091DD13B091DE137C
:10543000B183A083428353836483758326839783D8
:105440008087089580938C0720E040E070E060E062
:1054500087E79EE253CFCF93DF93CDB7DEB78E8140
:10546000282F082E000C330B9091C01292171306B0
:1054700009F08CF48093C0129E01275F3F4F4F814B
:1054800058856AE270E085E992E10F94A51F1092B9
:10549000941210929312DF91CF9108950F931F935E
:1054A000CF93DF938C016F3F19F41092C01260E02C
:1054B0002091C012862F062E000C990B2817190672
:1054C00009F014F56093C012C8010F942C1F800FCF
:1054D000911FEC01C01BD10BCB32D1053CF00197E1
:1054E000FC012491207C2038D1F3F3CFDD27AE01DD
:1054F000B80185E992E10F944D1FCB56DD4E18821D
:105500001092941210929312DF91CF911F910F91EC
:105510000895CF9380916305811109C08BE594E1D3
:105520009093A5058093A40581E08093630560DFD7
:1055300020E040E070E060E081ED91E2DFDEC1E07C
:10554000C093AA050E94A1AD1092AA0532DFC093B4
:10555000AA0560E083E997E3A1DF87E594E19093F2
:10556000650780936407CF9108950F931F930F945D
:105570005B0400915E0510915F05209160053091FC
:105580006105601B710B820B930B97FD0CC0809122
:1055900009018095881F8827881F919B82604A9BFC
:1055A000846080935D0580915D05817090915D05BB
:1055B00091FD826090915C05981749F0813009F166
:1055C00048F0823079F0833091F080935C051F9130
:1055D0000F910895913079F09230B9F790915B0571
:1055E0009F5F0CC0992339F09330C1F3EECF913017
:1055F000A9F3923051F790915B05915090935B0520
:10560000E4CF992359F3933001F7F5CFCF92DF928E
:10561000EF92FF92CF93C82F0F945B046B017C0134
:1056200024EA30E74DE75FE36091230270912402A2
:1056300080912502909126020F94DD1F87FD18C0EE
:105640008AEF90E0A0E0B0E08C0D9D1DAE1DBF1D67
:1056500080934B0590934C05A0934D05B0934E0558
:10566000C0931902CF91FF90EF90DF90CF900895F3
:1056700080E090E0DC01E8CF8CDBEAE0F1E08081C3
:105680008F77808380910B018095807880930901CA
:105690009998A19A52985A9A68DF10925B050C94D7
:1056A0003FF4FC0180E0309749F09491992331F068
:1056B000907C903809F08F5F3196F7CF0895AF92C4
:1056C000BF92CF92DF92EF92FF920F931F93CF93EF
:1056D000DF93EC015B018A01FB01199587FD16C080
:1056E000C82ED12CF12CE12C2196F801C082D18258
:1056F000E282F382CE01DF91CF911F910F91FF9053
:10570000EF90DF90CF90BF90AF900895982F907E4C
:10571000903CA9F48F7190E0B0E0A0E06C017D01B5
:1057200056E0CC0CDD1CEE1CFF1C5A95D1F7CE01C7
:105730000196F50119958F73C82A2296D6CF982F16
:10574000907F903E11F58F7090E0B0E0A0E06C018A
:105750007D0136E0CC0CDD1CEE1CFF1C3A95D1F728
:10576000CE010196F50119958F73C82A46E0CC0C3D
:10577000DD1CEE1CFF1C4A95D1F7CE010296F50107
:1057800019958F73C82A2396B0CF982F987F903F92
:1057900079F5877090E0B0E0A0E06C017D0186E0D3
:1057A000CC0CDD1CEE1CFF1C8A95D1F7CE010196B6
:1057B000F50119958F73C82A96E0CC0CDD1CEE1C00
:1057C000FF1C9A95D1F7CE010296F50119958F73BA
:1057D000C82A26E0CC0CDD1CEE1CFF1C2A95D1F754
:1057E000CE010396F50119958F73C82A24967DCFB3
:1057F000982F907C903841F4807C803869F4219611
:10580000CE01F5011995F8CF8E7F8D3F28F02196B6
:10581000CE01F5011995F8CFC12CD12C760165CFB9
:105820009CE0899F802D112491E0980F90931005A2
:105830002CE0280F2093AD0730E02E5F3F4F4091C2
:1058400017144217130619F014F080E00895209100
:1058500019149217D0F7662341F08E5F0F94CF068C
:105860008091AD078E5F0F94CF068091AD07909128
:105870001714891750F320911914909110052917C6
:1058800020F310921A1480931B1481E00895209144
:105890000E05022E000C330B8217130641F0809385
:1058A0000E0566E476E183EE93E10D94A107089579
:1058B000EF92FF920F931F93CF93DF93CDB7DEB795
:1058C0002C970FB6F894DEBF0FBECDBFFC016081F0
:1058D0007181828193816F3F71058105910509F086
:1058E000B8F48FED93E16ED9E091E713F091E813EE
:1058F0003196849190E02C960FB6F894DEBF0FBEDF
:10590000CDBFDF91CF911F910F91FF90EF90089540
:1059100010911A1400911B142091110521110FC030
:1059200041E153E1602F812F0F94640890E080E003
:10593000180F10931A1400931B149927DCCFE090D2
:10594000E713F090E81323EE33E13A832983212F04
:1059500030E03C832B83202F30E03E832D8318865C
:105960001F822FEF3FEF3A8729871C861B8620E88E
:1059700035E2AE014F5F5F4FBF01C7010E9416F3D2
:10598000B70183EE93E10F94A1078F819885D0CF63
:105990004F925F926F927F928F929F92BF92CF921F
:1059A000DF92EF92FF920F931F93CF93DF9300D07C
:1059B00000D01F921F92CDB7DEB77C016A0149016A
:1059C000FB0190818CE0989F800D1124982FF701A6
:1059D0002081822F880F820F880F80931A14909352
:1059E0001B144115510569F1FA82E9827C836B83AE
:1059F000011120C0AE014B5F5F4FB401C6015FDEF5
:105A00006C018D819E81AF81B885892B8A2B8B2B70
:105A1000C1F0CE0105964CDFF70180818F5F808356
:105A2000853140F3CE0101960E94D91EE3CFB12CFF
:105A3000860129C08A01B12C26C04528462847285E
:105A4000B1F728960FB6F894DEBF0FBECDBFDF9139
:105A5000CF911F910F91FF90EF90DF90CF90BF906B
:105A60009F908F907F906F905F904F900895B39428
:105A700007C0B1102DC001151105C9F20F5F1F4FEE
:105A800001151105A9F2AE014B5F5F4FB401C601CC
:105A900016DE6C014D805E806F8078844114510465
:105AA00061047104A9F0F0E24F165104610471041D
:105AB00001F3D301C2018D97A109B1090297A10594
:105AC000B10530F04BE2441651046104710479F6DB
:105AD000F7018081482F4B0D5527551F4631510541
