:100000000C94E61B0C94261C0C94261C0C94261CA9
:100010000C94261C0C94261C0C94261C0C94261C58
:100020000C94261C0C94261C0C94261C0C94261C48
:100030000C94261C0D9455040C94261C0C94261C20
:100040000C94261C0C94B8A80C94261C0C94261C0A
:100050000C94261C0C9415A30C94261C0D940B04D4
:100060000C94261C0C94465B0C943C5B0C94261C54
:100070000C94261C0C94261C0C94261C0C94261CF8
:100080000C94664E0C94261C0C94261C0C94261C76
:100090000C94261C0C94261C0C94261C0C94261CD8
:1000A0000C94261C0C94261C0C94384E0C94261C84
:1000B0000C94261C0C94261C0C94261C0C94261CB8
:1000C0000C94261C0C94261C0C94261C0C94261CA8
:1000D0000C94261C0C94261C0C94261C0C94261C98
:1000E0000C94261C084AD73B3BCE016E84BCBFFD56
:1000F000C12F3D6C74319ABD56833DDA3D00C77FF8
:1001000011BED9E4BB4C3E916BAAAABE0000008090
:100110003F05A84CCDB2D44EB93836A9020C50B91F
:10012000918688083CA6AAAA2ABE000000803F004B
:100130000D943B030D9415030D9404030D94E902F3
:100140000D9423030D941F030D943F030D940F038F
:100150000D9408030D9427030D9431030D94190396
:100160000D9435030D94B9100D94EE020D942D03EA
:100170000D940C030D9400030D94AA194E414E49A1
:100180004E495459494E46CDCCCC3D0AD7233C1755
:10019000B7D13877CC2B329595E6241FB14F0A00A2
:1001A0000020410000C84200401C4620BCBE4CCA92
:1001B0001B0E5AAEC59D7400407A10F35A00A0720F
:1001C0004E18090010A5D4E80000E8764817000092
:1001D000E40B54020000CA9A3B000000E1F5050060
:1001E0000080969800000040420F000000A08601A9
:1001F000000000102700000000E803000000006479
:1002000000000000000A00000000000100000000E3
:10021000002C76D888DC674F0823DFC1DFAE59E1B8
:10022000B1B796E5E3E453C63AE651997696E8E627
:10023000C28426EB898C9B62ED407C6FFCEFBC9CFA
:100240009F40F2BAA56FA5F490055A2AF75C936B0C
:100250006CF9676DC11BFCE0E40D47FEF520E6B5C7
:1002600000D0ED902E0300943577050080841E08A1
:100270000000204E0A000000C80C333333330F98BF
:100280006E12831141EF8D2114893BE65516CFFE86
:10029000E6DB18D1844B381BF77C1D901DA4BBE412
:1002A00024203284725E228100C9F124ECA1E53D54
:1002B00027434F4D4D554E49434154494F4E0044FD
:1002C000525952554E004552524F525300494E46D4
:1002D0004F004543484F0053544F505045442E2043
:1002E000005072696E7465722073746F707065640B
:1002F0002064756520746F206572726F72732E2092
:1003000046697820746865206572726F7220616E2C
:100310006420757365204D39393920746F207265FA
:1003200073746172742E202854656D7065726174E7
:100330007572652069732072657365742E2053652C
:1003400074206974206166746572207265737461CB
:100350007274696E67290A004E6F20436865636B8B
:1003600073756D2077697468206C696E65206E7591
:100370006D6265722C204C617374204C696E653A15
:1003800020004E6F20436865636B73756D2077693D
:100390007468206C696E65206E756D6265722C20C4
:1003A0004C617374204C696E653A20006368656324
:1003B0006B73756D206D69736D617463682C204C6F
:1003C000617374204C696E653A20004C696E65203B
:1003D0004E756D626572206973206E6F74204C617A
:1003E0007374204C696E65204E756D6265722B3199
:1003F0002C204C617374204C696E653A20004D319D
:1004000031300053657269616C2073746174757367
:10041000206D69736D617463680A005344207265CE
:100420006164206572726F720A00746F6F206D755F
:10043000636820696E6163746976652074696D65AF
:10044000202D2063757272656E7420636F6D6D610F
:100450006E643A20002121204B494C4C2063617589
:100460007365642062792000627573793A20706147
:100470007573656420666F7220696E7075740A000A
:10048000627573793A2070617573656420666F7266
:1004900020757365720A00627573793A2070726F05
:1004A00063657373696E670A004D65646961205204
:1004B000656D6F766564004D6564696120496E7392
:1004C000657274656400506C656173652052657374
:1004D0006574005052494E5445522048414C544591
:1004E000440025533A202553004B494C4C45442E9B
:1004F00020005072696E7465722068616C74656466
:100500002E206B696C6C28292063616C6C656421FA
:100510000A00006563686F3A004572726F723A00B4
:100520004F4646004F4E000A0A426564204C6576ED
:10053000656C20436F7272656374696F6E204D61E4
:10054000747269783A000A436F7272656374656405
:1005500020426564204865696768742076732E20A0
:1005600042656420546F706F6C6F67793A0A000AB5
:100570004265642048656967687420546F706F67CE
:1005800072617068793A0A2020202B2D2D2D20428F
:1005900041434B202D2D2B0A2020207C2020202081
:1005A000202020202020207C0A204C207C2020207D
:1005B00020282B29202020207C20520A2045207C26
:1005C00020202020202020202020207C20490A20BC
:1005D00046207C20282D29204E20282B29207C20D5
:1005E000470A2054207C202020202020202020206A
:1005F000207C20480A2020207C20202020282D2913
:10060000202020207C20540A2020207C2020202014
:10061000202020202020207C0A2020204F2D2D204B
:1006200046524F4E54202D2D2B0A2028302C302995
:100630000A000A4D65616E206F662073616D706CF3
:10064000656420706F696E74733A200020643A20EC
:100650000020623A200045716E20636F656666690E
:100660006369656E74733A20613A200050726F625C
:10067000696E6720506F696E740025532025692FBD
:100680002569002E0A002F0050726F62696E672084
:100690006D65736820706F696E7420002028445265
:1006A0005952554E2900473239204175746F204206
:1006B0006564204C6576656C696E67003F20284C48
:1006C0002C522C462C4229206F7574206F662062B4
:1006D0006F756E64732E0A003F50726F62652070F2
:1006E0006F696E74732028592920696D706C61756B
:1006F0007369626C652028322D33292E0A003F5021
:10070000726F626520706F696E747320285829209B
:10071000696D706C61757369626C652028322D3368
:10072000292E0A003F2856296572626F7365206C76
:100730006576656C20696D706C61757369626C6556
:100740002028302D34292E0A0044657669617469A9
:100750006F6E0025533A2025730046696E697368F1
:100760006564210A003A207A3A2000206F66200052
:10077000476F696E6720746F3A20580043570A002C
:10078000206469723A0020616E676C653A005374A8
:10079000617274207261646975733A004D34382057
:1007A000506F696E740025533A2025642F2564002C
:1007B000506F736974696F6E696E67207468652025
:1007C00070726F62652E2E2E0A003F4C6567732093
:1007D0006F66206D6F76656D656E7420696D706CE7
:1007E00061757369626C652028302D3135292E0AB8
:1007F000003F2028582C5929206F7574206F6620DF
:10080000626F756E64732E0A0050726F6265206F9E
:100810007574206F6620626F756E6473003F53615C
:100820006D706C652073697A65206E6F7420706CD2
:1008300061757369626C652028342D3530292E0A64
:10084000004D3438205A2D50726F62652052657009
:100850006561746162696C69747920546573740AA6
:10086000003F2856296572626F7365206C65766556
:100870006C20696D706C61757369626C65202830DD
:100880002D34292E0A005374616E64617264204411
:100890006576696174696F6E3A20002052616E67F7
:1008A000653A2000204D61783A2000204D696E3A6B
:1008B0002000205369676D613A20004D65616E3AF2
:1008C0002000203B2058590A0020204D3835322086
:1008D0004900536B657720466163746F7200204452
:1008E0000020204D323030205300202844697361AD
:1008F000626C6564293A0046696C616D656E7420AE
:1009000073657474696E67730020204D3230312036
:1009100058004D617820416363656C65726174694C
:100920006F6E2028756E6974732F73322900202032
:100930004D3230332058004D617820666565647211
:10094000617465732028756E6974732F7329002094
:10095000520020204D323034205000416363656CDA
:1009600065726174696F6E2028756E6974732F7378
:1009700032292028503C7072696E742D6163636562
:100980006C3E20523C726574726163742D616363C6
:10099000656C3E20543C74726176656C2D616363B6
:1009A000656C3E2900204A0020540020530020207E
:1009B0004D323035204200416476616E63656420BB
:1009C00028423C6D696E5F7365676D656E745F7418
:1009D000696D655F75733E20533C6D696E5F66653A
:1009E0006564726174653E20543C6D696E5F74721B
:1009F0006176656C5F66656564726174653E204A08
:100A00003C6A756E635F6465763E29002044002071
:100A1000490020204D333031205000486F74656EFE
:100A200064205049440020496E76616C69642065F9
:100A300078747275646572200020746F6F206C6F1B
:100A40006E6720657874727573696F6E2070726559
:100A500076656E7465640A0020636F6C6420657847
:100A600074727573696F6E2070726576656E7465E9
:100A7000640A00536C6565702E2E2E005A20507249
:100A80006F62652050617374204265640A005A20C9
:100A900050726F6265205061737420426564004734
:100AA00032384C3000205A3A200020593A20004277
:100AB000656420583A2000436C69636B20746F2092
:100AC000526573756D652E2E2E004E6F204D6F761C
:100AD000652E00456E642066696C65206C697374D0
:100AE0000A00426567696E2066696C65206C6973EF
:100AF000740A004E6F206D656469610A00286E6F8C
:100B00002066696C65290043757272656E74206693
:100B1000696C653A20004E6F7420534420707269EE
:100B20006E74696E670A005344207072696E74694E
:100B30006E67206279746520002E0A0044656C653A
:100B400074696F6E206661696C65642C2046696CFF
:100B5000653A200046696C652064656C657465645F
:100B60003A002569730025696D20256973002569A0
:100B7000682025696D202569730025696420256931
:100B8000682025696D20256973002569792025690C
:100B900064202569682025696D20256973005072DD
:100BA000696E742074696D653A20006F6B006F6622
:100BB0006600D202CD02C602BF02B10244454255D0
:100BC000473A004D3131322053687574646F776E47
:100BD000004D3131332053004765656574656368A6
:100BE0002069332050726F2042204F46462E00432A
:100BF0004F4E4649475F4558504F5254004D45416E
:100C0000545041434B00434F4F4C45525F54454D68
:100C10005045524154555245004348414D4245527A
:100C20005F54454D50455241545552450042414252
:100C3000595354455050494E470041524353004D7B
:100C40004F54494F4E5F4D4F444553005448455211
:100C50004D414C5F50524F54454354494F4E00450F
:100C60005854454E4445445F4D323000435553542B
:100C70004F4D5F4649524D574152455F55504C4F7D
:100C80004144004C464E5F5752495445004C4F4E2C
:100C9000475F46494C454E414D45004155544F52E2
:100CA00045504F52545F53445F5354415455530081
:100CB00053445F57524954450052455045415400F2
:100CC0004D554C54495F564F4C554D450053444388
:100CD0004152440050524F4D50545F535550504F65
:100CE000525400484F53545F414354494F4E5F4361
:100CF0004F4D4D414E445300454D455247454E439F
:100D0000595F50415253455200434153455F4C494E
:100D10004748545F4252494748544E455353005444
:100D20004F47474C455F4C494748545300534F4643
:100D300054574152455F504F574552004255494C18
:100D4000445F50455243454E54004C4556454C492E
:100D50004E475F44415441005A5F50524F42450054
:100D600052554E4F5554004155544F4C4556454CE5
:100D7000005052494E545F4A4F420050524F475222
:100D8000455353004155544F5245504F52545F54B0
:100D9000454D50004155544F5245504F52545F50AD
:100DA0004F5300564F4C554D45545249430045450D
:100DB00050524F4D0042494E4152595F46494C45B1
:100DC0005F5452414E534645520053455249414C9F
:100DD0005F584F4E5F584F4646004649524D574167
:100DE00052455F4E414D453A4D61726C696E2032FD
:100DF0002E312E32202844656320313820323032A3
:100E0000322032323A32393A34332920534F555254
:100E100043455F434F44455F55524C3A6769746898
:100E200075622E636F6D2F4D61726C696E466972CB
:100E30006D776172652F4D61726C696E2050524FF3
:100E4000544F434F4C5F56455253494F4E3A312E03
:100E500030204D414348494E455F545950453A472B
:100E6000656565746563682069332050726F204240
:100E70002045585452554445525F434F554E543ABD
:100E80003120555549443A63656465326132662DB7
:100E9000343161322D343734382D396231322D639B
:100EA0003535633632663336376666002F2F004D90
:100EB00031343520533C696E6465783E206F75741B
:100EC000206F662072616E67652028302D31290AF7
:100ED000003F4A206F7574206F662072616E6765EF
:100EE0002028302E303120746F20302E33290A0014
:100EF0002058003B200020204D61783A200020003F
:100F000020204D696E3A2000203B200020204D32E9
:100F1000313120530046523A0020466C6F773A2018
:100F2000003A200020536572766F2000206F7574A0
:100F3000206F662072616E67650A00536572766F76
:100F4000200064697300656E0043290A0061626CC9
:100F5000656420286D696E2074656D702000436F94
:100F60006C642065787472756465732061726520A5
:100F700000426564204C6576656C696E67200046AA
:100F800061696C656420746F20656E61626C6520B8
:100F9000426564204C6576656C696E670A0042653F
:100FA00064204C6576656C20436F7272656374696A
:100FB0006F6E204D61747269783A004F6666736592
:100FC0007473204170706C696564004572723A20D8
:100FD000546F6F206661722100546F6F20666172DA
:100FE0002066726F6D207265666572656E6365203E
:100FF000706F696E740A00454550524F4D204F4B3B
:101000000A00290A0020746F20003F5A206F75746F
:10101000206F662072616E6765202800290A002013
:10102000746F20003F59206F7574206F66207261C5
:101030006E676520282D00290A0020746F20003F6C
:1010400058206F7574206F662072616E6765202866
:101050002D006D696E5F736B65775F666163746F9A
:10106000723A20202D31206D61785F736B65775F58
:10107000666163746F723A2020310A004D38340083
:10108000446F6E65207072696E74696E6720666960
:101090006C650A004D3737004D333100496E76617B
:1010A0006C69642065787472756465720A0020202A
:1010B0004D323036205800486F6D65206F6666737C
:1010C0006574004361703A0047322F4733206261F4
:1010D0006420706172616D65746572730A00203BF3
:1010E0000020204D3835312058005A2D50726F6243
:1010F00065204F66667365740020573A00436F6F32
:101100006C696E672E2E2E00453120255300205726
:101110003A0042656420436F6F6C696E672E2E2E15
:10112000004265642048656174696E672E2E2E004A
:10113000206661696C656421204261642068656194
:101140007465722069640A00504944204175746FC7
:1011500074756E650023646566696E652044454656
:1011600041554C545F004B6420004B6920004B708C
:1011700020002066696E697368656421205075746B
:1011800020746865206C617374204B702C204B694F
:1011900020616E64204B6420636F6E7374616E74A3
:1011A000732066726F6D2062656C6F7720696E7454
:1011B0006F20436F6E66696775726174696F6E2E1A
:1011C000680A00504944204175746F74756E65005B
:1011D000206661696C6564212074696D656F757442
:1011E0000A00504944204175746F74756E65002083
:1011F0006661696C6564212054656D706572617407
:1012000075726520746F6F20686967680A005049BD
:1012100044204175746F74756E65005049442043D5
:1012200079636C65730025532025692F256900209B
:101230004B643A2000204B693A2000204B703A2042
:101240000020436C617373696320504944200A0095
:101250002054753A2000204B753A2000206D6178AB
:101260003A2000206D696E3A200020643A20002068
:10127000626961733A200048656174696E672E2E59
:101280002E002073746172740A0050494420417525
:10129000746F74756E6500206661696C65642120E9
:1012A00054656D706572617475726520746F6F201E
:1012B000686967680A00504944204175746F747505
:1012C0006E6500504944204175746F74756E6500F9
:1012D0004572723A207574663820666F6E74206E9F
:1012E0006F7420696E697469616C697A65642E0037
:1012F0004572723A207574663820666F6E74206E7F
:101300006F7420696E697469616C697A65642E0016
:101310004572723A207574663820666F6E74206E5E
:101320006F7420696E697469616C697A65642E00F6
:1013300020003A003A002568753A25303268750079
:1013400025303268753A25303268750025303268AC
:101350007527253032687500256875642025303280
:1013600068753A25303268750042656400456E63E1
:101370006C6F7375726500450020002500202020E9
:1013800020202020002020202000657272001FE015
:10139000201020102010102010202010201030309D
:1013A0000840048003001FE03FF03FF03FF01FE0E3
:1013B0001FE03FF03FF03FF00FC0078003003FFF0A
:1013C000F038007030FC3020FC10207810203010F5
:1013D0002C00D02E31D02F7BD02F7BD02E31D02C93
:1013E00000D020301020781020FC1030FC30380065
:1013F000703FFFF03FFFF0380070318630238710D8
:101400002787902F87D02F03D020301020781020EE
:1014100078102030102F03D02F87D0278790238774
:10142000103186303800703FFFF01FFFF81FFFF8C3
:1014300004104002082002082004104008208010F8
:1014400041001041000820800410400000001FFFF0
:10145000F81FFFF85072696E742041626F727465F4
:1014600064004D32350050617573696E672E2E2E03
:10147000004D323400454550524F4D205665727331
:10148000696F6E204572726F7200454550524F4D24
:1014900020496E646578204572726F720045455030
:1014A000524F4D20435243204572726F72003F00ED
:1014B00049676E6F726500526573657400496E69A5
:1014C0007469616C697A6520454550524F4D0046FC
:1014D000696C2E204469612E004520696E206D6D77
:1014E0005E330020082046616374002008204D61AF
:1014F00078002008204D696E004F6666004F6E0030
:101500004175746F74656D70004D696E2054726121
:1015100076656C205370656564004D696E20566574
:101520006C6F63697479004D617820402053706559
:101530006564004D6178204520416363656C004D12
:101540006178204020416363656C00547261766568
:101550006C20416363656C00526574726163742032
:10156000416363656C00416363656C0050726F6238
:1015700065205A204F66667365740050726F62650D
:101580002059204F66667365740050726F62652043
:1015900058204F66667365740040207374657073DD
:1015A0002F6D6D00416476616E63656420536574D0
:1015B00074696E6773003F0043616E63656C004938
:1015C0006E6974004D34323800496E697469616C1B
:1015D000697A6520454550524F4D0046696C616DF2
:1015E000656E740054656D70657261747572650026
:1015F00053746570732F6D6D0050726F6265204F6C
:10160000666673657473004A756E6374696F6E20E5
:1016100044657600416363656C65726174696F6EE1
:10162000004D617820537065656420286D6D2F73BF
:10163000290053657420486F6D65204F6666736599
:10164000747300436F6E66696775726174696F6E5B
:1016500000000C0F00FE07022503BB017FFE08FE01
:1016600008FE05080806000040F0C8888898781031
:10167000050808060000C0F88888888888F80505ED
:10168000050600012030F83020050808060000207B
:1016900070F820202020E00509090600FF2070A82E
:1016A000A8B888887020070505070001D86C366C3B
:1016B000D80509090600FFF8A88888888888A8F84E
:1016C000050A0A0600FE205050505088A8A88870CD
:1016D00003030306000340A040FFFFFFFFFFFFFFDF
:1016E000FFFFFFFFFFFFFFFFFFFFFFFFFFFFFF0009
:1016F00000000605FF010707060200808080808049
:101700000080030303060105A0A0A005060606004D
:101710000050F85050F8500509090600FF2070A845
:10172000A07028A87020050707060000C8C8102070
:1017300040989805070706000040A0A040A89068C0
:101740000103030602058080800309090601FF20CA
:1017500040408080804040200309090601FF80400E
:101760004020202040408005070706000020A87088
:101770002070A8200505050600012020F820200281
:1017800003030601FFC04080050101060003F802C3
:101790000202060100C0C00507070600000810107D
:1017A00020404080050707060000708898A8C88878
:1017B0007003070706010040C040404040E00507B5
:1017C00007060000708808102040F805070706008B
:1017D00000F8081030088870050707060000103070
:1017E0005090F81010050707060000F880F0080870
:1017F0008870050707060000304080F08888700573
:101800000707060000F8081010202020050707062B
:1018100000007088887088887005070706000070CF
:10182000888878081060020505060100C0C000C065
:10183000C00206060601FFC0C000C04080030505C7
:101840000601012040804020050303060002F80045
:10185000F8030505060101804020408005070706C2
:101860000000708810202000200507070600007087
:1018700088B8A8B88070050707060000708888F847
:10188000888888050707060000F04848704848F037
:1018900005070706000070888080808870050707AC
:1018A000060000F04848484848F0050707060000D1
:1018B000F88080F08080F8050707060000F8808037
:1018C000F080808005070706000070888080988877
:1018D00070050707060000888888F888888803074D
:1018E00007060100E04040404040E00507070600D1
:1018F000003810101010906005070706000088904F
:10190000A0C0A09088050707060000808080808026
:1019100080F805070706000088D8A8888888880509
:1019200007070600008888C8A89888880507070662
:10193000000070888888888870050707060000F016
:101940008888F080808005070706000070888888F6
:10195000A89068050707060000F08888F0A0908826
:101960000507070600007088807008887005070763
:10197000060000F820202020202005070706000090
:101980008888888888887005070706000088888806
:101990008850502005070706000088888888A8A876
:1019A00050050707060000888850205088880507E2
:1019B0000706000088885020202020050707060021
:1019C00000F80810204080F80309090601FFE080B4
:1019D000808080808080E00507070600008040400E
:1019E000201010080309090601FFE0202020202014
:1019F0002020E005030306000520508805010106AC
:101A000000FEF803030306010580402005050506D6
:101A1000000070087888780507070600008080F0CD
:101A2000888888F0050505060000708080887005AC
:101A300007070600000808788888887805050506E5
:101A400000007088F08070050707060000304840ED
:101A5000E04040400507070600FE70888888780847
:101A6000700507070600008080F0888888880307D3
:101A7000070601004000C0404040E004090906019B
:101A8000FE100030101010109060050707060000CF
:101A900080808890E09088030707060100C04040DE
:101AA000404040E0050505060000D0A8A8A8A8050C
:101AB0000505060000B0C8888888050505060000F1
:101AC00070888888700507070600FEF0888888F00F
:101AD00080800507070600FE788888887808080552
:101AE0000505060000B0C8808080050505060000D9
:101AF00078807008F00507070600002020F82020F5
:101B000020180505050600008888889868050505E1
:101B10000600008888885020050505060000888892
:101B2000A8A8500505050600008850205088050724
:101B3000070600FE888888502040800505050600BD
:101B400000F8102040F80309090601FF204040403A
:101B500080404040200109090602FF80808080808B
:101B6000808080800309090601FF804040402040BA
:101B700040408005030306000248A890FF414253FD
:101B8000005045544700504C41003F004E6578746A
:101B900020506F696E7400446F6E65004E657874F6
:101BA00000486F6D696E672058595A0053746F7200
:101BB000652053657474696E6773004C6F616420AF
:101BC00053657474696E6773004265642054726172
:101BD0006D6D696E670050726F6265205A204F66A6
:101BE00066736574004F6666004F6E004265642040
:101BF0004C6576656C696E67004C6576656C204255
:101C00006564004732394E00473239004175746FC0
:101C100020486F6D65004D6F74696F6E0053572DCE
:101C20004D6F64650053746F77004465706C6F7915
:101C30000053656C662D546573740052657365744A
:101C400000426564004E6F7A7A6C650046616E20D2
:101C5000537065656400436F6E6669677572617481
:101C6000696F6E00526573746F72652044656661BA
:101C7000756C7473004C6F61642053657474696E85
:101C800067730053746F72652053657474696E676F
:101C9000730050726568656174202420436F6E661E
:101CA00000424C546F7563680050726F6265205A31
:101CB000204F666673657400416476616E63656487
:101CC0002053657474696E6773004D61696E003FDF
:101CD000004261636B0053746F70004E6F204D655E
:101CE000646961005072696E742066726F6D204D78
:101CF00065646961004368616E6765204D6564696C
:101D000061004D323100436F6E66696775726174B0
:101D1000696F6E0054656D706572617475726500EF
:101D20004D6F74696F6E00526573756D65205072EA
:101D3000696E740054756E650053746F7020507234
:101D4000696E74005061757365205072696E74001D
:101D5000496E666F2053637265656E003F00537471
:101D6000617274205072696E740043616E63656CB9
:101D7000005072696E740043616E6E6F7420656E00
:101D8000746572207375626469723A200002202EB5
:101D90002E004D61696E002100486F74656E6420ED
:101DA000746F6F20636F6C64004261636B005072EC
:101DB0006F63656564004D6F766520457874727554
:101DC000646572004D6F74696F6E0044697361627F
:101DD0006C65205374657070657273004D38340003
:101DE0004D34382050726F6265205465737400471B
:101DF00032384F0A4D34382050313000426564206B
:101E00004C6576656C696E67004732385A00473218
:101E1000385900486F6D65204000473238580041FE
:101E200075746F20486F6D6500473238004D6169E9
:101E30006E005072656865617420242042656400FC
:101E400050726568656174202420456E6400546595
:101E50006D706572617475726500861B811B7D1BD8
:101E6000436F6F6C646F776E005072656865617464
:101E700020240046616E20537065656400426564ED
:101E8000004E6F7A7A6C65004D61696E00466C6F2A
:101E9000770046616E20537065656400426564009A
:101EA0004E6F7A7A6C65005370656564004D6169A8
:101EB0006E006F70656E0054524947474552454465
:101EC000003A20007A5F6D696E00795F6D696E007F
:101ED000785F6D696E005265706F7274696E67200D
:101EE000656E6473746F70207374617475730A0027
:101EF000486F6D65202573257325732046697273BD
:101F0000740000002041000020C100000000576163
:101F1000726E696E673A20486F6D696E6720427510
:101F20006D702044697669736F72203C20310A001D
:101F300002020400003A4300003B43000039430022
:101F400000A0400000A04000000040000000010090
:101F5000000001000080005555550000004000338E
:101F6000333300AAAA2A004992240000002000C7A7
:101F7000711C0099991900D1451700555515003B62
:101F8000B113002449120011111100000010000FBC
:101F90000F0F00E3380E0043790D00CCCC0C00C3CA
:101FA000300C00E8A20B0064210B00AAAA0A007002
:101FB0003D0A009DD80900427B090092240900DCFB
:101FC000D30800888808001042080000000800F0CC
:101FD000C107008787070075500700711C07003E86
:101FE000EB0600A1BC06006990060066660600705C
:101FF0003E06006118060017F4050074D105005B69
:10200000B00500B2900500627205005555050078D4
:10201000390500B81E0500050505004EEC040087D3
:10202000D40400A1BD040090A7040049920400C19B
:102030007D0400EE690400C7560400444404005CBB
:102040003204000821040041100400000004003F95
:10205000F00300F8E0030026D20300C3C30300CC62
:10206000B503003AA803000A9B0300388E0300C0A2
:102070008103009F750300D0690300505E03001DBB
:1020800053030034480300913D030033330300162B
:10209000290300381F030097150300300C030003C9
:1020A0000303000BFA020049F10200BAE802005CE7
:1020B000E002002DD802002DD0020059C80200B065
:1020C000C0020031B90200DAB10200AAAA0200A0DF
:1020D000A30200BC9C0200FA9502005C8F0200DFA4
:1020E00088020082820200457C02002776020027D7
:1020F000700200436A02007C640200D05E02003F6E
:10210000590200C8530200FFFDFCFAF8F6F4F2F0A1
:10211000EEECEAE9E7E5E3E1E0DEDCDAD9D7D5D4B5
:10212000D2D0CFCDCBCAC8C7C5C3C2C0BFBDBCBA51
:10213000B9B7B6B4B3B2B0AFADACAAA9A8A6A5A4BE
:10214000A2A1A09E9D9C9A99989795949392908F06
:102150008E8D8B8A8988878684838281807F7E7D2D
:102160007B7A797877767574737271706F6E6D6C37
:102170006B6A696867666564636261605F5E5D5C27
:102180005B5A5958585756555453525150504F4E08
:102190004D4C4B4A4A4948474646454443424241D2
:1021A000403F3E3E3D3C3B3B3A393838373635358B
:1021B000343332323130302F2E2E2D2C2B2B2A2936
:1021C0002928272726252524232322212120201FD3
:1021D0001E1E1D1C1C1B1B1A191918181716161564
:1021E0001514131312121111100F0F0E0E0D0D0CEA
:1021F0000C0B0A0A09090808070706060505040466
:102200000303020201000053544F505045442E2056
:10221000005072696E7465722073746F70706564BB
:102220002064756520746F206572726F72732E2042
:1022300046697820746865206572726F7220616EDD
:102240006420757365204D39393920746F207265AB
:1022500073746172742E202854656D706572617498
:102260007572652069732072657365742E205365DD
:10227000742069742061667465722072657374617C
:102280007274696E67290A00206572726F72202D60
:1022900020726573746172742077697468204D3997
:1022A00039390A00424C546F75636800212120536C
:1022B000544F502063616C6C656420626563617586
:1022C0007365206F66200000004443000031430026
:1022D00000394300002041000020C10000000053ED
:1022E000657474696E67732053746F726564002936
:1022F0000A002062797465733B2063726320005387
:10230000657474696E67732053746F7265642028F6
:102310000048617264636F6465642044656661753A
:102320006C742053657474696E6773204C6F6164BC
:1023300065640020286D6D2900203B204C65766582
:102340006C696E67200020204D34323020530041EC
:1023500075746F20426564204C6576656C696E67A4
:102360000020460020420020480020204D31343516
:102370002053004D6174657269616C2068656174F9
:10238000757020706172616D6574657273002020D4
:102390004D3134392043203B20556E6974732069D8
:1023A0006E2043656C736975730A0054656D7065C2
:1023B00072617475726520556E69747300202047D0
:1023C0003231203B004C696E65617220556E697434
:1023D0007300454550524F4D206461746173697AB2
:1023E00065206572726F722E0A00290A00206279D8
:1023F0007465733B2063726320002073746F726591
:10240000642073657474696E677320726574726991
:1024100065766564202800202863616C63756C61B3
:1024200074656429210A0020213D20004545505251
:102430004F4D20435243206D69736D617463682072
:102440002D202873746F7265642920002053697AE7
:10245000653A2000496E6465783A20000000C84360
:102460000000C84300000040000034420000A342C6
:102470000000A3425258C8430000D842881300000D
:10248000881300004B00000088130000204D61728B
:102490006C696E3D563837290A00454550524F4DFC
:1024A0002076657273696F6E206D69736D617463F8
:1024B000682028454550524F4D3D0020436F756EB2
:1024C0007420583A00426564004531004500626559
:1024D00064002C2073797374656D2073746F707051
:1024E000656421204865617465725F49443A200043
:1024F0004572723A204D415854454D50004D415857
:1025000054454D5020747269676765726564004870
:10251000656174696E67204661696C656400486531
:102520006174696E67206661696C656400457272EA
:102530003A204D494E54454D50004D494E54454D5D
:10254000502074726967676572656400544845522B
:102550004D414C2052554E415741590054686572C7
:102560006D616C2052756E6177617900202F0020BB
:1025700042403A0020403A000009121B242D363F09
:1025800048415A536C657E7719100B023D342F2653
:102590005158434A757C676E323B2029161F040D43
:1025A0007A7368615E574C452B2239300F061D1433
:1025B000636A7178474E555C646D767F4049525B23
:1025C0002C253E3708011A137D746F6659504B4213
:1025D000353C272E1118030A565F444D727B606903
:1025E0001E170C053A3328214F465D546B627970F3
:1025F000070E151C232A31384148535A656C777EE3
:1026000009001B122D243F3658514A437C756E67D2
:102610001019020B343D262F737A6168575E454CC2
:102620003B3229201F160D046A6378714E475C55B2
:10263000222B3039060F141D252C373E0108131AA2
:102640006D647F7649405B523C352E2718110A0392
:10265000747D666F5059424B171E050C333A212882
:102660005F564D447B7269600E071C152A23383172
:10267000464F545D626B7079000021104220633038
:102680008440A550C660E770088129914AA16BB1CA
:102690008CC1ADD1CEE1EFF1311210027332522272
:1026A000B5529442F772D662399318837BB35AA31A
:1026B000BDD39CC3FFF3DEE3622443342004011442
:1026C000E664C774A44485546AA54BB5288509956A
:1026D000EEE5CFF5ACC58DD5533672261116300612
:1026E000D776F6669556B4465BB77AA719973887BA
:1026F000DFF7FEE79DD7BCC7C448E5588668A778D2
:102700004008611802282338CCC9EDD98EE9AFF909
:10271000488969990AA92BB9F55AD44AB77A966AB1
:10272000711A500A333A122AFDDBDCCBBFFB9EEB59
:10273000799B588B3BBB1AABA66C877CE44CC55C81
:10274000222C033C600C411CAEED8FFDECCDCDDDA9
:102750002AAD0BBD688D499D977EB66ED55EF44E51
:10276000133E322E511E700E9FFFBEEFDDDFFCCFF9
:102770001BBF3AAF599F788F8891A981CAB1EBA14D
:102780000CD12DC14EF16FE18010A100C230E320C9
:102790000450254046706760B9839893FBA3DAB371
:1027A0003DC31CD37FE35EF3B1029012F322D23219
:1027B0003542145277625672EAB5CBA5A895898541
:1027C0006EF54FE52CD50DC5E234C324A014810469
:1027D0006674476424540544DBA7FAB79987B89711
:1027E0005FE77EF71DC73CD7D326F2369106B016B9
:1027F00057667676154634564CD96DC90EF92FE9D1
:10280000C899E9898AB9ABA9445865480678276808
:10281000C018E1088238A3287DCB5CDB3FEB1EFBB0
:10282000F98BD89BBBAB9ABB754A545A376A167A58
:10283000F10AD01AB32A923A2EFD0FED6CDD4DCD80
:10284000AABD8BADE89DC98D267C076C645C454CA8
:10285000A23C832CE01CC10C1FEF3EFF5DCF7CDF50
:102860009BAFBABFD98FF89F176E367E554E745EF8
:10287000932EB23ED10EF01E7C3C3E5E2B3D3F2F90
:102880005B5D3B2C2A225C004D6564696120496ECA
:102890006974204661696C0053442063617264204E
:1028A0006F6B0A006F70656E526F6F74206661699E
:1028B0006C65640A00766F6C756D652E696E69745F
:1028C000206661696C65640A004E6F205344206382
:1028D0006172640A00534420636172642072656C03
:1028E00065617365640A000A4D3234004D3233204D
:1028F0002573002E0A006F70656E206661696C6535
:10290000642C2046696C653A200046696C6520732A
:10291000656C65637465640A002053697A653A20C2
:102920000046696C65206F70656E65643A200045ED
:102930004E4420535542524F5554494E450A0022A9
:1029400020706F73002220706172656E743A2200ED
:10295000535542524F5554494E452043414C4C200B
:102960007461726765743A220053756263616C6CBE
:10297000204F766572666C6F770045786365656495
:102980006564206D617820535542524F5554494E2D
:10299000452064657074683A0057726974696E679F
:1029A00020746F2066696C653A20006672657368F2
:1029B00000646F696E67002066696C653A20004E9E
:1029C0006F7720002F6175746F25632E6700026D8D
:1029D00061726C696E66772E6F726700322E312ECF
:1029E00032001FFFFFFFFFFFFF600000000001FF3C
:1029F000400000000000FF8000000000007F83CF47
:102A000000000C303F87FF80000C301F867980006B
:102A10000C000F8C30C7838C30E78C30CFC7CC31A3
:102A2000F38C30DCECEC33B98C30D86C6C33198C13
:102A300030D06C0C33198C30D86C0C33198C30DCE2
:102A40006C0E3B198C30CF7C079F198C30C77C03F0
:102A50008F19400000000000026000000000000626
:102A60001FFFFFFFFFFFF870012C0190012701B04D
:102A7000012201C0011D01F00118011002130130F3
:102A8000020E016002090190020401C002FF000071
:102A900003FA004003F5008003F000D003EB0020B0
:102AA00004E6007004E100E004DC004005D700C04B
:102AB00005D2004006CD00D006C8008007C3003014
:102AC00008BE00F008B900C009B400B00AAF00B0F9
:102AD0000BAA00D00CA500000EA000500F9B00C058
:102AE0001096005012910000148C00C0158700B0A1
:102AF000178200B0197D00D01B7800001E730040C3
:102B0000206E0090226900F024640040275F00904E
:102B1000295A00E02B5500102E500020304B001099
:102B2000324600E033410090353C001037370070EA
:102B3000383200A0392D00B03A2800A03B230060B5
:102B40003C1E00103D1900903D1400103E0F007017
:102B50003E0A00C03E0500003F0000403FFBFF80F2
:102B60003FF6FFC03FF1FF2020506C616E6E657232
:102B700042756666657242797465733A2000204634
:102B8000726565204D656D6F72793A200020436F44
:102B90006D70696C65643A20446563203138203279
:102BA0003032320A00204C617374205570646174B5
:102BB00065643A20323032322D30382D3036207C68
:102BC00020417574686F723A206A6F6E7361670A8C
:102BD000004D61726C696E20322E312E320A002057
:102BE000536F6674776172652052657365740A006D
:102BF000205761746368646F672052657365740A57
:102C0000002042726F776E206F7574205265736575
:102C1000740A002045787465726E616C2052657389
:102C200065740A00506F77657255700A007374619D
:102C300072740A004732385859004D313030310033
:102C40006F6B006572726F722077726974696E675C
:102C500020746F2066696C650A00446F6E6520738E
:102C60006176696E672066696C652E0A004D32399F
:102C700000456E6473746F707300255320256320C4
:102C8000256320256320256300205A3A0020593A05
:102C90000020583A00656E6473746F707320686921
:102CA000743A200000000A0B02090C0D0E080703FD
:102CB000040100000000000000000000000000000F
:102CC0000000000000000000000000000000000004
:102CD00012111000000000000000000000000000C1
:102CE0000000000000000000000024F404D9201BB4
:102CF000C40C5C0E9804C4095F0265077101F405F9
:102D0000F900FB04B30048048700C10369005803BD
:102D1000550003034500BE023A008402310053020D
:102D20002A002902250004022000E4011C00C80139
:102D30001900AF01170098011400840113007101FC
:102D400010006101100051010E0043010D00360119
:102D50000B002B010B0020010B00150109000C01D9
:102D6000090003010800FB000800F3000800EB0065
:102D70000700E4000600DE000600D8000600D200CE
:102D80000600CC000500C7000500C2000500BD001C
:102D90000400B9000400B5000400B1000400AD0057
:102DA0000400A9000400A5000300A20003009F0086
:102DB00004009B00030098000300950002009300AC
:102DC0000300900003008D0002008B0003008800C8
:102DD00002008600020084000300810002007F00E0
:102DE00002007D0002007B000200790002007700F3
:102DF0000100760002007400020072000100710000
:102E000002006F0002006D0001006C0002006A0009
:102E10000100690002006700010066000100650012
:102E20000100640002006200010061000100600016
:102E300001005F0002005D0001005C0001005B001A
:102E400001005A000100590001005800010057001C
:102E5000010056000100550001005400010053001C
:102E60000000530001005200010051000100500019
:102E700001004F0001004E0000004E0001004D0017
:102E800001004C0001004B0000004B0001004A0013
:102E9000010049000100480000004800010047000F
:102EA000010046000000460001004500000045000A
:102EB0000100440001004300000043000100420003
:102EC00000004200010041000000410001004000FC
:102ED00001003F0000003F0001003E0000003E00F6
:102EE00001003D0000003D0001003C0000003C00EE
:102EF00000003C0001003B0000003B0001003A00E4
:102F000000003A00010039000000390001003800DB
:102F100000003800000038000100370000003700D2
:102F200001003600000036000000360001003500C8
:102F300000003500000035000100340000003400BE
:102F400000003400010033000000330000003300B3
:102F500001003200000032000000320001003100A8
:102F6000000031000000310001003000000030009E
:102F70000000300001002F0000002F0000002F0093
:102F800000002F0001002E0000002E0000002E0087
:102F900001002D0000002D0000002D0000002D007C
:102FA00001002C0000002C0000002C0000002C0070
:102FB00001002B0000002B0000002B0000002B0064
:102FC00001002A0000002A0000002A0000002A0058
:102FD000010029000000290000002900000029004C
:102FE000000029000100280000002800000028003F
:102FF0000000280000002800010027000000270032
:103000000000270000002700000027000100260024
:103010000000260000002600000026000000260018
:10302000010025000000250000002500000025000B
:1030300000002500000025000100240000002400FD
:1030400000002400000024000000240001002300F0
:1030500000002300000023000000230000002300E4
:1030600000002300000023000100220000002200D5
:1030700000002200000022000000220000002200C8
:1030800001002100000021000000210000002100BB
:1030900000002100000021000000210001002000AC
:1030A00000002000000020000000200000002000A0
:1030B00000002000000020000000200001001F0090
:1030C00000001F0000001F0000001F0000001F0084
:1030D00000001F0000001F0001001E0000001E0075
:1030E00000001E0000001E00000024F4D43050C375
:1030F0008E20C2A24017828B7011127A910D816CC2
:10310000D90AA861E108C7586607615143061E4BFA
:103110005D05C145A7041A411104093D98037139A1
:1031200031034036DB0265339102D4305402802EE5
:103130001D02632CEE01752AC501B028A0011027DD
:1031400081018F2564012B244B01E0223401AC2145
:103150001F018D200D01801FFC00841EED00971DB6
:10316000DF00B81CD200E61BC600201BBC00641A9E
:10317000B200B219A8000A19A0006A189900D11764
:10318000910040178B00B516840031167E00B315F0
:1031900079003A157300C7146F0058146A00EE13D3
:1031A00066008813630025135E00C7125B006C1273
:1031B000570015125400C111510070114F00211118
:1031C0004B00D61049008D104700461044000210F5
:1031D0004200C00F4000800F3E00420F3C00060F2F
:1031E0003B00CB0E3800930E37005C0E3500270EE7
:1031F0003400F30D3200C10D3100900D3000600D30
:103200002E00320D2D00050D2C00D90C2B00AE0C1C
:103210002900850C29005C0C2700350C27000E0CBA
:103220002600E80B2400C40B2400A00B23007D0B18
:1032300023005A0B2100390B2100180B2000F80A3B
:103240001F00D90A1E00BB0A1E009D0A1D00800A2D
:103250001D00630A1C00470A1B002C0A1B00110AF0
:103260001A00F7091A00DD091900C4091900AB0991
:103270001900920917007B091800630917004C090F
:10328000160036091600200916000A091500F5086F
:103290001500E0081400CC081400B8081400A408B5
:1032A0001400900813007D0812006B0813005808E2
:1032B00012004608120034081100230811001208F9
:1032C000110001081100F0071000E0071000D007FE
:1032D0001000C0071000B0070F00A10710009107F1
:1032E0000E0083070F0074070F0065070E005707D5
:1032F0000E0049070E003B070D002E070E002007A9
:103300000D0013070D0006070D00F9060C00ED0671
:103310000D00E0060C00D4060C00C8060C00BC062C
:103320000C00B0060C00A4060B0099060C008D06DC
:103330000B0082060B0077060B006C060B00610683
:103340000A0057060B004C060A0042060A0038061F
:103350000A002E060A0024060A001A060A001006B1
:10336000090007060A00FD050900F4050900EB0540
:103370000900E2050900D9050900D0050900C705C3
:103380000900BE050900B5050800AD050800A50542
:1033900009009C050800940508008C0508008405B8
:1033A00008007C050800740508006C050700650529
:1033B00008005D050700560508004E050700470593
:1033C00007004005080038050700310507002A05F9
:1033D0000700230507001C050600160507000F055A
:1033E00007000805060002050700FB040600F504B7
:1033F0000700EE040600E8040600E2040700DB0410
:103400000600D5040600CF040600C9040600C30464
:103410000600BD040600B7040600B1040500AC04B4
:103420000600A6040600A00405009B0406009504FF
:103430000500900406008A04050085040500800448
:1034400006007A04050075040500700405006B048D
:10345000050066040500610405005C0405005704CE
:103460000500520405004D0405004804050043040E
:1034700005003E0404003A0405003504050030044C
:1034800004002C04050027040400230405001E0486
:1034900004001A04040016040500110404000D04BD
:1034A0000400090405000404040000040400FC03F3
:1034B0000400F8030400F4030400F0030400EC0328
:1034C0000400E8030400E4030400E0030400DC0358
:1034D0000400D8030400D4030400D0030400CC0388
:1034E0000400C8030300C503030056290000691B3C
:1034F00000006010000012090000CC0400007802F7
:10350000000040010000A10000004D6F76652024FE
:103510006D6D00302E303235004D6F766520302EC7
:10352000316D6D004D6F766520316D6D004D6F769C
:10353000652031306D6D004D6F766520417869737F
:10354000004D6F7665202A004D6F76652040002083
:10355000002000200020002000486F6D696E672069
:103560004661696C656400FFFFFF43616E6E6F74B6
:10357000206F70656E2073756264697220005072EE
:103580006F62696E67204661696C65640A005072FB
:103590006F62696E67204661696C656400205A3A03
:1035A000200020593A200042656420583A20002229
:1035B0000A00556E6B6E6F776E20636F6D6D616E76
:1035C000643A202200204500205A00205900202083
:1035D0004D39322058005374657073207065722025
:1035E000756E697400DB0FC93F45BCDA3F8FB302CB
:1035F00040FCF0274056946140FE4B9B4084A5D888
:1036000040E0231841346A5641E859974164DBD5BC
:10361000416E271742B4B75542CE1A9742C8AED56D
:1036200042B5885A43D40684BFA65FA7BF7443E05F
:10363000BF10B11AC01C2C58C0E8F697C0B849D6C4
:10364000C04E4E17C124D355C1802497C1A0B5D513
:10365000C1121A17C244AE55C2781797C26CACD5C6
:10366000C267885AC320746F6F206C6F6E672065C5
:103670007874727573696F6E2070726576656E749A
:1036800065640A0020636F6C6420657874727573DA
:10369000696F6E2070726576656E7465640A006F7E
:1036A0006B0A00526573656E643A200020453A004B
:1036B000205A3A0020593A00583A000000220025CA
:1036C0000028002B002E003100340002010000050C
:1036D0000108010B0100002100240027002A002D11
:1036E000003000330001010000040107010A010558
:1036F000050505070508080808020202020A0A086B
:103700000804040404010101010101010103030390
:103710000303030303040707070C0C0C0C0C0C0C2D
:103720000C0202020206060606060606060B0B0B34
:103730000B0B0B0B0B01021020200808102040106F
:103740002040800201020108040201010204081065
:103750002040808040201008040201800402018083
:1037600040201008040201080402010102040810AC
:1037700020408001020408102040804572726F7260
:103780002077726974696E6720746F2045455052C6
:103790004F4D210A0047656565746563682069338C
:1037A0002050726F20422052656164792E00507261
:1037B000696E74696E672E2E2E005072696E7420C9
:1037C0005061757365640000B200BC0011241FBE17
:1037D000CFEFD1E2DEBFCDBF00E00CBF84B7809356
:1037E000FD1514BE0FB6F894A8958091600088610D
:1037F00080936000109260000FBE13E0A0E0B2E082
:10380000E4E3F2E502E00BBF02C007900D92AC3B8F
:10381000B107D9F725E1ACEBB3E001C01D92AD3F94
:10382000B207E1F71BE1C5EEDBE100E006C021973E
:103830000109802FFE010F94AE25C43ED10780E020
:103840000807A9F70F94A2110D9409290C94000000
:103850008F929F92AF92BF92CF92DF92EF92FF92A0
:103860006B017C0120E030E0A9010F94E71E87FD89
:103870006BC06DEB77E386E095E3A70196010F94AB
:10388000C9256B017C0120E030E040E251E40F9457
:103890004C1F20E030E040E251E40F944C1F4B01FC
:1038A0005C0120E030E0A901C701B6010F94E71EDA
:1038B00020E030E040EA50E487FF04C020E030E040
:1038C00040EA50ECC501B4010F94C92520E030E076
:1038D00040E251E40F94A5260F940D279B018BE243
:1038E00037FF05C022273327261B370B8DE2809335
:1038F0009E05C90164E670E00F949B25CB01EAE0C8
:10390000F0E0BF010F949B25805D80939F05C90166
:10391000BF010F949B25282FCB01BF010F949B253E
:10392000805D8093A0058EE28093A105205D2093A9
:10393000A2058EE995E0FF90EF90DF90CF90BF90C9
:10394000AF909F908F9008956DEB77E386E095EBB5
:1039500094CF8F929F92AF92BF92CF92DF92EF92CD
:10396000FF92CF936B017C0120E030E0A9010F941E
:10397000E71E87FDC3C06DEB77E386E095E3A70103
:1039800096010F94C9256B017C0120E030E0A9016C
:103990000F94E71E87FFB7C0C701B601905820E01B
:1039A00030E040E251E40F944C1F20E030E040E270
:1039B00051E40F944C1F20E030E040EA50E40F94B3
:1039C000C92520E030E040E251E40F94A5260F9491
:1039D0000D276B017C0160E280EAC81686E8D806F4
:1039E00081E0E806F1048CF0C701B60120EA36E870
:1039F00041E050E00F943325CA01B9012AE030E0DC
:103A000040E050E00F943325605D60939C0560E2D8
:103A100080E1C81687E2D806E104F1048CF0C70102
:103A2000B60120E137E240E050E00F943325CA01AF
:103A3000B9012AE030E040E050E00F943325605DAA
:103A400060939D0560E288EEC81683E0D806E10425
:103A5000F1048CF0C701B60128EE33E040E050E0FD
:103A60000F943325CA01B9012AE030E040E050E06C
:103A70000F943325605D60939E0560E284E6C8166E
:103A8000D104E104F1048CF0C701B60124E630E072
:103A900040E050E00F943325CA01B9012AE030E03C
:103AA00040E050E00F943325605D60939F058AE00D
:103AB000882E912CA12CB12CC701B601A50194012F
:103AC0000F943325C62FCA01B901A50194010F94A3
:103AD0003325605D6093A0058EE28093A105C05DF3
:103AE000C093A2058CE995E0CF91FF90EF90DF9015
:103AF000CF90BF90AF909F908F9008956DEB77E33C
:103B000086E095EB3CCF20E030E040E251E4C70195
:103B1000B60149CF8F929F92AF92BF92CF92DF9220
:103B2000EF92FF92CF936B017C0120E030E0A9017E
:103B30000F94E71E87FD93C06DEB77E386E095E376
:103B4000A70196010F94C9256B017C0120E030E0AC
:103B500040E251E40F944C1F20E030E04AE754E487
:103B60000F944C1F4B015C0120E030E0A901C7011C
:103B7000B6010F94E71E20E030E040EA50E487FFF2
:103B800004C020E030E040EA50ECC501B4010F94DD
:103B9000C92520E030E040E251E40F94A5260F94BF
:103BA0000D276B017C01C114D104E104F10409F477
:103BB0005BC0F7FE59C0F094E094D094C094C11C4F
:103BC000D11CE11CF11C8DE280939D05C701B6015B
:103BD00028EE33E040E050E00F9433258AE0882E51
:103BE000912CA12CB12CCA01B901A50194010F940B
:103BF0003325605D60939E058EE280939F05C7012B
:103C0000B60124E630E040E050E00F943325CA01CD
:103C1000B901A50194010F943325605D6093A0055F
:103C2000C701B601A50194010F943325C62FCA011F
:103C3000B901A50194010F943325605D6093A1053E
:103C4000C05DC093A2058DE995E0CF91FF90EF9004
:103C5000DF90CF90BF90AF909F908F9008956DEBC5
:103C600077E386E095EB6CCF80E2AECFCF93DF9326
:103C7000EC01CB01BA010F94ED1E20E030E040E2F0
:103C800051E40F94A526688379838A839B83DF910F
:103C9000CF910895CF93DF93EC01CB01BA010F943C
:103CA000ED1E20E030E040E251E40F94A526688349
:103CB00079838A839B83DF91CF9108950F94ED1EC2
:103CC00020E030E040E251E40F94A52642CE0F946C
:103CD000ED1E20E030E040E251E40F94A526B8CD7F
:103CE000CF93DF93EC01CB01BA010F94ED1E2AE0D4
:103CF00037ED43E25DE30F94A5260F941227688306
:103D000079838A839B83DF91CF910895CF93DF934B
:103D1000EC01CB01BA010F94ED1E2AE037ED43E22E
:103D20005DE30F94A526688379838A839B83DF9163
:103D3000CF910895CF93DF93EC01CB01BA010F949B
:103D4000ED1E688379838A839B83DF91CF910895E9
:103D5000CF93DF93EC01CB01BA010F94ED1E20E06D
:103D600030E048EC52E40F94A526688379838A8377
:103D70009B83DF91CF910895CF93DF93EC01CB012B
:103D8000BA010F94ED1E0F940D2779836883DF919C
:103D9000CF910895CF93DF93EC01CB01BA010F943B
:103DA000ED1E20E030E04AE754E40F94A526688336
:103DB00079838A839B83DF91CF9108950F94ED1EC1
:103DC00020E030E04AE754E40F94A526A3CEFC019E
:103DD00084910895FC0180810895FC01A081B18146
:103DE0001C92A281B3818C918F5F8C930280F381AE
:103DF000E02D90818CE0989F800D1124E0EDF3E19F
:103E000013AE84AF0895009751F0FC0180E09191CA
:103E1000992331F0907C9038D1F38F5FF8CF80E018
:103E200008959091020192709093000100C09091CA
:103E3000020187FD9095917090930001909102018D
:103E4000909592709093000100C000C09091020183
:103E500092709093000100C09091020186FD9095B0
:103E600091709093000190910201909592709093BF
:103E7000000100C000C09091020192709093000177
:103E800000C09091020185FD909591709093000182
:103E900090910201909592709093000100C000C033
:103EA0009091020192709093000100C090910201E4
:103EB00084FD9095917090930001909102019095EE
:103EC00092709093000100C000C090910201927026
:103ED0009093000100C09091020183FD9095917034
:103EE000909300019091020190959270909300013F
:103EF00000C000C09091020192709093000100C038
:103F00009091020182FD90959170909300019091A3
:103F10000201909592709093000100C000C09091B2
:103F2000020192709093000100C09091020181FD06
:103F3000909591709093000180910201809582701C
:103F40008093000100C000C08091020182708093C4
:103F5000000100C080910201817080930001809176
:103F60000201809582708093000100C000C0089516
:103F700090E080E00895CF93DF93C0916107D091E6
:103F8000620781E0CE31D105E4F020E030E040E08E
:103F90005FE360915D0770915E0780915F0790918C
:103FA00060070F94C9250F940D276C1B7D0B77FFBD
:103FB00003C071956195710981E0633071050CF062
:103FC00080E0DF91CF910895CF93DF93DB01F9017A
:103FD0009C919130C1F0943080F094509C93883043
:103FE000D1F480819181009771F001979183808352
:103FF000480F591FEA01188206C08C3539F49C5FBE
:104000009C93943041F4DF91CF9108958B3339F72D
:1040100081E08C93F8CF20813181B9016F5F7F4FB0
:1040200071836083420F531FEA01888380819181ED
:104030008F3591056CF7E7CF0F931F9381E00091C7
:1040400023151091241520912515309126154091A6
:104050001F1550912015609121157091221504179C
:1040600015072607370708F480E01F910F91089580
:1040700090E080E008952091E704833021F425FD4D
:104080000CC024FD0CC030E0A90102C05595479535
:104090008A95E2F7CA018170089581E0089580E071
:1040A00008958091030584FD0BC08091050587FD6F
:1040B00007C090910605937081E019F480E008959F
:1040C00081E008952FEB280F2A3108F047C0E22F36
:1040D000F0E08091030590910405A0910505B09151
:1040E000060504C0B695A795979587952A95D2F7AA
:1040F00080FD02C081700895E751FB4FE081EE23FF
:1041000041F18091A8079091A907E80FF92FF11DBF
:10411000808190ED980F9A3030F08E3251F4818189
:1041200080538A3098F4F093DD04E093DC0481E05E
:1041300008958D3211F08B3249F4818190ED980F02
:104140009A3088F38E3211F48281EACFF0E0E0E019
:10415000EACF1092DD041092DC04E9CF80E00895EC
:10416000B1DF882341F081E02091DC043091DD044F
:10417000232B09F480E00895809A8898089580E0C0
:1041800090E0A0E8B0E480936F0290937002A09357
:104190007102B09372028DED92E00E9418BCE09122
:1041A0009805E430C9F480E090E0AAEBB2E4809393
:1041B000670290936802A0936902B0936A0280E05C
:1041C00090E0A6EAB2E480936B0290936C02A09315
:1041D0006D02B0936E0232C080E090E0ACE0B2E4D9
:1041E0008093670290936802A0936902B0936A0279
:1041F00080E090E0A0E2B1E480936B0290936C02C7
:10420000A0936D02B0936E02EE0FFF0BE354FD4FCF
:10421000808191818330910549F18430910591F13C
:10422000029761F480E090E0ABE2B3E48093670230
:1042300090936802A0936902B0936A0285EC92E0C1
:104240000E9418BC10926F021092700210927102BC
:10425000109272028DED92E00E9418BC8091980538
:104260008F5F8530A4F480939805089580E090E0F6
:10427000ABE2B3E48093670290936802A093690273
:10428000B0936A0280E090E0A3E1B3E49CCF109287
:1042900098050895CF93DF9300D01F92CDB7DEB776
:1042A0000F9412270F94EB1E69837A838B839C8370
:1042B000CE0101960E942FCA0F900F900F900F9081
:1042C000DF91CF9108950F94ED1E2AE037ED43E280
:1042D0005DE30F94A526DECFCF92DF92EF92FF929F
:1042E000CF93DF9300D01F92CDB7DEB76B017C0177
:1042F00020E030E0A9010F94E71E87FD1BC06DEBA5
:1043000077E386E095E3A70196010F94C9256983B9
:104310007A838B839C83CE0101960E942FCA0F90D3
:104320000F900F900F90DF91CF91FF90EF90DF9063
:10433000CF9008956DEB77E386E095EBE4CF0F9493
:10434000ED1E2AE037ED43E25DE30F94A526C4CFCE
:104350000F94ED1EC1CF0F94ED1E20E030E048EC2D
:1043600052E40F94A5260C9412D90F94ED1E0F94CD
:104370000D27CB010C9431CB0C9458AD0C9458AD57
:104380000C940AAD0C940AAD0C940AAD0C940AADD1
:1043900063E972E084E690E00E941AD270E060E087
:1043A0008AE090E00E941AD26AEB72E084E690E024
:1043B0000C941AD28111ECCF68E270E080E991E0B0
:1043C0000C941AD20E9422AAF5CF80915E02882313
:1043D00041F0609195057091960541E081E00C9463
:1043E000ABFE08950E9457C3E5CF0E94FDC1D0CF18
:1043F000CF92DF92EF92FF920F931F930F94DF0300
:10440000009115051091160520911705309118059A
:104410006B017C01C01AD10AE20AF30A97018601F6
:1044200037FD11C0209114052095209314056A547E
:104430007C4F8F4F9F4F60931505709316058093A7
:1044400017059093180581E090911405911101C012
:1044500080E01F910F91FF90EF90DF90CF90089533
:10446000CF93DF93C0916107D0916207209729F124
:1044700060915D0770915E0780915F079091600782
:104480000F940D276E5F7F4F24976C177D07ACF458
:104490007093DA056093D9050F94DF03605A754174
:1044A0008F4F9F4F6093DB057093DC058093DD0594
:1044B0009093DE05DF91CF9108951092DB05109265
:1044C000DC051092DD051092DE05F4CFBF92CF928D
:1044D000DF92EF92FF920F931F93CF93DF936B01C5
:1044E000E9014A3009F4D6C0453109F081C0DB0149
:1044F0001296ED91FC911281C681D781599A00C024
:10450000000086E290E00197F0F7012F0295007F0E
:1045100020E1B22EB10E88EF84DC00C0000086E2FC
:1045200090E00197F0F7103208F0A1C0812F80775A
:10453000806877DC802F75DC00C0000086E290E0A8
:104540000197F0F780E86DDC80E06BDC00C00000D4
:1045500086E290E00197F0F78AEF63DC00C000008C
:1045600086E290E00197F0F77E01B0E1EB0EF11CDE
:104570008881807F56DC89918295807F52DCCE15C0
:10458000DF05B1F700C0000086E290E00197F0F788
:104590001F5F005F1B11BFCF5998D6011296ED9196
:1045A000FC9180819281980F92832181921708F06B
:1045B00075C294819F5F94839381890F821710F055
:1045C0008FEF820F8383458150E0440F551F70E0C9
:1045D00060E0868197810F94B52881E0DF91CF91CB
:1045E0001F910F91FF90EF90DF90CF90BF900895B3
:1045F000FB0102811381423309F452C208F45AC20A
:10460000463409F447C2473409F44FC24B3329F703
:1046100089812B81D80112966C91129713964C9137
:10462000213009F48CC2233009F06DC238EF380F05
:10463000582F91E0431708F490E041E0531708F039
:1046400040E031E0561708F430E0592F542B352361
:1046500019F4942309F4C1CFFA8030E0F901E75549
:10466000FD4FD0802B553D4FF901E08065C280EEB3
:10467000810F8068807FD5DB812F8295807FD1DBA1
:1046800000C0000086E290E00197F0F780E8C9DB07
:1046900080E85BCF519A59988091010181608093A5
:1046A00001018091020181708093000180910101DC
:1046B00082608093010180910201809582708093D5
:1046C0000001599A00C0000086E290E00197F0F7DF
:1046D00088E790E0CEE9DFE0FE013197F1F701973E
:1046E000D9F788EF9EDB00C0000086E290E00197DA
:1046F000F0F780E296DB80E094DB00C0000086E209
:1047000090E00197F0F780E08CDB80E88ADB00C066
:10471000000086E290E00197F0F780E082DB80E124
:1047200080DB00C0000086E290E00197F0F7CE0148
:104730000197F1F7CE010197F1F7CE010197F1F75B
:10474000CE010197F1F7CE010197F1F7CE01019764
:10475000F1F7CE010197F1F7CE010197F1F7CE0104
:104760000197F1F7CE010197F1F7CE010197F1F72B
:10477000CE010197F1F7CE010197F1F7CE01019734
:10478000F1F72197F1F780E24CDB80E44ADB00C0CF
:10479000000086E290E00197F0F780E242DB80E6DD
:1047A00040DB00C0000086E290E00197F0F7D0E027
:1047B000C0E08C2F8077806834DB8D2F32DB00C027
:1047C000000086E290E00197F0F780E82ADB80E0C5
:1047D00028DB00C0000086E290E00197F0F78AEF46
:1047E00020DB00C0000086E290E00197F0F790E245
:1047F0008091020182708093000100C080910201CB
:104800008170809300018091020180958270809375
:10481000000100C000C080910201827080930001FD
:1048200000C080910201817080930001809102019B
:10483000809582708093000100C000C080910201C9
:1048400082708093000100C080910201817080938A
:10485000000180910201809582708093000100C068
:1048600000C08091020182708093000100C080919D
:104870000201817080930001809102018095827015
:104880008093000100C000C080910201827080937B
:10489000000100C08091020181708093000180912D
:1048A0000201809582708093000100C000C0809159
:1048B000020182708093000100C08091020181702A
:1048C00080930001809102018095827080930001A5
:1048D00000C000C08091020182708093000100C07E
:1048E0008091020181708093000180910201809586
:1048F00082708093000100C000C08091020182702C
:104900008093000100C080910201817080930001BA
:1049100080910201809582708093000100C000C0E8
:104920008091020182708093000100C08091020199
:104930008170809300018091020180958270809344
:10494000000100C000C080910201827080930001CC
:1049500000C080910201817080930001809102016A
:10496000809582708093000100C000C08091020198
:1049700082708093000100C0809102018170809359
:10498000000180910201809582708093000100C037
:1049900000C08091020182708093000100C080916C
:1049A00002018170809300018091020180958270E4
:1049B0008093000100C000C080910201827080934A
:1049C000000100C0809102018170809300018091FC
:1049D0000201809582708093000100C000C0809128
:1049E000020182708093000100C0809102018170F9
:1049F0008093000180910201809582708093000174
:104A000000C000C08091020182708093000100C04C
:104A10008091020181708093000180910201809554
:104A200082708093000100C000C0809102018270FA
:104A30008093000100C08091020181708093000189
:104A400080910201809582708093000100C000C0B7
:104A500000C00000E6E2F0E03197F0F7915009F075
:104A6000C7CE88EFDED900C0000086E290E0019753
:104A7000F0F7CF5FD05FC03209F09BCE80E0D1D994
:104A800080ECCFD900C0000086E290E00197F0F7FB
:104A90005998A3CDF801858188839FCD80E09ECD74
:104AA000B901C8010F94F30498CDD80111968C91E7
:104AB000888393CD443191F0473109F08ECD18822F
:104AC000D80112968C911297898315968C9115971F
:104AD00081508A8313968C918B837FCDD801159654
:104AE0004C91159750E0440F551F70E060E016960A
:104AF0008D919C910F94B528F8011282808181508C
:104B0000838314826ACD481708F467CD861708F4AA
:104B100064CDFA80E12CD12C243070F49ECDBE01FE
:104B2000C8010F94F304898198819D0D98838E0D9F
:104B30008983FF0C09F451CDF7FEF6CFF0CF58E092
:104B4000580F382F76CDEF92FF920F931F93CF938C
:104B5000DF93EC018B017A018A859B858617970785
:104B600031F0888199810F9425071B870A87B70147
:104B7000888199810E9463FF2E813F81820F932F4C
:104B8000911D9F838E8390E080E0DF91CF911F91F4
:104B90000F91FF90EF9008959F92AF92BF92CF92A6
:104BA000DF92EF92FF920F931F93CF93DF93EC016D
:104BB0008B01942EA52E8A859B858617970731F049
:104BC000888199810F9425071B870A878885998595
:104BD000019649F5BC800A818E81080FC880D98072
:104BE000D6015596ED91FC91C6011995B80EE92CA8
:104BF000FA2C10E0F70121917F01211127C08E814D
:104C00009F81810F911D9F838E8390E080E0DF91D3
:104C1000CF911F910F91FF90EF90DF90CF90BF90B9
:104C2000AF909F9008950E811F81692D7A2D888104
:104C300099810E9463FF800F912F911D28853985EE
:104C40002817390738F681E090E0E1CF4B2D602F2F
:104C5000C6010F947D07080F180FCCCFDF92EF929B
:104C6000FF920F931F93CF93DF93EC01D62E1CADD1
:104C70000BAD7C0184E0E80EF11CE98DFA8DC701D3
:104C80001995412F480F2D2D602FC7010F947D07D7
:104C90009BAD890F8BAF81E090E0DF91CF911F91A9
:104CA0000F91FF90EF90DF900895CF93C091290569
:104CB000CC2391F14CE050E060E270E08BE195E0B4
:104CC0000F94B52880E2C43628F08C2F64E60F9448
:104CD0006E25805D8093A00590E2CA3040F02AE006
:104CE0008C2F622F0F946E250F946E25905D9093FC
:104CF000A1058C2F6AE00F946E25905D9093A2051C
:104D000083E0E0EAF5E0AFE1B5E001900D928A952D
:104D1000E1F785E280932205CF910895CF938091AA
:104D20001105811154C010920B1410920C141092A2
:104D30000D141092D9131092D8131092DB13109205
:104D4000DA131092DD1381E08093DC1382E280930A
:104D5000DE131092E3131092E213E7EFF3E125E084
:104D600034E18FEF81932E173F07E1F7C1E0C09345
:104D7000F41326EF30EE3093EA132093E913C09337
:104D8000EB131092EC131092ED1390E49093EE134A
:104D90001092EF1325EF30EE309306142093051494
:104DA00021E132E03093D7132093D61390E1909312
:104DB000FB1391E19093FC1394E19093F91380938A
:104DC000F8138093F7130F943105C093110581E018
:104DD0008093130580E393E19093B3128093B21212
:104DE0001092B5121092B412CF910895CF92DF9223
:104DF000EF92FF920F931F93CF93DF93CDB7DEB760
:104E00002C970FB6F894DEBF0FBECDBFF0900B14F9
:104E1000E0900C142091130521111DC040EF52E1C8
:104E20006E2D8F2D0F94E80790E080E0F80EF09241
:104E30000B14E0920C1499272C960FB6F894DEBF51
:104E40000FBECDBFDF91CF911F910F91FF90EF90DB
:104E5000DF90CF900895C090D813D090D91324ED4F
:104E600033E13A8329832F2D30E03C832B832E2D91
:104E700030E03E832D8318861F827A8769871C86DF
:104E80001B860CEC15E29E012F5F3F4F47EE5EE163
:104E9000BC01C6010E94B2F3B60184ED93E10F9408
:104EA00025078F819885C2CF8091DC049091DD0425
:104EB000009731F04AE050E070E060E00D94081D8A
:104EC00060E070E0CB0108950F931F93CF93809122
:104ED000DC049091DD04009709F1FC018F01C19180
:104EE0002C2F2F7DA1F0C53431F0C53621F0C83507
:104EF00011F0C83799F7F801108270E060E00F9464
:104F0000851AF801C083CF911F910F91089570E029
:104F100060E0CF911F910F910D94851A60E070E0D1
:104F2000CB01F1CFCF92DF92EF92FF926A017B012A
:104F300017D9882329F0FF90EF90DF90CF90C4CF4E
:104F4000C701B601FF90EF90DF90CF9008954F9288
:104F50005F926F927F92AF92BF92CF92DF92EF9269
:104F6000FF920F931F93CF9381EAA82E82E0B82E71
:104F700094EBE92E95E0F92E07E612E02DE4C22E1F
:104F800022E1D22EC0E0F50181915F01E9D88823AA
:104F900009F476C099DF2B013C018C2F6CD8882353
:104FA00009F464C0F8012081318142815381C30139
:104FB000B2010F94C925F7016083718382839383C3
:104FC000CF5FF4E0EF0EF11C0C5F1F4F84E0C80EC2
:104FD000D11CC330C1F685E4C3D8882309F45BC073
:104FE00073DF6B017C0183E046D8882371F0209148
:104FF0007302309174024091750250917602C7019C
:10500000B6010F94C9256B017C01C092C005D092F6
:10501000C105E092C205F092C30540E050E0BA013C
:1050200086E480DF20E030E0A9010F94F027181615
:105030007CF44ADF20E030E040E752E40F94A526FC
:10504000609328027093290280932A0290932B0286
:10505000CF911F910F91FF90EF90DF90CF90BF9075
:10506000AF907F906F905F904F900895F6012081F0
:10507000318142815381C301B2010F94C8259BCF76
:10508000F80180819181A281B381F70180839183AE
:10509000A283B38395CF8091730290917402A09103
:1050A0007502B09176028093C0059093C105A093DC
:1050B000C205B093C305B1CF8091DC049091DD04AB
:1050C000009731F04AE050E070E060E00D94DB1BA7
:1050D00060E070E0CB010895EFDFCB010895ECDFD5
:1050E00097FD0AC0E9DF6F3F71058105910509F061
:1050F0002CF4E2DF862F089580E008958FEF089565
:10510000CF93C62F2DD8882311F0CF91E8CF8C2FC5
:10511000CF9108958091DC049091DD04892B39F0C2
:10512000DEDF91E0811101C090E0892F089591E0C8
:10513000FCCFCF93DF93C82FD62F12D8882319F036
:10514000DF91CF91E7CF8C2F0E946220811101C0A7
:105150008D2FDF91CF910895AF92BF92CF92DF92C2
:10516000EF92FF920F931F93CF935C016B018A0123
:1051700084539B4F7C01DC01CC91C7FF3DC0FB01F8
:1051800011821082CF5FD701CC93CC300CF053C08A
:105190008CE08A9DF0018B9DF00D1124CF018C0FC6
:1051A000911DC7FD9A95209163132817190609F0E0
:1051B0000CF441C0F60120813181FC01EE0FFF1F8C
:1051C000E80FF91FE55EFC4E81819281820F931FEB
:1051D000D80111969C938E93808187FF3DC061E03A
:1051E0008F77CF911F910F91FF90EF90DF90CF902D
:1051F000BF90AF900D94B9028CE08A9DF0018B9D19
:10520000F00D1124CF018C0F911DC7FD9A952091AF
:1052100063132817190609F00CF4B4CFFC01EE0F44
:10522000FF1FE80FF91FE55EFC4E808160E08F777D
:105230000F94B902A7CFF601808191810496803442
:10524000FCE99F0710F480E49CE9D80111969C9337
:105250008E938FEFF7018083CF911F910F91FF9075
:10526000EF90DF90CF90BF90AF900895CF93DF93F2
:10527000CDB7DEB720E2488559856F818E810E94C7
:1052800010FFDF91CF9108950F931F93522F20911C
:10529000CE133091CF132817390759F11092C80552
:1052A0002091930527FD109293059093CF1380933F
:1052B000CE138B0130E020E000938807109389071C
:1052C00020938A0730938B0740938107509382077E
:1052D0008A57954421F410929B051092940582E020
:1052E00080935E0281E08093980710929A05109255
:1052F00097051F910F91089520E040E070E060E075
:105300008AE795E4C1CFCF930E94FDC10E9422AAF3
:10531000C82F882319F080E00E9486A98C2F4AD8D4
:10532000CF91EACF84EC95E190935607809355078F
:10533000E3CFCF93DF93C0919405CC23B1F0C1505C
:10534000C093940589E0C89FE0011124C35ADA4F45
:105350006A817B812F814E818881998195DF888543
:1053600080939B05DF91CF910895DF91CF91C4CFBA
:10537000E0919405E63028F581E08E0F8093940546
:10538000409188075091890760918A0770918B0737
:10539000209181079091820780919B0539E0E39FDE
:1053A000F0011124E35AFA4FA091CE13B091CF131C
:1053B000B183A08342835383648375832683978359
:1053C0008087089580937D0720E040E070E060E0F2
:1053D00087E39EE259CFCF93DF93CDB7DEB78E81BF
:1053E000282F082E000C330B9091B1129217130640
:1053F00009F08CF48093B1129E01275F3F4F4F81DB
:1054000058856AE270E086E892E10F94AF1E109230
:10541000851210928412DF91CF9108950F931F93FC
:10542000CF93DF938C016F3F19F41092B11260E0BB
:105430002091B112862F062E000C990B2817190601
:1054400009F014F56093B112C8010F94361E800F55
:10545000911FEC01C01BD10BCB32D1053CF0019761
:10546000FC012491207C2038D1F3F3CFDD27AE015D
:10547000B80186E892E10F94571ECA57DD4E188294
:105480001092851210928412DF91CF911F910F918B
:105490000895CF9380915505811109C086E694E166
:1054A000909396058093950581E08093550560DF84
:1054B00020E040E070E060E085EE91E2E5DEC1E0F2
:1054C000C0939B050E947BAD10929B0532DFC09379
:1054D0009B0560E08AEB97E3A1DF82E694E190937D
:1054E000560780935507CF9108950F931F930F94FC
:1054F000DF03009150051091510520915205309124
:105500005305601B710B820B930B97FD0CC08091B0
:1055100009018095881F8827881F919B82604A9B7C
:10552000846080934F0580914F05817090914F0565
:1055300091FD826090914E05981749F0813009F1F4
:1055400048F0823079F0833091F080934E051F91BE
:105550000F910895913079F09230B9F790914D05FF
:105560009F5F0CC0992339F09330C1F3EECF913097
:10557000A9F3923051F790914D05915090934D05BC
:10558000E4CF992359F3933001F7F5CFCF92DF920F
:10559000EF92FF92CF93C82F0F94DF036B017C0132
:1055A00024EA30E74DE75FE3609122027091230225
:1055B00080912402909125020F94E71E87FD18C068
:1055C0008AEF90E0A0E0B0E08C0D9D1DAE1DBF1DE8
:1055D00080933D0590933E05A0933F05B093400511
:1055E000C0931802CF91FF90EF90DF90CF90089575
:1055F00080E090E0DC01E8CF91DBEAE0F1E080813F
:105600008F77808380910B0180958078809309014A
:105610009998A19A52985A9A68DF10924D050C9465
:1056200016F4FC0180E0309749F09491992331F011
:10563000907C903809F08F5F3196F7CF0895AF9244
:10564000BF92CF92DF92EF92FF920F931F93CF936F
:10565000DF93EC015B018A01FB01199587FD16C000
:10566000C82ED12CF12CE12C2196F801C082D182D8
:10567000E282F382CE01DF91CF911F910F91FF90D3
:10568000EF90DF90CF90BF90AF900895982F907ECD
:10569000903CA9F48F7190E0B0E0A0E06C017D0136
:1056A00056E0CC0CDD1CEE1CFF1C5A95D1F7CE0148
:1056B0000196F50119958F73C82A2296D6CF982F97
:1056C000907F903E11F58F7090E0B0E0A0E06C010B
:1056D0007D0136E0CC0CDD1CEE1CFF1C3A95D1F7A9
:1056E000CE010196F50119958F73C82A46E0CC0CBE
:1056F000DD1CEE1CFF1C4A95D1F7CE010296F50188
:1057000019958F73C82A2396B0CF982F987F903F12
:1057100079F5877090E0B0E0A0E06C017D0186E053
:10572000CC0CDD1CEE1CFF1C8A95D1F7CE01019636
:10573000F50119958F73C82A96E0CC0CDD1CEE1C80
:10574000FF1C9A95D1F7CE010296F50119958F733A
:10575000C82A26E0CC0CDD1CEE1CFF1C2A95D1F7D4
:10576000CE010396F50119958F73C82A24967DCF33
:10577000982F907C903841F4807C803869F4219691
:10578000CE01F5011995F8CF8E7F8D3F28F0219637
:10579000CE01F5011995F8CFC12CD12C760165CF3A
:1057A0009CE0899F802D112491E0980F9093120521
:1057B0002CE0280F20939E0730E02E5F3F4F409152
:1057C00008144217130619F014F080E00895209190
:1057D0000A149217D0F7662341F08E5F0F94530698
:1057E00080919E078E5F0F94530680919E07909143
:1057F0000814891750F320910A1490911205291763
:1058000020F310920B1480930C1481E008952091E2
:105810001005022E000C330B8217130641F0809303
:10582000100561E576E184ED93E10D942507089577
:10583000EF92FF920F931F93CF93DF93CDB7DEB715
:105840002C970FB6F894DEBF0FBECDBFFC01608170
:105850007181828193816F3F71058105910509F006
:10586000B8F480ED93E1FAD9E091D813F091D9130F
:105870003196849190E02C960FB6F894DEBF0FBE5F
:10588000CDBFDF91CF911F910F91FF90EF900895C1
:1058900010910B1400910C142091130521110FC0CD
:1058A00040E153E1602F812F0F94E80790E080E002
:1058B000180F10930B1400930C149927DCCFE09071
:1058C000D813F090D91324ED33E13A832983212FA3
:1058D00030E03C832B83202F30E03E832D831886DD
:1058E0001F822FEF3FEF3A8729871C861B862CECFF
:1058F00035E2AE014F5F5F4FBF01C7010E94EDF27D
:10590000B70184ED93E10F9425078F819885D0CF5F
:105910004F925F926F927F928F929F92BF92CF929F
:10592000DF92EF92FF920F931F93CF93DF9300D0FC
:1059300000D01F921F92CDB7DEB77C016A014901EA
:10594000FB0190818CE0989F800D1124982FF70126
:105950002081822F880F820F880F80930B149093E1
:105960000C144115510569F1FA82E9827C836B833D
:10597000011120C0AE014B5F5F4FB401C6015FDE75
:105980006C018D819E81AF81B885892B8A2B8B2BF1
:10599000C1F0CE0105964CDFF70180818F5F8083D7
:1059A000853140F3CE0101960E94ED1EE3CFB12C6C
:1059B000860129C08A01B12C26C0452846284728DF
:1059C000B1F728960FB6F894DEBF0FBECDBFDF91BA
:1059D000CF911F910F91FF90EF90DF90CF90BF90EC
:1059E0009F908F907F906F905F904F900895B394A9
:1059F00007C0B1102DC001151105C9F20F5F1F4F6F
:105A000001151105A9F2AE014B5F5F4FB401C6014C
:105A100016DE6C014D805E806F80788441145104E5
:105A200061047104A9F0F0E24F165104610471049D
:105A300001F3D301C2018D97A109B1090297A10514
:105A4000B10530F04BE2441651046104710479F65B
:105A5000F7018081482F4B0D5527551F46315105C1
:105A600034F0853020F0CE0101960E94ED1E81E0D9
:105A7000411451046104710409F480E0B80EF70187
:105A800080818B0D8083BB2009F497CFBA94AE013F
:105A90004B5F5F4FB401C801D2DD8C01CE0105968A
:105AA000C7DEF1CF2F923F924F925F926F927F921B
:105AB0008F929F92AF92BF92CF92DF92EF92FF921E
:105AC0000F931F93CF93DF9300D0CDB7DEB74C0178
:105AD0003B015A012B83232E280181E080939B05F3
