:100000000C946E1C0C949F1C0C949F1C0C949F1CB5
:100010000C949F1C0C949F1C0C949F1C0C949F1C74
:100020000C949F1C0C949F1C0C949F1C0C949F1C64
:100030000C949F1C0C9426EF0C949F1C0C949F1CFA
:100040000C949F1C0C94108E0C949F1C0C949F1C61
:100050000C949F1C0C949F1C0C9493880C9424F378
:100060000C949F1C0C94AE640C94A4640C949F1C80
:100070000C949F1C0C949F1C0C949F1C0C949F1C14
:100080000C943D3D0C949F1C0C949F1C0C949F1C45
:100090000C949F1C0C949F1C0C949F1C0C949F1CF4
:1000A0000C949F1C0C949F1C0C940F3D0C949F1C53
:1000B0000C949F1C0C949F1C0C949F1C0C949F1CD4
:1000C0000C949F1C0C949F1C0C949F1C0C949F1CC4
:1000D0000C949F1C0C949F1C0C949F1C0C949F1CB4
:1000E0000C949F1C084AD73B3BCE016E84BCBFFDDD
:1000F000C12F3D6C74319ABD56833DDA3D00C77FF8
:1001000011BED9E4BB4C3E916BAAAABE0000008090
:100110003F05A84CCDB2D44EB93836A9020C50B91F
:10012000918688083CA6AAAA2ABE000000803F004B
:100130000C9447B30C94E1EE0C94C2800C94E1C192
:100140000C94E22E0C94C4800C9411B40C94F78798
:100150000D94130F0C94A3320C9454880C9448AC57
:100160000C940AD30C9463280C949A870C947D7F8A
:100170000C94987F0C9411850C944F830C94244E0E
:100180000C9495870C948BD30C94704E0C9420EFA8
:100190000C9468820C941D850C94E1840C94171DBA
:1001A0000C94377F0C940B850C94191D0C940585C9
:1001B0000C9405F10C9413CB0C94CF2B0C941D8054
:1001C0000C9400EF0C9418260C9451800C94D5C11B
:1001D0000C941A4E0C94C07C0C945C7F0C94C680DA
:1001E0000C9480820C9436850C94252A0C944A3009
:1001F0000C94211D0C94DDC10C941CEF0C949D4EAD
:100200000C9474820C947F4E0C94A74E0C94C97E6F
:100210000C9457830C9404EF0C9412EF0C94ED841F
:100220000C945C310C94EA880C94E9EE0C941B1D40
:100230000D94BA060C94F3840C94247F0C94AEC3F2
:100240000C94894E0C94BA330C94F9840C949F87C7
:100250000C942D880C942E4E0C9432820C94424EA9
:100260000C94F0EE0C94664E0C944B880C9408EFB2
:100270000C942A820C942DB80C94FE820C9448CADB
:100280000C94B3CC0C94231D0C944D830C941F1D23
:100290000C94CAEE0C9431850C94FAEE0C94C1C8FF
:1002A0000C94A4870C945C4E0C94384E0C94A8814A
:1002B0000C94E7840C9436800C943C880C94E97F71
:1002C0000C9439D30C94FF840C9464800C94E9D082
:1002D0000C94A1820C94B37F0C944A4E0C94F5CEEE
:1002E0000C9477800C94131D0C94A11C0C94EDEECF
:1002F0000C9440850C940EEF0C94E57E0C94E5EE86
:100300000C944CAC0C94524E0C94FF870C94934E6E
:100310000C94F6EE0C946E820C9490800C94437FB7
:100320000C948CD30C94468F0C94B14E0C943B855A
:100330000C94C0820C941D1D0C94DB840C94A98039
:100340000C942C850C941F4E0C94DF820C94CFEEF1
:100350000C941E880C9481B90C9417850C94A53AC2
:100360000C94A41C0C9416EF0C9404800C9419D3D8
:100370000C947A820C94CE7F0C946F7F0C943FC7C0
:100380000C94DEC30C94151D0C94A67E0C943F8F28
:100390000C94DC7E4E414E494E495459494E46CD4F
:1003A000CCCC3D0AD7233C17B7D13877CC2B32952C
:1003B00095E6241FB14F0A000020410000C842000A
:1003C000401C4620BCBE4CCA1B0E5AAEC59D7400D4
:1003D000407A10F35A00A0724E18090010A5D4E814
:1003E0000000E87648170000E40B54020000CA9AA7
:1003F0003B000000E1F505000080969800000040F9
:10040000420F000000A0860100000010270000003D
:1004100000E803000000006400000000000A000083
:100420000000000100000000002C76D888DC674F37
:100430000823DFC1DFAE59E1B1B796E5E3E453C667
:100440003AE651997696E8E6C28426EB898C9B625F
:10045000ED407C6FFCEFBC9C9F40F2BAA56FA5F409
:1004600090055A2AF75C936B6CF9676DC11BFCE031
:10047000E40D47FEF520E6B500D0ED902E03009484
:100480003577050080841E080000204E0A00000019
:10049000C80C333333330F986E12831141EF8D2123
:1004A00014893BE65516CFFEE6DB18D1844B381B8A
:1004B000F77C1D901DA4BBE424203284725E22814F
:1004C00000C9F124ECA1E53D27434F4D4D554E4960
:1004D000434154494F4E0044525952554E004552E3
:1004E000524F525300494E464F004543484F004536
:1004F00072726F722077726974696E6720746F20F0
:10050000454550524F4D210A002121204B494C4C6A
:100510002063617573656420627920746F6F206D4C
:1005200075636820696E6163746976652074696DAE
:1005300065202D2063757272656E7420636F6D6D1A
:10054000616E643A20004D343130004D313132005B
:100550004D3130380053544F505045442E200050F8
:1005600072696E7465722073746F70706564206454
:10057000756520746F206572726F72732E204669E4
:100580007820746865206572726F7220616E6420D5
:10059000757365204D39393920746F207265737415
:1005A0006172742E202854656D7065726174757265
:1005B000652069732072657365742E2053657420FD
:1005C00069742061667465722072657374617274F7
:1005D000696E67290A004E6F20436865636B737507
:1005E0006D2077697468206C696E65206E756D6228
:1005F00065722C204C617374204C696E653A200042
:100600004E6F20436865636B73756D2077697468FE
:10061000206C696E65206E756D6265722C204C6170
:100620007374204C696E653A2000636865636B7370
:10063000756D206D69736D617463682C204C6173F6
:1006400074204C696E653A20004C696E65204E75C9
:100650006D626572206973206E6F74204C617374D3
:10066000204C696E65204E756D6265722B312C20B1
:100670004C617374204C696E653A20004D31313005
:100680000053442072656164206572726F720A00C3
:10069000627573793A2070617573656420666F7254
:1006A00020696E7075740A00627573793A20706102
:1006B0007573656420666F7220757365720A0062D7
:1006C0007573793A2070726F63657373696E670A28
:1006D000004D656469612052656D6F766564004DFB
:1006E0006564696120496E73657274656400506C5D
:1006F00065617365205265736574005052494E54AC
:1007000045522048414C5445440025533A20255336
:10071000004B494C4C45442E20005072696E746564
:10072000722068616C7465642E206B696C6C28297A
:100730002063616C6C6564210A0053544F5050452E
:10074000442E20005072696E7465722073746F704D
:100750007065642064756520746F206572726F72B5
:10076000732E2046697820746865206572726F72F6
:1007700020616E6420757365204D39393920746F9E
:1007800020726573746172742E202854656D7065D3
:100790007261747572652069732072657365742E59
:1007A00020536574206974206166746572207265D7
:1007B0007374617274696E67290A006563686F3AC1
:1007C000004572726F723A0021212053544F50201D
:1007D00063616C6C65642062656361757365206F2D
:1007E0006620424C546F756368206572726F722088
:1007F0002D20726573746172742077697468204D5E
:100800003939390A0021212053544F502063616C3B
:100810006C65642062656361757365206F66204254
:100820004C546F756368206572726F72202D207250
:100830006573746172742077697468204D39393931
:100840000A000A0A426564204C6576656C20436F95
:100850007272656374696F6E204D61747269783A63
:10086000000A436F72726563746564204265642098
:100870004865696768742076732E20426564205449
:100880006F706F6C6F67793A0A000A42656420489E
:10089000656967687420546F706F677261706879FA
:1008A0003A0A2020202B2D2D2D204241434B202D74
:1008B0002D2B0A2020207C202020202020202020DA
:1008C00020207C0A204C207C20202020282B29203E
:1008D0002020207C20520A2045207C20202020201F
:1008E0002020202020207C20490A2046207C20280F
:1008F0002D29204E20282B29207C20470A205420F7
:100900007C20202020202020202020207C20480A1D
:100910002020207C20202020282D29202020207C01
:1009200020540A2020207C2020202020202020204D
:1009300020207C0A2020204F2D2D2046524F4E543F
:10094000202D2D2B0A2028302C30290A000A4D6535
:10095000616E206F662073616D706C656420706FCE
:10096000696E74733A200020643A200020623A20B5
:100970000045716E20636F656666696369656E74B4
:10098000733A20613A200050726F62696E6720509E
:100990006F696E740025532025692F2569002E0A82
:1009A000002F0050726F62696E67206D657368205A
:1009B000706F696E742000202844525952554E2998
:1009C00000473239204175746F20426564204C65C0
:1009D00076656C696E67003F20284C2C522C462CA3
:1009E0004229206F7574206F6620626F756E647384
:1009F0002E0A003F50726F626520706F696E7473CB
:100A00002028592920696D706C61757369626C6565
:100A10002028322D33292E0A003F50726F62652044
:100A2000706F696E74732028582920696D706C612D
:100A3000757369626C652028322D33292E0A003FB8
:100A40002856296572626F7365206C6576656C2027
:100A5000696D706C61757369626C652028302D3426
:100A6000292E0A00446576696174696F6E0025530A
:100A70003A2025730046696E6973686564210A002F
:100A80003A207A3A2000206F662000476F696E672F
:100A900020746F3A20580043570A00206469723A64
:100AA0000020616E676C653A005374617274207245
:100AB00061646975733A004D343820506F696E7403
:100AC0000025533A2025642F256400506F73697404
:100AD000696F6E696E67207468652070726F6265F9
:100AE0002E2E2E0A003F4C656773206F66206D6FB7
:100AF00076656D656E7420696D706C617573696281
:100B00006C652028302D3135292E0A003F202858C9
:100B10002C5929206F7574206F6620626F756E6482
:100B2000732E0A0050726F6265206F7574206F66B5
:100B300020626F756E6473003F53616D706C652049
:100B400073697A65206E6F7420706C617573696269
:100B50006C652028342D3530292E0A004D3438207C
:100B60005A2D50726F6265205265706561746162C2
:100B7000696C69747920546573740A003F2856299A
:100B80006572626F7365206C6576656C20696D7047
:100B90006C61757369626C652028302D34292E0ACA
:100BA000005374616E646172642044657669617497
:100BB000696F6E3A20002052616E67653A2000200E
:100BC0004D61783A2000204D696E3A20002053692B
:100BD000676D613A20004D65616E3A200020496ED4
:100BE00076616C6964206578747275646572200042
:100BF00020746F6F206C6F6E6720657874727573E8
:100C0000696F6E2070726576656E7465640A002087
:100C1000636F6C6420657874727573696F6E207091
:100C2000726576656E7465640A00536C6565702E36
:100C30002E2E005A2050726F62652050617374200E
:100C40004265640A005A2050726F626520506173D9
:100C5000742042656400205A3A200020593A20004E
:100C600042656420583A2000436C69636B20746FBE
:100C700020526573756D652E2E2E004E6F204D6FC0
:100C800076652E00456E642066696C65206C69731C
:100C9000740A00426567696E2066696C65206C693C
:100CA00073740A004E6F206D656469610A00286ED6
:100CB0006F2066696C65290043757272656E7420D9
:100CC00066696C653A20005344207072696E7469DD
:100CD0006E67206279746520004E6F742053442043
:100CE0007072696E74696E670A002E0A0044656C42
:100CF0006574696F6E206661696C65642C20466955
:100D00006C653A200046696C652064656C657465A5
:100D1000643A005072696E742074696D653A2000FF
:100D20000A53746174733A2046696C616D656E7420
:100D300020757365643A20002C204C6F6E676573D4
:100D400074206A6F623A2000546F74616C20746979
:100D50006D653A200053746174733A20002C20466C
:100D600061696C65643A20002C2046696E6973687D
:100D700065643A20005072696E74733A20005374AF
:100D80006174733A20006F6B006F666600EA04E5D9
:100D900004DE04D704C90444454255473A004D31A6
:100DA00031322053687574646F776E004D31313382
:100DB00020530020573A0042656420436F6F6C69EE
:100DC0006E672E2E2E004265642048656174696E40
:100DD000672E2E2E0047656565746563682069334C
:100DE0002050726F2042204F46462E0020450020A2
:100DF0004D39322058004348414D4245525F5445D9
:100E00004D50455241545552450042414259535468
:100E1000455050494E470041524353004D4F5449AD
:100E20004F4E5F4D4F44455300544845524D414C41
:100E30005F50524F54454354494F4E004C4F4E471C
:100E40005F46494C454E414D45004155544F524532
:100E5000504F52545F53445F5354415455530053C1
:100E600044434152440050524F4D50545F535550EB
:100E7000504F525400454D455247454E43595F50DF
:100E8000415253455200434153455F4C49474854F2
:100E90005F4252494748544E45535300544F4747C9
:100EA0004C455F4C494748545300534F46545741B3
:100EB00052455F504F574552004255494C445F5090
:100EC000455243454E54004C4556454C494E475FAC
:100ED00044415441005A5F50524F42450052554ED2
:100EE0004F5554004155544F4C4556454C005052B7
:100EF000494E545F4A4F420050524F475245535358
:100F0000004155544F5245504F52545F54454D5037
:100F100000564F4C554D455452494300454550529B
:100F20004F4D0042494E4152595F46494C455F542E
:100F300052414E534645520053455249414C5F5829
:100F40004F4E5F584F4646004649524D5741524515
:100F50005F4E414D453A4D61726C696E20322E30C4
:100F60002E372E322028446563203135203230322E
:100F7000302032323A35353A34302920534F5552E9
:100F800043455F434F44455F55524C3A6874747013
:100F9000733A2F2F6769746875622E636F6D2F4DDA
:100FA00061726C696E4669726D776172652F4D6111
:100FB000726C696E2050524F544F434F4C5F5645F0
:100FC0005253494F4E3A312E30204D414348494EFD
:100FD000455F545950453A476565657465636820B7
:100FE00069332050726F2042204558545255444571
:100FF000525F434F554E543A3120555549443A6358
:10100000656465326132662D343161322D34373496
:10101000382D396231322D633535633632663336D9
:101020003766660A002F2F20004D31343520533C9F
:10103000696E6465783E206F7574206F66207261FA
:101040006E67652028302D31290A00205400205277
:1010500000416363656C65726174696F6E3A20501C
:10106000003F4A206F7574206F662072616E67655D
:101070002028302E303120746F20302E33290A0082
:1010800020580020204D61783A2000200020204D7B
:10109000696E3A2000536F667420656E6473746FD6
:1010A00070733A200046523A0020466C6F773A201F
:1010B000003A200020536572766F2000206F75740F
:1010C000206F662072616E67650A00536572766FE5
:1010D000200020643A0020693A0020703A00496EEE
:1010E00076616C69642065787472756465720A0053
:1010F00064697300656E0043290A0061626C65646F
:1011000020286D696E2074656D702000436F6C64DB
:101110002065787472756465732061726520004F74
:101120004646004F4E00426564204C6576656C690A
:101130006E6720004661696C656420746F20656E7F
:1011400061626C6520426564204C6576656C696EF1
:10115000670A00426564204C6576656C20436F72B7
:1011600072656374696F6E204D61747269783A00BC
:101170004F666673657473204170706C69656400B6
:101180004572723A20546F6F206661722100546F6D
:101190006F206661722066726F6D2072656665727F
:1011A000656E636520706F696E740A004545505224
:1011B0004F4D204F4B0A00290A0020746F20003F3A
:1011C0005A206F7574206F662072616E67652028E3
:1011D00000290A0020746F20003F59206F75742089
:1011E0006F662072616E676520282D00290A002035
:1011F000746F20003F58206F7574206F66207261F5
:101200006E676520282D00205A0020590050726F0B
:101210006265204F66667365742058002058593AFD
:101220002000536B657720466163746F72006D69AF
:101230006E5F736B65775F666163746F723A2020CF
:101240002D31206D61785F736B65775F66616374C4
:101250006F723A2020310A004D383400446F6E65B9
:10126000207072696E74696E672066696C650A0029
:101270004D3737004D333100496E76616C6964201B
:1012800065787472756465720A004361703A00474C
:10129000322F47332062616420706172616D657422
:1012A0006572730A00220A00656E7175657565695D
:1012B0006E672022006F6B00526573656E643A2082
:1012C000002569730025696D20256973002569680B
:1012D0002025696D202569730025696420256968CA
:1012E0002025696D202569730025697920256964A9
:1012F000202569682025696D202569730020573AEB
:1013000000436F6F6C696E672E2E2E004865617406
:10131000696E672E2E2E00452025530023646566D6
:10132000696E652044454641554C545F004B64202E
:10133000004B6920004B70200050494420417574D7
:101340006F74756E652066696E69736865642120C7
:1013500050757420746865206C617374204B702C18
:10136000204B6920616E64204B6420636F6E737440
:10137000616E74732066726F6D2062656C6F77208A
:10138000696E746F20436F6E666967757261746908
:101390006F6E2E680A00504944204175746F747551
:1013A0006E65206661696C6564212074696D656F86
:1013B00075740A00504944204175746F74756E65E8
:1013C000206661696C6564212054656D7065726189
:1013D0007475726520746F6F20686967680A0020F1
:1013E0004B643A2000204B693A2000204B703A2091
:1013F000000A20436C617373696320504944200ADA
:10140000002054753A2000204B753A2000206D6171
:10141000783A2000206D696E3A200020643A20005E
:1014200020626961733A2000504944204175746F0D
:1014300074756E652073746172740A00504944209B
:101440004175746F74756E65206661696C656421A1
:101450002054656D706572617475726520746F6F6C
:1014600020686967680A00504944204175746F74A8
:10147000756E6500504944204175746F74756E65D2
:10148000206661696C65642120426164206578741E
:101490007275646572206E756D6265720A00A100D6
:1014A00000006900A20000006300B0000000090015
:1014B000C10000004100C20000004100C300000064
:1014C0004100C40000004100C50000004100C6000A
:1014D00000004145C70000004300C800000045006F
:1014E000C90000004500CD0000004900D100000007
:1014F0004E00D50000004F00D60000004F00D7007E
:1015000000007800DC0000005500DD0000005900FC
:10151000E00000006100E10000006100E200000066
:101520006100E30000006100E40000006100E500EC
:1015300000006100E60000006165E7000000630054
:10154000E80000006500E90000006500EA00000016
:101550006500EB0000006500EC0000006900ED0094
:1015600000006900EE0000006900EF000000690063
:10157000F10000006E00F20000006F00F3000000B8
:101580006F00F40000006F00F50000006F00F6002F
:1015900000006F00F80000006F00F9000000750007
:1015A000FA0000007500FB0000007500FC00000060
:1015B0007500FD0000007900FF00000079000401C3
:1015C0000000410005010000610006010000430029
:1015D0000701000063000C01000043000D01000042
:1015E00063000E01000044000F01000064001101BF
:1015F000000064001901000065001A0100004500A8
:101600001B01000065001F010000670030010000A1
:101610004900310100006900410100004C00420115
:1016200000006C00430100004E00440100006E0009
:10163000480100006E0058010000520059010000EE
:1016400072005A01000053005B01000073005F014B
:10165000000073006001000053006101000073008E
:101660006501000074006F01000075007C0100003E
:101670007A007D0100005A007E0100007A0092018C
:1016800000006600E30200007800222000002E0027
:101690001E210000507822210000544D90210000AE
:1016A0003C2D922100002D3EB02100000300BB2103
:1016B000000004003C2200007E00482200007E3D25
:1016C00060220000213D612200003D0064220000F4
:1016D0003C3D652200003E3DF12300000700A030A4
:1016E00000003D0021F301000200C2F401000500EA
:1016F000A2000000EC00B0000000DF00E4000000E9
:10170000E100F6000000EF00F7000000FD00FC0023
:101710000000F500E3020000EB0087030000A500D5
:101720008F030000F40098030000F2009E03000005
:10173000E300A3030000F600A9030000F400AC03DB
:101740000000E000AD030000E300B1030000E00092
:10175000B2030000E200B5030000E300B80300009C
:10176000F200BC030000E400BE030000E300C0037D
:101770000000F700C1030000E600C3030000E5001D
:10178000902100007F00922100007E001A220000BC
:10179000E8001E220000F30088250000FF00023050
:1017A0000000A1000C300000A2000D300000A300DA
:1017B0009B300000DE009C300000DF00A030000005
:1017C0003D00A1300000A700A2300000B100A3300E
:1017D0000000A800A4300000B200A5300000A9005D
:1017E000A6300000B300A7300000AA00A830000017
:1017F000B400A9300000AB00AA300000B500AB3047
:101800000000B600AC300000B6DEAD300000B7001E
:10181000AE300000B7DEAF300000B800B0300000DE
:10182000B8DEB1300000B900B2300000B9DEB3302C
:101830000000BA00B4300000BADEB5300000BB00D2
:10184000B6300000BBDEB7300000BC00B83000008E
:10185000BCDEB9300000BD00BA300000BDDEBB30D8
:101860000000BE00BC300000BEDEBD300000BF0086
:10187000BE300000BFDEBF300000C000C03000003E
:10188000C0DEC1300000C100C2300000C1DEC33084
:101890000000AF00C4300000C200C5300000C2DE4E
:1018A000C6300000C300C7300000C3DEC8300000EF
:1018B000C400C9300000C4DECA300000C500CB300F
:1018C0000000C600CC300000C700CD300000C800CA
:1018D000CE300000C900CF300000CA00D030000078
:1018E000CADED1300000CADFD2300000CB00D330D6
:1018F0000000CBDED4300000CBDFD5300000CC00C0
:10190000D6300000CCDED7300000CCDFD83000006D
:10191000CD00D9300000CDDEDA300000CDDFDB3085
:101920000000CE00DC300000CEDEDD300000CEDF77
:10193000DE300000CF00DF300000D000E0300000DB
:10194000D100E1300000D200E2300000D300E330EB
:101950000000AC00E4300000D400E5300000AD0031
:10196000E6300000D500E7300000AE00E8300000AF
:10197000D600E9300000D700EA300000D800EB3094
:101980000000D900EC300000DA00ED300000DB0090
:10199000EF300000DC00F2300000A600F330000061
:1019A000DD00F4300000B3DEF7300000DCDEFA309A
:1019B0000000A6DEFB300000A500FC300000B000F7
:1019C000FD300000A400074E0000FB00865100001F
:1019D000FC0043530000FA0064FF0000A40065FF10
:1019E0000000A50066FF0000A60067FF0000A7003A
:1019F00068FF0000A80069FF0000A9006AFF00005E
:101A0000AA006BFF0000AB006CFF0000AC006DFF94
:101A10000000AD006EFF0000AE006FFF0000AF00E1
:101A200070FF0000B00071FF0000B10072FF000005
:101A3000B20073FF0000B30074FF0000B40075FF34
:101A40000000B50076FF0000B60077FF0000B70089
:101A500078FF0000B80079FF0000B9007AFF0000AD
:101A6000BA007BFF0000BB007CFF0000BC007DFFD4
:101A70000000BD007EFF0000BE007FFF0000BF0031
:101A800080FF0000C00081FF0000C10082FF000055
:101A9000C20083FF0000C30084FF0000C40085FF74
:101AA0000000C50086FF0000C60087FF0000C700D9
:101AB00088FF0000C80089FF0000C9008AFF0000FD
:101AC000CA008BFF0000CB008CFF0000CC008DFF14
:101AD0000000CD008EFF0000CE008FFF0000CF0081
:101AE00090FF0000D00091FF0000D10092FF0000A5
:101AF000D20093FF0000D30094FF0000D40095FFB4
:101B00000000D50096FF0000D60097FF0000D70028
:101B100098FF0000D80099FF0000D9009AFF00004C
:101B2000DA009BFF0000DB009CFF0000DC009DFF53
:101B30000000DD009EFF0000DE009FFF0000DF00D0
:101B4000E5FF00005C00000000000102040400004A
:101B5000001C1C0C04040402010000000000040826
:101B60001000000000002D2D2D2D2D2D007C4D612D
:101B7000726C696E7C002D2D2D2D2D2D00001C1FEB
:101B800011111F00000006191803130C00040E1F8A
:101B9000041C000000000E1315110E00001C10188C
:101BA0001705060500040A0A0A0A11110E0C121282
:101BB0000C00000000001F1511151F000042656495
:101BC00000456E636C6F737572650046696C2E20FC
:101BD0004469612E004520696E206D6DC2B30020FE
:101BE000022046616374002002204D6178002002CB
:101BF000204D696E004F6666004F6E004175746F30
:101C000074656D70005654726176204D696E005691
:101C10006D696E00566D6178204500566D617820C3
:101C20005A00566D6178205900566D617820580031
:101C3000416D6178204500416D6178205A00416D09
:101C40006178205900416D6178205800412D54720F
:101C50006176656C00412D52657472616374004158
:101C60006363656C0050726F6265205A204F666630
:101C70007365740050726F62652059204F666673F9
:101C800065740050726F62652058204F66667365F8
:101C90007400452073746570732F6D6D005A205366
:101CA000746570732F6D6D00592053746570732FB8
:101CB0006D6D00582053746570732F6D6D00416415
:101CC00076616E6365642053657474696E67730032
:101CD0003F0043616E63656C00496E6974004D346A
:101CE000323800496E697469616C697A65204545CE
:101CF00050524F4D0046696C616D656E74005465BD
:101D00006D70657261747572650053746570732FC0
:101D10006D6D0050726F6265204F666673657473F7
:101D2000004A756E6374696F6E2044657600416386
:101D300063656C65726174696F6E0056656C6F6384
:101D40006974790053657420486F6D65204F66662D
:101D50007365747300436F6E666967757261746949
:101D60006F6E005045544700504C41003F004E6597
:101D7000787420506F696E7400446F6E65004E6514
:101D8000787400486F6D696E672058595A00537413
:101D90006F72652053657474696E6773004C6F6170
:101DA000642053657474696E6773004C6576656C66
:101DB00020436F726E6572730050726F6265205AB5
:101DC000204F6666736574004F6666004F6E004272
:101DD0006564204C6576656C696E67004C65766558
:101DE0006C20426564004732380A47323900473276
:101DF00039004175746F20486F6D65004D6F7469CF
:101E00006F6E0053746F77004465706C6F79005388
:101E1000656C662D54657374005265736574005368
:101E2000572D4D6F646500426564004E6F7A7A6C81
:101E3000650046616E20537065656400436F6E6691
:101E4000696775726174696F6E00526573746F7241
:101E5000652044656661756C7473004C6F61642025
:101E600053657474696E67730053746F72652053A1
:101E7000657474696E67730050726568656174207B
:101E80002420436F6E6600424C546F7563680050A7
:101E9000726F6265205A204F6666736574004164F4
:101EA00076616E6365642053657474696E67730050
:101EB0004D61696E003F004261636B0053746F7047
:101EC000005072696E742066726F6D204D65646992
:101ED00061004368616E6765204D65646961004D0E
:101EE000323100436F6E66696775726174696F6E37
:101EF0000054656D7065726174757265004D6F7424
:101F0000696F6E00526573756D65205072696E74ED
:101F1000004E6F204D656469610054756E65005315
:101F2000746F70205072696E740050617573652013
:101F30005072696E7400496E666F205363726565F6
:101F40006E003F005374617274205072696E7400A9
:101F500043616E63656C005072696E740043616E1C
:101F60006E6F7420656E7465722073756264697239
:101F70003A2000052E2E004D61696E002100486F49
:101F800074656E6420746F6F20636F6C64004261CF
:101F9000636B0050726F63656564004D6F74696FA9
:101FA0006E0044697361626C65205374657070657E
:101FB0007273004D3834004D34382050726F6265B2
:101FC000205465737400473238204F0A4D3438204E
:101FD00050313000426564204C6576656C696E67EF
:101FE00000486F6D65205A004732385A00486F6DBF
:101FF000652059004732385900486F6D65205800F8
:1020000047323858004175746F20486F6D6500473E
:102010003238004D61696E005072656865617420E8
:102020002420456E64005072656865617420242028
:102030004265640054656D70657261747572650007
:10204000681D631D436F6F6C646F776E005072651F
:102050006865617420240046616E20537065656474
:1020600000426564004E6F7A7A6C65004D61696E5E
:1020700000466C6F770046616E20537065656400A2
:10208000426564004E6F7A7A6C65005370656564D2
:10209000004D61696E002568753A2530326875001B
:1020A00025303268753A2530326875002D2D2D00A7
:1020B0005344002020202020202000202020200029
:1020C0005072696E742041626F72746564004D32A3
:1020D000350050617573696E672E2E2E0045455090
:1020E000524F4D2056657273696F6E204572726F44
:1020F0007200454550524F4D20496E646578204529
:1021000072726F7200454550524F4D20435243202A
:102110004572726F72003F0049676E6F72650052C0
:102120006573657400496E697469616C697A6520CC
:10213000454550524F4D006F70656E0054524947EF
:102140004745524544003A20007A5F6D696E007938
:102150005F6D696E00785F6D696E005265706F72B9
:1021600074696E6720656E6473746F702073746138
:102170007475730A00486F6D652025732573257388
:1021800020466972737400486F6D696E67204661FE
:10219000696C65640000002041000020C10000005F
:1021A0000000004842000048420000804057617231
:1021B0006E696E673A20486F6D696E672042756D73
:1021C000702044697669736F72203C20310A0002E6
:1021D00002040000A0400000A040000000400000F9
:1021E0003A4300003B4300003943FFFFFF0000007B
:1021F000010000000100008000555555000000401E
:102200000033333300AAAA2A004992240000002098
:1022100000C7711C0099991900D145170055551533
:10222000003BB113002449120011111100000010ED
:10223000000F0F0F00E3380E0043790D00CCCC0CDB
:1022400000C3300C00E8A20B0064210B00AAAA0A0C
:1022500000703D0A009DD80900427B0900922409C4
:1022600000DCD3080088880800104208000000083D
:1022700000F0C107008787070075500700711C0731
:10228000003EEB0600A1BC060069900600666606EB
:1022900000703E06006118060017F4050074D105B1
:1022A000005BB00500B2900500627205005555054F
:1022B0000078390500B81E0500050505004EEC0440
:1022C0000087D40400A1BD040090A7040049920433
:1022D00000C17D0400EE690400C7560400444404B4
:1022E000005C3204000821040041100400000004D6
:1022F000003FF00300F8E0030026D20300C3C3034D
:1023000000CCB503003AA803000A9B0300388E03F3
:1023100000C08103009F750300D0690300505E0375
:10232000001D53030034480300913D030033330381
:102330000016290300381F030097150300300C0313
:1023400000030303000BFA020049F10200BAE8029D
:10235000005CE002002DD802002DD0020059C80216
:1023600000B0C0020031B90200DAB10200AAAA022C
:1023700000A0A30200BC9C0200FA9502005C8F0240
:1023800000DF88020082820200457C02002776027C
:102390000027700200436A02007C640200D05E02E3
:1023A000003F590200C8530200FFFDFCFAF8F6F4A2
:1023B000F2F0EEECEAE9E7E5E3E1E0DEDCDAD9D7DA
:1023C000D5D4D2D0CFCDCBCAC8C7C5C3C2C0BFBD7C
:1023D000BCBAB9B7B6B4B3B2B0AFADACAAA9A8A6EF
:1023E000A5A4A2A1A09E9D9C9A999897959493923A
:1023F000908F8E8D8B8A8988878684838281807F67
:102400007E7D7B7A797877767574737271706F6E72
:102410006D6C6B6A696867666564636261605F5E64
:102420005D5C5B5A59585857565554535251505049
:102430004F4E4D4C4B4A4A49484746464544434215
:102440004241403F3E3E3D3C3B3B3A3938383736CF
:102450003535343332323130302F2E2E2D2C2B2B7C
:102460002A2929282727262525242323222121201C
:10247000201F1E1E1D1C1C1B1B1A191918181716AD
:1024800016151514131312121111100F0F0E0E0D35
:102490000D0C0C0B0A0A09090808070706060505B2
:1024A0000404030302020100000000444300003161
:1024B000430000394300002041000020C10000001B
:1024C0000053657474696E67732053746F7265642A
:1024D00000290A002062797465733B2063726320CF
:1024E0000053657474696E67732053746F7265640A
:1024F000202800454550524F4D2064617461736936
:102500007A65206572726F722E0A00290A002062B5
:10251000797465733B2063726320002073746F725B
:1025200065642073657474696E6773207265747274
:102530006965766564202800202863616C63756C8A
:102540006174656429210A0020213D200045455021
:10255000524F4D20435243206D69736D617463681F
:10256000202D202873746F72656429200020536920
:102570007A653A2000496E6465783A2000444947FC
:1025800049504F5453204C6F616465640A004449BC
:102590004749504F5453204C6F6164696E670A007D
:1025A000204D61726C696E3D563832290A004545EE
:1025B00050524F4D2076657273696F6E206D69734E
:1025C0006D617463682028454550524F4D3D004869
:1025D000617264636F6465642044656661756C74E0
:1025E0002053657474696E6773204C6F6164656411
:1025F0000A000000C8430000C8430000004000007B
:1026000034420000A3420000A3425258C8430000D5
:10261000D84288130000881300003200000088139D
:10262000000024F4D43050C38E20C2A24017828B05
:102630007011127A910D816CD90AA861E108C7580E
:102640006607615143061E4B5D05C145A7041A414B
:102650001104093D9803713931034036DB026533BB
:102660009102D4305402802E1D02632CEE01752A93
:10267000C501B028A001102781018F2564012B24FA
:102680004B01E0223401AC211F018D200D01801F80
:10269000FC00841EED00971DDF00B81CD200E61B75
:1026A000C600201BBC00641AB200B219A8000A19A7
:1026B000A0006A189900D117910040178B00B51639
:1026C000840031167E00B31579003A157300C714E3
:1026D0006F0058146A00EE13660088136300251318
:1026E0005E00C7125B006C12570015125400C11136
:1026F000510070114F0021114B00D61049008D1070
:1027000047004610440002104200C00F4000800FF6
:102710003E00420F3C00060F3B00CB0E3800930EEC
:1027200037005C0E3500270E3400F30D3200C10D6A
:102730003100900D3000600D2E00320D2D00050D82
:102740002C00D90C2B00AE0C2900850C29005C0C48
:102750002700350C27000E0C2600E80B2400C40BC4
:102760002400A00B23007D0B23005A0B2100390B02
:102770002100180B2000F80A1F00D90A1E00BB0A0E
:102780001E009D0A1D00800A1D00630A1C00470AE6
:102790001B002C0A1B00110A1A00F7091A00DD0998
:1027A0001900C4091900AB091900920917007B0927
:1027B0001800630917004C09160036091600200995
:1027C00016000A091500F5081500E0081400CC08E9
:1027D0001400B8081400A4081400900813007D0821
:1027E00012006B0813005808120046081200340843
:1027F0001100230811001208110001081100F00750
:102800001000E0071000D0071000C0071000B0074C
:102810000F00A107100091070E0083070F00740737
:102820000F0065070E0057070E0049070E003B0713
:102830000D002E070E0020070D0013070D000607E0
:102840000D00F9060C00ED060D00E0060C00D406A4
:102850000C00C8060C00BC060C00B0060C00A40658
:102860000B0099060C008D060B0082060B00770604
:102870000B006C060B0061060A0057060B004C06A5
:102880000A0042060A0038060A002E060A0024063C
:102890000A001A060A001006090007060A00FD05CC
:1028A0000900F4050900EB050900E2050900D90556
:1028B0000900D0050900C7050900BE050900B505D6
:1028C0000800AD050800A50509009C050800940551
:1028D00008008C050800840508007C0508007405C4
:1028E00008006C050700650508005D050700560532
:1028F00008004E0507004705070040050800380599
:102900000700310507002A050700230507001C05FD
:102910000600160507000F0507000805060002055A
:102920000700FB040600F5040700EE040600E804B7
:102930000600E2040700DB040600D5040600CF040D
:102940000600C9040600C3040600BD040600B7045F
:102950000600B1040500AC040600A6040600A004AD
:1029600005009B04060095040500900406008A04F7
:10297000050085040500800406007A04050075043E
:102980000500700405006B04050066040500610481
:1029900005005C04050057040500520405004D04C1
:1029A000050048040500430405003E0404003A0401
:1029B000050035040500300404002C04050027043C
:1029C0000400230405001E0404001A040400160475
:1029D0000500110404000D040400090405000404AA
:1029E000040000040400FC030400F8030400F403E2
:1029F0000400F0030400EC030400E8030400E40313
:102A00000400E0030400DC030400D8030400D40342
:102A10000400D0030400CC030400C8030300C50372
:102A2000030024F404D9201BC40C5C0E9804C409D0
:102A30005F0265077101F405F900FB04B300480467
:102A40008700C10369005803550003034500BE0217
:102A50003A008402310053022A00290225000402B0
:102A60002000E4011C00C8011900AF011700980103
:102A70001400840113007101100061011000510164
:102A80000E0043010D0036010B002B010B0020014D
:102A90000B00150109000C01090003010800FB00EF
:102AA0000800F3000800EB000700E4000600DE0069
:102AB0000600D8000600D2000600CC000500C700C2
:102AC0000500C2000500BD000400B9000400B50007
:102AD0000400B1000400AD000400A9000400A5003A
:102AE0000300A20003009F0004009B000300980065
:102AF00003009500020093000300900003008D0086
:102B000002008B000300880002008600020084009F
:102B10000300810002007F0002007D0002007B00B4
:102B200002007900020077000100760002007400C4
:102B3000020072000100710002006F0002006D00CF
:102B400001006C0002006A000100690002006700D9
:102B500001006600010065000100640002006200DF
:102B6000010061000100600001005F0002005D00E3
:102B700001005C0001005B0001005A0001005900E7
:102B800001005800010057000100560001005500E7
:102B900001005400010053000000530001005200E6
:102BA000010051000100500001004F0001004E00E3
:102BB00000004E0001004D0001004C0001004B00E0
:102BC00000004B0001004A000100490001004800DC
:102BD00000004800010047000100460000004600D8
:102BE00001004500000045000100440001004300D1
:102BF00000004300010042000000420001004100CB
:102C0000000041000100400001003F0000003F00C3
:102C100001003E0000003E0001003D0000003D00BC
:102C200001003C0000003C0000003C0001003B00B3
:102C300000003B0001003A0000003A0001003900AA
:102C400000003900010038000000380000003800A2
:102C50000100370000003700010036000000360098
:102C6000000036000100350000003500000035008E
:102C70000100340000003400000034000100330083
:102C80000000330000003300010032000000320079
:102C9000000032000100310000003100000031006E
:102CA00001003000000030000000300001002F0063
:102CB00000002F0000002F0000002F0001002E0058
:102CC00000002E0000002E0001002D0000002D004D
:102CD00000002D0000002D0001002C0000002C0041
:102CE00000002C0000002C0001002B0000002B0035
:102CF00000002B0000002B0001002A0000002A0029
:102D000000002A0000002A0001002900000029001C
:102D1000000029000000290000002900010028000F
:102D20000000280000002800000028000000280003
:102D300001002700000027000000270000002700F6
:102D400000002700010026000000260000002600E9
:102D500000002600000026000100250000002500DC
:102D600000002500000025000000250000002500CF
:102D700001002400000024000000240000002400C2
:102D800000002400010023000000230000002300B5
:102D900000002300000023000000230000002300A7
:102DA000010022000000220000002200000022009A
:102DB000000022000000220001002100000021008C
:102DC000000021000000210000002100000021007F
:102DD0000000210001002000000020000000200071
:102DE0000000200000002000000020000000200063
:102DF0000000200001001F0000001F0000001F0055
:102E000000001F0000001F0000001F0000001F0046
:102E100001001E0000001E0000001E0000001E0039
:102E20000000393000003325000087190000B00F82
:102E30000000DB080000BD040000740200003F0138
:102E4000000020436F756E7420583A00426564009C
:102E5000453100626564002C2073797374656D20C0
:102E600073746F7070656421204865617465725F6A
:102E700049443A200048656174696E67204661697B
:102E80006C65640048656174696E67206661696C91
:102E9000656400544845524D414C2052554E4157AF
:102EA000415900546865726D616C2052756E61778E
:102EB0006179004572723A204D415854454D500099
:102EC0004D415854454D502074726967676572656D
:102ED00064004572723A204D494E54454D50004DA4
:102EE000494E54454D502074726967676572656438
:102EF00000202F005072696E7420506175736564F4
:102F0000002042403A0020403A000009121B242DC4
:102F1000363F48415A536C657E7719100B023D3499
:102F20002F265158434A757C676E323B2029161F65
:102F3000040D7A7368615E574C452B2239300F06B9
:102F40001D14636A7178474E555C646D767F404905
:102F5000525B2C253E3708011A137D746F66595059
:102F60004B42353C272E1118030A565F444D727BA5
:102F700060691E170C053A3328214F465D546B6279
:102F80007970070E151C232A31384148535A656C55
:102F9000777E09001B122D243F3658514A437C7519
:102FA0006E671019020B343D262F737A6168575EE5
:102FB000454C3B3229201F160D046A6378714E4739
:102FC0005C55222B3039060F141D252C373E010885
:102FD000131A6D647F7649405B523C352E271811D9
:102FE0000A03747D666F5059424B171E050C333A25
:102FF00021285F564D447B7269600E071C152A23F9
:103000003831464F545D626B70797C3C3E5E2B3D9F
:103010003F2F5B5D3B2C2A225C0043616E6E6F7418
:10302000206F70656E20737562646972200053446E
:1030300020496E6974204661696C005344206361C5
:103040007264206F6B0A006F70656E526F6F742030
:103050006661696C65640A00766F6C756D652E69D2
:103060006E6974206661696C65640A004E6F205356
:103070004420636172640A004D3234004D323320C3
:103080002573002E0A006F70656E206661696C659D
:10309000642C2046696C653A200046696C65207393
:1030A000656C65637465640A002053697A653A202B
:1030B0000046696C65206F70656E65643A20004556
:1030C0004E4420535542524F5554494E450A002212
:1030D00020706F73002220706172656E743A220056
:1030E000535542524F5554494E452043414C4C2074
:1030F0007461726765743A220053756263616C6C27
:10310000204F766572666C6F7700457863656564FD
:103110006564206D617820535542524F5554494E95
:10312000452064657074683A310A005772697469A1
:103130006E6720746F2066696C653A200066726560
:10314000736800646F696E67002066696C653A2079
:10315000004E6F77200000000A0B02090C0D0E08CC
:103160000703040100000000000000000000000050
:10317000000000000000000000000000000000004F
:10318000000012111000000000000000000000000C
:1031900000000000000000000000000002687474DD
:1031A00070733A2F2F6D61726C696E66772E6F7235
:1031B000670068747470733A2F2F6D61726C696E5A
:1031C00066772E6F72670068747470733A2F2F6D74
:1031D00061726C696E66772E6F726700322E302EC8
:1031E000372E3200322E302E372E3200322E302E35
:1031F000372E320068747470733A2F2F6D61726CC1
:10320000696E66772E6F72670068747470733A2FF8
:103210002F6D61726C696E66772E6F7267006874CD
:103220007470733A2F2F6D61726C696E66772E6FB2
:1032300072670020322E302E372E320070012C01A2
:1032400090012701B0012201C0011D01F001180108
:103250001002130130020E01600209019002040104
:10326000C002FF000003FA004003F5008003F000F5
:10327000D003EB002004E6007004E100E004DC0071
:103280004005D700C005D2004006CD00D006C800DA
:103290008007C3003008BE00F008B900C009B400C0
:1032A000B00AAF00B00BAA00D00CA500000EA00021
:1032B000500F9B00C01096005012910000148C001B
:1032C000C0158700B0178200B0197D00D01B7800B0
:1032D000001E730040206E0090226900F0246400FC
:1032E00040275F0090295A00E02B5500102E500017
:1032F00020304B0010324600E033410090353C0056
:103300001037370070383200A0392D00B03A28004D
:10331000A03B2300603C1E00103D1900903D1400AE
:10332000103E0F00703E0A00C03E0500003F000046
:10333000403FFBFF803FF6FFC03FF1FF2020506C75
:10334000616E6E6572427566666572427974657308
:103350003A20002046726565204D656D6F72793A9E
:103360002000436F6D70696C65643A20446563208A
:10337000313520323032300A00204C6173742055D0
:103380007064617465643A20323032302D31302DF2
:103390003135207C20417574686F723A206A6F6EF7
:1033A0007361670A00322E302E372E320A004D61CB
:1033B000726C696E0020536F66747761726520527B
:1033C000657365740A00205761746368646F6720D1
:1033D00052657365740A002042726F776E206F75B4
:1033E000742052657365740A002045787465726EA6
:1033F000616C2052657365740A00506F7765725571
:10340000700A0073746172740A006175746F2563C9
:103410002E67004732385859004D31303031006541
:1034200072726F722077726974696E6720746F2090
:1034300066696C650A00446F6E6520736176696E1B
:10344000672066696C652E0A004D323900456E644E
:1034500073746F7073002553202563202563202526
:103460006320256300205A3A0020593A0020583A38
:1034700000656E6473746F7073206869743A20001D
:10348000004D6F76652025736D6D004D6F7665205C
:10349000302E316D6D004D6F766520316D6D004DB4
:1034A0006F76652031306D6D004D6F766520417807
:1034B0006973004578747275646572004D6F766546
:1034C000205A004D6F76652059004D6F7665205863
:1034D000005072696E742066726F6D204D6564696C
:1034E000610050726F62696E67204661696C656445
:1034F0000A0050726F62696E67204661696C65648C
:1035000000205A3A200020593A2000426564205891
:103510003A2000220A00556E6B6E6F776E20636F43
:103520006D6D616E643A2022004765656574656360
:10353000682069332050726F20422052656164799F
:103540002E005072696E74696E672E2E2E00204513
:103550003A00205A3A0020593A00583A00DB0FC985
:103560003F45BCDA3F8FB30240FCF02740569461E0
:1035700040FE4B9B4084A5D840E0231841346A5656
:1035800041E859974164DBD5416E271742B4B755DE
:1035900042CE1A9742C8AED542B5885A43D4068463
:1035A000BFA65FA7BF7443E0BF10B11AC01C2C5860
:1035B000C0E8F697C0B849D6C04E4E17C124D355BF
:1035C000C1802497C1A0B5D5C1121A17C244AE5507
:1035D000C2781797C26CACD5C267885AC320746F83
:1035E0006F206C6F6E6720657874727573696F6E8B
:1035F0002070726576656E7465640A0020636F6C76
:103600006420657874727573696F6E207072657668
:10361000656E7465640A00000021104220633084E6
:1036200040A550C660E770088129914AA16BB18C12
:10363000C1ADD1CEE1EFF13112100273325222B599
:10364000529442F772D662399318837BB35AA3BD62
:10365000D39CC3FFF3DEE36224433420040114E669
:1036600064C774A44485546AA54BB528850995EEB2
:10367000E5CFF5ACC58DD55336722611163006D779
:1036800076F6669556B4465BB77AA719973887DF02
:10369000F7FEE79DD7BCC7C448E5588668A77840C1
:1036A00008611802282338CCC9EDD98EE9AFF94852
:1036B0008969990AA92BB9F55AD44AB77A966A71D9
:1036C0001A500A333A122AFDDBDCCBBFFB9EEB79A2
:1036D0009B588B3BBB1AABA66C877CE44CC55C2229
:1036E0002C033C600C411CAEED8FFDECCDCDDD2AF2
:1036F000AD0BBD688D499D977EB66ED55EF44E13B9
:103700003E322E511E700E9FFFBEEFDDDFFCCF1B41
:10371000BF3AAF599F788F8891A981CAB1EBA10CAC
:10372000D12DC14EF16FE18010A100C230E3200421
:1037300050254046706760B9839893FBA3DAB33D88
:10374000C31CD37FE35EF3B1029012F322D2323571
:1037500042145277625672EAB5CBA5A89589856E58
:10376000F54FE52CD50DC5E234C324A014810466C1
:1037700074476424540544DBA7FAB79987B8975F68
:10378000E77EF71DC73CD7D326F2369106B0165711
:10379000667676154634564CD96DC90EF92FE9C8B0
:1037A00099E9898AB9ABA94458654806782768C061
:1037B00018E1088238A3287DCB5CDB3FEB1EFBF9C8
:1037C0008BD89BBBAB9ABB754A545A376A167AF1B1
:1037D0000AD01AB32A923A2EFD0FED6CDD4DCDAA18
:1037E000BD8BADE89DC98D267C076C645C454CA201
:1037F0003C832CE01CC10C1FEF3EFF5DCF7CDF9BA8
:10380000AFBABFD98FF89F176E367E554E745E9350
:103810002EB23ED10EF01E00002200250028002B03
:10382000002E003100340002010000050108010BE8
:103830000100002100240027002A002D0030003361
:103840000001010000040107010A01050505050743
:103850000508080808020202020A0A08080404040B
:103860000401010101010101010303030303030337
:1038700003040707070C0C0C0C0C0C0C0C020202C6
:103880000206060606060606060B0B0B0B0B0B0BB9
:103890000B01021020200808102040102040800258
:1038A0000102010804020101020408102040808086
:1038B000402010080402018004020180402010080A
:1038C00004020108040201010204081020408001E2
:1038D00002040810204080001801A80011241FBE17
:1038E000CFEFD1E2DEBFCDBF00E00CBF13E0A0E020
:1038F000B2E0E8EFFDE302E00BBF02C007900D92DB
:10390000AE31B107D9F723E1AEE1B3E001C01D92BA
:10391000A93FB207E1F71CE1CDE6DCE100E006C01B
:1039200021970109802FFE010F945A1ECC36D10732
:1039300080E00807A9F70F94B9070D94EA1E0C94CC
:103940000000FC0184910895FC0180810895CF93CB
:10395000DF93DB01F9019C919130C1F0943080F04C
:1039600094509C938830D1F480819181009771F0BC
:10397000019791838083480F591FEA01188206C07E
:103980008C3539F49C5F9C93943041F4DF91CF9156
:1039900008958B3339F781E08C93F8CF2081318102
:1039A000B9016F5F7F4F71836083420F531FEA013C
:1039B0008883808191818F3591056CF7E7CF909155
:1039C0007106E92FF0E0E050F04F80839F5F943064
:1039D00040F4909371068091F5078F5F8093F5070F
:1039E000089510927106F7CF282F9091B20383307B
:1039F00021F495FD0FC094FD0FC0892F90E0B0E039
:103A0000A0E004C0B695A795979587952A95D2F71B
:103A10008170089581E0089580E00895A09A089546
:103A2000809A889808950C94D0900C94D0900C941F
:103A3000D0900C94D0900C9482900C9482900C9422
:103A400082900C94829080914A02882341F0609188
:103A500094047091950441E081E00C94F2EA089599
:103A6000EF92FF920F931F93CF93DF9300D000D07C
:103A70001F921F92CDB7DEB78E010F5F1F4FD80187
:103A800030E020E0FB01E20FF31FE491ED932F5FA4
:103A90003F4F28303105B1F7877028E0829FC00181
:103AA000112480640E945BF0780188E0E80EF11C2C
:103AB000F80161918F0188EE9FE00E9405F1E01608
:103AC000F106B1F728960FB6F894DEBF0FBECDBF52
:103AD000DF91CF911F910F91FF90EF900895CF92BA
:103AE000DF92EF92FF920F931F93CF93DF9300D05B
:103AF00000D0CDB7DEB78A0146E0469F9001479FD0
:103B0000300D1124BC01620F731F46E050E0CE015E
:103B100001960F948713C980DA80EB80FC80F8014E
:103B200040815181628173818FEF9FEFC416D5066A
:103B3000E606F70640F081E090E04C155D056E0565
:103B40007F0508F080E026960FB6F894DEBF0FBE22
:103B5000CDBFDF91CF911F910F91FF90EF90DF903C
:103B6000CF9008950F931F93CF93DF93CDB7DEB718
:103B70002E970FB6F894DEBF0FBECDBF8A011E860A
:103B80001D866F83788789879A872FEF2B87603808
:103B900071058105910538F488EE9FE00E9405F1DA
:103BA00081E090E02FC09E01235F3F4FAE01495F4F
:103BB0005F4F69EB70E080EF96E10E9468D497FD5B
:103BC0002CC08D859E8526E0289FB001299F700D11
:103BD00011246051794E46E050E0CE0101960F94D9
:103BE00087136D8188EE9FE00E9405F10130110579
:103BF000B9F26E816623A1F288EE9FE00E9405F182
:103C000082E090E02E960FB6F894DEBF0FBECDBFD7
:103C1000DF91CF911F910F9108959E01235F3F4F38
:103C2000AE01495F5F4F63E670E08EE994E10E9468
:103C300068D497FD0BC08D859E8526E0289FB00136
:103C4000299F700D112462567B4EC5CF6FE3A4CF20
:103C50002F923F924F925F926F927F928F929F929C
:103C6000AF92BF92CF92DF92EF92FF920F931F938A
:103C7000CF93DF93D62FC72FFC0180809180A28045
:103C8000B380C501B40120E831E541E050E00F9474
:103C9000A21AC9016DE671E00F94321E6B017C011E
:103CA000C501B40120E13EE040E050E00F94A21ACB
:103CB000CA01B90128E130E040E050E00F94A21AB7
:103CC000362E272E062F172F8CE3482E512C612CD1
:103CD000712CC501B401A30192010F94A21AB62E52
:103CE000A72ECA01B901A30192010F94A21ACB0118
:103CF000C114D10479F1AF92BF927F936F932F9249
:103D00003F92FF92EF92DF92CF9289EE92E19F93E2
:103D10008F93CF93DF930F94F5138DB79EB70E96C5
:103D20000FB6F8949EBF0FBE8DBF8D2F9C2FDF91D5
:103D3000CF911F910F91FF90EF90DF90CF90BF90A8
:103D4000AF909F908F907F906F905F904F903F903B
:103D50002F900895E114F104C9F0AF92BF927F93C0
:103D60006F932F923F92FF92EF9289ED92E19F9392
:103D70008F93CF93DF930F94F513EDB7FEB73C9677
:103D80000FB6F894FEBF0FBEEDBFCFCF012BB9F039
:103D9000AF92BF927F936F932F923F928DEC92E1FF
:103DA0009F938F93CF93DF930F94F5138DB79EB7A7
:103DB0000A960FB6F8949EBF0FBE8DBFB6CF892B63
:103DC000A9F0AF92BF927F936F9385EC92E19F939E
:103DD0008F93CF93DF930F94F513EDB7FEB738961B
:103DE0000FB6F894FEBF0FBEEDBF9FCFAF92BF924C
:103DF00081EC92E19F938F93CF93DF930F94F51310
:103E00000F900F900F900F900F900F908ECF80918A
:103E1000A7039091A803009731F04AE050E070E0CA
:103E200060E00D947B1260E070E0CB01089580911A
:103E3000A7039091A803009731F04AE050E070E0AA
:103E400060E00D944D1160E070E0CB0108950E9498
:103E5000171FCB0108950E94171F97FD0CC00E94E9
:103E6000171F6F3F71058105910509F034F40E9419
:103E7000171F862F089580E008958FEF0895809191
:103E8000A7039091A803892B41F00E942B1F91E07A
:103E9000811101C090E0892F089591E0FCCFCF926D
:103EA000DF92EF92FF920F931F93CF93DF936B01FB
:103EB0007A01EC01C25DDC4F28813CE0389F800133
:103EC000399F100D112427FF24C0FB01118210829D
:103ED00088818F5F888388819801280F311D87FD35
:103EE0003A95C9012091890FF6012817190629F082
:103EF00024F088818C300CF43CC080819181049640
:103F000080349C4908F475C0F60180819181049643
:103F100072C088819801280F311D87FD3A95C9012B
:103F20002091890F2817190699F294F28881A80127
:103F3000480F511D87FD5A95FA01EE0FFF1FE40F40
:103F4000F51FEF5BF04F808187FFC2CF8881F801BA
:103F5000E80FF11D87FDFA95CF01EE0FFF1FE80F67
:103F6000F91FEF5BF04F808160E08F770E949AEE3F
:103F7000AFCF808191812881A801420F511D27FD7B
:103F80005A959A01FA01EE0FFF1FE20FF31FEF5B44
:103F9000F04F21813281820F931FF701918380833B
:103FA00088819801280F311D87FD3A95F901EE0FA0
:103FB000FF1FE20FF31FEF5BF04F808187FF20C0F0
:103FC0008881080F111D87FD1A95F801EE0FFF1F5C
:103FD000E00FF11FEF5BF04F808161E08F77DF91A1
:103FE000CF911F910F91FF90EF90DF90CF900C94A5
:103FF0009AEE80E49CE9F701918380838FEF8883B8
:10400000DF91CF911F910F91FF90EF90DF90CF90B4
:104010000895CF93DF9300D01F92CDB7DEB70F94F2
:10402000791C0F94631469837A838B839C83CE01FC
:1040300001960E9459B30F900F900F900F90DF914F
:10404000CF9108958F929F92AF92BF92CF92DF92BD
:10405000EF92FF926B017C0120E030E0A9010F9408
:104060005E1487FD6BC06DEB77E386E095E3A701F7
:1040700096010F94061B6B017C0120E030E040E2CA
:1040800051E40F94C41420E030E040E251E40F9476
:10409000C4144B015C0120E030E0A901C701B60166
:1040A0000F945E1420E030E040EA50E487FF04C043
:1040B00020E030E040EA50ECC501B4010F94061B4B
:1040C00020E030E040E251E40F94001C0F94721C99
:1040D0009B018BE237FF05C022273327261B370BB6
:1040E0008DE280939904C90164E670E00F94461E46
:1040F000CB01EAE0F0E0BF010F94461E805D8093A3
:104100009A04C901BF010F94461E282FCB01BF019D
:104110000F94461E805D80939B048EE280939C04E6
:10412000205D20939D0489E994E0FF90EF90DF905B
:10413000CF90BF90AF909F908F9008956DEB77E3F5
:1041400086E095EB94CF8F929F92AF92BF92CF92E1
:10415000DF92EF92FF92CF936B017C0120E030E081
:10416000A9010F945E1487FDAAC06DEB77E386E08A
:1041700095E3A70196010F94061B6B017C0120E0DB
:1041800030E0A9010F945E1487FF9EC0C701B601FD
:10419000905820E030E040E251E40F94C41420E055
:1041A00030E040E251E40F94C41420E030E040EAF3
:1041B00050E40F94061B20E030E040E251E40F94FD
:1041C000001C0F94721C6B017C0180E280939704A9
:1041D00060E280E1C81687E2D806E104F1048CF0C1
:1041E000C701B60120E137E240E050E00F94C41A65
:1041F000CA01B9012AE030E040E050E00F94C41A4F
:10420000605D6093980460E288EEC81683E0D8068B
:10421000E104F1048CF0C701B60128EE33E040E080
:1042200050E00F94C41ACA01B9012AE030E040E01E
:1042300050E00F94C41A605D6093990460E284E6D4
:10424000C816D104E104F1048CF0C701B60124E6DC
:1042500030E040E050E00F94C41ACA01B9012AE0EE
:1042600030E040E050E00F94C41A605D60939A041F
:104270008AE0882E912CA12CB12CC701B601A50192
:1042800094010F94C41AC62FCA01B901A501940163
:104290000F94C41A605D60939B048EE280939C042B
:1042A000C05DC0939D0487E994E0CF91FF90EF90AB
:1042B000DF90CF90BF90AF909F908F9008956DEB5F
:1042C00077E386E095EB55CF20E030E040E251E423
:1042D000C701B60162CFCF92DF92EF92FF92CF93E8
:1042E000DF9300D01F92CDB7DEB76B017C0120E0D9
:1042F00030E0A9010F945E1487FD1BC06DEB77E3DE
:1043000086E095E3A70196010F94061B69837A83E3
:104310008B839C83CE0101960E9459B30F900F901E
:104320000F900F90DF91CF91FF90EF90DF90CF90A3
:1043300008956DEB77E386E095EBE4CF8F929F9243
:10434000AF92BF92CF92DF92EF92FF92CF936B0129
:104350007C0120E030E0A9010F945E1487FD93C03A
:104360006DEB77E386E095E3A70196010F94061BBA
:104370006B017C0120E030E040E251E40F94C41472
:1043800020E030E04AE754E40F94C4144B015C0190
:1043900020E030E0A901C701B6010F945E1420E0CF
:1043A00030E040EA50E487FF04C020E030E040EA1B
:1043B00050ECC501B4010F94061B20E030E040E250
:1043C00051E40F94001C0F94721C6B017C01C1140A
:1043D000D104E104F10409F45BC0F7FE59C0F09484
:1043E000E094D094C094C11CD11CE11CF11C8DE25E
:1043F00080939804C701B60128EE33E040E050E016
:104400000F94C41A8AE0882E912CA12CB12CCA01D9
:10441000B901A50194010F94C41A605D60939904D9
:104420008EE280939A04C701B60124E630E040E0B2
:1044300050E00F94C41ACA01B901A50194010F9468
:10444000C41A605D60939B04C701B601A501940185
:104450000F94C41AC62FCA01B901A50194010F9483
:10446000C41A605D60939C04C05DC0939D0488E99C
:1044700094E0CF91FF90EF90DF90CF90BF90AF90FE
:104480009F908F9008956DEB77E386E095EB6CCF6E
:1044900080E2AECF8F929F92AF92BF92CF92DF9287
:1044A000EF92FF92CF936B017C0120E030E0A901F5
:1044B0000F945E1487FFA3C06DEB77E386E095EB66
:1044C000A70196010F94061B6B017C0120E030E0F0
:1044D00040E251E40F94C41420E030E048EC52E490
:1044E0000F94C4144B015C0120E030E040E251EC39
:1044F000C701B6010F945E14181654F420E030E0A2
:1045000048EC52E4C701B6010F94661D87FD8BC0CD
:1045100020E030E0A901C701B6010F945E1487FFC7
:1045200073C060E070E080EA90ECA50194010F9404
:10453000061B20E030E040E251E40F94001C0F9491
:10454000721C6B017C01F7FC64C020E137E240E0A3
:1045500050E00F94C41ACA01B9012AE030E040E0EB
:1045600050E00F94C41A605D60939804C701B601CF
:1045700028EE33E040E050E00F94C41A9AE0892E10
:10458000912CA12CB12CCA01B901A50194010F9461
:10459000C41A605D60939904C701B60124E630E057
:1045A00040E050E00F94C41ACA01B901A50194017A
:1045B0000F94C41A605D60939A048EE280939B040A
:1045C000C701B601A50194010F94C41AC62FCA01F0
:1045D000B901A50194010F94C41A605D60939C0415
:1045E000C05DC0939D0488E994E0CF91FF90EF9067
:1045F000DF90CF90BF90AF909F908F9008956DEB1C
:1046000077E386E095E35CCF60E070E080EA90E4D9
:104610008CCFF094E094D094C094C11CD11CE11CC8
:10462000F11C6DE2A1CF20E030E0A901C701B60185
:104630000F945E1487FF6AC060E070E080EA90EC3F
:10464000A50194010F94061B20E030E040E251E404
:104650000F94001C0F94721C4B015C0120E030E0B1
:10466000A901C701B6010F94661D87FD0BC020E0AC
:1046700030E040E251E4C701B6010F945E1460E2FD
:1046800087FD13C0B7FC47C0C501B40128EE33E075
:1046900040E050E00F94C41ACA01B9012AE030E0AA
:1046A00040E050E00F94C41A605D60939904C50126
:1046B000B40124E630E040E050E00F94C41A8AE0F0
:1046C000C82ED12CE12CF12CCA01B901A701960109
:1046D0000F94C41A605D60939A048EE280939B04E9
:1046E000C501B401A70196010F94C41AC62FCA01CF
:1046F000B901A70196010F94C41A605D60939C04F0
:10470000C05DC0939D0489E994E06FCF60E070E0E4
:1047100080EA90E495CFB094A09490948094811C0A
:10472000911CA11CB11C6DE2C0CFCF92DF92EF9221
:10473000FF926B017C0120E030E0A9010F945E1430
:1047400087FD26C06DEB77E386E095E3A701960130
:104750000F94061B6B017C0120E030E0A9010F944F
:104760005E1420E030E040E05FE387FF04C020E01B
:1047700030E040E05FEBC701B6010F94061B0F94D9
:10478000721CCB01FF90EF90DF90CF900C94DCB3C4
:104790006DEB77E386E095EBD9CF63E972E084E6D1
:1047A00090E00E9425BD6AEB72E084E690E00C94F4
:1047B00025BD81110C94CD2368EB71E084E190E07C
:1047C0000C9425BD8091900F9091910F891B8F7053
:1047D00051F480915B08813031F080911D1182FB92
:1047E000882780F9089581E00895E0918D04E630EE
:1047F00010F581E08E0F80938D0440910E0850914A
:104800000F0860911008709111089091070880912D
:10481000080828E0E29FF0011124E35AFB4F2091A1
:10482000E60F3091E70F3183208342835383648303
:104830007583968387830895AF92BF92CF92DF925C
:10484000EF92FF920F931F93CF93DF93EC015B01E5
:104850008A01FB01199587FD16C0C82ED12CF12CB9
:10486000E12C2196F801C082D182E282F382CE014E
:10487000DF91CF911F910F91FF90EF90DF90CF903C
:10488000BF90AF900895982F907E903CA9F48F71BF
:1048900090E0B0E0A0E06C017D0126E0CC0CDD1CD6
:1048A000EE1CFF1C2A95D1F7CE010196F501199552
:1048B0008F73C82A2296D6CF982F907F903E11F5FD
:1048C0008F7090E0B0E0A0E06C017D0186E0CC0C40
:1048D000DD1CEE1CFF1C8A95D1F7CE010196F50177
:1048E00019958F73C82A96E0CC0CDD1CEE1CFF1CBA
:1048F0009A95D1F7CE010296F50119958F73C82AC2
:104900002396B0CF982F987F903F79F5877090E0ED
:10491000B0E0A0E06C017D01F6E0CC0CDD1CEE1CEB
:10492000FF1CFA95D1F7CE010196F50119958F7309
:10493000C82AA6E0CC0CDD1CEE1CFF1CAA95D1F702
:10494000CE010296F50119958F73C82AB6E0CC0CFA
:10495000DD1CEE1CFF1CBA95D1F7CE010396F501C4
:1049600019958F73C82A24967DCF982F9C7F983FE6
:10497000E1F5837090E0B0E0A0E06C017D0156E0CD
:10498000CC0CDD1CEE1CFF1C5A95D1F7CE01019614
:10499000F50119958F73C82A66E0CC0CDD1CEE1C5E
:1049A000FF1C6A95D1F7CE010296F50119958F7318
:1049B000C82A76E0CC0CDD1CEE1CFF1C7A95D1F7E2
:1049C000CE010396F50119958F73C82AE6E0CC0C49
:1049D000DD1CEE1CFF1CEA95D1F7CE010496F50113
:1049E00019958F73C82A25963DCF982F9E7F9C3F9F
:1049F00009F049C0817090E0B0E0A0E06C017D0159
:104A000086E0CC0CDD1CEE1CFF1C8A95D1F7CE0194
:104A10000196F50119958F73C82A96E0CC0CDD1C20
:104A2000EE1CFF1C9A95D1F7CE010296F50119955F
:104A30008F73C82A26E0CC0CDD1CEE1CFF1C2A95C7
:104A4000D1F7CE010396F50119958F73C82A36E088
:104A5000CC0CDD1CEE1CFF1C3A95D1F7CE01049660
:104A6000F50119958F73C82A46E0CC0CDD1CEE1CAD
:104A7000FF1C4A95D1F7CE010596F50119958F7364
:104A8000C82A2696EFCE982F907C903841F4807CEF
:104A9000803869F42196CE01F5011995F8CF8E7F03
:104AA0008D3F28F02196CE01F5011995F8CFC12C44
:104AB000D12C7601D7CE1F93CF93DF9300D01F92D6
:104AC000CDB7DEB710E0AE014F5F5F4F61EA7CE12A
:104AD0000E941C2449815A816B817C81452B462B85
:104AE000472B11F01F5FEFCF812F0F900F900F908A
:104AF0000F90DF91CF911F9108951F93CF93DF9374
:104B000000D01F92CDB7DEB710E0AE014F5F5F4F10
:104B100064EA7CE10E941C2449815A816B817C817A
:104B2000452B462B472B11F01F5FEFCF812F0F90A6
:104B30000F900F900F90DF91CF911F91089565EB2B
:104B40007BE180E00E94301D6DEA7BE181E00E9404
:104B5000301D65EA7BE182E00E94301D6DE97BE15A
:104B600086E00E94301D65E97BE187E00E94301DF0
:104B70006DE87BE183E00E94301D65E87BE184E025
:104B80000E94301D6DE77BE185E00C94301DCF93D2
:104B9000823069F4C4E0C15068F088E0C89FB00179
:104BA00011246A5B744E8C2F0E94301DF4CFCF917C
:104BB0000C949F25CF9108950F931F93522F20910E
:104BC000E60F3091E70F2817390779F19093E70F37
:104BD0008093E60F8B0130E020E000930E081093E5
:104BE0000F08209310083093110840930708509342
:104BF00008088151944B21F41092960410928D0470
:104C00000E9461F081E02091E60F3091E70F215181
:104C1000344B09F080E00E94C72582E080934A026D
:104C200081E080931E0810928E041F910F910895C9
:104C300020E040E070E060E081E194EB0C94DC2542
:104C4000E0918D04EE2389F0E150E0938D0488E03B
:104C5000E89FF0011124E35AFB4F628173812781A1
:104C60004681808191810C94DC250C94182664E0A7
:104C700084E10E9469F081E02091E60F3091E70F16
:104C80002151344B09F080E00E94C7250C9461F05B
:104C90004FEF5FEF0C94B21DAF92BF92CF92DF92B5
:104CA000EF92FF920F931F93CF93DF9300D01F9249
:104CB000CDB7DEB76C015B017A0110E000E00E15A4
:104CC0001F05E8F419821A821B821C82AE014F5F15
:104CD0005F4FB501C6010E941C246C0169817A8175
:104CE0008B819C81611571058105910541F0A701BA
:104CF000401B510B0E94B21D080F191FE0CFC801C5
:104D00000F900F900F900F90DF91CF911F910F9107
:104D1000FF90EF90DF90CF90BF90AF900895CF922B
:104D2000DF92EF92FF920F931F93CF93DF9300D008
:104D30001F92CDB7DEB77C01062F6A01122F111624
:104D40000CF03EC0AE014F5F5F4F61EA7CE1C701EE
:104D50000E941C247C0169817A818B819C81611570
:104D600071058105910561F16D337105810591052D
:104D700009F44BC06E3771058105910509F445C0F2
:104D80006A3271058105910549F507FF10C081EC74
:104D90009BE10E3F11F08DEB9BE1412F012E000CAA
:104DA000550B61EA7CE10E944C26181B5EC065E44D
:104DB00070E080E090E00E944826115041F510E03C
:104DC000812F0F900F900F900F90DF91CF911F9137
:104DD0000F91FF90EF90DF90CF90089564327105AE
:104DE0008105910571F4C114D10459F0412F012EB0
:104DF000000C550B61EA7CE1C6010E944C26181B91
:104E00009ECF0E94482611509ACF07FDC0CF61E087
:104E100089819A81AB81BC81CD97A105B10509F447
:104E200060E0600F6A30ACF01150862F6AE00F949A
:104E3000241E092F682F880F770B605D7F4F072E88
:104E4000000C880B990B0E944826112309F4B7CF58
:104E5000602F062E000C770B605D7F4F072E000C35
:104E6000880B990B0E9448261150112309F4A7CFF3
:104E7000412F012E000C550B61EA7CE1C7010E9415
:104E80004C26181B9DCF4FEF5FEF64EA7CE10C943A
:104E90004C264FEF5FEF61EA7CE10C944C266430C6
:104EA00008F063E09091FB0F691710F06FEF690F46
:104EB000E62FF0E0E851F04F9489890F80680C9458
:104EC0005BF02F923F924F925F926F927F928F9200
:104ED0009F92AF92BF92CF92DF92EF92FF920F9389
:104EE0001F93CF93DF9300D0CDB7DEB74C013B01CA
:104EF0005A01222E3B83280140910E0850910F0841
:104F000060911008709111084115510561057105F6
:104F100079F081E0141615060CF080E080938E0481
:104F200010920E0810920F0810921008109211089B
:104F300010918E043090F8071092F807311005C0D8
:104F400080914A02882309F4A5C0C2010E945B2512
:104F5000082F80E0C114D10419F0C6010E945B251E
:104F60001A821982E114F104B1F4402F50E0282F85
:104F700030E0CA01820F931F45976CF484E190E002
:104F8000841B950B821B930B97FD01969595879536
:104F90008A8381E0898301E021EA3CE1A201BE012C
:104FA0006F5F7F4FCE0102960E946BC6E114F10441
:104FB00091F08A81882321F01A8289818F5F898309
:104FC00000E024EA3CE1A701BE016F5F7F4FCE0104
:104FD00002960E946BC6C114D10459F000E021EA88
:104FE0003CE1A601BE016F5F7F4FCE0102960E9499
:104FF0006BC663E080E00E944F276BE570E080E0C5
:1050000090E0112321F060E270E080E090E00E94E7
:105010004826C3010E9449276DE570E080E090E0DA
:10502000112321F060E270E080E090E00E944826C9
:10503000C4010E945B2563E092E1981B892F0E94C6
:105040004F2760E270E080E090E0112321F06BE5F3
:1050500070E080E090E00E944826C4010E94492749
:1050600060E270E080E090E0112321F06DE570E0F7
:1050700080E090E00E944826332049F0111102C0E0
:10508000A22CBB80A114B104D9F0F501199581E0DF
:10509000809396040F900F900F90DF91CF911F9106
:1050A0000F91FF90EF90DF90CF90BF90AF909F90C7
:1050B0008F907F906F905F904F903F902F900895CA
:1050C0000E942026E4CFCF92DF92EF92FF920F93BF
:1050D0001F9380EDC82E8CE1D82EF12CE12C03EE2D
:1050E0001CE130E020E045ED51EC62ED7CE189ED22
:1050F0009CE10E9461271F910F91FF90EF90DF903C
:10510000CF900895CF92DF92EF92FF9269017A01DA
:105110000E944F27C701B601FF90EF90DF90CF901C
:105120000C944826CF92DF92FF920F931F93CF9358
:10513000DF938C01EB01C0902008D0902108F09003
:105140001F0861E080E00E944F2723E1A6016F2D38
:10515000C8010E948F26182F209711F16AE370E092
:1051600080E090E00E944826CE010E947D258F5F5E
:10517000115061E0181708F462E020E230E040E0EE
:1051800050E094E1981B892F0E948228CE01DF9184
:10519000CF911F910F91FF90DF90CF900C944327F8
:1051A000DF91CF911F910F91FF90DF90CF900895E5
:1051B0000F931F93CF93DF93FC01EB0180910E08B7
:1051C00090910F08A0911008B0911108B7FF08C086
:1051D00010920E0810920F081092100810921108E9
:1051E0008091120890911308A0911408B0911508AD
:1051F00040910E0850910F086091100870911108AD
:1052000084179507A607B70744F480930E08909378
:105210000F08A0931008B093110880914A028823C8
:10522000E1F060910E0870910F0880911008909144
:105230001108009116081091170820911808309154
:105240001908600F711F821F931F1995BC0180916F
:105250001C0890911D080E9492288091F8078111E6
:1052600008C080910B088823D1F180914A028823DD
:10527000B1F180911A0890911B080097B1F040910C
:105280000E0850910F08609110087091110800915C
:105290001608109117082091180830911908400F2E
:1052A000511F621F731FFE011995E0910C08F091C8
:1052B0000D08309741F080910B08811103C0809157
:1052C000F807811119958091F8071092F807882343
:1052D00031F0DF91CF911F910F910C942026DF9137
:1052E000CF911F910F910895CF92DF92EF92FF928D
:1052F0000F931F93CF93DF93C82ED62E7A01E90127
:10530000209709F467C0C901002381F10E945B2541
:10531000182F2EE330E040E050E0C11004C020E23E
:1053200030E040E050E06D2D80E00E94822822E1D4
:10533000211B409120085091210860911F08C7014E
:105340000E948F26F82E112309F448C06AE370E00A
:1053500080E090E00E944826FF2059F060E270E073
:1053600080E090E00E944826FA94F6CF0E947D25C6
:10537000CFCFCE01002351F0DF91CF911F910F913C
:10538000FF90EF90DF90CF900C944927DF91CF9161
:105390001F910F91FF90EF90DF90CF900C944327D7
:1053A0002EE330E040E050E06D2D80E00E94822846
:1053B000409120085091210822E160911F08C70107
:1053C000DF91CF911F910F91FF90EF90DF90CF90E1
:1053D0000C948F268111E4CF10E0A1CFDF91CF9103
:1053E0001F910F91FF90EF90DF90CF9008950F9352
:1053F000CF93DF93EA01811101C020E2022E000C5D
:10540000330B440B550B80E00E948228409120080A
:105410005091210822E160911F08CE010E948F2641
:10542000C82FCC2341F060E270E080E090E00E9461
:105430004826C150F6CF602F000F770B880B990BD1
:10544000DF91CF910F910C944826EF92FF920F932A
:105450001F93CF93DF930E94EBEBD0910708C0E03E
:10546000D1112FC0809109088823C1F080914A0290
:10547000882361F081E090910908911180E003E0B8
:1054800023E04EEB5CE16C2F0E94F729DF5FCF5FDA
:10549000C43031F787E0809308080CC08091F8078A
:1054A0001092F807882311F30E94202680911E088D
:1054B0008823E1F2DF91CF911F910F91FF90EF9040
:1054C0000895D130E9F5809109088130E9F08091A3
:1054D0004A028823D9F211E080910908813009F04D
:1054E00010E060916D0E70916E0E80916F0E909134
:1054F000700E0E94952300E09C0149E25CE16C2F54
:10550000812F0E947429C2CF8091F8071092F8076A
:105510008823E9F20E943BECE12C10ECF12E09E724
:1055200014E420E030E040E85FE36DE67EE089E2ED
:105530009CE10E9447EC80911E08882341F2BACF7B
:10554000D23009F002C1809109088230D1F08091F7
:105550004A02882309F49ACF11E080910908823029
:1055600009F010E06091710E7091720E8091730ECF
:105570009091740E0E94952300E09C0142E25CE150
:10558000BECF8091F8071092F807882301F30E949C
:105590003BECE12C10ECF12E09E714E420E030E0C4
:1055A00040E85FE361E77EE082E29CE10E9447EC35
:1055B00080911E08882359F27DCF8091090883309D
:1055C000D1F080914A02882309F460CF11E08091E4
:1055D0000908833009F010E06091750E7091760E25
:1055E0008091770E9091780E0E94952300E09C01A7
:1055F0004BE15CE184CF8091F8071092F807882393
:1056000001F30E943BECE12C10ECF12E09E714E4CD
:1056100020E030E040E85FE365E77EE08BE19CE17D
:105620000E9447EC80911E08882359F243CF809155
:1056300009088430D1F080914A02882309F426CFEA
:1056400011E080910908843009F010E06091790E32
:1056500070917A0E80917B0E90917C0E0E94952322
:1056600000E09C0144E15CE14ACF8091F807109290
:10567000F807882301F30E943BECE12C10ECF12E9B
:1056800009E714E420E030E040E85FE369E77EE00A
:1056900084E19CE10E9447EC80911E08882359F226
:1056A00009CF809109088530D1F080914A02882382
:1056B00009F4ECCE11E080910908853009F010E082
:1056C0006091890E70918A0E80918B0E90918C0E54
:1056D0000E94952300E09C014FE05CE110CF809197
:1056E000F8071092F807882301F30E943BECE12CA5
:1056F00010ECF12E09E714E420E030E0A90169E89C
:105700007EE08FE09CE10E9447EC80911E08882398
:1057100061F2D0CE8091F8071092F807882329F122
:105720000E943BECE12C10ECF12E09E714E420E0A0
:1057300030E0A9016DE87EE085E09CE10E9447EC45
:1057400080911E08882389F0B5CED33009F435CF77
:10575000D43009F46CCFD53009F4A3CFD63009F09A
:1057600095CE809109088630A9F280914A0288235B
:1057700009F48CCE11E080910908863009F010E020
:1057800060918D0E70918E0E80918F0E9091900E83
:105790000E94952300E09C0145E05CE1B0CE4F9271
:1057A0005F926F927F928F929F92AF92BF92CF92B1
:1057B000DF92EF92FF920F931F93CF93DF9300D06E
:1057C00000D0CDB7DEB7C0904D0ED0904E0EE09019
:1057D0004F0EF090500E8091510E9091520EA0916C
:1057E000530EB091540E8C159D05AE05BF0510F4F7
:1057F000D701C601C090490ED0904A0EE0904B0EE2
:10580000F0904C0EBC01CD016C157D058E059F05F9
:1058100010F4C701B6010F9463142B013C010E94E0
:10582000EBEB209107082E831D828E81811143C0EE
:10583000809109088823E1F080914A02882361F071
:1058400081E090910908911180E003E023E04EEBA4
:105850005CE16D810E94F7298E818F5F8E832D819F
:105860002F5F2D83243009F788E0809308080CC04F
:105870008091F8071092F8078823F1F20E94202601
:1058800080911E088823C1F226960FB6F894DEBFD9
:105890000FBECDBFDF91CF911F910F91FF90EF9081
:1058A000DF90CF90BF90AF909F908F907F906F9040
:1058B0005F904F9008952E81213009F087C080912C
:1058C00009088130E9F080914A02882329F211E029
:1058D00080910908813009F010E060917D0E70918F
:1058E0007E0E80917F0E9091800E0E946B2100E0D1
:1058F0009C014FE55CE16D81812F0E947429ACCF42
:105900008091F8071092F8078823E9F20E943BEC97
:105910002AE037ED43E25DE3C301B2010F94C41402
:1059200020E030E0A9010F94061B4B015C0120E050
:1059300030E040E05FE40F945E1487FD05C0812CE9
:10594000912CA12C5FE4B52E2AE037ED43E25DE314
:1059500060917D0E70917E0E80917F0E9091800EF1
:105960000F94C41420E030E0A9010F94061B20E03E
:1059700030E040E85FE30F94051B0F94791C6983C6
:105980007A838B839C83C501B4010F94721C7B01C5
:105990008C0121E0E21AF10801091109912C812CF6
:1059A0004BE0A42E45E8B42EC980DA8021E030E037
:1059B00040E050E06DE77EE08FE59CE10E9479EBEE
:1059C00080911E08882309F47ECF5ECF8E818230BD
:1059D00009F0C8C1809109088230D1F080914A0253
:1059E000882309F439CF11E080910908823009F049
:1059F00010E06091810E7091820E8091830E9091E3
:105A0000840E0E946B2100E09C0145E55CE173CFB0
:105A10008091F8071092F807882301F30E943BEC6D
:105A20006091550E7091560E8091570E9091580EC0
:105A30000F94631420E030E0A9010F94061B4B0182
:105A40005C0120E030E040E05FE40F945E1487FDED
:105A500005C0812C912CA12C3FE4B32E20E030E036
:105A6000A9016091810E7091820E8091830E9091B8
:105A7000840E0F94061B20E030E048EC52E40F94B3
:105A8000051B0F94791C69837A838B839C83C501E2
:105A9000B4010F94721C7B018C0124E6E21AF10818
:105AA00001091109912C812C25E0A22E25E8B22EA6
:105AB000C980DA8024E630E040E050E061E87EE032
:105AC00085E59CE10E9479EB80911E08882309F40A
:105AD00085CFDACE809109088330D1F080914A02D7
