:100000000C94D21B0C94031C0C94031C0C94031C26
:100010000C94031C0C94031C0C94031C0C94031CE4
:100020000C94031C0C94031C0C94031C0C94031CD4
:100030000C94031C0C94FDED0C94031C0C94031CF9
:100040000C94031C0C94EA8C0C94031C0C94031C5D
:100050000C94031C0C94031C0C946D870C942BF2D1
:100060000C94031C0C9492640C9488640C94031CF0
:100070000C94031C0C94031C0C94031C0C94031C84
:100080000C94D1410C94031C0C94031C0C94031C81
:100090000C94031C0C94031C0C94031C0C94031C64
:1000A0000C94031C0C94031C0C94A3410C94031C8F
:1000B0000C94031C0C94031C0C94031C0C94031C44
:1000C0000C94031C0C94031C0C94031C0C94031C34
:1000D0000C94031C0C94031C0C94031C0C94031C24
:1000E0000C94031C084AD73B3BCE016E84BCBFFD79
:1000F000C12F3D6C74319ABD56833DDA3D00C77FF8
:1001000011BED9E4BB4C3E916BAAAABE0000008090
:100110003F05A84CCDB2D44EB93836A9020C50B91F
:10012000918688083CA6AAAA2ABE000000803F004B
:100130000D94ED060C940F840C9456540C94E87DA9
:100140000C94B8830C94B5540C9473860C9414815D
:100150000C94C4ED0C94EDED0C9420810C94077E6E
:100160000C94A0830C94F3ED0C94FDAE0C94E17E02
:100170000C946A7D0C94337E0D94640F0C94867FEE
:100180000C94F2860C94477F0C94CA830C94A4813F
:100190000C941E1E0C9475C00C942C7F0C940E8134
:1001A0000C94F7ED0C9428540C948D540C948354B7
:1001B0000C9432540C9497540C94E2830C94D08396
:1001C0000C94221E0C94A6830C94DBED0C941484E6
:1001D0000C94BAD40C9412820C94C7ED0C94201E8B
:1001E0000C94081C0C9485810C94BCED0C94283262
:1001F0000C94212C0C94C87E0C942E870C94777E42
:100200000C94847B0C945A7F0C94E9ED0C94207E22
:100210000C9423540C9414820C94FFC90C94F9AEE2
:100220000C94C4830C9474540C94E5ED0C943C54DD
:100230000C944B8E0C9405840C948D7D0C94892D1C
:100240000C942BC60C9421270C941E540C9434C986
:100250000C94F7830C94181E0C9479C00C949FCBCB
:100260000C94137F0C9460540C945C7E0C94DC838F
:100270000C9478860C94DCEF0C94D0B60C9447D494
:100280000C94FA7E0C944E540C94161E0C944A80D6
:100290000C94D1ED0C949F7F0C94CB860C94A1ED23
:1002A0000C94B8ED0C9424B80C94528E0C9438D461
:1002B0000C94D5CF0C942E350C94A37F0C944781CD
:1002C0000C94C0ED0C9400840C9446C20C94DFEDA9
:1002D0000C9469860C94D7ED0C94E8830C94AB5481
:1002E0000C94B9D40C9467D40C94A1540C94A07DB4
:1002F0000C941C1E0C940F2B0C941C820C94417EAD
:100300000C9476C20C94141E0C941F870C94927E4D
:100310000C946DC00C946A540C946E860C941A81E3
:100320000C9424800C9426810C94B2830C94A6ED3A
:100330000C94B4B20C94BE830C94D6830C944654A3
:100340000C94AD7E0C946D7F0C9466810C94152FEB
:100350000C94D0800C941A1E0C94E3330C94121E4F
:100360000C94CC3D0C94AC830C94D3860C941087E5
:100370000C94051C0C9461D20C9401870C94C381DD
:100380000C94EAB10C94D8800C94E1CD0C94ADC7D8
:100390000C94A97D0C94CDED0C94A17F0C94FB7D65
:1003A0000C94C4870C940A844E414E494E495459CA
:1003B000494E46CDCCCC3D0AD7233C17B7D1387730
:1003C000CC2B329595E6241FB14F0A000020410046
:1003D00000C84200401C4620BCBE4CCA1B0E5AAE90
:1003E000C59D7400407A10F35A00A0724E1809009F
:1003F00010A5D4E80000E87648170000E40B54028A
:100400000000CA9A3B000000E1F5050000809698C4
:1004100000000040420F000000A086010000001014
:100420002700000000E80300000000640000000056
:10043000000A00000000000100000000002C76D837
:1004400088DC674F0823DFC1DFAE59E1B1B796E51D
:10045000E3E453C63AE651997696E8E6C28426EB81
:10046000898C9B62ED407C6FFCEFBC9C9F40F2BA94
:10047000A56FA5F490055A2AF75C936B6CF9676D2C
:10048000C11BFCE0E40D47FEF520E6B500D0ED9081
:100490002E0300943577050080841E080000204E4E
:1004A0000A000000C80C333333330F986E128311E7
:1004B00041EF8D2114893BE65516CFFEE6DB18D1BE
:1004C000844B381BF77C1D901DA4BBE42420328490
:1004D000725E228100C9F124ECA1E53D27434F4D16
:1004E0004D554E49434154494F4E0044525952557F
:1004F0004E004552524F525300494E464F0045431D
:10050000484F004572726F722077726974696E6726
:1005100020746F20454550524F4D210A0021212063
:100520004B494C4C2063617573656420627920747B
:100530006F6F206D75636820696E6163746976659D
:100540002074696D65202D2063757272656E74204C
:10055000636F6D6D616E643A20004D343130004D33
:10056000313132004D3130380053544F50504544F2
:100570002E20005072696E7465722073746F7070F3
:1005800065642064756520746F206572726F727384
:100590002E2046697820746865206572726F72201B
:1005A000616E6420757365204D39393920746F2070
:1005B000726573746172742E202854656D70657253
:1005C00061747572652069732072657365742E207D
:1005D0005365742069742061667465722072657356
:1005E00074617274696E67290A004E6F20436865F2
:1005F000636B73756D2077697468206C696E652014
:100600006E756D6265722C204C617374204C696E3E
:10061000653A20004E6F20436865636B73756D20EB
:1006200077697468206C696E65206E756D6265729D
:100630002C204C617374204C696E653A200063680D
:1006400065636B73756D206D69736D617463682C80
:10065000204C617374204C696E653A20004C696EC1
:1006600065204E756D626572206973206E6F74200F
:100670004C617374204C696E65204E756D626572B5
:100680002B312C204C617374204C696E653A20002C
:100690004D313130005344207265616420657272BF
:1006A0006F720A00627573793A20706175736564C0
:1006B00020666F7220696E7075740A0062757379B6
:1006C0003A2070617573656420666F72207573657A
:1006D000720A00627573793A2070726F6365737382
:1006E000696E670A004D656469612052656D6F76B9
:1006F0006564004D6564696120496E736572746557
:100700006400506C656173652052657365740050B8
:1007100052494E5445522048414C544544002553BB
:100720003A202553004B494C4C45442E2000507232
:10073000696E7465722068616C7465642E206B69E3
:100740006C6C28292063616C6C6564210A00535429
:100750004F505045442E20005072696E74657220CF
:1007600073746F707065642064756520746F2065A4
:1007700072726F72732E20466978207468652065E6
:1007800072726F7220616E6420757365204D393905
:100790003920746F20726573746172742E2028542E
:1007A000656D70657261747572652069732072651C
:1007B0007365742E205365742069742061667465B6
:1007C000722072657374617274696E67290A0065BC
:1007D00063686F3A004572726F723A0042696C69E1
:1007E0006E656172204C6576656C696E6720477234
:1007F00069643A0A0021212053544F502063616CF0
:100800006C65642062656361757365206F66204264
:100810004C546F756368206572726F72202D207260
:100820006573746172742077697468204D39393941
:100830000A0021212053544F502063616C6C656481
:100840002062656361757365206F6620424C546F4A
:10085000756368206572726F72202D2072657374E3
:100860006172742077697468204D3939390A004FF4
:1008700046460A00466164652048656967687420D9
:1008800000426564204C6576656C696E67200046A1
:1008900061696C656420746F20656E61626C6520AF
:1008A000426564204C6576656C696E670A00496E26
:1008B00076616C6964206D6573682E0A0050726FF2
:1008C00062696E6720506F696E7400255320256938
:1008D0002F2569002E0A002F0050726F62696E6723
:1008E000206D65736820706F696E74200020284445
:1008F000525952554E2900473239204175746F20A4
:10090000426564204C6576656C696E67003F2028FF
:100910004C2C522C462C4229206F7574206F662077
:10092000626F756E64732E0A003F285629657262E5
:100930006F7365206C6576656C20696D706C617590
:100940007369626C652028302D34292E0A004261BB
:1009500064205A2076616C75650A004E6F206269CA
:100960006C696E65617220677269640A004465761D
:10097000696174696F6E0025533A202573004669DA
:100980006E6973686564210A003A207A3A20002073
:100990006F662000476F696E6720746F3A205800B9
:1009A00043570A00206469723A0020616E676C65E3
:1009B0003A005374617274207261646975733A000D
:1009C0004D343820506F696E740025533A202564E9
:1009D0002F256400506F736974696F6E696E6720AC
:1009E0007468652070726F62652E2E2E0A003F4C6F
:1009F000656773206F66206D6F76656D656E742018
:100A0000696D706C61757369626C652028302D3179
:100A100035292E0A003F2028582C5929206F75743B
:100A2000206F6620626F756E64732E0A0050726FBD
:100A30006265206F7574206F6620626F756E6473D7
:100A4000003F53616D706C652073697A65206E6F2D
:100A50007420706C61757369626C652028342D3563
:100A600030292E0A004D3438205A2D50726F62659D
:100A7000205265706561746162696C697479205493
:100A80006573740A003F2856296572626F7365208A
:100A90006C6576656C20696D706C61757369626CEC
:100AA000652028302D34292E0A005374616E64614C
:100AB000726420446576696174696F6E3A20002023
:100AC00052616E67653A2000204D61783A2000201F
:100AD0004D696E3A2000205369676D613A20004DE0
:100AE00065616E3A200020496E76616C696420650C
:100AF000787472756465722000536C6565702E2E73
:100B00002E005A2050726F6265205061737420422B
:100B100065640A005A2050726F62652050617374D8
:100B20002042656400205A3A200020593A200042B1
:100B3000656420583A20004D65736820706F696EB7
:100B400074206F7574206F662072616E67650A008D
:100B5000436C69636B20746F20526573756D652EED
:100B60002E2E004E6F204D6F76652E00456E642050
:100B700066696C65206C6973740A00426567696E0A
:100B80002066696C65206C6973740A004E6F206D75
:100B9000656469610A00286E6F2066696C652900CA
:100BA00043757272656E742066696C653A200053F5
:100BB00044207072696E74696E6720627974652072
:100BC000004E6F74205344207072696E74696E67B2
:100BD0000A002E0A0044656C6574696F6E206661B8
:100BE000696C65642C2046696C653A200046696C26
:100BF000652064656C657465643A005072696E7452
:100C00002074696D653A20000A53746174733A2048
:100C100046696C616D656E7420757365643A200079
:100C20002C204C6F6E67657374206A6F623A2000E7
:100C3000546F74616C2074696D653A20005374615F
:100C400074733A20002C204661696C65643A200078
:100C50002C2046696E69736865643A200050726999
:100C60006E74733A200053746174733A20006F6B92
:100C7000006F666600FE04F904F204EB04DD044430
:100C8000454255473A004D313132205368757464FE
:100C90006F776E004D3131332053004765656574C1
:100CA0006563682069332050726F2042204F4646AA
:100CB0002E00204500204D39322058004348414D38
:100CC0004245525F54454D5045524154555245009E
:100CD000424142595354455050494E4700415243B6
:100CE00053004D4F54494F4E5F4D4F4445530054B0
:100CF0004845524D414C5F50524F54454354494F23
:100D00004E004C4F4E475F46494C454E414D4500C5
:100D10004155544F5245504F52545F53445F5354C2
:100D200041545553005344434152440050524F4D97
:100D300050545F535550504F525400454D45524703
:100D4000454E43595F50415253455200434153452C
:100D50005F4C494748545F4252494748544E4553B7
:100D60005300544F47474C455F4C49474854530044
:100D7000534F4654574152455F504F5745520042DA
:100D800055494C445F50455243454E54004C4556DE
:100D9000454C494E475F44415441005A5F50524FC1
:100DA00042450052554E4F5554004155544F4C4505
:100DB00056454C005052494E545F4A4F42005052E3
:100DC0004F4752455353004155544F5245504F528F
:100DD000545F54454D5000564F4C554D4554524963
:100DE0004300454550524F4D0042494E4152595FD4
:100DF00046494C455F5452414E5346455200534577
:100E00005249414C5F584F4E5F584F464600464945
:100E1000524D574152455F4E414D453A4D61726CBE
:100E2000696E20322E302E372E3220284A616E20F5
:100E3000203120323032312031363A34383A3233B0
:100E40002920534F555243455F434F44455F555208
:100E50004C3A68747470733A2F2F676974687562BE
:100E60002E636F6D2F4D61726C696E4669726D777E
:100E70006172652F4D61726C696E2050524F544FF4
:100E8000434F4C5F56455253494F4E3A312E302016
:100E90004D414348494E455F545950453A47656571
:100EA00065746563682069332050726F2042204565
:100EB000585452554445525F434F554E543A312091
:100EC000555549443A63656465326132662D343163
:100ED00061322D343734382D396231322D63353556
:100EE0006336326633363766660A002F2F20004D90
:100EF00031343520533C696E6465783E206F7574DB
:100F0000206F662072616E67652028302D31290AB6
:100F100000205400205200416363656C6572617467
:100F2000696F6E3A2050005741524E494E4721207A
:100F30004C6F77205A204A65726B206D6179206C66
:100F400065616420746F20756E77616E74656420CE
:100F50007061757365732E0A004F4646004F4E0050
:100F600020580020204D61783A2000200020204D9C
:100F7000696E3A2000536F667420656E6473746FF7
:100F800070733A200046523A0020466C6F773A2040
:100F9000003A200020536572766F2000206F757430
:100FA000206F662072616E67650A00536572766F06
:100FB000200020643A0020693A0020703A00496E0F
:100FC00076616C69642065787472756465720A0074
:100FD00064697300656E0043290A0061626C656490
:100FE00020286D696E2074656D702000436F6C64FD
:100FF0002065787472756465732061726520004D98
:1010000034323120696E636F72726563742070616F
:1010100072616D657465722075736167650A004D54
:1010200065736820706F696E74206F7574206F66C9
:101030002072616E67650A004F666673657473207F
:101040004170706C696564004572723A20546F6F2C
:10105000206661722100546F6F2066617220667293
:101060006F6D207265666572656E636520706F696D
:101070006E740A00454550524F4D204F4B0A0029CF
:101080000A0020746F20003F5A206F7574206F662D
:101090002072616E6765202800290A0020746F2085
:1010A000003F59206F7574206F662072616E67650E
:1010B00020282D00290A0020746F20003F58206F3F
:1010C0007574206F662072616E676520282D002080
:1010D0005A0020590050726F6265204F6666736532
:1010E000742058002058593A2000536B65772046E9
:1010F0006163746F72006D696E5F736B65775F66B5
:101100006163746F723A20202D31206D61785F73B6
:101110006B65775F666163746F723A2020310A00F5
:101120004D383400446F6E65207072696E74696E5C
:10113000672066696C650A004D3737004D33310012
:10114000496E76616C696420657874727564657245
:101150000A004361703A0047322F473320626164CE
:1011600020706172616D65746572730A00220A00F5
:10117000656E7175657565696E672022006F6B001D
:10118000526573656E643A20002569730025696DA8
:1011900020256973002569682025696D20256973FC
:1011A00000256964202569682025696D20256973FB
:1011B0000025697920256964202569682025696DE5
:1011C000202569730020573A00436F6F6C696E6782
:1011D0002E2E2E0048656174696E672E2E2E0045F6
:1011E0002025530020573A0042656420436F6F6CFE
:1011F000696E672E2E2E0042656420486561746911
:101200006E672E2E2E0023646566696E6520444548
:101210004641554C545F004B6420004B6920004B05
:10122000702000504944204175746F74756E6520BC
:1012300066696E69736865642120507574207468EE
:1012400065206C617374204B702C204B6920616E9B
:1012500064204B6420636F6E7374616E74732066D8
:10126000726F6D2062656C6F7720696E746F2043BA
:101270006F6E66696775726174696F6E2E680A00B9
:10128000504944204175746F74756E6520666169BC
:101290006C6564212074696D656F75740A0050492E
:1012A00044204175746F74756E65206661696C6564
:1012B00064212054656D7065726174757265207467
:1012C0006F6F20686967680A00204B643A2000202D
:1012D0004B693A2000204B703A20000A20436C6191
:1012E0007373696320504944200A002054753A20E2
:1012F00000204B753A2000206D61783A2000206D67
:10130000696E3A200020643A200020626961733AD5
:101310002000504944204175746F74756E652073C8
:10132000746172740A00504944204175746F747579
:101330006E65206661696C6564212054656D706519
:1013400072617475726520746F6F20686967680ACE
:1013500000504944204175746F74756E65005049A2
:1013600044204175746F74756E65206661696C65A3
:10137000642120426164206578747275646572200E
:101380006E756D6265720A00A10000006900A2001E
:1013900000006300B00000000900C100000041002F
:1013A000C20000004100C30000004100C400000072
:1013B0004100C50000004100C60000004145C700D3
:1013C00000004300C80000004500C90000004500BF
:1013D000CD0000004900D10000004E00D500000003
:1013E0004F00D60000004F00D70000007800DC005E
:1013F00000005500DD0000005900E0000000610021
:10140000E10000006100E20000006100E300000074
:101410006100E40000006100E50000006100E600FA
:1014200000006165E70000006300E800000065005F
:10143000E90000006500EA0000006500EB00000024
:101440006500EC0000006900ED0000006900EE009E
:1014500000006900EF0000006900F10000006E006C
:10146000F20000006F00F30000006F00F4000000C5
:101470006F00F50000006F00F60000006F00F8003C
:1014800000006F00F90000007500FA000000750010
:10149000FB0000007500FC0000007500FD0000006E
:1014A0007900FF00000079000401000041000501FF
:1014B0000000610006010000430007010000630016
:1014C0000C01000043000D01000063000E0100004C
:1014D00044000F01000064001101000064001901C4
:1014E000000065001A01000045001B0100006500B6
:1014F0001F010000670030010000490031010000B9
:101500006900410100004C00420100006C004301F1
:1015100000004E00440100006E00480100006E0013
:101520005801000052005901000072005A010000E9
:1015300053005B01000073005F0100007300600155
:101540000000530061010000730065010000740099
:101550006F01000075007C0100007A007D01000031
:101560005A007E0100007A00920100006600E3024A
:1015700000007800222000002E001E21000050787C
:1015800022210000544D902100003C2D92210000AA
:101590002D3EB02100000300BB21000004003C22CE
:1015A00000007E00482200007E3D60220000213DB8
:1015B000612200003D00642200003C3D65220000E5
:1015C0003E3DF12300000700A03000003D0021F364
:1015D00001000200C2F401000500A2000000EC00BE
:1015E000B0000000DF00E4000000E100F6000000B1
:1015F000EF00F7000000FD00FC000000F500E30232
:101600000000EB0087030000A5008F030000F4003A
:1016100098030000F2009E030000E300A303000013
:10162000F600A9030000F400AC030000E000AD03E5
:101630000000E300B1030000E000B2030000E2009C
:10164000B5030000E300B8030000F200BC03000093
:10165000E400BE030000E300C0030000F700C10384
:101660000000E600C3030000E500902100007F00B9
:10167000922100007E001A220000E8001E220000D5
:10168000F30088250000FF0002300000A1000C30AC
:101690000000A2000D300000A3009B300000DE001F
:1016A0009C300000DF00A03000003D00A1300000B1
:1016B000A700A2300000B100A3300000A800A430B1
:1016C0000000B200A5300000A900A6300000B30061
:1016D000A7300000AA00A8300000B400A930000024
:1016E000AB00AA300000B500AB300000B600AC3053
:1016F0000000B6DEAD300000B700AE300000B7DE4F
:10170000AF300000B800B0300000B8DEB1300000EB
:10171000B900B2300000B9DEB3300000BA00B43016
:101720000000BADEB5300000BB00B6300000BBDE02
:10173000B7300000BC00B8300000BCDEB93000009B
:10174000BD00BA300000BDDEBB300000BE00BC30C2
:101750000000BEDEBD300000BF00BE300000BFDEB6
:10176000BF300000C000C0300000C0DEC13000004B
:10177000C100C2300000C1DEC3300000AF00C43081
:101780000000C200C5300000C2DEC6300000C30049
:10179000C7300000C3DEC8300000C400C9300000FC
:1017A000C4DECA300000C500CB300000C600CC301B
:1017B0000000C700CD300000C800CE300000C900D6
:1017C000CF300000CA00D0300000CADED1300000A7
:1017D000CADFD2300000CB00D3300000CBDED430E3
:1017E0000000CBDFD5300000CC00D6300000CCDECE
:1017F000D7300000CCDFD8300000CD00D930000059
:10180000CDDEDA300000CDDFDB300000CE00DC3092
:101810000000CEDEDD300000CEDFDE300000CF0085
:10182000DF300000D000E0300000D100E1300000E7
:10183000D200E2300000D300E3300000AC00E4301E
:101840000000D400E5300000AD00E6300000D50017
:10185000E7300000AE00E8300000D600E9300000BC
:10186000D700EA300000D800EB300000D900EC309F
:101870000000DA00ED300000DB00EF300000DC009B
:10188000F2300000A600F3300000DD00F43000006C
:10189000B3DEF7300000DCDEFA300000A6DEFB30FD
:1018A0000000A500FC300000B000FD300000A400E6
:1018B000074E0000FB0086510000FC00435300006F
:1018C000FA0064FF0000A40065FF0000A50066FFA9
:1018D0000000A60067FF0000A70068FF0000A80046
:1018E00069FF0000A9006AFF0000AA006BFF00006A
:1018F000AB006CFF0000AC006DFF0000AD006EFFA0
:101900000000AE006FFF0000AF0070FF0000B000ED
:1019100071FF0000B10072FF0000B20073FF000011
:10192000B30074FF0000B40075FF0000B50076FF3F
:101930000000B60077FF0000B70078FF0000B80095
:1019400079FF0000B9007AFF0000BA007BFF0000B9
:10195000BB007CFF0000BC007DFF0000BD007EFFDF
:101960000000BE007FFF0000BF0080FF0000C0003D
:1019700081FF0000C10082FF0000C20083FF000061
:10198000C30084FF0000C40085FF0000C50086FF7F
:101990000000C60087FF0000C70088FF0000C800E5
:1019A00089FF0000C9008AFF0000CA008BFF000009
:1019B000CB008CFF0000CC008DFF0000CD008EFF1F
:1019C0000000CE008FFF0000CF0090FF0000D0008D
:1019D00091FF0000D10092FF0000D20093FF0000B1
:1019E000D30094FF0000D40095FF0000D50096FFBF
:1019F0000000D60097FF0000D70098FF0000D80035
:101A000099FF0000D9009AFF0000DA009BFF000058
:101A1000DB009CFF0000DC009DFF0000DD009EFF5E
:101A20000000DE009FFF0000DF00E5FF00005C001B
:101A300000000000010204040000001C1C0C04044F
:101A40000402010000000000040810000000000073
:101A50002D2D2D2D2D2D007C4D61726C696E7C001D
:101A60002D2D2D2D2D2D00001C1F11111F000000EC
:101A700006191803130C00040E1F041C00000000BC
:101A80000E1315110E00001C101817050605000492
:101A90000A0A0A0A11110E0C12120C0000000000B2
:101AA0001F1511151F000042656400456E636C6FC1
:101AB000737572650046696C2E204469612E00457D
:101AC00020696E206D6DC2B30020022046616374F0
:101AD000002002204D6178002002204D696E004FE9
:101AE0006666004F6E004175746F74656D700056C8
:101AF00054726176204D696E00566D696E00566DA8
:101B00006178204500566D6178205A00566D6178E5
:101B1000205900566D6178205800416D617820454C
:101B200000416D6178205A00416D61782059004173
:101B30006D6178205800412D54726176656C0041CA
:101B40002D5265747261637400416363656C005665
:101B5000652D4A65726B00565A2D4A65726B0056A8
:101B6000592D4A65726B0056582D4A65726B0050AC
:101B7000726F6265205A204F6666736574005072FA
:101B80006F62652059204F66667365740050726FEE
:101B900062652058204F6666736574004520737433
:101BA0006570732F6D6D005A2053746570732F6DBF
:101BB0006D00592053746570732F6D6D005820535C
:101BC000746570732F6D6D00416476616E6365643A
:101BD0002053657474696E67730050455447005014
:101BE0004C41003F0043616E63656C00496E69744F
:101BF000004D34323800496E697469616C697A65E8
:101C000020454550524F4D0046696C616D656E74BC
:101C10000054656D7065726174757265005374650A
:101C200070732F6D6D0050726F6265204F66667322
:101C3000657473004A65726B00416363656C65721D
:101C40006174696F6E0056656C6F636974790053D7
:101C5000657420486F6D65204F6666736574730008
:101C6000436F6E66696775726174696F6E003F00DD
:101C70004E65787420506F696E7400446F6E650015
:101C80004E65787400486F6D696E672058595A0028
:101C900053746F72652053657474696E6773004C7A
:101CA0006F61642053657474696E6773004C657668
:101CB000656C20436F726E6572730050726F62655F
:101CC000205A204F6666736574004661646520483B
:101CD0006569676874004F6666004F6E0042656410
:101CE000204C6576656C696E67004C6576656C2086
:101CF000426564004732380A4732390047323900BA
:101D00004175746F20486F6D65004D6F74696F6E1B
:101D10000053746F77004465706C6F790053656C85
:101D2000662D546573740052657365740053572DA6
:101D30004D6F646500426564004E6F7A7A6C650091
:101D400046616E20537065656400436F6E66696717
:101D500075726174696F6E00526573746F7265207D
:101D600044656661756C7473004C6F6164205365E3
:101D70007474696E67730053746F72652053657471
:101D800074696E6773005072656865617420242001
:101D9000436F6E6600424C546F7563680050726FFB
:101DA0006265205A204F66667365740041647661EF
:101DB0006E6365642053657474696E6773004D616A
:101DC000696E003F004261636B0053746F70005096
:101DD00072696E742066726F6D204D656469610072
:101DE0004368616E6765204D65646961004D3231FD
:101DF00000436F6E66696775726174696F6E005437
:101E0000656D7065726174757265004D6F74696F90
:101E10006E00526573756D65205072696E74004E68
:101E20006F204D656469610054756E650053746F71
:101E300070205072696E7400506175736520507225
:101E4000696E7400496E666F2053637265656E003B
:101E50003F005374617274205072696E7400436164
:101E60006E63656C005072696E740043616E6E6FD4
:101E70007420656E746572207375626469723A20AD
:101E800000052E2E004D61696E002100486F7465BB
:101E90006E6420746F6F20636F6C64004261636BCB
:101EA0000050726F63656564004D6F74696F6E00FA
:101EB00044697361626C65205374657070657273F8
:101EC000004D3834004D34382050726F6265205414
:101ED00065737400473238204F0A4D343820503132
:101EE0003000426564204C6576656C696E67004819
:101EF0006F6D65205A004732385A00486F6D652073
:101F000059004732385900486F6D652058004732F4
:101F10003858004175746F20486F6D65004732383E
:101F2000004D61696E0050726568656174202420FF
:101F3000456E6400507265686561742024204265B6
:101F4000640054656D706572617475726500DF1BA5
:101F5000DA1B436F6F6C646F776E00507265686553
:101F6000617420240046616E2053706565640042F0
:101F70006564004E6F7A7A6C65004D61696E00464B
:101F80006C6F770046616E20537065656400426532
:101F900064004E6F7A7A6C65005370656564004D1D
:101FA00061696E002568753A253032687500253004
:101FB0003268753A2530326875002D2D2D00534456
:101FC00000202020202020200020202020005072EF
:101FD000696E742041626F72746564004D32350021
:101FE00050617573696E672E2E2E00454550524F15
:101FF0004D2056657273696F6E204572726F720064
:10200000454550524F4D20496E64657820457272A7
:102010006F7200454550524F4D2043524320457248
:10202000726F72003F0049676E6F72650052657390
:10203000657400496E697469616C697A652045450B
:1020400050524F4D006F70656E00545249474745DE
:10205000524544003A20007A5F6D696E00795F6DE9
:10206000696E00785F6D696E005265706F72746999
:102070006E6720656E6473746F702073746174751D
:10208000730A0020746F6F206C6F6E672065787420
:10209000727573696F6E2070726576656E746564B3
:1020A0000A0020636F6C6420657874727573696FC1
:1020B0006E2070726576656E7465640A00486F6D97
:1020C0006520257325732573204669727374004853
:1020D0006F6D696E67204661696C65640000002061
:1020E00041000020C10000000000004842000048FC
:1020F00042000080405761726E696E673A20486FF7
:102100006D696E672042756D702044697669736FE2
:1021100072203C20310A000202040000A0400000AE
:10212000A0400000004000003A4300003B43000094
:102130003943FFFFFF0000000100000001000080A4
:1021400000555555000000400033333300AAAA2A39
:10215000004992240000002000C7711C00999919C1
:1021600000D1451700555515003BB1130024491205
:102170000011111100000010000F0F0F00E3380EC6
:102180000043790D00CCCC0C00C3300C00E8A20B4E
:102190000064210B00AAAA0A00703D0A009DD8091C
:1021A00000427B090092240900DCD30800888808DB
:1021B000001042080000000800F0C10700878707F0
:1021C0000075500700711C07003EEB0600A1BC061D
:1021D000006990060066660600703E0600611806FB
:1021E0000017F4050074D105005BB00500B290053E
:1021F00000627205005555050078390500B81E05C6
:1022000000050505004EEC040087D40400A1BD04C0
:102210000090A7040049920400C17D0400EE690407
:1022200000C7560400444404005C32040008210442
:102230000041100400000004003FF00300F8E00338
:102240000026D20300C3C30300CCB503003AA803A1
:10225000000A9B0300388E0300C08103009F7503B2
:1022600000D0690300505E03001D5303003448038F
:1022700000913D03003333030016290300381F0388
:102280000097150300300C0300030303000BFA0250
:102290000049F10200BAE802005CE002002DD80219
:1022A000002DD0020059C80200B0C0020031B902AE
:1022B00000DAB10200AAAA0200A0A30200BC9C029C
:1022C00000FA9502005C8F0200DF88020082820221
:1022D00000457C02002776020027700200436A0254
:1022E000007C640200D05E02003F590200C8530225
:1022F00000FFFDFCFAF8F6F4F2F0EEECEAE9E7E5AF
:10230000E3E1E0DEDCDAD9D7D5D4D2D0CFCDCBCA69
:10231000C8C7C5C3C2C0BFBDBCBAB9B7B6B4B3B2F3
:10232000B0AFADACAAA9A8A6A5A4A2A1A09E9D9C51
:102330009A99989795949392908F8E8D8B8A89888D
:10234000878684838281807F7E7D7B7A79787776A9
:102350007574737271706F6E6D6C6B6A69686766A5
:102360006564636261605F5E5D5C5B5A5958585793
:1023700056555453525150504F4E4D4C4B4A4A496A
:1023800048474646454443424241403F3E3E3D3C2D
:102390003B3B3A39383837363535343332323130E1
:1023A000302F2E2E2D2C2B2B2A2929282727262586
:1023B0002524232322212120201F1E1E1D1C1C1B1F
:1023C0001B1A1919181817161615151413131212AB
:1023D0001111100F0F0E0E0D0D0C0C0B0A0A09092E
:1023E00008080707060605050404030302020100A6
:1023F0000000004443000031430000394300002046
:1024000041000020C10000000053657474696E67CC
:10241000732053746F72656400290A002062797416
:1024200065733B20637263200053657474696E6743
:10243000732053746F726564202800454550524FD5
:102440004D206461746173697A65206572726F7280
:102450002E0A00290A002062797465733B2063729A
:102460006320002073746F726564207365747469EF
:102470006E677320726574726965766564202800E2
:10248000202863616C63756C6174656429210A009E
:1024900020213D2000454550524F4D2043524320BE
:1024A0006D69736D61746368202D202873746F7279
:1024B00065642920002053697A653A2000496E64DA
:1024C00065783A200044494749504F5453204C6F97
:1024D000616465640A0044494749504F5453204C95
:1024E0006F6164696E670A00204D61726C696E3DB0
:1024F000563832290A00454550524F4D20766572B4
:1025000073696F6E206D69736D617463682028450F
:102510004550524F4D3D0048617264636F6465647D
:102520002044656661756C742053657474696E67C8
:1025300073204C6F616465640A000000C8430000AA
:10254000C84300000040000034420000A3420000E5
:10255000A3425258C8430000D84288130000881391
:102560000000320000008813000024F4D43050C36F
:102570008E20C2A24017828B7011127A910D816C4D
:10258000D90AA861E108C7586607615143061E4B86
:102590005D05C145A7041A411104093D980371392D
:1025A00031034036DB0265339102D4305402802E71
:1025B0001D02632CEE01752AC501B028A001102769
:1025C00081018F2564012B244B01E0223401AC21D1
:1025D0001F018D200D01801FFC00841EED00971D42
:1025E000DF00B81CD200E61BC600201BBC00641A2A
:1025F000B200B219A8000A19A0006A189900D117F0
:10260000910040178B00B516840031167E00B3157B
:1026100079003A157300C7146F0058146A00EE135E
:1026200066008813630025135E00C7125B006C12FE
:10263000570015125400C111510070114F002111A3
:102640004B00D61049008D10470046104400021080
:102650004200C00F4000800F3E00420F3C00060FBA
:102660003B00CB0E3800930E37005C0E3500270E72
:102670003400F30D3200C10D3100900D3000600DBB
:102680002E00320D2D00050D2C00D90C2B00AE0CA8
:102690002900850C29005C0C2700350C27000E0C46
:1026A0002600E80B2400C40B2400A00B23007D0BA4
:1026B00023005A0B2100390B2100180B2000F80AC7
:1026C0001F00D90A1E00BB0A1E009D0A1D00800AB9
:1026D0001D00630A1C00470A1B002C0A1B00110A7C
:1026E0001A00F7091A00DD091900C4091900AB091D
:1026F0001900920917007B091800630917004C099B
:10270000160036091600200916000A091500F508FA
:102710001500E0081400CC081400B8081400A40840
:102720001400900813007D0812006B08130058086D
:102730001200460812003408110023081100120884
:10274000110001081100F0071000E0071000D00789
:102750001000C0071000B0070F00A107100091077C
:102760000E0083070F0074070F0065070E00570760
:102770000E0049070E003B070D002E070E00200734
:102780000D0013070D0006070D00F9060C00ED06FD
:102790000D00E0060C00D4060C00C8060C00BC06B8
:1027A0000C00B0060C00A4060B0099060C008D0668
:1027B0000B0082060B0077060B006C060B0061060F
:1027C0000A0057060B004C060A0042060A003806AB
:1027D0000A002E060A0024060A001A060A0010063D
:1027E000090007060A00FD050900F4050900EB05CC
:1027F0000900E2050900D9050900D0050900C7054F
:102800000900BE050900B5050800AD050800A505CD
:1028100009009C050800940508008C050800840543
:1028200008007C050800740508006C0507006505B4
:1028300008005D050700560508004E05070047051E
:1028400007004005080038050700310507002A0584
:102850000700230507001C050600160507000F05E5
:1028600007000805060002050700FB040600F50442
:102870000700EE040600E8040600E2040700DB049B
:102880000600D5040600CF040600C9040600C304F0
:102890000600BD040600B7040600B1040500AC0440
:1028A0000600A6040600A00405009B04060095048B
:1028B0000500900406008A040500850405008004D4
:1028C00006007A04050075040500700405006B0419
:1028D000050066040500610405005C04050057045A
:1028E0000500520405004D0405004804050043049A
:1028F00005003E0404003A040500350405003004D8
:1029000004002C04050027040400230405001E0411
:1029100004001A04040016040500110404000D0448
:102920000400090405000404040000040400FC037E
:102930000400F8030400F4030400F0030400EC03B3
:102940000400E8030400E4030400E0030400DC03E3
:102950000400D8030400D4030400D0030400CC0313
:102960000400C8030300C503030024F404D9201B9A
:10297000C40C5C0E9804C4095F0265077101F4057C
:10298000F900FB04B30048048700C1036900580341
:10299000550003034500BE023A0084023100530291
:1029A0002A002902250004022000E4011C00C801BD
:1029B0001900AF0117009801140084011300710180
:1029C00010006101100051010E0043010D0036019D
:1029D0000B002B010B0020010B00150109000C015D
:1029E000090003010800FB000800F3000800EB00E9
:1029F0000700E4000600DE000600D8000600D20052
:102A00000600CC000500C7000500C2000500BD009F
:102A10000400B9000400B5000400B1000400AD00DA
:102A20000400A9000400A5000300A20003009F0009
:102A300004009B000300980003009500020093002F
:102A40000300900003008D0002008B00030088004B
:102A500002008600020084000300810002007F0063
:102A600002007D0002007B00020079000200770076
:102A70000100760002007400020072000100710083
:102A800002006F0002006D0001006C0002006A008D
:102A90000100690002006700010066000100650096
:102AA000010064000200620001006100010060009A
:102AB00001005F0002005D0001005C0001005B009E
:102AC00001005A00010059000100580001005700A0
:102AD00001005600010055000100540001005300A0
:102AE000000053000100520001005100010050009D
:102AF00001004F0001004E0000004E0001004D009B
:102B000001004C0001004B0000004B0001004A0096
:102B10000100490001004800000048000100470092
:102B2000010046000000460001004500000045008D
:102B30000100440001004300000043000100420086
:102B4000000042000100410000004100010040007F
:102B500001003F0000003F0001003E0000003E0079
:102B600001003D0000003D0001003C0000003C0071
:102B700000003C0001003B0000003B0001003A0067
:102B800000003A000100390000003900010038005F
:102B90000000380000003800010037000000370056
:102BA000010036000000360000003600010035004C
:102BB0000000350000003500010034000000340042
:102BC0000000340001003300000033000000330037
:102BD000010032000000320000003200010031002C
:102BE0000000310000003100010030000000300022
:102BF0000000300001002F0000002F0000002F0017
:102C000000002F0001002E0000002E0000002E000A
:102C100001002D0000002D0000002D0000002D00FF
:102C200001002C0000002C0000002C0000002C00F3
:102C300001002B0000002B0000002B0000002B00E7
:102C400001002A0000002A0000002A0000002A00DB
:102C500001002900000029000000290000002900CF
:102C600000002900010028000000280000002800C2
:102C700000002800000028000100270000002700B5
:102C800000002700000027000000270001002600A8
:102C9000000026000000260000002600000026009C
:102CA000010025000000250000002500000025008F
:102CB0000000250000002500010024000000240081
:102CC0000000240000002400000024000100230074
:102CD0000000230000002300000023000000230068
:102CE0000000230000002300010022000000220059
:102CF000000022000000220000002200000022004C
:102D0000010021000000210000002100000021003E
:102D1000000021000000210000002100010020002F
:102D20000000200000002000000020000000200023
:102D300000002000000020000000200001001F0013
:102D400000001F0000001F0000001F0000001F0007
:102D500000001F0000001F0001001E0000001E00F8
:102D600000001E0000001E00000039300000332566
:102D7000000087190000B00F0000DB080000BD0450
:102D80000000740200003F01000020436F756E7464
:102D900020583A0042656400453100626564002CA9
:102DA0002073797374656D2073746F70706564211E
:102DB000204865617465725F49443A200048656146
:102DC00074696E67204661696C656400486561746A
:102DD000696E67206661696C656400544845524DB0
:102DE000414C2052554E4157415900546865726D0F
:102DF000616C2052756E61776179005072696E74F2
:102E000020506175736564004572723A204D4158D7
:102E100054454D50004D415854454D5020747269F1
:102E2000676765726564004572723A204D494E5479
:102E3000454D50004D494E54454D502074726967C0
:102E4000676572656400202F002042403A002040F0
:102E50003A000009121B242D363F48415A536C6535
:102E60007E7719100B023D342F265158434A757C4A
:102E7000676E323B2029161F040D7A7368615E5716
:102E80004C452B2239300F061D14636A7178474E6A
:102E9000555C646D767F4049525B2C253E370801B6
:102EA0001A137D746F6659504B42353C272E11180A
:102EB000030A565F444D727B60691E170C053A3356
:102EC00028214F465D546B627970070E151C232A2A
:102ED00031384148535A656C777E09001B122D2406
:102EE0003F3658514A437C756E671019020B343DCA
:102EF000262F737A6168575E454C3B3229201F1696
:102F00000D046A6378714E475C55222B3039060FE9
:102F1000141D252C373E0108131A6D647F76494035
:102F20005B523C352E2718110A03747D666F505989
:102F3000424B171E050C333A21285F564D447B72D5
:102F400069600E071C152A233831464F545D626BA9
:102F500070797C3C3E5E2B3D3F2F5B5D3B2C2A22F3
:102F60005C0043616E6E6F74206F70656E207375C8
:102F7000626469722000534420496E69742046617E
:102F8000696C0053442063617264206F6B0A006FA8
:102F900070656E526F6F74206661696C65640A00BB
:102FA000766F6C756D652E696E6974206661696CEB
:102FB00065640A004E6F20534420636172640A0006
:102FC0004D3234004D3233202573002E0A006F70CD
:102FD000656E206661696C65642C2046696C653A93
:102FE000200046696C652073656C65637465640ACE
:102FF000002053697A653A200046696C65206F703D
:10300000656E65643A2000454E4420535542524F48
:103010005554494E450A002220706F7300222070DB
:103020006172656E743A2200535542524F555449AD
:103030004E452043414C4C207461726765743A22BE
:103040000053756263616C6C204F766572666C6FBD
:1030500077004578636565646564206D6178205309
:103060005542524F5554494E452064657074683A34
:10307000310A0057726974696E6720746F2066693F
:103080006C653A2000667265736800646F696E67EC
:10309000002066696C653A20004E6F7720000000C2
:1030A0000A0B02090C0D0E080703040100000000C2
:1030B0000000000000000000000000000000000010
:1030C00000000000000000000000121110000000CD
:1030D00000000000000000000000000000000000F0
:1030E000000000000268747470733A2F2F6D6172D3
:1030F0006C696E66772E6F72670068747470733ACD
:103100002F2F6D61726C696E66772E6F7267006823
:10311000747470733A2F2F6D61726C696E66772EBE
:103120006F726700322E302E372E3200322E302E44
:10313000372E3200322E302E372E320068747470E3
:10314000733A2F2F6D61726C696E66772E6F72679E
:103150000068747470733A2F2F6D61726C696E66BB
:10316000772E6F72670068747470733A2F2F6D61D9
:10317000726C696E66772E6F72670020322E302E69
:10318000372E320070012C0190012701B00122017D
:10319000C0011D01F00118011002130130020E01DF
:1031A0006002090190020401C002FF000003FA005E
:1031B0004003F5008003F000D003EB002004E6009C
:1031C0007004E100E004DC004005D700C005D20037
:1031D0004006CD00D006C8008007C3003008BE00FE
:1031E000F008B900C009B400B00AAF00B00BAA00E3
:1031F000D00CA500000EA000500F9B00C010960040
:103200005012910000148C00C0158700B017820086
:10321000B0197D00D01B7800001E730040206E00A6
:1032200090226900F024640040275F0090295A0032
:10323000E02B5500102E500020304B00103246007D
:10324000E033410090353C001037370070383200D1
:10325000A0392D00B03A2800A03B2300603C1E009E
:10326000103D1900903D1400103E0F00703E0A0002
:10327000C03E0500003F0000403FFBFF803FF6FFDF
:10328000C03FF1FF2020506C616E6E657242756622
:1032900066657242797465733A20002046726565EE
:1032A000204D656D6F72793A2000436F6D70696CC7
:1032B00065643A204A616E20203120323032310A72
:1032C00000204C61737420557064617465643A2009
:1032D000323032302D31302D3135207C2041757423
:1032E000686F723A206A6F6E7361670A00322E301F
:1032F0002E372E320A004D61726C696E0020536FBA
:103300006674776172652052657365740A00205790
:1033100061746368646F672052657365740A002086
:1033200042726F776E206F75742052657365740AF0
:10333000002045787465726E616C20526573657407
:103340000A00506F77657255700A00737461727469
:103350000A006175746F25632E670047323858592B
:10336000004D31303031006572726F7220777269B2
:1033700074696E6720746F2066696C650A00446F1B
:103380006E6520736176696E672066696C652E0ACA
:10339000004D323900456E6473746F7073002553AD
:1033A00020256320256320256320256300205A3AC9
:1033B0000020593A0020583A00656E6473746F70AB
:1033C00073206869743A2000004D6F76652025737C
:1033D0006D6D004D6F766520302E316D6D004D6F37
:1033E000766520316D6D004D6F76652031306D6DE5
:1033F000004D6F7665204178697300457874727569
:10340000646572004D6F7665205A004D6F766520B9
:1034100059004D6F76652058005072696E742066B1
:10342000726F6D204D656469610050726F62696EE4
:1034300067204661696C65640A0050726F62696E4C
:1034400067204661696C656400205A3A2000205963
:103450003A200042656420583A2000220A00556E46
:103460006B6E6F776E20636F6D6D616E643A2022B4
:103470000047656565746563682069332050726F25
:1034800020422052656164792E005072696E746921
:103490006E672E2E2E0020453A00205A3A00205901
:1034A0003A00583A0020746F6F206C6F6E67206589
:1034B0007874727573696F6E2070726576656E745C
:1034C00065640A0020636F6C64206578747275739C
:1034D000696F6E2070726576656E7465640A0000AF
:1034E000002110422063308440A550C660E7700878
:1034F0008129914AA16BB18CC1ADD1CEE1EFF131FF
:1035000012100273325222B5529442F772D66239C7
:103510009318837BB35AA3BDD39CC3FFF3DEE3624E
:1035200024433420040114E664C774A44485546A17
:10353000A54BB528850995EEE5CFF5ACC58DD553DE
:1035400036722611163006D776F6669556B4465B67
:10355000B77AA719973887DFF7FEE79DD7BCC7C4AE
:1035600048E5588668A7784008611802282338CCB7
:10357000C9EDD98EE9AFF9488969990AA92BB9F53E
:103580005AD44AB77A966A711A500A333A122AFD07
:10359000DBDCCBBFFB9EEB799B588B3BBB1AABA60E
:1035A0006C877CE44CC55C222C033C600C411CAE57
:1035B000ED8FFDECCDCDDD2AAD0BBD688D499D971E
:1035C0007EB66ED55EF44E133E322E511E700E9FA7
:1035D000FFBEEFDDDFFCCF1BBF3AAF599F788F886E
:1035E00091A981CAB1EBA10CD12DC14EF16FE1803F
:1035F00010A100C230E3200450254046706760B936
:10360000839893FBA3DAB33DC31CD37FE35EF3B18E
:10361000029012F322D2323542145277625672EA85
:10362000B5CBA5A89589856EF54FE52CD50DC5E2DE
:1036300034C324A01481046674476424540544DB15
:10364000A7FAB79987B8975FE77EF71DC73CD7D32E
:1036500026F2369106B01657667676154634564CE5
:10366000D96DC90EF92FE9C899E9898AB9ABA9447E
:1036700058654806782768C018E1088238A3287D75
:10368000CB5CDB3FEB1EFBF98BD89BBBAB9ABB75CE
:103690004A545A376A167AF10AD01AB32A923A2E45
:1036A000FD0FED6CDD4DCDAABD8BADE89DC98D261E
:1036B0007C076C645C454CA23C832CE01CC10C1F55
:1036C000EF3EFF5DCF7CDF9BAFBABFD98FF89F176E
:1036D0006E367E554E745E932EB23ED10EF01E00B5
:1036E000002200250028002B002E003100340002AB
:1036F000010000050108010B010000210024002742
:10370000002A002D003000330001010000040107F1
:10371000010A010505050507050808080802020257
:10372000020A0A080804040404010101010101015C
:10373000010303030303030303040707070C0C0C33
:103740000C0C0C0C0C02020202060606060606060B
:10375000060B0B0B0B0B0B0B0B01021020200808A8
:1037600010204010204080020102010804020101E3
:1037700002040810204080804020100804020180CC
:103780000402018040201008040201080402010123
:10379000020408102040800102040810204080002C
:1037A0009800BC0011241FBECFEFD1E2DEBFCDBF19
:1037B00000E00CBF13E0A0E0B2E0E6E7FEE302E0C9
:1037C0000BBF02C007900D92A832B107D9F724E1D0
:1037D000A8E2B3E001C01D92AF35B207E1F71BE1EB
:1037E000C1EDDBE100E006C021970109802FFE0159
:1037F0000F94AB1EC03DD10780E00807A9F70F94D6
:103800000A080D94291F0C940000FC01849108956E
:10381000FC0180810895CF93DF93DB01F9019C9136
:103820009130C1F0943080F094509C938830D1F462
:1038300080819181009771F0019791838083480F77
:10384000591FEA01188206C08C3539F49C5F9C939D
:10385000943041F4DF91CF9108958B3339F781E0B3
:103860008C93F8CF20813181B9016F5F7F4F7183D5
:103870006083420F531FEA018883808191818F35D5
:1038800091056CF7E7CF9091DD06E92FF0E0E45A5F
:10389000FF4E80839F5F943040F49093DD068091CB
:1038A00061088F5F8093610808951092DD06F7CF5D
:1038B000282F9091F003833021F495FD0FC094FDE3
:1038C0000FC0892F90E0B0E0A0E004C0B695A795A6
:1038D000979587952A95D2F78170089581E008958C
:1038E00080E008952F923F924F925F926F927F9265
:1038F0008F929F92AF92BF92CF92DF92EF92FF9200
:103900000F931F93CF93DF93CDB7DEB72E970FB6EC
:10391000F894DEBF0FBECDBFF82EE62E042F122F77
:10392000282F30E03A872987862F90E09C878B8765
:10393000220F331FA985BA852A0F3B1F3E872D878B
:10394000FC01E20FF31FEE0FFF1FEE0FFF1FEC5FF6
:10395000FA4F60817181828193819B01AC010F9448
:10396000491E882309F440C1802F8F0D612F6E0DF1
:10397000282F30E0F901EE0FFF1FE20FF31FAB8598
:10398000BC85AE0FBF1FAA0FBB1FAA0FBB1FAC5F2A
:10399000BA4FAC901196BC9011971296CC9012979A
:1039A0001396DC90080F802F90E0AC01440F551F58
:1039B000480F591FAB85BC85A40FB51FAA0FBB1FAD
:1039C000AA0FBB1FAC5FBA4FEC901196FC901197F9
:1039D00012960C91129713969C90862F90E0AD85CD
:1039E000BE85A80FB91FAA0FBB1FAA0FBB1FAC5FD4
:1039F000BA4F8C9011967C90119712966C901297FA
:103A000013965C90610F70E02D853E85260F371F61
:103A1000220F331F220F331F2C5F3A4F3E872D8713
:103A2000D9014C9011963C90119712961C911297C7
:103A300013962C90E80FF91FEE0FFF1FEE0FFF1FDC
:103A4000EC5FFA4FB081B98321812A8332813B83B5
:103A500083818C83FA01E60FF71FEE0FFF1FEE0F35
:103A6000FF1FEC5FFA4F90819D83A181AE83B281ED
:103A7000BF83238128879701402F592DB701802FBD
:103A8000992D0F94491E882321F0E12CF12C00E0A0
:103A9000912C9501A601B501C6010F94491E8823FA
:103AA00019F05701C02ED92C242D332D412F522D22
:103AB000642D732D812F922D0F94491E882321F0A0
:103AC000412C312C10E0212C282D372D462D552D41
:103AD000682D772D862D952D0F94491E882321F072
:103AE000842C732C612E522C2D813E814F81588560
:103AF0006D817E818F8198850F94491E882321F0E6
:103B00001D821E821F82188629813A814B815C8129
:103B100069817A818B819C810F94491E882341F0B1
:103B20003D8139838E818A839F819B83A885AC8365
:103B3000E985FA85EE0FFF1F29853A85E20FF31F0D
:103B40008B859C85E80FF91FEE0FFF1FEE0FFF1FFF
:103B5000EC5FFA4FFA87E9879501A601B501C60126
:103B60000F94571B9701402F592D0F94561B6B0133
:103B70007C01282D372D462D552D682D772D862D2E
:103B8000952D0F94571B242D332D412F522D0F941B
:103B9000561B9B01AC01C701B6010F94571B6B016B
:103BA0007C0129813A814B815C8169817A818B8199
:103BB0009C810F94571B2D813E814F8158850F9416
:103BC000561B9B01AC01C701B6010F94571B20E0A7
:103BD00030E040E450E40F94511CA985BA856D9300
:103BE0007D938D939C9313972E960FB6F894DEBF1A
:103BF0000FBECDBFDF91CF911F910F91FF90EF903E
:103C0000DF90CF90BF90AF909F908F907F906F90FC
:103C10005F904F903F902F900895A09A0895809ABA
:103C2000889808950C94DC8F0C94DC8F0C94DC8FB6
:103C30000C94DC8F0C948E8F0C948E8F0C948E8F42
:103C40000C948E8F80915802882341F06091D204A9
:103C50007091D30441E081E00C942AE90895EF9239
:103C6000FF920F931F93CF93DF9300D000D01F924A
:103C70001F92CDB7DEB78E010F5F1F4FD80130E026
:103C800020E0FB01E20FF31FE491ED932F5F3F4F24
:103C900028303105B1F7877028E0829FC0011124D8
:103CA00080640E9432EF780188E0E80EF11CF80190
:103CB00061918F0184E490E10E94DCEFE016F1064F
:103CC000B1F728960FB6F894DEBF0FBECDBFDF91D7
:103CD000CF911F910F91FF90EF900895CF92DF92B7
:103CE000EF92FF920F931F93CF93DF9300D000D0FA
:103CF000CDB7DEB78A0146E0469F9001479F300D61
:103D00001124BC01620F731F46E050E0CE01019602
:103D10000F94D813C980DA80EB80FC80F8014081D1
:103D20005181628173818FEF9FEFC416D506E6063D
:103D3000F70640F081E090E04C155D056E057F05CB
:103D400008F080E026960FB6F894DEBF0FBECDBF18
:103D5000DF91CF911F910F91FF90EF90DF90CF9067
:103D600008950F931F93CF93DF93CDB7DEB72E97B0
:103D70000FB6F894DEBF0FBECDBF8A011E861D862A
:103D80006F83788789879A872FEF2B876038710533
:103D90008105910538F484E490E10E94DCEF81E034
:103DA00090E02FC09E01235F3F4FAE01495F5F4F00
:103DB00069EB70E08AED95E10E9496D597FD2CC0E5
:103DC0008D859E8526E0289FB001299F700D1124C6
:103DD00066527A4E46E050E0CE0101960F94D81319
:103DE0006D8184E490E10E94DCEF01301105B9F2AD
:103DF0006E816623A1F284E490E10E94DCEF82E010
:103E000090E02E960FB6F894DEBF0FBECDBFDF91C7
:103E1000CF911F910F9108959E01235F3F4FAE01F7
:103E2000495F5F4F63E670E088E893E10E9496D5B2
:103E300097FD0BC08D859E8526E0289FB001299FA8
:103E4000700D112468577C4EC5CF6FE3A4CF2F921D
:103E50003F924F925F926F927F928F929F92AF921A
:103E6000BF92CF92DF92EF92FF920F931F93CF9367
:103E7000DF93D62FC72FFC0180809180A280B38072
:103E8000C501B40120E831E541E050E00F94F31A98
:103E9000C9016DE671E00F94831E6B017C01C501C1
:103EA000B40120E13EE040E050E00F94F31ACA0173
:103EB000B90128E130E040E050E00F94F31A362ECB
:103EC000272E062F172F8CE3482E512C612C712C96
:103ED000C501B401A30192010F94F31AB62EA72EC7
:103EE000CA01B901A30192010F94F31ACB01C114C5
:103EF000D10479F1AF92BF927F936F932F923F924B
:103F0000FF92EF92DF92CF9281EB91E19F938F939B
:103F1000CF93DF930F9446148DB79EB70E960FB6CE
:103F2000F8949EBF0FBE8DBF8D2F9C2FDF91CF9138
:103F30001F910F91FF90EF90DF90CF90BF90AF90C7
:103F40009F908F907F906F905F904F903F902F90B9
:103F50000895E114F104C9F0AF92BF927F936F937B
:103F60002F923F92FF92EF9281EA91E19F938F937C
:103F7000CF93DF930F944614EDB7FEB73C960FB680
:103F8000F894FEBF0FBEEDBFCFCF012BB9F0AF92BB
:103F9000BF927F936F932F923F9285E991E19F9318
:103FA0008F93CF93DF930F9446148DB79EB70A96E5
:103FB0000FB6F8949EBF0FBE8DBFB6CF892BA9F068
:103FC000AF92BF927F936F938DE891E19F938F9310
:103FD000CF93DF930F944614EDB7FEB738960FB624
:103FE000F894FEBF0FBEEDBF9FCFAF92BF9289E89E
:103FF00091E19F938F93CF93DF930F9446140F908B
:104000000F900F900F900F900F908ECF8091E5033F
:104010009091E603009731F04AE050E070E060E0F4
:104020000D94CC1260E070E0CB0108958091E5031F
:104030009091E603009731F04AE050E070E060E0D4
:104040000D949E1160E070E0CB0108950E9416204F
:1040500097FD0CC00E9416206F3F710581059105E8
:1040600009F034F40E941620862F089580E0089508
:104070008FEF08958091E5039091E603892B41F03D
:104080000E94262091E0811101C090E0892F0895BF
:1040900091E0FCCF0E941620CB010895CF92DF92D1
:1040A000EF92FF920F931F93CF93DF936B017A01EF
:1040B000EC01C85CDC4F28813CE0389F8001399FCF
:1040C000100D112427FF24C0FB011182108288816A
:1040D0008F5F888388819801280F311D87FD3A956D
:1040E000C90120910910F6012817190629F024F0BA
:1040F00088818C300CF43CC080819181049680349E
:104100009C4908F475C0F60180819181049672C0C3
:1041100088819801280F311D87FD3A95C9012091AA
:1041200009102817190699F294F28881A801480FFE
:10413000511D87FD5A95FA01EE0FFF1FE40FF51F81
:10414000EF53F04F808187FFC2CF8881F801E80FDD
:10415000F11D87FDFA95CF01EE0FFF1FE80FF91F44
:10416000EF53F04F808160E08F770E9471EDAFCF09
:10417000808191812881A801420F511D27FD5A9508
:104180009A01FA01EE0FFF1FE20FF31FEF53F04FFA
:1041900021813281820F931FF7019183808388816F
:1041A0009801280F311D87FD3A95F901EE0FFF1F89
:1041B000E20FF31FEF53F04F808187FF20C088810B
:1041C000080F111D87FD1A95F801EE0FFF1FE00F74
:1041D000F11FEF53F04F808161E08F77DF91CF9136
:1041E0001F910F91FF90EF90DF90CF900C9471EDA5
:1041F00080E49CE9F701918380838FEF8883DF91CE
:10420000CF911F910F91FF90EF90DF90CF90089585
:10421000CF93DF9300D01F92CDB7DEB70F94CA1CA7
:104220000F94B41469837A838B839C83CE010196A7
:104230000E94FCB10F900F900F900F90DF91CF91E3
:1042400008958F929F92AF92BF92CF92DF92EF929A
:10425000FF92CF936B017C0120E030E0A9010F9425
:10426000AF1487FD9FC06DEB77E386E095E3A70170
:1042700096010F94571B6B017C0120E030E040E277
:1042800051E40F94151520E030E048EC52E40F940F
:1042900015154B015C0120E030E0A901C701B60112
:1042A0000F94AF1420E030E040EA50E487FF04C0F0
:1042B00020E030E040EA50ECC501B4010F94571BF8
:1042C00020E030E040E251E40F94511C0F94C31CF5
:1042D0006B017C018BE2F7FE09C0F094E094D0946E
:1042E000C094C11CD11CE11CF11C8DE280937308A9
:1042F000C701B60120E137E240E050E00F94151B02
:104300008AE0882E912CA12CB12CCA01B901A501FB
:1043100094010F94151B605D60937408C701B6018A
:1043200028EE33E040E050E00F94151BCA01B901BC
:10433000A50194010F94151B605D60937508C7017A
:10434000B60124E630E040E050E00F94151BCA01AE
:10435000B901A50194010F94151B605D6093760867
:104360008EE280937708C701B601A50194010F94EE
:10437000151BC62FCA01B901A50194010F94151B85
:10438000605D60937808C05DC093790883E798E02A
:10439000CF91FF90EF90DF90CF90BF90AF909F9024
:1043A0008F9008956DEB77E386E095EB60CF8F9269
:1043B0009F92AF92BF92CF92DF92EF92FF926B01EA
:1043C0007C0120E030E0A9010F94AF1487FD6BC0A1
:1043D0006DEB77E386E095E3A70196010F94571BF9
:1043E0006B017C0120E030E040E251E40F941515B0
:1043F00020E030E040E251E40F9415154B015C01E0
:1044000020E030E0A901C701B6010F94AF1420E00D
:1044100030E040EA50E487FF04C020E030E040EAAA
:1044200050ECC501B4010F94571B20E030E040E28E
:1044300051E40F94511C0F94C31C9B018BE237FF76
:1044400005C022273327261B370B8DE28093750882
:10445000C90164E670E00F94971ECB01EAE0F0E03A
:10446000BF010F94971E805D80937608C901BF013C
:104470000F94971E282FCB01BF010F94971E805DCC
:10448000809377088EE280937808205D20937908E6
:1044900085E798E0FF90EF90DF90CF90BF90AF90CE
:1044A0009F908F9008956DEB77E386E095EB94CF26
:1044B0008F929F92AF92BF92CF92DF92EF92FF9234
:1044C000CF936B017C0120E030E0A9010F94AF1481
:1044D00087FDAAC06DEB77E386E095E3A70196011F
:1044E0000F94571B6B017C0120E030E0A9010F9471
:1044F000AF1487FF9EC0C701B601905820E030E09E
:1045000040E251E40F94151520E030E040E251E420
:104510000F94151520E030E040EA50E40F94571B4B
:1045200020E030E040E251E40F94511C0F94C31C92
:104530006B017C0180E28093730860E280E1C81621
:1045400087E2D806E104F1048CF0C701B60120E14E
:1045500037E240E050E00F94151BCA01B9012AE090
:1045600030E040E050E00F94151B605D60937408EC
:1045700060E288EEC81683E0D806E104F1048CF00E
:10458000C701B60128EE33E040E050E00F94151B60
:10459000CA01B9012AE030E040E050E00F94151B59
:1045A000605D6093750860E284E6C816D104E1049A
:1045B000F1048CF0C701B60124E630E040E050E0A1
:1045C0000F94151BCA01B9012AE030E040E050E029
:1045D0000F94151B605D609376088AE0882E912CFD
:1045E000A12CB12CC701B601A50194010F94151B94
:1045F000C62FCA01B901A50194010F94151B605D76
:10460000609377088EE280937808C05DC093790844
:1046100083E798E0CF91FF90EF90DF90CF90BF902D
:10462000AF909F908F9008956DEB77E386E095EBC8
:1046300055CF20E030E040E251E4C701B60162CF3F
:10464000CF92DF92EF92FF92CF93DF9300D01F9231
:10465000CDB7DEB76B017C0120E030E0A9010F94FB
:10466000AF1487FD1BC06DEB77E386E095E3A701F0
:1046700096010F94571B69837A838B839C83CE01A9
:1046800001960E94FCB10F900F900F900F90DF9158
:10469000CF91FF90EF90DF90CF9008956DEB77E38F
:1046A00086E095EBE4CF8F929F92AF92BF92CF922C
:1046B000DF92EF92FF92CF936B017C0120E030E01C
:1046C000A9010F94AF1487FFA3C06DEB77E386E0D9
:1046D00095EBA70196010F94571B6B017C0120E01D
:1046E00030E040E251E40F94151520E030E048EC52
:1046F00052E40F9415154B015C0120E030E040E2DC
:1047000051ECC701B6010F94AF14181654F420E011
:1047100030E048EC52E4C701B6010F94B71D87FDA5
:104720008BC020E030E0A901C701B6010F94AF149F
:1047300087FF73C060E070E080EA90ECA50194010F
:104740000F94571B20E030E040E251E40F94511CDD
:104750000F94C31C6B017C01F7FC64C020E137E2BD
:1047600040E050E00F94151BCA01B9012AE030E087
:1047700040E050E00F94151B605D60937408C70122
:10478000B60128EE33E040E050E00F94151B9AE0AC
:10479000892E912CA12CB12CCA01B901A50194013B
:1047A0000F94151B605D60937508C701B60124E680
:1047B00030E040E050E00F94151BCA01B901A5019B
:1047C00094010F94151B605D609376088EE28093D0
:1047D0007708C701B601A50194010F94151BC62FD8
:1047E000CA01B901A50194010F94151B605D609386
:1047F0007808C05DC093790884E798E0CF91FF9076
:10480000EF90DF90CF90BF90AF909F908F900895E2
:104810006DEB77E386E095E35CCF60E070E080EAE3
:1048200090E48CCFF094E094D094C094C11CD11C3F
:10483000E11CF11C6DE2A1CF20E030E0A901C7012D
:10484000B6010F94AF1487FF6AC060E070E080EAA1
:1048500090ECA50194010F94571B20E030E040E25A
:1048600051E40F94511C0F94C31C4B015C0120E0D8
:1048700030E0A901C701B6010F94B71D87FD0BC039
:1048800020E030E040E251E4C701B6010F94AF14DC
:1048900060E287FD13C0B7FC47C0C501B40128EE34
:1048A00033E040E050E00F94151BCA01B9012AE043
:1048B00030E040E050E00F94151B605D6093750898
:1048C000C501B40124E630E040E050E00F94151B30
:1048D0008AE0C82ED12CE12CF12CCA01B901A70124
:1048E00096010F94151B605D609376088EE28093AD
:1048F0007708C501B401A70196010F94151BC62FB7
:10490000CA01B901A70196010F94151B605D609360
:104910007808C05DC093790885E798E06FCF60E0C4
:1049200070E080EA90E495CFB094A0949094809445
:10493000811C911CA11CB11C6DE2C0CFCF92DF92F3
:10494000EF92FF926B017C0120E030E0A9010F940F
:10495000AF1487FD26C06DEB77E386E095E3A701F2
:1049600096010F94571B6B017C0120E030E0A901F8
:104970000F94AF1420E030E040E05FE387FF04C015
:1049800020E030E040E05FEBC701B6010F94571B19
:104990000F94C31CCB01FF90EF90DF90CF900C944D
:1049A0007FB26DEB77E386E095EBD9CF63E972E0F8
:1049B00084E690E00E94C8BB6AEB72E084E690E077
:1049C0000C94C8BB81110C94D62468EB71E084E18F
:1049D00090E00C94C8BB8091101090911110891B2D
:1049E0008F7051F48091CF08813031F0809179112E
:1049F00082FB882780F9089581E00895E091CB0437
:104A0000E63010F581E08E0F8093CB044091820850
:104A100050918308609184087091850890917B087B
:104A200080917C0828E0E29FF0011124E556FB4FBD
:104A3000209142103091431031832083428353836D
:104A400064837583968387830895AF92BF92CF92D4
:104A5000DF92EF92FF920F931F93CF93DF93EC01BE
:104A60005B018A01FB01199587FD16C0C82ED12C68
:104A7000F12CE12C2196F801C082D182E282F382EE
:104A8000CE01DF91CF911F910F91FF90EF90DF90BA
:104A9000CF90BF90AF900895982F907E903CA9F44E
:104AA0008F7190E0B0E0A0E06C017D0126E0CC0CBD
:104AB000DD1CEE1CFF1C2A95D1F7CE010196F501F5
:104AC00019958F73C82A2296D6CF982F907F903E43
:104AD00011F58F7090E0B0E0A0E06C017D0186E000
:104AE000CC0CDD1CEE1CFF1C8A95D1F7CE01019683
:104AF000F50119958F73C82A96E0CC0CDD1CEE1CCD
:104B0000FF1C9A95D1F7CE010296F50119958F7386
:104B1000C82A2396B0CF982F987F903F79F5877059
:104B200090E0B0E0A0E06C017D01F6E0CC0CDD1C73
:104B3000EE1CFF1CFA95D1F7CE010196F5011995EF
:104B40008F73C82AA6E0CC0CDD1CEE1CFF1CAA95B6
:104B5000D1F7CE010296F50119958F73C82AB6E0F8
:104B6000CC0CDD1CEE1CFF1CBA95D1F7CE010396D0
:104B7000F50119958F73C82A24967DCF982F9C7FB5
:104B8000983FE1F5837090E0B0E0A0E06C017D011A
:104B900056E0CC0CDD1CEE1CFF1C5A95D1F7CE0163
:104BA0000196F50119958F73C82A66E0CC0CDD1CBF
:104BB000EE1CFF1C6A95D1F7CE010296F5011995FE
:104BC0008F73C82A76E0CC0CDD1CEE1CFF1C7A9596
:104BD000D1F7CE010396F50119958F73C82AE6E047
:104BE000CC0CDD1CEE1CFF1CEA95D1F7CE0104961F
:104BF000F50119958F73C82A25963DCF982F9E7F72
:104C00009C3F09F049C0817090E0B0E0A0E06C01E9
:104C10007D0186E0CC0CDD1CEE1CFF1C8A95D1F7D3
:104C2000CE010196F50119958F73C82A96E0CC0C38
:104C3000DD1CEE1CFF1C9A95D1F7CE010296F50102
:104C400019958F73C82A26E0CC0CDD1CEE1CFF1CC6
:104C50002A95D1F7CE010396F50119958F73C82ACD
:104C600036E0CC0CDD1CEE1CFF1C3A95D1F7CE01D2
:104C70000496F50119958F73C82A46E0CC0CDD1C0B
:104C8000EE1CFF1C4A95D1F7CE010596F50119954A
:104C90008F73C82A2696EFCE982F907C903841F4D7
:104CA000807C803869F42196CE01F5011995F8CF02
:104CB0008E7F8D3F28F02196CE01F5011995F8CF12
:104CC000C12CD12C7601D7CE1F93CF93DF9300D088
:104CD0001F92CDB7DEB710E0AE014F5F5F4F65E0CA
:104CE0007CE10E94252549815A816B817C81452B7D
:104CF000462B472B11F01F5FEFCF812F0F900F90A6
:104D00000F900F90DF91CF911F9108951F93CF9334
:104D1000DF9300D01F92CDB7DEB710E0AE014F5F3A
:104D20005F4F68E07CE10E94252549815A816B81B3
:104D30007C81452B462B472B11F01F5FEFCF812F36
:104D40000F900F900F900F90DF91CF911F910895CA
:104D50006FE97AE180E00E942F1E67E97AE181E045
:104D60000E942F1E6FE87AE182E00E942F1E67E802
:104D70007AE186E00E942F1E6FE77AE187E00E94C9
:104D80002F1E67E77AE183E00E942F1E6FE67AE12B
:104D900084E00E942F1E67E67AE185E00C942F1EC6
:104DA000CF93823069F4C4E0C15068F088E0C89FB6
:104DB000B0011124605D754E8C2F0E942F1EF4CF20
:104DC000CF910C94A826CF9108950F931F93522F43
:104DD00020914210309143102817390779F19093B0
:104DE0004310809342108B0130E020E00093820852
:104DF00010938308209384083093850840937B08A0
:104E000050937C08845B924B21F41092D40410924E
:104E1000CB040E9438EF81E0209142103091431082
:104E2000245B324B09F080E00E94D02682E0809320
:104E3000580281E0809392081092CC041F910F9148
:104E4000089520E040E070E060E084EB92EB0C9489
:104E5000E526E091CB04EE2389F0E150E093CB040A
:104E600088E0E89FF0011124E556FB4F62817381D1
:104E700027814681808191810C94E5260C9421271D
:104E800064E084E10E9440EF81E020914210309183
:104E90004310245B324B09F080E00E94D0260C9432
:104EA00038EF4FEF5FEF0C94B11EAF92BF92CF92ED
:104EB000DF92EF92FF920F931F93CF93DF9300D077
:104EC0001F92CDB7DEB76C015B017A0110E000E004
:104ED0000E151F05E8F419821A821B821C82AE018E
:104EE0004F5F5F4FB501C6010E9425256C016981A6
:104EF0007A818B819C81611571058105910541F055
:104F0000A701401B510B0E94B11E080F191FE0CFD3
:104F1000C8010F900F900F900F90DF91CF911F91CC
:104F20000F91FF90EF90DF90CF90BF90AF900895DA
:104F3000CF92DF92EF92FF920F931F93CF93DF9365
:104F400000D01F92CDB7DEB77C01062F6A01122F69
:104F500011160CF03EC0AE014F5F5F4F65E07CE183
:104F6000C7010E9425257C0169817A818B819C8102
:104F7000611571058105910561F16D33710581053B
:104F8000910509F44BC06E3771058105910509F44F
:104F900045C06A3271058105910549F507FF10C0CA
:104FA0008BEA9AE10E3F11F087EA9AE1412F012E38
:104FB000000C550B65E07CE10E945527181B5EC074
:104FC00065E470E080E090E00E945127115041F5C7
:104FD00010E0812F0F900F900F900F90DF91CF91E5
:104FE0001F910F91FF90EF90DF90CF900895643262
:104FF00071058105910571F4C114D10459F0412F57
:10500000012E000C550B65E07CE1C6010E9455277E
:10501000181B9ECF0E94512711509ACF07FDC0CF79
:1050200061E089819A81AB81BC81CD97A105B105F1
:1050300009F460E0600F6A30ACF01150862F6AE02E
:105040000F94751E092F682F880F770B605D7F4FB7
:10505000072E000C880B990B0E945127112309F48D
:10506000B7CF602F062E000C770B605D7F4F072EA9
:10507000000C880B990B0E9451271150112309F441
:10508000A7CF412F012E000C550B65E07CE1C70135
:105090000E945527181B9DCF4FEF5FEF68E07CE122
:1050A0000C9455274FEF5FEF65E07CE10C9455279A
:1050B000643008F063E090915710691710F06FEFBB
:1050C000690FE62FF0E0EC5BFF4E9489890F806852
:1050D0000C9432EF2F923F924F925F926F927F9299
:1050E0008F929F92AF92BF92CF92DF92EF92FF92F8
:1050F0000F931F93CF93DF9300D0CDB7DEB74C0152
:105100003B015A01222E3B83280140918208509195
:1051100083086091840870918508411551056105E7
:10512000710579F081E0141615060CF080E080938B
:10513000CC04109282081092830810928408109276
:1051400085081091CC0430906408109264083110E6
:1051500005C080915802882309F4A5C0C2010E94AD
:105160006426082F80E0C114D10419F0C6010E9402
:1051700064261A821982E114F104B1F4402F50E040
:10518000282F30E0CA01820F931F45976CF484E109
:1051900090E0841B950B821B930B97FD01969595D0
:1051A00087958A8381E0898301E025E03CE1A201C3
:1051B000BE016F5F7F4FCE0102960E9457C5E1147A
:1051C000F10491F08A81882321F01A8289818F5F0E
:1051D000898300E028E03CE1A701BE016F5F7F4FBB
:1051E000CE0102960E9457C5C114D10459F000E0C7
:1051F00025E03CE1A601BE016F5F7F4FCE01029624
:105200000E9457C563E080E00E9458286BE570E07B
:1052100080E090E0112321F060E270E080E090E017
:105220000E945127C3010E9452286DE570E080E082
:1052300090E0112321F060E270E080E090E00E94B5
:105240005127C4010E94642663E092E1981B892FD4
:105250000E94582860E270E080E090E0112321F085
:105260006BE570E080E090E00E945127C4010E944D
:10527000522860E270E080E090E0112321F06DE5BB
:1052800070E080E090E00E945127332049F0111136
:1052900002C0A22CBB80A114B104D9F0F50119956C
:1052A00081E08093D4040F900F900F90DF91CF9105
:1052B0001F910F91FF90EF90DF90CF90BF90AF9034
:1052C0009F908F907F906F905F904F903F902F9026
:1052D00008950E942927E4CFCF92DF92EF92FF92A8
:1052E00069017A010E945828C701B601FF90EF902A
:1052F000DF90CF900C945127CF92DF92FF920F93C3
:105300001F93CF93DF938C01EB01C0909408D09052
:105310009508F090930861E080E00E94582823E10E
:10532000A6016F2DC8010E949827182F209711F110
:105330006AE370E080E090E00E945127CE010E9475
:1053400086268F5F115061E0181708F462E020E2B2
:1053500030E040E050E094E1981B892F0E946C29D6
:10536000CE01DF91CF911F910F91FF90DF90CF90F1
:105370000C944C28DF91CF911F910F91FF90DF90FB
:10538000CF9008950F931F93CF93DF93FC01EB0110
:105390008091820890918308A0918408B09185083B
:1053A000B7FF08C0109282081092830810928408F8
:1053B000109285088091860890918708A0918808AE
:1053C000B0918908409182085091830860918408C7
:1053D0007091850884179507A607B70744F4809352
:1053E000820890938308A0938408B09385088091E5
:1053F00058028823E1F060918208709183088091BF
:1054000084089091850800918A0810918B0820915A
:105410008C0830918D08600F711F821F931F1995A2
:10542000BC0180919008909191080E947C29809104
:105430006408811108C080917F088823D1F1809190
:1054400058028823B1F180918E0890918F080097BF
:10545000B1F0409182085091830860918408709166
:10546000850800918A0810918B0820918C08309152
:105470008D08400F511F621F731FFE011995E091A7
:105480008008F0918108309741F080917F08811168
:1054900003C080916408811119958091640810926D
:1054A0006408882331F0DF91CF911F910F910C9404
:1054B0002927DF91CF911F910F910895CF92DF920D
:1054C000EF92FF920F931F93CF93DF93C82ED62EA8
:1054D0007A01E901209709F467C0C901002381F12D
:1054E0000E946426182F2EE330E040E050E0C11007
:1054F00004C020E230E040E050E06D2D80E00E94EA
:105500006C2922E1211B40919408509195086091EB
:105510009308C7010E949827F82E112309F448C068
:105520006AE370E080E090E00E945127FF2059F08C
:1055300060E270E080E090E00E945127FA94F6CF9C
:105540000E948626CFCFCE01002351F0DF91CF916C
:105550001F910F91FF90EF90DF90CF900C94522805
:10556000DF91CF911F910F91FF90EF90DF90CF903F
:105570000C944C282EE330E040E050E06D2D80E0AC
:105580000E946C29409194085091950822E1609105
:105590009308C701DF91CF911F910F91FF90EF907A
:1055A000DF90CF900C9498278111E4CF10E0A1CF29
:1055B000DF91CF911F910F91FF90EF90DF90CF90EF
:1055C00008950F93CF93DF93EA01811101C020E288
:1055D000022E000C330B440B550B80E00E946C290B
:1055E000409194085091950822E160919308CE0172
:1055F0000E949827C82FCC2341F060E270E080E041
:1056000090E00E945127C150F6CF602F000F770B1A
:10561000880B990BDF91CF910F910C9451270F9329
:105620001F93CF93DF930E9423EAD0917B08C0E0C1
:10563000D1112DC080917D088823C1F0809158023E
:10564000882361F081E090917D08911180E003E072
:1056500023E048EC5BE16C2F0E94E12ADF5FCF5F23
:10566000C43031F785E080937C080CC080916408D9
:1056700010926408882311F30E94292780919208D0
:105680008823E1F2DF91CF911F910F910895D130DE
:10569000B1F580917D088130E9F08091580288232E
:1056A000E9F211E080917D08813009F010E060910D
:1056B000DD0E7091DE0E8091DF0E9091E00E0E9463
:1056C000582200E09C014DEB5BE16C2F812F0E9482
:1056D0005E2AC4CF80916408109264088823E9F29E
:1056E0000E94AEEB48E15EE16DED7EE08DEB9BE16B
:1056F0000E943AEC80919208882379F2C3CFD2308D
:1057000009F07BC080917D088230D1F080915802F1
:10571000882309F4A3CF11E080917D08823009F03D
:1057200010E06091E10E7091E20E8091E30E909195
:10573000E40E0E94582200E09C0142EB5BE1C5CFE1
:105740008091640810926408882301F30E94AEEBF4
:1057500046E15EE161EE7EE082EB9BE10E943AEC85
:1057600080919208882391F28DCF80917D088330BB
:10577000D1F080915802882309F470CF11E0809114
:105780007D08833009F010E06091E50E7091E60E1F
:105790008091E70E9091E80E0E94582200E09C0153
:1057A00047EA5BE192CF80916408109264088823F5
:1057B00001F30E94AEEB44E15EE165EE7EE087EA34
:1057C0009BE10E943AEC80919208882391F25ACF93
:1057D00080916408109264088823C9F00E94AEEB9F
:1057E00042E15EE169EE7EE08CE99BE10E943AECE9
:1057F00080919208882359F045CFD33009F4B5CF72
:10580000D43009F02BCF80917D08843009F380914A
:105810005802882309F422CF11E080917D0884305A
:1058200009F010E06091E90E7091EA0E8091EB0EA4
:105830009091EC0E0E94582200E09C014CE95BE143
:1058400044CF8F929F92AF92BF92CF92DF92EF920E
:10585000FF920F931F93CF93DF930E9423EAD0917F
:105860007B08C0E0D11134C080917D088823B9F055
:1058700080915802882361F081E090917D08911118
:1058800080E003E023E048EC5BE16C2F0E94E12A1A
:10589000DF5FCF5FC43031F7C0937C080CC08091CC
:1058A000640810926408882319F30E9429278091C4
:1058B00092088823E9F2DF91CF911F910F91FF9019
:1058C000EF90DF90CF90BF90AF909F908F90089512
:1058D000D13009F05FC080917D088130E9F080917E
:1058E00058028823A9F211E080917D08813009F0E7
:1058F00010E0609198087091990880919A089091B1
:105900009B080E94D72100E09C014DE85BE16C2FD1
:10591000812F0E945E2ABCCF809164081092640897
:105920008823E9F220E030E040E251E460919808F9
:105930007091990880919A0890919B080F94151581
:1059400020E030E0A9010F94571B20E030E848EE3A
:1059500054E40F94571B0F94CA1C912C812C4EEBCE
:10596000A42E43E8B42E6B0118E8E12E1EE0F12EC0
:1059700000E010E02CEB38EF4FEF5FEF68E978E0E4
:105980008DE89BE10E94B1E980919208882309F497
:10599000A6CF91CFD23009F09AC080917D08823095
:1059A000D1F080915802882309F472CF11E08091E0
:1059B0007D08823009F010E060919C0870919D088C
:1059C00080919E0890919F080E94D72100E09C0141
:1059D0004EE75BE19CCF80916408109264088823B5
:1059E00001F320E030E040E251E460919C087091C6
:1059F0009D0880919E0890919F080F94151520E0B6
:105A000030E0A9010F94571B20E030EC40ED54E446
:105A10000F94571B0F94CA1C912C812C2EEBA22E95
:105A200023E8B22E6B011CE0E12E1DE0F12E00E018
:105A300010E02AE739EF4FEF5FEF6CE978E08EE78F
:105A40009BE10E94B1E980919208882309F4A9CFD3
:105A500032CF8091640810926408882309F43FC013
:105A600020E030E048EC52E46091A0087091A10879
:105A70008091A2089091A3080F94151520E030E0C2
:105A8000A9010F94571B20E030E04AEF54E40F9433
:105A9000571B0F94CA1C912C812C82EBA82E83E8F3
:105AA000B82E6B0110EAE12E1FE0F12E00E010E0AD
:105AB00020E338EF4FEF5FEF60EA78E08FE69BE19D
:105AC0000E94B1E980919208882349F0F4CED33046
:105AD00009F0DECE80917D08833009F4BACF809141
