:100000000C94261C0C94571C0C94571C0C94571CD5
:100010000C94571C0C94571C0C94571C0C94571C94
:100020000C94571C0C94571C0C94571C0C94571C84
:100030000C94571C0C9419EE0C94571C0C94571CE0
:100040000C94571C0C9480940C94571C0C94571CC3
:100050000C94571C0C94571C0C94038F0C9447F26F
:100060000C94571C0C94456A0C943B6A0C94571CD6
:100070000C94571C0C94571C0C94571C0C94571C34
:100080000C9445480C94571C0C94571C0C94571C0A
:100090000C94571C0C94571C0C94571C0C94571C14
:1000A0000C94571C0C94571C0C9417480C94571C18
:1000B0000C94571C0C94571C0C94571C0C94571CF4
:1000C0000C94571C0C94571C0C94571C0C94571CE4
:1000D0000C94571C0C94571C0C94571C0C94571CD4
:1000E0000C94571C084AD73B3BCE016E84BCBFFD25
:1000F000C12F3D6C74319ABD56833DDA3D00C77FF8
:1001000011BED9E4BB4C3E916BAAAABE0000008090
:100110003F05A84CCDB2D44EB93836A9020C50B91F
:10012000918688083CA6AAAA2ABE000000803F004B
:100130000C9454D40C940FEE0C946A850C944F8854
:100140000C94A7D40C946E880C949A2E0C94DB8497
:100150000C94258B0C9496830C9409EE0C9420BF80
:100160000C94208B0C94A7C00C9444850C94F085BF
:100170000C9423880C9440880C9401EE0C947B839F
:100180000C94D0C90C94655A0C942F8B0C94355A4E
:100190000C9472C10C94E7830C948A8B0C94FBED45
:1001A0000C949EBD0C940F400C94815A0C94A9861B
:1001B0000C94E3820C94BFB90C94B1830C94D98451
:1001C0000C94F5260C944D840C941B840C94468658
:1001D0000C94F18D0C9435830C944A880C944588CA
:1001E0000C94E6850C94C0840C942C1F0C94495AF2
:1001F0000C94EDED0C945D5A0C94591C0C94B28D3A
:100200000C948B860C94281F0C9402840C94948D6F
:100210000C946D830C9450C50C94A7370C94E3EDAB
:100220000C948D880C94DA820C942A1F0C94828B87
:100230000C9466840C9434D40D943F0F0C94221FBC
:100240000C943A5A0C9460290C940EC30C949D861D
:100250000C94A38D0C94F3ED0C94775A0C94C25A21
:100260000C948E310C94CC5A0C946D5A0C943F5AC9
:100270000C9413EE0C947F860C9432880C94535A91
:100280000C9481840C9485860C945C360C945A836F
:100290000C942E860C949A5A0C94CC830C94228342
:1002A0000C94E9ED0C94CB880C94B85A0C94A6D419
:1002B0000C94241F0C94A45A0C94A82C0C943A86E9
:1002C0000C9479860C9434840C945A8F0C945C1C96
:1002D0000C9402300C94C5260C94E4260D9445072A
:1002E0000C946BB80C94261F0C942A8B0C94768D6E
:1002F0000C94A4820C94A1340C94AE5A0C9467868E
:100300000C94A98B0C94C7820C94AF860C9444C7B0
:100310000C94D4ED0C948B5A0C9434860C94D8ED38
:100320000C94ED410C94DD840C94581F0C9468815E
:100330000C94AC880C94C2ED0C9473860C9405EE6E
:100340000C94201F0C94F8850C94B1990C9494840F
:100350000C9491860C9441830C94A7840C94F7ED33
:100360000C94858D0C94BDED0C946D860C94E0ED91
:100370000C94F8EF0C94A3860C9440860C94E885BA
:100380000C943B880C94541F0C941E1F0C9497865D
:100390000C94501F0C94FF410C94DCED0C94B89914
:1003A0000C94431F0C9425D44E414E494E49545948
:1003B000494E46CDCCCC3D0AD7233C17B7D1387730
:1003C000CC2B329595E6241FB14F0A000020410046
:1003D00000C84200401C4620BCBE4CCA1B0E5AAE90
:1003E000C59D7400407A10F35A00A0724E1809009F
:1003F00010A5D4E80000E87648170000E40B54028A
:100400000000CA9A3B000000E1F5050000809698C4
:1004100000000040420F000000A086010000001014
:100420002700000000E80300000000640000000056
:10043000000A00000000000100000000002C76D837
:1004400088DC674F0823DFC1DFAE59E1B1B796E51D
:10045000E3E453C63AE651997696E8E6C28426EB81
:10046000898C9B62ED407C6FFCEFBC9C9F40F2BA94
:10047000A56FA5F490055A2AF75C936B6CF9676D2C
:10048000C11BFCE0E40D47FEF520E6B500D0ED9081
:100490002E0300943577050080841E080000204E4E
:1004A0000A000000C80C333333330F986E128311E7
:1004B00041EF8D2114893BE65516CFFEE6DB18D1BE
:1004C000844B381BF77C1D901DA4BBE42420328490
:1004D000725E228100C9F124ECA1E53D27434F4D16
:1004E0004D554E49434154494F4E0044525952557F
:1004F0004E004552524F525300494E464F0045431D
:10050000484F004572726F722077726974696E6726
:1005100020746F20454550524F4D210A0021212063
:100520004B494C4C2063617573656420627920747B
:100530006F6F206D75636820696E6163746976659D
:100540002074696D65202D2063757272656E74204C
:10055000636F6D6D616E643A200053544F50504587
:10056000442E20005072696E7465722073746F702F
:100570007065642064756520746F206572726F7297
:10058000732E2046697820746865206572726F72D8
:1005900020616E6420757365204D39393920746F80
:1005A00020726573746172742E202854656D7065B5
:1005B0007261747572652069732072657365742E3B
:1005C00020536574206974206166746572207265B9
:1005D0007374617274696E67290A004E6F204368F4
:1005E00065636B73756D2077697468206C696E65DF
:1005F000206E756D6265722C204C617374204C699D
:100600006E653A20004E6F20436865636B73756DAD
:100610002077697468206C696E65206E756D6265FF
:10062000722C204C617374204C696E653A20006313
:100630006865636B73756D206D69736D6174636854
:100640002C204C617374204C696E653A20004C6913
:100650006E65204E756D626572206973206E6F74D1
:10066000204C617374204C696E65204E756D626517
:10067000722B312C204C617374204C696E653A20CA
:10068000004D313130005344207265616420657241
:10069000726F720A00627573793A207061757365C2
:1006A0006420666F7220696E7075740A00627573DB
:1006B000793A2070617573656420666F7220757376
:1006C00065720A00627573793A2070726F636573A0
:1006D00073696E670A004D656469612052656D6FCC
:1006E000766564004D6564696120496E7365727456
:1006F000656400506C6561736520526573657400B4
:100700005052494E5445522048414C5445440025CE
:10071000533A202553004B494C4C45442E20005061
:1007200072696E7465722068616C7465642E206BEA
:10073000696C6C28292063616C6C6564210A005324
:10074000544F505045442E20005072696E746572AB
:100750002073746F707065642064756520746F20F9
:100760006572726F72732E204669782074686520F6
:100770006572726F7220616E6420757365204D39E9
:10078000393920746F20726573746172742E202859
:1007900054656D706572617475726520697320723D
:1007A000657365742E2053657420697420616674C6
:1007B00065722072657374617274696E67290A00CC
:1007C0006563686F3A004572726F723A0042696CF5
:1007D000696E656172204C6576656C696E6720474D
:1007E0007269643A0A0021212053544F50206361FA
:1007F0006C6C65642062656361757365206F66204B
:10080000424C546F756368206572726F72202D20A0
:10081000726573746172742077697468204D393918
:10082000390A0021212053544F502063616C6C65BC
:10083000642062656361757365206F6620424C5465
:100840006F756368206572726F72202D20726573F8
:10085000746172742077697468204D3939390A00DF
:100860004F46460A004661646520486569676874BA
:100870002000426564204C6576656C696E672000D7
:100880004661696C656420746F20656E61626C6599
:1008900020426564204C6576656C696E670A004984
:1008A0006E76616C6964206D6573682E0A00507203
:1008B0006F62696E6720506F696E74002553202542
:1008C000692F2569002E0A002F0050726F62696E31
:1008D00067206D65736820706F696E742000202832
:1008E00044525952554E2900473239204175746F90
:1008F00020426564204C6576656C696E67003F2018
:10090000284C2C522C462C4229206F7574206F667F
:1009100020626F756E64732E0A003F285629657237
:10092000626F7365206C6576656C20696D706C61B3
:10093000757369626C652028302D34292E0A0042B7
:100940006164205A2076616C75650A004E6F2062E2
:10095000696C696E65617220677269640A0044653A
:1009600076696174696F6E0025533A2025730046DD
:10097000696E6973686564210A003A207A3A20003A
:10098000206F662000476F696E6720746F3A2058A9
:100990000043570A00206469723A0020616E676C58
:1009A000653A005374617274207261646975733AB8
:1009B000004D343820506F696E740025533A20255D
:1009C000642F256400506F736974696F6E696E6778
:1009D000207468652070726F62652E2E2E0A003FAB
:1009E0004C656773206F66206D6F76656D656E74FC
:1009F00020696D706C61757369626C652028302D9B
:100A00003135292E0A003F2028582C5929206F758E
:100A100074206F6620626F756E64732E0A005072C8
:100A20006F6265206F7574206F6620626F756E64EB
:100A300073003F53616D706C652073697A65206E39
:100A40006F7420706C61757369626C652028342D39
:100A50003530292E0A004D3438205A2D50726F62DD
:100A600065205265706561746162696C6974792092
:100A7000546573740A003F2856296572626F736566
:100A8000206C6576656C20696D706C617573696248
:100A90006C652028302D34292E0A005374616E6451
:100AA00061726420446576696174696F6E3A2000F2
:100AB0002052616E67653A2000204D61783A20002F
:100AC000204D696E3A2000205369676D613A20001D
:100AD0004D65616E3A200020496E76616C69642034
:100AE00065787472756465722000536C6565702E4C
:100AF0002E2E005A2050726F626520506173742050
:100B00004265640A005A2050726F6265205061731A
:100B1000742042656400205A3A200020593A20008F
:100B200042656420583A20004D65736820706F69F3
:100B30006E74206F7574206F662072616E67650A2F
:100B400000436C69636B20746F20526573756D652B
:100B50002E2E2E004E6F204D6F76652E00456E6452
:100B60002066696C65206C6973740A004265676968
:100B70006E2066696C65206C6973740A004E6F2084
:100B80006D656469610A00286E6F2066696C65296D
:100B90000043757272656E742066696C653A200058
:100BA0005344207072696E74696E6720627974654F
:100BB00020004E6F74205344207072696E74696E09
:100BC000670A002E0A0044656C6574696F6E2066C2
:100BD00061696C65642C2046696C653A2000466941
:100BE0006C652064656C657465643A002569730002
:100BF00025696D20256973002569682025696D20A8
:100C000025697300256964202569682025696D20A0
:100C10002569730025697920256964202569682084
:100C200025696D20256973005072696E742074699E
:100C30006D653A20006F6B006F666600FE04F90474
:100C4000F204EB04DD0444454255473A004D31318E
:100C5000322053687574646F776E004D31313320E4
:100C60005300476565657465636820693320507279
:100C70006F2042204F46462E004348414D42455288
:100C80005F54454D504552415455524500424142F2
:100C9000595354455050494E470041524353004D1B
:100CA0004F54494F4E5F4D4F4445530054484552B1
:100CB0004D414C5F50524F54454354494F4E004CA8
:100CC0004F4E475F46494C454E414D4500415554B6
:100CD0004F5245504F52545F53445F535441545503
:100CE000530052455045415400534443415244003F
:100CF00050524F4D50545F535550504F5254004531
:100D00004D455247454E43595F504152534552005D
:100D1000434153455F4C494748545F425249474815
:100D2000544E45535300544F47474C455F4C494739
:100D300048545300534F4654574152455F504F5704
:100D40004552004255494C445F50455243454E542C
:100D5000004C4556454C494E475F44415441005A6A
:100D60005F50524F42450052554E4F555400415529
:100D7000544F4C4556454C005052494E545F4A4FD3
:100D8000420050524F4752455353004155544F5221
:100D900045504F52545F54454D5000564F4C554DA1
:100DA000455452494300454550524F4D0042494E2B
:100DB0004152595F46494C455F5452414E53464556
:100DC000520053455249414C5F584F4E5F584F4671
:100DD00046004649524D574152455F4E414D453AB6
:100DE0004D61726C696E206275676669782D322E6E
:100DF000302E7820284A616E202033203230323164
:100E00002031343A30313A30322920534F55524351
:100E1000455F434F44455F55524C3A676974687566
:100E2000622E636F6D2F4D61726C696E4669726DD3
:100E3000776172652F4D61726C696E2050524F540C
:100E40004F434F4C5F56455253494F4E3A312E3027
:100E5000204D414348494E455F545950453A4765F6
:100E60006565746563682069332050726F20422085
:100E700045585452554445525F434F554E543A31AC
:100E800020555549443A63656465326132662D34B4
:100E90003161322D343734382D396231322D63359A
:100EA000356336326633363766660A002F2F004DBB
:100EB00031343520533C696E6465783E206F75741B
:100EC000206F662072616E67652028302D31290AF7
:100ED00000205200416363656C65726174696F6ED6
:100EE0003A2050005741524E494E4721204C6F77CF
:100EF000205A204A65726B206D6179206C656164AF
:100F000020746F20756E77616E74656420706175F2
:100F10007365732E0A004D3230362058004F464616
:100F2000004F4E0020204D61783A20002000202004
:100F30004D696E3A2000536F667420656E64737459
:100F40006F70733A200046523A0020466C6F773A31
:100F500020003A200020536572766F2000206F75C4
:100F600074206F662072616E67650A005365727641
:100F70006F200020643A0020693A0020703A00494E
:100F80006E76616C69642065787472756465720A46
:100F90000064697300656E0043290A0061626C6534
:100FA0006420286D696E2074656D702000436F6C3D
:100FB00064206578747275646573206172652000C1
:100FC0004D34323120696E636F72726563742070C4
:100FD0006172616D657465722075736167650A0081
:100FE0004D65736820706F696E74206F7574206F23
:100FF000662072616E67650A004F6666736574737A
:10100000204170706C696564004572723A20546FBB
:101010006F206661722100546F6F206661722066D6
:10102000726F6D207265666572656E636520706FA4
:10103000696E740A00454550524F4D204F4B0A00CF
:10104000290A0020746F20003F5A206F7574206FAA
:10105000662072616E6765202800290A0020746F7F
:1010600020003F59206F7574206F662072616E6793
:101070006520282D00290A0020746F20003F582089
:101080006F7574206F662072616E676520282D0071
:1010900050726F6265204F66667365742058002039
:1010A00058593A2000536B657720466163746F721C
:1010B000006D696E5F736B65775F666163746F72F5
:1010C0003A20202D31206D61785F736B65775F6604
:1010D0006163746F723A2020310A004D3834004445
:1010E0006F6E65207072696E74696E672066696CD8
:1010F000650A004D3737004D333100496E76616C1B
:1011000069642065787472756465720A0043617061
:101110003A0047322F473320626164207061726168
:101120006D65746572730A006F6B00526573656E4E
:10113000643A200020573A00436F6F6C696E672E47
:101140002E2E0048656174696E672E2E2E00452094
:1011500025530020573A0042656420436F6F6C6945
:101160006E672E2E2E004265642048656174696E9C
:10117000672E2E2E0023646566696E652044454601
:1011800041554C545F004B6420004B6920004B706C
:101190002000504944204175746F74756E65206657
:1011A000696E697368656421205075742074686580
:1011B000206C617374204B702C204B6920616E642D
:1011C000204B6420636F6E7374616E74732066725B
:1011D0006F6D2062656C6F7720696E746F20436F4E
:1011E0006E66696775726174696F6E2E680A005069
:1011F0004944204175746F74756E65206661696C31
:101200006564212074696D656F75740A00504944E6
:10121000204175746F74756E65206661696C6564D4
:10122000212054656D706572617475726520746FEC
:101230006F20686967680A00204B643A2000204BE1
:10124000693A2000204B703A20000A20436C6173F9
:1012500073696320504944200A002054753A2000E5
:10126000204B753A2000206D61783A2000206D698E
:101270006E3A200020643A200020626961733A20AF
:1012800000504944204175746F74756E6520737405
:101290006172740A00504944204175746F74756E10
:1012A00065206661696C6564212054656D706572A6
:1012B000617475726520746F6F20686967680A00D1
:1012C000504944204175746F74756E6500504944EF
:1012D000204175746F74756E65206661696C656414
:1012E0002120426164206578747275646572206E95
:1012F000756D6265720A00A10000006900A200001D
:10130000006300B00000000900C10000004100C2FD
:101310000000004100C30000004100C40000004183
:1013200000C50000004100C60000004145C70000A4
:10133000004300C80000004500C90000004500CD82
:101340000000004900D10000004E00D50000004F11
:1013500000D60000004F00D70000007800DC00003D
:10136000005500DD0000005900E00000006100E1D0
:101370000000006100E20000006100E30000006185
:1013800000E40000006100E50000006100E60000EC
:10139000006165E70000006300E80000006500E907
:1013A0000000006500EA0000006500EB0000006539
:1013B00000EC0000006900ED0000006900EE000094
:1013C000006900EF0000006900F10000006E00F20B
:1013D0000000006F00F30000006F00F40000006FD9
:1013E00000F50000006F00F60000006F00F800003C
:1013F000006F00F90000007500FA0000007500FBA6
:101400000000007500FC0000007500FD0000007980
:1014100000FF000000790004010000410005010008
:101420000061000601000043000701000063000C9A
:1014300001000043000D01000063000E01000044A4
:10144000000F010000640011010000640019010098
:101450000065001A01000045001B01000065001F27
:1014600001000067003001000049003101000069FF
:1014700000410100004C00420100006C00430100EB
:10148000004E00440100006E00480100006E00584C
:1014900001000052005901000072005A010000537F
:1014A000005B01000073005F010000730060010039
:1014B0000053006101000073006501000074006FBB
:1014C00001000075007C0100007A007D0100005AD7
:1014D000007E0100007A00920100006600E3020035
:1014E000007800222000002E001E210000507822EB
:1014F000210000544D902100003C2D922100002D30
:101500003EB02100000300BB21000004003C22008B
:10151000007E00482200007E3D60220000213D61E7
:101520002200003D00642200003C3D652200003E98
:101530003DF12300000700A03000003D0021F30131
:10154000000200C2F401000500A2000000EC00B09F
:10155000000000DF00E4000000E100F6000000EF02
:1015600000F7000000FD00FC000000F500E30200B1
:1015700000EB0087030000A5008F030000F4009833
:10158000030000F2009E030000E300A3030000F646
:1015900000A9030000F400AC030000E000AD03006C
:1015A00000E300B1030000E000B2030000E200B578
:1015B000030000E300B8030000F200BC030000E4F5
:1015C00000BE030000E300C0030000F700C10300F9
:1015D00000E600C3030000E500902100007F0092B8
:1015E0002100007E001A220000E8001E220000F305
:1015F0000088250000FF0002300000A1000C300030
:1016000000A2000D300000A3009B300000DE009C13
:10161000300000DF00A03000003D00A1300000A736
:1016200000A2300000B100A3300000A800A43000E8
:1016300000B200A5300000A900A6300000B300A74A
:10164000300000AA00A8300000B400A9300000ABB0
:1016500000AA300000B500AB300000B600AC30008E
:1016600000B6DEAD300000B700AE300000B7DEAF30
:10167000300000B800B0300000B8DEB1300000B972
:1016800000B2300000B9DEB3300000BA00B4300060
:1016900000BADEB5300000BB00B6300000BBDEB7DC
:1016A000300000BC00B8300000BCDEB9300000BD26
:1016B00000BA300000BDDEBB300000BE00BC300010
:1016C00000BEDEBD300000BF00BE300000BFDEBF88
:1016D000300000C000C0300000C0DEC1300000C1DA
:1016E00000C2300000C1DEC3300000AF00C43000D3
:1016F00000C200C5300000C2DEC6300000C300C713
:10170000300000C3DEC8300000C400C9300000C48F
:10171000DECA300000C500CB300000C600CC30006F
:1017200000C700CD300000C800CE300000C900CF97
:10173000300000CA00D0300000CADED1300000CA3C
:10174000DFD2300000CB00D3300000CBDED430003D
:1017500000CBDFD5300000CC00D6300000CCDED787
:10176000300000CCDFD8300000CD00D9300000CDF3
:10177000DEDA300000CDDFDB300000CE00DC3000F0
:1017800000CEDEDD300000CEDFDE300000CF00DF37
:10179000300000D000E0300000D100E1300000D285
:1017A00000E2300000D300E3300000AC00E4300081
:1017B00000D400E5300000AD00E6300000D500E7C1
:1017C000300000AE00E8300000D600E9300000D75D
:1017D00000EA300000D800EB300000D900EC300007
:1017E00000DA00ED300000DB00EF300000DC00F23A
:1017F000300000A600F3300000DD00F4300000B33C
:10180000DEF7300000DCDEFA300000A6DEFB300040
:1018100000A500FC300000B000FD300000A400076F
:101820004E0000FB0086510000FC0043530000FA0C
:101830000064FF0000A40065FF0000A50066FF0033
:1018400000A60067FF0000A70068FF0000A800696D
:10185000FF0000A9006AFF0000AA006BFF0000ABB8
:10186000006CFF0000AC006DFF0000AD006EFF00DB
:1018700000AE006FFF0000AF0070FF0000B000710D
:10188000FF0000B10072FF0000B20073FF0000B360
:101890000074FF0000B40075FF0000B50076FF0083
:1018A00000B60077FF0000B70078FF0000B80079AD
:1018B000FF0000B9007AFF0000BA007BFF0000BB08
:1018C000007CFF0000BC007DFF0000BD007EFF002B
:1018D00000BE007FFF0000BF0080FF0000C000814D
:1018E000FF0000C10082FF0000C20083FF0000C3B0
:1018F0000084FF0000C40085FF0000C50086FF00D3
:1019000000C60087FF0000C70088FF0000C80089EC
:10191000FF0000C9008AFF0000CA008BFF0000CB57
:10192000008CFF0000CC008DFF0000CD008EFF007A
:1019300000CE008FFF0000CF0090FF0000D000918C
:10194000FF0000D10092FF0000D20093FF0000D3FF
:101950000094FF0000D40095FF0000D50096FF0022
:1019600000D60097FF0000D70098FF0000D800992C
:10197000FF0000D9009AFF0000DA009BFF0000DBA7
:10198000009CFF0000DC009DFF0000DD009EFF00CA
:1019900000DE009FFF0000DF00E5FF00005C0000AC
:1019A000000000010204040000001C1C0C040404DC
:1019B0000201000000000004081000000000002DDB
:1019C0002D2D2D2D2D007C4D61726C696E7C002DAE
:1019D0002D2D2D2D2D00001C1F11111F00000006A4
:1019E000191803130C00040E1F041C000000000E45
:1019F0001315110E00001C10181705060500040A27
:101A00000A0A0A11110E0C12120C00000000001F2D
:101A10001511151F000042656400456E636C6F73FD
:101A2000757265002568753A253032687500253075
:101A30003268753A2530326875002D2D2D005344DB
:101A40000020202020202020002020202000507274
:101A5000696E742041626F72746564004D323500A6
:101A600050617573696E672E2E2E004D323400451D
:101A70004550524F4D2056657273696F6E20457206
:101A8000726F7200454550524F4D20496E64657823
:101A9000204572726F7200454550524F4D2043529F
:101AA00043204572726F72003F0049676E6F726526
:101AB00000526573657400496E697469616C697A76
:101AC0006520454550524F4D0046696C2E204469B3
:101AD000612E004520696E206D6D5E33002002206E
:101AE00046616374002002204D6178002002204D81
:101AF000696E004F6666004F6E004175746F7465C5
:101B00006D70005654726176204D696E00566D6995
:101B10006E00566D6178204500566D6178205A0040
:101B2000566D6178205900566D6178205800416DDE
:101B30006178204500416D6178205A00416D6178DF
:101B4000205900416D6178205800412D5472617612
:101B5000656C00412D52657472616374004163636A
:101B6000656C0056652D4A65726B00565A2D4A65A4
:101B7000726B0056592D4A65726B0056582D4A6596
:101B8000726B0050726F6265205A204F66667365F3
:101B9000740050726F62652059204F6666736574D9
:101BA0000050726F62652058204F6666736574003E
:101BB0005045544700504C41004520737465707384
:101BC0002F6D6D005A2053746570732F6D6D005921
:101BD0002053746570732F6D6D00582053746570B9
:101BE000732F6D6D00416476616E6365642053658B
:101BF0007474696E6773003F0043616E63656C00C7
:101C0000496E6974004D34323800496E69746961F7
:101C10006C697A6520454550524F4D0046696C61AC
:101C20006D656E740054656D706572617475726572
:101C30000053746570732F6D6D0050726F62652074
:101C40004F666673657473004A65726B0041636327
:101C5000656C65726174696F6E0056656C6F63695F
:101C600074790053657420486F6D65204F66667304
:101C700065747300436F6E66696775726174696F2E
:101C80006E003F004E65787420506F696E7400449A
:101C90006F6E65004E65787400486F6D696E6720E1
:101CA00058595A0053746F72652053657474696E85
:101CB0006773004C6F61642053657474696E677359
:101CC000004C6576656C20436F726E6572730050D0
:101CD000726F6265205A204F6666736574004661B4
:101CE000646520486569676874004F6666004F6EDA
:101CF00000426564204C6576656C696E67004C65D2
:101D000076656C20426564004732380A47323900F4
:101D1000473239004175746F20486F6D65004D6F13
:101D200074696F6E0053746F77004465706C6F79DF
:101D30000053656C662D5465737400526573657449
:101D40000053572D4D6F646500426564004E6F7AF5
:101D50007A6C650046616E20537065656400436F60
:101D60006E66696775726174696F6E00526573742F
:101D70006F72652044656661756C7473004C6F61A9
:101D8000642053657474696E67730053746F726571
:101D90002053657474696E6773005072656865617D
:101DA00074202420436F6E6600424C546F75636844
:101DB0000050726F6265205A204F6666736574002A
:101DC000416476616E6365642053657474696E67FF
:101DD00073004D61696E003F004261636B00537494
:101DE0006F70005072696E742066726F6D204D6561
:101DF000646961004368616E6765204D656469616F
:101E0000004D323100436F6E6669677572617469A7
:101E10006F6E0054656D7065726174757265004D0A
:101E20006F74696F6E00526573756D6520507269CD
:101E30006E740054756E650053746F702050726933
:101E40006E74005061757365205072696E74004E37
:101E50006F204D6564696100496E666F205363723F
:101E600065656E003F005374617274205072696E34
:101E7000740043616E63656C005072696E74004358
:101E8000616E6E6F7420656E746572207375626426
:101E900069723A2000052E2E004D61696E00210006
:101EA000486F74656E6420746F6F20636F6C64009C
:101EB0004261636B0050726F63656564004D6F74BF
:101EC000696F6E0044697361626C6520537465705C
:101ED00070657273004D3834004D34382050726F85
:101EE0006265205465737400473238204F0A4D34C0
:101EF000382050313000426564204C6576656C694D
:101F00006E6700486F6D65205A004732385A0048A6
:101F10006F6D652059004732385900486F6D652054
:101F2000580047323858004175746F20486F6D650E
:101F300000473238004D61696E0050726568656116
:101F400074202420456E64005072656865617420B9
:101F500024204265640054656D7065726174757209
:101F60006500B51BB01B436F6F6C646F776E0050DC
:101F700072656865617420240046616E2053706547
:101F8000656400426564004E6F7A7A6C65004D614D
:101F9000696E00466C6F770046616E205370656510
:101FA0006400426564004E6F7A7A6C650053706518
:101FB0006564004D61696E006F70656E0054524932
:101FC000474745524544003A20007A5F6D696E00EC
:101FD000795F6D696E00785F6D696E005265706F34
:101FE0007274696E6720656E6473746F70207374A9
:101FF000617475730A0020746F6F206C6F6E6720B8
:10200000657874727573696F6E2070726576656E2F
:102010007465640A0020636F6C642065787472755F
:1020200073696F6E2070726576656E7465640A0000
:10203000486F6D652025732573257320466972737B
:102040007400486F6D696E67204661696C65640055
:1020500000002041000020C1000000005761726EA6
:10206000696E673A20486F6D696E672042756D70C2
:102070002044697669736F72203C20310A000202A5
:10208000040000A0400000A0400000004000003A12
:102090004300003B4300003943FFFFFF0000000105
:1020A0000000000100008000555555000000400070
:1020B00033333300AAAA2A004992240000002000EA
:1020C000C7711C0099991900D14517005555150085
:1020D0003BB113002449120011111100000010003F
:1020E0000F0F0F00E3380E0043790D00CCCC0C002D
:1020F000C3300C00E8A20B0064210B00AAAA0A005E
:10210000703D0A009DD80900427B09009224090015
:10211000DCD308008888080010420800000008008E
:10212000F0C107008787070075500700711C070082
:102130003EEB0600A1BC060069900600666606003C
:10214000703E06006118060017F4050074D1050002
:102150005BB00500B29005006272050055550500A0
:1021600078390500B81E0500050505004EEC040091
:1021700087D40400A1BD040090A704004992040084
:10218000C17D0400EE690400C75604004444040005
:102190005C32040008210400411004000000040027
:1021A0003FF00300F8E0030026D20300C3C303009E
:1021B000CCB503003AA803000A9B0300388E030045
:1021C000C08103009F750300D0690300505E0300C7
:1021D0001D53030034480300913D030033330300D3
:1021E00016290300381F030097150300300C030065
:1021F000030303000BFA020049F10200BAE80200EF
:102200005CE002002DD802002DD0020059C8020067
:10221000B0C0020031B90200DAB10200AAAA02007D
:10222000A0A30200BC9C0200FA9502005C8F020091
:10223000DF88020082820200457C020027760200CD
:1022400027700200436A02007C640200D05E020034
:102250003F590200C8530200FFFDFCFAF8F6F4F201
:10226000F0EEECEAE9E7E5E3E1E0DEDCDAD9D7D548
:10227000D4D2D0CFCDCBCAC8C7C5C3C2C0BFBDBCE6
:10228000BAB9B7B6B4B3B2B0AFADACAAA9A8A6A557
:10229000A4A2A1A09E9D9C9A9998979594939290A0
:1022A0008F8E8D8B8A8988878684838281807F7ECA
:1022B0007D7B7A797877767574737271706F6E6DD5
:1022C0006C6B6A696867666564636261605F5E5DC6
:1022D0005C5B5A5958585756555453525150504FA9
:1022E0004E4D4C4B4A4A4948474646454443424274
:1022F00041403F3E3E3D3C3B3B3A3938383736352E
:1023000035343332323130302F2E2E2D2C2B2B2AD8
:102310002929282727262525242323222121202077
:102320001F1E1E1D1C1C1B1B1A1919181817161608
:10233000151514131312121111100F0F0E0E0D0D8F
:102340000C0C0B0A0A09090808070706060505040C
:102350000403030202010000000044430000314373
:102360000000394300002041000020C100000000AF
:1023700053657474696E67732053746F726564007B
:102380000000C8430000C843000000400000344281
:102390000000A3420000A3425258C8430000D842A4
:1023A000881300008813000032000000881300002A
:1023B0003B20003A0A0020204D383532205300538C
:1023C0006B657720466163746F723A200020204D60
:1023D0003835312058005A2D50726F6265204F6693
:1023E000667365740020440020490020204D33307E
:1023F000312050005049442073657474696E6773CE
:102400003A0020460020420020480020204D313470
:10241000352053004D6174657269616C2068656197
:1024200074757020706172616D65746572733A00C5
:10243000204A002020473239205720490020204DD3
:102440003432302053004175746F20426564204C53
:102450006576656C696E673A0020204D3230362013
:102460005800486F6D65206F66667365743A00208A
:10247000580020530020204D323035204200416466
:1024800076616E6365643A20423C6D696E5F736588
:10249000676D656E745F74696D655F75733E20531B
:1024A0003C6D696E5F66656564726174653E20545B
:1024B0003C6D696E5F74726176656C5F66656564BC
:1024C000726174653E20583C6D61785F785F6A6523
:1024D000726B3E20593C6D61785F795F6A65726B03
:1024E0003E205A3C6D61785F7A5F6A65726B3E2070
:1024F000453C6D61785F655F6A65726B3E00205494
:102500000020520020204D323034205000416363BF
:10251000656C65726174696F6E2028756E6974737D
:102520002F7332293A20503C7072696E745F616378
:1025300063656C3E20523C726574726163745F61C6
:102540006363656C3E20543C74726176656C5F61B8
:102550006363656C3E0020204D3230312058004DC1
:102560006178696D756D20416363656C6572617436
:10257000696F6E2028756E6974732F7332293A0063
:1025800020204D3230332058004D6178696D756DD3
:10259000206665656472617465732028756E697460
:1025A000732F73293A00537465707320706572201D
:1025B000756E69743A0020440020204D323030207E
:1025C00053002044697361626C65640A0046696C5B
:1025D000616D656E742073657474696E67733A001B
:1025E00020204D3134392043203B20556E697473CF
:1025F00020696E2043656C736975730A0020286D2D
:102600006D29002020473231202020203B20556EAC
:1026100069747320696E206D6D0024F4D43050C34A
:102620008E20C2A24017828B7011127A910D816C9C
:10263000D90AA861E108C7586607615143061E4BD5
:102640005D05C145A7041A411104093D980371397C
:1026500031034036DB0265339102D4305402802EC0
:102660001D02632CEE01752AC501B028A0011027B8
:1026700081018F2564012B244B01E0223401AC2120
:102680001F018D200D01801FFC00841EED00971D91
:10269000DF00B81CD200E61BC600201BBC00641A79
:1026A000B200B219A8000A19A0006A189900D1173F
:1026B000910040178B00B516840031167E00B315CB
:1026C00079003A157300C7146F0058146A00EE13AE
:1026D00066008813630025135E00C7125B006C124E
:1026E000570015125400C111510070114F002111F3
:1026F0004B00D61049008D104700461044000210D0
:102700004200C00F4000800F3E00420F3C00060F09
:102710003B00CB0E3800930E37005C0E3500270EC1
:102720003400F30D3200C10D3100900D3000600D0A
:102730002E00320D2D00050D2C00D90C2B00AE0CF7
:102740002900850C29005C0C2700350C27000E0C95
:102750002600E80B2400C40B2400A00B23007D0BF3
:1027600023005A0B2100390B2100180B2000F80A16
:102770001F00D90A1E00BB0A1E009D0A1D00800A08
:102780001D00630A1C00470A1B002C0A1B00110ACB
:102790001A00F7091A00DD091900C4091900AB096C
:1027A0001900920917007B091800630917004C09EA
:1027B000160036091600200916000A091500F5084A
:1027C0001500E0081400CC081400B8081400A40890
:1027D0001400900813007D0812006B0813005808BD
:1027E00012004608120034081100230811001208D4
:1027F000110001081100F0071000E0071000D007D9
:102800001000C0071000B0070F00A10710009107CB
:102810000E0083070F0074070F0065070E005707AF
:102820000E0049070E003B070D002E070E00200783
:102830000D0013070D0006070D00F9060C00ED064C
:102840000D00E0060C00D4060C00C8060C00BC0607
:102850000C00B0060C00A4060B0099060C008D06B7
:102860000B0082060B0077060B006C060B0061065E
:102870000A0057060B004C060A0042060A003806FA
:102880000A002E060A0024060A001A060A0010068C
:10289000090007060A00FD050900F4050900EB051B
:1028A0000900E2050900D9050900D0050900C7059E
:1028B0000900BE050900B5050800AD050800A5051D
:1028C00009009C050800940508008C050800840593
:1028D00008007C050800740508006C050700650504
:1028E00008005D050700560508004E05070047056E
:1028F00007004005080038050700310507002A05D4
:102900000700230507001C050600160507000F0534
:1029100007000805060002050700FB040600F50491
:102920000700EE040600E8040600E2040700DB04EA
:102930000600D5040600CF040600C9040600C3043F
:102940000600BD040600B7040600B1040500AC048F
:102950000600A6040600A00405009B0406009504DA
:102960000500900406008A04050085040500800423
:1029700006007A04050075040500700405006B0468
:10298000050066040500610405005C0405005704A9
:102990000500520405004D040500480405004304E9
:1029A00005003E0404003A04050035040500300427
:1029B00004002C04050027040400230405001E0461
:1029C00004001A04040016040500110404000D0498
:1029D0000400090405000404040000040400FC03CE
:1029E0000400F8030400F4030400F0030400EC0303
:1029F0000400E8030400E4030400E0030400DC0333
:102A00000400D8030400D4030400D0030400CC0362
:102A10000400C8030300C503030024F404D9201BE9
:102A2000C40C5C0E9804C4095F0265077101F405CB
:102A3000F900FB04B30048048700C1036900580390
:102A4000550003034500BE023A00840231005302E0
:102A50002A002902250004022000E4011C00C8010C
:102A60001900AF01170098011400840113007101CF
:102A700010006101100051010E0043010D003601EC
:102A80000B002B010B0020010B00150109000C01AC
:102A9000090003010800FB000800F3000800EB0038
:102AA0000700E4000600DE000600D8000600D200A1
:102AB0000600CC000500C7000500C2000500BD00EF
:102AC0000400B9000400B5000400B1000400AD002A
:102AD0000400A9000400A5000300A20003009F0059
:102AE00004009B000300980003009500020093007F
:102AF0000300900003008D0002008B00030088009B
:102B000002008600020084000300810002007F00B2
:102B100002007D0002007B000200790002007700C5
:102B200001007600020074000200720001007100D2
:102B300002006F0002006D0001006C0002006A00DC
:102B400001006900020067000100660001006500E5
:102B500001006400020062000100610001006000E9
:102B600001005F0002005D0001005C0001005B00ED
:102B700001005A00010059000100580001005700EF
:102B800001005600010055000100540001005300EF
:102B900000005300010052000100510001005000EC
:102BA00001004F0001004E0000004E0001004D00EA
:102BB00001004C0001004B0000004B0001004A00E6
:102BC00001004900010048000000480001004700E2
:102BD00001004600000046000100450000004500DD
:102BE00001004400010043000000430001004200D6
:102BF00000004200010041000000410001004000CF
:102C000001003F0000003F0001003E0000003E00C8
:102C100001003D0000003D0001003C0000003C00C0
:102C200000003C0001003B0000003B0001003A00B6
:102C300000003A00010039000000390001003800AE
:102C400000003800000038000100370000003700A5
:102C5000010036000000360000003600010035009B
:102C60000000350000003500010034000000340091
:102C70000000340001003300000033000000330086
:102C8000010032000000320000003200010031007B
:102C90000000310000003100010030000000300071
:102CA0000000300001002F0000002F0000002F0066
:102CB00000002F0001002E0000002E0000002E005A
:102CC00001002D0000002D0000002D0000002D004F
:102CD00001002C0000002C0000002C0000002C0043
:102CE00001002B0000002B0000002B0000002B0037
:102CF00001002A0000002A0000002A0000002A002B
:102D0000010029000000290000002900000029001E
:102D10000000290001002800000028000000280011
:102D20000000280000002800010027000000270004
:102D300000002700000027000000270001002600F7
:102D400000002600000026000000260000002600EB
:102D500001002500000025000000250000002500DE
:102D600000002500000025000100240000002400D0
:102D700000002400000024000000240001002300C3
:102D800000002300000023000000230000002300B7
:102D900000002300000023000100220000002200A8
:102DA000000022000000220000002200000022009B
:102DB000010021000000210000002100000021008E
:102DC000000021000000210000002100010020007F
:102DD0000000200000002000000020000000200073
:102DE00000002000000020000000200001001F0063
:102DF00000001F0000001F0000001F0000001F0057
:102E000000001F0000001F0001001E0000001E0047
:102E100000001E0000001E000000393000003325B5
:102E2000000087190000B00F0000DB080000BD049F
:102E30000000740200003F01000020436F756E74B3
:102E400020583A0042656400453100626564002CF8
:102E50002073797374656D2073746F70706564216D
:102E6000204865617465725F49443A200048656195
:102E700074696E67204661696C65640048656174B9
:102E8000696E67206661696C656400544845524DFF
:102E9000414C2052554E4157415900546865726D5E
:102EA000616C2052756E61776179004572723A20CB
:102EB0004D415854454D50004D415854454D5020BA
:102EC000747269676765726564004572723A204D75
:102ED000494E54454D50004D494E54454D50207477
:102EE000726967676572656400202F002042403A6E
:102EF0000020403A000009121B242D363F48415A59
:102F0000536C657E7719100B023D342F26515843C0
:102F10004A757C676E323B2029161F040D7A736850
:102F2000615E574C452B2239300F061D14636A71C0
:102F300078474E555C646D767F4049525B2C253E48
:102F40003708011A137D746F6659504B42353C2780
:102F50002E1118030A565F444D727B60691E170CD0
:102F6000053A3328214F465D546B627970070E1580
:102F70001C232A31384148535A656C777E09001B5F
:102F8000122D243F3658514A437C756E6710190242
:102F90000B343D262F737A6168575E454C3B3229CE
:102FA000201F160D046A6378714E475C55222B3042
:102FB00039060F141D252C373E0108131A6D647F46
:102FC0007649405B523C352E2718110A03747D6602
:102FD0006F5059424B171E050C333A21285F564D4E
:102FE000447B7269600E071C152A233831464F5402
:102FF0005D626B70797C3C3E5E2B3D3F2F5B5D3BA1
:103000002C2A225C0043616E6E6F74206F70656EB7
:10301000207375626469722000534420496E69749C
:10302000204661696C0053442063617264206F6BB9
:103030000A006F70656E526F6F74206661696C650F
:10304000640A00766F6C756D652E696E6974206612
:1030500061696C65640A004E6F205344206361729D
:10306000640A000A4D3234004D3233202573002E9D
:103070000A006F70656E206661696C65642C20467D
:10308000696C653A200046696C652073656C656300
:103090007465640A002053697A653A200046696CB9
:1030A00065206F70656E65643A2000454E4420537C
:1030B0005542524F5554494E450A002220706F73B5
:1030C000002220706172656E743A2200535542529C
:1030D0004F5554494E452043414C4C207461726712
:1030E00065743A220053756263616C6C204F76659B
:1030F00072666C6F77004578636565646564206D02
:10310000617820535542524F5554494E45206465CD
:103110007074683A0057726974696E6720746F2022
:1031200066696C653A2000667265736800646F6951
:103130006E67002066696C653A20004E6F7720004C
:103140002F6175746F25632E670000000A0B02095A
:103150000C0D0E0807030401000000000000000031
:10316000000000000000000000000000000000005F
:10317000000000000000121110000000000000001C
:10318000000000000000000000000000000000003F
:10319000026D61726C696E66772E6F7267006D6189
:1031A000726C696E66772E6F7267006D61726C6902
:1031B0006E66772E6F7267006275676669782D326A
:1031C0002E302E78006275676669782D322E302E8B
:1031D00078006275676669782D322E302E78006D22
:1031E00061726C696E66772E6F7267006D61726CCA
:1031F000696E66772E6F7267006D61726C696E66BC
:10320000772E6F726700206275676669782D322E9F
:10321000302E780070012C0190012701B0012201AD
:10322000C0011D01F00118011002130130020E014E
:103230006002090190020401C002FF000003FA00CD
:103240004003F5008003F000D003EB002004E6000B
:103250007004E100E004DC004005D700C005D200A6
:103260004006CD00D006C8008007C3003008BE006D
:10327000F008B900C009B400B00AAF00B00BAA0052
:10328000D00CA500000EA000500F9B00C0109600AF
:103290005012910000148C00C0158700B0178200F6
:1032A000B0197D00D01B7800001E730040206E0016
:1032B00090226900F024640040275F0090295A00A2
:1032C000E02B5500102E500020304B0010324600ED
:1032D000E033410090353C00103737007038320041
:1032E000A0392D00B03A2800A03B2300603C1E000E
:1032F000103D1900903D1400103E0F00703E0A0072
:10330000C03E0500003F0000403FFBFF803FF6FF4E
:10331000C03FF1FF2020506C616E6E657242756691
:1033200066657242797465733A200020467265655D
:10333000204D656D6F72793A2000436F6D70696C36
:1033400065643A204A616E20203320323032310ADF
:1033500000204C61737420557064617465643A2078
:10336000323032312D30312D3033207C2041757494
:10337000686F723A206A6F6E7361670A00627567E0
:103380006669782D322E302E780A004D61726C6994
:103390006E0020536F6674776172652052657365A5
:1033A000740A00205761746368646F672052657304
:1033B00065740A002042726F776E206F7574205218
:1033C000657365740A002045787465726E616C20BF
:1033D00052657365740A00506F77657255700A0004
:1033E00073746172740A004732385859004D313095
:1033F0003031006572726F722077726974696E671E
:1034000020746F2066696C650A00446F6E652073D6
:103410006176696E672066696C652E0A004D3239E7
:1034200000456E6473746F7073002553202563200C
:10343000256320256320256300205A3A0020593A4D
:103440000020583A00656E6473746F707320686969
:10345000743A2000004D6F76652025736D6D004D28
:103460006F766520302E316D6D004D6F76652031A1
:103470006D6D004D6F76652031306D6D004D6F764E
:1034800065204178697300457874727564657200CF
:103490004D6F7665205A004D6F76652059004D6F4F
:1034A00076652058005072696E742066726F6D20C8
:1034B0004D656469610050726F62696E6720466194
:1034C000696C65640A0050726F62696E67204661BC
:1034D000696C656400205A3A200020593A20004265
:1034E000656420583A2000220A00556E6B6E6F7793
:1034F0006E20636F6D6D616E643A202200476565D2
:1035000065746563682069332050726F20422052D1
:10351000656164792E005072696E74696E672E2E33
:103520002E005072696E74205061757365640020BE
:103530004500205A00205900204D393220580020E3
:10354000453A00205A3A0020593A00583A0020746F
:103550006F6F206C6F6E6720657874727573696F1A
:103560006E2070726576656E7465640A0020636F04
:103570006C6420657874727573696F6E2070726503
:1035800076656E7465640A00000021104220633085
:103590008440A550C660E770088129914AA16BB1AB
:1035A0008CC1ADD1CEE1EFF1311210027332522253
:1035B000B5529442F772D662399318837BB35AA3FB
:1035C000BDD39CC3FFF3DEE3622443342004011423
:1035D000E664C774A44485546AA54BB5288509954B
:1035E000EEE5CFF5ACC58DD55336722611163006F3
:1035F000D776F6669556B4465BB77AA7199738879B
:10360000DFF7FEE79DD7BCC7C448E5588668A778B2
:103610004008611802282338CCC9EDD98EE9AFF9EA
:10362000488969990AA92BB9F55AD44AB77A966A92
:10363000711A500A333A122AFDDBDCCBBFFB9EEB3A
:10364000799B588B3BBB1AABA66C877CE44CC55C62
:10365000222C033C600C411CAEED8FFDECCDCDDD8A
:103660002AAD0BBD688D499D977EB66ED55EF44E32
:10367000133E322E511E700E9FFFBEEFDDDFFCCFDA
:103680001BBF3AAF599F788F8891A981CAB1EBA12E
:103690000CD12DC14EF16FE18010A100C230E320AA
:1036A0000450254046706760B9839893FBA3DAB352
:1036B0003DC31CD37FE35EF3B1029012F322D232FA
:1036C0003542145277625672EAB5CBA5A895898522
:1036D0006EF54FE52CD50DC5E234C324A01481044A
:1036E0006674476424540544DBA7FAB79987B897F2
:1036F0005FE77EF71DC73CD7D326F2369106B0169A
:1037000057667676154634564CD96DC90EF92FE9B1
:10371000C899E9898AB9ABA94458654806782768E9
:10372000C018E1088238A3287DCB5CDB3FEB1EFB91
:10373000F98BD89BBBAB9ABB754A545A376A167A39
:10374000F10AD01AB32A923A2EFD0FED6CDD4DCD61
:10375000AABD8BADE89DC98D267C076C645C454C89
:10376000A23C832CE01CC10C1FEF3EFF5DCF7CDF31
:103770009BAFBABFD98FF89F176E367E554E745ED9
:10378000932EB23ED10EF01E00002200250028002C
:103790002B002E0031003400020100000501080159
:1037A0000B0100002100240027002A002D0030001A
:1037B000330001010000040107010A0105050505A8
:1037C000070508080808020202020A0A0808040499
:1037D00004040101010101010101030303030303C7
:1037E0000303040707070C0C0C0C0C0C0C0C020256
:1037F000020206060606060606060B0B0B0B0B0B53
:103800000B0B0102102020080810204010204080DF
:103810000201020108040201010204081020408094
:103820008040201008040201800402018040201022
:10383000080402010804020101020408102040806B
:1038400001020408102040806E011C0111241FBEDB
:10385000CFEFD1E2DEBFCDBF00E00CBF13E0A0E0B0
:10386000B2E0E0E3FEE302E00BBF02C007900D927E
:10387000AC33B107D9F724E1ACE3B3E001C01D924A
:10388000A835B207E1F71CE1C5E2DCE100E006C0C3
:1038900021970109802FFE010F94881EC432D107A1
:1038A00080E00807A9F70F9466080D94061F0C9492
:1038B0000000FC0184910895FC0180810895AF927D
:1038C000BF92CF92DF92EF92FF920F931F93CF930D
:1038D000DF93EC015B018A01FB01199587FD16C09E
:1038E000C82ED12CF12CE12C2196F801C082D18276
:1038F000E282F382CE01DF91CF911F910F91FF9071
:10390000EF90DF90CF90BF90AF900895982F907E6A
:10391000903CA9F48F7190E0B0E0A0E06C017D01D3
:1039200056E0CC0CDD1CEE1CFF1C5A95D1F7CE01E5
:103930000196F50119958F73C82A2296D6CF982F34
:10394000907F903E11F58F7090E0B0E0A0E06C01A8
:103950007D0136E0CC0CDD1CEE1CFF1C3A95D1F746
:10396000CE010196F50119958F73C82A46E0CC0C5B
:10397000DD1CEE1CFF1C4A95D1F7CE010296F50125
:1039800019958F73C82A2396B0CF982F987F903FB0
:1039900079F5877090E0B0E0A0E06C017D0186E0F1
:1039A000CC0CDD1CEE1CFF1C8A95D1F7CE010196D4
:1039B000F50119958F73C82A96E0CC0CDD1CEE1C1E
:1039C000FF1C9A95D1F7CE010296F50119958F73D8
:1039D000C82A26E0CC0CDD1CEE1CFF1C2A95D1F772
:1039E000CE010396F50119958F73C82A24967DCFD1
:1039F000982F907C903841F4807C803869F421962F
:103A0000CE01F5011995F8CF8E7F8D3F28F02196D4
:103A1000CE01F5011995F8CFC12CD12C760165CFD7
:103A2000CF93DF93DB01F9019C919130C1F0943089
:103A300080F094509C938830D1F4808191810097DC
:103A400071F0019791838083480F591FEA01188212
:103A500006C08C3539F49C5F9C93943041F4DF911F
:103A6000CF9108958B3339F781E08C93F8CF208183
:103A70003181B9016F5F7F4F71836083420F531FA4
:103A8000EA018883808191818F3591056CF7E7CFBA
:103A90000F931F9381E000916E1110916F1120918F
:103AA00070113091711140916A1150916B116091B8
:103AB0006C1170916D11041715072607370708F46C
:103AC00080E01F910F910895282F9091FC0383307F
:103AD00021F495FD0FC094FD0FC0892F90E0B0E058
:103AE000A0E004C0B695A795979587952A95D2F73B
:103AF0008170089581E0089580E008952F923F92AB
:103B00004F925F926F927F928F929F92AF92BF92ED
:103B1000CF92DF92EF92FF920F931F93CF93DF9399
:103B2000CDB7DEB72E970FB6F894DEBF0FBECDBF70
:103B3000F82EE62E042F122F282F30E03A872987FF
:103B4000862F90E09C878B87220F331FA985BA852B
:103B50002A0F3B1F3E872D87FC01E20FF31FEE0F5C
:103B6000FF1FEE0FFF1FED5BFA4F608171818281B5
:103B700093819B01AC010F94261E882309F440C158
:103B8000802F8F0D612F6E0D282F30E0F901EE0F81
:103B9000FF1FE20FF31FAB85BC85AE0FBF1FAA0F3F
:103BA000BB1FAA0FBB1FAD5BBA4FAC901196BC9068
:103BB00011971296CC9012971396DC90080F802FD5
:103BC00090E0AC01440F551F480F591FAB85BC85D1
:103BD000A40FB51FAA0FBB1FAA0FBB1FAD5BBA4F27
:103BE000EC901196FC90119712960C9112971396E7
:103BF0009C90862F90E0AD85BE85A80FB91FAA0FB7
:103C0000BB1FAA0FBB1FAD5BBA4F8C9011967C9067
:103C1000119712966C90129713965C90610F70E05A
:103C20002D853E85260F371F220F331F220F331F8E
:103C30002D5B3A4F3E872D87D9014C9011963C90D1
:103C4000119712961C91129713962C90E80FF91F5A
:103C5000EE0FFF1FEE0FFF1FED5BFA4FB081B98330
:103C600021812A8332813B8383818C83FA01E60F91
:103C7000F71FEE0FFF1FEE0FFF1FED5BFA4F908156
:103C80009D83A181AE83B281BF8323812887970161
:103C9000402F592DB701802F992D0F94261E882370
:103CA00021F0E12CF12C00E0912C9501A601B50149
:103CB000C6010F94261E882319F05701C02ED92C57
:103CC000242D332D412F522D642D732D812F922DB4
:103CD0000F94261E882321F0412C312C10E0212C3A
:103CE000282D372D462D552D682D772D862D952D78
:103CF0000F94261E882321F0842C732C612E522CC5
:103D00002D813E814F8158856D817E818F8198857F
:103D10000F94261E882321F01D821E821F82188682
:103D200029813A814B815C8169817A818B819C8177
:103D30000F94261E882341F03D8139838E818A832A
:103D40009F819B83A885AC83E985FA85EE0FFF1FD1
:103D500029853A85E20FF31F8B859C85E80FF91FB3
:103D6000EE0FFF1FEE0FFF1FED5BFA4FFA87E9879B
:103D70009501A601B501C6010F94341B9701402F90
:103D8000592D0F94331B6B017C01282D372D462DA7
:103D9000552D682D772D862D952D0F94341B242DB0
:103DA000332D412F522D0F94331B9B01AC01C701C2
:103DB000B6010F94341B6B017C0129813A814B8140
:103DC0005C8169817A818B819C810F94341B2D8168
:103DD0003E814F8158850F94331B9B01AC01C70175
:103DE000B6010F94341B20E030E040E450E40F941F
:103DF0002E1CA985BA856D937D938D939C93139703
:103E00002E960FB6F894DEBF0FBECDBFDF91CF91D7
:103E10001F910F91FF90EF90DF90CF90BF90AF90E8
:103E20009F908F907F906F905F904F903F902F90DA
:103E30000895A09A0895809A889808950C94429BBA
:103E40000C94429B0C94429B0C94429B0C94F49ACD
:103E50000C94F49A0C94F49A0C94F49A63E972E03A
:103E600084E690E00E9463BD6AEB72E084E690E035
:103E70000C9463BD81110C942E1F68EB71E084E1FA
:103E800090E00C9463BD80915E02882341F06091C4
:103E9000FD047091FE0441E081E00C9446E9089530
:103EA0000E9402950C943A1F0E9417D40C943A1F5A
:103EB0000E9434B30C942E1FEF92FF920F931F9326
:103EC000CF93DF9300D000D01F921F92CDB7DEB703
:103ED0008E010F5F1F4FD80130E020E0FB01E20FA1
:103EE000F31FE491ED932F5F3F4F28303105B1F779
:103EF000877028E0829FC001112480640E944EEFE9
:103F0000780188E0E80EF11CF80161918F018DE3E2
:103F100090E10E94F8EFE016F106B1F728960FB68F
:103F2000F894DEBF0FBECDBFDF91CF911F910F91EF
:103F3000FF90EF900895CF92DF92EF92FF920F9350
:103F40001F93CF93DF9300D000D0CDB7DEB78A01A7
:103F500046E0469F9001479F300D1124BC01620F3F
:103F6000731F46E050E0CE0101960F94B313C98051
:103F7000DA80EB80FC80F80140815181628173819D
:103F80008FEF9FEFC416D506E606F70640F081E0F6
:103F900090E04C155D056E057F0508F080E02696E3
:103FA0000FB6F894DEBF0FBECDBFDF91CF911F914A
:103FB0000F91FF90EF90DF90CF9008950F931F9394
:103FC000CF93DF93CDB7DEB72E970FB6F894DEBF51
:103FD0000FBECDBF8A011E861D866F8378878987B5
:103FE0009A872FEF2B87603871058105910538F48A
:103FF0008DE390E10E94F8EF81E090E02FC09E01F8
:10400000235F3F4FAE01495F5F4F69EB70E089E48A
:1040100095E10E9492D597FD2CC08D859E8526E066
:10402000289FB001299F700D1124675B7A4E46E0EE
:1040300050E0CE0101960F94B3136D818DE390E1B2
:104040000E94F8EF01301105B9F26E816623A1F2EA
:104050008DE390E10E94F8EF82E090E02E960FB69B
:10406000F894DEBF0FBECDBFDF91CF911F910F91AE
:1040700008959E01235F3F4FAE01495F5F4F63E6A6
:1040800070E087EF92E10E9492D597FD0BC08D857D
:104090009E8526E0289FB001299F700D112469504C
:1040A0007D4EC5CF6FE3A4CF8091F1039091F203D1
:1040B000009731F04AE050E070E060E00D94A71204
:1040C00060E070E0CB0108958091F1039091F203DC
:1040D000009731F04AE050E070E060E00D94791113
:1040E00060E070E0CB0108950E94642097FD0CC051
:1040F0000E9464206F3F71058105910509F034F439
:104100000E946420862F089580E008958FEF08951F
:104110008091F1039091F203892B41F00E94742069
:1041200091E0811101C090E0892F089591E0FCCFCA
:104130000E946420CB010895CF92DF92EF92FF920C
:104140000F931F93CF93DF936B017A01EC01C45B54
:10415000DC4F28813CE0389F8001399F100D1124ED
:1041600027FF24C0FB011182108288818F5F888322
:1041700088819801280F311D87FD3A95C90120914A
:10418000F40FF6012817190629F024F088818C30E5
:104190000CF43CC080819181049680349C4908F4E1
:1041A00075C0F60180819181049672C08881980162
:1041B000280F311D87FD3A95C9012091F40F28176A
:1041C000190699F294F28881A801480F511D87FDC4
:1041D0005A95FA01EE0FFF1FE40FF51FE455F04F5B
:1041E000808187FFC2CF8881F801E80FF11D87FD2C
:1041F000FA95CF01EE0FFF1FE80FF91FE455F04FBE
:10420000808160E08F770E948DEDAFCF80819181BA
:104210002881A801420F511D27FD5A959A01FA01E4
:10422000EE0FFF1FE20FF31FE455F04F21813281A3
:10423000820F931FF7019183808388819801280F53
:10424000311D87FD3A95F901EE0FFF1FE20FF31FB5
:10425000E455F04F808187FF20C08881080F111D31
:1042600087FD1A95F801EE0FFF1FE00FF11FE455CF
:10427000F04F808161E08F77DF91CF911F910F9197
:10428000FF90EF90DF90CF900C948DED80E49CE94F
:10429000F701918380838FEF8883DF91CF911F9106
:1042A0000F91FF90EF90DF90CF900895CF93DF9321
:1042B00000D01F92CDB7DEB70F94A71C0F949114B6
:1042C00069837A838B839C83CE0101960E9409B710
:1042D0000F900F900F900F90DF91CF9108958F92D4
:1042E0009F92AF92BF92CF92DF92EF92FF92CF93C5
:1042F0006B017C0120E030E0A9010F948C1487FD54
:104300009FC06DEB77E386E095E3A70196010F94DC
:10431000341B6B017C0120E030E040E251E40F945B
:10432000F21420E030E048EC52E40F94F2144B0118
:104330005C0120E030E0A901C701B6010F948C14A4
:1043400020E030E040EA50E487FF04C020E030E0A5
:1043500040EA50ECC501B4010F94341B20E030E07A
:1043600040E251E40F942E1C0F94A01C6B017C01C1
:104370008BE2F7FE09C0F094E094D094C094C11C85
:10438000D11CE11CF11C8DE280936608C701B601C7
:1043900020E137E240E050E00F94F21A8AE0882EE4
:1043A000912CA12CB12CCA01B901A50194010F9443
:1043B000F21A605D60936708C701B60128EE33E02A
:1043C00040E050E00F94F21ACA01B901A50194012E
:1043D0000F94F21A605D60936808C701B60124E685
:1043E00030E040E050E00F94F21ACA01B901A50193
:1043F00094010F94F21A605D609369088EE28093D5
:104400006A08C701B601A50194010F94F21AC62FDC
:10441000CA01B901A50194010F94F21A605D60937D
:104420006B08C05DC0936C0886E698E0CF91FF9062
:10443000EF90DF90CF90BF90AF909F908F900895B6
:104440006DEB77E386E095EB60CF8F929F92AF9212
:10445000BF92CF92DF92EF92FF926B017C0120E03E
:1044600030E0A9010F948C1487FD6BC06DEB77E3EE
:1044700086E095E3A70196010F94341B6B017C0144
:1044800020E030E040E251E40F94F21420E030E00C
:1044900040E251E40F94F2144B015C0120E030E063
:1044A000A901C701B6010F948C1420E030E040EA66
:1044B00050E487FF04C020E030E040EA50ECC50142
:1044C000B4010F94341B20E030E040E251E40F943B
:1044D0002E1C0F94A01C9B018BE237FF05C02227E6
:1044E0003327261B370B8DE280936808C90164E6E9
:1044F00070E00F94741ECB01EAE0F0E0BF010F946E
:10450000741E805D80936908C901BF010F94741EF9
:10451000282FCB01BF010F94741E805D80936A0821
:104520008EE280936B08205D20936C0888E698E00B
:10453000FF90EF90DF90CF90BF90AF909F908F90C3
:1045400008956DEB77E386E095EB94CF8F929F9281
:10455000AF92BF92CF92DF92EF92FF92CF936B0117
:104560007C0120E030E0A9010F948C1487FDAAC0E3
:104570006DEB77E386E095E3A70196010F94341B7A
:104580006B017C0120E030E0A9010F948C1487FFBF
:104590009EC0C701B601905820E030E040E251E4EF
:1045A0000F94F21420E030E040E251E40F94F21452
:1045B00020E030E040EA50E40F94341B20E030E08B
:1045C00040E251E40F942E1C0F94A01C6B017C015F
:1045D00080E28093660860E280E1C81687E2D80630
:1045E000E104F1048CF0C701B60120E137E240E0BC
:1045F00050E00F94F21ACA01B9012AE030E040E01D
:1046000050E00F94F21A605D6093670860E288EEF4
:10461000C81683E0D806E104F1048CF0C701B601A6
:1046200028EE33E040E050E00F94F21ACA01B901DD
:104630002AE030E040E050E00F94F21A605D6093B1
:10464000680860E284E6C816D104E104F1048CF045
:10465000C701B60124E630E040E050E00F94F21AC2
:10466000CA01B9012AE030E040E050E00F94F21AAC
:10467000605D609369088AE0882E912CA12CB12C92
:10468000C701B601A50194010F94F21AC62FCA0101
:10469000B901A50194010F94F21A605D60936A0854
:1046A0008EE280936B08C05DC0936C0886E698E04C
:1046B000CF91FF90EF90DF90CF90BF90AF909F9001
:1046C0008F9008956DEB77E386E095EB55CF20E072
:1046D00030E040E251E4C701B60162CFCF92DF92F1
:1046E000EF92FF92CF93DF9300D01F92CDB7DEB74A
:1046F0006B017C0120E030E0A9010F948C1487FD50
:104700001BC06DEB77E386E095E3A70196010F945C
:10471000341B69837A838B839C83CE0101960E942C
:1047200009B70F900F900F900F90DF91CF91FF90EE
:10473000EF90DF90CF9008956DEB77E386E095EBF7
:10474000E4CF8F929F92AF92BF92CF92DF92EF927F
:10475000FF92CF936B017C0120E030E0A9010F9420
:104760008C1487FFA3C06DEB77E386E095EBA70180
:1047700096010F94341B6B017C0120E030E040E295
:1047800051E40F94F21420E030E048EC52E40F942E
:10479000F2144B015C0120E030E040E251ECC70133
:1047A000B6010F948C14181654F420E030E048EC55
:1047B00052E4C701B6010F94941D87FD8BC020E021
:1047C00030E0A901C701B6010F948C1487FF73C0B4
:1047D00060E070E080EA90ECA50194010F94341B36
:1047E00020E030E040E251E40F942E1C0F94A01C16
:1047F0006B017C01F7FC64C020E137E240E050E04F
:104800000F94F21ACA01B9012AE030E040E050E00A
:104810000F94F21A605D60936708C701B60128EE35
:1048200033E040E050E00F94F21A9AE0892E912C88
:10483000A12CB12CCA01B901A50194010F94F21A5F
:10484000605D60936808C701B60124E630E040E08F
:1048500050E00F94F21ACA01B901A50194010F9416
:10486000F21A605D609369088EE280936A08C7015E
:10487000B601A50194010F94F21AC62FCA01B9011D
:10488000A50194010F94F21A605D60936B08C05DFE
:10489000C0936C0887E698E0CF91FF90EF90DF908F
:1048A000CF90BF90AF909F908F9008956DEB77E37E
:1048B00086E095E35CCF60E070E080EA90E48CCF26
:1048C000F094E094D094C094C11CD11CE11CF11C64
:1048D0006DE2A1CF20E030E0A901C701B6010F943D
:1048E0008C1487FF6AC060E070E080EA90ECA5015C
:1048F00094010F94341B20E030E040E251E40F9427
:104900002E1C0F94A01C4B015C0120E030E0A9019B
:10491000C701B6010F94941D87FD0BC020E030E065
:1049200040E251E4C701B6010F948C1460E287FDA8
:1049300013C0B7FC47C0C501B40128EE33E040E026
:1049400050E00F94F21ACA01B9012AE030E040E0C9
:1049500050E00F94F21A605D60936808C501B401DD
:1049600024E630E040E050E00F94F21A8AE0C82ECE
:10497000D12CE12CF12CCA01B901A70196010F94A9
:10498000F21A605D609369088EE280936A08C5013F
:10499000B401A70196010F94F21AC62FCA01B901FA
:1049A000A70196010F94F21A605D60936B08C05DD9
:1049B000C0936C0888E698E06FCF60E070E080EA12
:1049C00090E495CFB094A09490948094811C911C15
:1049D000A11CB11C6DE2C0CFCF92DF92EF92FF928B
:1049E0006B017C0120E030E0A9010F948C1487FD5D
:1049F00026C06DEB77E386E095E3A70196010F945F
:104A0000341B6B017C0120E030E0A9010F948C1471
:104A100020E030E040E05FE387FF04C020E030E0CA
:104A200040E05FEBC701B6010F94341B0F94A01C4C
:104A3000CB01FF90EF90DF90CF900C9436B86DEBE8
:104A400077E386E095EBD9CF8091091090910A1019
:104A5000891B8F7051F480919F08813031F08091D3
:104A6000721182FB882780F9089581E00895E09112
:104A7000FC04E63010F581E08E0F8093FC04409139
:104A8000740850917508609176087091770890913C
:104A90006E0880916F0828E0E29FF0011124E45332
:104AA000FB4F20913B1030913C1031832083428397
:104AB000538364837583968387830895CF93DF93AD
:104AC000CDB7DEB78E8190912B0F891768F0809358
:104AD0002B0F9E01275F3F4F4F81588568E270E0A2
:104AE00082E09FE00F945314DF91CF9108950F93CC
:104AF0001F93CF93DF938C016F3F19F410922B0F0C
:104B000060E020912B0F862F062E000C990B2817A2
:104B1000190609F0F4F460932B0FC8010F94D91310
:104B2000800F911FEC01C01BD10BC932D1053CF0A5
:104B30000197FC012491207C2038D1F3F3CFDD27AD
:104B4000AE01B80182E09FE00F94FA13CE5FD04F20
:104B50001882DF91CF911F910F9108950F931F93AA
:104B60000E9469F00091BF041091C0042091C1041B
:104B70003091C204601B710B820B930B97FD0CC02C
:104B8000809109018095881F8827881F919B8260EA
:104B90004A9B84608093BE048091BE048170909192
:104BA000BE0491FD82609091BD04981749F0813058
:104BB00009F148F0823079F0833091F08093BD04A0
:104BC0001F910F910895913079F09230B9F790913B
:104BD000BC0491500CC0992339F09330C1F3EECF4F
:104BE0009130A9F3923051F79091BC049F5F90935C
:104BF000BC04E4CF992359F3933001F7F5CFCF925A
:104C0000DF92EF92FF92CF93C82F0E9469F06B0161
:104C10007C0124EA30E74DE75FE360911802709170
:104C2000190280911A0290911B020F948C1487FD37
:104C300018C08AEF90E0A0E0B0E08C0D9D1DAE1D85
:104C4000BF1D8093AC049093AD04A093AE04B093C9
:104C5000AF04C0931602CF91FF90EF90DF90CF90FA
:104C6000089580E090E0DC01E8CFFC0180E09491C1
:104C7000992331F0907C903809F08F5F3196F7CF0F
:104C80000895FC0180E09191992329F0907C90385F
:104C9000D1F38F5FF8CF08956EE07AE180E00E9453
:104CA0005C1F66E07AE181E00E945C1F6EEF79E1B3
:104CB00082E00E945C1F66EF79E186E00E945C1F43
:104CC0006EEE79E187E00E945C1F66EE79E183E099
:104CD0000E945C1F6EED79E184E00E945C1F66ED2E
:104CE00079E185E00C945C1FCF93823069F4C4E0D5
:104CF000C15068F088E0C89FB00111246156764E1B
:104D00008C2F0E945C1FF4CFCF910C944C26CF9136
:104D100008950F931F93522F20913B1030913C1018
:104D20002817390779F190933C1080933B108B0141
:104D300030E020E000937408109375082093760803
:104D40003093770840936E0850936F088F5F9144BB
:104D500021F4109200051092FC040E9454EF81E0AF
:104D600020913B1030913C102F5F314409F080E0DE
:104D70000E94742682E080935E0281E08093840822
:104D80001092FF041F910F91089520E040E070E021
:104D900060E08FEF91E40C948926E091FC04EE230F
:104DA00089F0E150E093FC0488E0E89FF0011124D1
:104DB000E453FB4F62817381278146818081918119
:104DC0000C9489260C94C526CF930E9434B30E947C
:104DD0000295C82F882319F080E00E94A7CB8C2F62
:104DE0000E943A1FCF910C94C5261092C3041092D2
:104DF0005D02809172118064809372110E94DBB613
:104E000060E08EE49AE10E9477250C94C5264F92CB
:104E10005F926F927F928F929F92AF92BF92CF924A
:104E2000DF92EF92FF920F931F93CF93DF9300D007
:104E30001F92CDB7DEB70E9469F04B015C018091F3
:104E400016028F3FF1F10E9469F0C090AC04D0903F
:104E5000AD04E090AE04F090AF046C197D098E09AA
:104E60009F0997FD2EC08091091090910A108F5FC5
:104E70008F70891731F1E0911602E43008F05AC0C2
:104E800024E0E29FF0011124E357FD4F80819181DE
:104E9000A281B38189839A83AB83BC83C12CD12C3B
:104EA00076018E010F5F1F4F25E732E041E752E0A8
:104EB0006DE672E089E692E00E94F8E48FEF80935D
:104EC00016020E94AE258091BE0482FF3CC08091F4
:104ED000BB0481113AC091E09093BB048091C3045C
:104EE000892780935B081092C30483E080935E025D
:104EF0001092BE040E9469F06C507E4F8F4F9F4FFE
:104F00006093BF047093C0048093C1049093C20463
:104F100068E873E182E090E00E9463BD16E0115002
:104F2000A1F00E94CBB962E070E080E090E00E94C6
:104F300006F0F5CF80915F0290916002A09161022E
:104F4000B0916202A7CF1092BB048091B7049091F8
:104F5000B804A091B904B091BA04A5019401281B2A
:104F6000390B4A0B5B0BDA01C901B7FD87C1D501CB
:104F7000C4018C599F4FAF4FBF4F8093B70490939C
:104F8000B804A093B904B093BA046091BC04062E8F
:104F9000000C770B77FF03C07195619571099091B3
:104FA000BC048091B604981399C0633008F096C091
:104FB0001092BC048091BC048093B604643008F065
:104FC0009DC080915B0881111BC180913B10909125
:104FD0003C108F5F914441F480911702882309F4BB
:104FE00021C18150809317020E94509EC090D0082A
:104FF000D090D108E090D208F090D30881110E949F
:105000005D9E20915E02222309F44BC0D701C601A8
:105010004AE0B695A795979587954A95D1F7009759
:1050200041E0A407B10520F08FEF9FEFA0E0B0E0D2
:1050300096958795009739F04091B0045091B1044E
:105040004817590770F5223038F0243008F4FCC0B6
:10505000243011F410925E02E0913B10F0913C106C
:10506000199510925B0880913B1090913C108F5FD6
:105070009144F9F40E9469F0DC01CB018819990987
:10508000AA09BB09C090B004D090B104F12CE12C66
:10509000C816D906EA06FB0620F49093B104809363
:1050A000B00480913B1090913C108F5F914409F4C3
:1050B000CFC0809100058111CBC08091B204909146
:1050C000B304A091B404B091B504881A990AAA0A4D
:1050D000BB0AB7FCCBC00E94C526C8C0633009F02C
:1050E00069CF8091BC0487FD07C081E0880F880FDD
:1050F0008093BC0464E05ECF8FEFF8CF8091890885
:1051000021E030E040E050E0882309F456C0C09030
:105110008508D0908608E0908708F0908808C11430
:10512000D104E104F104E9F170E090E080E00F9433
:10513000911420E030E040E85EE30F94F2142B017C
:105140003C01C501B4016C197D098E099F090F94BA
:1051500091149B01AC01C301B2010F942E1C20E0FD
:1051600030E04AE754E40F94F2146B017C0120E034
:1051700030E040EA52E40F94941D24E630E040E031
:1051800050E087FF12C020E030E040EF51E4C7015B
:10519000B6010F94941D2AE030E040E050E087FF14
:1051A00004C021E030E040E050E080928508909219
:1051B0008608A0928708B0928808A091BC040A2EA5
:1051C000000CBB0B0F941C1B24E030E040E050E0CF
:1051D0000F94F21A8091740890917508A091760846
:1051E000B0917708820F931FA41FB51F8093740896
:1051F00090937508A0937608B09377081092BC043A
:10520000D501C4018856954CAF4FBF4F8093B2046F
:105210009093B304A093B404B093B50481E0809359
:105220005E02D3CE89E0809317028091B004909102
:10523000B104009729F001979093B1048093B004D2
:1052400081E080935E02D0CE81E080935E0204CF45
:1052500038E9830E3AE3931EA11CB11C8092B2047C
:105260009092B304A092B404B092B50480915E020F
:105270008130C9F0833011F40E9454EF0F900F90E9
:105280000F900F90DF91CF911F910F91FF90EF90B2
:10529000DF90CF90BF90AF909F908F907F906F9056
:1052A0005F904F90089510925E02E8CF809362085D
:1052B00020E040E070E060E088EA9CE20C948926FF
:1052C000CF938091C404811109C080E69AE1909344
:1052D000FE048093FD0481E08093C4040E9437257E
:1052E00020E040E070E060E083E49FE10E948926D6
:1052F000C1E0C09300050E94669B109200050E94C9
:10530000CD26C093000560E082E295E30E947725F8
:105310008CE59AE19093D6068093D506CF910895B7
:1053200064E084E10E945CEF81E020913B103091C9
:105330003C102F5F314409F080E00E9474260C94E9
:1053400054EF0E949029EAE0F1E080818F7780831A
:1053500080910B0180958078809309019998A19A9A
:1053600052985A9A0E94AE251092BC0408954FEFAD
:105370005FEF0C94DE1FAF92BF92CF92DF92EF925D
:10538000FF920F931F93CF93DF9300D01F92CDB75F
:10539000DEB76C015B017A0110E000E00E151F051D
:1053A000E8F419821A821B821C82AE014F5F5F4FA4
:1053B000B501C6010E945F1C6C0169817A818B81F5
:1053C0009C81611571058105910541F0A701401B84
:1053D000510B0E94DE1F080F191FE0CFC8010F906C
:1053E0000F900F900F90DF91CF911F910F91FF9031
:1053F000EF90DF90CF90BF90AF900895CF92DF9263
:10540000EF92FF920F931F93CF93DF9300D01F92E1
:10541000CDB7DEB77C01062F6A01122F11160CF0F2
:105420003EC0AE014F5F5F4F69E57CE1C7010E945E
:105430005F1C7C0169817A818B819C81611571057A
:105440008105910561F16D3371058105910509F4BF
:105450004BC06E3771058105910509F445C06A326C
:1054600071058105910549F507FF10C08AE19AE1B0
:105470000E3F11F086E19AE1412F012E000C550BF1
:1054800069E57CE10E94BB29181B5EC065E470E001
:1054900080E090E00E94B729115041F510E0812F83
:1054A0000F900F900F900F90DF91CF911F910F9160
:1054B000FF90EF90DF90CF900895643271058105E1
:1054C000910571F4C114D10459F0412F012E000C43
:1054D000550B69E57CE1C6010E94BB29181B9ECFD4
:1054E0000E94B72911509ACF07FDC0CF61E0898192
:1054F0009A81AB81BC81CD97A105B10509F460E02B
:10550000600F6A30ACF01150862F6AE00F94521E83
:10551000092F682F880F770B605D7F4F072E000CD7
:10552000880B990B0E94B729112309F4B7CF602F7C
:10553000062E000C770B605D7F4F072E000C880B4A
:10554000990B0E94B7291150112309F4A7CF412FBD
:10555000012E000C550B69E57CE1C7010E94BB29B7
:10556000181B9DCF4FEF5FEF6CE57CE10C94BB29DE
:105570004FEF5FEF69E57CE10C94BB29643008F0E4
:1055800063E090915010691710F06FEF690FE62FEC
:10559000F0E0E35CFF4E9489890F80680C944EEF35
:1055A000FC01A081B1811C92A281B3818C918F5F9B
:1055B0008C930280F381E02D608180E00C94BE2A00
:1055C0004F925F926F927F928F929F92BF92CF92F3
:1055D000DF92EF92FF920F931F93CF93DF9300D050
:1055E00000D01F921F92CDB7DEB77C013B016A014C
:1055F0004901FB016081FC0180810E94BE2AC11427
:10560000D10471F1FA82E9827C826B82011121C09E
:10561000AE014B5F5F4FB401C6010E945F1C6C017D
:105620006D817E818F819885611571058105910558
:10563000B9F00E94B729F70180818F5F80838431A0
:1056400038F3CE0101960E94D02AE2CFB12C860118
:1056500029C08601B12C26C0452846284728B1F725
:1056600028960FB6F894DEBF0FBECDBFDF91CF9165
:105670001F910F91FF90EF90DF90CF90BF909F9080
:105680008F907F906F905F904F900895B39407C074
:10569000B1102EC001151105C9F20F5F1F4F011582
:1056A0001105A9F2AE014B5F5F4FB401C6010E9424
:1056B0005F1C6C014D805E806F80788441145104C2
:1056C00061047104A9F0F0E24F1651046104710401
:1056D000F9F2D301C2018D97A109B1090297A10581
:1056E000B10530F04BE2441651046104710471F6C7
:1056F000F7018081482F4B0D5527551F4531510526
:1057000034F0853020F0CE0101960E94D02A81E04D
:10571000411451046104710409F480E0B80EF701EA
:1057200080818B0D8083BB2009F496CFBA94AE01A3
:105730004B5F5F4FB401C8010E945F1C8C016D81FB
:105740007E818F8198850E94B729EDCF2F923F925D
:105750004F925F926F927F928F929F92AF92BF9281
:10576000CF92DF92EF92FF920F931F93CF93DF932D
:1057700000D0CDB7DEB74C013B015A01222E3B834E
:1057800028014091740850917508609176087091D5
:105790007708411551056105710579F081E014160E
:1057A00015060CF080E08093FF04109274081092AC
:1057B000750810927608109277081091FF043090C7
:1057C0005B0810925B08311005C080915E0288234F
:1057D00009F4A5C0C2010E943526082F80E0C1143B
:1057E000D10419F0C6010E9435261A821982E114EB
:1057F000F104B1F4402F50E0282F30E0CA01820FAD
:10580000931F45976CF484E190E0841B950B821BF9
:10581000930B97FD0196959587958A8381E08983FF
:1058200001E029E53CE1A201BE016F5F7F4FCE019F
:1058300002960E94E02AE114F10491F08A81882303
:1058400021F01A8289818F5F898300E02CE53CE199
:10585000A701BE016F5F7F4FCE0102960E94E02A32
:10586000C114D10459F000E029E53CE1A601BE01D4
:105870006F5F7F4FCE0102960E94E02A63E080E0D6
:105880000E94BE2A6BE570E080E090E0112321F0D9
:1058900060E270E080E090E00E94B729C3010E94BE
:1058A000B82A6DE570E080E090E0112321F060E21D
:1058B00070E080E090E00E94B729C4010E94352684
:1058C00063E092E1981B892F0E94BE2A60E270E09B
:1058D00080E090E0112321F06BE570E080E090E043
:1058E0000E94B729C4010E94B82A60E270E080E0FB
:1058F00090E0112321F06DE570E080E090E00E94DF
:10590000B729332049F0111102C0A22CBB80A11489
:10591000B104D9F0F501199581E0809300050F904D
:105920000F900F90DF91CF911F910F91FF90EF900B
:10593000DF90CF90BF90AF909F908F907F906F90AF
:105940005F904F903F902F9008950E94CD26E4CF16
:10595000AF92BF92CF92DF92EF92FF920F931F937D
:10596000CF93DF93CDB7DEB7ADB6BEB687EB9AE186
:105970000E94352690E001962DB73EB7281B390BC3
:105980000FB6F8943EBF0FBE2DBF8DB79EB70196E0
:105990007C0167EB7AE10F94D2138091620804E8EE
:1059A0001AE1813031F00FE61AE1823011F007E997
:1059B0001AE188EAC82E8AE1D82E25EC36E244EEB8
:1059C00056E26AEA7AE181EB9AE10E94A62B0FB6D1
:1059D000F894BEBE0FBEADBEDF91CF911F910F9167
:1059E000FF90EF90DF90CF90BF90AF900895CF924F
:1059F000DF92EF92FF9269017A010E94BE2AC701ED
:105A0000B601FF90EF90DF90CF900C94B729CF9222
:105A1000DF92FF920F931F93CF93DF938C01EB01E3
:105A2000C0908B08D0908C08F0908A0861E080E0EC
:105A30000E94BE2A23E1A6016F2DC8010E94FE2903
:105A4000182F209711F16AE370E080E090E00E9447
:105A5000B729CE010E9441268F5F115061E01817CF
:105A600008F462E020E230E040E050E094E1981B6E
:105A7000892F0E94F72CCE01DF91CF911F910F91BA
:105A8000FF90DF90CF900C94B22ADF91CF911F91BD
:105A90000F91FF90DF90CF9008950F931F93CF93B6
:105AA000DF93FC01EB018091740890917508A0913F
:105AB0007608B0917708B7FF08C01092740810926A
:105AC0007508109276081092770880917808909166
:105AD0007908A0917A08B0917B08409174085091A0
